{
  "address": "0xE53048D2D19338A294395D8A7f780E44A9379925",
  "abi": [
    {
      "anonymous": false,
      "inputs": [
        {
          "indexed": true,
          "internalType": "address",
          "name": "previousOwner",
          "type": "address"
        },
        {
          "indexed": true,
          "internalType": "address",
          "name": "newOwner",
          "type": "address"
        }
      ],
      "name": "OwnershipTransferred",
      "type": "event"
    },
    {
      "anonymous": false,
      "inputs": [
        {
          "indexed": false,
          "internalType": "bytes32",
          "name": "symbol",
          "type": "bytes32"
        },
        {
          "indexed": false,
          "internalType": "address",
          "name": "priceFeederAddress",
          "type": "address"
        },
        {
          "indexed": false,
          "internalType": "bool",
          "name": "invert",
          "type": "bool"
        }
      ],
      "name": "PriceFeederAdded",
      "type": "event"
    },
    {
      "inputs": [
        {
          "internalType": "address",
          "name": "_address",
          "type": "address"
        }
      ],
      "name": "addAddress",
      "outputs": [],
      "stateMutability": "nonpayable",
      "type": "function"
    },
    {
      "inputs": [
        {
          "internalType": "bytes32",
          "name": "_symbol",
          "type": "bytes32"
        }
      ],
      "name": "getCurrentPrice",
      "outputs": [
        {
          "internalType": "uint256",
          "name": "",
          "type": "uint256"
        }
      ],
      "stateMutability": "view",
      "type": "function"
    },
    {
      "inputs": [
        {
          "internalType": "uint256",
          "name": "",
          "type": "uint256"
        }
      ],
      "name": "indexToPriceFeeder",
      "outputs": [
        {
          "internalType": "bytes32",
          "name": "",
          "type": "bytes32"
        }
      ],
      "stateMutability": "view",
      "type": "function"
    },
    {
      "inputs": [
        {
          "internalType": "address",
          "name": "_devAddress",
          "type": "address"
        }
      ],
      "name": "initialize",
      "outputs": [],
      "stateMutability": "nonpayable",
      "type": "function"
    },
    {
      "inputs": [
        {
          "internalType": "bytes32",
          "name": "_symbol",
          "type": "bytes32"
        }
      ],
      "name": "isValid",
      "outputs": [
        {
          "internalType": "bool",
          "name": "",
          "type": "bool"
        }
      ],
      "stateMutability": "view",
      "type": "function"
    },
    {
      "inputs": [
        {
          "internalType": "address",
          "name": "_address",
          "type": "address"
        }
      ],
      "name": "isWhitelisted",
      "outputs": [
        {
          "internalType": "bool",
          "name": "",
          "type": "bool"
        }
      ],
      "stateMutability": "view",
      "type": "function"
    },
    {
      "inputs": [],
      "name": "owner",
      "outputs": [
        {
          "internalType": "address",
          "name": "",
          "type": "address"
        }
      ],
      "stateMutability": "view",
      "type": "function"
    },
    {
      "inputs": [],
      "name": "priceFeederCount",
      "outputs": [
        {
          "internalType": "uint256",
          "name": "",
          "type": "uint256"
        }
      ],
      "stateMutability": "view",
      "type": "function"
    },
    {
      "inputs": [
        {
          "internalType": "bytes32",
          "name": "",
          "type": "bytes32"
        }
      ],
      "name": "priceFeeders",
      "outputs": [
        {
          "internalType": "address",
          "name": "priceFeederAddress",
          "type": "address"
        },
        {
          "internalType": "bool",
          "name": "disabled",
          "type": "bool"
        },
        {
          "internalType": "bool",
          "name": "invert",
          "type": "bool"
        },
        {
          "internalType": "uint256",
          "name": "fallbackValue",
          "type": "uint256"
        }
      ],
      "stateMutability": "view",
      "type": "function"
    },
    {
      "inputs": [
        {
          "internalType": "bytes32",
          "name": "_symbol",
          "type": "bytes32"
        },
        {
          "internalType": "address",
          "name": "_priceFeederAddress",
          "type": "address"
        },
        {
          "internalType": "bool",
          "name": "_invert",
          "type": "bool"
        },
        {
          "internalType": "uint256",
          "name": "_fallbackValue",
          "type": "uint256"
        }
      ],
      "name": "registerPriceFeeder",
      "outputs": [],
      "stateMutability": "nonpayable",
      "type": "function"
    },
    {
      "inputs": [
        {
          "internalType": "address",
          "name": "_address",
          "type": "address"
        }
      ],
      "name": "removeAddress",
      "outputs": [],
      "stateMutability": "nonpayable",
      "type": "function"
    },
    {
      "inputs": [],
      "name": "renounceOwnership",
      "outputs": [],
      "stateMutability": "nonpayable",
      "type": "function"
    },
    {
      "inputs": [
        {
          "internalType": "bytes32",
          "name": "_symbol",
          "type": "bytes32"
        },
        {
          "internalType": "address",
          "name": "_priceFeederAddress",
          "type": "address"
        }
      ],
      "name": "setPriceFeederAddress",
      "outputs": [],
      "stateMutability": "nonpayable",
      "type": "function"
    },
    {
      "inputs": [
        {
          "internalType": "bytes32",
          "name": "_symbol",
          "type": "bytes32"
        },
        {
          "internalType": "bool",
          "name": "_disabled",
          "type": "bool"
        }
      ],
      "name": "setPriceFeederDisable",
      "outputs": [],
      "stateMutability": "nonpayable",
      "type": "function"
    },
    {
      "inputs": [
        {
          "internalType": "bytes32",
          "name": "_symbol",
          "type": "bytes32"
        },
        {
          "internalType": "uint256",
          "name": "_fallbackValue",
          "type": "uint256"
        }
      ],
      "name": "setPriceFeederFallbackValue",
      "outputs": [],
      "stateMutability": "nonpayable",
      "type": "function"
    },
    {
      "inputs": [
        {
          "internalType": "bytes32",
          "name": "_symbol",
          "type": "bytes32"
        },
        {
          "internalType": "bool",
          "name": "_invert",
          "type": "bool"
        }
      ],
      "name": "setPriceFeederInvertFlag",
      "outputs": [],
      "stateMutability": "nonpayable",
      "type": "function"
    },
    {
      "inputs": [
        {
          "internalType": "address",
          "name": "newOwner",
          "type": "address"
        }
      ],
      "name": "transferOwnership",
      "outputs": [],
      "stateMutability": "nonpayable",
      "type": "function"
    }
  ],
  "transactionHash": "0xd5bf78df8489ad5b97160f8bb4f631152b2f08c606a34487006099c7a5b36bd8",
  "args": [],
  "solcInputHash": "8265e4161eec9b5a7dcd6b2c71b6665f",
  "bytecode": "0x608060405234801561001057600080fd5b5061152a806100206000396000f3fe608060405234801561001057600080fd5b506004361061010b5760003560e01c80636a938567116100a25780638da5cb5b116100715780638da5cb5b146102e8578063afa6485d1461030c578063c4d66de814610329578063e5d200651461034f578063f2fde38b1461037b5761010b565b80636a93856714610264578063715018a61461028157806384660c271461028957806385b5da87146102ae5761010b565b80633af32abf116100de5780633af32abf146101945780634ba79dfe146101ce57806361cd6686146101f457806364b456ed146102175761010b565b806314bd418714610110578063161e444e1461012a5780631eaa602e1461014757806338eada1c1461016e575b600080fd5b6101186103a1565b60408051918252519081900360200190f35b6101186004803603602081101561014057600080fd5b50356103a7565b61016c6004803603604081101561015d57600080fd5b50803590602001351515610512565b005b61016c6004803603602081101561018457600080fd5b50356001600160a01b03166105e1565b6101ba600480360360208110156101aa57600080fd5b50356001600160a01b0316610683565b604080519115158252519081900360200190f35b61016c600480360360208110156101e457600080fd5b50356001600160a01b03166106a1565b61016c6004803603604081101561020a57600080fd5b508035906020013561073c565b6102346004803603602081101561022d57600080fd5b50356107f8565b604080516001600160a01b0390951685529215156020850152901515838301526060830152519081900360800190f35b6101ba6004803603602081101561027a57600080fd5b5035610832565b61016c61084f565b61016c6004803603604081101561029f57600080fd5b508035906020013515156108fb565b61016c600480360360808110156102c457600080fd5b508035906001600160a01b03602082013516906040810135151590606001356109ca565b6102f0610c28565b604080516001600160a01b039092168252519081900360200190f35b6101186004803603602081101561032257600080fd5b5035610c37565b61016c6004803603602081101561033f57600080fd5b50356001600160a01b0316610c49565b61016c6004803603604081101561036557600080fd5b50803590602001356001600160a01b0316610d1d565b61016c6004803603602081101561039157600080fd5b50356001600160a01b0316610def565b609a5481565b6000818152609860205260408120546001600160a01b0316610410576040805162461bcd60e51b815260206004820152601760248201527f476976656e2073796d626f6c20697320696e76616c6964000000000000000000604482015290519081900360640190fd5b600082815260986020526040902054600160a01b900460ff166104e7576000828152609860209081526040808320548151632096525560e01b815291516001600160a01b039091169263209652559260048082019391829003018186803b15801561047a57600080fd5b505afa15801561048e573d6000803e3d6000fd5b505050506040513d60208110156104a457600080fd5b5051600084815260986020526040902054909150600160a81b900460ff166104cd57905061050d565b6104df670de0b6b3a764000082610ef2565b91505061050d565b600082815260986020526040902060018101549054600160a81b900460ff166104cd5790505b919050565b60026001541415610558576040805162461bcd60e51b815260206004820152601f6024820152600080516020611461833981519152604482015290519081900360640190fd5b60026001556000610567610f22565b905061057281610683565b6105b1576040805162461bcd60e51b815260206004820181905260248201526000805160206114d5833981519152604482015290519081900360640190fd5b506000918252609860205260409091208054911515600160a81b0260ff60a81b1990921691909117905560018055565b60006105eb610f22565b90506105f681610683565b610635576040805162461bcd60e51b815260206004820181905260248201526000805160206114d5833981519152604482015290519081900360640190fd5b6001600160a01b03821660009081526097602052604090205460ff161561065b5761067f565b6001600160a01b0382166000908152609760205260409020805460ff191660011790555b5050565b6001600160a01b031660009081526097602052604090205460ff1690565b60006106ab610f22565b90506106b681610683565b6106f5576040805162461bcd60e51b815260206004820181905260248201526000805160206114d5833981519152604482015290519081900360640190fd5b6001600160a01b03821660009081526097602052604090205460ff1661071a5761067f565b506001600160a01b03166000908152609760205260409020805460ff19169055565b60026001541415610782576040805162461bcd60e51b815260206004820152601f6024820152600080516020611461833981519152604482015290519081900360640190fd5b60026001556000610791610f22565b905061079c81610683565b6107db576040805162461bcd60e51b815260206004820181905260248201526000805160206114d5833981519152604482015290519081900360640190fd5b506000918252609860205260409091206001908101919091558055565b609860205260009081526040902080546001909101546001600160a01b0382169160ff600160a01b8204811692600160a81b909204169084565b6000908152609860205260409020546001600160a01b0316151590565b610857610f22565b6001600160a01b0316610868610c28565b6001600160a01b0316146108b1576040805162461bcd60e51b815260206004820181905260248201526000805160206114d5833981519152604482015290519081900360640190fd5b6065546040516000916001600160a01b0316907f8be0079c531659141344cd1fd0a4f28419497f9722a3daafe3b4186f6b6457e0908390a3606580546001600160a01b0319169055565b60026001541415610941576040805162461bcd60e51b815260206004820152601f6024820152600080516020611461833981519152604482015290519081900360640190fd5b60026001556000610950610f22565b905061095b81610683565b61099a576040805162461bcd60e51b815260206004820181905260248201526000805160206114d5833981519152604482015290519081900360640190fd5b506000918252609860205260409091208054911515600160a01b0260ff60a01b1990921691909117905560018055565b60026001541415610a10576040805162461bcd60e51b815260206004820152601f6024820152600080516020611461833981519152604482015290519081900360640190fd5b60026001556000610a1f610f22565b9050610a2a81610683565b610a69576040805162461bcd60e51b815260206004820181905260248201526000805160206114d5833981519152604482015290519081900360640190fd5b84630307830360e41b1415610ab7576040805162461bcd60e51b815260206004820152600f60248201526e125b9d985b1a590817dcde5b589bdb608a1b604482015290519081900360640190fd5b6001600160a01b038416610b12576040805162461bcd60e51b815260206004820152601b60248201527f496e76616c6964205f7072696365466565646572416464726573730000000000604482015290519081900360640190fd5b6000858152609860205260409020546001600160a01b031615610b74576040805162461bcd60e51b815260206004820152601560248201527417dcde5b589bdb081a5cc8191d5c1b1a58d85d1959605a1b604482015290519081900360640190fd5b6000858152609860209081526040808320805460ff60a01b19881515600160a81b810260ff60a81b196001600160a01b038d166001600160a01b0319909516851716179190911683556001928301889055609a8054875260998652958490208b905585549092019094558151898152928301939093528181019290925290517f282208b44c2800a19eb320723b186749f096cce0b6cd15520e7f9141e249deea9181900360600190a1505060018055505050565b6065546001600160a01b031690565b60996020526000908152604090205481565b600054610100900460ff1680610c625750610c62610f26565b80610c70575060005460ff16155b610cab5760405162461bcd60e51b815260040180806020018281038252602e8152602001806114a7602e913960400191505060405180910390fd5b600054610100900460ff16158015610cd6576000805460ff1961ff0019909116610100171660011790555b610cde610f37565b610ce6610fe1565b610cef826105e1565b6001600160a01b0382163314610d0857610d08336105e1565b801561067f576000805461ff00191690555050565b60026001541415610d63576040805162461bcd60e51b815260206004820152601f6024820152600080516020611461833981519152604482015290519081900360640190fd5b60026001556000610d72610f22565b9050610d7d81610683565b610dbc576040805162461bcd60e51b815260206004820181905260248201526000805160206114d5833981519152604482015290519081900360640190fd5b5060009182526098602052604090912080546001600160a01b0319166001600160a01b0390921691909117905560018055565b610df7610f22565b6001600160a01b0316610e08610c28565b6001600160a01b031614610e51576040805162461bcd60e51b815260206004820181905260248201526000805160206114d5833981519152604482015290519081900360640190fd5b6001600160a01b038116610e965760405162461bcd60e51b81526004018080602001828103825260268152602001806114816026913960400191505060405180910390fd5b6065546040516001600160a01b038084169216907f8be0079c531659141344cd1fd0a4f28419497f9722a3daafe3b4186f6b6457e090600090a3606580546001600160a01b0319166001600160a01b0392909216919091179055565b600081610f13610f0a85670de0b6b3a76400006110b7565b6002850461112f565b81610f1a57fe5b049392505050565b3390565b6000610f313061117f565b15905090565b600054610100900460ff1680610f505750610f50610f26565b80610f5e575060005460ff16155b610f995760405162461bcd60e51b815260040180806020018281038252602e8152602001806114a7602e913960400191505060405180910390fd5b600054610100900460ff16158015610fc4576000805460ff1961ff0019909116610100171660011790555b610fcc611185565b8015610fde576000805461ff00191690555b50565b600054610100900460ff1680610ffa5750610ffa610f26565b80611008575060005460ff16155b6110435760405162461bcd60e51b815260040180806020018281038252602e8152602001806114a7602e913960400191505060405180910390fd5b600054610100900460ff1615801561106e576000805460ff1961ff0019909116610100171660011790555b61107661122a565b6000611080610f22565b6001600160a01b03166000908152609760205260409020805460ff19166001179055508015610fde576000805461ff001916905550565b6000826110c657506000611129565b828202828482816110d357fe5b0414611126576040805162461bcd60e51b815260206004820152601960248201527f556e6d756c7469706c69636174696f6e206f766572666c6f7700000000000000604482015290519081900360640190fd5b90505b92915050565b600082820183811015611126576040805162461bcd60e51b8152602060048201526013602482015272556e6164646974696f6e206f766572666c6f7760681b604482015290519081900360640190fd5b3b151590565b600054610100900460ff168061119e575061119e610f26565b806111ac575060005460ff16155b6111e75760405162461bcd60e51b815260040180806020018281038252602e8152602001806114a7602e913960400191505060405180910390fd5b600054610100900460ff16158015611212576000805460ff1961ff0019909116610100171660011790555b600180558015610fde576000805461ff001916905550565b600054610100900460ff16806112435750611243610f26565b80611251575060005460ff16155b61128c5760405162461bcd60e51b815260040180806020018281038252602e8152602001806114a7602e913960400191505060405180910390fd5b600054610100900460ff161580156112b7576000805460ff1961ff0019909116610100171660011790555b6112bf6112c7565b610fcc611367565b600054610100900460ff16806112e057506112e0610f26565b806112ee575060005460ff16155b6113295760405162461bcd60e51b815260040180806020018281038252602e8152602001806114a7602e913960400191505060405180910390fd5b600054610100900460ff16158015610fcc576000805460ff1961ff0019909116610100171660011790558015610fde576000805461ff001916905550565b600054610100900460ff16806113805750611380610f26565b8061138e575060005460ff16155b6113c95760405162461bcd60e51b815260040180806020018281038252602e8152602001806114a7602e913960400191505060405180910390fd5b600054610100900460ff161580156113f4576000805460ff1961ff0019909116610100171660011790555b60006113fe610f22565b606580546001600160a01b0319166001600160a01b038316908117909155604051919250906000907f8be0079c531659141344cd1fd0a4f28419497f9722a3daafe3b4186f6b6457e0908290a3508015610fde576000805461ff00191690555056fe5265656e7472616e637947756172643a207265656e7472616e742063616c6c004f776e61626c653a206e6577206f776e657220697320746865207a65726f2061646472657373496e697469616c697a61626c653a20636f6e747261637420697320616c726561647920696e697469616c697a65644f776e61626c653a2063616c6c6572206973206e6f7420746865206f776e6572a26469706673582212206d51cb730f10f83e3bd1d9db55ec008dcf8cb0cc2586d2ea5b6142949df23f4964736f6c634300060c0033",
  "devdoc": {
    "kind": "dev",
    "methods": {
      "addAddress(address)": {
        "details": "adds a given address to the whitelist",
        "params": {
          "_address": "address to add"
        }
      },
      "getCurrentPrice(bytes32)": {
        "params": {
          "_symbol": "the currency symbol that has registered to the contract"
        },
        "returns": {
          "_0": "the price in Wei unit"
        }
      },
      "isWhitelisted(address)": {
        "details": "returns true if a given address is whitelisted, false if not",
        "params": {
          "_address": "address to check"
        },
        "returns": {
          "_0": "true if the address is whitelisted, false if not"
        }
      },
      "owner()": {
        "details": "Returns the address of the current owner."
      },
      "removeAddress(address)": {
        "details": "removes a given address from the whitelist",
        "params": {
          "_address": "address to remove"
        }
      },
      "renounceOwnership()": {
        "details": "Leaves the contract without owner. It will not be possible to call `onlyOwner` functions anymore. Can only be called by the current owner. NOTE: Renouncing ownership will leave the contract without an owner, thereby removing any functionality that is only available to the owner."
      },
      "transferOwnership(address)": {
        "details": "Transfers ownership of the contract to a new account (`newOwner`). Can only be called by the current owner."
      }
    },
    "title": "A contract to resolves the asset price",
    "version": 1
  },
  "userdoc": {
    "kind": "user",
    "methods": {
      "getCurrentPrice(bytes32)": {
        "notice": "get the latest price of the given symbol, return the fallback value if the symbol has been disabled"
      }
    },
    "version": 1
  },
  "storageLayout": {
    "storage": [
      {
        "astId": 1105,
        "contract": "contracts/PriceResolverUpgradeable.sol:PriceResolverUpgradeable",
        "label": "_initialized",
        "offset": 0,
        "slot": "0",
        "type": "t_bool"
      },
      {
        "astId": 1108,
        "contract": "contracts/PriceResolverUpgradeable.sol:PriceResolverUpgradeable",
        "label": "_initializing",
        "offset": 1,
        "slot": "0",
        "type": "t_bool"
      },
      {
        "astId": 2351,
        "contract": "contracts/PriceResolverUpgradeable.sol:PriceResolverUpgradeable",
        "label": "_status",
        "offset": 0,
        "slot": "1",
        "type": "t_uint256"
      },
      {
        "astId": 2394,
        "contract": "contracts/PriceResolverUpgradeable.sol:PriceResolverUpgradeable",
        "label": "__gap",
        "offset": 0,
        "slot": "2",
        "type": "t_array(t_uint256)49_storage"
      },
      {
        "astId": 2223,
        "contract": "contracts/PriceResolverUpgradeable.sol:PriceResolverUpgradeable",
        "label": "__gap",
        "offset": 0,
        "slot": "51",
        "type": "t_array(t_uint256)50_storage"
      },
      {
        "astId": 465,
        "contract": "contracts/PriceResolverUpgradeable.sol:PriceResolverUpgradeable",
        "label": "_owner",
        "offset": 0,
        "slot": "101",
        "type": "t_address"
      },
      {
        "astId": 584,
        "contract": "contracts/PriceResolverUpgradeable.sol:PriceResolverUpgradeable",
        "label": "__gap",
        "offset": 0,
        "slot": "102",
        "type": "t_array(t_uint256)49_storage"
      },
      {
        "astId": 22399,
        "contract": "contracts/PriceResolverUpgradeable.sol:PriceResolverUpgradeable",
        "label": "whitelist",
        "offset": 0,
        "slot": "151",
        "type": "t_mapping(t_address,t_bool)"
      },
      {
        "astId": 12839,
        "contract": "contracts/PriceResolverUpgradeable.sol:PriceResolverUpgradeable",
        "label": "priceFeeders",
        "offset": 0,
        "slot": "152",
        "type": "t_mapping(t_bytes32,t_struct(PriceFeeder)12835_storage)"
      },
      {
        "astId": 12843,
        "contract": "contracts/PriceResolverUpgradeable.sol:PriceResolverUpgradeable",
        "label": "indexToPriceFeeder",
        "offset": 0,
        "slot": "153",
        "type": "t_mapping(t_uint256,t_bytes32)"
      },
      {
        "astId": 12845,
        "contract": "contracts/PriceResolverUpgradeable.sol:PriceResolverUpgradeable",
        "label": "priceFeederCount",
        "offset": 0,
        "slot": "154",
        "type": "t_uint256"
      }
    ],
    "types": {
      "t_address": {
        "encoding": "inplace",
        "label": "address",
        "numberOfBytes": "20"
      },
      "t_array(t_uint256)49_storage": {
        "base": "t_uint256",
        "encoding": "inplace",
        "label": "uint256[49]",
        "numberOfBytes": "1568"
      },
      "t_array(t_uint256)50_storage": {
        "base": "t_uint256",
        "encoding": "inplace",
        "label": "uint256[50]",
        "numberOfBytes": "1600"
      },
      "t_bool": {
        "encoding": "inplace",
        "label": "bool",
        "numberOfBytes": "1"
      },
      "t_bytes32": {
        "encoding": "inplace",
        "label": "bytes32",
        "numberOfBytes": "32"
      },
      "t_mapping(t_address,t_bool)": {
        "encoding": "mapping",
        "key": "t_address",
        "label": "mapping(address => bool)",
        "numberOfBytes": "32",
        "value": "t_bool"
      },
      "t_mapping(t_bytes32,t_struct(PriceFeeder)12835_storage)": {
        "encoding": "mapping",
        "key": "t_bytes32",
        "label": "mapping(bytes32 => struct PriceResolverUpgradeable.PriceFeeder)",
        "numberOfBytes": "32",
        "value": "t_struct(PriceFeeder)12835_storage"
      },
      "t_mapping(t_uint256,t_bytes32)": {
        "encoding": "mapping",
        "key": "t_uint256",
        "label": "mapping(uint256 => bytes32)",
        "numberOfBytes": "32",
        "value": "t_bytes32"
      },
      "t_struct(PriceFeeder)12835_storage": {
        "encoding": "inplace",
        "label": "struct PriceResolverUpgradeable.PriceFeeder",
        "members": [
          {
            "astId": 12828,
            "contract": "contracts/PriceResolverUpgradeable.sol:PriceResolverUpgradeable",
            "label": "priceFeederAddress",
            "offset": 0,
            "slot": "0",
            "type": "t_address"
          },
          {
            "astId": 12830,
            "contract": "contracts/PriceResolverUpgradeable.sol:PriceResolverUpgradeable",
            "label": "disabled",
            "offset": 20,
            "slot": "0",
            "type": "t_bool"
          },
          {
            "astId": 12832,
            "contract": "contracts/PriceResolverUpgradeable.sol:PriceResolverUpgradeable",
            "label": "invert",
            "offset": 21,
            "slot": "0",
            "type": "t_bool"
          },
          {
            "astId": 12834,
            "contract": "contracts/PriceResolverUpgradeable.sol:PriceResolverUpgradeable",
            "label": "fallbackValue",
            "offset": 0,
            "slot": "1",
            "type": "t_uint256"
          }
        ],
        "numberOfBytes": "64"
      },
      "t_uint256": {
        "encoding": "inplace",
        "label": "uint256",
        "numberOfBytes": "32"
      }
    }
  }
}