{
  "contractName": "Perpetual",
  "abi": [
    {
      "inputs": [
        {
          "internalType": "string",
          "name": "_name",
          "type": "string"
        },
        {
          "internalType": "string",
          "name": "_symbol",
          "type": "string"
        },
        {
          "internalType": "address",
          "name": "_tokenFactoryAddress",
          "type": "address"
        },
        {
          "internalType": "address",
          "name": "_priceFeederAddress",
          "type": "address"
        },
        {
          "internalType": "address",
          "name": "_collateralAddress",
          "type": "address"
        }
      ],
      "stateMutability": "nonpayable",
      "type": "constructor"
    },
    {
      "anonymous": false,
      "inputs": [
        {
          "indexed": true,
          "internalType": "address",
          "name": "sender",
          "type": "address"
        },
        {
          "indexed": false,
          "internalType": "uint256",
          "name": "collateralAmount",
          "type": "uint256"
        },
        {
          "indexed": false,
          "internalType": "uint256",
          "name": "numTokens",
          "type": "uint256"
        }
      ],
      "name": "AddLiquidity",
      "type": "event"
    },
    {
      "anonymous": false,
      "inputs": [],
      "name": "CreatedPerpetual",
      "type": "event"
    },
    {
      "anonymous": false,
      "inputs": [
        {
          "indexed": true,
          "internalType": "address",
          "name": "sponsor",
          "type": "address"
        }
      ],
      "name": "NewLiquidityProvider",
      "type": "event"
    },
    {
      "anonymous": false,
      "inputs": [
        {
          "indexed": true,
          "internalType": "address",
          "name": "previousOwner",
          "type": "address"
        },
        {
          "indexed": true,
          "internalType": "address",
          "name": "newOwner",
          "type": "address"
        }
      ],
      "name": "OwnershipTransferred",
      "type": "event"
    },
    {
      "anonymous": false,
      "inputs": [
        {
          "indexed": true,
          "internalType": "address",
          "name": "trader",
          "type": "address"
        },
        {
          "indexed": false,
          "internalType": "enum Perpetual.Side",
          "name": "side",
          "type": "uint8"
        },
        {
          "indexed": false,
          "internalType": "uint256",
          "name": "collateralAmount",
          "type": "uint256"
        },
        {
          "indexed": false,
          "internalType": "uint256",
          "name": "positionSize",
          "type": "uint256"
        },
        {
          "indexed": false,
          "internalType": "uint256",
          "name": "entryPrice",
          "type": "uint256"
        },
        {
          "indexed": false,
          "internalType": "uint256",
          "name": "exitPrice",
          "type": "uint256"
        }
      ],
      "name": "PositionClosed",
      "type": "event"
    },
    {
      "anonymous": false,
      "inputs": [
        {
          "indexed": true,
          "internalType": "address",
          "name": "sender",
          "type": "address"
        },
        {
          "indexed": false,
          "internalType": "uint256",
          "name": "collateralAmount",
          "type": "uint256"
        },
        {
          "indexed": false,
          "internalType": "uint256",
          "name": "positionSize",
          "type": "uint256"
        },
        {
          "indexed": false,
          "internalType": "enum Perpetual.Side",
          "name": "side",
          "type": "uint8"
        },
        {
          "indexed": false,
          "internalType": "enum Perpetual.Leverage",
          "name": "leverage",
          "type": "uint8"
        },
        {
          "indexed": false,
          "internalType": "uint256",
          "name": "price",
          "type": "uint256"
        }
      ],
      "name": "PositionCreated",
      "type": "event"
    },
    {
      "anonymous": false,
      "inputs": [
        {
          "indexed": true,
          "internalType": "address",
          "name": "trader",
          "type": "address"
        },
        {
          "indexed": true,
          "internalType": "address",
          "name": "liquidator",
          "type": "address"
        },
        {
          "indexed": false,
          "internalType": "enum Perpetual.Side",
          "name": "side",
          "type": "uint8"
        },
        {
          "indexed": false,
          "internalType": "uint256",
          "name": "tokenAmount",
          "type": "uint256"
        },
        {
          "indexed": false,
          "internalType": "uint256",
          "name": "payBackToTrader",
          "type": "uint256"
        },
        {
          "indexed": false,
          "internalType": "uint256",
          "name": "payToLiquidator",
          "type": "uint256"
        }
      ],
      "name": "PositionLiquidated",
      "type": "event"
    },
    {
      "anonymous": false,
      "inputs": [
        {
          "indexed": true,
          "internalType": "address",
          "name": "sender",
          "type": "address"
        },
        {
          "indexed": false,
          "internalType": "uint256",
          "name": "collateralAmount",
          "type": "uint256"
        },
        {
          "indexed": false,
          "internalType": "uint256",
          "name": "numTokens",
          "type": "uint256"
        }
      ],
      "name": "RemoveLiquidity",
      "type": "event"
    },
    {
      "inputs": [
        {
          "internalType": "address",
          "name": "_address",
          "type": "address"
        }
      ],
      "name": "addAddress",
      "outputs": [],
      "stateMutability": "nonpayable",
      "type": "function"
    },
    {
      "inputs": [],
      "name": "collateralCurrency",
      "outputs": [
        {
          "internalType": "contract IERC20",
          "name": "",
          "type": "address"
        }
      ],
      "stateMutability": "view",
      "type": "function",
      "constant": true
    },
    {
      "inputs": [],
      "name": "isOwner",
      "outputs": [
        {
          "internalType": "bool",
          "name": "",
          "type": "bool"
        }
      ],
      "stateMutability": "view",
      "type": "function",
      "constant": true
    },
    {
      "inputs": [
        {
          "internalType": "address",
          "name": "_address",
          "type": "address"
        }
      ],
      "name": "isWhitelisted",
      "outputs": [
        {
          "internalType": "bool",
          "name": "",
          "type": "bool"
        }
      ],
      "stateMutability": "view",
      "type": "function",
      "constant": true
    },
    {
      "inputs": [
        {
          "internalType": "address",
          "name": "",
          "type": "address"
        }
      ],
      "name": "liquidityProviders",
      "outputs": [
        {
          "internalType": "uint256",
          "name": "rawCollateral",
          "type": "uint256"
        },
        {
          "internalType": "uint256",
          "name": "totalMinted",
          "type": "uint256"
        }
      ],
      "stateMutability": "view",
      "type": "function",
      "constant": true
    },
    {
      "inputs": [],
      "name": "owner",
      "outputs": [
        {
          "internalType": "address",
          "name": "",
          "type": "address"
        }
      ],
      "stateMutability": "view",
      "type": "function",
      "constant": true
    },
    {
      "inputs": [],
      "name": "pmm",
      "outputs": [
        {
          "internalType": "contract IPmm",
          "name": "",
          "type": "address"
        }
      ],
      "stateMutability": "view",
      "type": "function",
      "constant": true
    },
    {
      "inputs": [
        {
          "internalType": "address",
          "name": "",
          "type": "address"
        }
      ],
      "name": "positions",
      "outputs": [
        {
          "internalType": "uint256",
          "name": "rawCollateral",
          "type": "uint256"
        },
        {
          "internalType": "uint256",
          "name": "leveragedAmount",
          "type": "uint256"
        },
        {
          "internalType": "uint256",
          "name": "positionSize",
          "type": "uint256"
        },
        {
          "internalType": "enum Perpetual.Side",
          "name": "side",
          "type": "uint8"
        },
        {
          "internalType": "enum Perpetual.Leverage",
          "name": "leverage",
          "type": "uint8"
        },
        {
          "internalType": "uint256",
          "name": "entryValue",
          "type": "uint256"
        },
        {
          "internalType": "uint256",
          "name": "entryTimestamp",
          "type": "uint256"
        },
        {
          "internalType": "bool",
          "name": "locked",
          "type": "bool"
        }
      ],
      "stateMutability": "view",
      "type": "function",
      "constant": true
    },
    {
      "inputs": [],
      "name": "priceFeeder",
      "outputs": [
        {
          "internalType": "contract IPriceFeeder",
          "name": "",
          "type": "address"
        }
      ],
      "stateMutability": "view",
      "type": "function",
      "constant": true
    },
    {
      "inputs": [],
      "name": "rawTotalPositionCollateral",
      "outputs": [
        {
          "internalType": "uint256",
          "name": "",
          "type": "uint256"
        }
      ],
      "stateMutability": "view",
      "type": "function",
      "constant": true
    },
    {
      "inputs": [
        {
          "internalType": "address",
          "name": "_address",
          "type": "address"
        }
      ],
      "name": "removeAddress",
      "outputs": [],
      "stateMutability": "nonpayable",
      "type": "function"
    },
    {
      "inputs": [],
      "name": "renounceOwnership",
      "outputs": [],
      "stateMutability": "nonpayable",
      "type": "function"
    },
    {
      "inputs": [],
      "name": "tokenCurrency",
      "outputs": [
        {
          "internalType": "contract IExpandedIERC20",
          "name": "",
          "type": "address"
        }
      ],
      "stateMutability": "view",
      "type": "function",
      "constant": true
    },
    {
      "inputs": [],
      "name": "totalLiquidity",
      "outputs": [
        {
          "internalType": "uint256",
          "name": "base",
          "type": "uint256"
        },
        {
          "internalType": "uint256",
          "name": "availableBase",
          "type": "uint256"
        },
        {
          "internalType": "uint256",
          "name": "quote",
          "type": "uint256"
        },
        {
          "internalType": "uint256",
          "name": "availableQuote",
          "type": "uint256"
        }
      ],
      "stateMutability": "view",
      "type": "function",
      "constant": true
    },
    {
      "inputs": [
        {
          "internalType": "address",
          "name": "newOwner",
          "type": "address"
        }
      ],
      "name": "transferOwnership",
      "outputs": [],
      "stateMutability": "nonpayable",
      "type": "function"
    },
    {
      "inputs": [
        {
          "internalType": "address",
          "name": "pmmAddress",
          "type": "address"
        }
      ],
      "name": "setupPmm",
      "outputs": [],
      "stateMutability": "nonpayable",
      "type": "function"
    },
    {
      "inputs": [],
      "name": "getTokenCurrency",
      "outputs": [
        {
          "internalType": "address",
          "name": "",
          "type": "address"
        }
      ],
      "stateMutability": "view",
      "type": "function",
      "constant": true
    },
    {
      "inputs": [],
      "name": "myPnl",
      "outputs": [
        {
          "internalType": "int256",
          "name": "pnl",
          "type": "int256"
        }
      ],
      "stateMutability": "view",
      "type": "function",
      "constant": true
    },
    {
      "inputs": [],
      "name": "myCollateralizationRatio",
      "outputs": [
        {
          "internalType": "uint256",
          "name": "ratio",
          "type": "uint256"
        }
      ],
      "stateMutability": "view",
      "type": "function",
      "constant": true
    },
    {
      "inputs": [],
      "name": "myCollateralizationStatus",
      "outputs": [
        {
          "internalType": "enum Perpetual.CollateralizationStatus",
          "name": "status",
          "type": "uint8"
        }
      ],
      "stateMutability": "view",
      "type": "function",
      "constant": true
    },
    {
      "inputs": [],
      "name": "getMidPrice",
      "outputs": [
        {
          "internalType": "uint256",
          "name": "",
          "type": "uint256"
        }
      ],
      "stateMutability": "view",
      "type": "function",
      "constant": true
    },
    {
      "inputs": [],
      "name": "getIndexPrice",
      "outputs": [
        {
          "internalType": "uint256",
          "name": "",
          "type": "uint256"
        }
      ],
      "stateMutability": "view",
      "type": "function",
      "constant": true
    },
    {
      "inputs": [
        {
          "internalType": "uint256",
          "name": "amount",
          "type": "uint256"
        }
      ],
      "name": "getBuyPrice",
      "outputs": [
        {
          "internalType": "uint256",
          "name": "",
          "type": "uint256"
        }
      ],
      "stateMutability": "view",
      "type": "function",
      "constant": true
    },
    {
      "inputs": [
        {
          "internalType": "uint256",
          "name": "amount",
          "type": "uint256"
        }
      ],
      "name": "getSellPrice",
      "outputs": [
        {
          "internalType": "uint256",
          "name": "",
          "type": "uint256"
        }
      ],
      "stateMutability": "view",
      "type": "function",
      "constant": true
    },
    {
      "inputs": [
        {
          "internalType": "uint256",
          "name": "positionSize",
          "type": "uint256"
        },
        {
          "internalType": "uint256",
          "name": "maxCollateralAmount",
          "type": "uint256"
        },
        {
          "internalType": "enum Perpetual.Leverage",
          "name": "leverage",
          "type": "uint8"
        }
      ],
      "name": "openLongPosition",
      "outputs": [],
      "stateMutability": "nonpayable",
      "type": "function"
    },
    {
      "inputs": [
        {
          "internalType": "uint256",
          "name": "positionSize",
          "type": "uint256"
        },
        {
          "internalType": "uint256",
          "name": "maxCollateralAmount",
          "type": "uint256"
        },
        {
          "internalType": "enum Perpetual.Leverage",
          "name": "leverage",
          "type": "uint8"
        }
      ],
      "name": "openShortPosition",
      "outputs": [],
      "stateMutability": "nonpayable",
      "type": "function"
    },
    {
      "inputs": [],
      "name": "closePosition",
      "outputs": [],
      "stateMutability": "nonpayable",
      "type": "function"
    },
    {
      "inputs": [
        {
          "internalType": "address",
          "name": "trader",
          "type": "address"
        }
      ],
      "name": "liquidate",
      "outputs": [],
      "stateMutability": "nonpayable",
      "type": "function"
    },
    {
      "inputs": [
        {
          "internalType": "uint256",
          "name": "collateralAmount",
          "type": "uint256"
        }
      ],
      "name": "addLiquidity",
      "outputs": [],
      "stateMutability": "nonpayable",
      "type": "function"
    },
    {
      "inputs": [
        {
          "internalType": "uint256",
          "name": "percentage",
          "type": "uint256"
        }
      ],
      "name": "removeLiquidity",
      "outputs": [],
      "stateMutability": "nonpayable",
      "type": "function"
    }
  ],
  "bytecode": "0x60806040523480156200001157600080fd5b5060405162003bc838038062003bc8833981016040819052620000349162000405565b6000805460ff19166001178155620000546001600160e01b036200026916565b60008054610100600160a81b0319166101006001600160a01b038416908102919091178255604051929350917f8be0079c531659141344cd1fd0a4f28419497f9722a3daafe3b4186f6b6457e0908290a350620000b96001600160e01b036200026d16565b620000cc6001600160e01b036200029416565b6001600160a01b038216620000fe5760405162461bcd60e51b8152600401620000f59062000550565b60405180910390fd5b6001600160a01b038316620001275760405162461bcd60e51b8152600401620000f59062000519565b6001600160a01b038116620001505760405162461bcd60e51b8152600401620000f590620005bc565b60405163e8a0aed360e01b815283906001600160a01b0382169063e8a0aed390620001859089908990601290600401620004dc565b602060405180830381600087803b158015620001a057600080fd5b505af1158015620001b5573d6000803e3d6000fd5b505050506040513d601f19601f82011682018060405250810190620001db9190620003df565b600580546001600160a01b03199081166001600160a01b0393841617909155600280548216868416179055600480549091169184169190911790556200022133620002a0565b6040517fd8b52e29a912ec27de0834ca0a1b4283cc003f1707d8d485e55333c6c4a217de90600090a1506200025e6001600160e01b036200032416565b505050505062000671565b3390565b60005460ff16620002925760405162461bcd60e51b8152600401620000f590620005f1565b565b6000805460ff19169055565b620002b36001600160e01b036200033316565b620002d25760405162461bcd60e51b8152600401620000f59062000587565b6001600160a01b03811660009081526001602052604090205460ff1615620002fa5762000321565b6001600160a01b0381166000908152600160208190526040909120805460ff191690911790555b50565b6000805460ff19166001179055565b6000805461010090046001600160a01b03166200034f62000269565b6001600160a01b031614905090565b600082601f8301126200036f578081fd5b81516001600160401b038082111562000386578283fd5b604051601f8301601f191681016020018281118282101715620003a7578485fd5b604052828152925082848301602001861015620003c357600080fd5b620003d683602083016020880162000628565b50505092915050565b600060208284031215620003f1578081fd5b8151620003fe816200065b565b9392505050565b600080600080600060a086880312156200041d578081fd5b85516001600160401b038082111562000434578283fd5b6200044289838a016200035e565b9650602088015191508082111562000458578283fd5b5062000467888289016200035e565b94505060408601516200047a816200065b565b60608701519093506200048d816200065b565b6080870151909250620004a0816200065b565b809150509295509295909350565b60008151808452620004c881602086016020860162000628565b601f01601f19169290920160200192915050565b600060608252620004f16060830186620004ae565b8281036020840152620005058186620004ae565b91505060ff83166040830152949350505050565b6020808252601c908201527f496e76616c696420546f6b656e466163746f7279206164647265737300000000604082015260600190565b6020808252601b908201527f496e76616c696420507269636546656564657220616464726573730000000000604082015260600190565b6020808252818101527f4f776e61626c653a2063616c6c6572206973206e6f7420746865206f776e6572604082015260600190565b6020808252818101527f496e76616c696420436f6c6c65746572616c20746f6b656e2061646472657373604082015260600190565b6020808252601f908201527f5265656e7472616e637947756172643a207265656e7472616e742063616c6c00604082015260600190565b60005b83811015620006455781810151838201526020016200062b565b8381111562000655576000848401525b50505050565b6001600160a01b03811681146200032157600080fd5b61354780620006816000396000f3fe608060405234801561001057600080fd5b50600436106101da5760003560e01c8063715018a611610104578063b1078a16116100a2578063dce8622511610071578063dce86225146103a4578063ee27c689146103b7578063f2fde38b146103bf578063fedb9da5146103d2576101da565b8063b1078a1614610355578063ba730e5314610368578063c393d0e31461037b578063dbd9426714610383576101da565b80638c382eb2116100de5780638c382eb21461032a5780638da5cb5b146103325780638f32d59b1461033a5780639c8f9f2314610342576101da565b8063715018a6146103075780637c9ab3451461030f5780638787914d14610322576101da565b80633af32abf1161017c57806351c6590a1161014b57806351c6590a146102bd57806355f57510146102d057806358c0994a146102f75780637048594b146102ff576101da565b80633af32abf1461027a578063480517351461029a5780634a0cd879146102a25780634ba79dfe146102aa576101da565b80631fada485116101b85780631fada485146102355780632497f02b1461023d5780632f8655681461025257806338eada1c14610267576101da565b806308d4db14146101df5780630de15fd91461020857806315770f921461021d575b600080fd5b6101f26101ed366004612d58565b6103da565b6040516101ff9190612e97565b60405180910390f35b610210610496565b6040516101ff9190612dd1565b6102256104a5565b6040516101ff94939291906134d7565b6102106104b4565b6102456104c3565b6040516101ff9190612e2d565b610265610260366004612d00565b6104e1565b005b610265610275366004612d00565b610b2a565b61028d610288366004612d00565b610b9b565b6040516101ff9190612e22565b6101f2610bb9565b6101f2610bd1565b6102656102b8366004612d00565b610be9565b6102656102cb366004612d58565b610c53565b6102e36102de366004612d00565b610fc8565b6040516101ff989796959493929190613484565b6101f2611010565b610210611092565b6102656110a1565b61026561031d366004612d00565b611114565b61021061166a565b6101f2611679565b61021061167f565b61028d611693565b610265610350366004612d58565b6116bc565b610265610363366004612d88565b611955565b6101f2610376366004612d58565b611c9c565b610265611cf7565b610396610391366004612d00565b61228e565b6040516101ff92919061343c565b6102656103b2366004612d88565b6122a7565b6101f2612541565b6102656103cd366004612d00565b6125ba565b6102106125e7565b6003546000906001600160a01b031661040e5760405162461bcd60e51b815260040161040590612fce565b60405180910390fd5b6003546040516306302ef960e21b81526001600160a01b03909116906318c0bbe49061043e908590600401612e97565b60206040518083038186803b15801561045657600080fd5b505afa15801561046a573d6000803e3d6000fd5b505050506040513d601f19601f8201168201806040525081019061048e9190612d70565b90505b919050565b6004546001600160a01b031681565b600954600a54600b54600c5484565b6002546001600160a01b031681565b3360009081526007602052604081206104db816125f6565b91505090565b6104e9612642565b6104f1612664565b6003546001600160a01b03166105195760405162461bcd60e51b815260040161040590612fce565b6001600160a01b0381166000908152600760205260409020600681015460ff16151560011461055a5760405162461bcd60e51b815260040161040590612f3a565b6002610565826125f6565b600281111561057057fe5b1461058d5760405162461bcd60e51b815260040161040590613058565b600061059882612670565b905060008082156106ef5783546000906105b8908563ffffffff6126de16565b90506105d281670214e8348c4f000063ffffffff6126de16565b92506105e4818463ffffffff61271716565b6004805460405163a9059cbb60e01b81529294506001600160a01b03169163a9059cbb91610616918a91879101612e09565b602060405180830381600087803b15801561063057600080fd5b505af1158015610644573d6000803e3d6000fd5b505050506040513d601f19601f820116820180604052508101906106689190612d1c565b506004805460405163a9059cbb60e01b81526001600160a01b039091169163a9059cbb9161069a913391889101612e09565b602060405180830381600087803b1580156106b457600080fd5b505af11580156106c8573d6000803e3d6000fd5b505050506040513d601f19601f820116820180604052508101906106ec9190612d1c565b50505b6002600385015460ff16600281111561070457fe5b14156108905760035460028501546040516351400f0b60e11b81526000926001600160a01b03169163a2801e169161073f9190600401612e97565b60206040518083038186803b15801561075757600080fd5b505afa15801561076b573d6000803e3d6000fd5b505050506040513d601f19601f8201168201806040525081019061078f9190612d70565b600354600287015460405163952d7c5760e01b81529293506001600160a01b039091169163952d7c57916107c791859060040161343c565b602060405180830381600087803b1580156107e157600080fd5b505af11580156107f5573d6000803e3d6000fd5b505050506040513d601f19601f820116820180604052508101906108199190612d70565b50600c5461082d908263ffffffff61274416565b600c556002850154600a5410156108565760405162461bcd60e51b815260040161040590612ea0565b6002850154600a5461086d9163ffffffff61271716565b600a5560028501546009546108879163ffffffff61271716565b60095550610aa8565b6003546040805163ee27c68960e01b815290516000926001600160a01b03169163ee27c689916004808301926020929190829003018186803b1580156108d557600080fd5b505afa1580156108e9573d6000803e3d6000fd5b505050506040513d601f19601f8201168201806040525081019061090d9190612d70565b9050600061092882876001015461277090919063ffffffff16565b6003546040516306302ef960e21b81529192506000916001600160a01b03909116906318c0bbe49061095e908590600401612e97565b60206040518083038186803b15801561097657600080fd5b505afa15801561098a573d6000803e3d6000fd5b505050506040513d601f19601f820116820180604052508101906109ae9190612d70565b60035460405163a51843ef60e01b81529192506001600160a01b03169063a51843ef906109e1908590859060040161343c565b602060405180830381600087803b1580156109fb57600080fd5b505af1158015610a0f573d6000803e3d6000fd5b505050506040513d601f19601f82011682018060405250810190610a339190612d70565b50600a54610a47908363ffffffff61274416565b600a556001870154600c541015610a705760405162461bcd60e51b815260040161040590612ea0565b6001870154600c54610a879163ffffffff61271716565b600c556001870154600b54610aa19163ffffffff61271716565b600b555050505b8354600854610abc9163ffffffff61271716565b6008556003840154845460405133926001600160a01b038916927f2cf3b2221e026e8ce0f7b15d38ef089795a4f3b777981c30fd213c5c8795cf4892610b0a9260ff16919087908990612e40565b60405180910390a3610b1b85612790565b50505050610b27612808565b50565b610b32611693565b610b4e5760405162461bcd60e51b81526004016104059061316d565b6001600160a01b03811660009081526001602052604090205460ff1615610b7457610b27565b6001600160a01b03166000908152600160208190526040909120805460ff19169091179055565b6001600160a01b031660009081526001602052604090205460ff1690565b3360009081526007602052604081206104db81612817565b3360009081526007602052604081206104db81612670565b610bf1611693565b610c0d5760405162461bcd60e51b81526004016104059061316d565b6001600160a01b03811660009081526001602052604090205460ff16610c3257610b27565b6001600160a01b03166000908152600160205260409020805460ff19169055565b610c5b612642565b610c63612664565b6003546001600160a01b0316610c8b5760405162461bcd60e51b815260040161040590612fce565b60008111610cab5760405162461bcd60e51b81526004016104059061309d565b3360009081526006602052604090206001810154610cef5760405133907ff98b03bee24ef83f55d09e9ad063a39b9ea1ddc5ccb9f14e71293770dad7a42490600090a25b6003546040805163ee27c68960e01b815290516000926001600160a01b03169163ee27c689916004808301926020929190829003018186803b158015610d3457600080fd5b505afa158015610d48573d6000803e3d6000fd5b505050506040513d601f19601f82011682018060405250810190610d6c9190612d70565b90506000610d80848363ffffffff61277016565b6001840154909150610d98908263ffffffff61274416565b60018401558254610daf908563ffffffff61274416565b8355600b54610dc4908563ffffffff61274416565b600b55600c54610dda908563ffffffff61274416565b600c556005546040516340c10f1960e01b81526001600160a01b03909116906340c10f1990610e0f9030908590600401612e09565b602060405180830381600087803b158015610e2957600080fd5b505af1158015610e3d573d6000803e3d6000fd5b505050506040513d601f19601f82011682018060405250810190610e619190612d1c565b610e7d5760405162461bcd60e51b8152600401610405906131d7565b6003546040516313df6c7760e11b81526001600160a01b03909116906327bed8ee90610ead908490600401612e97565b602060405180830381600087803b158015610ec757600080fd5b505af1158015610edb573d6000803e3d6000fd5b505050506040513d601f19601f82011682018060405250810190610eff9190612d70565b50336001600160a01b03167f06239653922ac7bea6aa2b19dc486b9361821d37712eb796adfd38d81de278ca8583604051610f3b92919061343c565b60405180910390a2600480546040516323b872dd60e01b81526001600160a01b03909116916323b872dd91610f7691339130918a9101612de5565b602060405180830381600087803b158015610f9057600080fd5b505af1158015610fa4573d6000803e3d6000fd5b505050506040513d601f19601f82011682018060405250810190610b1b9190612d1c565b600760205260009081526040902080546001820154600283015460038401546004850154600586015460069096015494959394929360ff808416946101009094048116931688565b60025460408051632096525560e01b815290516000926001600160a01b0316916320965255916004808301926020929190829003018186803b15801561105557600080fd5b505afa158015611069573d6000803e3d6000fd5b505050506040513d601f19601f8201168201806040525081019061108d9190612d70565b905090565b6005546001600160a01b031681565b6110a9611693565b6110c55760405162461bcd60e51b81526004016104059061316d565b600080546040516101009091046001600160a01b0316907f8be0079c531659141344cd1fd0a4f28419497f9722a3daafe3b4186f6b6457e0908390a360008054610100600160a81b0319169055565b600061111e61293b565b905061112981610b9b565b6111455760405162461bcd60e51b81526004016104059061316d565b600380546001600160a01b0319166001600160a01b0384811691909117918290556040805163c55dae6360e01b81529051929091169163c55dae6391600480820192602092909190829003018186803b1580156111a157600080fd5b505afa1580156111b5573d6000803e3d6000fd5b505050506040513d601f19601f820116820180604052508101906111d99190612d3c565b6005546001600160a01b039081169116146112065760405162461bcd60e51b815260040161040590612f71565b600360009054906101000a90046001600160a01b03166001600160a01b031663217a4b706040518163ffffffff1660e01b815260040160206040518083038186803b15801561125457600080fd5b505afa158015611268573d6000803e3d6000fd5b505050506040513d601f19601f8201168201806040525081019061128c9190612d3c565b6004546001600160a01b039081169116146112b95760405162461bcd60e51b81526004016104059061320e565b60055460405163095ea7b360e01b81526001600160a01b039091169063095ea7b3906112ed90859060001990600401612e09565b602060405180830381600087803b15801561130757600080fd5b505af115801561131b573d6000803e3d6000fd5b505050506040513d601f19601f8201168201806040525081019061133f9190612d1c565b506004805460405163095ea7b360e01b81526001600160a01b039091169163095ea7b3916113739186916000199101612e09565b602060405180830381600087803b15801561138d57600080fd5b505af11580156113a1573d6000803e3d6000fd5b505050506040513d601f19601f820116820180604052508101906113c59190612d1c565b506005546040516340c10f1960e01b81526001600160a01b03909116906340c10f1990611400903090670de0b6b3a764000090600401612e09565b602060405180830381600087803b15801561141a57600080fd5b505af115801561142e573d6000803e3d6000fd5b505050506040513d601f19601f820116820180604052508101906114529190612d1c565b506003546040516313df6c7760e11b81526001600160a01b03909116906327bed8ee9061148b90670de0b6b3a764000090600401612e97565b602060405180830381600087803b1580156114a557600080fd5b505af11580156114b9573d6000803e3d6000fd5b505050506040513d601f19601f820116820180604052508101906114dd9190612d70565b506003546040805163ee27c68960e01b815290516000926001600160a01b03169163ee27c689916004808301926020929190829003018186803b15801561152357600080fd5b505afa158015611537573d6000803e3d6000fd5b505050506040513d601f19601f8201168201806040525081019061155b9190612d70565b600480546040516323b872dd60e01b81529293506001600160a01b0316916323b872dd9161158f9133913091879101612de5565b602060405180830381600087803b1580156115a957600080fd5b505af11580156115bd573d6000803e3d6000fd5b505050506040513d601f19601f820116820180604052508101906115e19190612d1c565b5060035460405163f3ae6c5f60e01b81526001600160a01b039091169063f3ae6c5f90611612908490600401612e97565b602060405180830381600087803b15801561162c57600080fd5b505af1158015611640573d6000803e3d6000fd5b505050506040513d601f19601f820116820180604052508101906116649190612d70565b50505050565b6003546001600160a01b031681565b60085481565b60005461010090046001600160a01b031690565b6000805461010090046001600160a01b03166116ad61293b565b6001600160a01b031614905090565b6116c4612642565b6116cc612664565b6003546001600160a01b03166116f45760405162461bcd60e51b815260040161040590612fce565b670de0b6b3a764000081111561171c5760405162461bcd60e51b8152600401610405906132b4565b6000811161173c5760405162461bcd60e51b815260040161040590612f14565b3360009081526006602052604081208054909190611760908463ffffffff6126de16565b9050600061177b8484600101546126de90919063ffffffff16565b90508160096003015410156117a25760405162461bcd60e51b815260040161040590613273565b60018301546117b7908263ffffffff61271716565b600184015582546117ce908363ffffffff61271716565b8355600b546117e3908363ffffffff61271716565b600b55600c546117f9908363ffffffff61271716565b600c5560035460405163f98bea1560e01b81526001600160a01b039091169063f98bea159061182c908490600401612e97565b602060405180830381600087803b15801561184657600080fd5b505af115801561185a573d6000803e3d6000fd5b505050506040513d601f19601f8201168201806040525081019061187e9190612d70565b50600554604051630852cd8d60e31b81526001600160a01b03909116906342966c68906118af908490600401612e97565b600060405180830381600087803b1580156118c957600080fd5b505af11580156118dd573d6000803e3d6000fd5b50505050336001600160a01b03167f0fbf06c058b90cb038a618f8c2acbf6145f8b3570fd1fa56abb8f0f3f05b36e8838360405161191c92919061343c565b60405180910390a26004805460405163a9059cbb60e01b81526001600160a01b039091169163a9059cbb91610f76913391879101612e09565b61195d612642565b611965612664565b6003546001600160a01b031661198d5760405162461bcd60e51b815260040161040590612fce565b336000908152600760205260409020836119b95760405162461bcd60e51b81526004016104059061309d565b600681015460ff16156119de5760405162461bcd60e51b815260040161040590612ff5565b60006119f96119ec8461293f565b869063ffffffff61299d16565b6003546040516351400f0b60e11b81529192506000916001600160a01b039091169063a2801e1690611a2f908590600401612e97565b60206040518083038186803b158015611a4757600080fd5b505afa158015611a5b573d6000803e3d6000fd5b505050506040513d601f19601f82011682018060405250810190611a7f9190612d70565b90506000611a93828463ffffffff61277016565b90506000611aa7888363ffffffff6126de16565b905080871015611ac95760405162461bcd60e51b8152600401610405906133f6565b600a548410611aea5760405162461bcd60e51b815260040161040590613245565b60035460405163952d7c5760e01b81526001600160a01b039091169063952d7c5790611b1c908790879060040161343c565b602060405180830381600087803b158015611b3657600080fd5b505af1158015611b4a573d6000803e3d6000fd5b505050506040513d601f19601f82011682018060405250810190611b6e9190612d70565b50611b7f8582858760018b886129d7565b600a54611b92908563ffffffff61271716565b600a55600c54611ba8908463ffffffff61274416565b600c55600b54611bbe908463ffffffff61274416565b600b5560405133907fac6e88aafce8c148fbb713a998bde021d9adbc8930759b48ae1e9c94bd27bc9d90611bfc90849087906001908c90899061344a565b60405180910390a2600480546040516323b872dd60e01b81526001600160a01b03909116916323b872dd91611c379133913091879101612de5565b602060405180830381600087803b158015611c5157600080fd5b505af1158015611c65573d6000803e3d6000fd5b505050506040513d601f19601f82011682018060405250810190611c899190612d1c565b505050505050611c97612808565b505050565b6003546000906001600160a01b0316611cc75760405162461bcd60e51b815260040161040590612fce565b6003546040516351400f0b60e11b81526001600160a01b039091169063a2801e169061043e908590600401612e97565b611cff612642565b611d07612664565b6003546001600160a01b0316611d2f5760405162461bcd60e51b815260040161040590612fce565b336000908152600760205260409020600681015460ff161515600114611d675760405162461bcd60e51b815260040161040590612f3a565b6002611d72826125f6565b6002811115611d7d57fe5b1415611d9b5760405162461bcd60e51b815260040161040590613021565b6000611dc0611da983612817565b8354611db490612aa2565b9063ffffffff612acf16565b905060006002600384015460ff166002811115611dd957fe5b1415611f655760035460028401546040516351400f0b60e11b81526000926001600160a01b03169163a2801e1691611e149190600401612e97565b60206040518083038186803b158015611e2c57600080fd5b505afa158015611e40573d6000803e3d6000fd5b505050506040513d601f19601f82011682018060405250810190611e649190612d70565b600354600286015460405163952d7c5760e01b81529293506001600160a01b039091169163952d7c5791611e9c91859060040161343c565b602060405180830381600087803b158015611eb657600080fd5b505af1158015611eca573d6000803e3d6000fd5b505050506040513d601f19601f82011682018060405250810190611eee9190612d70565b50600c54611f02908263ffffffff61274416565b600c556002840154600a541015611f2b5760405162461bcd60e51b815260040161040590612ea0565b6002840154600a54611f429163ffffffff61271716565b600a556002840154600954611f5c9163ffffffff61271716565b6009555061217d565b6003546040805163ee27c68960e01b815290516000926001600160a01b03169163ee27c689916004808301926020929190829003018186803b158015611faa57600080fd5b505afa158015611fbe573d6000803e3d6000fd5b505050506040513d601f19601f82011682018060405250810190611fe29190612d70565b90506000611ffd82866001015461277090919063ffffffff16565b6003546040516306302ef960e21b81529192506000916001600160a01b03909116906318c0bbe490612033908590600401612e97565b60206040518083038186803b15801561204b57600080fd5b505afa15801561205f573d6000803e3d6000fd5b505050506040513d601f19601f820116820180604052508101906120839190612d70565b60035460405163a51843ef60e01b81529192506001600160a01b03169063a51843ef906120b6908590859060040161343c565b602060405180830381600087803b1580156120d057600080fd5b505af11580156120e4573d6000803e3d6000fd5b505050506040513d601f19601f820116820180604052508101906121089190612d70565b50600a5461211c908363ffffffff61274416565b600a556001860154600c5410156121455760405162461bcd60e51b815260040161040590612ea0565b6001860154600c5461215c9163ffffffff61271716565b600c556001860154600b546121769163ffffffff61271716565b600b555050505b82546008546121919163ffffffff61271716565b600855600383015433907f0d8168b30bfff36f5f6d041eb8b19b55b964ad4c6b71a4f6cf0a25014f540dcf9060ff166121c985612b15565b86600201548760040154866040516121e5959493929190612e69565b60405180910390a26121f633612790565b6004546001600160a01b031663a9059cbb3361221185612b15565b6040518363ffffffff1660e01b815260040161222e929190612e09565b602060405180830381600087803b15801561224857600080fd5b505af115801561225c573d6000803e3d6000fd5b505050506040513d601f19601f820116820180604052508101906122809190612d1c565b5050505061228c612808565b565b6006602052600090815260409020805460019091015482565b6122af612642565b6122b7612664565b6003546001600160a01b03166122df5760405162461bcd60e51b815260040161040590612fce565b3360009081526007602052604090208361230b5760405162461bcd60e51b81526004016104059061309d565b600681015460ff16156123305760405162461bcd60e51b815260040161040590612ff5565b600061233e6119ec8461293f565b6003546040516306302ef960e21b81529192506000916001600160a01b03909116906318c0bbe490612374908590600401612e97565b60206040518083038186803b15801561238c57600080fd5b505afa1580156123a0573d6000803e3d6000fd5b505050506040513d601f19601f820116820180604052508101906123c49190612d70565b905060006123d8828463ffffffff61277016565b905060006123ec888363ffffffff6126de16565b90508087101561240e5760405162461bcd60e51b8152600401610405906133f6565b600c54831061242f5760405162461bcd60e51b815260040161040590613245565b60035460405163a51843ef60e01b81526001600160a01b039091169063a51843ef90612461908790879060040161343c565b602060405180830381600087803b15801561247b57600080fd5b505af115801561248f573d6000803e3d6000fd5b505050506040513d601f19601f820116820180604052508101906124b39190612d70565b506124c48582858760028b886129d7565b600c546124d7908463ffffffff61271716565b600c55600a546124ed908563ffffffff61274416565b600a55600954612503908563ffffffff61274416565b60095560405133907fac6e88aafce8c148fbb713a998bde021d9adbc8930759b48ae1e9c94bd27bc9d90611bfc90849088906002908c90899061344a565b6003546000906001600160a01b031661256c5760405162461bcd60e51b815260040161040590612fce565b600360009054906101000a90046001600160a01b03166001600160a01b031663ee27c6896040518163ffffffff1660e01b815260040160206040518083038186803b15801561105557600080fd5b6125c2611693565b6125de5760405162461bcd60e51b81526004016104059061316d565b610b2781612b37565b6005546001600160a01b031690565b60008061260283612670565b90506709b6e64a8ec6000081111561261e576000915050610491565b67058d15e176280000811115612638576001915050610491565b6002915050610491565b60005460ff1661228c5760405162461bcd60e51b815260040161040590613361565b6000805460ff19169055565b60008061267c83612817565b9050600061269182611db48660000154612aa2565b13156126d4576126cc6126c76126aa8560000154612aa2565b6126bb84611db48860000154612aa2565b9063ffffffff612bc316565b612b15565b915050610491565b6000915050610491565b6000670de0b6b3a76400006127086126f6858561299d565b6002670de0b6b3a76400005b04612744565b8161270f57fe5b049392505050565b6000828211156127395760405162461bcd60e51b8152600401610405906133c6565b508082035b92915050565b6000828201838110156127695760405162461bcd60e51b815260040161040590612fa1565b9392505050565b60008161270861278885670de0b6b3a764000061299d565b600285612702565b6001600160a01b0381166000908152600760205260409020600681015460ff1615156001146127d15760405162461bcd60e51b8152600401610405906131a2565b6000600182018190556002820181905560038201805461ffff19169055600482018190556005820155600601805460ff1916905550565b6000805460ff19166001179055565b60006002600383015460ff16600281111561282e57fe5b14156128f3576128ec61285a612855846004015485600201546126de90919063ffffffff16565b612aa2565b60035460028501546040516351400f0b60e11b81526128e0926001600160a01b03169163a2801e16916128909190600401612e97565b60206040518083038186803b1580156128a857600080fd5b505afa1580156128bc573d6000803e3d6000fd5b505050506040513d601f19601f820116820180604052508101906128559190612d70565b9063ffffffff612c0516565b9050610491565b60035460028301546040516306302ef960e21b81526128ec9261292e926001600160a01b03909116916318c0bbe49161289091600401612e97565b6128e08460010154612aa2565b3390565b6000600382600381111561294f57fe5b141561295d57506004610491565b600282600381111561296b57fe5b141561297957506003610491565b600182600381111561298757fe5b141561299557506002610491565b506001610491565b6000826129ac5750600061273e565b828202828482816129b957fe5b04146127695760405162461bcd60e51b8152600401610405906130d4565b86546129e9908763ffffffff61274416565b87556008546129fe908763ffffffff61274416565b6008556001870154612a16908663ffffffff61274416565b60018801556002870154612a30908563ffffffff61274416565b8760020181905550828760030160006101000a81548160ff02191690836002811115612a5857fe5b0217905550818760030160016101000a81548160ff02191690836003811115612a7d57fe5b021790555060048701555050426005850155505050600601805460ff19166001179055565b60006001600160ff1b03821115612acb5760405162461bcd60e51b815260040161040590613311565b5090565b6000828201818312801590612ae45750838112155b80612af95750600083128015612af957508381125b6127695760405162461bcd60e51b815260040161040590613142565b600080821215612acb5760405162461bcd60e51b81526004016104059061333b565b6001600160a01b038116612b5d5760405162461bcd60e51b815260040161040590612ece565b600080546040516001600160a01b038085169361010090930416917f8be0079c531659141344cd1fd0a4f28419497f9722a3daafe3b4186f6b6457e091a3600080546001600160a01b0390921661010002610100600160a81b0319909216919091179055565b600080821215612bda578160000391508260000392505b81612bf6612bf085670de0b6b3a7640000612c4b565b84612cb6565b81612bfd57fe5b059392505050565b6000818303818312801590612c1a5750838113155b80612c2f5750600083128015612c2f57508381135b6127695760405162461bcd60e51b815260040161040590613398565b600082612c5a5750600061273e565b82600019148015612c6e5750600160ff1b82145b15612c8b5760405162461bcd60e51b8152600401610405906132da565b82820282848281612c9857fe5b05146127695760405162461bcd60e51b8152600401610405906132da565b6000808213612cd75760405162461bcd60e51b81526004016104059061310b565b60008312612cf357612cec8360028405612acf565b905061273e565b6127698360028405612c05565b600060208284031215612d11578081fd5b8135612769816134fc565b600060208284031215612d2d578081fd5b81518015158114612769578182fd5b600060208284031215612d4d578081fd5b8151612769816134fc565b600060208284031215612d69578081fd5b5035919050565b600060208284031215612d81578081fd5b5051919050565b600080600060608486031215612d9c578182fd5b8335925060208401359150604084013560048110612db8578182fd5b809150509250925092565b60048110612dcd57fe5b9052565b6001600160a01b0391909116815260200190565b6001600160a01b039384168152919092166020820152604081019190915260600190565b6001600160a01b03929092168252602082015260400190565b901515815260200190565b60208101612e3a836134f2565b91905290565b60808101612e4d866134f2565b9481526020810193909352604083019190915260609091015290565b60a08101612e76876134f2565b95815260208101949094526040840192909252606083015260809091015290565b90815260200190565b6020808252601490820152736e6f7420656e6f756768206c697175696469747960601b604082015260600190565b60208082526026908201527f4f776e61626c653a206e6577206f776e657220697320746865207a65726f206160408201526564647265737360d01b606082015260800190565b6020808252600c908201526b070657263656e746167653d360a41b604082015260600190565b6020808252601e908201527f4e6f20706f736974696f6e206f6e206120676976656e20616464726573730000604082015260600190565b60208082526016908201527524b73b30b634b2102826a6903130b9b2903a37b5b2b760511b604082015260600190565b602080825260139082015272556e6164646974696f6e206f766572666c6f7760681b604082015260600190565b6020808252600d908201526c1b9bc81c1b5b481a5cc81cd95d609a1b604082015260600190565b602080825260129082015271141bdcda5d1a5bdb881a5cc81b1bd8dad95960721b604082015260600190565b6020808252601f908201527f556e61626c6520746f20636c6f736520756e7361666520706f736974696f6e00604082015260600190565b60208082526025908201527f506f736974696f6e2061626f7665207468616e206c69717569646174696f6e20604082015264726174696f60d81b606082015260800190565b6020808252601d908201527f616d6f756e74206d7573742062652067726561746572207468616e2030000000604082015260600190565b60208082526019908201527f556e6d756c7469706c69636174696f6e206f766572666c6f7700000000000000604082015260600190565b6020808252601f908201527f726f756e6448616c665570206f6e6c7920737570706f7274732079203e203000604082015260600190565b6020808252601190820152706164646974696f6e206f766572666c6f7760781b604082015260600190565b6020808252818101527f4f776e61626c653a2063616c6c6572206973206e6f7420746865206f776e6572604082015260600190565b6020808252818101527f4e6f20706f736974696f6e206f6e2074686520676976656e2061646472657373604082015260600190565b6020808252601f908201527f4d696e74696e672073796e74686574696320746f6b656e73206661696c656400604082015260600190565b60208082526017908201527f496e76616c696420504d4d2071756f746520746f6b656e000000000000000000604082015260600190565b6020808252601490820152734e6f7420656e6f756768206c697175696469747960601b604082015260600190565b60208082526021908201527f496e73756666696369656e7420617661696c61626c6520636f6c6c61746572616040820152601b60fa1b606082015260800190565b6020808252600c908201526b70657263656e746167653e3160a01b604082015260600190565b60208082526018908201527f776d756c7469706c69636174696f6e206f766572666c6f770000000000000000604082015260600190565b60208082526010908201526f75696e74323536206f766572666c6f7760801b604082015260600190565b6020808252600c908201526b696e74206f766572666c6f7760a01b604082015260600190565b6020808252601f908201527f5265656e7472616e637947756172643a207265656e7472616e742063616c6c00604082015260600190565b6020808252601490820152737375627472616374696f6e206f766572666c6f7760601b604082015260600190565b602080825260169082015275556e7375627472616374696f6e206f766572666c6f7760501b604082015260600190565b60208082526026908201527f636f6c6c61746572616c416d6f756e74203e206d6178436f6c6c61746572616c604082015265105b5bdd5b9d60d21b606082015260800190565b918252602082015260400190565b8581526020810185905260a08101613461856134f2565b8460408301526134746060830185612dc3565b8260808301529695505050505050565b888152602081018890526040810187905261010081016134a3876134f2565b8660608301526134b66080830187612dc3565b8460a08301528360c083015282151560e08301529998505050505050505050565b93845260208401929092526040830152606082015260800190565b60038110610b2757fe5b6001600160a01b0381168114610b2757600080fdfea2646970667358221220f78c72df11f2530c5f7e8a2bcc38b5403296068753ac6a71da99d3aead8493b264736f6c63430006090033",
  "immutableReferences": {},
  "source": "// SPDX-License-Identifier: MIT\n\npragma solidity 0.6.9;\npragma experimental ABIEncoderV2;\n\nimport \"./utility/Lockable.sol\";\nimport \"./utility/Whitelist.sol\";\nimport \"./utility/LibMath.sol\";\nimport \"./utility/SafeERC20.sol\";\nimport \"./interfaces/IExpandedIERC20.sol\";\nimport \"./interfaces/IPriceFeeder.sol\";\nimport \"./interfaces/IPmm.sol\";\nimport \"./TokenFactory.sol\";\n\n/**\n * @title Perpetual contract\n * @dev this is unaudited code, don't use it on Mainnet\n */\n\ncontract Perpetual is Lockable, Whitelist {\n    using LibMathSigned for int256;\n    using LibMathUnsigned for uint256;\n    using SafeERC20 for IERC20;\n\n    enum Leverage {ONE, TWO, THREE, FOUR}\n    enum Side {FLAT, SHORT, LONG} \n    enum CollateralizationStatus {SAFE, WARNING, DANGER}\n\n    struct LiquidityProvider {\n        // Raw collateral value\n        uint256 rawCollateral;\n        // Total tokens have been minted\n        uint256 totalMinted;\n    }\n\n    struct LiquidityData {\n        // synthetic\n        uint256 base;\n        uint256 availableBase;\n        // collateral\n        uint256 quote;\n        uint256 availableQuote;\n    }\n\n    struct PositionData {\n        uint256 rawCollateral;\n        uint256 leveragedAmount;\n        uint256 positionSize;\n        Side side;\n        Leverage leverage;\n        uint256 entryValue;\n        uint entryTimestamp;\n        bool locked;\n    }\n\n    // Price feeder contract.\n    IPriceFeeder public priceFeeder;\n    // PMM contract.\n    IPmm public pmm;\n    // The collateral currency used to back the positions in this contract.\n    IERC20 public collateralCurrency;\n    // Synthetic token created by this contract.\n    IExpandedIERC20 public tokenCurrency;\n    // Liquidity Provider Data\n    mapping (address => LiquidityProvider) public liquidityProviders;\n    // Maps sponsor addresses to their positions. Each sponsor can have only one position.\n    mapping(address => PositionData) public positions;\n    // Keep track of the raw collateral across all positions\n    uint256 public rawTotalPositionCollateral;\n    // Total liquidity\n    LiquidityData public totalLiquidity;\n    \n    uint256 constant MAX = 0xffffffffffffffffffffffffffffffffffffffffffffffffffffffffffffffff;\n    uint256 constant ONE = 1000000000000000000; // 1\n    // Trader need to top-up when position is below 70%\n    uint256 constant maintenanceRatio = 700000000000000000; // 0.7\n    // Anybody can liquidate when particular trader position belows 40%\n    uint256 constant liquidationRatio = 400000000000000000; // 0.4\n    // Take cut to liquidator 15%\n    uint256 constant liquidationIncentive = 150000000000000000; // 0.15\n\n    event CreatedPerpetual();\n    event AddLiquidity(address indexed sender, uint256 collateralAmount, uint256 numTokens);\n    event RemoveLiquidity(address indexed sender, uint256 collateralAmount, uint256 numTokens);\n    event NewLiquidityProvider(address indexed sponsor);\n    event PositionCreated(address indexed sender, uint256 collateralAmount, uint256 positionSize, Side side, Leverage leverage, uint256 price);\n    event PositionLiquidated(address indexed trader, address indexed liquidator, Side side, uint256 tokenAmount, uint256 payBackToTrader, uint256 payToLiquidator);\n    event PositionClosed(address indexed trader, Side side, uint256 collateralAmount, uint256 positionSize, uint256 entryPrice, uint256 exitPrice);\n\n    constructor(\n        string memory _name,\n        string memory _symbol,\n        address _tokenFactoryAddress,\n        address _priceFeederAddress,\n        address _collateralAddress\n    ) public nonReentrant() { \n        require(_priceFeederAddress != address(0), \"Invalid PriceFeeder address\");\n        require(_tokenFactoryAddress != address(0), \"Invalid TokenFactory address\");\n        require(_collateralAddress != address(0), \"Invalid Colleteral token address\");\n\n        // Setup synthetic token\n        TokenFactory tf = TokenFactory(_tokenFactoryAddress);\n        tokenCurrency = tf.createToken(_name, _symbol, 18);\n        \n        priceFeeder = IPriceFeeder(_priceFeederAddress);\n        collateralCurrency = IERC20(_collateralAddress);\n\n        addAddress(msg.sender);\n\n        emit CreatedPerpetual();\n    }\n\n    // Setup PMM contract address\n    function setupPmm(address pmmAddress) external onlyWhitelisted() {\n        pmm = IPmm(pmmAddress);\n        require( address(tokenCurrency) ==  address(pmm.baseToken()),\"Invalid PMM base token\");\n        require( address(collateralCurrency) == address(pmm.quoteToken()) ,\"Invalid PMM quote token\");\n        tokenCurrency.approve(pmmAddress , MAX);\n        collateralCurrency.approve(pmmAddress , MAX);\n        // Initial fund PMM with 1 SYNTH\n        tokenCurrency.mint(address(this), ONE);\n        pmm.depositBase(ONE);\n        uint256 initialRate = pmm.getMidPrice();\n        collateralCurrency.transferFrom(msg.sender, address(this), initialRate);\n        // Funding on colleteral side that equivalent to 1 SYNTH\n        pmm.depositQuote(initialRate);\n        // TODO: Find out the suitable amount when initialize the PMM\n    }\n\n    // Get synthetic token address\n    function getTokenCurrency() public view returns (address)\n    {\n        return address(tokenCurrency);\n    }\n\n    // Get my Profit/Loss\n    function myPnl() \n        public\n        view\n        returns (int256 pnl) \n    {\n        PositionData storage positionData = positions[msg.sender];\n        return _pnl(positionData);\n    }\n\n    // Get the current collateralization ratio from the sender\n    function myCollateralizationRatio()\n        public\n        view\n        returns (uint256 ratio)\n    {\n        PositionData storage positionData = positions[msg.sender];\n        return _getCollateralizationRatio(positionData);\n    }\n\n    // Get the current collateralization status from the sender\n    function myCollateralizationStatus()\n        public\n        view\n        returns (CollateralizationStatus status)\n    {\n        PositionData storage positionData = positions[msg.sender];\n        return _getCollateralizationStatus(positionData);\n    }\n\n    // get mid price\n    function getMidPrice()\n        public\n        view\n        pmmRequired()\n        returns (uint256)\n    {\n        return pmm.getMidPrice();\n    }\n\n    // get index price\n    function getIndexPrice()\n        public\n        view\n        returns (uint256)\n    {\n        return priceFeeder.getValue();\n    }\n\n    // get buy price\n    function getBuyPrice(uint256 amount)\n        public\n        view\n        pmmRequired()\n        returns (uint256)\n    {\n        return pmm.queryBuyBaseToken(amount);\n    }\n\n    // get sell price\n    function getSellPrice(uint256 amount)\n        public\n        view\n        pmmRequired()\n        returns (uint256)\n    {\n        return pmm.querySellBaseToken(amount);\n    }\n\n    // trade functions\n    \n    // open long position\n    function openLongPosition(uint256 positionSize, uint256 maxCollateralAmount, Leverage leverage)\n        public\n        nonReentrant()\n        pmmRequired()\n    {\n        PositionData storage positionData = positions[msg.sender];\n\n        require(positionSize > 0, \"amount must be greater than 0\");\n        require(positionData.locked == false , \"Position is locked\");\n\n        uint256 leveragedSize = positionSize.mul(_resolveLeverage(leverage));\n\n        uint256 borrowingAmount = pmm.queryBuyBaseToken(leveragedSize);\n        uint256 currentPrice = borrowingAmount.wdiv(leveragedSize);\n        uint256 collateralAmount = positionSize.wmul(currentPrice);\n\n        require(maxCollateralAmount >= collateralAmount, \"collateralAmount > maxCollateralAmount\");\n        require(borrowingAmount < totalLiquidity.availableQuote, \"Not enough liquidity\");\n\n        pmm.buyBaseToken(leveragedSize, borrowingAmount);\n\n        // Increase the position and global collateral balance by collateral amount.\n        _incrementCollateralBalances(positionData, collateralAmount, borrowingAmount, leveragedSize, Side.LONG, leverage, currentPrice );\n\n        totalLiquidity.availableQuote = totalLiquidity.availableQuote.sub(borrowingAmount);\n        totalLiquidity.availableBase = totalLiquidity.availableBase.add(leveragedSize);\n        totalLiquidity.base = totalLiquidity.base.add(leveragedSize);\n\n        emit PositionCreated(msg.sender, collateralAmount, leveragedSize, Side.LONG, leverage, currentPrice);\n\n        collateralCurrency.transferFrom(msg.sender, address(this), collateralAmount);\n    }\n\n    // open short position\n    function openShortPosition(uint256 positionSize, uint256 maxCollateralAmount, Leverage leverage)\n        public\n        nonReentrant()\n        pmmRequired()\n    {\n        PositionData storage positionData = positions[msg.sender];\n\n        require(positionSize > 0, \"amount must be greater than 0\");\n        require(positionData.locked == false , \"Position is locked\");\n\n        uint256 leveragedSize = positionSize.mul(_resolveLeverage(leverage));\n\n        uint256 amount = pmm.querySellBaseToken(leveragedSize);\n        uint256 currentPrice = amount.wdiv(leveragedSize);\n        uint256 collateralAmount = positionSize.wmul(currentPrice);\n\n        require(maxCollateralAmount >= collateralAmount, \"collateralAmount > maxCollateralAmount\");\n        require(leveragedSize < totalLiquidity.availableBase, \"Not enough liquidity\");\n\n        pmm.sellBaseToken(leveragedSize, amount);\n        // Record it\n        _incrementCollateralBalances(positionData, collateralAmount, amount, leveragedSize, Side.SHORT, leverage, currentPrice );\n\n        totalLiquidity.availableBase = totalLiquidity.availableBase.sub(leveragedSize);\n        totalLiquidity.availableQuote = totalLiquidity.availableQuote.add(amount);\n        totalLiquidity.quote = totalLiquidity.quote.add(amount);\n\n        emit PositionCreated(msg.sender, collateralAmount, amount, Side.SHORT, leverage, currentPrice);\n\n        collateralCurrency.transferFrom(msg.sender, address(this), collateralAmount);\n    }\n\n    // close the position\n    function closePosition()\n        public\n        nonReentrant()\n        pmmRequired()\n    {\n        PositionData storage positionData = positions[msg.sender];\n\n        require( positionData.locked == true, \"No position on a given address\" );\n        require(\n            _getCollateralizationStatus(positionData) != CollateralizationStatus.DANGER,\n            \"Unable to close unsafe position\"\n        );\n\n        int256 remainingCollateral = (positionData.rawCollateral.toInt256()).add(_pnl(positionData));\n        uint256 exitPrice = 0;\n\n        if (positionData.side == Side.LONG) {\n            // Sell synthetic assets back to PMM\n            uint256 amount = pmm.querySellBaseToken(positionData.positionSize);\n            pmm.sellBaseToken(positionData.positionSize, amount); \n\n            totalLiquidity.availableQuote = totalLiquidity.availableQuote.add(amount);\n            require(totalLiquidity.availableBase >= positionData.positionSize, \"not enough liquidity\");\n            totalLiquidity.availableBase = totalLiquidity.availableBase.sub(positionData.positionSize);\n            totalLiquidity.base = totalLiquidity.base.sub(positionData.positionSize);\n        } else {\n            // Sell colleteral assets back to PMM\n            // FIXME: Find the better way to convert collateral -> synthetic\n            uint256 spotPrice = pmm.getMidPrice();\n            uint256 totalSynths = positionData.leveragedAmount.wdiv(spotPrice);\n            uint256 amount = pmm.queryBuyBaseToken(totalSynths);\n            pmm.buyBaseToken(totalSynths, amount);\n\n            totalLiquidity.availableBase = totalLiquidity.availableBase.add(totalSynths);\n            require(totalLiquidity.availableQuote >= positionData.leveragedAmount, \"not enough liquidity\");\n            totalLiquidity.availableQuote = totalLiquidity.availableQuote.sub(positionData.leveragedAmount);\n            totalLiquidity.quote = totalLiquidity.quote.sub(positionData.leveragedAmount);\n        }\n\n        rawTotalPositionCollateral = rawTotalPositionCollateral.sub(positionData.rawCollateral);\n\n        emit PositionClosed(msg.sender, positionData.side, remainingCollateral.toUint256(), positionData.positionSize, positionData.entryValue, exitPrice);\n\n        _deletePosition(msg.sender);\n\n        collateralCurrency.transfer(msg.sender, remainingCollateral.toUint256());\n    }\n\n    // liquidation\n    function liquidate(address trader) \n        external\n        nonReentrant()\n        pmmRequired()\n    {\n        // Retrieve Position data for trader who being liquidated\n        PositionData storage positionData = positions[trader];\n\n        require( positionData.locked == true, \"No position on a given address\" );\n        require(\n            _getCollateralizationStatus(positionData) == CollateralizationStatus.DANGER,\n            \"Position above than liquidation ratio\"\n        );\n\n        uint256 currentRatio = _getCollateralizationRatio(positionData);\n        uint256 penaltyFee = 0;\n        uint256 payToTrader = 0;\n\n        if (currentRatio != 0) {\n            // Pay Trader back - Penalty fee \n            uint256 remainingCollateral = (positionData.rawCollateral).wmul(currentRatio);\n            penaltyFee = remainingCollateral.wmul(liquidationIncentive);\n            payToTrader =  remainingCollateral.sub(penaltyFee);\n\n            collateralCurrency.transfer(trader, payToTrader);\n            // Incentivize the liquidator\n            collateralCurrency.transfer(msg.sender, penaltyFee);\n        }\n\n        if (positionData.side == Side.LONG) {\n            // Sell synthetic assets back to PMM\n            uint256 amount = pmm.querySellBaseToken(positionData.positionSize);\n            pmm.sellBaseToken(positionData.positionSize, amount); \n\n            totalLiquidity.availableQuote = totalLiquidity.availableQuote.add(amount);\n            require(totalLiquidity.availableBase >= positionData.positionSize, \"not enough liquidity\");\n            totalLiquidity.availableBase = totalLiquidity.availableBase.sub(positionData.positionSize);\n            totalLiquidity.base = totalLiquidity.base.sub(positionData.positionSize);\n\n        } else {\n            // Sell colleteral assets back to PMM\n            // FIXME: Find the better way to convert collateral -> synthetic\n            uint256 spotPrice = pmm.getMidPrice();\n            uint256 totalSynths = positionData.leveragedAmount.wdiv(spotPrice);\n            uint256 amount = pmm.queryBuyBaseToken(totalSynths);\n            pmm.buyBaseToken(totalSynths, amount);\n\n            totalLiquidity.availableBase = totalLiquidity.availableBase.add(totalSynths);\n            require(totalLiquidity.availableQuote >= positionData.leveragedAmount, \"not enough liquidity\");\n            totalLiquidity.availableQuote = totalLiquidity.availableQuote.sub(positionData.leveragedAmount);\n            totalLiquidity.quote = totalLiquidity.quote.sub(positionData.leveragedAmount);\n        }   \n\n        rawTotalPositionCollateral = rawTotalPositionCollateral.sub(positionData.rawCollateral);\n\n        emit PositionLiquidated(trader, msg.sender, positionData.side , positionData.rawCollateral , payToTrader, penaltyFee);\n\n        _deletePosition(trader);\n    }\n\n    // add liquidity\n    function addLiquidity(uint256 collateralAmount) \n        public\n        nonReentrant()\n        pmmRequired()\n    {\n        require(collateralAmount > 0, \"amount must be greater than 0\");\n\n        LiquidityProvider storage liquidityData = liquidityProviders[msg.sender];\n\n        if (liquidityData.totalMinted == 0) {\n            emit NewLiquidityProvider(msg.sender);\n        }\n        // Mint corresponding synthetic tokens and deposit to PMM\n        uint256 spotPrice = pmm.getMidPrice();\n        uint256 numTokens = collateralAmount.wdiv(spotPrice);\n        liquidityData.totalMinted = liquidityData.totalMinted.add(numTokens);\n        liquidityData.rawCollateral = liquidityData.rawCollateral.add(collateralAmount);\n\n        totalLiquidity.quote = totalLiquidity.quote.add(collateralAmount);\n        totalLiquidity.availableQuote = totalLiquidity.availableQuote.add(collateralAmount);\n\n        require(tokenCurrency.mint(address(this), numTokens), \"Minting synthetic tokens failed\");\n\n        pmm.depositBase(numTokens);\n\n        emit AddLiquidity(msg.sender, collateralAmount, numTokens);\n        // Transfer tokens into this contract\n        collateralCurrency.transferFrom(msg.sender, address(this), collateralAmount);\n    }\n\n    // remove liquidity (ex. 100% = 1e18)\n    function removeLiquidity(uint256 percentage) \n        public\n        nonReentrant()\n        pmmRequired()\n    {\n        require(percentage <= ONE, \"percentage>1\");\n        require(percentage > 0, \"percentage=0\");\n\n        LiquidityProvider storage liquidityData = liquidityProviders[msg.sender];\n\n        uint256 collateral = liquidityData.rawCollateral.wmul(percentage);\n        uint256 numTokens = liquidityData.totalMinted.wmul(percentage);\n\n        require( totalLiquidity.availableQuote >= collateral , \"Insufficient available collateral\" );\n\n        liquidityData.totalMinted = liquidityData.totalMinted.sub(numTokens);\n        liquidityData.rawCollateral = liquidityData.rawCollateral.sub(collateral);\n\n        totalLiquidity.quote = totalLiquidity.quote.sub(collateral);\n        totalLiquidity.availableQuote = totalLiquidity.availableQuote.sub(collateral);\n\n        // Withdraw synthetics from PMM and burn\n        pmm.withdrawBase(numTokens);\n        tokenCurrency.burn(numTokens);\n\n        emit RemoveLiquidity(msg.sender, collateral, numTokens);\n        collateralCurrency.transfer(msg.sender, collateral);\n    }\n\n\n    // INTERNAL FUNCTIONS\n\n    // Check if amm address is set.\n    modifier pmmRequired() {\n        require(address(pmm) != address(0), \"no pmm is set\");\n        _;\n    }\n\n    function _resolveLeverage(Leverage leverage) pure internal returns (uint256) {\n        if (leverage == Leverage.FOUR) {\n            return 4;\n        } else if (leverage == Leverage.THREE) {\n            return 3;\n        } else if (leverage == Leverage.TWO) {\n            return 2;\n        } else {\n            return 1;\n        }\n    }\n\n    function _incrementCollateralBalances(\n        PositionData storage positionData,\n        uint256 collateralAmount,\n        uint256 leveragedAmount,\n        uint256 size,\n        Side side,\n        Leverage leverage,\n        uint256 price\n    ) internal {\n        positionData.rawCollateral = positionData.rawCollateral.add(collateralAmount);\n        rawTotalPositionCollateral = rawTotalPositionCollateral.add(collateralAmount);\n\n        positionData.leveragedAmount = positionData.leveragedAmount.add(leveragedAmount);\n        positionData.positionSize = positionData.positionSize.add(size);\n        positionData.side = side;\n        positionData.leverage = leverage;\n        positionData.entryValue = price;\n        positionData.entryTimestamp = block.timestamp;\n        positionData.locked = true;\n\n    }\n\n    function _deletePosition(address trader) internal {\n        PositionData storage positionData = positions[trader];\n        require( positionData.locked == true , \"No position on the given address\" );\n\n        positionData.leveragedAmount = 0;\n        positionData.positionSize = 0;\n        positionData.side = Side.FLAT;\n        positionData.leverage = Leverage.ONE;\n        positionData.entryValue = 0;\n        positionData.entryTimestamp = 0;\n        positionData.locked = false;\n    }\n\n    function _getCollateralizationRatio(PositionData storage positionData) internal view returns (uint256) {\n        int256 pnl = _pnl(positionData);\n        // TODO: Might need to track debt\n        if (positionData.rawCollateral.toInt256().add(pnl) > 0) {\n            return ((positionData.rawCollateral.toInt256().add(pnl)).wdiv(positionData.rawCollateral.toInt256())).toUint256();\n        } else {\n            return 0;\n        }\n    }\n\n    function _getCollateralizationStatus(PositionData storage positionData) internal view returns (CollateralizationStatus) {\n        uint256 currentRatio = _getCollateralizationRatio(positionData);\n        if (currentRatio > maintenanceRatio) {\n            return CollateralizationStatus.SAFE;\n        } else if (currentRatio > liquidationRatio) {\n            return CollateralizationStatus.WARNING;\n        } else {\n            return CollateralizationStatus.DANGER;\n        }\n    }\n\n    function _pnl(PositionData storage positionData) internal view returns (int256) {\n        if (positionData.side == Side.LONG) {\n            return (pmm.querySellBaseToken(positionData.positionSize).toInt256()).sub( (positionData.positionSize.wmul(positionData.entryValue)).toInt256() );\n        } else {\n            return (positionData.leveragedAmount.toInt256()).sub( (pmm.queryBuyBaseToken(positionData.positionSize)).toInt256() );\n        }\n    }\n\n}\n",
  "sourcePath": "/home/pisuthd/Desktop/elliptix/tamago-finance/core/contracts/Perpetual.sol",
  "compiler": {
    "name": "solc",
    "version": "0.6.9+commit.3e3065ac.Emscripten.clang"
  },
  "schemaVersion": "3.2.0",
  "updatedAt": "2021-04-03T04:24:38.118Z",
  "networkType": "ethereum",
  "devdoc": {
    "details": "this is unaudited code, don't use it on Mainnet",
    "methods": {
      "addAddress(address)": {
        "details": "adds a given address to the whitelist ",
        "params": {
          "_address": "address to add"
        }
      },
      "isOwner()": {
        "details": "Returns true if the caller is the current owner."
      },
      "isWhitelisted(address)": {
        "details": "returns true if a given address is whitelisted, false if not ",
        "params": {
          "_address": "address to check "
        },
        "returns": {
          "_0": "true if the address is whitelisted, false if not"
        }
      },
      "owner()": {
        "details": "Returns the address of the current owner."
      },
      "removeAddress(address)": {
        "details": "removes a given address from the whitelist ",
        "params": {
          "_address": "address to remove"
        }
      },
      "renounceOwnership()": {
        "details": "Leaves the contract without owner. It will not be possible to call `onlyOwner` functions anymore. Can only be called by the current owner. NOTE: Renouncing ownership will leave the contract without an owner, thereby removing any functionality that is only available to the owner."
      },
      "transferOwnership(address)": {
        "details": "Transfers ownership of the contract to a new account (`newOwner`). Can only be called by the current owner."
      }
    },
    "title": "Perpetual contract"
  },
  "userdoc": {
    "methods": {}
  }
}