{
  "contractName": "Perpetual",
  "abi": [
    {
      "inputs": [
        {
          "internalType": "string",
          "name": "_name",
          "type": "string"
        },
        {
          "internalType": "string",
          "name": "_symbol",
          "type": "string"
        },
        {
          "internalType": "address",
          "name": "_tokenFactoryAddress",
          "type": "address"
        },
        {
          "internalType": "address",
          "name": "_priceFeederAddress",
          "type": "address"
        },
        {
          "internalType": "address",
          "name": "_collateralAddress",
          "type": "address"
        }
      ],
      "stateMutability": "nonpayable",
      "type": "constructor"
    },
    {
      "anonymous": false,
      "inputs": [
        {
          "indexed": true,
          "internalType": "address",
          "name": "sender",
          "type": "address"
        },
        {
          "indexed": false,
          "internalType": "uint256",
          "name": "collateralAmount",
          "type": "uint256"
        },
        {
          "indexed": false,
          "internalType": "uint256",
          "name": "numTokens",
          "type": "uint256"
        }
      ],
      "name": "AddLiquidity",
      "type": "event"
    },
    {
      "anonymous": false,
      "inputs": [],
      "name": "CreatedPerpetual",
      "type": "event"
    },
    {
      "anonymous": false,
      "inputs": [
        {
          "indexed": true,
          "internalType": "address",
          "name": "sponsor",
          "type": "address"
        }
      ],
      "name": "NewLiquidityProvider",
      "type": "event"
    },
    {
      "anonymous": false,
      "inputs": [
        {
          "indexed": true,
          "internalType": "address",
          "name": "previousOwner",
          "type": "address"
        },
        {
          "indexed": true,
          "internalType": "address",
          "name": "newOwner",
          "type": "address"
        }
      ],
      "name": "OwnershipTransferred",
      "type": "event"
    },
    {
      "anonymous": false,
      "inputs": [
        {
          "indexed": true,
          "internalType": "address",
          "name": "trader",
          "type": "address"
        },
        {
          "indexed": false,
          "internalType": "enum Perpetual.Side",
          "name": "side",
          "type": "uint8"
        },
        {
          "indexed": false,
          "internalType": "uint256",
          "name": "collateralAmount",
          "type": "uint256"
        },
        {
          "indexed": false,
          "internalType": "uint256",
          "name": "positionSize",
          "type": "uint256"
        },
        {
          "indexed": false,
          "internalType": "uint256",
          "name": "entryPrice",
          "type": "uint256"
        },
        {
          "indexed": false,
          "internalType": "uint256",
          "name": "exitPrice",
          "type": "uint256"
        }
      ],
      "name": "PositionClosed",
      "type": "event"
    },
    {
      "anonymous": false,
      "inputs": [
        {
          "indexed": true,
          "internalType": "address",
          "name": "sender",
          "type": "address"
        },
        {
          "indexed": false,
          "internalType": "uint256",
          "name": "collateralAmount",
          "type": "uint256"
        },
        {
          "indexed": false,
          "internalType": "uint256",
          "name": "positionSize",
          "type": "uint256"
        },
        {
          "indexed": false,
          "internalType": "enum Perpetual.Side",
          "name": "side",
          "type": "uint8"
        },
        {
          "indexed": false,
          "internalType": "enum Perpetual.Leverage",
          "name": "leverage",
          "type": "uint8"
        },
        {
          "indexed": false,
          "internalType": "uint256",
          "name": "price",
          "type": "uint256"
        }
      ],
      "name": "PositionCreated",
      "type": "event"
    },
    {
      "anonymous": false,
      "inputs": [
        {
          "indexed": true,
          "internalType": "address",
          "name": "trader",
          "type": "address"
        },
        {
          "indexed": true,
          "internalType": "address",
          "name": "liquidator",
          "type": "address"
        },
        {
          "indexed": false,
          "internalType": "enum Perpetual.Side",
          "name": "side",
          "type": "uint8"
        },
        {
          "indexed": false,
          "internalType": "uint256",
          "name": "tokenAmount",
          "type": "uint256"
        },
        {
          "indexed": false,
          "internalType": "uint256",
          "name": "payBackToTrader",
          "type": "uint256"
        },
        {
          "indexed": false,
          "internalType": "uint256",
          "name": "payToLiquidator",
          "type": "uint256"
        }
      ],
      "name": "PositionLiquidated",
      "type": "event"
    },
    {
      "anonymous": false,
      "inputs": [
        {
          "indexed": true,
          "internalType": "address",
          "name": "sender",
          "type": "address"
        },
        {
          "indexed": false,
          "internalType": "uint256",
          "name": "collateralAmount",
          "type": "uint256"
        },
        {
          "indexed": false,
          "internalType": "uint256",
          "name": "numTokens",
          "type": "uint256"
        }
      ],
      "name": "RemoveLiquidity",
      "type": "event"
    },
    {
      "inputs": [
        {
          "internalType": "address",
          "name": "_address",
          "type": "address"
        }
      ],
      "name": "addAddress",
      "outputs": [],
      "stateMutability": "nonpayable",
      "type": "function"
    },
    {
      "inputs": [],
      "name": "collateralCurrency",
      "outputs": [
        {
          "internalType": "contract IERC20",
          "name": "",
          "type": "address"
        }
      ],
      "stateMutability": "view",
      "type": "function",
      "constant": true
    },
    {
      "inputs": [],
      "name": "isOwner",
      "outputs": [
        {
          "internalType": "bool",
          "name": "",
          "type": "bool"
        }
      ],
      "stateMutability": "view",
      "type": "function",
      "constant": true
    },
    {
      "inputs": [
        {
          "internalType": "address",
          "name": "_address",
          "type": "address"
        }
      ],
      "name": "isWhitelisted",
      "outputs": [
        {
          "internalType": "bool",
          "name": "",
          "type": "bool"
        }
      ],
      "stateMutability": "view",
      "type": "function",
      "constant": true
    },
    {
      "inputs": [
        {
          "internalType": "address",
          "name": "",
          "type": "address"
        }
      ],
      "name": "liquidityProviders",
      "outputs": [
        {
          "internalType": "uint256",
          "name": "rawCollateral",
          "type": "uint256"
        },
        {
          "internalType": "uint256",
          "name": "totalMinted",
          "type": "uint256"
        }
      ],
      "stateMutability": "view",
      "type": "function",
      "constant": true
    },
    {
      "inputs": [],
      "name": "owner",
      "outputs": [
        {
          "internalType": "address",
          "name": "",
          "type": "address"
        }
      ],
      "stateMutability": "view",
      "type": "function",
      "constant": true
    },
    {
      "inputs": [],
      "name": "pmm",
      "outputs": [
        {
          "internalType": "contract IPmm",
          "name": "",
          "type": "address"
        }
      ],
      "stateMutability": "view",
      "type": "function",
      "constant": true
    },
    {
      "inputs": [
        {
          "internalType": "address",
          "name": "",
          "type": "address"
        }
      ],
      "name": "positions",
      "outputs": [
        {
          "internalType": "uint256",
          "name": "rawCollateral",
          "type": "uint256"
        },
        {
          "internalType": "uint256",
          "name": "leveragedAmount",
          "type": "uint256"
        },
        {
          "internalType": "uint256",
          "name": "positionSize",
          "type": "uint256"
        },
        {
          "internalType": "enum Perpetual.Side",
          "name": "side",
          "type": "uint8"
        },
        {
          "internalType": "enum Perpetual.Leverage",
          "name": "leverage",
          "type": "uint8"
        },
        {
          "internalType": "uint256",
          "name": "entryValue",
          "type": "uint256"
        },
        {
          "internalType": "uint256",
          "name": "entryTimestamp",
          "type": "uint256"
        },
        {
          "internalType": "bool",
          "name": "locked",
          "type": "bool"
        }
      ],
      "stateMutability": "view",
      "type": "function",
      "constant": true
    },
    {
      "inputs": [],
      "name": "priceFeeder",
      "outputs": [
        {
          "internalType": "contract IPriceFeeder",
          "name": "",
          "type": "address"
        }
      ],
      "stateMutability": "view",
      "type": "function",
      "constant": true
    },
    {
      "inputs": [],
      "name": "rawTotalPositionCollateral",
      "outputs": [
        {
          "internalType": "uint256",
          "name": "",
          "type": "uint256"
        }
      ],
      "stateMutability": "view",
      "type": "function",
      "constant": true
    },
    {
      "inputs": [
        {
          "internalType": "address",
          "name": "_address",
          "type": "address"
        }
      ],
      "name": "removeAddress",
      "outputs": [],
      "stateMutability": "nonpayable",
      "type": "function"
    },
    {
      "inputs": [],
      "name": "renounceOwnership",
      "outputs": [],
      "stateMutability": "nonpayable",
      "type": "function"
    },
    {
      "inputs": [],
      "name": "tokenCurrency",
      "outputs": [
        {
          "internalType": "contract IExpandedIERC20",
          "name": "",
          "type": "address"
        }
      ],
      "stateMutability": "view",
      "type": "function",
      "constant": true
    },
    {
      "inputs": [],
      "name": "totalLiquidity",
      "outputs": [
        {
          "internalType": "uint256",
          "name": "base",
          "type": "uint256"
        },
        {
          "internalType": "uint256",
          "name": "availableBase",
          "type": "uint256"
        },
        {
          "internalType": "uint256",
          "name": "quote",
          "type": "uint256"
        },
        {
          "internalType": "uint256",
          "name": "availableQuote",
          "type": "uint256"
        }
      ],
      "stateMutability": "view",
      "type": "function",
      "constant": true
    },
    {
      "inputs": [
        {
          "internalType": "address",
          "name": "newOwner",
          "type": "address"
        }
      ],
      "name": "transferOwnership",
      "outputs": [],
      "stateMutability": "nonpayable",
      "type": "function"
    },
    {
      "inputs": [
        {
          "internalType": "address",
          "name": "pmmAddress",
          "type": "address"
        }
      ],
      "name": "setupPmm",
      "outputs": [],
      "stateMutability": "nonpayable",
      "type": "function"
    },
    {
      "inputs": [],
      "name": "getTokenCurrency",
      "outputs": [
        {
          "internalType": "address",
          "name": "",
          "type": "address"
        }
      ],
      "stateMutability": "view",
      "type": "function",
      "constant": true
    },
    {
      "inputs": [],
      "name": "myPnl",
      "outputs": [
        {
          "internalType": "int256",
          "name": "pnl",
          "type": "int256"
        }
      ],
      "stateMutability": "view",
      "type": "function",
      "constant": true
    },
    {
      "inputs": [],
      "name": "myCollateralizationRatio",
      "outputs": [
        {
          "internalType": "uint256",
          "name": "ratio",
          "type": "uint256"
        }
      ],
      "stateMutability": "view",
      "type": "function",
      "constant": true
    },
    {
      "inputs": [],
      "name": "myCollateralizationStatus",
      "outputs": [
        {
          "internalType": "enum Perpetual.CollateralizationStatus",
          "name": "status",
          "type": "uint8"
        }
      ],
      "stateMutability": "view",
      "type": "function",
      "constant": true
    },
    {
      "inputs": [],
      "name": "getMidPrice",
      "outputs": [
        {
          "internalType": "uint256",
          "name": "",
          "type": "uint256"
        }
      ],
      "stateMutability": "view",
      "type": "function",
      "constant": true
    },
    {
      "inputs": [
        {
          "internalType": "uint256",
          "name": "amount",
          "type": "uint256"
        }
      ],
      "name": "getBuyPrice",
      "outputs": [
        {
          "internalType": "uint256",
          "name": "",
          "type": "uint256"
        }
      ],
      "stateMutability": "view",
      "type": "function",
      "constant": true
    },
    {
      "inputs": [
        {
          "internalType": "uint256",
          "name": "amount",
          "type": "uint256"
        }
      ],
      "name": "getSellPrice",
      "outputs": [
        {
          "internalType": "uint256",
          "name": "",
          "type": "uint256"
        }
      ],
      "stateMutability": "view",
      "type": "function",
      "constant": true
    },
    {
      "inputs": [
        {
          "internalType": "uint256",
          "name": "positionSize",
          "type": "uint256"
        },
        {
          "internalType": "uint256",
          "name": "maxCollateralAmount",
          "type": "uint256"
        },
        {
          "internalType": "enum Perpetual.Leverage",
          "name": "leverage",
          "type": "uint8"
        }
      ],
      "name": "openLongPosition",
      "outputs": [],
      "stateMutability": "nonpayable",
      "type": "function"
    },
    {
      "inputs": [
        {
          "internalType": "uint256",
          "name": "positionSize",
          "type": "uint256"
        },
        {
          "internalType": "uint256",
          "name": "maxCollateralAmount",
          "type": "uint256"
        },
        {
          "internalType": "enum Perpetual.Leverage",
          "name": "leverage",
          "type": "uint8"
        }
      ],
      "name": "openShortPosition",
      "outputs": [],
      "stateMutability": "nonpayable",
      "type": "function"
    },
    {
      "inputs": [],
      "name": "closePosition",
      "outputs": [],
      "stateMutability": "nonpayable",
      "type": "function"
    },
    {
      "inputs": [
        {
          "internalType": "address",
          "name": "trader",
          "type": "address"
        }
      ],
      "name": "liquidate",
      "outputs": [],
      "stateMutability": "nonpayable",
      "type": "function"
    },
    {
      "inputs": [
        {
          "internalType": "uint256",
          "name": "collateralAmount",
          "type": "uint256"
        }
      ],
      "name": "addLiquidity",
      "outputs": [],
      "stateMutability": "nonpayable",
      "type": "function"
    },
    {
      "inputs": [
        {
          "internalType": "uint256",
          "name": "percentage",
          "type": "uint256"
        }
      ],
      "name": "removeLiquidity",
      "outputs": [],
      "stateMutability": "nonpayable",
      "type": "function"
    }
  ],
  "bytecode": "0x60806040523480156200001157600080fd5b5060405162003b7038038062003b70833981016040819052620000349162000405565b6000805460ff19166001178155620000546001600160e01b036200026916565b60008054610100600160a81b0319166101006001600160a01b038416908102919091178255604051929350917f8be0079c531659141344cd1fd0a4f28419497f9722a3daafe3b4186f6b6457e0908290a350620000b96001600160e01b036200026d16565b620000cc6001600160e01b036200029416565b6001600160a01b038216620000fe5760405162461bcd60e51b8152600401620000f59062000550565b60405180910390fd5b6001600160a01b038316620001275760405162461bcd60e51b8152600401620000f59062000519565b6001600160a01b038116620001505760405162461bcd60e51b8152600401620000f590620005bc565b60405163e8a0aed360e01b815283906001600160a01b0382169063e8a0aed390620001859089908990601290600401620004dc565b602060405180830381600087803b158015620001a057600080fd5b505af1158015620001b5573d6000803e3d6000fd5b505050506040513d601f19601f82011682018060405250810190620001db9190620003df565b600580546001600160a01b03199081166001600160a01b0393841617909155600280548216868416179055600480549091169184169190911790556200022133620002a0565b6040517fd8b52e29a912ec27de0834ca0a1b4283cc003f1707d8d485e55333c6c4a217de90600090a1506200025e6001600160e01b036200032416565b505050505062000671565b3390565b60005460ff16620002925760405162461bcd60e51b8152600401620000f590620005f1565b565b6000805460ff19169055565b620002b36001600160e01b036200033316565b620002d25760405162461bcd60e51b8152600401620000f59062000587565b6001600160a01b03811660009081526001602052604090205460ff1615620002fa5762000321565b6001600160a01b0381166000908152600160208190526040909120805460ff191690911790555b50565b6000805460ff19166001179055565b6000805461010090046001600160a01b03166200034f62000269565b6001600160a01b031614905090565b600082601f8301126200036f578081fd5b81516001600160401b038082111562000386578283fd5b604051601f8301601f191681016020018281118282101715620003a7578485fd5b604052828152925082848301602001861015620003c357600080fd5b620003d683602083016020880162000628565b50505092915050565b600060208284031215620003f1578081fd5b8151620003fe816200065b565b9392505050565b600080600080600060a086880312156200041d578081fd5b85516001600160401b038082111562000434578283fd5b6200044289838a016200035e565b9650602088015191508082111562000458578283fd5b5062000467888289016200035e565b94505060408601516200047a816200065b565b60608701519093506200048d816200065b565b6080870151909250620004a0816200065b565b809150509295509295909350565b60008151808452620004c881602086016020860162000628565b601f01601f19169290920160200192915050565b600060608252620004f16060830186620004ae565b8281036020840152620005058186620004ae565b91505060ff83166040830152949350505050565b6020808252601c908201527f496e76616c696420546f6b656e466163746f7279206164647265737300000000604082015260600190565b6020808252601b908201527f496e76616c696420507269636546656564657220616464726573730000000000604082015260600190565b6020808252818101527f4f776e61626c653a2063616c6c6572206973206e6f7420746865206f776e6572604082015260600190565b6020808252818101527f496e76616c696420436f6c6c65746572616c20746f6b656e2061646472657373604082015260600190565b6020808252601f908201527f5265656e7472616e637947756172643a207265656e7472616e742063616c6c00604082015260600190565b60005b83811015620006455781810151838201526020016200062b565b8381111562000655576000848401525b50505050565b6001600160a01b03811681146200032157600080fd5b6134ef80620006816000396000f3fe608060405234801561001057600080fd5b50600436106101cf5760003560e01c8063715018a611610104578063b1078a16116100a2578063dce8622511610071578063dce8622514610391578063ee27c689146103a4578063f2fde38b146103ac578063fedb9da5146103bf576101cf565b8063b1078a1614610342578063ba730e5314610355578063c393d0e314610368578063dbd9426714610370576101cf565b80638c382eb2116100de5780638c382eb2146103175780638da5cb5b1461031f5780638f32d59b146103275780639c8f9f231461032f576101cf565b8063715018a6146102f45780637c9ab345146102fc5780638787914d1461030f576101cf565b80633af32abf116101715780634ba79dfe1161014b5780634ba79dfe1461029f57806351c6590a146102b257806355f57510146102c55780637048594b146102ec576101cf565b80633af32abf1461026f578063480517351461028f5780634a0cd87914610297576101cf565b80631fada485116101ad5780631fada4851461022a5780632497f02b146102325780632f8655681461024757806338eada1c1461025c576101cf565b806308d4db14146101d45780630de15fd9146101fd57806315770f9214610212575b600080fd5b6101e76101e2366004612d00565b6103c7565b6040516101f49190612e3f565b60405180910390f35b610205610483565b6040516101f49190612d79565b61021a610492565b6040516101f4949392919061347f565b6102056104a1565b61023a6104b0565b6040516101f49190612dd5565b61025a610255366004612ca8565b6104ce565b005b61025a61026a366004612ca8565b610b17565b61028261027d366004612ca8565b610b88565b6040516101f49190612dca565b6101e7610ba6565b6101e7610bbe565b61025a6102ad366004612ca8565b610bd6565b61025a6102c0366004612d00565b610c40565b6102d86102d3366004612ca8565b610fb5565b6040516101f498979695949392919061342c565b610205610ffd565b61025a61100c565b61025a61030a366004612ca8565b61107f565b6102056115d5565b6101e76115e4565b6102056115ea565b6102826115fe565b61025a61033d366004612d00565b611627565b61025a610350366004612d30565b6118c0565b6101e7610363366004612d00565b611c07565b61025a611c62565b61038361037e366004612ca8565b6121f9565b6040516101f49291906133e4565b61025a61039f366004612d30565b612212565b6101e76124ac565b61025a6103ba366004612ca8565b612562565b61020561258f565b6003546000906001600160a01b03166103fb5760405162461bcd60e51b81526004016103f290612f76565b60405180910390fd5b6003546040516306302ef960e21b81526001600160a01b03909116906318c0bbe49061042b908590600401612e3f565b60206040518083038186803b15801561044357600080fd5b505afa158015610457573d6000803e3d6000fd5b505050506040513d601f19601f8201168201806040525081019061047b9190612d18565b90505b919050565b6004546001600160a01b031681565b600954600a54600b54600c5484565b6002546001600160a01b031681565b3360009081526007602052604081206104c88161259e565b91505090565b6104d66125ea565b6104de61260c565b6003546001600160a01b03166105065760405162461bcd60e51b81526004016103f290612f76565b6001600160a01b0381166000908152600760205260409020600681015460ff1615156001146105475760405162461bcd60e51b81526004016103f290612ee2565b60026105528261259e565b600281111561055d57fe5b1461057a5760405162461bcd60e51b81526004016103f290613000565b600061058582612618565b905060008082156106dc5783546000906105a5908563ffffffff61268616565b90506105bf81670214e8348c4f000063ffffffff61268616565b92506105d1818463ffffffff6126bf16565b6004805460405163a9059cbb60e01b81529294506001600160a01b03169163a9059cbb91610603918a91879101612db1565b602060405180830381600087803b15801561061d57600080fd5b505af1158015610631573d6000803e3d6000fd5b505050506040513d601f19601f820116820180604052508101906106559190612cc4565b506004805460405163a9059cbb60e01b81526001600160a01b039091169163a9059cbb91610687913391889101612db1565b602060405180830381600087803b1580156106a157600080fd5b505af11580156106b5573d6000803e3d6000fd5b505050506040513d601f19601f820116820180604052508101906106d99190612cc4565b50505b6002600385015460ff1660028111156106f157fe5b141561087d5760035460028501546040516351400f0b60e11b81526000926001600160a01b03169163a2801e169161072c9190600401612e3f565b60206040518083038186803b15801561074457600080fd5b505afa158015610758573d6000803e3d6000fd5b505050506040513d601f19601f8201168201806040525081019061077c9190612d18565b600354600287015460405163952d7c5760e01b81529293506001600160a01b039091169163952d7c57916107b49185906004016133e4565b602060405180830381600087803b1580156107ce57600080fd5b505af11580156107e2573d6000803e3d6000fd5b505050506040513d601f19601f820116820180604052508101906108069190612d18565b50600c5461081a908263ffffffff6126ec16565b600c556002850154600a5410156108435760405162461bcd60e51b81526004016103f290612e48565b6002850154600a5461085a9163ffffffff6126bf16565b600a5560028501546009546108749163ffffffff6126bf16565b60095550610a95565b6003546040805163ee27c68960e01b815290516000926001600160a01b03169163ee27c689916004808301926020929190829003018186803b1580156108c257600080fd5b505afa1580156108d6573d6000803e3d6000fd5b505050506040513d601f19601f820116820180604052508101906108fa9190612d18565b9050600061091582876001015461271890919063ffffffff16565b6003546040516306302ef960e21b81529192506000916001600160a01b03909116906318c0bbe49061094b908590600401612e3f565b60206040518083038186803b15801561096357600080fd5b505afa158015610977573d6000803e3d6000fd5b505050506040513d601f19601f8201168201806040525081019061099b9190612d18565b60035460405163a51843ef60e01b81529192506001600160a01b03169063a51843ef906109ce90859085906004016133e4565b602060405180830381600087803b1580156109e857600080fd5b505af11580156109fc573d6000803e3d6000fd5b505050506040513d601f19601f82011682018060405250810190610a209190612d18565b50600a54610a34908363ffffffff6126ec16565b600a556001870154600c541015610a5d5760405162461bcd60e51b81526004016103f290612e48565b6001870154600c54610a749163ffffffff6126bf16565b600c556001870154600b54610a8e9163ffffffff6126bf16565b600b555050505b8354600854610aa99163ffffffff6126bf16565b6008556003840154845460405133926001600160a01b038916927f2cf3b2221e026e8ce0f7b15d38ef089795a4f3b777981c30fd213c5c8795cf4892610af79260ff16919087908990612de8565b60405180910390a3610b0885612738565b50505050610b146127b0565b50565b610b1f6115fe565b610b3b5760405162461bcd60e51b81526004016103f290613115565b6001600160a01b03811660009081526001602052604090205460ff1615610b6157610b14565b6001600160a01b03166000908152600160208190526040909120805460ff19169091179055565b6001600160a01b031660009081526001602052604090205460ff1690565b3360009081526007602052604081206104c8816127bf565b3360009081526007602052604081206104c881612618565b610bde6115fe565b610bfa5760405162461bcd60e51b81526004016103f290613115565b6001600160a01b03811660009081526001602052604090205460ff16610c1f57610b14565b6001600160a01b03166000908152600160205260409020805460ff19169055565b610c486125ea565b610c5061260c565b6003546001600160a01b0316610c785760405162461bcd60e51b81526004016103f290612f76565b60008111610c985760405162461bcd60e51b81526004016103f290613045565b3360009081526006602052604090206001810154610cdc5760405133907ff98b03bee24ef83f55d09e9ad063a39b9ea1ddc5ccb9f14e71293770dad7a42490600090a25b6003546040805163ee27c68960e01b815290516000926001600160a01b03169163ee27c689916004808301926020929190829003018186803b158015610d2157600080fd5b505afa158015610d35573d6000803e3d6000fd5b505050506040513d601f19601f82011682018060405250810190610d599190612d18565b90506000610d6d848363ffffffff61271816565b6001840154909150610d85908263ffffffff6126ec16565b60018401558254610d9c908563ffffffff6126ec16565b8355600b54610db1908563ffffffff6126ec16565b600b55600c54610dc7908563ffffffff6126ec16565b600c556005546040516340c10f1960e01b81526001600160a01b03909116906340c10f1990610dfc9030908590600401612db1565b602060405180830381600087803b158015610e1657600080fd5b505af1158015610e2a573d6000803e3d6000fd5b505050506040513d601f19601f82011682018060405250810190610e4e9190612cc4565b610e6a5760405162461bcd60e51b81526004016103f29061317f565b6003546040516313df6c7760e11b81526001600160a01b03909116906327bed8ee90610e9a908490600401612e3f565b602060405180830381600087803b158015610eb457600080fd5b505af1158015610ec8573d6000803e3d6000fd5b505050506040513d601f19601f82011682018060405250810190610eec9190612d18565b50336001600160a01b03167f06239653922ac7bea6aa2b19dc486b9361821d37712eb796adfd38d81de278ca8583604051610f289291906133e4565b60405180910390a2600480546040516323b872dd60e01b81526001600160a01b03909116916323b872dd91610f6391339130918a9101612d8d565b602060405180830381600087803b158015610f7d57600080fd5b505af1158015610f91573d6000803e3d6000fd5b505050506040513d601f19601f82011682018060405250810190610b089190612cc4565b600760205260009081526040902080546001820154600283015460038401546004850154600586015460069096015494959394929360ff808416946101009094048116931688565b6005546001600160a01b031681565b6110146115fe565b6110305760405162461bcd60e51b81526004016103f290613115565b600080546040516101009091046001600160a01b0316907f8be0079c531659141344cd1fd0a4f28419497f9722a3daafe3b4186f6b6457e0908390a360008054610100600160a81b0319169055565b60006110896128e3565b905061109481610b88565b6110b05760405162461bcd60e51b81526004016103f290613115565b600380546001600160a01b0319166001600160a01b0384811691909117918290556040805163c55dae6360e01b81529051929091169163c55dae6391600480820192602092909190829003018186803b15801561110c57600080fd5b505afa158015611120573d6000803e3d6000fd5b505050506040513d601f19601f820116820180604052508101906111449190612ce4565b6005546001600160a01b039081169116146111715760405162461bcd60e51b81526004016103f290612f19565b600360009054906101000a90046001600160a01b03166001600160a01b031663217a4b706040518163ffffffff1660e01b815260040160206040518083038186803b1580156111bf57600080fd5b505afa1580156111d3573d6000803e3d6000fd5b505050506040513d601f19601f820116820180604052508101906111f79190612ce4565b6004546001600160a01b039081169116146112245760405162461bcd60e51b81526004016103f2906131b6565b60055460405163095ea7b360e01b81526001600160a01b039091169063095ea7b39061125890859060001990600401612db1565b602060405180830381600087803b15801561127257600080fd5b505af1158015611286573d6000803e3d6000fd5b505050506040513d601f19601f820116820180604052508101906112aa9190612cc4565b506004805460405163095ea7b360e01b81526001600160a01b039091169163095ea7b3916112de9186916000199101612db1565b602060405180830381600087803b1580156112f857600080fd5b505af115801561130c573d6000803e3d6000fd5b505050506040513d601f19601f820116820180604052508101906113309190612cc4565b506005546040516340c10f1960e01b81526001600160a01b03909116906340c10f199061136b903090670de0b6b3a764000090600401612db1565b602060405180830381600087803b15801561138557600080fd5b505af1158015611399573d6000803e3d6000fd5b505050506040513d601f19601f820116820180604052508101906113bd9190612cc4565b506003546040516313df6c7760e11b81526001600160a01b03909116906327bed8ee906113f690670de0b6b3a764000090600401612e3f565b602060405180830381600087803b15801561141057600080fd5b505af1158015611424573d6000803e3d6000fd5b505050506040513d601f19601f820116820180604052508101906114489190612d18565b506003546040805163ee27c68960e01b815290516000926001600160a01b03169163ee27c689916004808301926020929190829003018186803b15801561148e57600080fd5b505afa1580156114a2573d6000803e3d6000fd5b505050506040513d601f19601f820116820180604052508101906114c69190612d18565b600480546040516323b872dd60e01b81529293506001600160a01b0316916323b872dd916114fa9133913091879101612d8d565b602060405180830381600087803b15801561151457600080fd5b505af1158015611528573d6000803e3d6000fd5b505050506040513d601f19601f8201168201806040525081019061154c9190612cc4565b5060035460405163f3ae6c5f60e01b81526001600160a01b039091169063f3ae6c5f9061157d908490600401612e3f565b602060405180830381600087803b15801561159757600080fd5b505af11580156115ab573d6000803e3d6000fd5b505050506040513d601f19601f820116820180604052508101906115cf9190612d18565b50505050565b6003546001600160a01b031681565b60085481565b60005461010090046001600160a01b031690565b6000805461010090046001600160a01b03166116186128e3565b6001600160a01b031614905090565b61162f6125ea565b61163761260c565b6003546001600160a01b031661165f5760405162461bcd60e51b81526004016103f290612f76565b670de0b6b3a76400008111156116875760405162461bcd60e51b81526004016103f29061325c565b600081116116a75760405162461bcd60e51b81526004016103f290612ebc565b33600090815260066020526040812080549091906116cb908463ffffffff61268616565b905060006116e684846001015461268690919063ffffffff16565b905081600960030154101561170d5760405162461bcd60e51b81526004016103f29061321b565b6001830154611722908263ffffffff6126bf16565b60018401558254611739908363ffffffff6126bf16565b8355600b5461174e908363ffffffff6126bf16565b600b55600c54611764908363ffffffff6126bf16565b600c5560035460405163f98bea1560e01b81526001600160a01b039091169063f98bea1590611797908490600401612e3f565b602060405180830381600087803b1580156117b157600080fd5b505af11580156117c5573d6000803e3d6000fd5b505050506040513d601f19601f820116820180604052508101906117e99190612d18565b50600554604051630852cd8d60e31b81526001600160a01b03909116906342966c689061181a908490600401612e3f565b600060405180830381600087803b15801561183457600080fd5b505af1158015611848573d6000803e3d6000fd5b50505050336001600160a01b03167f0fbf06c058b90cb038a618f8c2acbf6145f8b3570fd1fa56abb8f0f3f05b36e883836040516118879291906133e4565b60405180910390a26004805460405163a9059cbb60e01b81526001600160a01b039091169163a9059cbb91610f63913391879101612db1565b6118c86125ea565b6118d061260c565b6003546001600160a01b03166118f85760405162461bcd60e51b81526004016103f290612f76565b336000908152600760205260409020836119245760405162461bcd60e51b81526004016103f290613045565b600681015460ff16156119495760405162461bcd60e51b81526004016103f290612f9d565b6000611964611957846128e7565b869063ffffffff61294516565b6003546040516351400f0b60e11b81529192506000916001600160a01b039091169063a2801e169061199a908590600401612e3f565b60206040518083038186803b1580156119b257600080fd5b505afa1580156119c6573d6000803e3d6000fd5b505050506040513d601f19601f820116820180604052508101906119ea9190612d18565b905060006119fe828463ffffffff61271816565b90506000611a12888363ffffffff61268616565b905080871015611a345760405162461bcd60e51b81526004016103f29061339e565b600a548410611a555760405162461bcd60e51b81526004016103f2906131ed565b60035460405163952d7c5760e01b81526001600160a01b039091169063952d7c5790611a8790879087906004016133e4565b602060405180830381600087803b158015611aa157600080fd5b505af1158015611ab5573d6000803e3d6000fd5b505050506040513d601f19601f82011682018060405250810190611ad99190612d18565b50611aea8582858760018b8861297f565b600a54611afd908563ffffffff6126bf16565b600a55600c54611b13908463ffffffff6126ec16565b600c55600b54611b29908463ffffffff6126ec16565b600b5560405133907fac6e88aafce8c148fbb713a998bde021d9adbc8930759b48ae1e9c94bd27bc9d90611b6790849087906001908c9089906133f2565b60405180910390a2600480546040516323b872dd60e01b81526001600160a01b03909116916323b872dd91611ba29133913091879101612d8d565b602060405180830381600087803b158015611bbc57600080fd5b505af1158015611bd0573d6000803e3d6000fd5b505050506040513d601f19601f82011682018060405250810190611bf49190612cc4565b505050505050611c026127b0565b505050565b6003546000906001600160a01b0316611c325760405162461bcd60e51b81526004016103f290612f76565b6003546040516351400f0b60e11b81526001600160a01b039091169063a2801e169061042b908590600401612e3f565b611c6a6125ea565b611c7261260c565b6003546001600160a01b0316611c9a5760405162461bcd60e51b81526004016103f290612f76565b336000908152600760205260409020600681015460ff161515600114611cd25760405162461bcd60e51b81526004016103f290612ee2565b6002611cdd8261259e565b6002811115611ce857fe5b1415611d065760405162461bcd60e51b81526004016103f290612fc9565b6000611d2b611d14836127bf565b8354611d1f90612a4a565b9063ffffffff612a7716565b905060006002600384015460ff166002811115611d4457fe5b1415611ed05760035460028401546040516351400f0b60e11b81526000926001600160a01b03169163a2801e1691611d7f9190600401612e3f565b60206040518083038186803b158015611d9757600080fd5b505afa158015611dab573d6000803e3d6000fd5b505050506040513d601f19601f82011682018060405250810190611dcf9190612d18565b600354600286015460405163952d7c5760e01b81529293506001600160a01b039091169163952d7c5791611e079185906004016133e4565b602060405180830381600087803b158015611e2157600080fd5b505af1158015611e35573d6000803e3d6000fd5b505050506040513d601f19601f82011682018060405250810190611e599190612d18565b50600c54611e6d908263ffffffff6126ec16565b600c556002840154600a541015611e965760405162461bcd60e51b81526004016103f290612e48565b6002840154600a54611ead9163ffffffff6126bf16565b600a556002840154600954611ec79163ffffffff6126bf16565b600955506120e8565b6003546040805163ee27c68960e01b815290516000926001600160a01b03169163ee27c689916004808301926020929190829003018186803b158015611f1557600080fd5b505afa158015611f29573d6000803e3d6000fd5b505050506040513d601f19601f82011682018060405250810190611f4d9190612d18565b90506000611f6882866001015461271890919063ffffffff16565b6003546040516306302ef960e21b81529192506000916001600160a01b03909116906318c0bbe490611f9e908590600401612e3f565b60206040518083038186803b158015611fb657600080fd5b505afa158015611fca573d6000803e3d6000fd5b505050506040513d601f19601f82011682018060405250810190611fee9190612d18565b60035460405163a51843ef60e01b81529192506001600160a01b03169063a51843ef9061202190859085906004016133e4565b602060405180830381600087803b15801561203b57600080fd5b505af115801561204f573d6000803e3d6000fd5b505050506040513d601f19601f820116820180604052508101906120739190612d18565b50600a54612087908363ffffffff6126ec16565b600a556001860154600c5410156120b05760405162461bcd60e51b81526004016103f290612e48565b6001860154600c546120c79163ffffffff6126bf16565b600c556001860154600b546120e19163ffffffff6126bf16565b600b555050505b82546008546120fc9163ffffffff6126bf16565b600855600383015433907f0d8168b30bfff36f5f6d041eb8b19b55b964ad4c6b71a4f6cf0a25014f540dcf9060ff1661213485612abd565b8660020154876004015486604051612150959493929190612e11565b60405180910390a261216133612738565b6004546001600160a01b031663a9059cbb3361217c85612abd565b6040518363ffffffff1660e01b8152600401612199929190612db1565b602060405180830381600087803b1580156121b357600080fd5b505af11580156121c7573d6000803e3d6000fd5b505050506040513d601f19601f820116820180604052508101906121eb9190612cc4565b505050506121f76127b0565b565b6006602052600090815260409020805460019091015482565b61221a6125ea565b61222261260c565b6003546001600160a01b031661224a5760405162461bcd60e51b81526004016103f290612f76565b336000908152600760205260409020836122765760405162461bcd60e51b81526004016103f290613045565b600681015460ff161561229b5760405162461bcd60e51b81526004016103f290612f9d565b60006122a9611957846128e7565b6003546040516306302ef960e21b81529192506000916001600160a01b03909116906318c0bbe4906122df908590600401612e3f565b60206040518083038186803b1580156122f757600080fd5b505afa15801561230b573d6000803e3d6000fd5b505050506040513d601f19601f8201168201806040525081019061232f9190612d18565b90506000612343828463ffffffff61271816565b90506000612357888363ffffffff61268616565b9050808710156123795760405162461bcd60e51b81526004016103f29061339e565b600c54831061239a5760405162461bcd60e51b81526004016103f2906131ed565b60035460405163a51843ef60e01b81526001600160a01b039091169063a51843ef906123cc90879087906004016133e4565b602060405180830381600087803b1580156123e657600080fd5b505af11580156123fa573d6000803e3d6000fd5b505050506040513d601f19601f8201168201806040525081019061241e9190612d18565b5061242f8582858760028b8861297f565b600c54612442908463ffffffff6126bf16565b600c55600a54612458908563ffffffff6126ec16565b600a5560095461246e908563ffffffff6126ec16565b60095560405133907fac6e88aafce8c148fbb713a998bde021d9adbc8930759b48ae1e9c94bd27bc9d90611b6790849088906002908c9089906133f2565b6003546000906001600160a01b03166124d75760405162461bcd60e51b81526004016103f290612f76565b600360009054906101000a90046001600160a01b03166001600160a01b031663ee27c6896040518163ffffffff1660e01b815260040160206040518083038186803b15801561252557600080fd5b505afa158015612539573d6000803e3d6000fd5b505050506040513d601f19601f8201168201806040525081019061255d9190612d18565b905090565b61256a6115fe565b6125865760405162461bcd60e51b81526004016103f290613115565b610b1481612adf565b6005546001600160a01b031690565b6000806125aa83612618565b90506709b6e64a8ec600008111156125c657600091505061047e565b67058d15e1762800008111156125e057600191505061047e565b600291505061047e565b60005460ff166121f75760405162461bcd60e51b81526004016103f290613309565b6000805460ff19169055565b600080612624836127bf565b9050600061263982611d1f8660000154612a4a565b131561267c5761267461266f6126528560000154612a4a565b61266384611d1f8860000154612a4a565b9063ffffffff612b6b16565b612abd565b91505061047e565b600091505061047e565b6000670de0b6b3a76400006126b061269e8585612945565b6002670de0b6b3a76400005b046126ec565b816126b757fe5b049392505050565b6000828211156126e15760405162461bcd60e51b81526004016103f29061336e565b508082035b92915050565b6000828201838110156127115760405162461bcd60e51b81526004016103f290612f49565b9392505050565b6000816126b061273085670de0b6b3a7640000612945565b6002856126aa565b6001600160a01b0381166000908152600760205260409020600681015460ff1615156001146127795760405162461bcd60e51b81526004016103f29061314a565b6000600182018190556002820181905560038201805461ffff19169055600482018190556005820155600601805460ff1916905550565b6000805460ff19166001179055565b60006002600383015460ff1660028111156127d657fe5b141561289b576128946128026127fd8460040154856002015461268690919063ffffffff16565b612a4a565b60035460028501546040516351400f0b60e11b8152612888926001600160a01b03169163a2801e16916128389190600401612e3f565b60206040518083038186803b15801561285057600080fd5b505afa158015612864573d6000803e3d6000fd5b505050506040513d601f19601f820116820180604052508101906127fd9190612d18565b9063ffffffff612bad16565b905061047e565b60035460028301546040516306302ef960e21b8152612894926128d6926001600160a01b03909116916318c0bbe49161283891600401612e3f565b6128888460010154612a4a565b3390565b600060038260038111156128f757fe5b14156129055750600461047e565b600282600381111561291357fe5b14156129215750600361047e565b600182600381111561292f57fe5b141561293d5750600261047e565b50600161047e565b600082612954575060006126e6565b8282028284828161296157fe5b04146127115760405162461bcd60e51b81526004016103f29061307c565b8654612991908763ffffffff6126ec16565b87556008546129a6908763ffffffff6126ec16565b60085560018701546129be908663ffffffff6126ec16565b600188015560028701546129d8908563ffffffff6126ec16565b8760020181905550828760030160006101000a81548160ff02191690836002811115612a0057fe5b0217905550818760030160016101000a81548160ff02191690836003811115612a2557fe5b021790555060048701555050426005850155505050600601805460ff19166001179055565b60006001600160ff1b03821115612a735760405162461bcd60e51b81526004016103f2906132b9565b5090565b6000828201818312801590612a8c5750838112155b80612aa15750600083128015612aa157508381125b6127115760405162461bcd60e51b81526004016103f2906130ea565b600080821215612a735760405162461bcd60e51b81526004016103f2906132e3565b6001600160a01b038116612b055760405162461bcd60e51b81526004016103f290612e76565b600080546040516001600160a01b038085169361010090930416917f8be0079c531659141344cd1fd0a4f28419497f9722a3daafe3b4186f6b6457e091a3600080546001600160a01b0390921661010002610100600160a81b0319909216919091179055565b600080821215612b82578160000391508260000392505b81612b9e612b9885670de0b6b3a7640000612bf3565b84612c5e565b81612ba557fe5b059392505050565b6000818303818312801590612bc25750838113155b80612bd75750600083128015612bd757508381135b6127115760405162461bcd60e51b81526004016103f290613340565b600082612c02575060006126e6565b82600019148015612c165750600160ff1b82145b15612c335760405162461bcd60e51b81526004016103f290613282565b82820282848281612c4057fe5b05146127115760405162461bcd60e51b81526004016103f290613282565b6000808213612c7f5760405162461bcd60e51b81526004016103f2906130b3565b60008312612c9b57612c948360028405612a77565b90506126e6565b6127118360028405612bad565b600060208284031215612cb9578081fd5b8135612711816134a4565b600060208284031215612cd5578081fd5b81518015158114612711578182fd5b600060208284031215612cf5578081fd5b8151612711816134a4565b600060208284031215612d11578081fd5b5035919050565b600060208284031215612d29578081fd5b5051919050565b600080600060608486031215612d44578182fd5b8335925060208401359150604084013560048110612d60578182fd5b809150509250925092565b60048110612d7557fe5b9052565b6001600160a01b0391909116815260200190565b6001600160a01b039384168152919092166020820152604081019190915260600190565b6001600160a01b03929092168252602082015260400190565b901515815260200190565b60208101612de28361349a565b91905290565b60808101612df58661349a565b9481526020810193909352604083019190915260609091015290565b60a08101612e1e8761349a565b95815260208101949094526040840192909252606083015260809091015290565b90815260200190565b6020808252601490820152736e6f7420656e6f756768206c697175696469747960601b604082015260600190565b60208082526026908201527f4f776e61626c653a206e6577206f776e657220697320746865207a65726f206160408201526564647265737360d01b606082015260800190565b6020808252600c908201526b070657263656e746167653d360a41b604082015260600190565b6020808252601e908201527f4e6f20706f736974696f6e206f6e206120676976656e20616464726573730000604082015260600190565b60208082526016908201527524b73b30b634b2102826a6903130b9b2903a37b5b2b760511b604082015260600190565b602080825260139082015272556e6164646974696f6e206f766572666c6f7760681b604082015260600190565b6020808252600d908201526c1b9bc81c1b5b481a5cc81cd95d609a1b604082015260600190565b602080825260129082015271141bdcda5d1a5bdb881a5cc81b1bd8dad95960721b604082015260600190565b6020808252601f908201527f556e61626c6520746f20636c6f736520756e7361666520706f736974696f6e00604082015260600190565b60208082526025908201527f506f736974696f6e2061626f7665207468616e206c69717569646174696f6e20604082015264726174696f60d81b606082015260800190565b6020808252601d908201527f616d6f756e74206d7573742062652067726561746572207468616e2030000000604082015260600190565b60208082526019908201527f556e6d756c7469706c69636174696f6e206f766572666c6f7700000000000000604082015260600190565b6020808252601f908201527f726f756e6448616c665570206f6e6c7920737570706f7274732079203e203000604082015260600190565b6020808252601190820152706164646974696f6e206f766572666c6f7760781b604082015260600190565b6020808252818101527f4f776e61626c653a2063616c6c6572206973206e6f7420746865206f776e6572604082015260600190565b6020808252818101527f4e6f20706f736974696f6e206f6e2074686520676976656e2061646472657373604082015260600190565b6020808252601f908201527f4d696e74696e672073796e74686574696320746f6b656e73206661696c656400604082015260600190565b60208082526017908201527f496e76616c696420504d4d2071756f746520746f6b656e000000000000000000604082015260600190565b6020808252601490820152734e6f7420656e6f756768206c697175696469747960601b604082015260600190565b60208082526021908201527f496e73756666696369656e7420617661696c61626c6520636f6c6c61746572616040820152601b60fa1b606082015260800190565b6020808252600c908201526b70657263656e746167653e3160a01b604082015260600190565b60208082526018908201527f776d756c7469706c69636174696f6e206f766572666c6f770000000000000000604082015260600190565b60208082526010908201526f75696e74323536206f766572666c6f7760801b604082015260600190565b6020808252600c908201526b696e74206f766572666c6f7760a01b604082015260600190565b6020808252601f908201527f5265656e7472616e637947756172643a207265656e7472616e742063616c6c00604082015260600190565b6020808252601490820152737375627472616374696f6e206f766572666c6f7760601b604082015260600190565b602080825260169082015275556e7375627472616374696f6e206f766572666c6f7760501b604082015260600190565b60208082526026908201527f636f6c6c61746572616c416d6f756e74203e206d6178436f6c6c61746572616c604082015265105b5bdd5b9d60d21b606082015260800190565b918252602082015260400190565b8581526020810185905260a081016134098561349a565b84604083015261341c6060830185612d6b565b8260808301529695505050505050565b8881526020810188905260408101879052610100810161344b8761349a565b86606083015261345e6080830187612d6b565b8460a08301528360c083015282151560e08301529998505050505050505050565b93845260208401929092526040830152606082015260800190565b60038110610b1457fe5b6001600160a01b0381168114610b1457600080fdfea26469706673582212207e551b2a8f2bf1be41dafbdbf7bd8cc47f0e32e1745e46b5949ab035b12d720564736f6c63430006090033",
  "immutableReferences": {},
  "source": "// SPDX-License-Identifier: MIT\n\npragma solidity 0.6.9;\npragma experimental ABIEncoderV2;\n\nimport \"./utility/Lockable.sol\";\nimport \"./utility/Whitelist.sol\";\nimport \"./utility/LibMath.sol\";\nimport \"./utility/SafeERC20.sol\";\nimport \"./interfaces/IExpandedIERC20.sol\";\nimport \"./interfaces/IPriceFeeder.sol\";\nimport \"./interfaces/IPmm.sol\";\nimport \"./TokenFactory.sol\";\n\n/**\n * @title Perpetual contract\n * @dev this is unaudited code, don't use it on Mainnet\n */\n\ncontract Perpetual is Lockable, Whitelist {\n    using LibMathSigned for int256;\n    using LibMathUnsigned for uint256;\n    using SafeERC20 for IERC20;\n\n    enum Leverage {ONE, TWO, THREE, FOUR}\n    enum Side {FLAT, SHORT, LONG} \n    enum CollateralizationStatus {SAFE, WARNING, DANGER}\n\n    struct LiquidityProvider {\n        // Raw collateral value\n        uint256 rawCollateral;\n        // Total tokens have been minted\n        uint256 totalMinted;\n    }\n\n    struct LiquidityData {\n        // synthetic\n        uint256 base;\n        uint256 availableBase;\n        // collateral\n        uint256 quote;\n        uint256 availableQuote;\n    }\n\n    struct PositionData {\n        uint256 rawCollateral;\n        uint256 leveragedAmount;\n        uint256 positionSize;\n        Side side;\n        Leverage leverage;\n        uint256 entryValue;\n        uint entryTimestamp;\n        bool locked;\n    }\n\n    // Price feeder contract.\n    IPriceFeeder public priceFeeder;\n    // PMM contract.\n    IPmm public pmm;\n    // The collateral currency used to back the positions in this contract.\n    IERC20 public collateralCurrency;\n    // Synthetic token created by this contract.\n    IExpandedIERC20 public tokenCurrency;\n    // Liquidity Provider Data\n    mapping (address => LiquidityProvider) public liquidityProviders;\n    // Maps sponsor addresses to their positions. Each sponsor can have only one position.\n    mapping(address => PositionData) public positions;\n    // Keep track of the raw collateral across all positions\n    uint256 public rawTotalPositionCollateral;\n    // Total liquidity\n    LiquidityData public totalLiquidity;\n    \n    uint256 constant MAX = 0xffffffffffffffffffffffffffffffffffffffffffffffffffffffffffffffff;\n    uint256 constant ONE = 1000000000000000000; // 1\n    // Trader need to top-up when position is below 70%\n    uint256 constant maintenanceRatio = 700000000000000000; // 0.7\n    // Anybody can liquidate when particular trader position belows 40%\n    uint256 constant liquidationRatio = 400000000000000000; // 0.4\n    // Take cut to liquidator 15%\n    uint256 constant liquidationIncentive = 150000000000000000; // 0.15\n\n    event CreatedPerpetual();\n    event AddLiquidity(address indexed sender, uint256 collateralAmount, uint256 numTokens);\n    event RemoveLiquidity(address indexed sender, uint256 collateralAmount, uint256 numTokens);\n    event NewLiquidityProvider(address indexed sponsor);\n    event PositionCreated(address indexed sender, uint256 collateralAmount, uint256 positionSize, Side side, Leverage leverage, uint256 price);\n    event PositionLiquidated(address indexed trader, address indexed liquidator, Side side, uint256 tokenAmount, uint256 payBackToTrader, uint256 payToLiquidator);\n    event PositionClosed(address indexed trader, Side side, uint256 collateralAmount, uint256 positionSize, uint256 entryPrice, uint256 exitPrice);\n\n    constructor(\n        string memory _name,\n        string memory _symbol,\n        address _tokenFactoryAddress,\n        address _priceFeederAddress,\n        address _collateralAddress\n    ) public nonReentrant() { \n        require(_priceFeederAddress != address(0), \"Invalid PriceFeeder address\");\n        require(_tokenFactoryAddress != address(0), \"Invalid TokenFactory address\");\n        require(_collateralAddress != address(0), \"Invalid Colleteral token address\");\n\n        // Setup synthetic token\n        TokenFactory tf = TokenFactory(_tokenFactoryAddress);\n        tokenCurrency = tf.createToken(_name, _symbol, 18);\n        \n        priceFeeder = IPriceFeeder(_priceFeederAddress);\n        collateralCurrency = IERC20(_collateralAddress);\n\n        addAddress(msg.sender);\n\n        emit CreatedPerpetual();\n    }\n\n    // Setup PMM contract address\n    function setupPmm(address pmmAddress) external onlyWhitelisted() {\n        pmm = IPmm(pmmAddress);\n        require( address(tokenCurrency) ==  address(pmm.baseToken()),\"Invalid PMM base token\");\n        require( address(collateralCurrency) == address(pmm.quoteToken()) ,\"Invalid PMM quote token\");\n        tokenCurrency.approve(pmmAddress , MAX);\n        collateralCurrency.approve(pmmAddress , MAX);\n        // Initial fund PMM with 1 SYNTH\n        tokenCurrency.mint(address(this), ONE);\n        pmm.depositBase(ONE);\n        uint256 initialRate = pmm.getMidPrice();\n        collateralCurrency.transferFrom(msg.sender, address(this), initialRate);\n        // Funding on colleteral side that equivalent to 1 SYNTH\n        pmm.depositQuote(initialRate);\n        // TODO: Find out the suitable amount when initialize the PMM\n    }\n\n    // Get synthetic token address\n    function getTokenCurrency() public view returns (address)\n    {\n        return address(tokenCurrency);\n    }\n\n    // Get my Profit/Loss\n    function myPnl() \n        public\n        view\n        returns (int256 pnl) \n    {\n        PositionData storage positionData = positions[msg.sender];\n        return _pnl(positionData);\n    }\n\n    // Get the current collateralization ratio from the sender\n    function myCollateralizationRatio()\n        public\n        view\n        returns (uint256 ratio)\n    {\n        PositionData storage positionData = positions[msg.sender];\n        return _getCollateralizationRatio(positionData);\n    }\n\n    // Get the current collateralization status from the sender\n    function myCollateralizationStatus()\n        public\n        view\n        returns (CollateralizationStatus status)\n    {\n        PositionData storage positionData = positions[msg.sender];\n        return _getCollateralizationStatus(positionData);\n    }\n\n    // get mid price\n    function getMidPrice()\n        public\n        view\n        pmmRequired()\n        returns (uint256)\n    {\n        return pmm.getMidPrice();\n    }\n\n    // get buy price\n    function getBuyPrice(uint256 amount)\n        public\n        view\n        pmmRequired()\n        returns (uint256)\n    {\n        return pmm.queryBuyBaseToken(amount);\n    }\n\n    // get sell price\n    function getSellPrice(uint256 amount)\n        public\n        view\n        pmmRequired()\n        returns (uint256)\n    {\n        return pmm.querySellBaseToken(amount);\n    }\n\n    // trade functions\n    \n    // open long position\n    function openLongPosition(uint256 positionSize, uint256 maxCollateralAmount, Leverage leverage)\n        public\n        nonReentrant()\n        pmmRequired()\n    {\n        PositionData storage positionData = positions[msg.sender];\n\n        require(positionSize > 0, \"amount must be greater than 0\");\n        require(positionData.locked == false , \"Position is locked\");\n\n        uint256 leveragedSize = positionSize.mul(_resolveLeverage(leverage));\n\n        uint256 borrowingAmount = pmm.queryBuyBaseToken(leveragedSize);\n        uint256 currentPrice = borrowingAmount.wdiv(leveragedSize);\n        uint256 collateralAmount = positionSize.wmul(currentPrice);\n\n        require(maxCollateralAmount >= collateralAmount, \"collateralAmount > maxCollateralAmount\");\n        require(borrowingAmount < totalLiquidity.availableQuote, \"Not enough liquidity\");\n\n        pmm.buyBaseToken(leveragedSize, borrowingAmount);\n\n        // Increase the position and global collateral balance by collateral amount.\n        _incrementCollateralBalances(positionData, collateralAmount, borrowingAmount, leveragedSize, Side.LONG, leverage, currentPrice );\n\n        totalLiquidity.availableQuote = totalLiquidity.availableQuote.sub(borrowingAmount);\n        totalLiquidity.availableBase = totalLiquidity.availableBase.add(leveragedSize);\n        totalLiquidity.base = totalLiquidity.base.add(leveragedSize);\n\n        emit PositionCreated(msg.sender, collateralAmount, leveragedSize, Side.LONG, leverage, currentPrice);\n\n        collateralCurrency.transferFrom(msg.sender, address(this), collateralAmount);\n    }\n\n    // open short position\n    function openShortPosition(uint256 positionSize, uint256 maxCollateralAmount, Leverage leverage)\n        public\n        nonReentrant()\n        pmmRequired()\n    {\n        PositionData storage positionData = positions[msg.sender];\n\n        require(positionSize > 0, \"amount must be greater than 0\");\n        require(positionData.locked == false , \"Position is locked\");\n\n        uint256 leveragedSize = positionSize.mul(_resolveLeverage(leverage));\n\n        uint256 amount = pmm.querySellBaseToken(leveragedSize);\n        uint256 currentPrice = amount.wdiv(leveragedSize);\n        uint256 collateralAmount = positionSize.wmul(currentPrice);\n\n        require(maxCollateralAmount >= collateralAmount, \"collateralAmount > maxCollateralAmount\");\n        require(leveragedSize < totalLiquidity.availableBase, \"Not enough liquidity\");\n\n        pmm.sellBaseToken(leveragedSize, amount);\n        // Record it\n        _incrementCollateralBalances(positionData, collateralAmount, amount, leveragedSize, Side.SHORT, leverage, currentPrice );\n\n        totalLiquidity.availableBase = totalLiquidity.availableBase.sub(leveragedSize);\n        totalLiquidity.availableQuote = totalLiquidity.availableQuote.add(amount);\n        totalLiquidity.quote = totalLiquidity.quote.add(amount);\n\n        emit PositionCreated(msg.sender, collateralAmount, amount, Side.SHORT, leverage, currentPrice);\n\n        collateralCurrency.transferFrom(msg.sender, address(this), collateralAmount);\n    }\n\n    // close the position\n    function closePosition()\n        public\n        nonReentrant()\n        pmmRequired()\n    {\n        PositionData storage positionData = positions[msg.sender];\n\n        require( positionData.locked == true, \"No position on a given address\" );\n        require(\n            _getCollateralizationStatus(positionData) != CollateralizationStatus.DANGER,\n            \"Unable to close unsafe position\"\n        );\n\n        int256 remainingCollateral = (positionData.rawCollateral.toInt256()).add(_pnl(positionData));\n        uint256 exitPrice = 0;\n\n        if (positionData.side == Side.LONG) {\n            // Sell synthetic assets back to PMM\n            uint256 amount = pmm.querySellBaseToken(positionData.positionSize);\n            pmm.sellBaseToken(positionData.positionSize, amount); \n\n            totalLiquidity.availableQuote = totalLiquidity.availableQuote.add(amount);\n            require(totalLiquidity.availableBase >= positionData.positionSize, \"not enough liquidity\");\n            totalLiquidity.availableBase = totalLiquidity.availableBase.sub(positionData.positionSize);\n            totalLiquidity.base = totalLiquidity.base.sub(positionData.positionSize);\n        } else {\n            // Sell colleteral assets back to PMM\n            // FIXME: Find the better way to convert collateral -> synthetic\n            uint256 spotPrice = pmm.getMidPrice();\n            uint256 totalSynths = positionData.leveragedAmount.wdiv(spotPrice);\n            uint256 amount = pmm.queryBuyBaseToken(totalSynths);\n            pmm.buyBaseToken(totalSynths, amount);\n\n            totalLiquidity.availableBase = totalLiquidity.availableBase.add(totalSynths);\n            require(totalLiquidity.availableQuote >= positionData.leveragedAmount, \"not enough liquidity\");\n            totalLiquidity.availableQuote = totalLiquidity.availableQuote.sub(positionData.leveragedAmount);\n            totalLiquidity.quote = totalLiquidity.quote.sub(positionData.leveragedAmount);\n        }\n\n        rawTotalPositionCollateral = rawTotalPositionCollateral.sub(positionData.rawCollateral);\n\n        emit PositionClosed(msg.sender, positionData.side, remainingCollateral.toUint256(), positionData.positionSize, positionData.entryValue, exitPrice);\n\n        _deletePosition(msg.sender);\n\n        collateralCurrency.transfer(msg.sender, remainingCollateral.toUint256());\n    }\n\n    // liquidation\n    function liquidate(address trader) \n        external\n        nonReentrant()\n        pmmRequired()\n    {\n        // Retrieve Position data for trader who being liquidated\n        PositionData storage positionData = positions[trader];\n\n        require( positionData.locked == true, \"No position on a given address\" );\n        require(\n            _getCollateralizationStatus(positionData) == CollateralizationStatus.DANGER,\n            \"Position above than liquidation ratio\"\n        );\n\n        uint256 currentRatio = _getCollateralizationRatio(positionData);\n        uint256 penaltyFee = 0;\n        uint256 payToTrader = 0;\n\n        if (currentRatio != 0) {\n            // Pay Trader back - Penalty fee \n            uint256 remainingCollateral = (positionData.rawCollateral).wmul(currentRatio);\n            penaltyFee = remainingCollateral.wmul(liquidationIncentive);\n            payToTrader =  remainingCollateral.sub(penaltyFee);\n\n            collateralCurrency.transfer(trader, payToTrader);\n            // Incentivize the liquidator\n            collateralCurrency.transfer(msg.sender, penaltyFee);\n        }\n\n        if (positionData.side == Side.LONG) {\n            // Sell synthetic assets back to PMM\n            uint256 amount = pmm.querySellBaseToken(positionData.positionSize);\n            pmm.sellBaseToken(positionData.positionSize, amount); \n\n            totalLiquidity.availableQuote = totalLiquidity.availableQuote.add(amount);\n            require(totalLiquidity.availableBase >= positionData.positionSize, \"not enough liquidity\");\n            totalLiquidity.availableBase = totalLiquidity.availableBase.sub(positionData.positionSize);\n            totalLiquidity.base = totalLiquidity.base.sub(positionData.positionSize);\n\n        } else {\n            // Sell colleteral assets back to PMM\n            // FIXME: Find the better way to convert collateral -> synthetic\n            uint256 spotPrice = pmm.getMidPrice();\n            uint256 totalSynths = positionData.leveragedAmount.wdiv(spotPrice);\n            uint256 amount = pmm.queryBuyBaseToken(totalSynths);\n            pmm.buyBaseToken(totalSynths, amount);\n\n            totalLiquidity.availableBase = totalLiquidity.availableBase.add(totalSynths);\n            require(totalLiquidity.availableQuote >= positionData.leveragedAmount, \"not enough liquidity\");\n            totalLiquidity.availableQuote = totalLiquidity.availableQuote.sub(positionData.leveragedAmount);\n            totalLiquidity.quote = totalLiquidity.quote.sub(positionData.leveragedAmount);\n        }   \n\n        rawTotalPositionCollateral = rawTotalPositionCollateral.sub(positionData.rawCollateral);\n\n        emit PositionLiquidated(trader, msg.sender, positionData.side , positionData.rawCollateral , payToTrader, penaltyFee);\n\n        _deletePosition(trader);\n    }\n\n    // add liquidity\n    function addLiquidity(uint256 collateralAmount) \n        public\n        nonReentrant()\n        pmmRequired()\n    {\n        require(collateralAmount > 0, \"amount must be greater than 0\");\n\n        LiquidityProvider storage liquidityData = liquidityProviders[msg.sender];\n\n        if (liquidityData.totalMinted == 0) {\n            emit NewLiquidityProvider(msg.sender);\n        }\n        // Mint corresponding synthetic tokens and deposit to PMM\n        uint256 spotPrice = pmm.getMidPrice();\n        uint256 numTokens = collateralAmount.wdiv(spotPrice);\n        liquidityData.totalMinted = liquidityData.totalMinted.add(numTokens);\n        liquidityData.rawCollateral = liquidityData.rawCollateral.add(collateralAmount);\n\n        totalLiquidity.quote = totalLiquidity.quote.add(collateralAmount);\n        totalLiquidity.availableQuote = totalLiquidity.availableQuote.add(collateralAmount);\n\n        require(tokenCurrency.mint(address(this), numTokens), \"Minting synthetic tokens failed\");\n\n        pmm.depositBase(numTokens);\n\n        emit AddLiquidity(msg.sender, collateralAmount, numTokens);\n        // Transfer tokens into this contract\n        collateralCurrency.transferFrom(msg.sender, address(this), collateralAmount);\n    }\n\n    // remove liquidity (ex. 100% = 1e18)\n    function removeLiquidity(uint256 percentage) \n        public\n        nonReentrant()\n        pmmRequired()\n    {\n        require(percentage <= ONE, \"percentage>1\");\n        require(percentage > 0, \"percentage=0\");\n\n        LiquidityProvider storage liquidityData = liquidityProviders[msg.sender];\n\n        uint256 collateral = liquidityData.rawCollateral.wmul(percentage);\n        uint256 numTokens = liquidityData.totalMinted.wmul(percentage);\n\n        require( totalLiquidity.availableQuote >= collateral , \"Insufficient available collateral\" );\n\n        liquidityData.totalMinted = liquidityData.totalMinted.sub(numTokens);\n        liquidityData.rawCollateral = liquidityData.rawCollateral.sub(collateral);\n\n        totalLiquidity.quote = totalLiquidity.quote.sub(collateral);\n        totalLiquidity.availableQuote = totalLiquidity.availableQuote.sub(collateral);\n\n        // Withdraw synthetics from PMM and burn\n        pmm.withdrawBase(numTokens);\n        tokenCurrency.burn(numTokens);\n\n        emit RemoveLiquidity(msg.sender, collateral, numTokens);\n        collateralCurrency.transfer(msg.sender, collateral);\n    }\n\n\n    // INTERNAL FUNCTIONS\n\n    // Check if amm address is set.\n    modifier pmmRequired() {\n        require(address(pmm) != address(0), \"no pmm is set\");\n        _;\n    }\n\n    function _resolveLeverage(Leverage leverage) pure internal returns (uint256) {\n        if (leverage == Leverage.FOUR) {\n            return 4;\n        } else if (leverage == Leverage.THREE) {\n            return 3;\n        } else if (leverage == Leverage.TWO) {\n            return 2;\n        } else {\n            return 1;\n        }\n    }\n\n    function _incrementCollateralBalances(\n        PositionData storage positionData,\n        uint256 collateralAmount,\n        uint256 leveragedAmount,\n        uint256 size,\n        Side side,\n        Leverage leverage,\n        uint256 price\n    ) internal {\n        positionData.rawCollateral = positionData.rawCollateral.add(collateralAmount);\n        rawTotalPositionCollateral = rawTotalPositionCollateral.add(collateralAmount);\n\n        positionData.leveragedAmount = positionData.leveragedAmount.add(leveragedAmount);\n        positionData.positionSize = positionData.positionSize.add(size);\n        positionData.side = side;\n        positionData.leverage = leverage;\n        positionData.entryValue = price;\n        positionData.entryTimestamp = block.timestamp;\n        positionData.locked = true;\n\n    }\n\n    function _deletePosition(address trader) internal {\n        PositionData storage positionData = positions[trader];\n        require( positionData.locked == true , \"No position on the given address\" );\n\n        positionData.leveragedAmount = 0;\n        positionData.positionSize = 0;\n        positionData.side = Side.FLAT;\n        positionData.leverage = Leverage.ONE;\n        positionData.entryValue = 0;\n        positionData.entryTimestamp = 0;\n        positionData.locked = false;\n    }\n\n    function _getCollateralizationRatio(PositionData storage positionData) internal view returns (uint256) {\n        int256 pnl = _pnl(positionData);\n        // TODO: Might need to track debt\n        if (positionData.rawCollateral.toInt256().add(pnl) > 0) {\n            return ((positionData.rawCollateral.toInt256().add(pnl)).wdiv(positionData.rawCollateral.toInt256())).toUint256();\n        } else {\n            return 0;\n        }\n    }\n\n    function _getCollateralizationStatus(PositionData storage positionData) internal view returns (CollateralizationStatus) {\n        uint256 currentRatio = _getCollateralizationRatio(positionData);\n        if (currentRatio > maintenanceRatio) {\n            return CollateralizationStatus.SAFE;\n        } else if (currentRatio > liquidationRatio) {\n            return CollateralizationStatus.WARNING;\n        } else {\n            return CollateralizationStatus.DANGER;\n        }\n    }\n\n    function _pnl(PositionData storage positionData) internal view returns (int256) {\n        if (positionData.side == Side.LONG) {\n            return (pmm.querySellBaseToken(positionData.positionSize).toInt256()).sub( (positionData.positionSize.wmul(positionData.entryValue)).toInt256() );\n        } else {\n            return (positionData.leveragedAmount.toInt256()).sub( (pmm.queryBuyBaseToken(positionData.positionSize)).toInt256() );\n        }\n    }\n\n}\n",
  "sourcePath": "/home/pisuthd/Desktop/elliptix/tamago-finance/core/contracts/Perpetual.sol",
  "compiler": {
    "name": "solc",
    "version": "0.6.9+commit.3e3065ac.Emscripten.clang"
  },
  "schemaVersion": "3.2.0",
  "updatedAt": "2021-03-29T14:37:18.144Z",
  "networkType": "ethereum",
  "devdoc": {
    "details": "this is unaudited code, don't use it on Mainnet",
    "methods": {
      "addAddress(address)": {
        "details": "adds a given address to the whitelist ",
        "params": {
          "_address": "address to add"
        }
      },
      "isOwner()": {
        "details": "Returns true if the caller is the current owner."
      },
      "isWhitelisted(address)": {
        "details": "returns true if a given address is whitelisted, false if not ",
        "params": {
          "_address": "address to check "
        },
        "returns": {
          "_0": "true if the address is whitelisted, false if not"
        }
      },
      "owner()": {
        "details": "Returns the address of the current owner."
      },
      "removeAddress(address)": {
        "details": "removes a given address from the whitelist ",
        "params": {
          "_address": "address to remove"
        }
      },
      "renounceOwnership()": {
        "details": "Leaves the contract without owner. It will not be possible to call `onlyOwner` functions anymore. Can only be called by the current owner. NOTE: Renouncing ownership will leave the contract without an owner, thereby removing any functionality that is only available to the owner."
      },
      "transferOwnership(address)": {
        "details": "Transfers ownership of the contract to a new account (`newOwner`). Can only be called by the current owner."
      }
    },
    "title": "Perpetual contract"
  },
  "userdoc": {
    "methods": {}
  }
}