{
  "contractName": "Perpetual",
  "abi": [
    {
      "inputs": [
        {
          "internalType": "string",
          "name": "_name",
          "type": "string"
        },
        {
          "internalType": "string",
          "name": "_symbol",
          "type": "string"
        },
        {
          "internalType": "address",
          "name": "_tokenFactoryAddress",
          "type": "address"
        },
        {
          "internalType": "address",
          "name": "_priceFeederAddress",
          "type": "address"
        },
        {
          "internalType": "address",
          "name": "_collateralAddress",
          "type": "address"
        }
      ],
      "stateMutability": "nonpayable",
      "type": "constructor"
    },
    {
      "anonymous": false,
      "inputs": [
        {
          "indexed": true,
          "internalType": "address",
          "name": "sender",
          "type": "address"
        },
        {
          "indexed": false,
          "internalType": "uint256",
          "name": "collateralAmount",
          "type": "uint256"
        },
        {
          "indexed": false,
          "internalType": "uint256",
          "name": "numTokens",
          "type": "uint256"
        }
      ],
      "name": "AddLiquidity",
      "type": "event"
    },
    {
      "anonymous": false,
      "inputs": [],
      "name": "CreatedPerpetual",
      "type": "event"
    },
    {
      "anonymous": false,
      "inputs": [
        {
          "indexed": true,
          "internalType": "address",
          "name": "sponsor",
          "type": "address"
        }
      ],
      "name": "NewLiquidityProvider",
      "type": "event"
    },
    {
      "anonymous": false,
      "inputs": [
        {
          "indexed": true,
          "internalType": "address",
          "name": "previousOwner",
          "type": "address"
        },
        {
          "indexed": true,
          "internalType": "address",
          "name": "newOwner",
          "type": "address"
        }
      ],
      "name": "OwnershipTransferred",
      "type": "event"
    },
    {
      "anonymous": false,
      "inputs": [
        {
          "indexed": true,
          "internalType": "address",
          "name": "trader",
          "type": "address"
        },
        {
          "indexed": false,
          "internalType": "enum Perpetual.Side",
          "name": "side",
          "type": "uint8"
        },
        {
          "indexed": false,
          "internalType": "uint256",
          "name": "collateralAmount",
          "type": "uint256"
        },
        {
          "indexed": false,
          "internalType": "uint256",
          "name": "positionSize",
          "type": "uint256"
        },
        {
          "indexed": false,
          "internalType": "uint256",
          "name": "entryPrice",
          "type": "uint256"
        },
        {
          "indexed": false,
          "internalType": "uint256",
          "name": "exitPrice",
          "type": "uint256"
        }
      ],
      "name": "PositionClosed",
      "type": "event"
    },
    {
      "anonymous": false,
      "inputs": [
        {
          "indexed": true,
          "internalType": "address",
          "name": "sender",
          "type": "address"
        },
        {
          "indexed": false,
          "internalType": "uint256",
          "name": "collateralAmount",
          "type": "uint256"
        },
        {
          "indexed": false,
          "internalType": "uint256",
          "name": "positionSize",
          "type": "uint256"
        },
        {
          "indexed": false,
          "internalType": "enum Perpetual.Side",
          "name": "side",
          "type": "uint8"
        },
        {
          "indexed": false,
          "internalType": "enum Perpetual.Leverage",
          "name": "leverage",
          "type": "uint8"
        },
        {
          "indexed": false,
          "internalType": "uint256",
          "name": "price",
          "type": "uint256"
        }
      ],
      "name": "PositionCreated",
      "type": "event"
    },
    {
      "anonymous": false,
      "inputs": [
        {
          "indexed": true,
          "internalType": "address",
          "name": "trader",
          "type": "address"
        },
        {
          "indexed": true,
          "internalType": "address",
          "name": "liquidator",
          "type": "address"
        },
        {
          "indexed": false,
          "internalType": "enum Perpetual.Side",
          "name": "side",
          "type": "uint8"
        },
        {
          "indexed": false,
          "internalType": "uint256",
          "name": "tokenAmount",
          "type": "uint256"
        },
        {
          "indexed": false,
          "internalType": "uint256",
          "name": "payBackToTrader",
          "type": "uint256"
        },
        {
          "indexed": false,
          "internalType": "uint256",
          "name": "payToLiquidator",
          "type": "uint256"
        }
      ],
      "name": "PositionLiquidated",
      "type": "event"
    },
    {
      "anonymous": false,
      "inputs": [
        {
          "indexed": true,
          "internalType": "address",
          "name": "sender",
          "type": "address"
        },
        {
          "indexed": false,
          "internalType": "uint256",
          "name": "collateralAmount",
          "type": "uint256"
        },
        {
          "indexed": false,
          "internalType": "uint256",
          "name": "numTokens",
          "type": "uint256"
        }
      ],
      "name": "RemoveLiquidity",
      "type": "event"
    },
    {
      "inputs": [
        {
          "internalType": "address",
          "name": "_address",
          "type": "address"
        }
      ],
      "name": "addAddress",
      "outputs": [],
      "stateMutability": "nonpayable",
      "type": "function"
    },
    {
      "inputs": [],
      "name": "collateralCurrency",
      "outputs": [
        {
          "internalType": "contract IERC20",
          "name": "",
          "type": "address"
        }
      ],
      "stateMutability": "view",
      "type": "function",
      "constant": true
    },
    {
      "inputs": [],
      "name": "isOwner",
      "outputs": [
        {
          "internalType": "bool",
          "name": "",
          "type": "bool"
        }
      ],
      "stateMutability": "view",
      "type": "function",
      "constant": true
    },
    {
      "inputs": [
        {
          "internalType": "address",
          "name": "_address",
          "type": "address"
        }
      ],
      "name": "isWhitelisted",
      "outputs": [
        {
          "internalType": "bool",
          "name": "",
          "type": "bool"
        }
      ],
      "stateMutability": "view",
      "type": "function",
      "constant": true
    },
    {
      "inputs": [
        {
          "internalType": "address",
          "name": "",
          "type": "address"
        }
      ],
      "name": "liquidityProviders",
      "outputs": [
        {
          "internalType": "uint256",
          "name": "rawCollateral",
          "type": "uint256"
        },
        {
          "internalType": "uint256",
          "name": "totalMinted",
          "type": "uint256"
        }
      ],
      "stateMutability": "view",
      "type": "function",
      "constant": true
    },
    {
      "inputs": [],
      "name": "owner",
      "outputs": [
        {
          "internalType": "address",
          "name": "",
          "type": "address"
        }
      ],
      "stateMutability": "view",
      "type": "function",
      "constant": true
    },
    {
      "inputs": [],
      "name": "pmm",
      "outputs": [
        {
          "internalType": "contract IPmm",
          "name": "",
          "type": "address"
        }
      ],
      "stateMutability": "view",
      "type": "function",
      "constant": true
    },
    {
      "inputs": [
        {
          "internalType": "address",
          "name": "",
          "type": "address"
        }
      ],
      "name": "positions",
      "outputs": [
        {
          "internalType": "uint256",
          "name": "rawCollateral",
          "type": "uint256"
        },
        {
          "internalType": "uint256",
          "name": "leveragedAmount",
          "type": "uint256"
        },
        {
          "internalType": "uint256",
          "name": "positionSize",
          "type": "uint256"
        },
        {
          "internalType": "enum Perpetual.Side",
          "name": "side",
          "type": "uint8"
        },
        {
          "internalType": "enum Perpetual.Leverage",
          "name": "leverage",
          "type": "uint8"
        },
        {
          "internalType": "uint256",
          "name": "entryValue",
          "type": "uint256"
        },
        {
          "internalType": "uint256",
          "name": "entryTimestamp",
          "type": "uint256"
        },
        {
          "internalType": "bool",
          "name": "locked",
          "type": "bool"
        }
      ],
      "stateMutability": "view",
      "type": "function",
      "constant": true
    },
    {
      "inputs": [],
      "name": "priceFeeder",
      "outputs": [
        {
          "internalType": "contract IPriceFeeder",
          "name": "",
          "type": "address"
        }
      ],
      "stateMutability": "view",
      "type": "function",
      "constant": true
    },
    {
      "inputs": [],
      "name": "rawTotalPositionCollateral",
      "outputs": [
        {
          "internalType": "uint256",
          "name": "",
          "type": "uint256"
        }
      ],
      "stateMutability": "view",
      "type": "function",
      "constant": true
    },
    {
      "inputs": [
        {
          "internalType": "address",
          "name": "_address",
          "type": "address"
        }
      ],
      "name": "removeAddress",
      "outputs": [],
      "stateMutability": "nonpayable",
      "type": "function"
    },
    {
      "inputs": [],
      "name": "renounceOwnership",
      "outputs": [],
      "stateMutability": "nonpayable",
      "type": "function"
    },
    {
      "inputs": [],
      "name": "tokenCurrency",
      "outputs": [
        {
          "internalType": "contract IExpandedIERC20",
          "name": "",
          "type": "address"
        }
      ],
      "stateMutability": "view",
      "type": "function",
      "constant": true
    },
    {
      "inputs": [],
      "name": "totalLiquidity",
      "outputs": [
        {
          "internalType": "uint256",
          "name": "base",
          "type": "uint256"
        },
        {
          "internalType": "uint256",
          "name": "availableBase",
          "type": "uint256"
        },
        {
          "internalType": "uint256",
          "name": "quote",
          "type": "uint256"
        },
        {
          "internalType": "uint256",
          "name": "availableQuote",
          "type": "uint256"
        }
      ],
      "stateMutability": "view",
      "type": "function",
      "constant": true
    },
    {
      "inputs": [
        {
          "internalType": "address",
          "name": "newOwner",
          "type": "address"
        }
      ],
      "name": "transferOwnership",
      "outputs": [],
      "stateMutability": "nonpayable",
      "type": "function"
    },
    {
      "inputs": [
        {
          "internalType": "address",
          "name": "pmmAddress",
          "type": "address"
        }
      ],
      "name": "setupPmm",
      "outputs": [],
      "stateMutability": "nonpayable",
      "type": "function"
    },
    {
      "inputs": [],
      "name": "getTokenCurrency",
      "outputs": [
        {
          "internalType": "address",
          "name": "",
          "type": "address"
        }
      ],
      "stateMutability": "view",
      "type": "function",
      "constant": true
    },
    {
      "inputs": [],
      "name": "myPnl",
      "outputs": [
        {
          "internalType": "int256",
          "name": "pnl",
          "type": "int256"
        }
      ],
      "stateMutability": "view",
      "type": "function",
      "constant": true
    },
    {
      "inputs": [],
      "name": "myCollateralizationRatio",
      "outputs": [
        {
          "internalType": "uint256",
          "name": "ratio",
          "type": "uint256"
        }
      ],
      "stateMutability": "view",
      "type": "function",
      "constant": true
    },
    {
      "inputs": [],
      "name": "myCollateralizationStatus",
      "outputs": [
        {
          "internalType": "enum Perpetual.CollateralizationStatus",
          "name": "status",
          "type": "uint8"
        }
      ],
      "stateMutability": "view",
      "type": "function",
      "constant": true
    },
    {
      "inputs": [],
      "name": "getMidPrice",
      "outputs": [
        {
          "internalType": "uint256",
          "name": "",
          "type": "uint256"
        }
      ],
      "stateMutability": "view",
      "type": "function",
      "constant": true
    },
    {
      "inputs": [
        {
          "internalType": "uint256",
          "name": "positionSize",
          "type": "uint256"
        },
        {
          "internalType": "uint256",
          "name": "maxCollateralAmount",
          "type": "uint256"
        },
        {
          "internalType": "enum Perpetual.Leverage",
          "name": "leverage",
          "type": "uint8"
        }
      ],
      "name": "openLongPosition",
      "outputs": [],
      "stateMutability": "nonpayable",
      "type": "function"
    },
    {
      "inputs": [
        {
          "internalType": "uint256",
          "name": "positionSize",
          "type": "uint256"
        },
        {
          "internalType": "uint256",
          "name": "maxCollateralAmount",
          "type": "uint256"
        },
        {
          "internalType": "enum Perpetual.Leverage",
          "name": "leverage",
          "type": "uint8"
        }
      ],
      "name": "openShortPosition",
      "outputs": [],
      "stateMutability": "nonpayable",
      "type": "function"
    },
    {
      "inputs": [],
      "name": "closePosition",
      "outputs": [],
      "stateMutability": "nonpayable",
      "type": "function"
    },
    {
      "inputs": [
        {
          "internalType": "address",
          "name": "trader",
          "type": "address"
        }
      ],
      "name": "liquidate",
      "outputs": [],
      "stateMutability": "nonpayable",
      "type": "function"
    },
    {
      "inputs": [
        {
          "internalType": "uint256",
          "name": "collateralAmount",
          "type": "uint256"
        }
      ],
      "name": "addLiquidity",
      "outputs": [],
      "stateMutability": "nonpayable",
      "type": "function"
    },
    {
      "inputs": [
        {
          "internalType": "uint256",
          "name": "percentage",
          "type": "uint256"
        }
      ],
      "name": "removeLiquidity",
      "outputs": [],
      "stateMutability": "nonpayable",
      "type": "function"
    }
  ],
  "bytecode": "0x60806040523480156200001157600080fd5b5060405162003a1a38038062003a1a833981016040819052620000349162000405565b6000805460ff19166001178155620000546001600160e01b036200026916565b60008054610100600160a81b0319166101006001600160a01b038416908102919091178255604051929350917f8be0079c531659141344cd1fd0a4f28419497f9722a3daafe3b4186f6b6457e0908290a350620000b96001600160e01b036200026d16565b620000cc6001600160e01b036200029416565b6001600160a01b038216620000fe5760405162461bcd60e51b8152600401620000f59062000550565b60405180910390fd5b6001600160a01b038316620001275760405162461bcd60e51b8152600401620000f59062000519565b6001600160a01b038116620001505760405162461bcd60e51b8152600401620000f590620005bc565b60405163e8a0aed360e01b815283906001600160a01b0382169063e8a0aed390620001859089908990601290600401620004dc565b602060405180830381600087803b158015620001a057600080fd5b505af1158015620001b5573d6000803e3d6000fd5b505050506040513d601f19601f82011682018060405250810190620001db9190620003df565b600580546001600160a01b03199081166001600160a01b0393841617909155600280548216868416179055600480549091169184169190911790556200022133620002a0565b6040517fd8b52e29a912ec27de0834ca0a1b4283cc003f1707d8d485e55333c6c4a217de90600090a1506200025e6001600160e01b036200032416565b505050505062000671565b3390565b60005460ff16620002925760405162461bcd60e51b8152600401620000f590620005f1565b565b6000805460ff19169055565b620002b36001600160e01b036200033316565b620002d25760405162461bcd60e51b8152600401620000f59062000587565b6001600160a01b03811660009081526001602052604090205460ff1615620002fa5762000321565b6001600160a01b0381166000908152600160208190526040909120805460ff191690911790555b50565b6000805460ff19166001179055565b6000805461010090046001600160a01b03166200034f62000269565b6001600160a01b031614905090565b600082601f8301126200036f578081fd5b81516001600160401b038082111562000386578283fd5b604051601f8301601f191681016020018281118282101715620003a7578485fd5b604052828152925082848301602001861015620003c357600080fd5b620003d683602083016020880162000628565b50505092915050565b600060208284031215620003f1578081fd5b8151620003fe816200065b565b9392505050565b600080600080600060a086880312156200041d578081fd5b85516001600160401b038082111562000434578283fd5b6200044289838a016200035e565b9650602088015191508082111562000458578283fd5b5062000467888289016200035e565b94505060408601516200047a816200065b565b60608701519093506200048d816200065b565b6080870151909250620004a0816200065b565b809150509295509295909350565b60008151808452620004c881602086016020860162000628565b601f01601f19169290920160200192915050565b600060608252620004f16060830186620004ae565b8281036020840152620005058186620004ae565b91505060ff83166040830152949350505050565b6020808252601c908201527f496e76616c696420546f6b656e466163746f7279206164647265737300000000604082015260600190565b6020808252601b908201527f496e76616c696420507269636546656564657220616464726573730000000000604082015260600190565b6020808252818101527f4f776e61626c653a2063616c6c6572206973206e6f7420746865206f776e6572604082015260600190565b6020808252818101527f496e76616c696420436f6c6c65746572616c20746f6b656e2061646472657373604082015260600190565b6020808252601f908201527f5265656e7472616e637947756172643a207265656e7472616e742063616c6c00604082015260600190565b60005b83811015620006455781810151838201526020016200062b565b8381111562000655576000848401525b50505050565b6001600160a01b03811681146200032157600080fd5b61339980620006816000396000f3fe608060405234801561001057600080fd5b50600436106101a95760003560e01c8063715018a6116100f9578063b1078a1611610097578063dce8622511610071578063dce8622514610345578063ee27c68914610358578063f2fde38b14610360578063fedb9da514610373576101a9565b8063b1078a1614610309578063c393d0e31461031c578063dbd9426714610324576101a9565b80638c382eb2116100d35780638c382eb2146102de5780638da5cb5b146102e65780638f32d59b146102ee5780639c8f9f23146102f6576101a9565b8063715018a6146102bb5780637c9ab345146102c35780638787914d146102d6576101a9565b80633af32abf116101665780634ba79dfe116101405780634ba79dfe1461026657806351c6590a1461027957806355f575101461028c5780637048594b146102b3576101a9565b80633af32abf1461022957806348051735146102495780634a0cd8791461025e576101a9565b80630de15fd9146101ae57806315770f92146101cc5780631fada485146101e45780632497f02b146101ec5780632f8655681461020157806338eada1c14610216575b600080fd5b6101b661037b565b6040516101c39190612c23565b60405180910390f35b6101d461038a565b6040516101c39493929190613329565b6101b6610399565b6101f46103a8565b6040516101c39190612c7f565b61021461020f366004612b52565b6103c6565b005b610214610224366004612b52565b610a18565b61023c610237366004612b52565b610a89565b6040516101c39190612c74565b610251610aab565b6040516101c39190612ce9565b610251610ac3565b610214610274366004612b52565b610adb565b610214610287366004612baa565b610b45565b61029f61029a366004612b52565b610eba565b6040516101c39897969594939291906132d6565b6101b6610f02565b610214610f11565b6102146102d1366004612b52565b610f84565b6101b66114da565b6102516114e9565b6101b66114ef565b61023c611503565b610214610304366004612baa565b61152c565b610214610317366004612bda565b6117c5565b610214611b0c565b610337610332366004612b52565b6120a3565b6040516101c392919061328e565b610214610353366004612bda565b6120bc565b610251612356565b61021461036e366004612b52565b61240c565b6101b6612439565b6004546001600160a01b031681565b600954600a54600b54600c5484565b6002546001600160a01b031681565b3360009081526007602052604081206103c081612448565b91505090565b6103ce612494565b6103d66124b6565b6003546001600160a01b03166104075760405162461bcd60e51b81526004016103fe90612e20565b60405180910390fd5b6001600160a01b0381166000908152600760205260409020600681015460ff1615156001146104485760405162461bcd60e51b81526004016103fe90612d8c565b600261045382612448565b600281111561045e57fe5b1461047b5760405162461bcd60e51b81526004016103fe90612eaa565b6000610486826124c2565b905060008082156105dd5783546000906104a6908563ffffffff61253016565b90506104c081670214e8348c4f000063ffffffff61253016565b92506104d2818463ffffffff61256916565b6004805460405163a9059cbb60e01b81529294506001600160a01b03169163a9059cbb91610504918a91879101612c5b565b602060405180830381600087803b15801561051e57600080fd5b505af1158015610532573d6000803e3d6000fd5b505050506040513d601f19601f820116820180604052508101906105569190612b6e565b506004805460405163a9059cbb60e01b81526001600160a01b039091169163a9059cbb91610588913391889101612c5b565b602060405180830381600087803b1580156105a257600080fd5b505af11580156105b6573d6000803e3d6000fd5b505050506040513d601f19601f820116820180604052508101906105da9190612b6e565b50505b6002600385015460ff1660028111156105f257fe5b141561077e5760035460028501546040516351400f0b60e11b81526000926001600160a01b03169163a2801e169161062d9190600401612ce9565b60206040518083038186803b15801561064557600080fd5b505afa158015610659573d6000803e3d6000fd5b505050506040513d601f19601f8201168201806040525081019061067d9190612bc2565b600354600287015460405163952d7c5760e01b81529293506001600160a01b039091169163952d7c57916106b591859060040161328e565b602060405180830381600087803b1580156106cf57600080fd5b505af11580156106e3573d6000803e3d6000fd5b505050506040513d601f19601f820116820180604052508101906107079190612bc2565b50600c5461071b908263ffffffff61259616565b600c556002850154600a5410156107445760405162461bcd60e51b81526004016103fe90612cf2565b6002850154600a5461075b9163ffffffff61256916565b600a5560028501546009546107759163ffffffff61256916565b60095550610996565b6003546040805163ee27c68960e01b815290516000926001600160a01b03169163ee27c689916004808301926020929190829003018186803b1580156107c357600080fd5b505afa1580156107d7573d6000803e3d6000fd5b505050506040513d601f19601f820116820180604052508101906107fb9190612bc2565b905060006108168287600101546125c290919063ffffffff16565b6003546040516306302ef960e21b81529192506000916001600160a01b03909116906318c0bbe49061084c908590600401612ce9565b60206040518083038186803b15801561086457600080fd5b505afa158015610878573d6000803e3d6000fd5b505050506040513d601f19601f8201168201806040525081019061089c9190612bc2565b60035460405163a51843ef60e01b81529192506001600160a01b03169063a51843ef906108cf908590859060040161328e565b602060405180830381600087803b1580156108e957600080fd5b505af11580156108fd573d6000803e3d6000fd5b505050506040513d601f19601f820116820180604052508101906109219190612bc2565b50600a54610935908363ffffffff61259616565b600a556001870154600c54101561095e5760405162461bcd60e51b81526004016103fe90612cf2565b6001870154600c546109759163ffffffff61256916565b600c556001870154600b5461098f9163ffffffff61256916565b600b555050505b83546008546109aa9163ffffffff61256916565b6008556003840154845460405133926001600160a01b038916927f2cf3b2221e026e8ce0f7b15d38ef089795a4f3b777981c30fd213c5c8795cf48926109f89260ff16919087908990612c92565b60405180910390a3610a09856125e2565b50505050610a1561265a565b50565b610a20611503565b610a3c5760405162461bcd60e51b81526004016103fe90612fbf565b6001600160a01b03811660009081526001602052604090205460ff1615610a6257610a15565b6001600160a01b03166000908152600160208190526040909120805460ff19169091179055565b6001600160a01b03811660009081526001602052604090205460ff165b919050565b3360009081526007602052604081206103c081612669565b3360009081526007602052604081206103c0816124c2565b610ae3611503565b610aff5760405162461bcd60e51b81526004016103fe90612fbf565b6001600160a01b03811660009081526001602052604090205460ff16610b2457610a15565b6001600160a01b03166000908152600160205260409020805460ff19169055565b610b4d612494565b610b556124b6565b6003546001600160a01b0316610b7d5760405162461bcd60e51b81526004016103fe90612e20565b60008111610b9d5760405162461bcd60e51b81526004016103fe90612eef565b3360009081526006602052604090206001810154610be15760405133907ff98b03bee24ef83f55d09e9ad063a39b9ea1ddc5ccb9f14e71293770dad7a42490600090a25b6003546040805163ee27c68960e01b815290516000926001600160a01b03169163ee27c689916004808301926020929190829003018186803b158015610c2657600080fd5b505afa158015610c3a573d6000803e3d6000fd5b505050506040513d601f19601f82011682018060405250810190610c5e9190612bc2565b90506000610c72848363ffffffff6125c216565b6001840154909150610c8a908263ffffffff61259616565b60018401558254610ca1908563ffffffff61259616565b8355600b54610cb6908563ffffffff61259616565b600b55600c54610ccc908563ffffffff61259616565b600c556005546040516340c10f1960e01b81526001600160a01b03909116906340c10f1990610d019030908590600401612c5b565b602060405180830381600087803b158015610d1b57600080fd5b505af1158015610d2f573d6000803e3d6000fd5b505050506040513d601f19601f82011682018060405250810190610d539190612b6e565b610d6f5760405162461bcd60e51b81526004016103fe90613029565b6003546040516313df6c7760e11b81526001600160a01b03909116906327bed8ee90610d9f908490600401612ce9565b602060405180830381600087803b158015610db957600080fd5b505af1158015610dcd573d6000803e3d6000fd5b505050506040513d601f19601f82011682018060405250810190610df19190612bc2565b50336001600160a01b03167f06239653922ac7bea6aa2b19dc486b9361821d37712eb796adfd38d81de278ca8583604051610e2d92919061328e565b60405180910390a2600480546040516323b872dd60e01b81526001600160a01b03909116916323b872dd91610e6891339130918a9101612c37565b602060405180830381600087803b158015610e8257600080fd5b505af1158015610e96573d6000803e3d6000fd5b505050506040513d601f19601f82011682018060405250810190610a099190612b6e565b600760205260009081526040902080546001820154600283015460038401546004850154600586015460069096015494959394929360ff808416946101009094048116931688565b6005546001600160a01b031681565b610f19611503565b610f355760405162461bcd60e51b81526004016103fe90612fbf565b600080546040516101009091046001600160a01b0316907f8be0079c531659141344cd1fd0a4f28419497f9722a3daafe3b4186f6b6457e0908390a360008054610100600160a81b0319169055565b6000610f8e61278d565b9050610f9981610a89565b610fb55760405162461bcd60e51b81526004016103fe90612fbf565b600380546001600160a01b0319166001600160a01b0384811691909117918290556040805163c55dae6360e01b81529051929091169163c55dae6391600480820192602092909190829003018186803b15801561101157600080fd5b505afa158015611025573d6000803e3d6000fd5b505050506040513d601f19601f820116820180604052508101906110499190612b8e565b6005546001600160a01b039081169116146110765760405162461bcd60e51b81526004016103fe90612dc3565b600360009054906101000a90046001600160a01b03166001600160a01b031663217a4b706040518163ffffffff1660e01b815260040160206040518083038186803b1580156110c457600080fd5b505afa1580156110d8573d6000803e3d6000fd5b505050506040513d601f19601f820116820180604052508101906110fc9190612b8e565b6004546001600160a01b039081169116146111295760405162461bcd60e51b81526004016103fe90613060565b60055460405163095ea7b360e01b81526001600160a01b039091169063095ea7b39061115d90859060001990600401612c5b565b602060405180830381600087803b15801561117757600080fd5b505af115801561118b573d6000803e3d6000fd5b505050506040513d601f19601f820116820180604052508101906111af9190612b6e565b506004805460405163095ea7b360e01b81526001600160a01b039091169163095ea7b3916111e39186916000199101612c5b565b602060405180830381600087803b1580156111fd57600080fd5b505af1158015611211573d6000803e3d6000fd5b505050506040513d601f19601f820116820180604052508101906112359190612b6e565b506005546040516340c10f1960e01b81526001600160a01b03909116906340c10f1990611270903090670de0b6b3a764000090600401612c5b565b602060405180830381600087803b15801561128a57600080fd5b505af115801561129e573d6000803e3d6000fd5b505050506040513d601f19601f820116820180604052508101906112c29190612b6e565b506003546040516313df6c7760e11b81526001600160a01b03909116906327bed8ee906112fb90670de0b6b3a764000090600401612ce9565b602060405180830381600087803b15801561131557600080fd5b505af1158015611329573d6000803e3d6000fd5b505050506040513d601f19601f8201168201806040525081019061134d9190612bc2565b506003546040805163ee27c68960e01b815290516000926001600160a01b03169163ee27c689916004808301926020929190829003018186803b15801561139357600080fd5b505afa1580156113a7573d6000803e3d6000fd5b505050506040513d601f19601f820116820180604052508101906113cb9190612bc2565b600480546040516323b872dd60e01b81529293506001600160a01b0316916323b872dd916113ff9133913091879101612c37565b602060405180830381600087803b15801561141957600080fd5b505af115801561142d573d6000803e3d6000fd5b505050506040513d601f19601f820116820180604052508101906114519190612b6e565b5060035460405163f3ae6c5f60e01b81526001600160a01b039091169063f3ae6c5f90611482908490600401612ce9565b602060405180830381600087803b15801561149c57600080fd5b505af11580156114b0573d6000803e3d6000fd5b505050506040513d601f19601f820116820180604052508101906114d49190612bc2565b50505050565b6003546001600160a01b031681565b60085481565b60005461010090046001600160a01b031690565b6000805461010090046001600160a01b031661151d61278d565b6001600160a01b031614905090565b611534612494565b61153c6124b6565b6003546001600160a01b03166115645760405162461bcd60e51b81526004016103fe90612e20565b670de0b6b3a764000081111561158c5760405162461bcd60e51b81526004016103fe90613106565b600081116115ac5760405162461bcd60e51b81526004016103fe90612d66565b33600090815260066020526040812080549091906115d0908463ffffffff61253016565b905060006115eb84846001015461253090919063ffffffff16565b90508160096003015410156116125760405162461bcd60e51b81526004016103fe906130c5565b6001830154611627908263ffffffff61256916565b6001840155825461163e908363ffffffff61256916565b8355600b54611653908363ffffffff61256916565b600b55600c54611669908363ffffffff61256916565b600c5560035460405163f98bea1560e01b81526001600160a01b039091169063f98bea159061169c908490600401612ce9565b602060405180830381600087803b1580156116b657600080fd5b505af11580156116ca573d6000803e3d6000fd5b505050506040513d601f19601f820116820180604052508101906116ee9190612bc2565b50600554604051630852cd8d60e31b81526001600160a01b03909116906342966c689061171f908490600401612ce9565b600060405180830381600087803b15801561173957600080fd5b505af115801561174d573d6000803e3d6000fd5b50505050336001600160a01b03167f0fbf06c058b90cb038a618f8c2acbf6145f8b3570fd1fa56abb8f0f3f05b36e8838360405161178c92919061328e565b60405180910390a26004805460405163a9059cbb60e01b81526001600160a01b039091169163a9059cbb91610e68913391879101612c5b565b6117cd612494565b6117d56124b6565b6003546001600160a01b03166117fd5760405162461bcd60e51b81526004016103fe90612e20565b336000908152600760205260409020836118295760405162461bcd60e51b81526004016103fe90612eef565b600681015460ff161561184e5760405162461bcd60e51b81526004016103fe90612e47565b600061186961185c84612791565b869063ffffffff6127ef16565b6003546040516351400f0b60e11b81529192506000916001600160a01b039091169063a2801e169061189f908590600401612ce9565b60206040518083038186803b1580156118b757600080fd5b505afa1580156118cb573d6000803e3d6000fd5b505050506040513d601f19601f820116820180604052508101906118ef9190612bc2565b90506000611903828463ffffffff6125c216565b90506000611917888363ffffffff61253016565b9050808710156119395760405162461bcd60e51b81526004016103fe90613248565b600a54841061195a5760405162461bcd60e51b81526004016103fe90613097565b60035460405163952d7c5760e01b81526001600160a01b039091169063952d7c579061198c908790879060040161328e565b602060405180830381600087803b1580156119a657600080fd5b505af11580156119ba573d6000803e3d6000fd5b505050506040513d601f19601f820116820180604052508101906119de9190612bc2565b506119ef8582858760018b88612829565b600a54611a02908563ffffffff61256916565b600a55600c54611a18908463ffffffff61259616565b600c55600b54611a2e908463ffffffff61259616565b600b5560405133907fac6e88aafce8c148fbb713a998bde021d9adbc8930759b48ae1e9c94bd27bc9d90611a6c90849087906001908c90899061329c565b60405180910390a2600480546040516323b872dd60e01b81526001600160a01b03909116916323b872dd91611aa79133913091879101612c37565b602060405180830381600087803b158015611ac157600080fd5b505af1158015611ad5573d6000803e3d6000fd5b505050506040513d601f19601f82011682018060405250810190611af99190612b6e565b505050505050611b0761265a565b505050565b611b14612494565b611b1c6124b6565b6003546001600160a01b0316611b445760405162461bcd60e51b81526004016103fe90612e20565b336000908152600760205260409020600681015460ff161515600114611b7c5760405162461bcd60e51b81526004016103fe90612d8c565b6002611b8782612448565b6002811115611b9257fe5b1415611bb05760405162461bcd60e51b81526004016103fe90612e73565b6000611bd5611bbe83612669565b8354611bc9906128f4565b9063ffffffff61292116565b905060006002600384015460ff166002811115611bee57fe5b1415611d7a5760035460028401546040516351400f0b60e11b81526000926001600160a01b03169163a2801e1691611c299190600401612ce9565b60206040518083038186803b158015611c4157600080fd5b505afa158015611c55573d6000803e3d6000fd5b505050506040513d601f19601f82011682018060405250810190611c799190612bc2565b600354600286015460405163952d7c5760e01b81529293506001600160a01b039091169163952d7c5791611cb191859060040161328e565b602060405180830381600087803b158015611ccb57600080fd5b505af1158015611cdf573d6000803e3d6000fd5b505050506040513d601f19601f82011682018060405250810190611d039190612bc2565b50600c54611d17908263ffffffff61259616565b600c556002840154600a541015611d405760405162461bcd60e51b81526004016103fe90612cf2565b6002840154600a54611d579163ffffffff61256916565b600a556002840154600954611d719163ffffffff61256916565b60095550611f92565b6003546040805163ee27c68960e01b815290516000926001600160a01b03169163ee27c689916004808301926020929190829003018186803b158015611dbf57600080fd5b505afa158015611dd3573d6000803e3d6000fd5b505050506040513d601f19601f82011682018060405250810190611df79190612bc2565b90506000611e128286600101546125c290919063ffffffff16565b6003546040516306302ef960e21b81529192506000916001600160a01b03909116906318c0bbe490611e48908590600401612ce9565b60206040518083038186803b158015611e6057600080fd5b505afa158015611e74573d6000803e3d6000fd5b505050506040513d601f19601f82011682018060405250810190611e989190612bc2565b60035460405163a51843ef60e01b81529192506001600160a01b03169063a51843ef90611ecb908590859060040161328e565b602060405180830381600087803b158015611ee557600080fd5b505af1158015611ef9573d6000803e3d6000fd5b505050506040513d601f19601f82011682018060405250810190611f1d9190612bc2565b50600a54611f31908363ffffffff61259616565b600a556001860154600c541015611f5a5760405162461bcd60e51b81526004016103fe90612cf2565b6001860154600c54611f719163ffffffff61256916565b600c556001860154600b54611f8b9163ffffffff61256916565b600b555050505b8254600854611fa69163ffffffff61256916565b600855600383015433907f0d8168b30bfff36f5f6d041eb8b19b55b964ad4c6b71a4f6cf0a25014f540dcf9060ff16611fde85612967565b8660020154876004015486604051611ffa959493929190612cbb565b60405180910390a261200b336125e2565b6004546001600160a01b031663a9059cbb3361202685612967565b6040518363ffffffff1660e01b8152600401612043929190612c5b565b602060405180830381600087803b15801561205d57600080fd5b505af1158015612071573d6000803e3d6000fd5b505050506040513d601f19601f820116820180604052508101906120959190612b6e565b505050506120a161265a565b565b6006602052600090815260409020805460019091015482565b6120c4612494565b6120cc6124b6565b6003546001600160a01b03166120f45760405162461bcd60e51b81526004016103fe90612e20565b336000908152600760205260409020836121205760405162461bcd60e51b81526004016103fe90612eef565b600681015460ff16156121455760405162461bcd60e51b81526004016103fe90612e47565b600061215361185c84612791565b6003546040516306302ef960e21b81529192506000916001600160a01b03909116906318c0bbe490612189908590600401612ce9565b60206040518083038186803b1580156121a157600080fd5b505afa1580156121b5573d6000803e3d6000fd5b505050506040513d601f19601f820116820180604052508101906121d99190612bc2565b905060006121ed828463ffffffff6125c216565b90506000612201888363ffffffff61253016565b9050808710156122235760405162461bcd60e51b81526004016103fe90613248565b600c5483106122445760405162461bcd60e51b81526004016103fe90613097565b60035460405163a51843ef60e01b81526001600160a01b039091169063a51843ef90612276908790879060040161328e565b602060405180830381600087803b15801561229057600080fd5b505af11580156122a4573d6000803e3d6000fd5b505050506040513d601f19601f820116820180604052508101906122c89190612bc2565b506122d98582858760028b88612829565b600c546122ec908463ffffffff61256916565b600c55600a54612302908563ffffffff61259616565b600a55600954612318908563ffffffff61259616565b60095560405133907fac6e88aafce8c148fbb713a998bde021d9adbc8930759b48ae1e9c94bd27bc9d90611a6c90849088906002908c90899061329c565b6003546000906001600160a01b03166123815760405162461bcd60e51b81526004016103fe90612e20565b600360009054906101000a90046001600160a01b03166001600160a01b031663ee27c6896040518163ffffffff1660e01b815260040160206040518083038186803b1580156123cf57600080fd5b505afa1580156123e3573d6000803e3d6000fd5b505050506040513d601f19601f820116820180604052508101906124079190612bc2565b905090565b612414611503565b6124305760405162461bcd60e51b81526004016103fe90612fbf565b610a1581612989565b6005546001600160a01b031690565b600080612454836124c2565b90506709b6e64a8ec60000811115612470576000915050610aa6565b67058d15e17628000081111561248a576001915050610aa6565b6002915050610aa6565b60005460ff166120a15760405162461bcd60e51b81526004016103fe906131b3565b6000805460ff19169055565b6000806124ce83612669565b905060006124e382611bc986600001546128f4565b13156125265761251e6125196124fc85600001546128f4565b61250d84611bc988600001546128f4565b9063ffffffff612a1516565b612967565b915050610aa6565b6000915050610aa6565b6000670de0b6b3a764000061255a61254885856127ef565b6002670de0b6b3a76400005b04612596565b8161256157fe5b049392505050565b60008282111561258b5760405162461bcd60e51b81526004016103fe90613218565b508082035b92915050565b6000828201838110156125bb5760405162461bcd60e51b81526004016103fe90612df3565b9392505050565b60008161255a6125da85670de0b6b3a76400006127ef565b600285612554565b6001600160a01b0381166000908152600760205260409020600681015460ff1615156001146126235760405162461bcd60e51b81526004016103fe90612ff4565b6000600182018190556002820181905560038201805461ffff19169055600482018190556005820155600601805460ff1916905550565b6000805460ff19166001179055565b60006002600383015460ff16600281111561268057fe5b14156127455761273e6126ac6126a78460040154856002015461253090919063ffffffff16565b6128f4565b60035460028501546040516351400f0b60e11b8152612732926001600160a01b03169163a2801e16916126e29190600401612ce9565b60206040518083038186803b1580156126fa57600080fd5b505afa15801561270e573d6000803e3d6000fd5b505050506040513d601f19601f820116820180604052508101906126a79190612bc2565b9063ffffffff612a5716565b9050610aa6565b60035460028301546040516306302ef960e21b815261273e92612780926001600160a01b03909116916318c0bbe4916126e291600401612ce9565b61273284600101546128f4565b3390565b600060038260038111156127a157fe5b14156127af57506004610aa6565b60028260038111156127bd57fe5b14156127cb57506003610aa6565b60018260038111156127d957fe5b14156127e757506002610aa6565b506001610aa6565b6000826127fe57506000612590565b8282028284828161280b57fe5b04146125bb5760405162461bcd60e51b81526004016103fe90612f26565b865461283b908763ffffffff61259616565b8755600854612850908763ffffffff61259616565b6008556001870154612868908663ffffffff61259616565b60018801556002870154612882908563ffffffff61259616565b8760020181905550828760030160006101000a81548160ff021916908360028111156128aa57fe5b0217905550818760030160016101000a81548160ff021916908360038111156128cf57fe5b021790555060048701555050426005850155505050600601805460ff19166001179055565b60006001600160ff1b0382111561291d5760405162461bcd60e51b81526004016103fe90613163565b5090565b60008282018183128015906129365750838112155b8061294b575060008312801561294b57508381125b6125bb5760405162461bcd60e51b81526004016103fe90612f94565b60008082121561291d5760405162461bcd60e51b81526004016103fe9061318d565b6001600160a01b0381166129af5760405162461bcd60e51b81526004016103fe90612d20565b600080546040516001600160a01b038085169361010090930416917f8be0079c531659141344cd1fd0a4f28419497f9722a3daafe3b4186f6b6457e091a3600080546001600160a01b0390921661010002610100600160a81b0319909216919091179055565b600080821215612a2c578160000391508260000392505b81612a48612a4285670de0b6b3a7640000612a9d565b84612b08565b81612a4f57fe5b059392505050565b6000818303818312801590612a6c5750838113155b80612a815750600083128015612a8157508381135b6125bb5760405162461bcd60e51b81526004016103fe906131ea565b600082612aac57506000612590565b82600019148015612ac05750600160ff1b82145b15612add5760405162461bcd60e51b81526004016103fe9061312c565b82820282848281612aea57fe5b05146125bb5760405162461bcd60e51b81526004016103fe9061312c565b6000808213612b295760405162461bcd60e51b81526004016103fe90612f5d565b60008312612b4557612b3e8360028405612921565b9050612590565b6125bb8360028405612a57565b600060208284031215612b63578081fd5b81356125bb8161334e565b600060208284031215612b7f578081fd5b815180151581146125bb578182fd5b600060208284031215612b9f578081fd5b81516125bb8161334e565b600060208284031215612bbb578081fd5b5035919050565b600060208284031215612bd3578081fd5b5051919050565b600080600060608486031215612bee578182fd5b8335925060208401359150604084013560048110612c0a578182fd5b809150509250925092565b60048110612c1f57fe5b9052565b6001600160a01b0391909116815260200190565b6001600160a01b039384168152919092166020820152604081019190915260600190565b6001600160a01b03929092168252602082015260400190565b901515815260200190565b60208101612c8c83613344565b91905290565b60808101612c9f86613344565b9481526020810193909352604083019190915260609091015290565b60a08101612cc887613344565b95815260208101949094526040840192909252606083015260809091015290565b90815260200190565b6020808252601490820152736e6f7420656e6f756768206c697175696469747960601b604082015260600190565b60208082526026908201527f4f776e61626c653a206e6577206f776e657220697320746865207a65726f206160408201526564647265737360d01b606082015260800190565b6020808252600c908201526b070657263656e746167653d360a41b604082015260600190565b6020808252601e908201527f4e6f20706f736974696f6e206f6e206120676976656e20616464726573730000604082015260600190565b60208082526016908201527524b73b30b634b2102826a6903130b9b2903a37b5b2b760511b604082015260600190565b602080825260139082015272556e6164646974696f6e206f766572666c6f7760681b604082015260600190565b6020808252600d908201526c1b9bc81c1b5b481a5cc81cd95d609a1b604082015260600190565b602080825260129082015271141bdcda5d1a5bdb881a5cc81b1bd8dad95960721b604082015260600190565b6020808252601f908201527f556e61626c6520746f20636c6f736520756e7361666520706f736974696f6e00604082015260600190565b60208082526025908201527f506f736974696f6e2061626f7665207468616e206c69717569646174696f6e20604082015264726174696f60d81b606082015260800190565b6020808252601d908201527f616d6f756e74206d7573742062652067726561746572207468616e2030000000604082015260600190565b60208082526019908201527f556e6d756c7469706c69636174696f6e206f766572666c6f7700000000000000604082015260600190565b6020808252601f908201527f726f756e6448616c665570206f6e6c7920737570706f7274732079203e203000604082015260600190565b6020808252601190820152706164646974696f6e206f766572666c6f7760781b604082015260600190565b6020808252818101527f4f776e61626c653a2063616c6c6572206973206e6f7420746865206f776e6572604082015260600190565b6020808252818101527f4e6f20706f736974696f6e206f6e2074686520676976656e2061646472657373604082015260600190565b6020808252601f908201527f4d696e74696e672073796e74686574696320746f6b656e73206661696c656400604082015260600190565b60208082526017908201527f496e76616c696420504d4d2071756f746520746f6b656e000000000000000000604082015260600190565b6020808252601490820152734e6f7420656e6f756768206c697175696469747960601b604082015260600190565b60208082526021908201527f496e73756666696369656e7420617661696c61626c6520636f6c6c61746572616040820152601b60fa1b606082015260800190565b6020808252600c908201526b70657263656e746167653e3160a01b604082015260600190565b60208082526018908201527f776d756c7469706c69636174696f6e206f766572666c6f770000000000000000604082015260600190565b60208082526010908201526f75696e74323536206f766572666c6f7760801b604082015260600190565b6020808252600c908201526b696e74206f766572666c6f7760a01b604082015260600190565b6020808252601f908201527f5265656e7472616e637947756172643a207265656e7472616e742063616c6c00604082015260600190565b6020808252601490820152737375627472616374696f6e206f766572666c6f7760601b604082015260600190565b602080825260169082015275556e7375627472616374696f6e206f766572666c6f7760501b604082015260600190565b60208082526026908201527f636f6c6c61746572616c416d6f756e74203e206d6178436f6c6c61746572616c604082015265105b5bdd5b9d60d21b606082015260800190565b918252602082015260400190565b8581526020810185905260a081016132b385613344565b8460408301526132c66060830185612c15565b8260808301529695505050505050565b888152602081018890526040810187905261010081016132f587613344565b8660608301526133086080830187612c15565b8460a08301528360c083015282151560e08301529998505050505050505050565b93845260208401929092526040830152606082015260800190565b60038110610a1557fe5b6001600160a01b0381168114610a1557600080fdfea26469706673582212205d7766d6b64a503854b4a077e98d82787131732cad54c3ea6d7da47ec5ee3eb564736f6c63430006090033",
  "immutableReferences": {},
  "source": "// SPDX-License-Identifier: MIT\n\npragma solidity 0.6.9;\npragma experimental ABIEncoderV2;\n\nimport \"./utility/Lockable.sol\";\nimport \"./utility/Whitelist.sol\";\nimport \"./utility/LibMath.sol\";\nimport \"./utility/SafeERC20.sol\";\nimport \"./interfaces/IExpandedIERC20.sol\";\nimport \"./interfaces/IPriceFeeder.sol\";\nimport \"./interfaces/IPmm.sol\";\nimport \"./TokenFactory.sol\";\n\n/**\n * @title Perpetual contract\n * @dev this is unaudited code, don't use it on Mainnet\n */\n\ncontract Perpetual is Lockable, Whitelist {\n    using LibMathSigned for int256;\n    using LibMathUnsigned for uint256;\n    using SafeERC20 for IERC20;\n\n    enum Leverage {ONE, TWO, THREE, FOUR}\n    enum Side {FLAT, SHORT, LONG} \n    enum CollateralizationStatus {SAFE, WARNING, DANGER}\n\n    struct LiquidityProvider {\n        // Raw collateral value\n        uint256 rawCollateral;\n        // Total tokens have been minted\n        uint256 totalMinted;\n    }\n\n    struct LiquidityData {\n        // synthetic\n        uint256 base;\n        uint256 availableBase;\n        // collateral\n        uint256 quote;\n        uint256 availableQuote;\n    }\n\n    struct PositionData {\n        uint256 rawCollateral;\n        uint256 leveragedAmount;\n        uint256 positionSize;\n        Side side;\n        Leverage leverage;\n        uint256 entryValue;\n        uint entryTimestamp;\n        bool locked;\n    }\n\n    // Price feeder contract.\n    IPriceFeeder public priceFeeder;\n    // PMM contract.\n    IPmm public pmm;\n    // The collateral currency used to back the positions in this contract.\n    IERC20 public collateralCurrency;\n    // Synthetic token created by this contract.\n    IExpandedIERC20 public tokenCurrency;\n    // Liquidity Provider Data\n    mapping (address => LiquidityProvider) public liquidityProviders;\n    // Maps sponsor addresses to their positions. Each sponsor can have only one position.\n    mapping(address => PositionData) public positions;\n    // Keep track of the raw collateral across all positions\n    uint256 public rawTotalPositionCollateral;\n    // Total liquidity\n    LiquidityData public totalLiquidity;\n    \n    uint256 constant MAX = 0xffffffffffffffffffffffffffffffffffffffffffffffffffffffffffffffff;\n    uint256 constant ONE = 1000000000000000000; // 1\n    // Trader need to top-up when position is below 70%\n    uint256 constant maintenanceRatio = 700000000000000000; // 0.7\n    // Anybody can liquidate when particular trader position belows 40%\n    uint256 constant liquidationRatio = 400000000000000000; // 0.4\n    // Take cut to liquidator 15%\n    uint256 constant liquidationIncentive = 150000000000000000; // 0.15\n\n    event CreatedPerpetual();\n    event AddLiquidity(address indexed sender, uint256 collateralAmount, uint256 numTokens);\n    event RemoveLiquidity(address indexed sender, uint256 collateralAmount, uint256 numTokens);\n    event NewLiquidityProvider(address indexed sponsor);\n    event PositionCreated(address indexed sender, uint256 collateralAmount, uint256 positionSize, Side side, Leverage leverage, uint256 price);\n    event PositionLiquidated(address indexed trader, address indexed liquidator, Side side, uint256 tokenAmount, uint256 payBackToTrader, uint256 payToLiquidator);\n    event PositionClosed(address indexed trader, Side side, uint256 collateralAmount, uint256 positionSize, uint256 entryPrice, uint256 exitPrice);\n\n    constructor(\n        string memory _name,\n        string memory _symbol,\n        address _tokenFactoryAddress,\n        address _priceFeederAddress,\n        address _collateralAddress\n    ) public nonReentrant() { \n        require(_priceFeederAddress != address(0), \"Invalid PriceFeeder address\");\n        require(_tokenFactoryAddress != address(0), \"Invalid TokenFactory address\");\n        require(_collateralAddress != address(0), \"Invalid Colleteral token address\");\n\n        // Setup synthetic token\n        TokenFactory tf = TokenFactory(_tokenFactoryAddress);\n        tokenCurrency = tf.createToken(_name, _symbol, 18);\n        \n        priceFeeder = IPriceFeeder(_priceFeederAddress);\n        collateralCurrency = IERC20(_collateralAddress);\n\n        addAddress(msg.sender);\n\n        emit CreatedPerpetual();\n    }\n\n    // Setup PMM contract address\n    function setupPmm(address pmmAddress) external onlyWhitelisted() {\n        pmm = IPmm(pmmAddress);\n        require( address(tokenCurrency) ==  address(pmm.baseToken()),\"Invalid PMM base token\");\n        require( address(collateralCurrency) == address(pmm.quoteToken()) ,\"Invalid PMM quote token\");\n        tokenCurrency.approve(pmmAddress , MAX);\n        collateralCurrency.approve(pmmAddress , MAX);\n        // Initial fund PMM with 1 SYNTH\n        tokenCurrency.mint(address(this), ONE);\n        pmm.depositBase(ONE);\n        uint256 initialRate = pmm.getMidPrice();\n        collateralCurrency.transferFrom(msg.sender, address(this), initialRate);\n        // Funding on colleteral side that equivalent to 1 SYNTH\n        pmm.depositQuote(initialRate);\n        // TODO: Find out the suitable amount when initialize the PMM\n    }\n\n    // Get synthetic token address\n    function getTokenCurrency() public view returns (address)\n    {\n        return address(tokenCurrency);\n    }\n\n    // Get my Profit/Loss\n    function myPnl() \n        public\n        view\n        returns (int256 pnl) \n    {\n        PositionData storage positionData = positions[msg.sender];\n        return _pnl(positionData);\n    }\n\n    // Get the current collateralization ratio from the sender\n    function myCollateralizationRatio()\n        public\n        view\n        returns (uint256 ratio)\n    {\n        PositionData storage positionData = positions[msg.sender];\n        return _getCollateralizationRatio(positionData);\n    }\n\n    // Get the current collateralization status from the sender\n    function myCollateralizationStatus()\n        public\n        view\n        returns (CollateralizationStatus status)\n    {\n        PositionData storage positionData = positions[msg.sender];\n        return _getCollateralizationStatus(positionData);\n    }\n\n    // get mid price\n    function getMidPrice()\n        public\n        view\n        pmmRequired()\n        returns (uint256)\n    {\n        return pmm.getMidPrice();\n    }\n\n    // trade functions\n    \n    // open long position\n    function openLongPosition(uint256 positionSize, uint256 maxCollateralAmount, Leverage leverage)\n        public\n        nonReentrant()\n        pmmRequired()\n    {\n        PositionData storage positionData = positions[msg.sender];\n\n        require(positionSize > 0, \"amount must be greater than 0\");\n        require(positionData.locked == false , \"Position is locked\");\n\n        uint256 leveragedSize = positionSize.mul(_resolveLeverage(leverage));\n\n        uint256 borrowingAmount = pmm.queryBuyBaseToken(leveragedSize);\n        uint256 currentPrice = borrowingAmount.wdiv(leveragedSize);\n        uint256 collateralAmount = positionSize.wmul(currentPrice);\n\n        require(maxCollateralAmount >= collateralAmount, \"collateralAmount > maxCollateralAmount\");\n        require(borrowingAmount < totalLiquidity.availableQuote, \"Not enough liquidity\");\n\n        pmm.buyBaseToken(leveragedSize, borrowingAmount);\n\n        // Increase the position and global collateral balance by collateral amount.\n        _incrementCollateralBalances(positionData, collateralAmount, borrowingAmount, leveragedSize, Side.LONG, leverage, currentPrice );\n\n        totalLiquidity.availableQuote = totalLiquidity.availableQuote.sub(borrowingAmount);\n        totalLiquidity.availableBase = totalLiquidity.availableBase.add(leveragedSize);\n        totalLiquidity.base = totalLiquidity.base.add(leveragedSize);\n\n        emit PositionCreated(msg.sender, collateralAmount, leveragedSize, Side.LONG, leverage, currentPrice);\n\n        collateralCurrency.transferFrom(msg.sender, address(this), collateralAmount);\n    }\n\n    // open short position\n    function openShortPosition(uint256 positionSize, uint256 maxCollateralAmount, Leverage leverage)\n        public\n        nonReentrant()\n        pmmRequired()\n    {\n        PositionData storage positionData = positions[msg.sender];\n\n        require(positionSize > 0, \"amount must be greater than 0\");\n        require(positionData.locked == false , \"Position is locked\");\n\n        uint256 leveragedSize = positionSize.mul(_resolveLeverage(leverage));\n\n        uint256 amount = pmm.querySellBaseToken(leveragedSize);\n        uint256 currentPrice = amount.wdiv(leveragedSize);\n        uint256 collateralAmount = positionSize.wmul(currentPrice);\n\n        require(maxCollateralAmount >= collateralAmount, \"collateralAmount > maxCollateralAmount\");\n        require(leveragedSize < totalLiquidity.availableBase, \"Not enough liquidity\");\n\n        pmm.sellBaseToken(leveragedSize, amount);\n        // Record it\n        _incrementCollateralBalances(positionData, collateralAmount, amount, leveragedSize, Side.SHORT, leverage, currentPrice );\n\n        totalLiquidity.availableBase = totalLiquidity.availableBase.sub(leveragedSize);\n        totalLiquidity.availableQuote = totalLiquidity.availableQuote.add(amount);\n        totalLiquidity.quote = totalLiquidity.quote.add(amount);\n\n        emit PositionCreated(msg.sender, collateralAmount, amount, Side.SHORT, leverage, currentPrice);\n\n        collateralCurrency.transferFrom(msg.sender, address(this), collateralAmount);\n    }\n\n    // close the position\n    function closePosition()\n        public\n        nonReentrant()\n        pmmRequired()\n    {\n        PositionData storage positionData = positions[msg.sender];\n\n        require( positionData.locked == true, \"No position on a given address\" );\n        require(\n            _getCollateralizationStatus(positionData) != CollateralizationStatus.DANGER,\n            \"Unable to close unsafe position\"\n        );\n\n        int256 remainingCollateral = (positionData.rawCollateral.toInt256()).add(_pnl(positionData));\n        uint256 exitPrice = 0;\n\n        if (positionData.side == Side.LONG) {\n            // Sell synthetic assets back to PMM\n            uint256 amount = pmm.querySellBaseToken(positionData.positionSize);\n            pmm.sellBaseToken(positionData.positionSize, amount); \n\n            totalLiquidity.availableQuote = totalLiquidity.availableQuote.add(amount);\n            require(totalLiquidity.availableBase >= positionData.positionSize, \"not enough liquidity\");\n            totalLiquidity.availableBase = totalLiquidity.availableBase.sub(positionData.positionSize);\n            totalLiquidity.base = totalLiquidity.base.sub(positionData.positionSize);\n        } else {\n            // Sell colleteral assets back to PMM\n            // FIXME: Find the better way to convert collateral -> synthetic\n            uint256 spotPrice = pmm.getMidPrice();\n            uint256 totalSynths = positionData.leveragedAmount.wdiv(spotPrice);\n            uint256 amount = pmm.queryBuyBaseToken(totalSynths);\n            pmm.buyBaseToken(totalSynths, amount);\n\n            totalLiquidity.availableBase = totalLiquidity.availableBase.add(totalSynths);\n            require(totalLiquidity.availableQuote >= positionData.leveragedAmount, \"not enough liquidity\");\n            totalLiquidity.availableQuote = totalLiquidity.availableQuote.sub(positionData.leveragedAmount);\n            totalLiquidity.quote = totalLiquidity.quote.sub(positionData.leveragedAmount);\n        }\n\n        rawTotalPositionCollateral = rawTotalPositionCollateral.sub(positionData.rawCollateral);\n\n        emit PositionClosed(msg.sender, positionData.side, remainingCollateral.toUint256(), positionData.positionSize, positionData.entryValue, exitPrice);\n\n        _deletePosition(msg.sender);\n\n        collateralCurrency.transfer(msg.sender, remainingCollateral.toUint256());\n    }\n\n    // liquidation\n    function liquidate(address trader) \n        external\n        nonReentrant()\n        pmmRequired()\n    {\n        // Retrieve Position data for trader who being liquidated\n        PositionData storage positionData = positions[trader];\n\n        require( positionData.locked == true, \"No position on a given address\" );\n        require(\n            _getCollateralizationStatus(positionData) == CollateralizationStatus.DANGER,\n            \"Position above than liquidation ratio\"\n        );\n\n        uint256 currentRatio = _getCollateralizationRatio(positionData);\n        uint256 penaltyFee = 0;\n        uint256 payToTrader = 0;\n\n        if (currentRatio != 0) {\n            // Pay Trader back - Penalty fee \n            uint256 remainingCollateral = (positionData.rawCollateral).wmul(currentRatio);\n            penaltyFee = remainingCollateral.wmul(liquidationIncentive);\n            payToTrader =  remainingCollateral.sub(penaltyFee);\n\n            collateralCurrency.transfer(trader, payToTrader);\n            // Incentivize the liquidator\n            collateralCurrency.transfer(msg.sender, penaltyFee);\n        }\n\n        if (positionData.side == Side.LONG) {\n            // Sell synthetic assets back to PMM\n            uint256 amount = pmm.querySellBaseToken(positionData.positionSize);\n            pmm.sellBaseToken(positionData.positionSize, amount); \n\n            totalLiquidity.availableQuote = totalLiquidity.availableQuote.add(amount);\n            require(totalLiquidity.availableBase >= positionData.positionSize, \"not enough liquidity\");\n            totalLiquidity.availableBase = totalLiquidity.availableBase.sub(positionData.positionSize);\n            totalLiquidity.base = totalLiquidity.base.sub(positionData.positionSize);\n\n        } else {\n            // Sell colleteral assets back to PMM\n            // FIXME: Find the better way to convert collateral -> synthetic\n            uint256 spotPrice = pmm.getMidPrice();\n            uint256 totalSynths = positionData.leveragedAmount.wdiv(spotPrice);\n            uint256 amount = pmm.queryBuyBaseToken(totalSynths);\n            pmm.buyBaseToken(totalSynths, amount);\n\n            totalLiquidity.availableBase = totalLiquidity.availableBase.add(totalSynths);\n            require(totalLiquidity.availableQuote >= positionData.leveragedAmount, \"not enough liquidity\");\n            totalLiquidity.availableQuote = totalLiquidity.availableQuote.sub(positionData.leveragedAmount);\n            totalLiquidity.quote = totalLiquidity.quote.sub(positionData.leveragedAmount);\n        }   \n\n        rawTotalPositionCollateral = rawTotalPositionCollateral.sub(positionData.rawCollateral);\n\n        emit PositionLiquidated(trader, msg.sender, positionData.side , positionData.rawCollateral , payToTrader, penaltyFee);\n\n        _deletePosition(trader);\n    }\n\n    // add liquidity\n    function addLiquidity(uint256 collateralAmount) \n        public\n        nonReentrant()\n        pmmRequired()\n    {\n        require(collateralAmount > 0, \"amount must be greater than 0\");\n\n        LiquidityProvider storage liquidityData = liquidityProviders[msg.sender];\n\n        if (liquidityData.totalMinted == 0) {\n            emit NewLiquidityProvider(msg.sender);\n        }\n        // Mint corresponding synthetic tokens and deposit to PMM\n        uint256 spotPrice = pmm.getMidPrice();\n        uint256 numTokens = collateralAmount.wdiv(spotPrice);\n        liquidityData.totalMinted = liquidityData.totalMinted.add(numTokens);\n        liquidityData.rawCollateral = liquidityData.rawCollateral.add(collateralAmount);\n\n        totalLiquidity.quote = totalLiquidity.quote.add(collateralAmount);\n        totalLiquidity.availableQuote = totalLiquidity.availableQuote.add(collateralAmount);\n\n        require(tokenCurrency.mint(address(this), numTokens), \"Minting synthetic tokens failed\");\n\n        pmm.depositBase(numTokens);\n\n        emit AddLiquidity(msg.sender, collateralAmount, numTokens);\n        // Transfer tokens into this contract\n        collateralCurrency.transferFrom(msg.sender, address(this), collateralAmount);\n    }\n\n    // remove liquidity (ex. 100% = 1e18)\n    function removeLiquidity(uint256 percentage) \n        public\n        nonReentrant()\n        pmmRequired()\n    {\n        require(percentage <= ONE, \"percentage>1\");\n        require(percentage > 0, \"percentage=0\");\n\n        LiquidityProvider storage liquidityData = liquidityProviders[msg.sender];\n\n        uint256 collateral = liquidityData.rawCollateral.wmul(percentage);\n        uint256 numTokens = liquidityData.totalMinted.wmul(percentage);\n\n        require( totalLiquidity.availableQuote >= collateral , \"Insufficient available collateral\" );\n\n        liquidityData.totalMinted = liquidityData.totalMinted.sub(numTokens);\n        liquidityData.rawCollateral = liquidityData.rawCollateral.sub(collateral);\n\n        totalLiquidity.quote = totalLiquidity.quote.sub(collateral);\n        totalLiquidity.availableQuote = totalLiquidity.availableQuote.sub(collateral);\n\n        // Withdraw synthetics from PMM and burn\n        pmm.withdrawBase(numTokens);\n        tokenCurrency.burn(numTokens);\n\n        emit RemoveLiquidity(msg.sender, collateral, numTokens);\n        collateralCurrency.transfer(msg.sender, collateral);\n    }\n\n\n    // INTERNAL FUNCTIONS\n\n    // Check if amm address is set.\n    modifier pmmRequired() {\n        require(address(pmm) != address(0), \"no pmm is set\");\n        _;\n    }\n\n    function _resolveLeverage(Leverage leverage) pure internal returns (uint256) {\n        if (leverage == Leverage.FOUR) {\n            return 4;\n        } else if (leverage == Leverage.THREE) {\n            return 3;\n        } else if (leverage == Leverage.TWO) {\n            return 2;\n        } else {\n            return 1;\n        }\n    }\n\n    function _incrementCollateralBalances(\n        PositionData storage positionData,\n        uint256 collateralAmount,\n        uint256 leveragedAmount,\n        uint256 size,\n        Side side,\n        Leverage leverage,\n        uint256 price\n    ) internal {\n        positionData.rawCollateral = positionData.rawCollateral.add(collateralAmount);\n        rawTotalPositionCollateral = rawTotalPositionCollateral.add(collateralAmount);\n\n        positionData.leveragedAmount = positionData.leveragedAmount.add(leveragedAmount);\n        positionData.positionSize = positionData.positionSize.add(size);\n        positionData.side = side;\n        positionData.leverage = leverage;\n        positionData.entryValue = price;\n        positionData.entryTimestamp = block.timestamp;\n        positionData.locked = true;\n\n    }\n\n    function _deletePosition(address trader) internal {\n        PositionData storage positionData = positions[trader];\n        require( positionData.locked == true , \"No position on the given address\" );\n\n        positionData.leveragedAmount = 0;\n        positionData.positionSize = 0;\n        positionData.side = Side.FLAT;\n        positionData.leverage = Leverage.ONE;\n        positionData.entryValue = 0;\n        positionData.entryTimestamp = 0;\n        positionData.locked = false;\n    }\n\n    function _getCollateralizationRatio(PositionData storage positionData) internal view returns (uint256) {\n        int256 pnl = _pnl(positionData);\n        // TODO: Might need to track debt\n        if (positionData.rawCollateral.toInt256().add(pnl) > 0) {\n            return ((positionData.rawCollateral.toInt256().add(pnl)).wdiv(positionData.rawCollateral.toInt256())).toUint256();\n        } else {\n            return 0;\n        }\n    }\n\n    function _getCollateralizationStatus(PositionData storage positionData) internal view returns (CollateralizationStatus) {\n        uint256 currentRatio = _getCollateralizationRatio(positionData);\n        if (currentRatio > maintenanceRatio) {\n            return CollateralizationStatus.SAFE;\n        } else if (currentRatio > liquidationRatio) {\n            return CollateralizationStatus.WARNING;\n        } else {\n            return CollateralizationStatus.DANGER;\n        }\n    }\n\n    function _pnl(PositionData storage positionData) internal view returns (int256) {\n        if (positionData.side == Side.LONG) {\n            return (pmm.querySellBaseToken(positionData.positionSize).toInt256()).sub( (positionData.positionSize.wmul(positionData.entryValue)).toInt256() );\n        } else {\n            return (positionData.leveragedAmount.toInt256()).sub( (pmm.queryBuyBaseToken(positionData.positionSize)).toInt256() );\n        }\n    }\n\n}\n",
  "sourcePath": "/home/pisuthd/Desktop/elliptix/tamago-finance/core/contracts/Perpetual.sol",
  "compiler": {
    "name": "solc",
    "version": "0.6.9+commit.3e3065ac.Emscripten.clang"
  },
  "schemaVersion": "3.2.0",
  "updatedAt": "2021-03-28T13:00:29.127Z",
  "networkType": "ethereum",
  "devdoc": {
    "details": "this is unaudited code, don't use it on Mainnet",
    "methods": {
      "addAddress(address)": {
        "details": "adds a given address to the whitelist ",
        "params": {
          "_address": "address to add"
        }
      },
      "isOwner()": {
        "details": "Returns true if the caller is the current owner."
      },
      "isWhitelisted(address)": {
        "details": "returns true if a given address is whitelisted, false if not ",
        "params": {
          "_address": "address to check "
        },
        "returns": {
          "_0": "true if the address is whitelisted, false if not"
        }
      },
      "owner()": {
        "details": "Returns the address of the current owner."
      },
      "removeAddress(address)": {
        "details": "removes a given address from the whitelist ",
        "params": {
          "_address": "address to remove"
        }
      },
      "renounceOwnership()": {
        "details": "Leaves the contract without owner. It will not be possible to call `onlyOwner` functions anymore. Can only be called by the current owner. NOTE: Renouncing ownership will leave the contract without an owner, thereby removing any functionality that is only available to the owner."
      },
      "transferOwnership(address)": {
        "details": "Transfers ownership of the contract to a new account (`newOwner`). Can only be called by the current owner."
      }
    },
    "title": "Perpetual contract"
  },
  "userdoc": {
    "methods": {}
  }
}