{
  "address": "0xa096B98e3ef77e9731CC34E42EAb10D81c3E1745",
  "abi": [
    {
      "inputs": [
        {
          "internalType": "string",
          "name": "_name",
          "type": "string"
        },
        {
          "internalType": "address",
          "name": "_chainlinkPriceFeedAddress",
          "type": "address"
        },
        {
          "internalType": "uint8",
          "name": "_decimals",
          "type": "uint8"
        }
      ],
      "stateMutability": "nonpayable",
      "type": "constructor"
    },
    {
      "inputs": [],
      "name": "decimals",
      "outputs": [
        {
          "internalType": "uint8",
          "name": "",
          "type": "uint8"
        }
      ],
      "stateMutability": "view",
      "type": "function"
    },
    {
      "inputs": [],
      "name": "getTimestamp",
      "outputs": [
        {
          "internalType": "uint256",
          "name": "",
          "type": "uint256"
        }
      ],
      "stateMutability": "view",
      "type": "function"
    },
    {
      "inputs": [],
      "name": "getValue",
      "outputs": [
        {
          "internalType": "uint256",
          "name": "",
          "type": "uint256"
        }
      ],
      "stateMutability": "view",
      "type": "function"
    },
    {
      "inputs": [],
      "name": "name",
      "outputs": [
        {
          "internalType": "string",
          "name": "",
          "type": "string"
        }
      ],
      "stateMutability": "view",
      "type": "function"
    }
  ],
  "transactionHash": "0xab6d358ee8a633a1b6da954c7367516f9476c4a8f77a97c0fefe4b07d3bfe0e4",
  "args": [
    "USDC/USD",
    "0xfE4A8cc5b5B2366C1B58Bea3858e81843581b2F7",
    8
  ],
  "solcInputHash": "257570a56a16115dc612c63e01d049a6",
  "bytecode": "0x608060405234801561001057600080fd5b5060405161060d38038061060d8339818101604052606081101561003357600080fd5b810190808051604051939291908464010000000082111561005357600080fd5b90830190602082018581111561006857600080fd5b825164010000000081118282018810171561008257600080fd5b82525081516020918201929091019080838360005b838110156100af578181015183820152602001610097565b50505050905090810190601f1680156100dc5780820380516001836020036101000a031916815260200191505b50604090815260208201519101519092509050600860ff8216148061010457508060ff166012145b610155576040805162461bcd60e51b815260206004820152601f60248201527f446563696d616c73206d757374206265206569746865722038206f7220313800604482015290519081900360640190fd5b82516101689060009060208601906101a9565b50600180546001600160a01b039093166001600160a01b031960ff909316600160a01b0260ff60a01b1990941693909317919091169190911790555061023c565b828054600181600116156101000203166002900490600052602060002090601f016020900481019282601f106101ea57805160ff1916838001178555610217565b82800160010185558215610217579182015b828111156102175782518255916020019190600101906101fc565b50610223929150610227565b5090565b5b808211156102235760008155600101610228565b6103c28061024b6000396000f3fe608060405234801561001057600080fd5b506004361061004c5760003560e01c806306fdde0314610051578063188ec356146100ce57806320965255146100e8578063313ce567146100f0575b600080fd5b61005961010e565b6040805160208082528351818301528351919283929083019185019080838360005b8381101561009357818101518382015260200161007b565b50505050905090810190601f1680156100c05780820380516001836020036101000a031916815260200191505b509250505060405180910390f35b6100d661019c565b60408051918252519081900360200190f35b6100d66101ab565b6100f86101bd565b6040805160ff9092168252519081900360200190f35b6000805460408051602060026001851615610100026000190190941693909304601f810184900484028201840190925281815292918301828280156101945780601f1061016957610100808354040283529160200191610194565b820191906000526020600020905b81548152906001019060200180831161017757829003601f168201915b505050505081565b60006101a66101cd565b905090565b6000806101b6610253565b5091505090565b600154600160a01b900460ff1681565b600080600160009054906101000a90046001600160a01b03166001600160a01b031663feaf968c6040518163ffffffff1660e01b815260040160a06040518083038186803b15801561021e57600080fd5b505afa158015610232573d6000803e3d6000fd5b505050506040513d60a081101561024857600080fd5b506060015191505090565b600080600080600160009054906101000a90046001600160a01b03166001600160a01b031663feaf968c6040518163ffffffff1660e01b815260040160a06040518083038186803b1580156102a757600080fd5b505afa1580156102bb573d6000803e3d6000fd5b505050506040513d60a08110156102d157600080fd5b50602081015160609091015160015491935091508290600160a01b900460ff166008141561030b57610308816402540be400610314565b90505b93509150509091565b60008261032357506000610386565b8282028284828161033057fe5b0414610383576040805162461bcd60e51b815260206004820152601960248201527f556e6d756c7469706c69636174696f6e206f766572666c6f7700000000000000604482015290519081900360640190fd5b90505b9291505056fea2646970667358221220da30ef6c837067d63db2e0964e9726f05e5a3de599e6d678b3d939be920fec8a64736f6c634300060c0033",
  "devdoc": {
    "kind": "dev",
    "methods": {},
    "version": 1
  },
  "userdoc": {
    "kind": "user",
    "methods": {},
    "version": 1
  },
  "storageLayout": {
    "storage": [
      {
        "astId": 7593,
        "contract": "contracts/feeders/ChainlinkPriceFeeder.sol:ChainlinkPriceFeeder",
        "label": "name",
        "offset": 0,
        "slot": "0",
        "type": "t_string_storage"
      },
      {
        "astId": 7595,
        "contract": "contracts/feeders/ChainlinkPriceFeeder.sol:ChainlinkPriceFeeder",
        "label": "chainlinkPriceFeed",
        "offset": 0,
        "slot": "1",
        "type": "t_contract(AggregatorV3Interface)45"
      },
      {
        "astId": 7597,
        "contract": "contracts/feeders/ChainlinkPriceFeeder.sol:ChainlinkPriceFeeder",
        "label": "decimals",
        "offset": 20,
        "slot": "1",
        "type": "t_uint8"
      },
      {
        "astId": 7599,
        "contract": "contracts/feeders/ChainlinkPriceFeeder.sol:ChainlinkPriceFeeder",
        "label": "timestamp",
        "offset": 0,
        "slot": "2",
        "type": "t_uint256"
      }
    ],
    "types": {
      "t_contract(AggregatorV3Interface)45": {
        "encoding": "inplace",
        "label": "contract AggregatorV3Interface",
        "numberOfBytes": "20"
      },
      "t_string_storage": {
        "encoding": "bytes",
        "label": "string",
        "numberOfBytes": "32"
      },
      "t_uint256": {
        "encoding": "inplace",
        "label": "uint256",
        "numberOfBytes": "32"
      },
      "t_uint8": {
        "encoding": "inplace",
        "label": "uint8",
        "numberOfBytes": "1"
      }
    }
  }
}