{
  "address": "0x13e9099f51EA8d9529d26D1AE8BcD73D3122832f",
  "abi": [
    {
      "inputs": [
        {
          "internalType": "string",
          "name": "_name",
          "type": "string"
        },
        {
          "internalType": "string",
          "name": "_nftUri",
          "type": "string"
        },
        {
          "internalType": "address",
          "name": "_priceResolverAddress",
          "type": "address"
        },
        {
          "internalType": "address",
          "name": "_collateralShareAddress",
          "type": "address"
        },
        {
          "internalType": "bytes32",
          "name": "_collateralShareSymbol",
          "type": "bytes32"
        },
        {
          "internalType": "bytes32",
          "name": "_syntheticSymbol",
          "type": "bytes32"
        },
        {
          "internalType": "address",
          "name": "_devAddress",
          "type": "address"
        }
      ],
      "stateMutability": "nonpayable",
      "type": "constructor"
    },
    {
      "anonymous": false,
      "inputs": [
        {
          "indexed": true,
          "internalType": "address",
          "name": "previousOwner",
          "type": "address"
        },
        {
          "indexed": true,
          "internalType": "address",
          "name": "newOwner",
          "type": "address"
        }
      ],
      "name": "OwnershipTransferred",
      "type": "event"
    },
    {
      "anonymous": false,
      "inputs": [
        {
          "indexed": false,
          "internalType": "address",
          "name": "minter",
          "type": "address"
        },
        {
          "indexed": false,
          "internalType": "uint8",
          "name": "variantId",
          "type": "uint8"
        },
        {
          "indexed": false,
          "internalType": "uint256",
          "name": "tokenValue",
          "type": "uint256"
        },
        {
          "indexed": false,
          "internalType": "uint256",
          "name": "collateralAmount",
          "type": "uint256"
        },
        {
          "indexed": false,
          "internalType": "uint256",
          "name": "tokenAmount",
          "type": "uint256"
        }
      ],
      "name": "PositionCreated",
      "type": "event"
    },
    {
      "anonymous": false,
      "inputs": [
        {
          "indexed": false,
          "internalType": "address",
          "name": "minter",
          "type": "address"
        },
        {
          "indexed": false,
          "internalType": "uint8",
          "name": "variantId",
          "type": "uint8"
        },
        {
          "indexed": false,
          "internalType": "uint256",
          "name": "tokenValue",
          "type": "uint256"
        },
        {
          "indexed": false,
          "internalType": "uint256",
          "name": "collateralAmount",
          "type": "uint256"
        },
        {
          "indexed": false,
          "internalType": "uint256",
          "name": "tokenAmount",
          "type": "uint256"
        }
      ],
      "name": "PositionRemoved",
      "type": "event"
    },
    {
      "inputs": [
        {
          "internalType": "address",
          "name": "_address",
          "type": "address"
        }
      ],
      "name": "addAddress",
      "outputs": [],
      "stateMutability": "nonpayable",
      "type": "function"
    },
    {
      "inputs": [
        {
          "internalType": "string",
          "name": "_name",
          "type": "string"
        },
        {
          "internalType": "uint256",
          "name": "_tokenId",
          "type": "uint256"
        },
        {
          "internalType": "uint256",
          "name": "_tokenValue",
          "type": "uint256"
        }
      ],
      "name": "addSyntheticVariant",
      "outputs": [],
      "stateMutability": "nonpayable",
      "type": "function"
    },
    {
      "inputs": [],
      "name": "collateralShare",
      "outputs": [
        {
          "internalType": "contract IPancakePair",
          "name": "",
          "type": "address"
        }
      ],
      "stateMutability": "view",
      "type": "function"
    },
    {
      "inputs": [],
      "name": "collateralShareSymbol",
      "outputs": [
        {
          "internalType": "bytes32",
          "name": "",
          "type": "bytes32"
        }
      ],
      "stateMutability": "view",
      "type": "function"
    },
    {
      "inputs": [],
      "name": "devAddress",
      "outputs": [
        {
          "internalType": "address",
          "name": "",
          "type": "address"
        }
      ],
      "stateMutability": "view",
      "type": "function"
    },
    {
      "inputs": [],
      "name": "discountDisabled",
      "outputs": [
        {
          "internalType": "bool",
          "name": "",
          "type": "bool"
        }
      ],
      "stateMutability": "view",
      "type": "function"
    },
    {
      "inputs": [
        {
          "internalType": "uint8",
          "name": "_id",
          "type": "uint8"
        },
        {
          "internalType": "uint256",
          "name": "_tokenAmount",
          "type": "uint256"
        }
      ],
      "name": "estimateMint",
      "outputs": [
        {
          "internalType": "uint256",
          "name": "baseTokenAmount",
          "type": "uint256"
        },
        {
          "internalType": "uint256",
          "name": "pairTokenAmount",
          "type": "uint256"
        },
        {
          "internalType": "uint256",
          "name": "lpAmount",
          "type": "uint256"
        },
        {
          "internalType": "uint256",
          "name": "discount",
          "type": "uint256"
        }
      ],
      "stateMutability": "view",
      "type": "function"
    },
    {
      "inputs": [
        {
          "internalType": "uint8",
          "name": "_id",
          "type": "uint8"
        },
        {
          "internalType": "uint256",
          "name": "_tokenAmount",
          "type": "uint256"
        }
      ],
      "name": "estimateRedeem",
      "outputs": [
        {
          "internalType": "uint256",
          "name": "baseTokenAmount",
          "type": "uint256"
        },
        {
          "internalType": "uint256",
          "name": "pairTokenAmount",
          "type": "uint256"
        },
        {
          "internalType": "uint256",
          "name": "lpAmount",
          "type": "uint256"
        },
        {
          "internalType": "uint256",
          "name": "offset",
          "type": "uint256"
        }
      ],
      "stateMutability": "view",
      "type": "function"
    },
    {
      "inputs": [
        {
          "internalType": "uint8",
          "name": "_id",
          "type": "uint8"
        },
        {
          "internalType": "uint256",
          "name": "_collateralAmount",
          "type": "uint256"
        },
        {
          "internalType": "uint256",
          "name": "_tokenAmount",
          "type": "uint256"
        }
      ],
      "name": "forceMint",
      "outputs": [],
      "stateMutability": "nonpayable",
      "type": "function"
    },
    {
      "inputs": [
        {
          "internalType": "uint8",
          "name": "_id",
          "type": "uint8"
        },
        {
          "internalType": "uint256",
          "name": "_collateralAmount",
          "type": "uint256"
        },
        {
          "internalType": "uint256",
          "name": "_tokenAmount",
          "type": "uint256"
        }
      ],
      "name": "forceRedeem",
      "outputs": [],
      "stateMutability": "nonpayable",
      "type": "function"
    },
    {
      "inputs": [],
      "name": "getCollateralSharePrice",
      "outputs": [
        {
          "internalType": "uint256",
          "name": "",
          "type": "uint256"
        }
      ],
      "stateMutability": "view",
      "type": "function"
    },
    {
      "inputs": [],
      "name": "getSyntheticPrice",
      "outputs": [
        {
          "internalType": "uint256",
          "name": "",
          "type": "uint256"
        }
      ],
      "stateMutability": "view",
      "type": "function"
    },
    {
      "inputs": [],
      "name": "globalCollatelizationRatio",
      "outputs": [
        {
          "internalType": "uint256",
          "name": "",
          "type": "uint256"
        }
      ],
      "stateMutability": "view",
      "type": "function"
    },
    {
      "inputs": [
        {
          "internalType": "address",
          "name": "_address",
          "type": "address"
        }
      ],
      "name": "isWhitelisted",
      "outputs": [
        {
          "internalType": "bool",
          "name": "",
          "type": "bool"
        }
      ],
      "stateMutability": "view",
      "type": "function"
    },
    {
      "inputs": [
        {
          "internalType": "uint8",
          "name": "_id",
          "type": "uint8"
        },
        {
          "internalType": "uint256",
          "name": "_tokenAmount",
          "type": "uint256"
        },
        {
          "internalType": "uint256",
          "name": "_maxBaseAmount",
          "type": "uint256"
        },
        {
          "internalType": "uint256",
          "name": "_maxPairAmount",
          "type": "uint256"
        }
      ],
      "name": "mint",
      "outputs": [],
      "stateMutability": "nonpayable",
      "type": "function"
    },
    {
      "inputs": [],
      "name": "name",
      "outputs": [
        {
          "internalType": "string",
          "name": "",
          "type": "string"
        }
      ],
      "stateMutability": "view",
      "type": "function"
    },
    {
      "inputs": [],
      "name": "offsetDisabled",
      "outputs": [
        {
          "internalType": "bool",
          "name": "",
          "type": "bool"
        }
      ],
      "stateMutability": "view",
      "type": "function"
    },
    {
      "inputs": [
        {
          "internalType": "address",
          "name": "",
          "type": "address"
        },
        {
          "internalType": "address",
          "name": "",
          "type": "address"
        },
        {
          "internalType": "uint256[]",
          "name": "",
          "type": "uint256[]"
        },
        {
          "internalType": "uint256[]",
          "name": "",
          "type": "uint256[]"
        },
        {
          "internalType": "bytes",
          "name": "",
          "type": "bytes"
        }
      ],
      "name": "onERC1155BatchReceived",
      "outputs": [
        {
          "internalType": "bytes4",
          "name": "",
          "type": "bytes4"
        }
      ],
      "stateMutability": "nonpayable",
      "type": "function"
    },
    {
      "inputs": [
        {
          "internalType": "address",
          "name": "",
          "type": "address"
        },
        {
          "internalType": "address",
          "name": "",
          "type": "address"
        },
        {
          "internalType": "uint256",
          "name": "",
          "type": "uint256"
        },
        {
          "internalType": "uint256",
          "name": "",
          "type": "uint256"
        },
        {
          "internalType": "bytes",
          "name": "",
          "type": "bytes"
        }
      ],
      "name": "onERC1155Received",
      "outputs": [
        {
          "internalType": "bytes4",
          "name": "",
          "type": "bytes4"
        }
      ],
      "stateMutability": "nonpayable",
      "type": "function"
    },
    {
      "inputs": [],
      "name": "owner",
      "outputs": [
        {
          "internalType": "address",
          "name": "",
          "type": "address"
        }
      ],
      "stateMutability": "view",
      "type": "function"
    },
    {
      "inputs": [],
      "name": "priceResolver",
      "outputs": [
        {
          "internalType": "contract IPriceResolver",
          "name": "",
          "type": "address"
        }
      ],
      "stateMutability": "view",
      "type": "function"
    },
    {
      "inputs": [
        {
          "internalType": "uint8",
          "name": "_id",
          "type": "uint8"
        },
        {
          "internalType": "uint256",
          "name": "_tokenAmount",
          "type": "uint256"
        },
        {
          "internalType": "uint256",
          "name": "_minBaseAmount",
          "type": "uint256"
        },
        {
          "internalType": "uint256",
          "name": "_minPairAmount",
          "type": "uint256"
        }
      ],
      "name": "redeem",
      "outputs": [],
      "stateMutability": "nonpayable",
      "type": "function"
    },
    {
      "inputs": [],
      "name": "redeemFee",
      "outputs": [
        {
          "internalType": "uint256",
          "name": "",
          "type": "uint256"
        }
      ],
      "stateMutability": "view",
      "type": "function"
    },
    {
      "inputs": [
        {
          "internalType": "address",
          "name": "_address",
          "type": "address"
        }
      ],
      "name": "removeAddress",
      "outputs": [],
      "stateMutability": "nonpayable",
      "type": "function"
    },
    {
      "inputs": [],
      "name": "renounceOwnership",
      "outputs": [],
      "stateMutability": "nonpayable",
      "type": "function"
    },
    {
      "inputs": [
        {
          "internalType": "enum NFTManager.ContractState",
          "name": "_state",
          "type": "uint8"
        }
      ],
      "name": "setContractState",
      "outputs": [],
      "stateMutability": "nonpayable",
      "type": "function"
    },
    {
      "inputs": [
        {
          "internalType": "address",
          "name": "_devAddress",
          "type": "address"
        }
      ],
      "name": "setDevAddress",
      "outputs": [],
      "stateMutability": "nonpayable",
      "type": "function"
    },
    {
      "inputs": [
        {
          "internalType": "bool",
          "name": "_active",
          "type": "bool"
        }
      ],
      "name": "setDiscountDisabled",
      "outputs": [],
      "stateMutability": "nonpayable",
      "type": "function"
    },
    {
      "inputs": [
        {
          "internalType": "string",
          "name": "_uri",
          "type": "string"
        }
      ],
      "name": "setNftUri",
      "outputs": [],
      "stateMutability": "nonpayable",
      "type": "function"
    },
    {
      "inputs": [
        {
          "internalType": "bool",
          "name": "_active",
          "type": "bool"
        }
      ],
      "name": "setOffsetDisabled",
      "outputs": [],
      "stateMutability": "nonpayable",
      "type": "function"
    },
    {
      "inputs": [
        {
          "internalType": "address",
          "name": "_priceResolverAddress",
          "type": "address"
        }
      ],
      "name": "setPriceResolver",
      "outputs": [],
      "stateMutability": "nonpayable",
      "type": "function"
    },
    {
      "inputs": [
        {
          "internalType": "uint256",
          "name": "_fee",
          "type": "uint256"
        }
      ],
      "name": "setRedeemFee",
      "outputs": [],
      "stateMutability": "nonpayable",
      "type": "function"
    },
    {
      "inputs": [
        {
          "internalType": "uint8",
          "name": "_id",
          "type": "uint8"
        },
        {
          "internalType": "bool",
          "name": "_disabled",
          "type": "bool"
        }
      ],
      "name": "setSyntheticVariantDisable",
      "outputs": [],
      "stateMutability": "nonpayable",
      "type": "function"
    },
    {
      "inputs": [],
      "name": "state",
      "outputs": [
        {
          "internalType": "enum NFTManager.ContractState",
          "name": "",
          "type": "uint8"
        }
      ],
      "stateMutability": "view",
      "type": "function"
    },
    {
      "inputs": [
        {
          "internalType": "bytes4",
          "name": "interfaceId",
          "type": "bytes4"
        }
      ],
      "name": "supportsInterface",
      "outputs": [
        {
          "internalType": "bool",
          "name": "",
          "type": "bool"
        }
      ],
      "stateMutability": "view",
      "type": "function"
    },
    {
      "inputs": [],
      "name": "syntheticNFT",
      "outputs": [
        {
          "internalType": "contract ISyntheticNFT",
          "name": "",
          "type": "address"
        }
      ],
      "stateMutability": "view",
      "type": "function"
    },
    {
      "inputs": [],
      "name": "syntheticSymbol",
      "outputs": [
        {
          "internalType": "bytes32",
          "name": "",
          "type": "bytes32"
        }
      ],
      "stateMutability": "view",
      "type": "function"
    },
    {
      "inputs": [],
      "name": "syntheticVariantCount",
      "outputs": [
        {
          "internalType": "uint8",
          "name": "",
          "type": "uint8"
        }
      ],
      "stateMutability": "view",
      "type": "function"
    },
    {
      "inputs": [
        {
          "internalType": "uint8",
          "name": "",
          "type": "uint8"
        }
      ],
      "name": "syntheticVariants",
      "outputs": [
        {
          "internalType": "string",
          "name": "name",
          "type": "string"
        },
        {
          "internalType": "uint256",
          "name": "tokenId",
          "type": "uint256"
        },
        {
          "internalType": "uint256",
          "name": "tokenValue",
          "type": "uint256"
        },
        {
          "internalType": "uint256",
          "name": "totalRawCollateral",
          "type": "uint256"
        },
        {
          "internalType": "uint256",
          "name": "totalOutstanding",
          "type": "uint256"
        },
        {
          "internalType": "uint256",
          "name": "totalIssued",
          "type": "uint256"
        },
        {
          "internalType": "uint256",
          "name": "totalBurnt",
          "type": "uint256"
        },
        {
          "internalType": "bool",
          "name": "disabled",
          "type": "bool"
        }
      ],
      "stateMutability": "view",
      "type": "function"
    },
    {
      "inputs": [
        {
          "internalType": "uint8",
          "name": "_id",
          "type": "uint8"
        }
      ],
      "name": "targetCollatelizationRatio",
      "outputs": [
        {
          "internalType": "int256",
          "name": "",
          "type": "int256"
        },
        {
          "internalType": "int256",
          "name": "",
          "type": "int256"
        }
      ],
      "stateMutability": "view",
      "type": "function"
    },
    {
      "inputs": [],
      "name": "totalOutstanding",
      "outputs": [
        {
          "internalType": "uint256",
          "name": "",
          "type": "uint256"
        }
      ],
      "stateMutability": "view",
      "type": "function"
    },
    {
      "inputs": [],
      "name": "totalRawCollateral",
      "outputs": [
        {
          "internalType": "uint256",
          "name": "",
          "type": "uint256"
        }
      ],
      "stateMutability": "view",
      "type": "function"
    },
    {
      "inputs": [
        {
          "internalType": "address",
          "name": "newOwner",
          "type": "address"
        }
      ],
      "name": "transferOwnership",
      "outputs": [],
      "stateMutability": "nonpayable",
      "type": "function"
    },
    {
      "inputs": [
        {
          "internalType": "uint8",
          "name": "_id",
          "type": "uint8"
        }
      ],
      "name": "variantCollatelizationRatio",
      "outputs": [
        {
          "internalType": "uint256",
          "name": "",
          "type": "uint256"
        }
      ],
      "stateMutability": "view",
      "type": "function"
    },
    {
      "inputs": [
        {
          "internalType": "address",
          "name": "_tokenAddress",
          "type": "address"
        },
        {
          "internalType": "uint256",
          "name": "_amount",
          "type": "uint256"
        }
      ],
      "name": "withdrawErc20",
      "outputs": [],
      "stateMutability": "nonpayable",
      "type": "function"
    }
  ],
  "transactionHash": "0xcc6efefc916d30405f40e5426dee48e97eeeb71ea456882af96b0d26afdfa38b",
  "args": [
    "Ang Pow",
    "https://api.tamago.finance/angpow/{id}",
    "0x0579D1b2494CCD10D50C63e84E2F1a5Da7552e98",
    "0x6e7a5fafcec6bb1e78bae2a1f0b612012bf14827",
    "0x574d415449432d555344432d5348415245000000000000000000000000000000",
    "0x5553440000000000000000000000000000000000000000000000000000000000",
    "0x56E2D31FC6a587f2387844Eb2Ad1779BDFa07a6e"
  ],
  "solcInputHash": "94383fbc6b5990f2eaa26ad48e011ed6",
  "bytecode": "0x6080604052603c6011553480156200001657600080fd5b50604051620096aa380380620096aa833981810160405260e08110156200003c57600080fd5b81019080805160405193929190846401000000008211156200005d57600080fd5b9083019060208201858111156200007357600080fd5b82516401000000008111828201881017156200008e57600080fd5b82525081516020918201929091019080838360005b83811015620000bd578181015183820152602001620000a3565b50505050905090810190601f168015620000eb5780820380516001836020036101000a031916815260200191505b50604052602001805160405193929190846401000000008211156200010f57600080fd5b9083019060208201858111156200012557600080fd5b82516401000000008111828201881017156200014057600080fd5b82525081516020918201929091019080838360005b838110156200016f57818101518382015260200162000155565b50505050905090810190601f1680156200019d5780820380516001836020036101000a031916815260200191505b5060409081526020820151908201516060830151608084015160a090940151600160009081559396509194509291620001d5620007e1565b600180546001600160a01b0319166001600160a01b038316908117909155604051919250906000907f8be0079c531659141344cd1fd0a4f28419497f9722a3daafe3b4186f6b6457e0908290a35060006200022f620007e1565b6001600160a01b03166000908152600260205260409020805460ff1916600117905550620002646301ffc9a760e01b620007e5565b62000276630271189760e51b620007e5565b60026000541415620002cf576040805162461bcd60e51b815260206004820152601f60248201527f5265656e7472616e637947756172643a207265656e7472616e742063616c6c00604482015290519081900360640190fd5b60026000558651620002e99060049060208a019062000943565b50600982905560058054600780546001600160a01b038881166001600160a01b03199092169190911790915560088690558716610100026001600160a81b031990911617905561012c600f55604051600090889088906200034a90620009c8565b604080825283519082015282518190602080830191606084019187019080838360005b83811015620003875781810151838201526020016200036d565b50505050905090810190601f168015620003b55780820380516001836020036101000a031916815260200191505b50838103825284518152845160209182019186019080838360005b83811015620003ea578181015183820152602001620003d0565b50505050905090810190601f168015620004185780820380516001836020036101000a031916815260200191505b50945050505050604051809103906000f0801580156200043c573d6000803e3d6000fd5b50600680546001600160a01b038084166001600160a01b031992831617909255600e80549286169290911691909117905590506200047a826200086a565b6001600160a01b0382163314620004965762000496336200086a565b60075460408051630dfe168160e01b815290516000926001600160a01b031691630dfe1681916004808301926020929190829003018186803b158015620004dc57600080fd5b505afa158015620004f1573d6000803e3d6000fd5b505050506040513d60208110156200050857600080fd5b50516001600160a01b031614620007cd57600760009054906101000a90046001600160a01b03166001600160a01b0316630dfe16816040518163ffffffff1660e01b815260040160206040518083038186803b1580156200056857600080fd5b505afa1580156200057d573d6000803e3d6000fd5b505050506040513d60208110156200059457600080fd5b50516040805163095ea7b360e01b815273a5e0829caced8ffdd4de3c43696c57f7d7a678ff6004820152600019602482015290516001600160a01b039092169163095ea7b3916044808201926020929091908290030181600087803b158015620005fd57600080fd5b505af115801562000612573d6000803e3d6000fd5b505050506040513d60208110156200062957600080fd5b50506007546040805163d21220a760e01b815290516001600160a01b039092169163d21220a791600480820192602092909190829003018186803b1580156200067157600080fd5b505afa15801562000686573d6000803e3d6000fd5b505050506040513d60208110156200069d57600080fd5b50516040805163095ea7b360e01b815273a5e0829caced8ffdd4de3c43696c57f7d7a678ff6004820152600019602482015290516001600160a01b039092169163095ea7b3916044808201926020929091908290030181600087803b1580156200070657600080fd5b505af11580156200071b573d6000803e3d6000fd5b505050506040513d60208110156200073257600080fd5b50506007546040805163095ea7b360e01b815273a5e0829caced8ffdd4de3c43696c57f7d7a678ff6004820152600019602482015290516001600160a01b039092169163095ea7b3916044808201926020929091908290030181600087803b1580156200079e57600080fd5b505af1158015620007b3573d6000803e3d6000fd5b505050506040513d6020811015620007ca57600080fd5b50505b5050600160005550620009ed945050505050565b3390565b6001600160e01b0319808216141562000845576040805162461bcd60e51b815260206004820152601c60248201527f4552433136353a20696e76616c696420696e7465726661636520696400000000604482015290519081900360640190fd5b6001600160e01b0319166000908152600360205260409020805460ff19166001179055565b600062000876620007e1565b9050620008838162000925565b620008d5576040805162461bcd60e51b815260206004820181905260248201527f4f776e61626c653a2063616c6c6572206973206e6f7420746865206f776e6572604482015290519081900360640190fd5b6001600160a01b03821660009081526002602052604090205460ff1615620008fd5762000921565b6001600160a01b0382166000908152600260205260409020805460ff191660011790555b5050565b6001600160a01b031660009081526002602052604090205460ff1690565b828054600181600116156101000203166002900490600052602060002090601f016020900481019282601f106200098657805160ff1916838001178555620009b6565b82800160010185558215620009b6579182015b82811115620009b657825182559160200191906001019062000999565b50620009c4929150620009d6565b5090565b6139628062005d4883390190565b5b80821115620009c45760008155600101620009d7565b61534b80620009fd6000396000f3fe608060405234801561001057600080fd5b506004361061027f5760003560e01c806377ce33b31161015c578063c19d93fb116100ce578063e26cdf2b11610087578063e26cdf2b14610a2b578063ea12671c14610a4a578063eda0701414610a52578063f23a6e6114610b1d578063f2fde38b14610be6578063f7b4c18714610c0c5761027f565b8063c19d93fb14610956578063d0d41fe11461097f578063d332ef43146109a5578063d49de602146109de578063d8e6e79b146109e6578063db3e2ecb14610a0c5761027f565b80639e1d8644116101205780639e1d864414610680578063b630d279146106ac578063b9799848146106f8578063bc197c8114610720578063bd1f4b52146108fe578063bdf460871461092a5761027f565b806377ce33b3146106185780637f377a7314610636578063848374ec1461063e5780638da5cb5b14610670578063965fa21e146106785761027f565b80633ad10ef6116101f55780634e15afdc116101b95780634e15afdc146105d357806351289539146105db5780635d841af5146105e357806367b5776414610600578063715018a614610608578063759da3d1146106105761027f565b80633ad10ef61461056f5780633af32abf146105775780633f3d7db61461059d57806348a6fbd7146105a55780634ba79dfe146105ad5761027f565b8063237cfae811610247578063237cfae81461039257806323cdcf151461043b57806329e78dc01461045f5780632a751e421461047f57806338c86f321461052357806338eada1c146105495761027f565b806301ffc9a71461028457806306fdde03146102bf57806311ab3b341461033c57806316078d04146103445780631a1062d01461035e575b600080fd5b6102ab6004803603602081101561029a57600080fd5b50356001600160e01b031916610c2c565b604080519115158252519081900360200190f35b6102c7610c4f565b6040805160208082528351818301528351919283929083019185019080838360005b838110156103015781810151838201526020016102e9565b50505050905090810190601f16801561032e5780820380516001836020036101000a031916815260200191505b509250505060405180910390f35b6102ab610cdd565b61034c610ceb565b60408051918252519081900360200190f35b6103906004803603608081101561037457600080fd5b5060ff8135169060208101359060408101359060600135610cf1565b005b610390600480360360608110156103a857600080fd5b810190602081018135600160201b8111156103c257600080fd5b8201836020820111156103d457600080fd5b803590602001918460018302840111600160201b831117156103f557600080fd5b91908080601f0160208091040260200160405190810160405280939291908181526020018383808284376000920191909152509295505082359350505060200135611921565b610443611a2d565b604080516001600160a01b039092168252519081900360200190f35b61034c6004803603602081101561047557600080fd5b503560ff16611a3c565b6103906004803603602081101561049557600080fd5b810190602081018135600160201b8111156104af57600080fd5b8201836020820111156104c157600080fd5b803590602001918460018302840111600160201b831117156104e257600080fd5b91908080601f016020809104026020016040519081016040528093929190818152602001838380828437600092019190915250929550611ae7945050505050565b6103906004803603602081101561053957600080fd5b50356001600160a01b0316611c53565b6103906004803603602081101561055f57600080fd5b50356001600160a01b0316611d20565b610443611dc2565b6102ab6004803603602081101561058d57600080fd5b50356001600160a01b0316611dd1565b61034c611def565b61034c611df5565b610390600480360360208110156105c357600080fd5b50356001600160a01b0316611dfb565b610443611e96565b61034c611eaa565b610390600480360360208110156105f957600080fd5b5035611eb0565b61034c611f5a565b610390611fc5565b610443612071565b610620612080565b6040805160ff9092168252519081900360200190f35b61034c612089565b6103906004803603608081101561065457600080fd5b5060ff81351690602081013590604081013590606001356121d0565b610443612833565b61034c612842565b6103906004803603606081101561069657600080fd5b5060ff8135169060208101359060400135612848565b6106d2600480360360408110156106c257600080fd5b5060ff8135169060200135612bd3565b604080519485526020850193909352838301919091526060830152519081900360800190f35b6103906004803603604081101561070e57600080fd5b5060ff81351690602001351515612d2b565b6108e1600480360360a081101561073657600080fd5b6001600160a01b038235811692602081013590911691810190606081016040820135600160201b81111561076957600080fd5b82018360208201111561077b57600080fd5b803590602001918460208302840111600160201b8311171561079c57600080fd5b9190808060200260200160405190810160405280939291908181526020018383602002808284376000920191909152509295949360208101935035915050600160201b8111156107eb57600080fd5b8201836020820111156107fd57600080fd5b803590602001918460208302840111600160201b8311171561081e57600080fd5b9190808060200260200160405190810160405280939291908181526020018383602002808284376000920191909152509295949360208101935035915050600160201b81111561086d57600080fd5b82018360208201111561087f57600080fd5b803590602001918460018302840111600160201b831117156108a057600080fd5b91908080601f016020809104026020016040519081016040528093929190818152602001838380828437600092019190915250929550612e48945050505050565b604080516001600160e01b03199092168252519081900360200190f35b6103906004803603604081101561091457600080fd5b506001600160a01b038135169060200135612e59565b6103906004803603606081101561094057600080fd5b5060ff8135169060208101359060400135612f7d565b61095e613349565b6040518082600381111561096e57fe5b815260200191505060405180910390f35b6103906004803603602081101561099557600080fd5b50356001600160a01b0316613352565b6109c5600480360360208110156109bb57600080fd5b503560ff16613419565b6040805192835260208301919091528051918290030190f35b61034c613489565b6106d2600480360360408110156109fc57600080fd5b5060ff81351690602001356135b5565b61039060048036036020811015610a2257600080fd5b503515156136fb565b61039060048036036020811015610a4157600080fd5b503515156137ba565b6102ab613872565b610a7260048036036020811015610a6857600080fd5b503560ff1661387b565b6040518080602001898152602001888152602001878152602001868152602001858152602001848152602001831515815260200182810382528a818151815260200191508051906020019080838360005b83811015610adb578181015183820152602001610ac3565b50505050905090810190601f168015610b085780820380516001836020036101000a031916815260200191505b50995050505050505050505060405180910390f35b6108e1600480360360a0811015610b3357600080fd5b6001600160a01b03823581169260208101359091169160408201359160608101359181019060a081016080820135600160201b811115610b7257600080fd5b820183602082011115610b8457600080fd5b803590602001918460018302840111600160201b83111715610ba557600080fd5b91908080601f01602080910402602001604051908101604052809392919081815260200183838082843760009201919091525092955061394b945050505050565b61039060048036036020811015610bfc57600080fd5b50356001600160a01b031661395c565b61039060048036036020811015610c2257600080fd5b503560ff16613a5f565b6001600160e01b0319811660009081526003602052604090205460ff165b919050565b6004805460408051602060026001851615610100026000190190941693909304601f81018490048402820184019092528181529291830182828015610cd55780601f10610caa57610100808354040283529160200191610cd5565b820191906000526020600020905b815481529060010190602001808311610cb857829003601f168201915b505050505081565b601054610100900460ff1681565b600d5481565b60026000541415610d37576040805162461bcd60e51b815260206004820152601f60248201526000805160206151dc833981519152604482015290519081900360640190fd5b6002600055600160055460ff166003811115610d4f57fe5b14610da1576040805162461bcd60e51b815260206004820152601b60248201527f436f6e7472616374207374617465206973206e6f742072656164790000000000604482015290519081900360640190fd5b600b548490849060ff808416911611610df5576040805162461bcd60e51b8152602060048201526011602482015270125b9d985b1a590819da5d995b8817da59607a1b604482015290519081900360640190fd5b60ff8083166000908152600a60205260409020600701541615610e4d576040805162461bcd60e51b81526020600482015260196024820152600080516020615244833981519152604482015290519081900360640190fd5b80610e8d576040805162461bcd60e51b815260206004820152601a60248201526000805160206152cc833981519152604482015290519081900360640190fd5b8060641015610ed4576040805162461bcd60e51b815260206004820152600e60248201526d115e18d959590813505617d3919560921b604482015290519081900360640190fd5b6000610ee08787613b25565b5092505050610ef0878288613c7f565b60065460ff88166000908152600a60205260408120600101546001600160a01b039092169163f242432a91339130918b90610f2a90613da6565b6040518663ffffffff1660e01b815260040180866001600160a01b03168152602001856001600160a01b0316815260200184815260200183815260200180602001828103825283818151815260200191508051906020019080838360005b83811015610fa0578181015183820152602001610f88565b50505050905090810190601f168015610fcd5780820380516001836020036101000a031916815260200191505b509650505050505050600060405180830381600087803b158015610ff057600080fd5b505af1158015611004573d6000803e3d6000fd5b505060065460ff8a166000908152600a6020526040808220600101548151637a94c56560e11b81523060048201526024810191909152604481018c905290516001600160a01b03909316945063f5298aca93506064808201939182900301818387803b15801561107357600080fd5b505af1158015611087573d6000803e3d6000fd5b5050505060008073a5e0829caced8ffdd4de3c43696c57f7d7a678ff6001600160a01b031663baa2abde600760009054906101000a90046001600160a01b03166001600160a01b0316630dfe16816040518163ffffffff1660e01b815260040160206040518083038186803b1580156110ff57600080fd5b505afa158015611113573d6000803e3d6000fd5b505050506040513d602081101561112957600080fd5b50516007546040805163d21220a760e01b815290516001600160a01b039092169163d21220a791600480820192602092909190829003018186803b15801561117057600080fd5b505afa158015611184573d6000803e3d6000fd5b505050506040513d602081101561119a57600080fd5b5051604080516001600160e01b031960e086901b1681526001600160a01b03938416600482015292909116602483015260448201879052606482018b9052608482018a90523060a483015262015180420160c4830152805160e4808401938290030181600087803b15801561120e57600080fd5b505af1158015611222573d6000803e3d6000fd5b505050506040513d604081101561123857600080fd5b50805160209091015190925090508682101561129b576040805162461bcd60e51b815260206004820152601d60248201527f5f6d696e42617365416d6f756e74206973206e6f742072656163686564000000604482015290519081900360640190fd5b858110156112f0576040805162461bcd60e51b815260206004820152601d60248201527f5f6d696e50616972416d6f756e74206973206e6f742072656163686564000000604482015290519081900360640190fd5b600f541561172b57600061131b612710611315600f5486613dd090919063ffffffff16565b90613e48565b9050600061133a612710611315600f5486613dd090919063ffffffff16565b9050600760009054906101000a90046001600160a01b03166001600160a01b0316630dfe16816040518163ffffffff1660e01b815260040160206040518083038186803b15801561138a57600080fd5b505afa15801561139e573d6000803e3d6000fd5b505050506040513d60208110156113b457600080fd5b50516001600160a01b031663a9059cbb336113cf8786613ea7565b6040518363ffffffff1660e01b815260040180836001600160a01b0316815260200182815260200192505050602060405180830381600087803b15801561141557600080fd5b505af1158015611429573d6000803e3d6000fd5b505050506040513d602081101561143f57600080fd5b50506007546040805163d21220a760e01b815290516001600160a01b039092169163d21220a791600480820192602092909190829003018186803b15801561148657600080fd5b505afa15801561149a573d6000803e3d6000fd5b505050506040513d60208110156114b057600080fd5b50516001600160a01b031663a9059cbb336114cb8685613ea7565b6040518363ffffffff1660e01b815260040180836001600160a01b0316815260200182815260200192505050602060405180830381600087803b15801561151157600080fd5b505af1158015611525573d6000803e3d6000fd5b505050506040513d602081101561153b57600080fd5b505060075460408051630dfe168160e01b815290516001600160a01b0390921691630dfe168191600480820192602092909190829003018186803b15801561158257600080fd5b505afa158015611596573d6000803e3d6000fd5b505050506040513d60208110156115ac57600080fd5b5051600e546040805163a9059cbb60e01b81526001600160a01b039283166004820152602481018690529051919092169163a9059cbb9160448083019260209291908290030181600087803b15801561160457600080fd5b505af1158015611618573d6000803e3d6000fd5b505050506040513d602081101561162e57600080fd5b50506007546040805163d21220a760e01b815290516001600160a01b039092169163d21220a791600480820192602092909190829003018186803b15801561167557600080fd5b505afa158015611689573d6000803e3d6000fd5b505050506040513d602081101561169f57600080fd5b5051600e546040805163a9059cbb60e01b81526001600160a01b039283166004820152602481018590529051919092169163a9059cbb9160448083019260209291908290030181600087803b1580156116f757600080fd5b505af115801561170b573d6000803e3d6000fd5b505050506040513d602081101561172157600080fd5b5061191192505050565b600760009054906101000a90046001600160a01b03166001600160a01b0316630dfe16816040518163ffffffff1660e01b815260040160206040518083038186803b15801561177957600080fd5b505afa15801561178d573d6000803e3d6000fd5b505050506040513d60208110156117a357600080fd5b50516040805163a9059cbb60e01b81523360048201526024810185905290516001600160a01b039092169163a9059cbb916044808201926020929091908290030181600087803b1580156117f657600080fd5b505af115801561180a573d6000803e3d6000fd5b505050506040513d602081101561182057600080fd5b50506007546040805163d21220a760e01b815290516001600160a01b039092169163d21220a791600480820192602092909190829003018186803b15801561186757600080fd5b505afa15801561187b573d6000803e3d6000fd5b505050506040513d602081101561189157600080fd5b50516040805163a9059cbb60e01b81523360048201526024810184905290516001600160a01b039092169163a9059cbb916044808201926020929091908290030181600087803b1580156118e457600080fd5b505af11580156118f8573d6000803e3d6000fd5b505050506040513d602081101561190e57600080fd5b50505b5050600160005550505050505050565b60026000541415611967576040805162461bcd60e51b815260206004820152601f60248201526000805160206151dc833981519152604482015290519081900360640190fd5b60026000908155611976613efd565b905061198181611dd1565b6119c0576040805162461bcd60e51b8152602060048201819052602482015260008051602061528a833981519152604482015290519081900360640190fd5b600b5460ff166000908152600a6020908152604090912085516119e592870190615151565b5050600b805460ff9081166000908152600a6020526040808220600190810196909655835483168252812060020193909355815460ff19811690821685019091161790555550565b6006546001600160a01b031681565b600b5460009060ff808416911611611a8f576040805162461bcd60e51b8152602060048201526011602482015270125b9d985b1a590819da5d995b8817da59607a1b604482015290519081900360640190fd5b60ff82166000908152600a602052604090206003015415611ad85760ff82166000908152600a602052604090206003810154600490910154611ad19190613f01565b9050610c4a565b50670de0b6b3a7640000610c4a565b60026000541415611b2d576040805162461bcd60e51b815260206004820152601f60248201526000805160206151dc833981519152604482015290519081900360640190fd5b60026000908155611b3c613efd565b9050611b4781611dd1565b611b86576040805162461bcd60e51b8152602060048201819052602482015260008051602061528a833981519152604482015290519081900360640190fd5b600654604051639b642de160e01b81526020600482018181528551602484015285516001600160a01b0390941693639b642de193879383926044909201919085019080838360005b83811015611be6578181015183820152602001611bce565b50505050905090810190601f168015611c135780820380516001836020036101000a031916815260200191505b5092505050600060405180830381600087803b158015611c3257600080fd5b505af1158015611c46573d6000803e3d6000fd5b5050600160005550505050565b60026000541415611c99576040805162461bcd60e51b815260206004820152601f60248201526000805160206151dc833981519152604482015290519081900360640190fd5b60026000908155611ca8613efd565b9050611cb381611dd1565b611cf2576040805162461bcd60e51b8152602060048201819052602482015260008051602061528a833981519152604482015290519081900360640190fd5b50600580546001600160a01b0390921661010002610100600160a81b03199092169190911790556001600055565b6000611d2a613efd565b9050611d3581611dd1565b611d74576040805162461bcd60e51b8152602060048201819052602482015260008051602061528a833981519152604482015290519081900360640190fd5b6001600160a01b03821660009081526002602052604090205460ff1615611d9a57611dbe565b6001600160a01b0382166000908152600260205260409020805460ff191660011790555b5050565b600e546001600160a01b031681565b6001600160a01b031660009081526002602052604090205460ff1690565b600c5481565b60095481565b6000611e05613efd565b9050611e1081611dd1565b611e4f576040805162461bcd60e51b8152602060048201819052602482015260008051602061528a833981519152604482015290519081900360640190fd5b6001600160a01b03821660009081526002602052604090205460ff16611e7457611dbe565b506001600160a01b03166000908152600260205260409020805460ff19169055565b60055461010090046001600160a01b031681565b60085481565b60026000541415611ef6576040805162461bcd60e51b815260206004820152601f60248201526000805160206151dc833981519152604482015290519081900360640190fd5b60026000908155611f05613efd565b9050611f1081611dd1565b611f4f576040805162461bcd60e51b8152602060048201819052602482015260008051602061528a833981519152604482015290519081900360640190fd5b50600f556001600055565b600080600c5411611fb2576040805162461bcd60e51b815260206004820152601e60248201527f4e6f20636f6c6c61746572616c7320696e2074686520636f6e74726163740000604482015290519081900360640190fd5b611fc0600c54600d54613f01565b905090565b611fcd613efd565b6001600160a01b0316611fde612833565b6001600160a01b031614612027576040805162461bcd60e51b8152602060048201819052602482015260008051602061528a833981519152604482015290519081900360640190fd5b6001546040516000916001600160a01b0316907f8be0079c531659141344cd1fd0a4f28419497f9722a3daafe3b4186f6b6457e0908390a3600180546001600160a01b0319169055565b6007546001600160a01b031681565b600b5460ff1681565b60055460085460408051636a93856760e01b815260048101929092525160009261010090046001600160a01b031691636a938567916024808301926020929190829003018186803b1580156120dd57600080fd5b505afa1580156120f1573d6000803e3d6000fd5b505050506040513d602081101561210757600080fd5b50516121445760405162461bcd60e51b81526004018080602001828103825260228152602001806152aa6022913960400191505060405180910390fd5b600560019054906101000a90046001600160a01b03166001600160a01b031663161e444e6008546040518263ffffffff1660e01b81526004018082815260200191505060206040518083038186803b15801561219f57600080fd5b505afa1580156121b3573d6000803e3d6000fd5b505050506040513d60208110156121c957600080fd5b5051905090565b60026000541415612216576040805162461bcd60e51b815260206004820152601f60248201526000805160206151dc833981519152604482015290519081900360640190fd5b6002600055600160055460ff16600381111561222e57fe5b14612280576040805162461bcd60e51b815260206004820152601b60248201527f436f6e7472616374207374617465206973206e6f742072656164790000000000604482015290519081900360640190fd5b600b548490849060ff8084169116116122d4576040805162461bcd60e51b8152602060048201526011602482015270125b9d985b1a590819da5d995b8817da59607a1b604482015290519081900360640190fd5b60ff8083166000908152600a6020526040902060070154161561232c576040805162461bcd60e51b81526020600482015260196024820152600080516020615244833981519152604482015290519081900360640190fd5b8061236c576040805162461bcd60e51b815260206004820152601a60248201526000805160206152cc833981519152604482015290519081900360640190fd5b80606410156123b3576040805162461bcd60e51b815260206004820152600e60248201526d115e18d959590813505617d3919560921b604482015290519081900360640190fd5b6000806123c08888614043565b5050915091508186101561241b576040805162461bcd60e51b815260206004820152601860248201527f457863656564696e67205f6d617842617365416d6f756e740000000000000000604482015290519081900360640190fd5b80851015612470576040805162461bcd60e51b815260206004820152601860248201527f457863656564696e67205f6d617850616972416d6f756e740000000000000000604482015290519081900360640190fd5b612501333084600760009054906101000a90046001600160a01b03166001600160a01b0316630dfe16816040518163ffffffff1660e01b815260040160206040518083038186803b1580156124c457600080fd5b505afa1580156124d8573d6000803e3d6000fd5b505050506040513d60208110156124ee57600080fd5b50516001600160a01b0316929190614143565b612555333083600760009054906101000a90046001600160a01b03166001600160a01b031663d21220a76040518163ffffffff1660e01b815260040160206040518083038186803b1580156124c457600080fd5b600073a5e0829caced8ffdd4de3c43696c57f7d7a678ff6001600160a01b031663e8e33700600760009054906101000a90046001600160a01b03166001600160a01b0316630dfe16816040518163ffffffff1660e01b815260040160206040518083038186803b1580156125c857600080fd5b505afa1580156125dc573d6000803e3d6000fd5b505050506040513d60208110156125f257600080fd5b50516007546040805163d21220a760e01b815290516001600160a01b039092169163d21220a791600480820192602092909190829003018186803b15801561263957600080fd5b505afa15801561264d573d6000803e3d6000fd5b505050506040513d602081101561266357600080fd5b50518686612679612710611315846125e4613dd0565b61268b6127106113158b6125e4613dd0565b604080516001600160e01b031960e08a901b1681526001600160a01b03978816600482015295909616602486015260448501939093526064840191909152608483015260a48201523060c482015262015180420160e482015290516101048083019260609291908290030181600087803b15801561270857600080fd5b505af115801561271c573d6000803e3d6000fd5b505050506040513d606081101561273257600080fd5b5060400151905061274489828a6141a3565b60065460ff8a166000908152600a60205260408120600101546001600160a01b039092169163731133e9913391908c9061277d90613da6565b6040518563ffffffff1660e01b815260040180856001600160a01b0316815260200184815260200183815260200180602001828103825283818151815260200191508051906020019080838360005b838110156127e45781810151838201526020016127cc565b50505050905090810190601f1680156128115780820380516001836020036101000a031916815260200191505b5095505050505050602060405180830381600087803b1580156118e457600080fd5b6001546001600160a01b031690565b600f5481565b6002600054141561288e576040805162461bcd60e51b815260206004820152601f60248201526000805160206151dc833981519152604482015290519081900360640190fd5b6002600090815561289d613efd565b90506128a881611dd1565b6128e7576040805162461bcd60e51b8152602060048201819052602482015260008051602061528a833981519152604482015290519081900360640190fd5b600b548490839060ff80841691161161293b576040805162461bcd60e51b8152602060048201526011602482015270125b9d985b1a590819da5d995b8817da59607a1b604482015290519081900360640190fd5b60ff8083166000908152600a60205260409020600701541615612993576040805162461bcd60e51b81526020600482015260196024820152600080516020615244833981519152604482015290519081900360640190fd5b806129d3576040805162461bcd60e51b815260206004820152601a60248201526000805160206152cc833981519152604482015290519081900360640190fd5b8060641015612a1a576040805162461bcd60e51b815260206004820152600e60248201526d115e18d959590813505617d3919560921b604482015290519081900360640190fd5b612a258686866141a3565b600754604080516323b872dd60e01b81523360048201523060248201526044810188905290516001600160a01b03909216916323b872dd916064808201926020929091908290030181600087803b158015612a7f57600080fd5b505af1158015612a93573d6000803e3d6000fd5b505050506040513d6020811015612aa957600080fd5b505060065460ff87166000908152600a60205260408120600101546001600160a01b039092169163731133e9913391908890612ae490613da6565b6040518563ffffffff1660e01b815260040180856001600160a01b0316815260200184815260200183815260200180602001828103825283818151815260200191508051906020019080838360005b83811015612b4b578181015183820152602001612b33565b50505050905090810190601f168015612b785780820380516001836020036101000a031916815260200191505b5095505050505050602060405180830381600087803b158015612b9a57600080fd5b505af1158015612bae573d6000803e3d6000fd5b505050506040513d6020811015612bc457600080fd5b50506001600055505050505050565b600b546000908190819081908690869060ff808416911611612c30576040805162461bcd60e51b8152602060048201526011602482015270125b9d985b1a590819da5d995b8817da59607a1b604482015290519081900360640190fd5b60ff8083166000908152600a60205260409020600701541615612c88576040805162461bcd60e51b81526020600482015260196024820152600080516020615244833981519152604482015290519081900360640190fd5b80612cc8576040805162461bcd60e51b815260206004820152601a60248201526000805160206152cc833981519152604482015290519081900360640190fd5b8060641015612d0f576040805162461bcd60e51b815260206004820152600e60248201526d115e18d959590813505617d3919560921b604482015290519081900360640190fd5b612d198888613b25565b929b919a509850909650945050505050565b60026000541415612d71576040805162461bcd60e51b815260206004820152601f60248201526000805160206151dc833981519152604482015290519081900360640190fd5b60026000908155612d80613efd565b9050612d8b81611dd1565b612dca576040805162461bcd60e51b8152602060048201819052602482015260008051602061528a833981519152604482015290519081900360640190fd5b600b5460ff808516911611612e1a576040805162461bcd60e51b8152602060048201526011602482015270125b9d985b1a590819da5d995b8817da59607a1b604482015290519081900360640190fd5b5060ff919091166000908152600a60205260408120600701805460ff19169215159290921790915560019055565b63bc197c8160e01b95945050505050565b60026000541415612e9f576040805162461bcd60e51b815260206004820152601f60248201526000805160206151dc833981519152604482015290519081900360640190fd5b60026000908155612eae613efd565b9050612eb981611dd1565b612ef8576040805162461bcd60e51b8152602060048201819052602482015260008051602061528a833981519152604482015290519081900360640190fd5b6040805163a9059cbb60e01b81523360048201526024810184905290516001600160a01b0385169163a9059cbb9160448083019260209291908290030181600087803b158015612f4757600080fd5b505af1158015612f5b573d6000803e3d6000fd5b505050506040513d6020811015612f7157600080fd5b50506001600055505050565b60026000541415612fc3576040805162461bcd60e51b815260206004820152601f60248201526000805160206151dc833981519152604482015290519081900360640190fd5b60026000908155612fd2613efd565b9050612fdd81611dd1565b61301c576040805162461bcd60e51b8152602060048201819052602482015260008051602061528a833981519152604482015290519081900360640190fd5b600b548490839060ff808416911611613070576040805162461bcd60e51b8152602060048201526011602482015270125b9d985b1a590819da5d995b8817da59607a1b604482015290519081900360640190fd5b60ff8083166000908152600a602052604090206007015416156130c8576040805162461bcd60e51b81526020600482015260196024820152600080516020615244833981519152604482015290519081900360640190fd5b80613108576040805162461bcd60e51b815260206004820152601a60248201526000805160206152cc833981519152604482015290519081900360640190fd5b806064101561314f576040805162461bcd60e51b815260206004820152600e60248201526d115e18d959590813505617d3919560921b604482015290519081900360640190fd5b61315a868686613c7f565b60065460ff87166000908152600a60205260408120600101546001600160a01b039092169163f242432a9133913091899061319490613da6565b6040518663ffffffff1660e01b815260040180866001600160a01b03168152602001856001600160a01b0316815260200184815260200183815260200180602001828103825283818151815260200191508051906020019080838360005b8381101561320a5781810151838201526020016131f2565b50505050905090810190601f1680156132375780820380516001836020036101000a031916815260200191505b509650505050505050600060405180830381600087803b15801561325a57600080fd5b505af115801561326e573d6000803e3d6000fd5b505060065460ff89166000908152600a6020526040808220600101548151637a94c56560e11b81523060048201526024810191909152604481018a905290516001600160a01b03909316945063f5298aca93506064808201939182900301818387803b1580156132dd57600080fd5b505af11580156132f1573d6000803e3d6000fd5b50506007546040805163a9059cbb60e01b8152336004820152602481018a905290516001600160a01b03909216935063a9059cbb92506044808201926020929091908290030181600087803b158015612b9a57600080fd5b60055460ff1681565b60026000541415613398576040805162461bcd60e51b815260206004820152601f60248201526000805160206151dc833981519152604482015290519081900360640190fd5b600260009081556133a7613efd565b90506133b281611dd1565b6133f1576040805162461bcd60e51b8152602060048201819052602482015260008051602061528a833981519152604482015290519081900360640190fd5b50600e80546001600160a01b0319166001600160a01b03929092169190911790556001600055565b600b54600090819060ff80851691161161346e576040805162461bcd60e51b8152602060048201526011602482015270125b9d985b1a590819da5d995b8817da59607a1b604482015290519081900360640190fd5b61347783614288565b613480846142e3565b91509150915091565b60055460095460408051636a93856760e01b815260048101929092525160009261010090046001600160a01b031691636a938567916024808301926020929190829003018186803b1580156134dd57600080fd5b505afa1580156134f1573d6000803e3d6000fd5b505050506040513d602081101561350757600080fd5b505161355a576040805162461bcd60e51b815260206004820152601c60248201527f73796e74686574696353796d626f6c206973206e6f742076616c696400000000604482015290519081900360640190fd5b600560019054906101000a90046001600160a01b03166001600160a01b031663161e444e6009546040518263ffffffff1660e01b81526004018082815260200191505060206040518083038186803b15801561219f57600080fd5b600b546000908190819081908690869060ff808416911611613612576040805162461bcd60e51b8152602060048201526011602482015270125b9d985b1a590819da5d995b8817da59607a1b604482015290519081900360640190fd5b60ff8083166000908152600a6020526040902060070154161561366a576040805162461bcd60e51b81526020600482015260196024820152600080516020615244833981519152604482015290519081900360640190fd5b806136aa576040805162461bcd60e51b815260206004820152601a60248201526000805160206152cc833981519152604482015290519081900360640190fd5b80606410156136f1576040805162461bcd60e51b815260206004820152600e60248201526d115e18d959590813505617d3919560921b604482015290519081900360640190fd5b612d198888614043565b60026000541415613741576040805162461bcd60e51b815260206004820152601f60248201526000805160206151dc833981519152604482015290519081900360640190fd5b60026000908155613750613efd565b905061375b81611dd1565b61379a576040805162461bcd60e51b8152602060048201819052602482015260008051602061528a833981519152604482015290519081900360640190fd5b50601080549115156101000261ff00199092169190911790556001600055565b60026000541415613800576040805162461bcd60e51b815260206004820152601f60248201526000805160206151dc833981519152604482015290519081900360640190fd5b6002600090815561380f613efd565b905061381a81611dd1565b613859576040805162461bcd60e51b8152602060048201819052602482015260008051602061528a833981519152604482015290519081900360640190fd5b506010805460ff19169115159190911790556001600055565b60105460ff1681565b600a6020908152600091825260409182902080548351601f600260001961010060018616150201909316929092049182018490048402810184019094528084529092918391908301828280156139125780601f106138e757610100808354040283529160200191613912565b820191906000526020600020905b8154815290600101906020018083116138f557829003601f168201915b50505050600183015460028401546003850154600486015460058701546006880154600790980154969794969395509193909260ff1688565b63f23a6e6160e01b95945050505050565b613964613efd565b6001600160a01b0316613975612833565b6001600160a01b0316146139be576040805162461bcd60e51b8152602060048201819052602482015260008051602061528a833981519152604482015290519081900360640190fd5b6001600160a01b038116613a035760405162461bcd60e51b81526004018080602001828103825260268152602001806151fc6026913960400191505060405180910390fd5b6001546040516001600160a01b038084169216907f8be0079c531659141344cd1fd0a4f28419497f9722a3daafe3b4186f6b6457e090600090a3600180546001600160a01b0319166001600160a01b0392909216919091179055565b60026000541415613aa5576040805162461bcd60e51b815260206004820152601f60248201526000805160206151dc833981519152604482015290519081900360640190fd5b60026000908155613ab4613efd565b9050613abf81611dd1565b613afe576040805162461bcd60e51b8152602060048201819052602482015260008051602061528a833981519152604482015290519081900360640190fd5b6005805483919060ff19166001836003811115613b1757fe5b021790555050600160005550565b600080600080613b35868661432e565b919550935091506000613b4787614288565b905080670de0b6b3a764000014158015613b615750600081135b8015613b70575060105460ff16155b15613c755760ff87166000908152600a6020526040812060030154613b959085613ea7565b60ff89166000908152600a602052604081206002015491925090613be4908390613bdf90613bc3908c613dd0565b60ff8d166000908152600a602052604090206004015490613ea7565b613f01565b90506000613c0582613bff85613bf988614781565b906147cb565b90614804565b905082811115613c415760ff8a166000908152600a6020526040902060030154613c3e90613c34908890614804565b613bf98386613ea7565b94505b6000613c4d8787613ea7565b9050613c5d876113158b84613dd0565b9850613c6d876113158a84613dd0565b975095505050505b5092959194509250565b60ff83166000908152600a6020526040902060020154613cbf90613ca39083613dd0565b60ff85166000908152600a602052604090206004015490613ea7565b60ff84166000908152600a6020526040902060048101919091556006810180548301905560030154613cf19083613ea7565b60ff84166000818152600a60209081526040918290206003810194909455600290930154815133815293840192909252828101919091526060820184905260808201839052517f1d52264c290e444923399d71f1a1d34e37e52c16b4e85326d5accce8653f709f9181900360a00190a1600c54613d6e9083613ea7565b600c5560ff83166000908152600a6020526040902060020154613d9e90613d959083613dd0565b600d5490613ea7565b600d55505050565b60408051602080825281830190925260609160208201818036833750505060208101929092525090565b600082613ddf57506000613e42565b82820282848281613dec57fe5b0414613e3f576040805162461bcd60e51b815260206004820152601960248201527f556e6d756c7469706c69636174696f6e206f766572666c6f7700000000000000604482015290519081900360640190fd5b90505b92915050565b6000808211613e93576040805162461bcd60e51b8152602060048201526012602482015271556e6469766973696f6e206279207a65726f60701b604482015290519081900360640190fd5b6000828481613e9e57fe5b04949350505050565b600082821115613ef7576040805162461bcd60e51b8152602060048201526016602482015275556e7375627472616374696f6e206f766572666c6f7760501b604482015290519081900360640190fd5b50900390565b3390565b600080600560019054906101000a90046001600160a01b03166001600160a01b031663161e444e6008546040518263ffffffff1660e01b81526004018082815260200191505060206040518083038186803b158015613f5f57600080fd5b505afa158015613f73573d6000803e3d6000fd5b505050506040513d6020811015613f8957600080fd5b505160055460095460408051630b0f222760e11b81526004810192909252519293506000926101009092046001600160a01b03169163161e444e91602480820192602092909190829003018186803b158015613fe457600080fd5b505afa158015613ff8573d6000803e3d6000fd5b505050506040513d602081101561400e57600080fd5b50519050600061401e83876147cb565b9050600061402c83876147cb565b90506140388282614804565b979650505050505050565b600080600080614053868661432e565b919550935091506000614065876142e3565b9050670de0b6b3a7640000811380156140865750601054610100900460ff16155b15613c755760ff87166000908152600a60205260408120600301546140ab9085614824565b60ff89166000908152600a6020526040812060020154919250906140f5908390613bdf906140d9908c613dd0565b60ff8d166000908152600a602052604090206004015490614824565b9050600061410a82613bff85613bf988614781565b905080831115613c415760ff8a166000908152600a6020526040902060030154613c3e90614139908890614804565b613bf98584613ea7565b604080516001600160a01b0380861660248301528416604482015260648082018490528251808303909101815260849091019091526020810180516001600160e01b03166323b872dd60e01b17905261419d908590614874565b50505050565b60ff83166000908152600a60205260409020600201546141c39082613dd0565b60ff84166000818152600a60209081526040918290206004810180549095019094556005840180548601905560038401805487019055600290930154815133815293840192909252828101919091526060820184905260808201839052517ff7bd85d3f10229150829e8504450ec5e026df0879e5a690aa9a5cb6bab4a51d89181900360a00190a1600c546142589083614824565b600c5560ff83166000908152600a6020526040902060020154613d9e9061427f9083613dd0565b600d5490614824565b60008061429c61429784611a3c565b61492a565b905060006142a98261497b565b90506000821380156142c3575080670de0b6b3a764000012155b156142d1579150610c4a9050565b670de0b6b3a764000092505050610c4a565b6000806142f261429784611a3c565b905060006142ff8261497b565b9050670de0b6b3a76400008213801561431757508082135b156142d1576143258261497b565b92505050610c4a565b600080600080600560019054906101000a90046001600160a01b03166001600160a01b031663161e444e6009546040518263ffffffff1660e01b81526004018082815260200191505060206040518083038186803b15801561438f57600080fd5b505afa1580156143a3573d6000803e3d6000fd5b505050506040513d60208110156143b957600080fd5b505160055460085460408051630b0f222760e11b81526004810192909252519293506000926101009092046001600160a01b03169163161e444e91602480820192602092909190829003018186803b15801561441457600080fd5b505afa158015614428573d6000803e3d6000fd5b505050506040513d602081101561443e57600080fd5b505160ff88166000908152600a60205260408120600201549192509061446f906144689089613dd0565b84906147cb565b9050600061447d8284614804565b90508094506000600760009054906101000a90046001600160a01b03166001600160a01b0316630dfe16816040518163ffffffff1660e01b815260040160206040518083038186803b1580156144d257600080fd5b505afa1580156144e6573d6000803e3d6000fd5b505050506040513d60208110156144fc57600080fd5b5051600754604080516370a0823160e01b81526001600160a01b039283166004820152905191909216916370a08231916024808301926020929190829003018186803b15801561454b57600080fd5b505afa15801561455f573d6000803e3d6000fd5b505050506040513d602081101561457557600080fd5b50516007546040805163d21220a760e01b815290519293506000926001600160a01b039092169163d21220a791600480820192602092909190829003018186803b1580156145c257600080fd5b505afa1580156145d6573d6000803e3d6000fd5b505050506040513d60208110156145ec57600080fd5b5051600754604080516370a0823160e01b81526001600160a01b039283166004820152905191909216916370a08231916024808301926020929190829003018186803b15801561463b57600080fd5b505afa15801561464f573d6000803e3d6000fd5b505050506040513d602081101561466557600080fd5b5051600754604080516318160ddd60e01b815290519293506146e9926001600160a01b03909216916318160ddd91600480820192602092909190829003018186803b1580156146b357600080fd5b505afa1580156146c7573d6000803e3d6000fd5b505050506040513d60208110156146dd57600080fd5b50516113158585613dd0565b9850614772600760009054906101000a90046001600160a01b03166001600160a01b03166318160ddd6040518163ffffffff1660e01b815260040160206040518083038186803b15801561473c57600080fd5b505afa158015614750573d6000803e3d6000fd5b505050506040513d602081101561476657600080fd5b50516113158584613dd0565b97505050505050509250925092565b6000808212156147c7576040805162461bcd60e51b815260206004820152600c60248201526b696e74206f766572666c6f7760a01b604482015290519081900360640190fd5b5090565b6000670de0b6b3a76400006147f56147e38585613dd0565b6002670de0b6b3a76400005b04614824565b816147fc57fe5b049392505050565b6000816147f561481c85670de0b6b3a7640000613dd0565b6002856147ef565b600082820183811015613e3f576040805162461bcd60e51b8152602060048201526013602482015272556e6164646974696f6e206f766572666c6f7760681b604482015290519081900360640190fd5b60606148c9826040518060400160405280602081526020017f5361666545524332303a206c6f772d6c6576656c2063616c6c206661696c6564815250856001600160a01b03166149b39092919063ffffffff16565b805190915015614925578080602001905160208110156148e857600080fd5b50516149255760405162461bcd60e51b815260040180806020018281038252602a8152602001806152ec602a913960400191505060405180910390fd5b505050565b60006001600160ff1b038211156147c7576040805162461bcd60e51b815260206004820152601060248201526f75696e74323536206f766572666c6f7760801b604482015290519081900360640190fd5b6000613e426149a4670de0b6b3a764000061499e6781103cb9fb220000866149cc565b90614a01565b678ac7230489e8000090614a70565b60606149c28484600085614a8c565b90505b9392505050565b6000670de0b6b3a76400006149f26149e48585614bdd565b670de0b6b3a7640000614ca8565b816149f957fe5b059392505050565b6000828201818312801590614a165750838112155b80614a2b5750600083128015614a2b57508381125b613e3f576040805162461bcd60e51b81526020600482015260116024820152706164646974696f6e206f766572666c6f7760781b604482015290519081900360640190fd5b6000613e3f614a7e83614d27565b614a8785614d27565b615002565b606082471015614acd5760405162461bcd60e51b81526004018080602001828103825260268152602001806152646026913960400191505060405180910390fd5b614ad685615035565b614b27576040805162461bcd60e51b815260206004820152601d60248201527f416464726573733a2063616c6c20746f206e6f6e2d636f6e7472616374000000604482015290519081900360640190fd5b60006060866001600160a01b031685876040518082805190602001908083835b60208310614b665780518252601f199092019160209182019101614b47565b6001836020036101000a03801982511681845116808217855250505050505090500191505060006040518083038185875af1925050503d8060008114614bc8576040519150601f19603f3d011682016040523d82523d6000602084013e614bcd565b606091505b509150915061403882828661503b565b600082614bec57506000613e42565b82600019148015614c005750600160ff1b82145b15614c4d576040805162461bcd60e51b8152602060048201526018602482015277776d756c7469706c69636174696f6e206f766572666c6f7760401b604482015290519081900360640190fd5b82820282848281614c5a57fe5b0514613e3f576040805162461bcd60e51b8152602060048201526018602482015277776d756c7469706c69636174696f6e206f766572666c6f7760401b604482015290519081900360640190fd5b6000808213614cfe576040805162461bcd60e51b815260206004820152601f60248201527f726f756e6448616c665570206f6e6c7920737570706f7274732079203e203000604482015290519081900360640190fd5b60008312614d1a57614d138360028405614a01565b9050613e42565b613e3f83600284056150df565b6000808213614d7d576040805162461bcd60e51b815260206004820152601760248201527f6c6f6745206f66206e65676174697665206e756d626572000000000000000000604482015290519081900360640190fd5b701d6329f1c35ca4bfabb9f5610000000000821315614dcd5760405162461bcd60e51b81526004018080602001828103825260228152602001806152226022913960400191505060405180910390fd5b60006012670de0b6b3a76400005b67016345785d8a00008513614e0a5784600a0294506f01bb7635c5de48ef4ce5b7b41cc43db083039250614ddb565b678ac7230489e800008512614e3957600a850594506f01bb7635c5de48ef4ce5b7b41cc43db083019250614e0a565b670de0b6b3a7640000851215614e7657614e5b856725b946ebc0b361736149cc565b94506ec097ce7bc90715b34b9f100000000083039250614e39565b6725b946ebc0b36173851315614eb357614e98856725b946ebc0b36173615002565b94506ec097ce7bc90715b34b9f100000000083019250614e76565b670de0b6b3a7640000851415614ee05780614ece8483614ca8565b81614ed557fe5b059350505050610c4a565b6725b946ebc0b36173851415614f175780614efb8483614ca8565b81614f0257fe5b05670de0b6b3a7640000019350505050610c4a565b938402936e4e16f927cdca7f15b39123f740f5d192909201916f0120e3b5b9ad8aa08cf16e980000000060008187016ec097ce7bc90715b34b9f10000000006f0120e3b5b9ad8aa08cf16e97ffffffff1989010281614f7257fe5b059050806002028501945060006ec097ce7bc90715b34b9f100000000082830281614f9957fe5b05905060035b6ec097ce7bc90715b34b9f10000000008383020592508060ff168360020281614fc457fe5b059690960195600201602760ff821610614fdd57614fe2565b614f9f565b84614fed8887614ca8565b81614ff457fe5b059998505050505050505050565b600080821215615019578160000391508260000392505b816149f261502f85670de0b6b3a7640000614bdd565b84614ca8565b3b151590565b6060831561504a5750816149c5565b82511561505a5782518084602001fd5b8160405162461bcd60e51b81526004018080602001828103825283818151815260200191508051906020019080838360005b838110156150a457818101518382015260200161508c565b50505050905090810190601f1680156150d15780820380516001836020036101000a031916815260200191505b509250505060405180910390fd5b60008183038183128015906150f45750838113155b80615109575060008312801561510957508381135b613e3f576040805162461bcd60e51b81526020600482015260146024820152737375627472616374696f6e206f766572666c6f7760601b604482015290519081900360640190fd5b828054600181600116156101000203166002900490600052602060002090601f016020900481019282601f1061519257805160ff19168380011785556151bf565b828001600101855582156151bf579182015b828111156151bf5782518255916020019190600101906151a4565b506147c79291505b808211156147c757600081556001016151c756fe5265656e7472616e637947756172643a207265656e7472616e742063616c6c004f776e61626c653a206e6577206f776e657220697320746865207a65726f20616464726573736c6f6745206f6e6c7920616363657074732076203c3d2031653232202a203165313854686520676976656e205f69642069732064697361626c656400000000000000416464726573733a20696e73756666696369656e742062616c616e636520666f722063616c6c4f776e61626c653a2063616c6c6572206973206e6f7420746865206f776e6572636f6c6c61746572616c536861726553796d626f6c206973206e6f742076616c69645f746f6b656e416d6f756e742063616e2774206265207a65726f0000000000005361666545524332303a204552433230206f7065726174696f6e20646964206e6f742073756363656564a26469706673582212201ea9a2b6c0ed539a5385971a32e2b218cd8cb14d2b96e88a40dd42f21943353764736f6c634300060c003360806040526006805460ff191690553480156200001b57600080fd5b506040516200396238038062003962833981810160405260408110156200004157600080fd5b81019080805160405193929190846401000000008211156200006257600080fd5b9083019060208201858111156200007857600080fd5b82516401000000008111828201881017156200009357600080fd5b82525081516020918201929091019080838360005b83811015620000c2578181015183820152602001620000a8565b50505050905090810190601f168015620000f05780820380516001836020036101000a031916815260200191505b50604052602001805160405193929190846401000000008211156200011457600080fd5b9083019060208201858111156200012a57600080fd5b82516401000000008111828201881017156200014557600080fd5b82525081516020918201929091019080838360005b83811015620001745781810151838201526020016200015a565b50505050905090810190601f168015620001a25780820380516001836020036101000a031916815260200191505b5060405250829150620001be90506301ffc9a760e01b6200033e565b620001c981620003c3565b620001db636cdb3d1360e11b6200033e565b620001ed6303a24d0760e21b6200033e565b506000620001fa620003dc565b600480546001600160a01b0319166001600160a01b038316908117909155604051919250906000907f8be0079c531659141344cd1fd0a4f28419497f9722a3daafe3b4186f6b6457e0908290a350600062000254620003dc565b6001600160a01b03166000908152600560205260409020805460ff19166001179055506200028233620003f9565b8151620002979060099060208501906200065e565b5060098054604080516020601f600260001961010060018816150201909516949094049384018190048102820181019092528281526200033693909290918301828280156200032a5780601f10620002fe576101008083540402835291602001916200032a565b820191906000526020600020905b8154815290600101906020018083116200030c57829003601f168201915b5050620004b392505050565b5050620006fa565b6001600160e01b031980821614156200039e576040805162461bcd60e51b815260206004820152601c60248201527f4552433136353a20696e76616c696420696e7465726661636520696400000000604482015290519081900360640190fd5b6001600160e01b0319166000908152602081905260409020805460ff19166001179055565b8051620003d89060039060208401906200065e565b5050565b6000620003f36200051860201b62001f111760201c565b90505b90565b600062000405620003dc565b9050620004128162000577565b62000464576040805162461bcd60e51b815260206004820181905260248201527f4f776e61626c653a2063616c6c6572206973206e6f7420746865206f776e6572604482015290519081900360640190fd5b6001600160a01b03821660009081526005602052604090205460ff16156200048c57620003d8565b6001600160a01b0382166000908152600560205260409020805460ff191660011790555050565b60065460ff1615620004fd576040805162461bcd60e51b815260206004820152600e60248201526d185b1c9958591e481a5b9a5d195960921b604482015290519081900360640190fd5b620005088162000595565b506006805460ff19166001179055565b600033301415620005725760606000368080601f0160208091040260200160405190810160405280939291908181526020018383808284376000920191909152505050503601516001600160a01b03169150620003f69050565b503390565b6001600160a01b031660009081526005602052604090205460ff1690565b6040518060800160405280604f815260200162003913604f913980516020918201208251838301206040805180820190915260018152603160f81b930192909252907fc89efdaa54c0f20c7adf612882df0950f5a951637e0307cdcb4c672f298b8bc630620006036200065a565b60001b60405160200180868152602001858152602001848152602001836001600160a01b03168152602001828152602001955050505050506040516020818303038152906040528051906020012060078190555050565b4690565b828054600181600116156101000203166002900490600052602060002090601f016020900481019282601f10620006a157805160ff1916838001178555620006d1565b82800160010185558215620006d1579182015b82811115620006d1578251825591602001919060010190620006b4565b50620006df929150620006e3565b5090565b5b80821115620006df5760008155600101620006e4565b613209806200070a6000396000f3fe6080604052600436106101655760003560e01c80633af32abf116100d15780638da5cb5b1161008a578063e985e9c511610064578063e985e9c514610cd2578063f242432a14610d0d578063f2fde38b14610de3578063f5298aca14610e1657610165565b80638da5cb5b14610bb55780639b642de114610be6578063a22cb46514610c9757610165565b80633af32abf146107ad5780634ba79dfe146107e05780634e1273f4146108135780636b20c45414610993578063715018a614610ad3578063731133e914610ae857610165565b80631f7fdffa116101235780631f7fdffa1461038857806320379ee51461054d5780632d0335ab146105625780632eb2c2d6146105955780633408e4701461076557806338eada1c1461077a57610165565b8062fdd58e1461016a57806301ffc9a7146101b557806306fdde03146101fd5780630c53c51c146102875780630e89341c146103495780630f7e597014610373575b600080fd5b34801561017657600080fd5b506101a36004803603604081101561018d57600080fd5b506001600160a01b038135169060200135610e55565b60408051918252519081900360200190f35b3480156101c157600080fd5b506101e9600480360360208110156101d857600080fd5b50356001600160e01b031916610ec7565b604080519115158252519081900360200190f35b34801561020957600080fd5b50610212610ee6565b6040805160208082528351818301528351919283929083019185019080838360005b8381101561024c578181015183820152602001610234565b50505050905090810190601f1680156102795780820380516001836020036101000a031916815260200191505b509250505060405180910390f35b610212600480360360a081101561029d57600080fd5b6001600160a01b038235169190810190604081016020820135600160201b8111156102c757600080fd5b8201836020820111156102d957600080fd5b803590602001918460018302840111600160201b831117156102fa57600080fd5b91908080601f016020809104026020016040519081016040528093929190818152602001838380828437600092019190915250929550508235935050506020810135906040013560ff16610f74565b34801561035557600080fd5b506102126004803603602081101561036c57600080fd5b503561124a565b34801561037f57600080fd5b506102126112e2565b34801561039457600080fd5b506101e9600480360360808110156103ab57600080fd5b6001600160a01b038235169190810190604081016020820135600160201b8111156103d557600080fd5b8201836020820111156103e757600080fd5b803590602001918460208302840111600160201b8311171561040857600080fd5b9190808060200260200160405190810160405280939291908181526020018383602002808284376000920191909152509295949360208101935035915050600160201b81111561045757600080fd5b82018360208201111561046957600080fd5b803590602001918460208302840111600160201b8311171561048a57600080fd5b9190808060200260200160405190810160405280939291908181526020018383602002808284376000920191909152509295949360208101935035915050600160201b8111156104d957600080fd5b8201836020820111156104eb57600080fd5b803590602001918460018302840111600160201b8311171561050c57600080fd5b91908080601f0160208091040260200160405190810160405280939291908181526020018383808284376000920191909152509295506112ff945050505050565b34801561055957600080fd5b506101a361136c565b34801561056e57600080fd5b506101a36004803603602081101561058557600080fd5b50356001600160a01b0316611373565b3480156105a157600080fd5b50610763600480360360a08110156105b857600080fd5b6001600160a01b038235811692602081013590911691810190606081016040820135600160201b8111156105eb57600080fd5b8201836020820111156105fd57600080fd5b803590602001918460208302840111600160201b8311171561061e57600080fd5b9190808060200260200160405190810160405280939291908181526020018383602002808284376000920191909152509295949360208101935035915050600160201b81111561066d57600080fd5b82018360208201111561067f57600080fd5b803590602001918460208302840111600160201b831117156106a057600080fd5b9190808060200260200160405190810160405280939291908181526020018383602002808284376000920191909152509295949360208101935035915050600160201b8111156106ef57600080fd5b82018360208201111561070157600080fd5b803590602001918460018302840111600160201b8311171561072257600080fd5b91908080601f01602080910402602001604051908101604052809392919081815260200183838082843760009201919091525092955061138e945050505050565b005b34801561077157600080fd5b506101a361168c565b34801561078657600080fd5b506107636004803603602081101561079d57600080fd5b50356001600160a01b0316611690565b3480156107b957600080fd5b506101e9600480360360208110156107d057600080fd5b50356001600160a01b0316611732565b3480156107ec57600080fd5b506107636004803603602081101561080357600080fd5b50356001600160a01b0316611750565b34801561081f57600080fd5b506109436004803603604081101561083657600080fd5b810190602081018135600160201b81111561085057600080fd5b82018360208201111561086257600080fd5b803590602001918460208302840111600160201b8311171561088357600080fd5b9190808060200260200160405190810160405280939291908181526020018383602002808284376000920191909152509295949360208101935035915050600160201b8111156108d257600080fd5b8201836020820111156108e457600080fd5b803590602001918460208302840111600160201b8311171561090557600080fd5b9190808060200260200160405190810160405280939291908181526020018383602002808284376000920191909152509295506117eb945050505050565b60408051602080825283518183015283519192839290830191858101910280838360005b8381101561097f578181015183820152602001610967565b505050509050019250505060405180910390f35b34801561099f57600080fd5b50610763600480360360608110156109b657600080fd5b6001600160a01b038235169190810190604081016020820135600160201b8111156109e057600080fd5b8201836020820111156109f257600080fd5b803590602001918460208302840111600160201b83111715610a1357600080fd5b9190808060200260200160405190810160405280939291908181526020018383602002808284376000920191909152509295949360208101935035915050600160201b811115610a6257600080fd5b820183602082011115610a7457600080fd5b803590602001918460208302840111600160201b83111715610a9557600080fd5b9190808060200260200160405190810160405280939291908181526020018383602002808284376000920191909152509295506118d7945050505050565b348015610adf57600080fd5b5061076361193c565b348015610af457600080fd5b506101e960048036036080811015610b0b57600080fd5b6001600160a01b038235169160208101359160408201359190810190608081016060820135600160201b811115610b4157600080fd5b820183602082011115610b5357600080fd5b803590602001918460018302840111600160201b83111715610b7457600080fd5b91908080601f0160208091040260200160405190810160405280939291908181526020018383808284376000920191909152509295506119e8945050505050565b348015610bc157600080fd5b50610bca611a49565b604080516001600160a01b039092168252519081900360200190f35b348015610bf257600080fd5b5061076360048036036020811015610c0957600080fd5b810190602081018135600160201b811115610c2357600080fd5b820183602082011115610c3557600080fd5b803590602001918460018302840111600160201b83111715610c5657600080fd5b91908080601f016020809104026020016040519081016040528093929190818152602001838380828437600092019190915250929550611a58945050505050565b348015610ca357600080fd5b5061076360048036036040811015610cba57600080fd5b506001600160a01b0381351690602001351515611ab5565b348015610cde57600080fd5b506101e960048036036040811015610cf557600080fd5b506001600160a01b0381358116916020013516611ba4565b348015610d1957600080fd5b50610763600480360360a0811015610d3057600080fd5b6001600160a01b03823581169260208101359091169160408201359160608101359181019060a081016080820135600160201b811115610d6f57600080fd5b820183602082011115610d8157600080fd5b803590602001918460018302840111600160201b83111715610da257600080fd5b91908080601f016020809104026020016040519081016040528093929190818152602001838380828437600092019190915250929550611be4945050505050565b348015610def57600080fd5b5061076360048036036020811015610e0657600080fd5b50356001600160a01b0316611daf565b348015610e2257600080fd5b5061076360048036036060811015610e3957600080fd5b506001600160a01b038135169060208101359060400135611eb2565b60006001600160a01b038316610e9c5760405162461bcd60e51b815260040180806020018281038252602b815260200180612f4e602b913960400191505060405180910390fd5b5060008181526001602090815260408083206001600160a01b03861684529091529020545b92915050565b6001600160e01b03191660009081526020819052604090205460ff1690565b6009805460408051602060026001851615610100026000190190941693909304601f81018490048402820184019092528181529291830182828015610f6c5780601f10610f4157610100808354040283529160200191610f6c565b820191906000526020600020905b815481529060010190602001808311610f4f57829003601f168201915b505050505081565b6060610f7e612d89565b50604080516060810182526001600160a01b03881660008181526008602090815290849020548352820152908101869052610fbc8782878787611f6e565b610ff75760405162461bcd60e51b81526004018080602001828103825260218152602001806131186021913960400191505060405180910390fd5b6001600160a01b03871660008181526008602090815260408083208054600101905580519384523384830181905260609185018281528b51928601929092528a517f5845892132946850460bff5a0083f71031bc5bf9aadcd40f1de79423eac9b10b958d9592948d94919391926080850192918601918190849084905b8381101561108c578181015183820152602001611074565b50505050905090810190601f1680156110b95780820380516001836020036101000a031916815260200191505b5094505050505060405180910390a160006060306001600160a01b0316888a6040516020018083805190602001908083835b6020831061110a5780518252601f1990920191602091820191016110eb565b6001836020036101000a038019825116818451168082178552505050505050905001826001600160a01b031660601b8152601401925050506040516020818303038152906040526040518082805190602001908083835b602083106111805780518252601f199092019160209182019101611161565b6001836020036101000a0380198251168184511680821785525050505050509050019150506000604051808303816000865af19150503d80600081146111e2576040519150601f19603f3d011682016040523d82523d6000602084013e6111e7565b606091505b50915091508161123e576040805162461bcd60e51b815260206004820152601c60248201527f46756e6374696f6e2063616c6c206e6f74207375636365737366756c00000000604482015290519081900360640190fd5b98975050505050505050565b60038054604080516020601f60026000196101006001881615020190951694909404938401819004810282018101909252828152606093909290918301828280156112d65780601f106112ab576101008083540402835291602001916112d6565b820191906000526020600020905b8154815290600101906020018083116112b957829003601f168201915b50505050509050919050565b604051806040016040528060018152602001603160f81b81525081565b60008061130a612048565b905061131581611732565b611354576040805162461bcd60e51b815260206004820181905260248201526000805160206130f8833981519152604482015290519081900360640190fd5b61136086868686612057565b50600195945050505050565b6007545b90565b6001600160a01b031660009081526008602052604090205490565b81518351146113ce5760405162461bcd60e51b815260040180806020018281038252602881526020018061318b6028913960400191505060405180910390fd5b6001600160a01b0384166114135760405162461bcd60e51b81526004018080602001828103825260258152602001806130546025913960400191505060405180910390fd5b61141b612048565b6001600160a01b0316856001600160a01b03161480611446575061144685611441612048565b611ba4565b6114815760405162461bcd60e51b81526004018080602001828103825260328152602001806130796032913960400191505060405180910390fd5b600061148b612048565b905061149b818787878787611684565b60005b845181101561159c5760008582815181106114b557fe5b6020026020010151905060008583815181106114cd57fe5b6020026020010151905061153a816040518060600160405280602a81526020016130ce602a91396001600086815260200190815260200160002060008d6001600160a01b03166001600160a01b03168152602001908152602001600020546122ac9092919063ffffffff16565b60008381526001602090815260408083206001600160a01b038e811685529252808320939093558a16815220546115719082612343565b60009283526001602081815260408086206001600160a01b038d16875290915290932055500161149e565b50846001600160a01b0316866001600160a01b0316826001600160a01b03167f4a39dc06d4c0dbc64b70af90fd698a233a518aa5d07e595d983b8c0526c8f7fb8787604051808060200180602001838103835285818151815260200191508051906020019060200280838360005b8381101561162257818101518382015260200161160a565b50505050905001838103825284818151815260200191508051906020019060200280838360005b83811015611661578181015183820152602001611649565b5050505090500194505050505060405180910390a461168481878787878761239d565b505050505050565b4690565b600061169a612048565b90506116a581611732565b6116e4576040805162461bcd60e51b815260206004820181905260248201526000805160206130f8833981519152604482015290519081900360640190fd5b6001600160a01b03821660009081526005602052604090205460ff161561170a5761172e565b6001600160a01b0382166000908152600560205260409020805460ff191660011790555b5050565b6001600160a01b031660009081526005602052604090205460ff1690565b600061175a612048565b905061176581611732565b6117a4576040805162461bcd60e51b815260206004820181905260248201526000805160206130f8833981519152604482015290519081900360640190fd5b6001600160a01b03821660009081526005602052604090205460ff166117c95761172e565b506001600160a01b03166000908152600560205260409020805460ff19169055565b6060815183511461182d5760405162461bcd60e51b81526004018080602001828103825260298152602001806131626029913960400191505060405180910390fd5b6060835167ffffffffffffffff8111801561184757600080fd5b50604051908082528060200260200182016040528015611871578160200160208202803683370190505b50905060005b84518110156118cf576118b085828151811061188f57fe5b60200260200101518583815181106118a357fe5b6020026020010151610e55565b8282815181106118bc57fe5b6020908102919091010152600101611877565b509392505050565b60006118e1612048565b90506118ec81611732565b61192b576040805162461bcd60e51b815260206004820181905260248201526000805160206130f8833981519152604482015290519081900360640190fd5b61193684848461261c565b50505050565b611944612048565b6001600160a01b0316611955611a49565b6001600160a01b03161461199e576040805162461bcd60e51b815260206004820181905260248201526000805160206130f8833981519152604482015290519081900360640190fd5b6004546040516000916001600160a01b0316907f8be0079c531659141344cd1fd0a4f28419497f9722a3daafe3b4186f6b6457e0908390a3600480546001600160a01b0319169055565b6000806119f3612048565b90506119fe81611732565b611a3d576040805162461bcd60e51b815260206004820181905260248201526000805160206130f8833981519152604482015290519081900360640190fd5b6113608686868661288a565b6004546001600160a01b031690565b6000611a62612048565b9050611a6d81611732565b611aac576040805162461bcd60e51b815260206004820181905260248201526000805160206130f8833981519152604482015290519081900360640190fd5b61172e8261298b565b816001600160a01b0316611ac7612048565b6001600160a01b03161415611b0d5760405162461bcd60e51b81526004018080602001828103825260298152602001806131396029913960400191505060405180910390fd5b8060026000611b1a612048565b6001600160a01b03908116825260208083019390935260409182016000908120918716808252919093529120805460ff191692151592909217909155611b5e612048565b6001600160a01b03167f17307eab39ab6107e8899845ad3d59bd9653f200f220920489ca2b5937696c318360405180821515815260200191505060405180910390a35050565b60006001600160a01b03821673207fa8df3a17d96ca7ea4f2893fcdcb78a3041011415611bd357506001610ec1565b611bdd838361299e565b9392505050565b6001600160a01b038416611c295760405162461bcd60e51b81526004018080602001828103825260258152602001806130546025913960400191505060405180910390fd5b611c31612048565b6001600160a01b0316856001600160a01b03161480611c575750611c5785611441612048565b611c925760405162461bcd60e51b81526004018080602001828103825260298152602001806130066029913960400191505060405180910390fd5b6000611c9c612048565b9050611cbc818787611cad886129cc565b611cb6886129cc565b87611684565b611d03836040518060600160405280602a81526020016130ce602a913960008781526001602090815260408083206001600160a01b038d16845290915290205491906122ac565b60008581526001602090815260408083206001600160a01b038b81168552925280832093909355871681522054611d3a9084612343565b60008581526001602090815260408083206001600160a01b03808b168086529184529382902094909455805188815291820187905280518a8416938616927fc3d58168c5ae7397731d063d5bbf3d657854427343f4c083240f7aacaa2d0f6292908290030190a4611684818787878787612a10565b611db7612048565b6001600160a01b0316611dc8611a49565b6001600160a01b031614611e11576040805162461bcd60e51b815260206004820181905260248201526000805160206130f8833981519152604482015290519081900360640190fd5b6001600160a01b038116611e565760405162461bcd60e51b8152600401808060200182810382526026815260200180612fbc6026913960400191505060405180910390fd5b6004546040516001600160a01b038084169216907f8be0079c531659141344cd1fd0a4f28419497f9722a3daafe3b4186f6b6457e090600090a3600480546001600160a01b0319166001600160a01b0392909216919091179055565b6000611ebc612048565b9050611ec781611732565b611f06576040805162461bcd60e51b815260206004820181905260248201526000805160206130f8833981519152604482015290519081900360640190fd5b611936848484612b81565b600033301415611f695760606000368080601f0160208091040260200160405190810160405280939291908181526020018383808284376000920191909152505050503601516001600160a01b031691506113709050565b503390565b60006001600160a01b038616611fb55760405162461bcd60e51b815260040180806020018281038252602581526020018061302f6025913960400191505060405180910390fd5b6001611fc8611fc387612cb4565b612d37565b83868660405160008152602001604052604051808581526020018460ff1681526020018381526020018281526020019450505050506020604051602081039080840390855afa15801561201f573d6000803e3d6000fd5b505050602060405103516001600160a01b0316866001600160a01b031614905095945050505050565b6000612052611f11565b905090565b6001600160a01b03841661209c5760405162461bcd60e51b81526004018080602001828103825260218152602001806131b36021913960400191505060405180910390fd5b81518351146120dc5760405162461bcd60e51b815260040180806020018281038252602881526020018061318b6028913960400191505060405180910390fd5b60006120e6612048565b90506120f781600087878787611684565b60005b84518110156121bb576121726001600087848151811061211657fe5b602002602001015181526020019081526020016000206000886001600160a01b03166001600160a01b031681526020019081526020016000205485838151811061215c57fe5b602002602001015161234390919063ffffffff16565b6001600087848151811061218257fe5b602090810291909101810151825281810192909252604090810160009081206001600160a01b038b1682529092529020556001016120fa565b50846001600160a01b031660006001600160a01b0316826001600160a01b03167f4a39dc06d4c0dbc64b70af90fd698a233a518aa5d07e595d983b8c0526c8f7fb8787604051808060200180602001838103835285818151815260200191508051906020019060200280838360005b8381101561224257818101518382015260200161222a565b50505050905001838103825284818151815260200191508051906020019060200280838360005b83811015612281578181015183820152602001612269565b5050505090500194505050505060405180910390a46122a58160008787878761239d565b5050505050565b6000818484111561233b5760405162461bcd60e51b81526004018080602001828103825283818151815260200191508051906020019080838360005b838110156123005781810151838201526020016122e8565b50505050905090810190601f16801561232d5780820380516001836020036101000a031916815260200191505b509250505060405180910390fd5b505050900390565b600082820183811015611bdd576040805162461bcd60e51b815260206004820152601b60248201527f536166654d6174683a206164646974696f6e206f766572666c6f770000000000604482015290519081900360640190fd5b6123af846001600160a01b0316612d83565b1561168457836001600160a01b031663bc197c8187878686866040518663ffffffff1660e01b815260040180866001600160a01b03168152602001856001600160a01b03168152602001806020018060200180602001848103845287818151815260200191508051906020019060200280838360005b8381101561243d578181015183820152602001612425565b50505050905001848103835286818151815260200191508051906020019060200280838360005b8381101561247c578181015183820152602001612464565b50505050905001848103825285818151815260200191508051906020019080838360005b838110156124b85781810151838201526020016124a0565b50505050905090810190601f1680156124e55780820380516001836020036101000a031916815260200191505b5098505050505050505050602060405180830381600087803b15801561250a57600080fd5b505af192505050801561252f57506040513d602081101561252a57600080fd5b505160015b6125c45761253b612e4c565b80612546575061258d565b60405162461bcd60e51b81526020600482018181528351602484015283518493919283926044019190850190808383600083156123005781810151838201526020016122e8565b60405162461bcd60e51b8152600401808060200182810382526034815260200180612ef26034913960400191505060405180910390fd5b6001600160e01b0319811663bc197c8160e01b146126135760405162461bcd60e51b8152600401808060200182810382526028815260200180612f266028913960400191505060405180910390fd5b50505050505050565b6001600160a01b0383166126615760405162461bcd60e51b81526004018080602001828103825260238152602001806130ab6023913960400191505060405180910390fd5b80518251146126a15760405162461bcd60e51b815260040180806020018281038252602881526020018061318b6028913960400191505060405180910390fd5b60006126ab612048565b90506126cb81856000868660405180602001604052806000815250611684565b60005b83518110156127a9576127608382815181106126e657fe5b6020026020010151604051806060016040528060248152602001612fe2602491396001600088868151811061271757fe5b602002602001015181526020019081526020016000206000896001600160a01b03166001600160a01b03168152602001908152602001600020546122ac9092919063ffffffff16565b6001600086848151811061277057fe5b602090810291909101810151825281810192909252604090810160009081206001600160a01b038a1682529092529020556001016126ce565b5060006001600160a01b0316846001600160a01b0316826001600160a01b03167f4a39dc06d4c0dbc64b70af90fd698a233a518aa5d07e595d983b8c0526c8f7fb8686604051808060200180602001838103835285818151815260200191508051906020019060200280838360005b83811015612830578181015183820152602001612818565b50505050905001838103825284818151815260200191508051906020019060200280838360005b8381101561286f578181015183820152602001612857565b5050505090500194505050505060405180910390a450505050565b6001600160a01b0384166128cf5760405162461bcd60e51b81526004018080602001828103825260218152602001806131b36021913960400191505060405180910390fd5b60006128d9612048565b90506128eb81600087611cad886129cc565b60008481526001602090815260408083206001600160a01b03891684529091529020546129189084612343565b60008581526001602090815260408083206001600160a01b03808b16808652918452828520959095558151898152928301889052815190948616927fc3d58168c5ae7397731d063d5bbf3d657854427343f4c083240f7aacaa2d0f6292908290030190a46122a581600087878787612a10565b805161172e906003906020840190612db3565b6001600160a01b03918216600090815260026020908152604080832093909416825291909152205460ff1690565b6040805160018082528183019092526060918291906020808301908036833701905050905082816000815181106129ff57fe5b602090810291909101015292915050565b612a22846001600160a01b0316612d83565b1561168457836001600160a01b031663f23a6e6187878686866040518663ffffffff1660e01b815260040180866001600160a01b03168152602001856001600160a01b0316815260200184815260200183815260200180602001828103825283818151815260200191508051906020019080838360005b83811015612ab1578181015183820152602001612a99565b50505050905090810190601f168015612ade5780820380516001836020036101000a031916815260200191505b509650505050505050602060405180830381600087803b158015612b0157600080fd5b505af1925050508015612b2657506040513d6020811015612b2157600080fd5b505160015b612b325761253b612e4c565b6001600160e01b0319811663f23a6e6160e01b146126135760405162461bcd60e51b8152600401808060200182810382526028815260200180612f266028913960400191505060405180910390fd5b6001600160a01b038316612bc65760405162461bcd60e51b81526004018080602001828103825260238152602001806130ab6023913960400191505060405180910390fd5b6000612bd0612048565b9050612c0081856000612be2876129cc565b612beb876129cc565b60405180602001604052806000815250611684565b612c4782604051806060016040528060248152602001612fe26024913960008681526001602090815260408083206001600160a01b038b16845290915290205491906122ac565b60008481526001602090815260408083206001600160a01b03808a16808652918452828520959095558151888152928301879052815193949093908616927fc3d58168c5ae7397731d063d5bbf3d657854427343f4c083240f7aacaa2d0f6292908290030190a450505050565b6000604051806080016040528060438152602001612f7960439139805190602001208260000151836020015184604001518051906020012060405160200180858152602001848152602001836001600160a01b03168152602001828152602001945050505050604051602081830303815290604052805190602001209050919050565b6000612d4161136c565b82604051602001808061190160f01b81525060020183815260200182815260200192505050604051602081830303815290604052805190602001209050919050565b3b151590565b60405180606001604052806000815260200160006001600160a01b03168152602001606081525090565b828054600181600116156101000203166002900490600052602060002090601f016020900481019282601f10612df457805160ff1916838001178555612e21565b82800160010185558215612e21579182015b82811115612e21578251825591602001919060010190612e06565b50612e2d929150612e31565b5090565b5b80821115612e2d5760008155600101612e32565b60e01c90565b600060443d1015612e5c57611370565b600481823e6308c379a0612e708251612e46565b14612e7a57611370565b6040513d600319016004823e80513d67ffffffffffffffff8160248401118184111715612eaa5750505050611370565b82840192508251915080821115612ec45750505050611370565b503d83016020828401011115612edc57505050611370565b601f01601f191681016020016040529150509056fe455243313135353a207472616e7366657220746f206e6f6e2045524331313535526563656976657220696d706c656d656e746572455243313135353a204552433131353552656365697665722072656a656374656420746f6b656e73455243313135353a2062616c616e636520717565727920666f7220746865207a65726f20616464726573734d6574615472616e73616374696f6e2875696e74323536206e6f6e63652c616464726573732066726f6d2c62797465732066756e6374696f6e5369676e6174757265294f776e61626c653a206e6577206f776e657220697320746865207a65726f2061646472657373455243313135353a206275726e20616d6f756e7420657863656564732062616c616e6365455243313135353a2063616c6c6572206973206e6f74206f776e6572206e6f7220617070726f7665644e61746976654d6574615472616e73616374696f6e3a20494e56414c49445f5349474e4552455243313135353a207472616e7366657220746f20746865207a65726f2061646472657373455243313135353a207472616e736665722063616c6c6572206973206e6f74206f776e6572206e6f7220617070726f766564455243313135353a206275726e2066726f6d20746865207a65726f2061646472657373455243313135353a20696e73756666696369656e742062616c616e636520666f72207472616e736665724f776e61626c653a2063616c6c6572206973206e6f7420746865206f776e65725369676e657220616e64207369676e617475726520646f206e6f74206d61746368455243313135353a2073657474696e6720617070726f76616c2073746174757320666f722073656c66455243313135353a206163636f756e747320616e6420696473206c656e677468206d69736d61746368455243313135353a2069647320616e6420616d6f756e7473206c656e677468206d69736d61746368455243313135353a206d696e7420746f20746865207a65726f2061646472657373a264697066735822122041e722e584d7bb9e947c7f0ae7b26c9d63ba8d3b7480bde8e89214962fa114ab64736f6c634300060c0033454950373132446f6d61696e28737472696e67206e616d652c737472696e672076657273696f6e2c6164647265737320766572696679696e67436f6e74726163742c627974657333322073616c7429",
  "devdoc": {
    "kind": "dev",
    "methods": {
      "addAddress(address)": {
        "details": "adds a given address to the whitelist ",
        "params": {
          "_address": "address to add"
        }
      },
      "isWhitelisted(address)": {
        "details": "returns true if a given address is whitelisted, false if not ",
        "params": {
          "_address": "address to check "
        },
        "returns": {
          "_0": "true if the address is whitelisted, false if not"
        }
      },
      "owner()": {
        "details": "Returns the address of the current owner."
      },
      "removeAddress(address)": {
        "details": "removes a given address from the whitelist ",
        "params": {
          "_address": "address to remove"
        }
      },
      "renounceOwnership()": {
        "details": "Leaves the contract without owner. It will not be possible to call `onlyOwner` functions anymore. Can only be called by the current owner. NOTE: Renouncing ownership will leave the contract without an owner, thereby removing any functionality that is only available to the owner."
      },
      "supportsInterface(bytes4)": {
        "details": "See {IERC165-supportsInterface}. Time complexity O(1), guaranteed to always use less than 30 000 gas."
      },
      "transferOwnership(address)": {
        "details": "Transfers ownership of the contract to a new account (`newOwner`). Can only be called by the current owner."
      }
    },
    "title": "A contract to collaterizes LP and mints NFT",
    "version": 1
  },
  "userdoc": {
    "kind": "user",
    "methods": {},
    "version": 1
  },
  "storageLayout": {
    "storage": [
      {
        "astId": 5162,
        "contract": "contracts/NFTManager.sol:NFTManager",
        "label": "_status",
        "offset": 0,
        "slot": "0",
        "type": "t_uint256"
      },
      {
        "astId": 53,
        "contract": "contracts/NFTManager.sol:NFTManager",
        "label": "_owner",
        "offset": 0,
        "slot": "1",
        "type": "t_address"
      },
      {
        "astId": 10818,
        "contract": "contracts/NFTManager.sol:NFTManager",
        "label": "whitelist",
        "offset": 0,
        "slot": "2",
        "type": "t_mapping(t_address,t_bool)"
      },
      {
        "astId": 169,
        "contract": "contracts/NFTManager.sol:NFTManager",
        "label": "_supportedInterfaces",
        "offset": 0,
        "slot": "3",
        "type": "t_mapping(t_bytes4,t_bool)"
      },
      {
        "astId": 5335,
        "contract": "contracts/NFTManager.sol:NFTManager",
        "label": "name",
        "offset": 0,
        "slot": "4",
        "type": "t_string_storage"
      },
      {
        "astId": 5337,
        "contract": "contracts/NFTManager.sol:NFTManager",
        "label": "state",
        "offset": 0,
        "slot": "5",
        "type": "t_enum(ContractState)5316"
      },
      {
        "astId": 5339,
        "contract": "contracts/NFTManager.sol:NFTManager",
        "label": "priceResolver",
        "offset": 1,
        "slot": "5",
        "type": "t_contract(IPriceResolver)8664"
      },
      {
        "astId": 5342,
        "contract": "contracts/NFTManager.sol:NFTManager",
        "label": "syntheticNFT",
        "offset": 0,
        "slot": "6",
        "type": "t_contract(ISyntheticNFT)8723"
      },
      {
        "astId": 5345,
        "contract": "contracts/NFTManager.sol:NFTManager",
        "label": "collateralShare",
        "offset": 0,
        "slot": "7",
        "type": "t_contract(IPancakePair)8238"
      },
      {
        "astId": 5347,
        "contract": "contracts/NFTManager.sol:NFTManager",
        "label": "collateralShareSymbol",
        "offset": 0,
        "slot": "8",
        "type": "t_bytes32"
      },
      {
        "astId": 5349,
        "contract": "contracts/NFTManager.sol:NFTManager",
        "label": "syntheticSymbol",
        "offset": 0,
        "slot": "9",
        "type": "t_bytes32"
      },
      {
        "astId": 5353,
        "contract": "contracts/NFTManager.sol:NFTManager",
        "label": "syntheticVariants",
        "offset": 0,
        "slot": "10",
        "type": "t_mapping(t_uint8,t_struct(SyntheticVariant)5333_storage)"
      },
      {
        "astId": 5355,
        "contract": "contracts/NFTManager.sol:NFTManager",
        "label": "syntheticVariantCount",
        "offset": 0,
        "slot": "11",
        "type": "t_uint8"
      },
      {
        "astId": 5357,
        "contract": "contracts/NFTManager.sol:NFTManager",
        "label": "totalRawCollateral",
        "offset": 0,
        "slot": "12",
        "type": "t_uint256"
      },
      {
        "astId": 5359,
        "contract": "contracts/NFTManager.sol:NFTManager",
        "label": "totalOutstanding",
        "offset": 0,
        "slot": "13",
        "type": "t_uint256"
      },
      {
        "astId": 5361,
        "contract": "contracts/NFTManager.sol:NFTManager",
        "label": "devAddress",
        "offset": 0,
        "slot": "14",
        "type": "t_address"
      },
      {
        "astId": 5363,
        "contract": "contracts/NFTManager.sol:NFTManager",
        "label": "redeemFee",
        "offset": 0,
        "slot": "15",
        "type": "t_uint256"
      },
      {
        "astId": 5365,
        "contract": "contracts/NFTManager.sol:NFTManager",
        "label": "offsetDisabled",
        "offset": 0,
        "slot": "16",
        "type": "t_bool"
      },
      {
        "astId": 5367,
        "contract": "contracts/NFTManager.sol:NFTManager",
        "label": "discountDisabled",
        "offset": 1,
        "slot": "16",
        "type": "t_bool"
      },
      {
        "astId": 5370,
        "contract": "contracts/NFTManager.sol:NFTManager",
        "label": "COOLDOWN_PERIOD",
        "offset": 0,
        "slot": "17",
        "type": "t_uint256"
      }
    ],
    "types": {
      "t_address": {
        "encoding": "inplace",
        "label": "address",
        "numberOfBytes": "20"
      },
      "t_bool": {
        "encoding": "inplace",
        "label": "bool",
        "numberOfBytes": "1"
      },
      "t_bytes32": {
        "encoding": "inplace",
        "label": "bytes32",
        "numberOfBytes": "32"
      },
      "t_bytes4": {
        "encoding": "inplace",
        "label": "bytes4",
        "numberOfBytes": "4"
      },
      "t_contract(IPancakePair)8238": {
        "encoding": "inplace",
        "label": "contract IPancakePair",
        "numberOfBytes": "20"
      },
      "t_contract(IPriceResolver)8664": {
        "encoding": "inplace",
        "label": "contract IPriceResolver",
        "numberOfBytes": "20"
      },
      "t_contract(ISyntheticNFT)8723": {
        "encoding": "inplace",
        "label": "contract ISyntheticNFT",
        "numberOfBytes": "20"
      },
      "t_enum(ContractState)5316": {
        "encoding": "inplace",
        "label": "enum NFTManager.ContractState",
        "numberOfBytes": "1"
      },
      "t_mapping(t_address,t_bool)": {
        "encoding": "mapping",
        "key": "t_address",
        "label": "mapping(address => bool)",
        "numberOfBytes": "32",
        "value": "t_bool"
      },
      "t_mapping(t_bytes4,t_bool)": {
        "encoding": "mapping",
        "key": "t_bytes4",
        "label": "mapping(bytes4 => bool)",
        "numberOfBytes": "32",
        "value": "t_bool"
      },
      "t_mapping(t_uint8,t_struct(SyntheticVariant)5333_storage)": {
        "encoding": "mapping",
        "key": "t_uint8",
        "label": "mapping(uint8 => struct NFTManager.SyntheticVariant)",
        "numberOfBytes": "32",
        "value": "t_struct(SyntheticVariant)5333_storage"
      },
      "t_string_storage": {
        "encoding": "bytes",
        "label": "string",
        "numberOfBytes": "32"
      },
      "t_struct(SyntheticVariant)5333_storage": {
        "encoding": "inplace",
        "label": "struct NFTManager.SyntheticVariant",
        "members": [
          {
            "astId": 5318,
            "contract": "contracts/NFTManager.sol:NFTManager",
            "label": "name",
            "offset": 0,
            "slot": "0",
            "type": "t_string_storage"
          },
          {
            "astId": 5320,
            "contract": "contracts/NFTManager.sol:NFTManager",
            "label": "tokenId",
            "offset": 0,
            "slot": "1",
            "type": "t_uint256"
          },
          {
            "astId": 5322,
            "contract": "contracts/NFTManager.sol:NFTManager",
            "label": "tokenValue",
            "offset": 0,
            "slot": "2",
            "type": "t_uint256"
          },
          {
            "astId": 5324,
            "contract": "contracts/NFTManager.sol:NFTManager",
            "label": "totalRawCollateral",
            "offset": 0,
            "slot": "3",
            "type": "t_uint256"
          },
          {
            "astId": 5326,
            "contract": "contracts/NFTManager.sol:NFTManager",
            "label": "totalOutstanding",
            "offset": 0,
            "slot": "4",
            "type": "t_uint256"
          },
          {
            "astId": 5328,
            "contract": "contracts/NFTManager.sol:NFTManager",
            "label": "totalIssued",
            "offset": 0,
            "slot": "5",
            "type": "t_uint256"
          },
          {
            "astId": 5330,
            "contract": "contracts/NFTManager.sol:NFTManager",
            "label": "totalBurnt",
            "offset": 0,
            "slot": "6",
            "type": "t_uint256"
          },
          {
            "astId": 5332,
            "contract": "contracts/NFTManager.sol:NFTManager",
            "label": "disabled",
            "offset": 0,
            "slot": "7",
            "type": "t_bool"
          }
        ],
        "numberOfBytes": "256"
      },
      "t_uint256": {
        "encoding": "inplace",
        "label": "uint256",
        "numberOfBytes": "32"
      },
      "t_uint8": {
        "encoding": "inplace",
        "label": "uint8",
        "numberOfBytes": "1"
      }
    }
  }
}