{
  "address": "0x0EB3337aF5A4ccD8aB1dCD0937307E2d2fE4F75D",
  "abi": [
    {
      "inputs": [
        {
          "internalType": "string",
          "name": "_name",
          "type": "string"
        },
        {
          "internalType": "address",
          "name": "_baseTokenAddress",
          "type": "address"
        },
        {
          "internalType": "uint256",
          "name": "_baseDecimals",
          "type": "uint256"
        },
        {
          "internalType": "address",
          "name": "_pairTokenAddress",
          "type": "address"
        },
        {
          "internalType": "uint256",
          "name": "_pairDecimals",
          "type": "uint256"
        }
      ],
      "stateMutability": "nonpayable",
      "type": "constructor"
    },
    {
      "inputs": [],
      "name": "baseDecimals",
      "outputs": [
        {
          "internalType": "uint256",
          "name": "",
          "type": "uint256"
        }
      ],
      "stateMutability": "view",
      "type": "function"
    },
    {
      "inputs": [],
      "name": "baseTokenAddress",
      "outputs": [
        {
          "internalType": "address",
          "name": "",
          "type": "address"
        }
      ],
      "stateMutability": "view",
      "type": "function"
    },
    {
      "inputs": [],
      "name": "getTimestamp",
      "outputs": [
        {
          "internalType": "uint256",
          "name": "",
          "type": "uint256"
        }
      ],
      "stateMutability": "view",
      "type": "function"
    },
    {
      "inputs": [],
      "name": "getValue",
      "outputs": [
        {
          "internalType": "uint256",
          "name": "",
          "type": "uint256"
        }
      ],
      "stateMutability": "view",
      "type": "function"
    },
    {
      "inputs": [],
      "name": "name",
      "outputs": [
        {
          "internalType": "string",
          "name": "",
          "type": "string"
        }
      ],
      "stateMutability": "view",
      "type": "function"
    },
    {
      "inputs": [],
      "name": "pairDecimals",
      "outputs": [
        {
          "internalType": "uint256",
          "name": "",
          "type": "uint256"
        }
      ],
      "stateMutability": "view",
      "type": "function"
    },
    {
      "inputs": [],
      "name": "pairTokenAddress",
      "outputs": [
        {
          "internalType": "address",
          "name": "",
          "type": "address"
        }
      ],
      "stateMutability": "view",
      "type": "function"
    }
  ],
  "transactionHash": "0xbf64ede6bff2539751144ec7aaa40474dd65278fd35a5b90b151c0b0551e30f9",
  "args": [
    "TAMG/USDC",
    "0x53BDA082677a4965C79086D3Fe69A6182d6Af1B8",
    18,
    "0x2791bca1f2de4661ed88a30c99a7a9449aa84174",
    6
  ],
  "solcInputHash": "94383fbc6b5990f2eaa26ad48e011ed6",
  "bytecode": "0x608060405234801561001057600080fd5b50604051610678380380610678833981810160405260a081101561003357600080fd5b810190808051604051939291908464010000000082111561005357600080fd5b90830190602082018581111561006857600080fd5b825164010000000081118282018810171561008257600080fd5b82525081516020918201929091019080838360005b838110156100af578181015183820152602001610097565b50505050905090810190601f1680156100dc5780820380516001836020036101000a031916815260200191505b506040908152602082810151918301516060840151608090940151875193965090945091610110916000919088019061014d565b50600180546001600160a01b03199081166001600160a01b03968716179091556002939093556003805490931691909316179055600455506101e0565b828054600181600116156101000203166002900490600052602060002090601f016020900481019282601f1061018e57805160ff19168380011785556101bb565b828001600101855582156101bb579182015b828111156101bb5782518255916020019190600101906101a0565b506101c79291506101cb565b5090565b5b808211156101c757600081556001016101cc565b610489806101ef6000396000f3fe608060405234801561001057600080fd5b506004361061007d5760003560e01c806333f761781161005b57806333f761781461012157806348c3b537146101295780637cb374bd1461014d578063c9b58ec7146101555761007d565b806306fdde0314610082578063188ec356146100ff5780632096525514610119575b600080fd5b61008a61015d565b6040805160208082528351818301528351919283929083019185019080838360005b838110156100c45781810151838201526020016100ac565b50505050905090810190601f1680156100f15780820380516001836020036101000a031916815260200191505b509250505060405180910390f35b6101076101eb565b60408051918252519081900360200190f35b6101076101f0565b610107610429565b61013161042f565b604080516001600160a01b039092168252519081900360200190f35b61013161043e565b61010761044d565b6000805460408051602060026001851615610100026000190190941693909304601f810184900484028201840190925281815292918301828280156101e35780601f106101b8576101008083540402835291602001916101e3565b820191906000526020600020905b8154815290600101906020018083116101c657829003601f168201915b505050505081565b425b90565b6040805160028082526060808301845260009373a5e0829caced8ffdd4de3c43696c57f7d7a678ff93919290602083019080368337505060015482519293506001600160a01b03169183915060009061024557fe5b6001600160a01b03928316602091820292909201015260035482519116908290600190811061027057fe5b60200260200101906001600160a01b031690816001600160a01b0316815250506000826001600160a01b031663d06ca61f600254600a0a600102846040518363ffffffff1660e01b81526004018083815260200180602001828103825283818151815260200191508051906020019060200280838360005b838110156103005781810151838201526020016102e8565b50505050905001935050505060006040518083038186803b15801561032457600080fd5b505afa158015610338573d6000803e3d6000fd5b505050506040513d6000823e601f3d908101601f19168201604052602081101561036157600080fd5b810190808051604051939291908464010000000082111561038157600080fd5b90830190602082018581111561039657600080fd5b82518660208202830111640100000000821117156103b357600080fd5b82525081516020918201928201910280838360005b838110156103e05781810151838201526020016103c8565b505050509050016040525050506001815181106103f957fe5b60200260200101519050600454601214156104185792506101ed915050565b600454601203600a0a029250505090565b60025481565b6003546001600160a01b031681565b6001546001600160a01b031681565b6004548156fea264697066735822122010bf24a75ba9e27f14d81ba138ef397a9bb3d4561702e3c31b11ebe9a6c9fcbe64736f6c634300060c0033",
  "devdoc": {
    "kind": "dev",
    "methods": {},
    "version": 1
  },
  "userdoc": {
    "kind": "user",
    "methods": {},
    "version": 1
  },
  "storageLayout": {
    "storage": [
      {
        "astId": 7795,
        "contract": "contracts/feeders/QuickswapTokenFeeder.sol:QuickswapTokenFeeder",
        "label": "name",
        "offset": 0,
        "slot": "0",
        "type": "t_string_storage"
      },
      {
        "astId": 7797,
        "contract": "contracts/feeders/QuickswapTokenFeeder.sol:QuickswapTokenFeeder",
        "label": "baseTokenAddress",
        "offset": 0,
        "slot": "1",
        "type": "t_address"
      },
      {
        "astId": 7799,
        "contract": "contracts/feeders/QuickswapTokenFeeder.sol:QuickswapTokenFeeder",
        "label": "baseDecimals",
        "offset": 0,
        "slot": "2",
        "type": "t_uint256"
      },
      {
        "astId": 7801,
        "contract": "contracts/feeders/QuickswapTokenFeeder.sol:QuickswapTokenFeeder",
        "label": "pairTokenAddress",
        "offset": 0,
        "slot": "3",
        "type": "t_address"
      },
      {
        "astId": 7803,
        "contract": "contracts/feeders/QuickswapTokenFeeder.sol:QuickswapTokenFeeder",
        "label": "pairDecimals",
        "offset": 0,
        "slot": "4",
        "type": "t_uint256"
      }
    ],
    "types": {
      "t_address": {
        "encoding": "inplace",
        "label": "address",
        "numberOfBytes": "20"
      },
      "t_string_storage": {
        "encoding": "bytes",
        "label": "string",
        "numberOfBytes": "32"
      },
      "t_uint256": {
        "encoding": "inplace",
        "label": "uint256",
        "numberOfBytes": "32"
      }
    }
  }
}