{
  "address": "0x4B3600a6E835Dd6b5914f69e8801Bc4C90A70115",
  "abi": [
    {
      "inputs": [
        {
          "internalType": "string",
          "name": "_name",
          "type": "string"
        },
        {
          "internalType": "address",
          "name": "_lpAddress",
          "type": "address"
        },
        {
          "internalType": "address",
          "name": "_baseTokenPriceFeederAddress",
          "type": "address"
        },
        {
          "internalType": "uint256",
          "name": "_baseTokenDecimals",
          "type": "uint256"
        },
        {
          "internalType": "address",
          "name": "_pairTokenPriceFeederAddress",
          "type": "address"
        },
        {
          "internalType": "uint256",
          "name": "_pairTokenDecimals",
          "type": "uint256"
        }
      ],
      "stateMutability": "nonpayable",
      "type": "constructor"
    },
    {
      "inputs": [],
      "name": "baseTokenDecimals",
      "outputs": [
        {
          "internalType": "uint256",
          "name": "",
          "type": "uint256"
        }
      ],
      "stateMutability": "view",
      "type": "function"
    },
    {
      "inputs": [],
      "name": "baseTokenPriceFeeder",
      "outputs": [
        {
          "internalType": "contract IPriceFeeder",
          "name": "",
          "type": "address"
        }
      ],
      "stateMutability": "view",
      "type": "function"
    },
    {
      "inputs": [],
      "name": "getTimestamp",
      "outputs": [
        {
          "internalType": "uint256",
          "name": "",
          "type": "uint256"
        }
      ],
      "stateMutability": "view",
      "type": "function"
    },
    {
      "inputs": [],
      "name": "getValue",
      "outputs": [
        {
          "internalType": "uint256",
          "name": "",
          "type": "uint256"
        }
      ],
      "stateMutability": "view",
      "type": "function"
    },
    {
      "inputs": [],
      "name": "lp",
      "outputs": [
        {
          "internalType": "contract IPancakePair",
          "name": "",
          "type": "address"
        }
      ],
      "stateMutability": "view",
      "type": "function"
    },
    {
      "inputs": [],
      "name": "name",
      "outputs": [
        {
          "internalType": "string",
          "name": "",
          "type": "string"
        }
      ],
      "stateMutability": "view",
      "type": "function"
    },
    {
      "inputs": [],
      "name": "pairTokenDecimals",
      "outputs": [
        {
          "internalType": "uint256",
          "name": "",
          "type": "uint256"
        }
      ],
      "stateMutability": "view",
      "type": "function"
    },
    {
      "inputs": [],
      "name": "pairTokenPriceFeeder",
      "outputs": [
        {
          "internalType": "contract IPriceFeeder",
          "name": "",
          "type": "address"
        }
      ],
      "stateMutability": "view",
      "type": "function"
    }
  ],
  "transactionHash": "0x62954745540832246b23596e3057a2f6f9a5e10c7a44206f6f69b448b35c11ef",
  "args": [
    "WMATIC-USDC-SHARE",
    "0x6e7a5fafcec6bb1e78bae2a1f0b612012bf14827",
    "0x319bE0d189D4bF761ba608944c2bc3D7E944EA39",
    18,
    "0xc35a63824a13eB40Ec6C6C57b15bd99e1444D933",
    6
  ],
  "solcInputHash": "94383fbc6b5990f2eaa26ad48e011ed6",
  "bytecode": "0x608060405234801561001057600080fd5b50604051610928380380610928833981810160405260c081101561003357600080fd5b810190808051604051939291908464010000000082111561005357600080fd5b90830190602082018581111561006857600080fd5b825164010000000081118282018810171561008257600080fd5b82525081516020918201929091019080838360005b838110156100af578181015183820152602001610097565b50505050905090810190601f1680156100dc5780820380516001836020036101000a031916815260200191505b506040908152602082810151918301516060840151608085015160a09095015188519497509195509392909161011791600091890190610162565b50600180546001600160a01b03199081166001600160a01b039788161790915560028054821695871695909517909455600380549094169190941617909155600455600555506101f5565b828054600181600116156101000203166002900490600052602060002090601f016020900481019282601f106101a357805160ff19168380011785556101d0565b828001600101855582156101d0579182015b828111156101d05782518255916020019190600101906101b5565b506101dc9291506101e0565b5090565b5b808211156101dc57600081556001016101e1565b610724806102046000396000f3fe608060405234801561001057600080fd5b50600436106100885760003560e01c806370e993091161005b57806370e993091461015057806382aa1c88146101585780638d288aec14610160578063c18ecb811461016857610088565b806306fdde031461008d578063188ec3561461010a5780632096525514610124578063313c06a01461012c575b600080fd5b610095610170565b6040805160208082528351818301528351919283929083019185019080838360005b838110156100cf5781810151838201526020016100b7565b50505050905090810190601f1680156100fc5780820380516001836020036101000a031916815260200191505b509250505060405180910390f35b6101126101fe565b60408051918252519081900360200190f35b610112610202565b610134610594565b604080516001600160a01b039092168252519081900360200190f35b6101346105a3565b6101126105b2565b6101126105b8565b6101346105be565b6000805460408051602060026001851615610100026000190190941693909304601f810184900484028201840190925281815292918301828280156101f65780601f106101cb576101008083540402835291602001916101f6565b820191906000526020600020905b8154815290600101906020018083116101d957829003601f168201915b505050505081565b4290565b600080600160009054906101000a90046001600160a01b03166001600160a01b0316630dfe16816040518163ffffffff1660e01b815260040160206040518083038186803b15801561025357600080fd5b505afa158015610267573d6000803e3d6000fd5b505050506040513d602081101561027d57600080fd5b50516001546040805163d21220a760e01b815290519293506000926001600160a01b039092169163d21220a791600480820192602092909190829003018186803b1580156102ca57600080fd5b505afa1580156102de573d6000803e3d6000fd5b505050506040513d60208110156102f457600080fd5b5051600154604080516370a0823160e01b81526001600160a01b0392831660048201529051929350600092918516916370a0823191602480820192602092909190829003018186803b15801561034957600080fd5b505afa15801561035d573d6000803e3d6000fd5b505050506040513d602081101561037357600080fd5b505160045490915060121461038d57600454601203600a0a025b600154604080516370a0823160e01b81526001600160a01b03928316600482015290516000928516916370a08231916024808301926020929190829003018186803b1580156103db57600080fd5b505afa1580156103ef573d6000803e3d6000fd5b505050506040513d602081101561040557600080fd5b505160055490915060121461041f57600554601203600a0a025b60006104a5600260009054906101000a90046001600160a01b03166001600160a01b031663209652556040518163ffffffff1660e01b815260040160206040518083038186803b15801561047257600080fd5b505afa158015610486573d6000803e3d6000fd5b505050506040513d602081101561049c57600080fd5b505184906105cd565b905060006104fa600360009054906101000a90046001600160a01b03166001600160a01b031663209652556040518163ffffffff1660e01b815260040160206040518083038186803b15801561047257600080fd5b9050610589600160009054906101000a90046001600160a01b03166001600160a01b03166318160ddd6040518163ffffffff1660e01b815260040160206040518083038186803b15801561054d57600080fd5b505afa158015610561573d6000803e3d6000fd5b505050506040513d602081101561057757600080fd5b50516105838484610606565b9061065f565b965050505050505090565b6001546001600160a01b031681565b6002546001600160a01b031681565b60045481565b60055481565b6003546001600160a01b031681565b6000670de0b6b3a76400006105f76105e5858561067f565b6002670de0b6b3a76400005b04610606565b816105fe57fe5b049392505050565b600082820183811015610656576040805162461bcd60e51b8152602060048201526013602482015272556e6164646974696f6e206f766572666c6f7760681b604482015290519081900360640190fd5b90505b92915050565b6000816105f761067785670de0b6b3a764000061067f565b6002856105f1565b60008261068e57506000610659565b8282028284828161069b57fe5b0414610656576040805162461bcd60e51b815260206004820152601960248201527f556e6d756c7469706c69636174696f6e206f766572666c6f7700000000000000604482015290519081900360640190fdfea26469706673582212205063b099ca533c8181d9a92333e4f886f23ea048f2d4fc5a0ad8fe84180852d164736f6c634300060c0033",
  "devdoc": {
    "kind": "dev",
    "methods": {},
    "version": 1
  },
  "userdoc": {
    "kind": "user",
    "methods": {},
    "version": 1
  },
  "storageLayout": {
    "storage": [
      {
        "astId": 7603,
        "contract": "contracts/feeders/QuickswapLPFeeder.sol:QuickswapLPFeeder",
        "label": "name",
        "offset": 0,
        "slot": "0",
        "type": "t_string_storage"
      },
      {
        "astId": 7605,
        "contract": "contracts/feeders/QuickswapLPFeeder.sol:QuickswapLPFeeder",
        "label": "lp",
        "offset": 0,
        "slot": "1",
        "type": "t_contract(IPancakePair)8238"
      },
      {
        "astId": 7607,
        "contract": "contracts/feeders/QuickswapLPFeeder.sol:QuickswapLPFeeder",
        "label": "baseTokenPriceFeeder",
        "offset": 0,
        "slot": "2",
        "type": "t_contract(IPriceFeeder)8647"
      },
      {
        "astId": 7609,
        "contract": "contracts/feeders/QuickswapLPFeeder.sol:QuickswapLPFeeder",
        "label": "pairTokenPriceFeeder",
        "offset": 0,
        "slot": "3",
        "type": "t_contract(IPriceFeeder)8647"
      },
      {
        "astId": 7611,
        "contract": "contracts/feeders/QuickswapLPFeeder.sol:QuickswapLPFeeder",
        "label": "baseTokenDecimals",
        "offset": 0,
        "slot": "4",
        "type": "t_uint256"
      },
      {
        "astId": 7613,
        "contract": "contracts/feeders/QuickswapLPFeeder.sol:QuickswapLPFeeder",
        "label": "pairTokenDecimals",
        "offset": 0,
        "slot": "5",
        "type": "t_uint256"
      }
    ],
    "types": {
      "t_contract(IPancakePair)8238": {
        "encoding": "inplace",
        "label": "contract IPancakePair",
        "numberOfBytes": "20"
      },
      "t_contract(IPriceFeeder)8647": {
        "encoding": "inplace",
        "label": "contract IPriceFeeder",
        "numberOfBytes": "20"
      },
      "t_string_storage": {
        "encoding": "bytes",
        "label": "string",
        "numberOfBytes": "32"
      },
      "t_uint256": {
        "encoding": "inplace",
        "label": "uint256",
        "numberOfBytes": "32"
      }
    }
  }
}