{
  "address": "0x2bb4245A7CfCF0e9265BDE35E8C8c35AF1f81Ef2",
  "abi": [
    {
      "anonymous": false,
      "inputs": [
        {
          "indexed": false,
          "internalType": "address",
          "name": "to",
          "type": "address"
        },
        {
          "indexed": false,
          "internalType": "uint256",
          "name": "eventId",
          "type": "uint256"
        },
        {
          "indexed": false,
          "internalType": "address",
          "name": "assetAddress",
          "type": "address"
        },
        {
          "indexed": false,
          "internalType": "uint256",
          "name": "tokenId",
          "type": "uint256"
        },
        {
          "indexed": false,
          "internalType": "bool",
          "name": "is1155",
          "type": "bool"
        }
      ],
      "name": "Claimed",
      "type": "event"
    },
    {
      "anonymous": false,
      "inputs": [
        {
          "indexed": false,
          "internalType": "address",
          "name": "from",
          "type": "address"
        },
        {
          "indexed": false,
          "internalType": "address",
          "name": "assetAddress",
          "type": "address"
        },
        {
          "indexed": false,
          "internalType": "uint256",
          "name": "tokenId",
          "type": "uint256"
        },
        {
          "indexed": false,
          "internalType": "uint256",
          "name": "amount",
          "type": "uint256"
        },
        {
          "indexed": false,
          "internalType": "bool",
          "name": "is1155",
          "type": "bool"
        }
      ],
      "name": "Deposited",
      "type": "event"
    },
    {
      "anonymous": false,
      "inputs": [
        {
          "indexed": true,
          "internalType": "uint256",
          "name": "eventId",
          "type": "uint256"
        },
        {
          "indexed": false,
          "internalType": "string",
          "name": "name",
          "type": "string"
        },
        {
          "indexed": false,
          "internalType": "uint256[]",
          "name": "poaps",
          "type": "uint256[]"
        }
      ],
      "name": "EventCreated",
      "type": "event"
    },
    {
      "anonymous": false,
      "inputs": [
        {
          "indexed": true,
          "internalType": "address",
          "name": "finalizer",
          "type": "address"
        },
        {
          "indexed": false,
          "internalType": "bytes32",
          "name": "requestId",
          "type": "bytes32"
        },
        {
          "indexed": false,
          "internalType": "uint256",
          "name": "time",
          "type": "uint256"
        }
      ],
      "name": "FinalizeEvent",
      "type": "event"
    },
    {
      "anonymous": false,
      "inputs": [
        {
          "indexed": true,
          "internalType": "address",
          "name": "previousOwner",
          "type": "address"
        },
        {
          "indexed": true,
          "internalType": "address",
          "name": "newOwner",
          "type": "address"
        }
      ],
      "name": "OwnershipTransferred",
      "type": "event"
    },
    {
      "anonymous": false,
      "inputs": [
        {
          "indexed": true,
          "internalType": "uint256",
          "name": "poapId",
          "type": "uint256"
        },
        {
          "indexed": false,
          "internalType": "address",
          "name": "assetAddress",
          "type": "address"
        },
        {
          "indexed": false,
          "internalType": "uint256",
          "name": "tokenId",
          "type": "uint256"
        },
        {
          "indexed": false,
          "internalType": "bool",
          "name": "is1155",
          "type": "bool"
        }
      ],
      "name": "PoapCreated",
      "type": "event"
    },
    {
      "anonymous": false,
      "inputs": [
        {
          "indexed": true,
          "internalType": "uint256",
          "name": "projectId",
          "type": "uint256"
        },
        {
          "indexed": false,
          "internalType": "string",
          "name": "name",
          "type": "string"
        }
      ],
      "name": "ProjectCreated",
      "type": "event"
    },
    {
      "anonymous": false,
      "inputs": [
        {
          "indexed": true,
          "internalType": "uint256",
          "name": "projectId",
          "type": "uint256"
        },
        {
          "indexed": false,
          "internalType": "bool",
          "name": "isEnd",
          "type": "bool"
        }
      ],
      "name": "SetEndEvent",
      "type": "event"
    },
    {
      "inputs": [],
      "name": "FEE",
      "outputs": [
        {
          "internalType": "uint256",
          "name": "",
          "type": "uint256"
        }
      ],
      "stateMutability": "view",
      "type": "function"
    },
    {
      "inputs": [],
      "name": "KEY_HASH",
      "outputs": [
        {
          "internalType": "bytes32",
          "name": "",
          "type": "bytes32"
        }
      ],
      "stateMutability": "view",
      "type": "function"
    },
    {
      "inputs": [],
      "name": "LINK_TOKEN",
      "outputs": [
        {
          "internalType": "address",
          "name": "",
          "type": "address"
        }
      ],
      "stateMutability": "view",
      "type": "function"
    },
    {
      "inputs": [],
      "name": "VRF_COORDINATOR",
      "outputs": [
        {
          "internalType": "address",
          "name": "",
          "type": "address"
        }
      ],
      "stateMutability": "view",
      "type": "function"
    },
    {
      "inputs": [
        {
          "internalType": "address",
          "name": "_address",
          "type": "address"
        }
      ],
      "name": "addAddress",
      "outputs": [],
      "stateMutability": "nonpayable",
      "type": "function"
    },
    {
      "inputs": [
        {
          "internalType": "uint256",
          "name": "_eventId",
          "type": "uint256"
        },
        {
          "internalType": "bytes32",
          "name": "_merkleRoot",
          "type": "bytes32"
        }
      ],
      "name": "attachClaim",
      "outputs": [],
      "stateMutability": "nonpayable",
      "type": "function"
    },
    {
      "inputs": [
        {
          "internalType": "uint256",
          "name": "_projectId",
          "type": "uint256"
        },
        {
          "internalType": "bytes32",
          "name": "_merkleRoot",
          "type": "bytes32"
        }
      ],
      "name": "attachWhitelist",
      "outputs": [],
      "stateMutability": "nonpayable",
      "type": "function"
    },
    {
      "inputs": [
        {
          "internalType": "uint256[]",
          "name": "_projectIds",
          "type": "uint256[]"
        },
        {
          "internalType": "bytes32[]",
          "name": "_merkleRoots",
          "type": "bytes32[]"
        }
      ],
      "name": "attachWhitelistBatch",
      "outputs": [],
      "stateMutability": "nonpayable",
      "type": "function"
    },
    {
      "inputs": [
        {
          "internalType": "uint256",
          "name": "_eventId",
          "type": "uint256"
        },
        {
          "internalType": "uint256",
          "name": "_poapId",
          "type": "uint256"
        },
        {
          "internalType": "bytes32[]",
          "name": "_proof",
          "type": "bytes32[]"
        }
      ],
      "name": "checkClaim",
      "outputs": [
        {
          "internalType": "bool",
          "name": "output",
          "type": "bool"
        }
      ],
      "stateMutability": "view",
      "type": "function"
    },
    {
      "inputs": [
        {
          "internalType": "uint256",
          "name": "_eventId",
          "type": "uint256"
        },
        {
          "internalType": "uint256",
          "name": "_poapId",
          "type": "uint256"
        },
        {
          "internalType": "bytes32[]",
          "name": "_proof",
          "type": "bytes32[]"
        }
      ],
      "name": "claim",
      "outputs": [],
      "stateMutability": "nonpayable",
      "type": "function"
    },
    {
      "inputs": [
        {
          "internalType": "uint256",
          "name": "_eventId",
          "type": "uint256"
        },
        {
          "internalType": "string",
          "name": "_name",
          "type": "string"
        },
        {
          "internalType": "uint256[]",
          "name": "_poaps",
          "type": "uint256[]"
        }
      ],
      "name": "createEvent",
      "outputs": [],
      "stateMutability": "nonpayable",
      "type": "function"
    },
    {
      "inputs": [
        {
          "internalType": "uint256",
          "name": "_poapId",
          "type": "uint256"
        },
        {
          "internalType": "address",
          "name": "_assetAddress",
          "type": "address"
        },
        {
          "internalType": "uint256",
          "name": "_tokenId",
          "type": "uint256"
        },
        {
          "internalType": "bool",
          "name": "_is1155",
          "type": "bool"
        }
      ],
      "name": "createPoap",
      "outputs": [],
      "stateMutability": "nonpayable",
      "type": "function"
    },
    {
      "inputs": [
        {
          "internalType": "uint256",
          "name": "_projectId",
          "type": "uint256"
        },
        {
          "internalType": "string",
          "name": "_name",
          "type": "string"
        }
      ],
      "name": "createProject",
      "outputs": [],
      "stateMutability": "nonpayable",
      "type": "function"
    },
    {
      "inputs": [
        {
          "internalType": "address",
          "name": "_assetAddress",
          "type": "address"
        },
        {
          "internalType": "uint256",
          "name": "_tokenId",
          "type": "uint256"
        },
        {
          "internalType": "uint256",
          "name": "_amount",
          "type": "uint256"
        }
      ],
      "name": "depositERC1155",
      "outputs": [],
      "stateMutability": "nonpayable",
      "type": "function"
    },
    {
      "inputs": [
        {
          "internalType": "address",
          "name": "_assetAddress",
          "type": "address"
        },
        {
          "internalType": "uint256",
          "name": "_tokenId",
          "type": "uint256"
        }
      ],
      "name": "depositERC721",
      "outputs": [],
      "stateMutability": "nonpayable",
      "type": "function"
    },
    {
      "inputs": [
        {
          "internalType": "uint256",
          "name": "_projectId",
          "type": "uint256"
        },
        {
          "internalType": "address",
          "name": "_address",
          "type": "address"
        },
        {
          "internalType": "bytes32[]",
          "name": "_proof",
          "type": "bytes32[]"
        }
      ],
      "name": "eligible",
      "outputs": [
        {
          "internalType": "bool",
          "name": "output",
          "type": "bool"
        }
      ],
      "stateMutability": "view",
      "type": "function"
    },
    {
      "inputs": [
        {
          "internalType": "address",
          "name": "_to",
          "type": "address"
        },
        {
          "internalType": "address",
          "name": "_tokenAddress",
          "type": "address"
        },
        {
          "internalType": "uint256",
          "name": "_tokenId",
          "type": "uint256"
        },
        {
          "internalType": "uint256",
          "name": "_amount",
          "type": "uint256"
        }
      ],
      "name": "emergencyWithdrawERC1155",
      "outputs": [],
      "stateMutability": "nonpayable",
      "type": "function"
    },
    {
      "inputs": [
        {
          "internalType": "address",
          "name": "_tokenAddress",
          "type": "address"
        },
        {
          "internalType": "uint256",
          "name": "_amount",
          "type": "uint256"
        }
      ],
      "name": "emergencyWithdrawERC20",
      "outputs": [],
      "stateMutability": "nonpayable",
      "type": "function"
    },
    {
      "inputs": [
        {
          "internalType": "address",
          "name": "_to",
          "type": "address"
        },
        {
          "internalType": "address",
          "name": "_tokenAddress",
          "type": "address"
        },
        {
          "internalType": "uint256",
          "name": "_tokenId",
          "type": "uint256"
        }
      ],
      "name": "emergencyWithdrawERC721",
      "outputs": [],
      "stateMutability": "nonpayable",
      "type": "function"
    },
    {
      "inputs": [
        {
          "internalType": "uint256",
          "name": "",
          "type": "uint256"
        }
      ],
      "name": "events",
      "outputs": [
        {
          "internalType": "string",
          "name": "name",
          "type": "string"
        },
        {
          "internalType": "bytes32",
          "name": "merkleRoot",
          "type": "bytes32"
        },
        {
          "internalType": "uint256",
          "name": "claimCount",
          "type": "uint256"
        },
        {
          "internalType": "uint256",
          "name": "seed",
          "type": "uint256"
        },
        {
          "internalType": "bool",
          "name": "ended",
          "type": "bool"
        },
        {
          "internalType": "bool",
          "name": "active",
          "type": "bool"
        }
      ],
      "stateMutability": "view",
      "type": "function"
    },
    {
      "inputs": [
        {
          "internalType": "uint256",
          "name": "_eventId",
          "type": "uint256"
        }
      ],
      "name": "finalizeEvent",
      "outputs": [],
      "stateMutability": "nonpayable",
      "type": "function"
    },
    {
      "inputs": [],
      "name": "initialize",
      "outputs": [],
      "stateMutability": "nonpayable",
      "type": "function"
    },
    {
      "inputs": [
        {
          "internalType": "address",
          "name": "_address",
          "type": "address"
        }
      ],
      "name": "isWhitelisted",
      "outputs": [
        {
          "internalType": "bool",
          "name": "",
          "type": "bool"
        }
      ],
      "stateMutability": "view",
      "type": "function"
    },
    {
      "inputs": [
        {
          "internalType": "address",
          "name": "",
          "type": "address"
        },
        {
          "internalType": "address",
          "name": "",
          "type": "address"
        },
        {
          "internalType": "uint256[]",
          "name": "",
          "type": "uint256[]"
        },
        {
          "internalType": "uint256[]",
          "name": "",
          "type": "uint256[]"
        },
        {
          "internalType": "bytes",
          "name": "",
          "type": "bytes"
        }
      ],
      "name": "onERC1155BatchReceived",
      "outputs": [
        {
          "internalType": "bytes4",
          "name": "",
          "type": "bytes4"
        }
      ],
      "stateMutability": "nonpayable",
      "type": "function"
    },
    {
      "inputs": [
        {
          "internalType": "address",
          "name": "",
          "type": "address"
        },
        {
          "internalType": "address",
          "name": "",
          "type": "address"
        },
        {
          "internalType": "uint256",
          "name": "",
          "type": "uint256"
        },
        {
          "internalType": "uint256",
          "name": "",
          "type": "uint256"
        },
        {
          "internalType": "bytes",
          "name": "",
          "type": "bytes"
        }
      ],
      "name": "onERC1155Received",
      "outputs": [
        {
          "internalType": "bytes4",
          "name": "",
          "type": "bytes4"
        }
      ],
      "stateMutability": "nonpayable",
      "type": "function"
    },
    {
      "inputs": [
        {
          "internalType": "address",
          "name": "",
          "type": "address"
        },
        {
          "internalType": "address",
          "name": "",
          "type": "address"
        },
        {
          "internalType": "uint256",
          "name": "",
          "type": "uint256"
        },
        {
          "internalType": "bytes",
          "name": "",
          "type": "bytes"
        }
      ],
      "name": "onERC721Received",
      "outputs": [
        {
          "internalType": "bytes4",
          "name": "",
          "type": "bytes4"
        }
      ],
      "stateMutability": "nonpayable",
      "type": "function"
    },
    {
      "inputs": [],
      "name": "owner",
      "outputs": [
        {
          "internalType": "address",
          "name": "",
          "type": "address"
        }
      ],
      "stateMutability": "view",
      "type": "function"
    },
    {
      "inputs": [
        {
          "internalType": "uint256",
          "name": "",
          "type": "uint256"
        }
      ],
      "name": "poaps",
      "outputs": [
        {
          "internalType": "address",
          "name": "assetAddress",
          "type": "address"
        },
        {
          "internalType": "uint256",
          "name": "tokenId",
          "type": "uint256"
        },
        {
          "internalType": "bool",
          "name": "is1155",
          "type": "bool"
        }
      ],
      "stateMutability": "view",
      "type": "function"
    },
    {
      "inputs": [
        {
          "internalType": "uint256",
          "name": "",
          "type": "uint256"
        }
      ],
      "name": "projects",
      "outputs": [
        {
          "internalType": "string",
          "name": "name",
          "type": "string"
        },
        {
          "internalType": "bytes32",
          "name": "merkleRoot",
          "type": "bytes32"
        },
        {
          "internalType": "uint256",
          "name": "timestamp",
          "type": "uint256"
        },
        {
          "internalType": "bool",
          "name": "active",
          "type": "bool"
        }
      ],
      "stateMutability": "view",
      "type": "function"
    },
    {
      "inputs": [
        {
          "internalType": "bytes32",
          "name": "requestId",
          "type": "bytes32"
        },
        {
          "internalType": "uint256",
          "name": "randomness",
          "type": "uint256"
        }
      ],
      "name": "rawFulfillRandomness",
      "outputs": [],
      "stateMutability": "nonpayable",
      "type": "function"
    },
    {
      "inputs": [
        {
          "internalType": "address",
          "name": "_address",
          "type": "address"
        }
      ],
      "name": "removeAddress",
      "outputs": [],
      "stateMutability": "nonpayable",
      "type": "function"
    },
    {
      "inputs": [],
      "name": "renounceOwnership",
      "outputs": [],
      "stateMutability": "nonpayable",
      "type": "function"
    },
    {
      "inputs": [
        {
          "internalType": "uint256",
          "name": "_eventId",
          "type": "uint256"
        },
        {
          "internalType": "bool",
          "name": "_isEnd",
          "type": "bool"
        }
      ],
      "name": "setEndEvent",
      "outputs": [],
      "stateMutability": "nonpayable",
      "type": "function"
    },
    {
      "inputs": [
        {
          "internalType": "bytes4",
          "name": "interfaceId",
          "type": "bytes4"
        }
      ],
      "name": "supportsInterface",
      "outputs": [
        {
          "internalType": "bool",
          "name": "",
          "type": "bool"
        }
      ],
      "stateMutability": "view",
      "type": "function"
    },
    {
      "inputs": [
        {
          "internalType": "address",
          "name": "newOwner",
          "type": "address"
        }
      ],
      "name": "transferOwnership",
      "outputs": [],
      "stateMutability": "nonpayable",
      "type": "function"
    },
    {
      "inputs": [
        {
          "internalType": "uint256",
          "name": "_eventId",
          "type": "uint256"
        },
        {
          "internalType": "uint256[]",
          "name": "_poaps",
          "type": "uint256[]"
        }
      ],
      "name": "updatePoaps",
      "outputs": [],
      "stateMutability": "nonpayable",
      "type": "function"
    }
  ],
  "transactionHash": "0x2546fe46ed77a282b4b7ff370a9a50c7ad98133e7a85c7ffb366e60d735be185",
  "args": [],
  "solcInputHash": "8265e4161eec9b5a7dcd6b2c71b6665f",
  "bytecode": "0x608060405234801561001057600080fd5b50613d5b806100206000396000f3fe608060405234801561001057600080fd5b506004361061021c5760003560e01c80638129fc1c11610125578063bf1a8003116100ad578063d29a4bf61161007c578063d29a4bf614610ebb578063df29b98214610ee7578063eedac3a614610f13578063f23a6e6114610f1b578063f2fde38b14610fe45761021c565b8063bf1a800314610d2f578063c57981b514610dda578063cb15d43f14610de2578063cc2fe72d14610e985761021c565b80639bb36076116100f45780639bb360761461092c5780639e3c1b6114610a59578063ae0b51df14610a8b578063b72b85a114610b38578063bc197c8114610b6e5761021c565b80638129fc1c146108dc5780638da5cb5b146108e457806394985ddd146108ec5780639b71e6731461090f5761021c565b806338eada1c116101a857806361e4058f1161017757806361e4058f1461069f5780636946c2ef146106e65780636ce637b41461070957806370ee997b146107b1578063715018a6146108d45761021c565b806338eada1c146106135780633af32abf146106395780634ba79dfe1461065f57806351dc86a5146106855761021c565b80630f72faec116101ef5780630f72faec1461037a578063107046bd14610427578063150b7a02146104d3578063180dc8e7146105b45780632c1e2584146105ee5761021c565b806301ffc9a71461022157806305f6a9241461025c5780630adc089d146102805780630b791430146102be575b600080fd5b6102486004803603602081101561023757600080fd5b50356001600160e01b03191661100a565b604080519115158252519081900360200190f35b610264611029565b604080516001600160a01b039092168252519081900360200190f35b6102bc6004803603608081101561029657600080fd5b506001600160a01b03813581169160208101359091169060408101359060600135611041565b005b6102db600480360360208110156102d457600080fd5b5035611183565b604051808060200187815260200186815260200185815260200184151581526020018315158152602001828103825288818151815260200191508051906020019080838360005b8381101561033a578181015183820152602001610322565b50505050905090810190601f1680156103675780820380516001836020036101000a031916815260200191505b5097505050505050505060405180910390f35b6102486004803603606081101561039057600080fd5b813591602081013591810190606081016040820135600160201b8111156103b657600080fd5b8201836020820111156103c857600080fd5b803590602001918460208302840111600160201b831117156103e957600080fd5b91908080602002602001604051908101604052809392919081815260200183836020028082843760009201919091525092955061124a945050505050565b6104446004803603602081101561043d57600080fd5b503561125f565b60405180806020018581526020018481526020018315158152602001828103825286818151815260200191508051906020019080838360005b8381101561049557818101518382015260200161047d565b50505050905090810190601f1680156104c25780820380516001836020036101000a031916815260200191505b509550505050505060405180910390f35b610597600480360360808110156104e957600080fd5b6001600160a01b03823581169260208101359091169160408201359190810190608081016060820135600160201b81111561052357600080fd5b82018360208201111561053557600080fd5b803590602001918460018302840111600160201b8311171561055657600080fd5b91908080601f016020809104026020016040519081016040528093929190818152602001838380828437600092019190915250929550611318945050505050565b604080516001600160e01b03199092168252519081900360200190f35b6102bc600480360360808110156105ca57600080fd5b508035906001600160a01b0360208201351690604081013590606001351515611328565b6102bc6004803603604081101561060457600080fd5b508035906020013515156114c1565b6102bc6004803603602081101561062957600080fd5b50356001600160a01b0316611571565b6102486004803603602081101561064f57600080fd5b50356001600160a01b0316611613565b6102bc6004803603602081101561067557600080fd5b50356001600160a01b0316611631565b61068d6116cc565b60408051918252519081900360200190f35b6106bc600480360360208110156106b557600080fd5b50356116f0565b604080516001600160a01b0390941684526020840192909252151582820152519081900360600190f35b6102bc600480360360408110156106fc57600080fd5b508035906020013561171f565b6102bc6004803603604081101561071f57600080fd5b81359190810190604081016020820135600160201b81111561074057600080fd5b82018360208201111561075257600080fd5b803590602001918460208302840111600160201b8311171561077357600080fd5b919080806020026020016040519081016040528093929190818152602001838360200280828437600092019190915250929550611846945050505050565b6102bc600480360360408110156107c757600080fd5b810190602081018135600160201b8111156107e157600080fd5b8201836020820111156107f357600080fd5b803590602001918460208302840111600160201b8311171561081457600080fd5b9190808060200260200160405190810160405280939291908181526020018383602002808284376000920191909152509295949360208101935035915050600160201b81111561086357600080fd5b82018360208201111561087557600080fd5b803590602001918460208302840111600160201b8311171561089657600080fd5b91908080602002602001604051908101604052809392919081815260200183836020028082843760009201919091525092955061197e945050505050565b6102bc611ae3565b6102bc611b8f565b610264611c9b565b6102bc6004803603604081101561090257600080fd5b5080359060200135611caa565b6102bc6004803603602081101561092557600080fd5b5035611d14565b6102bc6004803603606081101561094257600080fd5b81359190810190604081016020820135600160201b81111561096357600080fd5b82018360208201111561097557600080fd5b803590602001918460018302840111600160201b8311171561099657600080fd5b91908080601f0160208091040260200160405190810160405280939291908181526020018383808284376000920191909152509295949360208101935035915050600160201b8111156109e857600080fd5b8201836020820111156109fa57600080fd5b803590602001918460208302840111600160201b83111715610a1b57600080fd5b919080806020026020016040519081016040528093929190818152602001838360200280828437600092019190915250929550612005945050505050565b6102bc60048036036060811015610a6f57600080fd5b506001600160a01b038135169060208101359060400135612248565b6102bc60048036036060811015610aa157600080fd5b813591602081013591810190606081016040820135600160201b811115610ac757600080fd5b820183602082011115610ad957600080fd5b803590602001918460208302840111600160201b83111715610afa57600080fd5b919080806020026020016040519081016040528093929190818152602001838360200280828437600092019190915250929550612384945050505050565b6102bc60048036036060811015610b4e57600080fd5b506001600160a01b03813581169160208101359091169060400135612753565b610597600480360360a0811015610b8457600080fd5b6001600160a01b038235811692602081013590911691810190606081016040820135600160201b811115610bb757600080fd5b820183602082011115610bc957600080fd5b803590602001918460208302840111600160201b83111715610bea57600080fd5b9190808060200260200160405190810160405280939291908181526020018383602002808284376000920191909152509295949360208101935035915050600160201b811115610c3957600080fd5b820183602082011115610c4b57600080fd5b803590602001918460208302840111600160201b83111715610c6c57600080fd5b9190808060200260200160405190810160405280939291908181526020018383602002808284376000920191909152509295949360208101935035915050600160201b811115610cbb57600080fd5b820183602082011115610ccd57600080fd5b803590602001918460018302840111600160201b83111715610cee57600080fd5b91908080601f01602080910402602001604051908101604052809392919081815260200183838082843760009201919091525092955061286d945050505050565b6102bc60048036036040811015610d4557600080fd5b81359190810190604081016020820135600160201b811115610d6657600080fd5b820183602082011115610d7857600080fd5b803590602001918460018302840111600160201b83111715610d9957600080fd5b91908080601f01602080910402602001604051908101604052809392919081815260200183838082843760009201919091525092955061287e945050505050565b61068d612a50565b61024860048036036060811015610df857600080fd5b8135916001600160a01b0360208201351691810190606081016040820135600160201b811115610e2757600080fd5b820183602082011115610e3957600080fd5b803590602001918460208302840111600160201b83111715610e5a57600080fd5b919080806020026020016040519081016040528093929190818152602001838360200280828437600092019190915250929550612a5a945050505050565b6102bc60048036036040811015610eae57600080fd5b5080359060200135612a67565b6102bc60048036036040811015610ed157600080fd5b506001600160a01b038135169060200135612b8a565b6102bc60048036036040811015610efd57600080fd5b506001600160a01b038135169060200135612ca1565b610264612dc5565b610597600480360360a0811015610f3157600080fd5b6001600160a01b03823581169260208101359091169160408201359160608101359181019060a081016080820135600160201b811115610f7057600080fd5b820183602082011115610f8257600080fd5b803590602001918460018302840111600160201b83111715610fa357600080fd5b91908080601f016020809104026020016040519081016040528093929190818152602001838380828437600092019190915250929550612ddd945050505050565b6102bc60048036036020811015610ffa57600080fd5b50356001600160a01b0316612dee565b6001600160e01b03191660009081526098602052604090205460ff1690565b733d2341adb2d31f1c5530cdc622016af293177ae081565b60026066541415611087576040805162461bcd60e51b815260206004820152601f6024820152600080516020613c3f833981519152604482015290519081900360640190fd5b60026066556000611096612ef1565b90506110a181611613565b6110e0576040805162461bcd60e51b81526020600482018190526024820152600080516020613cd4833981519152604482015290519081900360640190fd5b60408051637921219560e11b8152306004808301919091526001600160a01b038881166024840152604483018790526064830186905260a0608484015260a4830191909152630307830360e41b60c483015291519186169163f242432a9160e48082019260009290919082900301818387803b15801561115f57600080fd5b505af1158015611173573d6000803e3d6000fd5b5050600160665550505050505050565b6101666020908152600091825260409182902080548351601f6002600019610100600186161502019093169290920491820184900484028101840190945280845290929183919083018282801561121b5780601f106111f05761010080835404028352916020019161121b565b820191906000526020600020905b8154815290600101906020018083116111fe57829003601f168201915b505050506002830154600484015460058501546006909501549394919390925060ff8082169161010090041686565b6000611257848484612ef5565b949350505050565b6101676020908152600091825260409182902080548351601f600260001961010060018616150201909316929092049182018490048402810184019094528084529092918391908301828280156112f75780601f106112cc576101008083540402835291602001916112f7565b820191906000526020600020905b8154815290600101906020018083116112da57829003601f168201915b50505050600183015460028401546003909401549293909290915060ff1684565b630a85bd0160e11b949350505050565b6002606654141561136e576040805162461bcd60e51b815260206004820152601f6024820152600080516020613c3f833981519152604482015290519081900360640190fd5b6002606655600061137d612ef1565b905061138881611613565b6113c7576040805162461bcd60e51b81526020600482018190526024820152600080516020613cd4833981519152604482015290519081900360640190fd5b600085815261016560205260409020546001600160a01b031615611429576040805162461bcd60e51b815260206004820152601460248201527311da5d995b881251081a5cc81bd8d8dd5c1a595960621b604482015290519081900360640190fd5b6000858152610165602090815260409182902080546001600160a01b0388166001600160a01b031990911681178255600182018790556002909101805486151560ff199091168117909155835191825291810186905280830191909152905186917fd5a1e278f584cc151f1f46874b828382dadb6deb986a44792b7a1ce84d770bcd919081900360600190a250506001606655505050565b60006114cb612ef1565b90506114d681611613565b611515576040805162461bcd60e51b81526020600482018190526024820152600080516020613cd4833981519152604482015290519081900360640190fd5b60008381526101666020908152604091829020600601805460ff19168515159081179091558251908152915185927f578d9b7d4452f20b3da7f9295c5f80b1883a09be26c7b51dd69a3bd7feab408192908290030190a2505050565b600061157b612ef1565b905061158681611613565b6115c5576040805162461bcd60e51b81526020600482018190526024820152600080516020613cd4833981519152604482015290519081900360640190fd5b6001600160a01b03821660009081526065602052604090205460ff16156115eb5761160f565b6001600160a01b0382166000908152606560205260409020805460ff191660011790555b5050565b6001600160a01b031660009081526065602052604090205460ff1690565b600061163b612ef1565b905061164681611613565b611685576040805162461bcd60e51b81526020600482018190526024820152600080516020613cd4833981519152604482015290519081900360640190fd5b6001600160a01b03821660009081526065602052604090205460ff166116aa5761160f565b506001600160a01b03166000908152606560205260409020805460ff19169055565b7ff86195cf7690c55907b2b611ebb7343a6f649bff128701cc542f0569e2c549da81565b610165602052600090815260409020805460018201546002909201546001600160a01b03909116919060ff1683565b60026066541415611765576040805162461bcd60e51b815260206004820152601f6024820152600080516020613c3f833981519152604482015290519081900360640190fd5b60026066556000611774612ef1565b905061177f81611613565b6117be576040805162461bcd60e51b81526020600482018190526024820152600080516020613cd4833981519152604482015290519081900360640190fd5b6000838152610167602052604090206003015460ff161515600114611820576040805162461bcd60e51b815260206004820152601360248201527211da5d995b881251081a5cc81a5b9d985b1a59606a1b604482015290519081900360640190fd5b506000918252610167602052604090912060018082019290925542600290910155606655565b6002606654141561188c576040805162461bcd60e51b815260206004820152601f6024820152600080516020613c3f833981519152604482015290519081900360640190fd5b6002606655600061189b612ef1565b90506118a681611613565b6118e5576040805162461bcd60e51b81526020600482018190526024820152600080516020613cd4833981519152604482015290519081900360640190fd5b6000838152610166602052604090206006015460ff61010090910416151560011461194d576040805162461bcd60e51b815260206004820152601360248201527211da5d995b881251081a5cc81a5b9d985b1a59606a1b604482015290519081900360640190fd5b600083815261016660209081526040909120835161197392600190920191850190613b71565b505060016066555050565b600260665414156119c4576040805162461bcd60e51b815260206004820152601f6024820152600080516020613c3f833981519152604482015290519081900360640190fd5b600260665560006119d3612ef1565b90506119de81611613565b611a1d576040805162461bcd60e51b81526020600482018190526024820152600080516020613cd4833981519152604482015290519081900360640190fd5b8151835114611a5d5760405162461bcd60e51b8152600401808060200182810382526021815260200180613c856021913960400191505060405180910390fd5b60005b835181101561197357828181518110611a7557fe5b60200260200101516101676000868481518110611a8e57fe5b6020026020010151815260200190815260200160002060010181905550426101676000868481518110611abd57fe5b602090810291909101810151825281019190915260400160002060020155600101611a60565b611aeb612ef1565b6001600160a01b0316611afc611c9b565b6001600160a01b031614611b45576040805162461bcd60e51b81526020600482018190526024820152600080516020613cd4833981519152604482015290519081900360640190fd5b6033546040516000916001600160a01b0316907f8be0079c531659141344cd1fd0a4f28419497f9722a3daafe3b4186f6b6457e0908390a3603380546001600160a01b0319169055565b600054610100900460ff1680611ba85750611ba8612f60565b80611bb6575060005460ff16155b611bf15760405162461bcd60e51b815260040180806020018281038252602e815260200180613ca6602e913960400191505060405180910390fd5b600054610100900460ff16158015611c1c576000805460ff1961ff0019909116610100171660011790555b611c24612f71565b611c2c613006565b611c3461309b565b611c3c613138565b611c446131cd565b611c54630a85bd0160e11b6132a3565b611c86733d2341adb2d31f1c5530cdc622016af293177ae073b0897686c545045afc77cf20ec7a532e3120e0f1613327565b8015611c98576000805461ff00191690555b50565b6033546001600160a01b031690565b610161546001600160a01b03163314611d0a576040805162461bcd60e51b815260206004820152601f60248201527f4f6e6c7920565246436f6f7264696e61746f722063616e2066756c66696c6c00604482015290519081900360640190fd5b61160f82826133fd565b60026066541415611d5a576040805162461bcd60e51b815260206004820152601f6024820152600080516020613c3f833981519152604482015290519081900360640190fd5b60026066556000611d69612ef1565b9050611d7481611613565b611db3576040805162461bcd60e51b81526020600482018190526024820152600080516020613cd4833981519152604482015290519081900360640190fd5b6000828152610166602052604090206006015460ff610100909104161515600114611e1b576040805162461bcd60e51b815260206004820152601360248201527211da5d995b881251081a5cc81a5b9d985b1a59606a1b604482015290519081900360640190fd5b6000828152610166602052604090206005015415611e80576040805162461bcd60e51b815260206004820181905260248201527f53656564206e756d62657220697320616c72656164792067656e657261746564604482015290519081900360640190fd5b604080516370a0823160e01b81523060048201529051655af3107a40009173b0897686c545045afc77cf20ec7a532e3120e0f1916370a0823191602480820192602092909190829003018186803b158015611eda57600080fd5b505afa158015611eee573d6000803e3d6000fd5b505050506040513d6020811015611f0457600080fd5b50511015611f59576040805162461bcd60e51b815260206004820181905260248201527f496e73756666696369656e74204c494e4b20746f2070726f6365656420565246604482015290519081900360640190fd5b6000611f8b7ff86195cf7690c55907b2b611ebb7343a6f649bff128701cc542f0569e2c549da655af3107a4000613429565b60008181526101636020908152604080832080546001600160a01b0319163390811790915561016483529281902087905580518481524292810192909252805193945091927faeba677757adb30ff8b2f03114a5f7aedfa18c58954d4f67a8a5a1f65d848470929181900390910190a25050600160665550565b6002606654141561204b576040805162461bcd60e51b815260206004820152601f6024820152600080516020613c3f833981519152604482015290519081900360640190fd5b6002606655600061205a612ef1565b905061206581611613565b6120a4576040805162461bcd60e51b81526020600482018190526024820152600080516020613cd4833981519152604482015290519081900360640190fd5b60008481526101666020526040902060060154610100900460ff1615612108576040805162461bcd60e51b815260206004820152601460248201527311da5d995b881251081a5cc81bd8d8dd5c1a595960621b604482015290519081900360640190fd5b60008481526101666020908152604090912060068101805461ff001916610100179055845161213992860190613bbc565b50600084815261016660209081526040909120835161216092600190920191850190613b71565b50837f8133537ae7f66126e2c2f00bd8d8d66977b41620113eea31ac6fd6c571158d448484604051808060200180602001838103835285818151815260200191508051906020019080838360005b838110156121c65781810151838201526020016121ae565b50505050905090810190601f1680156121f35780820380516001836020036101000a031916815260200191505b508381038252845181528451602091820191808701910280838360005b83811015612228578181015183820152602001612210565b5050505090500194505050505060405180910390a2505060016066555050565b6002606654141561228e576040805162461bcd60e51b815260206004820152601f6024820152600080516020613c3f833981519152604482015290519081900360640190fd5b600260665560408051637921219560e11b815233600480830191909152306024830152604482018590526064820184905260a0608483015260a4820152630307830360e41b60c482015290516001600160a01b0385169163f242432a9160e480830192600092919082900301818387803b15801561230b57600080fd5b505af115801561231f573d6000803e3d6000fd5b5050604080513381526001600160a01b0387166020820152808201869052606081018590526001608082015290517f4650251833fea404cc00aad3da10dade0b14fb7a08758404b4ff967b4b34281693509081900360a0019150a15050600160665550565b600260665414156123ca576040805162461bcd60e51b815260206004820152601f6024820152600080516020613c3f833981519152604482015290519081900360640190fd5b60026066556000838152610166602052604090206006015460ff610100909104161515600114612441576040805162461bcd60e51b815260206004820152601960248201527f476976656e204576656e7420494420697320696e76616c696400000000000000604482015290519081900360640190fd5b6000838152610166602052604090206006015460ff161561249e576040805162461bcd60e51b8152602060048201526012602482015271151a1948195d995b9d081a5cc8195b99195960721b604482015290519081900360640190fd5b60008381526101666020908152604080832033845260030190915290205460ff1615612511576040805162461bcd60e51b815260206004820152601d60248201527f5468652063616c6c657220697320616c726561647920636c61696d6564000000604482015290519081900360640190fd5b61251c838383612ef5565b151560011461255c5760405162461bcd60e51b8152600401808060200182810382526032815260200180613cf46032913960400191505060405180910390fd5b6000828152610165602052604090206002015460ff1615612620576000828152610165602052604080822080546001918201548351637921219560e11b8152306004808301919091523360248301526044820192909252606481019390935260a0608484015260a4830152630307830360e41b60c483015291516001600160a01b039092169263f242432a9260e48084019382900301818387803b15801561260357600080fd5b505af1158015612617573d6000803e3d6000fd5b505050506126a1565b6000828152610165602052604080822080546001909101548251632142170760e11b8152306004820152336024820152604481019190915291516001600160a01b03909116926342842e0e926064808201939182900301818387803b15801561268857600080fd5b505af115801561269c573d6000803e3d6000fd5b505050505b60008381526101666020908152604080832033808552600382018452828520805460ff19166001908117909155600490920180548301905586855261016584529382902080549181015460029091015483519586529385018890526001600160a01b039190911684830152606084015260ff9190911615156080830152517f4c9100214741dbc7f953cb38b477362273dc50162972f625b4af38ccf8d4a1259181900360a00190a15050600160665550565b60026066541415612799576040805162461bcd60e51b815260206004820152601f6024820152600080516020613c3f833981519152604482015290519081900360640190fd5b600260665560006127a8612ef1565b90506127b381611613565b6127f2576040805162461bcd60e51b81526020600482018190526024820152600080516020613cd4833981519152604482015290519081900360640190fd5b60408051632142170760e11b81523060048201526001600160a01b038681166024830152604482018590529151918516916342842e0e9160648082019260009290919082900301818387803b15801561284a57600080fd5b505af115801561285e573d6000803e3d6000fd5b50506001606655505050505050565b63bc197c8160e01b95945050505050565b600260665414156128c4576040805162461bcd60e51b815260206004820152601f6024820152600080516020613c3f833981519152604482015290519081900360640190fd5b600260665560006128d3612ef1565b90506128de81611613565b61291d576040805162461bcd60e51b81526020600482018190526024820152600080516020613cd4833981519152604482015290519081900360640190fd5b6000838152610167602052604090206003015460ff161561297c576040805162461bcd60e51b815260206004820152601460248201527311da5d995b881251081a5cc81bd8d8dd5c1a595960621b604482015290519081900360640190fd5b60008381526101676020908152604090912060038101805460ff1916600117905583516129ab92850190613bbc565b50827fed06d1e70f1faa0e1750def1b3a1d942390a8f47d03679c9025a1c38dc34fe7b836040518080602001828103825283818151815260200191508051906020019080838360005b83811015612a0c5781810151838201526020016129f4565b50505050905090810190601f168015612a395780820380516001836020036101000a031916815260200191505b509250505060405180910390a25050600160665550565b655af3107a400081565b6000611257848484613582565b60026066541415612aad576040805162461bcd60e51b815260206004820152601f6024820152600080516020613c3f833981519152604482015290519081900360640190fd5b60026066556000612abc612ef1565b9050612ac781611613565b612b06576040805162461bcd60e51b81526020600482018190526024820152600080516020613cd4833981519152604482015290519081900360640190fd5b6000838152610166602052604090206006015460ff610100909104161515600114612b6e576040805162461bcd60e51b815260206004820152601360248201527211da5d995b881251081a5cc81a5b9d985b1a59606a1b604482015290519081900360640190fd5b5060009182526101666020526040909120600201556001606655565b60026066541415612bd0576040805162461bcd60e51b815260206004820152601f6024820152600080516020613c3f833981519152604482015290519081900360640190fd5b600260665560408051632142170760e11b81523360048201523060248201526044810183905290516001600160a01b038416916342842e0e91606480830192600092919082900301818387803b158015612c2957600080fd5b505af1158015612c3d573d6000803e3d6000fd5b5050604080513381526001600160a01b0386166020820152808201859052600160608201526000608082015290517f4650251833fea404cc00aad3da10dade0b14fb7a08758404b4ff967b4b34281693509081900360a0019150a150506001606655565b60026066541415612ce7576040805162461bcd60e51b815260206004820152601f6024820152600080516020613c3f833981519152604482015290519081900360640190fd5b60026066556000612cf6612ef1565b9050612d0181611613565b612d40576040805162461bcd60e51b81526020600482018190526024820152600080516020613cd4833981519152604482015290519081900360640190fd5b6040805163a9059cbb60e01b81523360048201526024810184905290516001600160a01b0385169163a9059cbb9160448083019260209291908290030181600087803b158015612d8f57600080fd5b505af1158015612da3573d6000803e3d6000fd5b505050506040513d6020811015612db957600080fd5b50506001606655505050565b73b0897686c545045afc77cf20ec7a532e3120e0f181565b63f23a6e6160e01b95945050505050565b612df6612ef1565b6001600160a01b0316612e07611c9b565b6001600160a01b031614612e50576040805162461bcd60e51b81526020600482018190526024820152600080516020613cd4833981519152604482015290519081900360640190fd5b6001600160a01b038116612e955760405162461bcd60e51b8152600401808060200182810382526026815260200180613c5f6026913960400191505060405180910390fd5b6033546040516001600160a01b038084169216907f8be0079c531659141344cd1fd0a4f28419497f9722a3daafe3b4186f6b6457e090600090a3603380546001600160a01b0319166001600160a01b0392909216919091179055565b3390565b600080338460405160200180836001600160a01b031660601b815260140182815260200192505050604051602081830303815290604052805190602001209050612f578361016660008881526020019081526020016000206002015483613639565b95945050505050565b6000612f6b306136e2565b15905090565b600054610100900460ff1680612f8a5750612f8a612f60565b80612f98575060005460ff16155b612fd35760405162461bcd60e51b815260040180806020018281038252602e815260200180613ca6602e913960400191505060405180910390fd5b600054610100900460ff16158015612ffe576000805460ff1961ff0019909116610100171660011790555b611c866136e8565b600054610100900460ff168061301f575061301f612f60565b8061302d575060005460ff16155b6130685760405162461bcd60e51b815260040180806020018281038252602e815260200180613ca6602e913960400191505060405180910390fd5b600054610100900460ff16158015613093576000805460ff1961ff0019909116610100171660011790555b611c86613788565b600054610100900460ff16806130b457506130b4612f60565b806130c2575060005460ff16155b6130fd5760405162461bcd60e51b815260040180806020018281038252602e815260200180613ca6602e913960400191505060405180910390fd5b600054610100900460ff16158015613128576000805460ff1961ff0019909116610100171660011790555b613130613788565b612ffe613825565b600054610100900460ff16806131515750613151612f60565b8061315f575060005460ff16155b61319a5760405162461bcd60e51b815260040180806020018281038252602e815260200180613ca6602e913960400191505060405180910390fd5b600054610100900460ff161580156131c5576000805460ff1961ff0019909116610100171660011790555b611c866138c2565b600054610100900460ff16806131e657506131e6612f60565b806131f4575060005460ff16155b61322f5760405162461bcd60e51b815260040180806020018281038252602e815260200180613ca6602e913960400191505060405180910390fd5b600054610100900460ff1615801561325a576000805460ff1961ff0019909116610100171660011790555b613262613968565b600061326c612ef1565b6001600160a01b03166000908152606560205260409020805460ff19166001179055508015611c98576000805461ff001916905550565b6001600160e01b03198082161415613302576040805162461bcd60e51b815260206004820152601c60248201527f4552433136353a20696e76616c696420696e7465726661636520696400000000604482015290519081900360640190fd5b6001600160e01b0319166000908152609860205260409020805460ff19166001179055565b600054610100900460ff16806133405750613340612f60565b8061334e575060005460ff16155b6133895760405162461bcd60e51b815260040180806020018281038252602e815260200180613ca6602e913960400191505060405180910390fd5b600054610100900460ff161580156133b4576000805460ff1961ff0019909116610100171660011790555b61016180546001600160a01b038086166001600160a01b03199283161790925561016080549285169290911691909117905580156133f8576000805461ff00191690555b505050565b6000828152610164602052604090205480156133f8576000908152610166602052604090206005015550565b61016054610161546040805160208082018790526000828401819052835180840385018152606080850195869052630200057560e51b9095526001600160a01b0395861660648501818152608486018a905260a48601968752825160c4870152825193989790971696634000aea09691958a959394919360e490910191908501908083838d5b838110156134c75781810151838201526020016134af565b50505050905090810190601f1680156134f45780820380516001836020036101000a031916815260200191505b50945050505050602060405180830381600087803b15801561351557600080fd5b505af1158015613529573d6000803e3d6000fd5b505050506040513d602081101561353f57600080fd5b50506000838152610162602052604081205461356090859083903090613a05565b6000858152610162602052604090208054600101905590506112578482613a4c565b6000838152610167602052604081206003015460ff1615156001146135e4576040805162461bcd60e51b815260206004820152601360248201527211da5d995b881251081a5cc81a5b9d985b1a59606a1b604482015290519081900360640190fd5b60008360405160200180826001600160a01b031660601b8152601401915050604051602081830303815290604052805190602001209050612f5783610167600088815260200190815260200160002060010154835b600081815b85518110156136d757600086828151811061365557fe5b6020026020010151905080831161369c57828160405160200180838152602001828152602001925050506040516020818303038152906040528051906020012092506136ce565b808360405160200180838152602001828152602001925050506040516020818303038152906040528051906020012092505b5060010161363e565b509092149392505050565b3b151590565b600054610100900460ff16806137015750613701612f60565b8061370f575060005460ff16155b61374a5760405162461bcd60e51b815260040180806020018281038252602e815260200180613ca6602e913960400191505060405180910390fd5b600054610100900460ff16158015611c86576000805460ff1961ff0019909116610100171660011790558015611c98576000805461ff001916905550565b600054610100900460ff16806137a157506137a1612f60565b806137af575060005460ff16155b6137ea5760405162461bcd60e51b815260040180806020018281038252602e815260200180613ca6602e913960400191505060405180910390fd5b600054610100900460ff16158015613815576000805460ff1961ff0019909116610100171660011790555b611c866301ffc9a760e01b6132a3565b600054610100900460ff168061383e575061383e612f60565b8061384c575060005460ff16155b6138875760405162461bcd60e51b815260040180806020018281038252602e815260200180613ca6602e913960400191505060405180910390fd5b600054610100900460ff161580156138b2576000805460ff1961ff0019909116610100171660011790555b611c86630271189760e51b6132a3565b600054610100900460ff16806138db57506138db612f60565b806138e9575060005460ff16155b6139245760405162461bcd60e51b815260040180806020018281038252602e815260200180613ca6602e913960400191505060405180910390fd5b600054610100900460ff1615801561394f576000805460ff1961ff0019909116610100171660011790555b60016066558015611c98576000805461ff001916905550565b600054610100900460ff16806139815750613981612f60565b8061398f575060005460ff16155b6139ca5760405162461bcd60e51b815260040180806020018281038252602e815260200180613ca6602e913960400191505060405180910390fd5b600054610100900460ff161580156139f5576000805460ff1961ff0019909116610100171660011790555b6139fd6136e8565b611c86613a78565b60408051602080820196909652808201949094526001600160a01b039290921660608401526080808401919091528151808403909101815260a09092019052805191012090565b604080516020808201949094528082019290925280518083038201815260609092019052805191012090565b600054610100900460ff1680613a915750613a91612f60565b80613a9f575060005460ff16155b613ada5760405162461bcd60e51b815260040180806020018281038252602e815260200180613ca6602e913960400191505060405180910390fd5b600054610100900460ff16158015613b05576000805460ff1961ff0019909116610100171660011790555b6000613b0f612ef1565b603380546001600160a01b0319166001600160a01b038316908117909155604051919250906000907f8be0079c531659141344cd1fd0a4f28419497f9722a3daafe3b4186f6b6457e0908290a3508015611c98576000805461ff001916905550565b828054828255906000526020600020908101928215613bac579160200282015b82811115613bac578251825591602001919060010190613b91565b50613bb8929150613c29565b5090565b828054600181600116156101000203166002900490600052602060002090601f016020900481019282601f10613bfd57805160ff1916838001178555613bac565b82800160010185558215613bac5791820182811115613bac578251825591602001919060010190613b91565b5b80821115613bb85760008155600101613c2a56fe5265656e7472616e637947756172643a207265656e7472616e742063616c6c004f776e61626c653a206e6577206f776e657220697320746865207a65726f206164647265737341727261792073697a65206973206e6f74207468652073616d65206c656e677468496e697469616c697a61626c653a20636f6e747261637420697320616c726561647920696e697469616c697a65644f776e61626c653a2063616c6c6572206973206e6f7420746865206f776e65725468652063616c6c6572206973206e6f7420656c696769626c6520746f20636c61696d2074686520676976656e20706f6170a2646970667358221220e3a74107d29c7cfd312e60fecf1359c3b434c49cab3928d95ed3de309ff6970064736f6c634300060c0033",
  "devdoc": {
    "details": "A contract aims to help distribute NFTs for collectors to users who met the conditions",
    "kind": "dev",
    "methods": {
      "addAddress(address)": {
        "details": "adds a given address to the whitelist",
        "params": {
          "_address": "address to add"
        }
      },
      "attachClaim(uint256,bytes32)": {
        "params": {
          "_eventId": "ID for the event",
          "_merkleRoot": "the root of the proof to be uploaded"
        }
      },
      "attachWhitelist(uint256,bytes32)": {
        "params": {
          "_merkleRoot": "the root of the proof to be uploaded",
          "_projectId": "ID for the project"
        }
      },
      "attachWhitelistBatch(uint256[],bytes32[])": {
        "params": {
          "_merkleRoots": "array of the root of the proof to be uploaded",
          "_projectIds": "array of ID for the project"
        }
      },
      "checkClaim(uint256,uint256,bytes32[])": {
        "params": {
          "_eventId": "the event that the caller wants to claim the prize",
          "_poapId": "ID of the POAP NFT recorded on this contract",
          "_proof": "the proof generated off-chain"
        },
        "returns": {
          "output": "the result"
        }
      },
      "claim(uint256,uint256,bytes32[])": {
        "params": {
          "_eventId": "the event that the caller wants to claim the prize",
          "_poapId": "ID of the POAP NFT recorded on this contract",
          "_proof": "the proof generated off-chain"
        }
      },
      "createEvent(uint256,string,uint256[])": {
        "params": {
          "_eventId": "ID for the event",
          "_name": "name of the event",
          "_poaps": "NFT that will be distributed"
        }
      },
      "createPoap(uint256,address,uint256,bool)": {
        "params": {
          "_assetAddress": "the NFT asset address",
          "_is1155": "ERC-1155 flags",
          "_poapId": "ID for the POAP",
          "_tokenId": "the token ID on the NFT"
        }
      },
      "createProject(uint256,string)": {
        "params": {
          "_name": "name of the project",
          "_projectId": "ID for the project"
        }
      },
      "depositERC1155(address,uint256,uint256)": {
        "params": {
          "_amount": "the amount of NFT to be deposited",
          "_assetAddress": "the NFT asset address",
          "_tokenId": "the token ID on the NFT"
        }
      },
      "depositERC721(address,uint256)": {
        "params": {
          "_assetAddress": "the NFT asset address",
          "_tokenId": "the token ID on the NFT"
        }
      },
      "eligible(uint256,address,bytes32[])": {
        "params": {
          "_address": "the wallet address that want to check",
          "_projectId": "the project ID",
          "_proof": "the proof generated off-chain"
        },
        "returns": {
          "output": "the result"
        }
      },
      "finalizeEvent(uint256)": {
        "params": {
          "_eventId": "ID of the event"
        }
      },
      "isWhitelisted(address)": {
        "details": "returns true if a given address is whitelisted, false if not",
        "params": {
          "_address": "address to check"
        },
        "returns": {
          "_0": "true if the address is whitelisted, false if not"
        }
      },
      "onERC721Received(address,address,uint256,bytes)": {
        "details": "See {IERC721Receiver-onERC721Received}. Always returns `IERC721Receiver.onERC721Received.selector`."
      },
      "owner()": {
        "details": "Returns the address of the current owner."
      },
      "removeAddress(address)": {
        "details": "removes a given address from the whitelist",
        "params": {
          "_address": "address to remove"
        }
      },
      "renounceOwnership()": {
        "details": "Leaves the contract without owner. It will not be possible to call `onlyOwner` functions anymore. Can only be called by the current owner. NOTE: Renouncing ownership will leave the contract without an owner, thereby removing any functionality that is only available to the owner."
      },
      "supportsInterface(bytes4)": {
        "details": "See {IERC165-supportsInterface}. Time complexity O(1), guaranteed to always use less than 30 000 gas."
      },
      "transferOwnership(address)": {
        "details": "Transfers ownership of the contract to a new account (`newOwner`). Can only be called by the current owner."
      },
      "updatePoaps(uint256,uint256[])": {
        "params": {
          "_eventId": "ID of the event",
          "_poaps": "array of the POAP ID"
        }
      }
    },
    "title": "Luckbox v.2",
    "version": 1
  },
  "userdoc": {
    "kind": "user",
    "methods": {
      "attachClaim(uint256,bytes32)": {
        "notice": "upload the root of the proof identifies who will be able to claim the prizes"
      },
      "attachWhitelist(uint256,bytes32)": {
        "notice": "upload the root of the proof identifies who is holding the project's NFTs"
      },
      "attachWhitelistBatch(uint256[],bytes32[])": {
        "notice": "upload the root of the proof identifies who is holding the project's NFTs (in batch)"
      },
      "checkClaim(uint256,uint256,bytes32[])": {
        "notice": "check whether the caller can claim a POAP NFT or not"
      },
      "claim(uint256,uint256,bytes32[])": {
        "notice": "claim the NFT if the caller is eligible for"
      },
      "createEvent(uint256,string,uint256[])": {
        "notice": "create a campaign"
      },
      "createPoap(uint256,address,uint256,bool)": {
        "notice": "create a record for POAP NFT which will be used during a claim period for mapping POAP ID <-> ASSET ADDRESS"
      },
      "createProject(uint256,string)": {
        "notice": "create a project, once set it allows users to verify that they  having the project's NFTs in the wallet"
      },
      "depositERC1155(address,uint256,uint256)": {
        "notice": "deposit ERC-1155 NFT prior to the claim, ideally should be called by the event's owner"
      },
      "depositERC721(address,uint256)": {
        "notice": "deposit ERC-721 NFT prior to the claim, ideally should be called by the event's owner"
      },
      "eligible(uint256,address,bytes32[])": {
        "notice": "check whether the given address has held NFTs or not"
      },
      "emergencyWithdrawERC1155(address,address,uint256,uint256)": {
        "notice": "withdraw ERC-1155 NFTs locked in the contract"
      },
      "emergencyWithdrawERC721(address,address,uint256)": {
        "notice": "withdraw ERC-721 NFTs locked in the contract"
      },
      "finalizeEvent(uint256)": {
        "notice": "finalize event for get seed"
      },
      "setEndEvent(uint256,bool)": {
        "notice": "set end flag to event"
      },
      "updatePoaps(uint256,uint256[])": {
        "notice": "replace POAP NFTs to be distributed on the event"
      }
    },
    "version": 1
  },
  "storageLayout": {
    "storage": [
      {
        "astId": 1105,
        "contract": "contracts/NFTLuckBoxUpgradeable.sol:LuckBoxUpgradeable",
        "label": "_initialized",
        "offset": 0,
        "slot": "0",
        "type": "t_bool"
      },
      {
        "astId": 1108,
        "contract": "contracts/NFTLuckBoxUpgradeable.sol:LuckBoxUpgradeable",
        "label": "_initializing",
        "offset": 1,
        "slot": "0",
        "type": "t_bool"
      },
      {
        "astId": 2223,
        "contract": "contracts/NFTLuckBoxUpgradeable.sol:LuckBoxUpgradeable",
        "label": "__gap",
        "offset": 0,
        "slot": "1",
        "type": "t_array(t_uint256)50_storage"
      },
      {
        "astId": 465,
        "contract": "contracts/NFTLuckBoxUpgradeable.sol:LuckBoxUpgradeable",
        "label": "_owner",
        "offset": 0,
        "slot": "51",
        "type": "t_address"
      },
      {
        "astId": 584,
        "contract": "contracts/NFTLuckBoxUpgradeable.sol:LuckBoxUpgradeable",
        "label": "__gap",
        "offset": 0,
        "slot": "52",
        "type": "t_array(t_uint256)49_storage"
      },
      {
        "astId": 22399,
        "contract": "contracts/NFTLuckBoxUpgradeable.sol:LuckBoxUpgradeable",
        "label": "whitelist",
        "offset": 0,
        "slot": "101",
        "type": "t_mapping(t_address,t_bool)"
      },
      {
        "astId": 2351,
        "contract": "contracts/NFTLuckBoxUpgradeable.sol:LuckBoxUpgradeable",
        "label": "_status",
        "offset": 0,
        "slot": "102",
        "type": "t_uint256"
      },
      {
        "astId": 2394,
        "contract": "contracts/NFTLuckBoxUpgradeable.sol:LuckBoxUpgradeable",
        "label": "__gap",
        "offset": 0,
        "slot": "103",
        "type": "t_array(t_uint256)49_storage"
      },
      {
        "astId": 673,
        "contract": "contracts/NFTLuckBoxUpgradeable.sol:LuckBoxUpgradeable",
        "label": "_supportedInterfaces",
        "offset": 0,
        "slot": "152",
        "type": "t_mapping(t_bytes4,t_bool)"
      },
      {
        "astId": 730,
        "contract": "contracts/NFTLuckBoxUpgradeable.sol:LuckBoxUpgradeable",
        "label": "__gap",
        "offset": 0,
        "slot": "153",
        "type": "t_array(t_uint256)49_storage"
      },
      {
        "astId": 1800,
        "contract": "contracts/NFTLuckBoxUpgradeable.sol:LuckBoxUpgradeable",
        "label": "__gap",
        "offset": 0,
        "slot": "202",
        "type": "t_array(t_uint256)50_storage"
      },
      {
        "astId": 1297,
        "contract": "contracts/NFTLuckBoxUpgradeable.sol:LuckBoxUpgradeable",
        "label": "__gap",
        "offset": 0,
        "slot": "252",
        "type": "t_array(t_uint256)50_storage"
      },
      {
        "astId": 1242,
        "contract": "contracts/NFTLuckBoxUpgradeable.sol:LuckBoxUpgradeable",
        "label": "__gap",
        "offset": 0,
        "slot": "302",
        "type": "t_array(t_uint256)50_storage"
      },
      {
        "astId": 22568,
        "contract": "contracts/NFTLuckBoxUpgradeable.sol:LuckBoxUpgradeable",
        "label": "LINK",
        "offset": 0,
        "slot": "352",
        "type": "t_contract(LinkTokenInterface)19453"
      },
      {
        "astId": 22570,
        "contract": "contracts/NFTLuckBoxUpgradeable.sol:LuckBoxUpgradeable",
        "label": "vrfCoordinator",
        "offset": 0,
        "slot": "353",
        "type": "t_address"
      },
      {
        "astId": 22574,
        "contract": "contracts/NFTLuckBoxUpgradeable.sol:LuckBoxUpgradeable",
        "label": "nonces",
        "offset": 0,
        "slot": "354",
        "type": "t_mapping(t_bytes32,t_uint256)"
      },
      {
        "astId": 8784,
        "contract": "contracts/NFTLuckBoxUpgradeable.sol:LuckBoxUpgradeable",
        "label": "requestIdToAddress",
        "offset": 0,
        "slot": "355",
        "type": "t_mapping(t_bytes32,t_address)"
      },
      {
        "astId": 8788,
        "contract": "contracts/NFTLuckBoxUpgradeable.sol:LuckBoxUpgradeable",
        "label": "requestIdToEventId",
        "offset": 0,
        "slot": "356",
        "type": "t_mapping(t_bytes32,t_uint256)"
      },
      {
        "astId": 8792,
        "contract": "contracts/NFTLuckBoxUpgradeable.sol:LuckBoxUpgradeable",
        "label": "poaps",
        "offset": 0,
        "slot": "357",
        "type": "t_mapping(t_uint256,t_struct(Poap)8739_storage)"
      },
      {
        "astId": 8796,
        "contract": "contracts/NFTLuckBoxUpgradeable.sol:LuckBoxUpgradeable",
        "label": "events",
        "offset": 0,
        "slot": "358",
        "type": "t_mapping(t_uint256,t_struct(Event)8759_storage)"
      },
      {
        "astId": 8800,
        "contract": "contracts/NFTLuckBoxUpgradeable.sol:LuckBoxUpgradeable",
        "label": "projects",
        "offset": 0,
        "slot": "359",
        "type": "t_mapping(t_uint256,t_struct(Project)8768_storage)"
      }
    ],
    "types": {
      "t_address": {
        "encoding": "inplace",
        "label": "address",
        "numberOfBytes": "20"
      },
      "t_array(t_uint256)49_storage": {
        "base": "t_uint256",
        "encoding": "inplace",
        "label": "uint256[49]",
        "numberOfBytes": "1568"
      },
      "t_array(t_uint256)50_storage": {
        "base": "t_uint256",
        "encoding": "inplace",
        "label": "uint256[50]",
        "numberOfBytes": "1600"
      },
      "t_array(t_uint256)dyn_storage": {
        "base": "t_uint256",
        "encoding": "dynamic_array",
        "label": "uint256[]",
        "numberOfBytes": "32"
      },
      "t_bool": {
        "encoding": "inplace",
        "label": "bool",
        "numberOfBytes": "1"
      },
      "t_bytes32": {
        "encoding": "inplace",
        "label": "bytes32",
        "numberOfBytes": "32"
      },
      "t_bytes4": {
        "encoding": "inplace",
        "label": "bytes4",
        "numberOfBytes": "4"
      },
      "t_contract(LinkTokenInterface)19453": {
        "encoding": "inplace",
        "label": "contract LinkTokenInterface",
        "numberOfBytes": "20"
      },
      "t_mapping(t_address,t_bool)": {
        "encoding": "mapping",
        "key": "t_address",
        "label": "mapping(address => bool)",
        "numberOfBytes": "32",
        "value": "t_bool"
      },
      "t_mapping(t_bytes32,t_address)": {
        "encoding": "mapping",
        "key": "t_bytes32",
        "label": "mapping(bytes32 => address)",
        "numberOfBytes": "32",
        "value": "t_address"
      },
      "t_mapping(t_bytes32,t_uint256)": {
        "encoding": "mapping",
        "key": "t_bytes32",
        "label": "mapping(bytes32 => uint256)",
        "numberOfBytes": "32",
        "value": "t_uint256"
      },
      "t_mapping(t_bytes4,t_bool)": {
        "encoding": "mapping",
        "key": "t_bytes4",
        "label": "mapping(bytes4 => bool)",
        "numberOfBytes": "32",
        "value": "t_bool"
      },
      "t_mapping(t_uint256,t_struct(Event)8759_storage)": {
        "encoding": "mapping",
        "key": "t_uint256",
        "label": "mapping(uint256 => struct LuckBoxUpgradeable.Event)",
        "numberOfBytes": "32",
        "value": "t_struct(Event)8759_storage"
      },
      "t_mapping(t_uint256,t_struct(Poap)8739_storage)": {
        "encoding": "mapping",
        "key": "t_uint256",
        "label": "mapping(uint256 => struct LuckBoxUpgradeable.Poap)",
        "numberOfBytes": "32",
        "value": "t_struct(Poap)8739_storage"
      },
      "t_mapping(t_uint256,t_struct(Project)8768_storage)": {
        "encoding": "mapping",
        "key": "t_uint256",
        "label": "mapping(uint256 => struct LuckBoxUpgradeable.Project)",
        "numberOfBytes": "32",
        "value": "t_struct(Project)8768_storage"
      },
      "t_string_storage": {
        "encoding": "bytes",
        "label": "string",
        "numberOfBytes": "32"
      },
      "t_struct(Event)8759_storage": {
        "encoding": "inplace",
        "label": "struct LuckBoxUpgradeable.Event",
        "members": [
          {
            "astId": 8741,
            "contract": "contracts/NFTLuckBoxUpgradeable.sol:LuckBoxUpgradeable",
            "label": "name",
            "offset": 0,
            "slot": "0",
            "type": "t_string_storage"
          },
          {
            "astId": 8744,
            "contract": "contracts/NFTLuckBoxUpgradeable.sol:LuckBoxUpgradeable",
            "label": "poaps",
            "offset": 0,
            "slot": "1",
            "type": "t_array(t_uint256)dyn_storage"
          },
          {
            "astId": 8746,
            "contract": "contracts/NFTLuckBoxUpgradeable.sol:LuckBoxUpgradeable",
            "label": "merkleRoot",
            "offset": 0,
            "slot": "2",
            "type": "t_bytes32"
          },
          {
            "astId": 8750,
            "contract": "contracts/NFTLuckBoxUpgradeable.sol:LuckBoxUpgradeable",
            "label": "claimed",
            "offset": 0,
            "slot": "3",
            "type": "t_mapping(t_address,t_bool)"
          },
          {
            "astId": 8752,
            "contract": "contracts/NFTLuckBoxUpgradeable.sol:LuckBoxUpgradeable",
            "label": "claimCount",
            "offset": 0,
            "slot": "4",
            "type": "t_uint256"
          },
          {
            "astId": 8754,
            "contract": "contracts/NFTLuckBoxUpgradeable.sol:LuckBoxUpgradeable",
            "label": "seed",
            "offset": 0,
            "slot": "5",
            "type": "t_uint256"
          },
          {
            "astId": 8756,
            "contract": "contracts/NFTLuckBoxUpgradeable.sol:LuckBoxUpgradeable",
            "label": "ended",
            "offset": 0,
            "slot": "6",
            "type": "t_bool"
          },
          {
            "astId": 8758,
            "contract": "contracts/NFTLuckBoxUpgradeable.sol:LuckBoxUpgradeable",
            "label": "active",
            "offset": 1,
            "slot": "6",
            "type": "t_bool"
          }
        ],
        "numberOfBytes": "224"
      },
      "t_struct(Poap)8739_storage": {
        "encoding": "inplace",
        "label": "struct LuckBoxUpgradeable.Poap",
        "members": [
          {
            "astId": 8734,
            "contract": "contracts/NFTLuckBoxUpgradeable.sol:LuckBoxUpgradeable",
            "label": "assetAddress",
            "offset": 0,
            "slot": "0",
            "type": "t_address"
          },
          {
            "astId": 8736,
            "contract": "contracts/NFTLuckBoxUpgradeable.sol:LuckBoxUpgradeable",
            "label": "tokenId",
            "offset": 0,
            "slot": "1",
            "type": "t_uint256"
          },
          {
            "astId": 8738,
            "contract": "contracts/NFTLuckBoxUpgradeable.sol:LuckBoxUpgradeable",
            "label": "is1155",
            "offset": 0,
            "slot": "2",
            "type": "t_bool"
          }
        ],
        "numberOfBytes": "96"
      },
      "t_struct(Project)8768_storage": {
        "encoding": "inplace",
        "label": "struct LuckBoxUpgradeable.Project",
        "members": [
          {
            "astId": 8761,
            "contract": "contracts/NFTLuckBoxUpgradeable.sol:LuckBoxUpgradeable",
            "label": "name",
            "offset": 0,
            "slot": "0",
            "type": "t_string_storage"
          },
          {
            "astId": 8763,
            "contract": "contracts/NFTLuckBoxUpgradeable.sol:LuckBoxUpgradeable",
            "label": "merkleRoot",
            "offset": 0,
            "slot": "1",
            "type": "t_bytes32"
          },
          {
            "astId": 8765,
            "contract": "contracts/NFTLuckBoxUpgradeable.sol:LuckBoxUpgradeable",
            "label": "timestamp",
            "offset": 0,
            "slot": "2",
            "type": "t_uint256"
          },
          {
            "astId": 8767,
            "contract": "contracts/NFTLuckBoxUpgradeable.sol:LuckBoxUpgradeable",
            "label": "active",
            "offset": 0,
            "slot": "3",
            "type": "t_bool"
          }
        ],
        "numberOfBytes": "128"
      },
      "t_uint256": {
        "encoding": "inplace",
        "label": "uint256",
        "numberOfBytes": "32"
      }
    }
  }
}