{
    "contractName": "PriceFeederTiingo",
    "abi": [
        {
            "inputs": [
                {
                    "internalType": "string",
                    "name": "_name",
                    "type": "string"
                },
                {
                    "internalType": "string",
                    "name": "_ticker",
                    "type": "string"
                },
                {
                    "internalType": "uint256",
                    "name": "_intialValue",
                    "type": "uint256"
                }
            ],
            "stateMutability": "nonpayable",
            "type": "constructor"
        },
        {
            "anonymous": false,
            "inputs": [
                {
                    "indexed": true,
                    "internalType": "bytes32",
                    "name": "id",
                    "type": "bytes32"
                }
            ],
            "name": "ChainlinkCancelled",
            "type": "event"
        },
        {
            "anonymous": false,
            "inputs": [
                {
                    "indexed": true,
                    "internalType": "bytes32",
                    "name": "id",
                    "type": "bytes32"
                }
            ],
            "name": "ChainlinkFulfilled",
            "type": "event"
        },
        {
            "anonymous": false,
            "inputs": [
                {
                    "indexed": true,
                    "internalType": "bytes32",
                    "name": "id",
                    "type": "bytes32"
                }
            ],
            "name": "ChainlinkRequested",
            "type": "event"
        },
        {
            "anonymous": false,
            "inputs": [
                {
                    "indexed": true,
                    "internalType": "address",
                    "name": "previousOwner",
                    "type": "address"
                },
                {
                    "indexed": true,
                    "internalType": "address",
                    "name": "newOwner",
                    "type": "address"
                }
            ],
            "name": "OwnershipTransferred",
            "type": "event"
        },
        {
            "inputs": [
                {
                    "internalType": "address",
                    "name": "_address",
                    "type": "address"
                }
            ],
            "name": "addAddress",
            "outputs": [],
            "stateMutability": "nonpayable",
            "type": "function"
        },
        {
            "inputs": [],
            "name": "isOwner",
            "outputs": [
                {
                    "internalType": "bool",
                    "name": "",
                    "type": "bool"
                }
            ],
            "stateMutability": "view",
            "type": "function",
            "constant": true
        },
        {
            "inputs": [
                {
                    "internalType": "address",
                    "name": "_address",
                    "type": "address"
                }
            ],
            "name": "isWhitelisted",
            "outputs": [
                {
                    "internalType": "bool",
                    "name": "",
                    "type": "bool"
                }
            ],
            "stateMutability": "view",
            "type": "function",
            "constant": true
        },
        {
            "inputs": [],
            "name": "name",
            "outputs": [
                {
                    "internalType": "string",
                    "name": "",
                    "type": "string"
                }
            ],
            "stateMutability": "view",
            "type": "function",
            "constant": true
        },
        {
            "inputs": [],
            "name": "owner",
            "outputs": [
                {
                    "internalType": "address",
                    "name": "",
                    "type": "address"
                }
            ],
            "stateMutability": "view",
            "type": "function",
            "constant": true
        },
        {
            "inputs": [
                {
                    "internalType": "address",
                    "name": "_address",
                    "type": "address"
                }
            ],
            "name": "removeAddress",
            "outputs": [],
            "stateMutability": "nonpayable",
            "type": "function"
        },
        {
            "inputs": [],
            "name": "renounceOwnership",
            "outputs": [],
            "stateMutability": "nonpayable",
            "type": "function"
        },
        {
            "inputs": [],
            "name": "ticker",
            "outputs": [
                {
                    "internalType": "string",
                    "name": "",
                    "type": "string"
                }
            ],
            "stateMutability": "view",
            "type": "function",
            "constant": true
        },
        {
            "inputs": [
                {
                    "internalType": "address",
                    "name": "newOwner",
                    "type": "address"
                }
            ],
            "name": "transferOwnership",
            "outputs": [],
            "stateMutability": "nonpayable",
            "type": "function"
        },
        {
            "inputs": [],
            "name": "value",
            "outputs": [
                {
                    "internalType": "uint256",
                    "name": "",
                    "type": "uint256"
                }
            ],
            "stateMutability": "view",
            "type": "function",
            "constant": true
        },
        {
            "inputs": [],
            "name": "getValue",
            "outputs": [
                {
                    "internalType": "uint256",
                    "name": "",
                    "type": "uint256"
                }
            ],
            "stateMutability": "view",
            "type": "function",
            "constant": true
        },
        {
            "inputs": [],
            "name": "getTimestamp",
            "outputs": [
                {
                    "internalType": "uint256",
                    "name": "",
                    "type": "uint256"
                }
            ],
            "stateMutability": "view",
            "type": "function",
            "constant": true
        },
        {
            "inputs": [
                {
                    "internalType": "uint256",
                    "name": "_newValue",
                    "type": "uint256"
                }
            ],
            "name": "requestPrice",
            "outputs": [],
            "stateMutability": "nonpayable",
            "type": "function"
        },
        {
            "inputs": [
                {
                    "internalType": "bytes32",
                    "name": "_requestId",
                    "type": "bytes32"
                },
                {
                    "internalType": "uint256",
                    "name": "_result",
                    "type": "uint256"
                }
            ],
            "name": "fulfill",
            "outputs": [],
            "stateMutability": "nonpayable",
            "type": "function"
        }
    ],
    "bytecode": "0x608060405260016004553480156200001657600080fd5b506040516200176638038062001766833981810160405260608110156200003c57600080fd5b81019080805160405193929190846401000000008211156200005d57600080fd5b9083019060208201858111156200007357600080fd5b82516401000000008111828201881017156200008e57600080fd5b82525081516020918201929091019080838360005b83811015620000bd578181015183820152602001620000a3565b50505050905090810190601f168015620000eb5780820380516001836020036101000a031916815260200191505b50604052602001805160405193929190846401000000008211156200010f57600080fd5b9083019060208201858111156200012557600080fd5b82516401000000008111828201881017156200014057600080fd5b82525081516020918201929091019080838360005b838110156200016f57818101518382015260200162000155565b50505050905090810190601f1680156200019d5780820380516001836020036101000a031916815260200191505b5060405260200151915060009050620001be6001600160e01b036200031d16565b600680546001600160a01b0319166001600160a01b038316908117909155604051919250906000907f8be0079c531659141344cd1fd0a4f28419497f9722a3daafe3b4186f6b6457e0908290a3506000811162000262576040805162461bcd60e51b815260206004820152601360248201527f57726f6e6720696e697469616c2076616c756500000000000000000000000000604482015290519081900360640190fd5b82516200027790600c906020860190620004ba565b5042600b556200028f6001600160e01b036200032216565b600880546001600160a01b0319167356dd6586db0d08c6ce7b2f2805af28616e0824551790557f34666262326565633531373434306361393439383237323666313261633532336009558151620002ee90600e906020850190620004ba565b50670de0b6b3a7640000600a55600d81905562000314336001600160e01b03620003b316565b5050506200055c565b335b90565b620003b173c89bd4e1632d3a43cb03aaad5262cbe4038bc5716001600160a01b03166338cc48316040518163ffffffff1660e01b815260040160206040518083038186803b1580156200037457600080fd5b505afa15801562000389573d6000803e3d6000fd5b505050506040513d6020811015620003a057600080fd5b50516001600160e01b036200046716565b565b620003c66001600160e01b036200048916565b62000418576040805162461bcd60e51b815260206004820181905260248201527f4f776e61626c653a2063616c6c6572206973206e6f7420746865206f776e6572604482015290519081900360640190fd5b6001600160a01b03811660009081526007602052604090205460ff1615620004405762000464565b6001600160a01b0381166000908152600760205260409020805460ff191660011790555b50565b600280546001600160a01b0319166001600160a01b0392909216919091179055565b6006546000906001600160a01b0316620004ab6001600160e01b036200031d16565b6001600160a01b031614905090565b828054600181600116156101000203166002900490600052602060002090601f016020900481019282601f10620004fd57805160ff19168380011785556200052d565b828001600101855582156200052d579182015b828111156200052d57825182559160200191906001019062000510565b506200053b9291506200053f565b5090565b6200031f91905b808211156200053b576000815560010162000546565b6111fa806200056c6000396000f3fe608060405234801561001057600080fd5b50600436106100ea5760003560e01c80634ba79dfe1161008c5780638da5cb5b116100665780638da5cb5b146102515780638f32d59b14610275578063cd7c92e31461027d578063f2fde38b1461029a576100ea565b80634ba79dfe1461021b578063715018a6146102415780638ba47bdd14610249576100ea565b806338eada1c116100c857806338eada1c1461018e5780633af32abf146101b65780633fa4f245146101f05780634357855e146101f8576100ea565b806306fdde03146100ef578063188ec3561461016c5780632096525514610186575b600080fd5b6100f76102c0565b6040805160208082528351818301528351919283929083019185019080838360005b83811015610131578181015183820152602001610119565b50505050905090810190601f16801561015e5780820380516001836020036101000a031916815260200191505b509250505060405180910390f35b61017461034e565b60408051918252519081900360200190f35b610174610354565b6101b4600480360360208110156101a457600080fd5b50356001600160a01b031661035a565b005b6101dc600480360360208110156101cc57600080fd5b50356001600160a01b03166103ee565b604080519115158252519081900360200190f35b61017461040c565b6101b46004803603604081101561020e57600080fd5b5080359060200135610412565b6101b46004803603602081101561023157600080fd5b50356001600160a01b03166104be565b6101b461054b565b6100f76105dc565b610259610637565b604080516001600160a01b039092168252519081900360200190f35b6101dc610646565b6101b46004803603602081101561029357600080fd5b503561066c565b6101b4600480360360208110156102b057600080fd5b50356001600160a01b03166107ed565b600c805460408051602060026001851615610100026000190190941693909304601f810184900484028201840190925281815292918301828280156103465780601f1061031b57610100808354040283529160200191610346565b820191906000526020600020905b81548152906001019060200180831161032957829003601f168201915b505050505081565b600b5490565b600d5490565b610362610646565b6103a1576040805162461bcd60e51b8152602060048201819052602482015260008051602061117d833981519152604482015290519081900360640190fd5b6001600160a01b03811660009081526007602052604090205460ff16156103c7576103eb565b6001600160a01b0381166000908152600760205260409020805460ff191660011790555b50565b6001600160a01b031660009081526007602052604090205460ff1690565b600d5481565b60008281526005602052604090205482906001600160a01b031633146104695760405162461bcd60e51b815260040180806020018281038252602881526020018061119d6028913960400191505060405180910390fd5b60008181526005602052604080822080546001600160a01b03191690555182917f7cc135e0cebb02c3480ae5d74d377283180a2601f8f644edf7987b009316c63a91a2506402540be40002600d555042600b55565b6104c6610646565b610505576040805162461bcd60e51b8152602060048201819052602482015260008051602061117d833981519152604482015290519081900360640190fd5b6001600160a01b03811660009081526007602052604090205460ff1661052a576103eb565b6001600160a01b03166000908152600760205260409020805460ff19169055565b610553610646565b610592576040805162461bcd60e51b8152602060048201819052602482015260008051602061117d833981519152604482015290519081900360640190fd5b6006546040516000916001600160a01b0316907f8be0079c531659141344cd1fd0a4f28419497f9722a3daafe3b4186f6b6457e0908390a3600680546001600160a01b0319169055565b600e805460408051602060026001851615610100026000190190941693909304601f810184900484028201840190925281815292918301828280156103465780601f1061031b57610100808354040283529160200191610346565b6006546001600160a01b031690565b6006546000906001600160a01b031661065d61083d565b6001600160a01b031614905090565b600061067661083d565b9050610681816103ee565b6106c0576040805162461bcd60e51b8152602060048201819052602482015260008051602061117d833981519152604482015290519081900360640190fd5b6106c86110e4565b6009546106dd90306321abc2af60e11b610841565b60408051808201825260068152653a34b1b5b2b960d11b602080830191909152600e8054845160026001831615610100026000190190921691909104601f810184900484028201840190955284815294955061079d94929390918301828280156107885780601f1061075d57610100808354040283529160200191610788565b820191906000526020600020905b81548152906001019060200180831161076b57829003601f168201915b50505050508361086c9092919063ffffffff16565b60408051808201909152600581526474696d657360d81b60208201526107cc908290606463ffffffff61089b16565b600854600a546107e7916001600160a01b03169083906108c5565b50505050565b6107f5610646565b610834576040805162461bcd60e51b8152602060048201819052602482015260008051602061117d833981519152604482015290519081900360640190fd5b6103eb81610a9c565b3390565b6108496110e4565b6108516110e4565b6108638186868663ffffffff610b3d16565b95945050505050565b6080830151610881908363ffffffff610b7a16565b6080830151610896908263ffffffff610b7a16565b505050565b60808301516108b0908363ffffffff610b7a16565b6080830151610896908263ffffffff610b9716565b6004546040805130606090811b60208084019190915260348084018690528451808503909101815260549093018452825192810192909220908601939093526000838152600590915281812080546001600160a01b0319166001600160a01b038816179055905182917fb5e6e01e79f91267dc17b4e6314d5d4d03593d2ceee0fbb452b750bd70ea5af991a26002546001600160a01b0316634000aea0858461096d87610bf6565b6040518463ffffffff1660e01b815260040180846001600160a01b03166001600160a01b0316815260200183815260200180602001828103825283818151815260200191508051906020019080838360005b838110156109d75781810151838201526020016109bf565b50505050905090810190601f168015610a045780820380516001836020036101000a031916815260200191505b50945050505050602060405180830381600087803b158015610a2557600080fd5b505af1158015610a39573d6000803e3d6000fd5b505050506040513d6020811015610a4f57600080fd5b5051610a8c5760405162461bcd60e51b815260040180806020018281038252602381526020018061115a6023913960400191505060405180910390fd5b6004805460010190559392505050565b6001600160a01b038116610ae15760405162461bcd60e51b81526004018080602001828103825260268152602001806111346026913960400191505060405180910390fd5b6006546040516001600160a01b038084169216907f8be0079c531659141344cd1fd0a4f28419497f9722a3daafe3b4186f6b6457e090600090a3600680546001600160a01b0319166001600160a01b0392909216919091179055565b610b456110e4565b610b558560800151610100610d36565b50509183526001600160a01b031660208301526001600160e01b031916604082015290565b610b878260038351610d76565b610896828263ffffffff610e8016565b67ffffffffffffffff19811215610bb757610bb28282610ea1565b610bf2565b67ffffffffffffffff811315610bd157610bb28282610ee0565b60008112610be557610bb282600083610d76565b610bf28260018319610d76565b5050565b6060634042994660e01b6000808460000151856020015186604001518760600151600189608001516000015160405160240180896001600160a01b03166001600160a01b03168152602001888152602001878152602001866001600160a01b03166001600160a01b03168152602001856001600160e01b0319166001600160e01b031916815260200184815260200183815260200180602001828103825283818151815260200191508051906020019080838360005b83811015610cc4578181015183820152602001610cac565b50505050905090810190601f168015610cf15780820380516001836020036101000a031916815260200191505b5060408051601f198184030181529190526020810180516001600160e01b03166001600160e01b0319909d169c909c17909b5250989950505050505050505050919050565b610d3e611119565b6020820615610d535760208206602003820191505b506020808301829052604080518085526000815283019091019052815b92915050565b60178111610d9d57610d978360e0600585901b16831763ffffffff610f1b16565b50610896565b60ff8111610dd357610dc0836018611fe0600586901b161763ffffffff610f1b16565b50610d978382600163ffffffff610f3316565b61ffff8111610e0a57610df7836019611fe0600586901b161763ffffffff610f1b16565b50610d978382600263ffffffff610f3316565b63ffffffff8111610e4357610e3083601a611fe0600586901b161763ffffffff610f1b16565b50610d978382600463ffffffff610f3316565b67ffffffffffffffff811161089657610e6d83601b611fe0600586901b161763ffffffff610f1b16565b506107e78382600863ffffffff610f3316565b610e88611119565b610e9a83846000015151848551610f54565b9392505050565b610eb28260c363ffffffff610f1b16565b50610bf282826000190360405160200180828152602001915050604051602081830303815290604052611000565b610ef18260c263ffffffff610f1b16565b50610bf2828260405160200180828152602001915050604051602081830303815290604052611000565b610f23611119565b610e9a838460000151518461100d565b610f3b611119565b610f4c848560000151518585611058565b949350505050565b610f5c611119565b8251821115610f6a57600080fd5b84602001518285011115610f9457610f9485610f8c87602001518786016110b6565b6002026110cd565b600080865180518760208301019350808887011115610fb35787860182525b505050602084015b60208410610fda5780518252601f199093019260209182019101610fbb565b51815160001960208690036101000a019081169019919091161790525083949350505050565b610b878260028351610d76565b611015611119565b83602001518310611031576110318485602001516002026110cd565b83518051602085830101848153508085141561104e576001810182525b5093949350505050565b611060611119565b8460200151848301111561107d5761107d858584016002026110cd565b60006001836101000a0390508551838682010185831982511617815250805184870111156110ab5783860181525b509495945050505050565b6000818311156110c7575081610d70565b50919050565b81516110d98383610d36565b506107e78382610e80565b6040805160a081018252600080825260208201819052918101829052606081019190915260808101611114611119565b905290565b60405180604001604052806060815260200160008152509056fe4f776e61626c653a206e6577206f776e657220697320746865207a65726f2061646472657373756e61626c6520746f207472616e73666572416e6443616c6c20746f206f7261636c654f776e61626c653a2063616c6c6572206973206e6f7420746865206f776e6572536f75726365206d75737420626520746865206f7261636c65206f66207468652072657175657374a264697066735822122004921f40ca1607b5aeeb9d885205b5d016e62c7e8cc781a41d9dfcbc28f9d98164736f6c63430006090033",
    "immutableReferences": {},
    "source": "// SPDX-License-Identifier: MIT\n\npragma solidity 0.6.9;\n\nimport \"./utility/Ownable.sol\";\nimport \"./utility/Whitelist.sol\";\nimport \"./interfaces/IPriceFeeder.sol\";\nimport \"./utility/chainlink/ChainlinkClient.sol\";\n\ncontract PriceFeederTiingo is ChainlinkClient, Whitelist, IPriceFeeder {\n\n    // Chainlink \n    address private oracle;\n    bytes32 private jobId;\n    uint256 private fee;\n\n    uint256 private timestamp;\n    string public name;\n    uint256 public value;\n    // Tiingo Ticker\n    string public ticker;\n\n    constructor(string memory _name, string memory _ticker, uint256 _intialValue) public {\n\n        require(_intialValue > 0, \"Wrong initial value\");\n\n        name = _name;\n        timestamp = now;\n\n        setPublicChainlinkToken();\n        // Kovan Tiingo EOD Price Oracle\n        oracle = 0x56dd6586DB0D08c6Ce7B2f2805af28616E082455;\n        jobId = \"4fbb2eec517440ca94982726f12ac523\";\n        ticker = _ticker;\n        fee = 1 * 10 ** 18;\n        value = _intialValue;\n\n        addAddress(msg.sender);\n    }\n\n    // Get price\n    function getValue() public override view returns (uint256) {\n        return value;\n    }\n\n    // Get updated timestamp\n    function getTimestamp() public override view returns (uint256) {\n        return timestamp;\n    }\n\n    // Don't forget to fund LINK tokens to the contract\n    function requestPrice(uint256 _newValue) public onlyWhitelisted() {\n        Chainlink.Request memory req = buildChainlinkRequest(jobId, address(this), this.fulfill.selector);\n        req.add(\"ticker\", ticker);\n        req.addInt(\"times\", 100);\n        sendChainlinkRequestTo(oracle, req, fee);\n    }\n\n    /**\n     * Callback function\n     */\n    function fulfill(bytes32 _requestId, uint256 _result) public recordChainlinkFulfillment(_requestId) {\n        value = _result * 1e10;\n        timestamp = now;\n    }\n\n}",
    "sourcePath": "/home/pisuthd/Desktop/elliptix/tamago-finance/core/contracts/PriceFeederTiingo.sol",
    "compiler": {
        "name": "solc",
        "version": "0.6.9+commit.3e3065ac.Emscripten.clang"
    },
    "schemaVersion": "3.2.0",
    "updatedAt": "2021-04-03T05:13:26.274Z",
    "networkType": "ethereum",
    "devdoc": {
        "methods": {
            "addAddress(address)": {
                "details": "adds a given address to the whitelist ",
                "params": {
                    "_address": "address to add"
                }
            },
            "isOwner()": {
                "details": "Returns true if the caller is the current owner."
            },
            "isWhitelisted(address)": {
                "details": "returns true if a given address is whitelisted, false if not ",
                "params": {
                    "_address": "address to check "
                },
                "returns": {
                    "_0": "true if the address is whitelisted, false if not"
                }
            },
            "owner()": {
                "details": "Returns the address of the current owner."
            },
            "removeAddress(address)": {
                "details": "removes a given address from the whitelist ",
                "params": {
                    "_address": "address to remove"
                }
            },
            "renounceOwnership()": {
                "details": "Leaves the contract without owner. It will not be possible to call `onlyOwner` functions anymore. Can only be called by the current owner. NOTE: Renouncing ownership will leave the contract without an owner, thereby removing any functionality that is only available to the owner."
            },
            "transferOwnership(address)": {
                "details": "Transfers ownership of the contract to a new account (`newOwner`). Can only be called by the current owner."
            }
        }
    },
    "userdoc": {
        "methods": {
            "fulfill(bytes32,uint256)": {
                "notice": "Callback function"
            }
        }
    }
}