{
  "contractName": "ChainlinkPriceFeeder",
  "abi": [
    {
      "inputs": [
        {
          "internalType": "string",
          "name": "_name",
          "type": "string"
        },
        {
          "internalType": "address",
          "name": "_chainlinkPriceFeedAddress",
          "type": "address"
        },
        {
          "internalType": "uint8",
          "name": "_decimals",
          "type": "uint8"
        }
      ],
      "stateMutability": "nonpayable",
      "type": "constructor"
    },
    {
      "inputs": [],
      "name": "decimals",
      "outputs": [
        {
          "internalType": "uint8",
          "name": "",
          "type": "uint8"
        }
      ],
      "stateMutability": "view",
      "type": "function"
    },
    {
      "inputs": [],
      "name": "name",
      "outputs": [
        {
          "internalType": "string",
          "name": "",
          "type": "string"
        }
      ],
      "stateMutability": "view",
      "type": "function"
    },
    {
      "inputs": [],
      "name": "getValue",
      "outputs": [
        {
          "internalType": "uint256",
          "name": "",
          "type": "uint256"
        }
      ],
      "stateMutability": "view",
      "type": "function"
    },
    {
      "inputs": [],
      "name": "getTimestamp",
      "outputs": [
        {
          "internalType": "uint256",
          "name": "",
          "type": "uint256"
        }
      ],
      "stateMutability": "view",
      "type": "function"
    },
    {
      "inputs": [
        {
          "internalType": "uint8",
          "name": "dayAgo",
          "type": "uint8"
        }
      ],
      "name": "getPastValue",
      "outputs": [
        {
          "internalType": "int256",
          "name": "",
          "type": "int256"
        },
        {
          "internalType": "uint256",
          "name": "",
          "type": "uint256"
        }
      ],
      "stateMutability": "view",
      "type": "function"
    },
    {
      "inputs": [
        {
          "internalType": "uint8",
          "name": "totalDay",
          "type": "uint8"
        }
      ],
      "name": "getAveragePrice",
      "outputs": [
        {
          "internalType": "uint256",
          "name": "",
          "type": "uint256"
        },
        {
          "internalType": "uint8",
          "name": "",
          "type": "uint8"
        }
      ],
      "stateMutability": "view",
      "type": "function"
    },
    {
      "inputs": [],
      "name": "totalRoundInDay",
      "outputs": [
        {
          "internalType": "uint256",
          "name": "",
          "type": "uint256"
        }
      ],
      "stateMutability": "view",
      "type": "function"
    }
  ],
  "bytecode": "0x60806040523480156200001157600080fd5b5060405162000f9c38038062000f9c833981810160405260608110156200003757600080fd5b81019080805160405193929190846401000000008211156200005857600080fd5b9083019060208201858111156200006e57600080fd5b82516401000000008111828201881017156200008957600080fd5b82525081516020918201929091019080838360005b83811015620000b85781810151838201526020016200009e565b50505050905090810190601f168015620000e65780820380516001836020036101000a031916815260200191505b50604090815260208201519101519092509050600860ff821614806200010f57508060ff166012145b62000161576040805162461bcd60e51b815260206004820152601f60248201527f446563696d616c73206d757374206265206569746865722038206f7220313800604482015290519081900360640190fd5b825162000176906000906020860190620001b8565b50600180546001600160a01b039093166001600160a01b031960ff909316600160a01b0260ff60a01b1990941693909317919091169190911790555062000254565b828054600181600116156101000203166002900490600052602060002090601f016020900481019282601f10620001fb57805160ff19168380011785556200022b565b828001600101855582156200022b579182015b828111156200022b5782518255916020019190600101906200020e565b50620002399291506200023d565b5090565b5b808211156200023957600081556001016200023e565b610d3880620002646000396000f3fe608060405234801561001057600080fd5b506004361061007d5760003560e01c8063313ce5671161005b578063313ce567146101215780635940c5911461013f5780636e9abf561461017a578063a13d7223146101b35761007d565b806306fdde0314610082578063188ec356146100ff5780632096525514610119575b600080fd5b61008a6101bb565b6040805160208082528351818301528351919283929083019185019080838360005b838110156100c45781810151838201526020016100ac565b50505050905090810190601f1680156100f15780820380516001836020036101000a031916815260200191505b509250505060405180910390f35b610107610249565b60408051918252519081900360200190f35b610107610259565b61012961026b565b6040805160ff9092168252519081900360200190f35b61015f6004803603602081101561015557600080fd5b503560ff1661027b565b6040805192835260ff90911660208301528051918290030190f35b61019a6004803603602081101561019057600080fd5b503560ff166103a2565b6040805192835260208301919091528051918290030190f35b6101076103b7565b6000805460408051602060026001851615610100026000190190941693909304601f810184900484028201840190925281815292918301828280156102415780601f1061021657610100808354040283529160200191610241565b820191906000526020600020905b81548152906001019060200180831161022457829003601f168201915b505050505081565b60006102536103c1565b90505b90565b600080610264610447565b5091505090565b600154600160a01b900460ff1681565b60008060ff8316607810156102c15760405162461bcd60e51b8152600401808060200182810382526027815260200180610cdc6027913960400191505060405180910390fd5b60008080805b8660ff1681101561037757600660ff8816111561033857600660ff88160460ff1681816102f057fe5b06610333576102fe81610508565b50915081156103335761031582633b9aca006106af565b915061032a61032383610768565b84906107b2565b92506001840193505b61036f565b61034181610508565b509150811561036f5761035882633b9aca006106af565b915061036661032383610768565b92506001840193505b6001016102c7565b5061038682633b9aca00610809565b91506103958260ff8516610878565b945091925050505b915091565b6000806103ae83610508565b91509150915091565b60006102536108d7565b600080600160009054906101000a90046001600160a01b03166001600160a01b031663feaf968c6040518163ffffffff1660e01b815260040160a06040518083038186803b15801561041257600080fd5b505afa158015610426573d6000803e3d6000fd5b505050506040513d60a081101561043c57600080fd5b506060015191505090565b600080600080600160009054906101000a90046001600160a01b03166001600160a01b031663feaf968c6040518163ffffffff1660e01b815260040160a06040518083038186803b15801561049b57600080fd5b505afa1580156104af573d6000803e3d6000fd5b505050506040513d60a08110156104c557600080fd5b50602081015160609091015160015491935091508290600160a01b900460ff16600814156104ff576104fc816402540be400610809565b90505b93509150509091565b60008060ff83166078101561054e5760405162461bcd60e51b8152600401808060200182810382526027815260200180610cdc6027913960400191505060405180910390fd5b60ff831661056e57600080610561610447565b909450925061039d915050565b600061057984610a5b565b60015460408051639a6fc8f560e01b815269ffffffffffffffffffff8416600482015290519293506001600160a01b0390911691639a6fc8f59160248082019260a092909190829003018186803b1580156105d357600080fd5b505afa92505050801561061557506040513d60a08110156105f357600080fd5b5080516020820151604083015160608401516080909401519293919290919060015b61067857610621610c36565b8061062c575061063a565b60008093509350505061039d565b3d808015610664576040519150601f19603f3d011682016040523d82523d6000602084013e610669565b606091505b5060008093509350505061039d565b600154600160a01b900460ff166008141561069f5761069c846402540be400610b0f565b93505b5091955090935061039d92505050565b6000816106f7576040805162461bcd60e51b8152602060048201526011602482015270776469766973696f6e206279207a65726f60781b604482015290519081900360640190fd5b8160001914801561070b5750600160ff1b83145b15610752576040805162461bcd60e51b8152602060048201526012602482015271776469766973696f6e206f766572666c6f7760701b604482015290519081900360640190fd5b600082848161075d57fe5b059150505b92915050565b6000808212156107ae576040805162461bcd60e51b815260206004820152600c60248201526b696e74206f766572666c6f7760a01b604482015290519081900360640190fd5b5090565b600082820183811015610802576040805162461bcd60e51b8152602060048201526013602482015272556e6164646974696f6e206f766572666c6f7760681b604482015290519081900360640190fd5b9392505050565b60008261081857506000610762565b8282028284828161082557fe5b0414610802576040805162461bcd60e51b815260206004820152601960248201527f556e6d756c7469706c69636174696f6e206f766572666c6f7700000000000000604482015290519081900360640190fd5b60008082116108c3576040805162461bcd60e51b8152602060048201526012602482015271556e6469766973696f6e206279207a65726f60701b604482015290519081900360640190fd5b60008284816108ce57fe5b04949350505050565b60015460408051633fabe5a360e21b815290516000928392839283926001600160a01b03169163feaf968c9160048083019260a0929190829003018186803b15801561092257600080fd5b505afa158015610936573d6000803e3d6000fd5b505050506040513d60a081101561094c57600080fd5b50805160609091015190925090508042600061096b8362015180610bda565b905060005b607d811015610a29576001805460408051639a6fc8f560e01b815269ffffffffffffffffffff600019909a01998a166004820152905199909201986001600160a01b0390911691639a6fc8f59160248083019260a0929190829003018186803b1580156109dc57600080fd5b505afa1580156109f0573d6000803e3d6000fd5b505050506040513d60a0811015610a0657600080fd5b508051606090910151909650925082821115610a2157610a29565b600101610970565b506000610a368484610bda565b9050610a4f81610a498962015180610809565b90610878565b97505050505050505090565b600080600160009054906101000a90046001600160a01b03166001600160a01b031663feaf968c6040518163ffffffff1660e01b815260040160a06040518083038186803b158015610aac57600080fd5b505afa158015610ac0573d6000803e3d6000fd5b505050506040513d60a0811015610ad657600080fd5b505190506000610b07610af460ff8616610aee6108d7565b90610809565b69ffffffffffffffffffff841690610bda565b949350505050565b600082610b1e57506000610762565b82600019148015610b325750600160ff1b82145b15610b7f576040805162461bcd60e51b8152602060048201526018602482015277776d756c7469706c69636174696f6e206f766572666c6f7760401b604482015290519081900360640190fd5b82820282848281610b8c57fe5b0514610802576040805162461bcd60e51b8152602060048201526018602482015277776d756c7469706c69636174696f6e206f766572666c6f7760401b604482015290519081900360640190fd5b600082821115610c2a576040805162461bcd60e51b8152602060048201526016602482015275556e7375627472616374696f6e206f766572666c6f7760501b604482015290519081900360640190fd5b50900390565b60e01c90565b600060443d1015610c4657610256565b600481823e6308c379a0610c5a8251610c30565b14610c6457610256565b6040513d600319016004823e80513d67ffffffffffffffff8160248401118184111715610c945750505050610256565b82840192508251915080821115610cae5750505050610256565b503d83016020828401011115610cc657505050610256565b601f01601f191681016020016040529150509056fe476976656e2064617920697320657863656564696e67204d41585f4441595f4241434b57415244a264697066735822122048e693e6e48191f30c7cfccb50a0fc8be109979a4e7308955328e3038a8759b764736f6c634300060c0033",
  "immutableReferences": {},
  "source": "// SPDX-License-Identifier: MIT\n\npragma solidity 0.6.12;\n\nimport '@openzeppelin/contracts/access/Ownable.sol';\nimport \"../utility/Whitelist.sol\";\nimport \"../interfaces/IChainlinkPriceFeeder.sol\";\nimport \"../utility/LibMath.sol\";\nimport \"../utility/chainlink/interfaces/AggregatorV3Interface.sol\";\n\ncontract ChainlinkPriceFeeder is IChainlinkPriceFeeder {\n    using LibMathUnsigned for uint256;\n    using LibMathSigned for int256;\n\n    string public name;\n    // uint256 public value = 100000;\n    AggregatorV3Interface internal chainlinkPriceFeed;\n    uint8 public decimals;\n    uint256 private timestamp;\n    uint8 constant MAX_DAY_BACKWARD = 120;\n    uint8 constant MAX_ROUND_RECURSIVE = 125;\n    uint8 constant MAX_DATA_POINT = 6;\n\n    /*\n        Example:\n        _name : Facebook\n        _chainlinkPriceFeedAddress : 0xCe1051646393087e706288C1B57Fd26446657A7f\n        _decimals : 8\n    */\n\n    constructor(\n        string memory _name,\n        address _chainlinkPriceFeedAddress,\n        uint8 _decimals\n    ) public {\n        require(\n            _decimals == 8 || _decimals == 18,\n            \"Decimals must be either 8 or 18\"\n        );\n\n        name = _name;\n        decimals = _decimals; \n        chainlinkPriceFeed = AggregatorV3Interface(_chainlinkPriceFeedAddress);\n    }\n\n\n    // get current price\n    function getValue() external view override returns (uint256) {\n        (uint256 value, ) = _getCurrentValue();\n        return value;\n    }\n\n    // get current timmestamp\n    function getTimestamp() external view override returns (uint256) {\n        return _getTimestamp();\n    }\n\n    // get the price from the given day (ago)\n    // int256 - price at the given day\n    // uint256 - timestamp of the given day\n    function getPastValue(uint8 dayAgo)\n        external\n        view\n        override\n        returns (int256, uint256)\n    {\n        return _getPastValue(dayAgo);\n    }\n\n    // get the average price from the last given day until today, sampling only MAX_DATA_POINT to avoid gas error\n    // uint256 - avg. price between now and now-totalDay\n    // uint8 - total data points that has been calculated\n    function getAveragePrice(uint8 totalDay)\n        external\n        view\n        override\n        returns (uint256, uint8)\n    {\n        require(\n            MAX_DAY_BACKWARD >= totalDay,\n            \"Given day is exceeding MAX_DAY_BACKWARD\"\n        );\n\n        uint8 totalCount = 0;\n        uint256 sum = 0;\n        int256 v;\n\n        for (uint256 i = 0; i < totalDay; i++) {\n            if (totalDay > MAX_DATA_POINT) {\n                if ( i % (totalDay / MAX_DATA_POINT) == 0 ) {\n                    (v, ) = _getPastValue(uint8(i));\n                    if (v != 0) {\n                        v = v.div(10**9);\n                        sum = sum.add((v).toUint256()); \n                        totalCount += 1;\n                    } \n                }\n            } else {\n                // sum all values from last 7 days\n                (v, ) = _getPastValue(uint8(i));\n                if (v != 0) {\n                    v = v.div(10**9);\n                    sum = sum.add((v).toUint256());\n                    totalCount += 1;\n                }\n            }\n        }\n        sum = sum.mul(10**9);\n        return (sum.div(totalCount), totalCount);\n    }\n\n    // calculate roundID from the given day\n    function _calculateRoundIdAtDay(uint8 dayAgo)\n        internal\n        view\n        returns (uint256)\n    {\n        (uint80 roundID, , , , ) = chainlinkPriceFeed.latestRoundData();\n\n        uint256 targetRoundId = (uint256(roundID)).sub(\n            (_totalRoundInDay()).mul(uint256(dayAgo))\n        );\n\n        return targetRoundId;\n    }\n\n    // total rounds per day\n    function totalRoundInDay() public view returns (uint256) {\n        return _totalRoundInDay();\n    }\n\n    // INTERNAL FUNCTIONS\n\n    // looks for total round that have been generated in a day\n    function _totalRoundInDay() internal view returns (uint256) {\n        uint256 total = 0;\n\n        (uint80 roundID, , , uint256 timeStamp, ) = chainlinkPriceFeed\n            .latestRoundData();\n\n        uint256 startTimestamp = timeStamp;\n        uint256 endTimestamp = now;\n        uint256 targetTimestamp = timeStamp.sub(86400);\n\n        for (uint256 i = 0; i < MAX_ROUND_RECURSIVE; i++) {\n            roundID -= 1;\n            total += 1;\n\n            (roundID, , , endTimestamp, ) = chainlinkPriceFeed.getRoundData(\n                roundID\n            );\n\n            if (targetTimestamp > endTimestamp) {\n                break;\n            }\n        }\n\n        uint256 timeSpan = startTimestamp.sub(endTimestamp);\n        return (total.mul(86400)).div(timeSpan);\n    }\n\n    function _getTimestamp() internal view returns (uint256) {\n        (, , , uint256 timeStamp, ) = chainlinkPriceFeed.latestRoundData();\n\n        return uint256(timeStamp);\n    }\n\n    function _getPastValue(uint8 dayAgo)\n        internal\n        view\n        returns (int256, uint256)\n    {\n        require(\n            MAX_DAY_BACKWARD >= dayAgo,\n            \"Given day is exceeding MAX_DAY_BACKWARD\"\n        );\n\n        if (dayAgo == 0) {\n            (uint256 latestValue, uint256 latestTimeStamp) = _getCurrentValue();\n            return (int256(latestValue), latestTimeStamp);\n        }\n\n        uint256 targetRoundId = _calculateRoundIdAtDay(dayAgo);\n\n        try chainlinkPriceFeed.getRoundData(uint80(targetRoundId)) returns (\n            uint80 chainlinkId,\n            int256 chanlinkValue,\n            uint256 chainlinkStarted,\n            uint256 chainlinkTimestamp,\n            uint80 chainlinkAnswer\n        ) {\n            if (decimals == 8) {\n                chanlinkValue = chanlinkValue.mul(10**10);\n            }\n            return (chanlinkValue, chainlinkTimestamp);\n        } catch Error(\n            string memory /*reason*/\n        ) {\n            return (0, 0);\n        } catch (\n            bytes memory /*lowLevelData*/\n        ) {\n            return (0, 0);\n        }\n    }\n\n    function _getCurrentValue() internal view returns (uint256, uint256) {\n        (, int256 price, , uint256 timeStamp, ) = chainlinkPriceFeed\n            .latestRoundData();\n\n        uint256 output = uint256(price);\n\n        if (decimals == 8) {\n            output = output.mul(10**10);\n        }\n\n        return (output, timeStamp);\n    }\n}\n",
  "sourcePath": "/Users/kantapatchankasem/Work/tamago/tamago-finance/contractV2/contracts/feeders/ChainlinkPriceFeeder.sol",
  "compiler": {
    "name": "solc",
    "version": "0.6.12+commit.27d51765.Emscripten.clang"
  },
  "schemaVersion": "3.3.4",
  "updatedAt": "2021-11-11T08:48:33.221Z",
  "devdoc": {
    "kind": "dev",
    "methods": {},
    "version": 1
  },
  "userdoc": {
    "kind": "user",
    "methods": {},
    "version": 1
  }
}