{
  "contractName": "Collateral",
  "abi": [
    {
      "inputs": [],
      "name": "interactionDelay",
      "outputs": [
        {
          "internalType": "uint256",
          "name": "",
          "type": "uint256"
        }
      ],
      "stateMutability": "view",
      "type": "function"
    },
    {
      "inputs": [],
      "name": "minCollateral",
      "outputs": [
        {
          "internalType": "uint256",
          "name": "",
          "type": "uint256"
        }
      ],
      "stateMutability": "view",
      "type": "function"
    },
    {
      "inputs": [
        {
          "components": [
            {
              "internalType": "uint256",
              "name": "id",
              "type": "uint256"
            },
            {
              "internalType": "address payable",
              "name": "account",
              "type": "address"
            },
            {
              "internalType": "uint256",
              "name": "collateral",
              "type": "uint256"
            },
            {
              "internalType": "bytes32",
              "name": "currency",
              "type": "bytes32"
            },
            {
              "internalType": "uint256",
              "name": "amount",
              "type": "uint256"
            },
            {
              "internalType": "bool",
              "name": "short",
              "type": "bool"
            },
            {
              "internalType": "uint256",
              "name": "accruedInterest",
              "type": "uint256"
            },
            {
              "internalType": "uint256",
              "name": "interestIndex",
              "type": "uint256"
            },
            {
              "internalType": "uint256",
              "name": "lastInteraction",
              "type": "uint256"
            }
          ],
          "internalType": "struct ICollateralLoan.Loan",
          "name": "loan",
          "type": "tuple"
        }
      ],
      "name": "collateralRatio",
      "outputs": [
        {
          "internalType": "uint256",
          "name": "cratio",
          "type": "uint256"
        }
      ],
      "stateMutability": "view",
      "type": "function"
    },
    {
      "inputs": [
        {
          "internalType": "uint256",
          "name": "amount",
          "type": "uint256"
        },
        {
          "internalType": "bytes32",
          "name": "currency",
          "type": "bytes32"
        }
      ],
      "name": "maxLoan",
      "outputs": [
        {
          "internalType": "uint256",
          "name": "max",
          "type": "uint256"
        }
      ],
      "stateMutability": "view",
      "type": "function"
    }
  ],
  "bytecode": "0x608060405261012c60005534801561001657600080fd5b506101f9806100266000396000f3fe608060405234801561001057600080fd5b506004361061004c5760003560e01c806315aaf4dd146100515780637e1323551461006f578063ba2de9bc14610082578063dac8cf681461008a575b600080fd5b61005961009d565b6040516100669190610193565b60405180910390f35b61005961007d366004610172565b6100a3565b6100596100ab565b6100596100983660046100e4565b6100b1565b60005481565b600092915050565b60015481565b50600090565b80356001600160a01b03811681146100ce57600080fd5b92915050565b803580151581146100ce57600080fd5b60006101208083850312156100f7578182fd5b6101008161019c565b90508235815261011384602085016100b7565b60208201526040830135604082015260608301356060820152608083013560808201526101438460a085016100d4565b60a082015260c083013560c082015260e083013560e08201526101008084013581830152508091505092915050565b60008060408385031215610184578081fd5b50508035926020909101359150565b90815260200190565b60405181810167ffffffffffffffff811182821017156101bb57600080fd5b60405291905056fea2646970667358221220e75632ea9c66c4f9d9e0dfc29b10a5a75ec0f9aa6eaaa4fc14be8f23f2d3d6a464736f6c634300060c0033",
  "immutableReferences": {},
  "source": "// SPDX-License-Identifier: MIT\n\npragma solidity >=0.5.16;\n\npragma experimental ABIEncoderV2;\n\nimport \"./interfaces/ICollateralLoan.sol\";\nimport \"./CollateralState.sol\";\n\ncontract Collateral is ICollateralLoan {\n\n    uint public interactionDelay = 300;\n    uint public minCollateral;\n\n    function collateralRatio(Loan memory loan)\n        public\n        view\n        returns (uint256 cratio)\n    {\n        // uint256 cvalue =\n        //     _exchangeRates().effectiveValue(\n        //         collateralKey,\n        //         loan.collateral,\n        //         sUSD\n        //     );\n        // uint256 dvalue =\n        //     _exchangeRates().effectiveValue(\n        //         loan.currency,\n        //         loan.amount.add(loan.accruedInterest),\n        //         sUSD\n        //     );\n        // cratio = cvalue.divideDecimal(dvalue);\n    }\n\n    // The maximum number of synths issuable for this amount of collateral\n    function maxLoan(uint256 amount, bytes32 currency)\n        public\n        view\n        returns (uint256 max)\n    {\n        // max = issuanceRatio().multiplyDecimal(\n        //     _exchangeRates().effectiveValue(collateralKey, amount, currency)\n        // );\n    }\n\n\n\n}\n",
  "sourcePath": "/Users/kantapatchankasem/Work/tamago/tamago-finance/contractV2/contracts/utility/synthetix/Collateral.sol",
  "compiler": {
    "name": "solc",
    "version": "0.6.12+commit.27d51765.Emscripten.clang"
  },
  "schemaVersion": "3.3.4",
  "updatedAt": "2021-11-11T08:48:33.462Z",
  "devdoc": {
    "kind": "dev",
    "methods": {},
    "version": 1
  },
  "userdoc": {
    "kind": "user",
    "methods": {},
    "version": 1
  }
}