{
  "contractName": "CollateralState",
  "abi": [
    {
      "inputs": [
        {
          "internalType": "address",
          "name": "",
          "type": "address"
        },
        {
          "internalType": "uint256",
          "name": "",
          "type": "uint256"
        }
      ],
      "name": "loans",
      "outputs": [
        {
          "internalType": "uint256",
          "name": "id",
          "type": "uint256"
        },
        {
          "internalType": "address payable",
          "name": "account",
          "type": "address"
        },
        {
          "internalType": "uint256",
          "name": "collateral",
          "type": "uint256"
        },
        {
          "internalType": "bytes32",
          "name": "currency",
          "type": "bytes32"
        },
        {
          "internalType": "uint256",
          "name": "amount",
          "type": "uint256"
        },
        {
          "internalType": "bool",
          "name": "short",
          "type": "bool"
        },
        {
          "internalType": "uint256",
          "name": "accruedInterest",
          "type": "uint256"
        },
        {
          "internalType": "uint256",
          "name": "interestIndex",
          "type": "uint256"
        },
        {
          "internalType": "uint256",
          "name": "lastInteraction",
          "type": "uint256"
        }
      ],
      "stateMutability": "view",
      "type": "function"
    },
    {
      "inputs": [
        {
          "internalType": "address",
          "name": "account",
          "type": "address"
        },
        {
          "internalType": "uint256",
          "name": "loanID",
          "type": "uint256"
        }
      ],
      "name": "getLoan",
      "outputs": [
        {
          "components": [
            {
              "internalType": "uint256",
              "name": "id",
              "type": "uint256"
            },
            {
              "internalType": "address payable",
              "name": "account",
              "type": "address"
            },
            {
              "internalType": "uint256",
              "name": "collateral",
              "type": "uint256"
            },
            {
              "internalType": "bytes32",
              "name": "currency",
              "type": "bytes32"
            },
            {
              "internalType": "uint256",
              "name": "amount",
              "type": "uint256"
            },
            {
              "internalType": "bool",
              "name": "short",
              "type": "bool"
            },
            {
              "internalType": "uint256",
              "name": "accruedInterest",
              "type": "uint256"
            },
            {
              "internalType": "uint256",
              "name": "interestIndex",
              "type": "uint256"
            },
            {
              "internalType": "uint256",
              "name": "lastInteraction",
              "type": "uint256"
            }
          ],
          "internalType": "struct ICollateralLoan.Loan",
          "name": "",
          "type": "tuple"
        }
      ],
      "stateMutability": "view",
      "type": "function"
    },
    {
      "inputs": [
        {
          "internalType": "address",
          "name": "account",
          "type": "address"
        }
      ],
      "name": "getNumLoans",
      "outputs": [
        {
          "internalType": "uint256",
          "name": "numLoans",
          "type": "uint256"
        }
      ],
      "stateMutability": "view",
      "type": "function"
    }
  ],
  "bytecode": "0x608060405234801561001057600080fd5b5061043a806100206000396000f3fe608060405234801561001057600080fd5b50600436106100415760003560e01c806398c61c3714610046578063a1c5158614610077578063e0b6adbc14610097575b600080fd5b61005961005436600461030d565b6100b7565b60405161006e999897969594939291906103ba565b60405180910390f35b61008a61008536600461030d565b61012c565b60405161006e919061033d565b6100aa6100a53660046102eb565b61025f565b60405161006e91906103b1565b600060205281600052604060002081815481106100d057fe5b60009182526020909120600990910201805460018201546002830154600384015460048501546005860154600687015460078801546008909801549699506001600160a01b03909516975092959194909360ff90931692919089565b61013461027a565b6001600160a01b038316600090815260208181526040808320805482518185028101850190935280835260609492939192909184015b82821015610200576000848152602090819020604080516101208101825260098602909201805483526001808201546001600160a01b0316848601526002820154928401929092526003810154606084015260048101546080840152600581015460ff16151560a0840152600681015460c0840152600781015460e084015260080154610100830152908352909201910161016a565b50505050905060005b8151811015610256578382828151811061021f57fe5b602002602001015160000151141561024e5781818151811061023d57fe5b602002602001015192505050610259565b600101610209565b50505b92915050565b6001600160a01b031660009081526020819052604090205490565b6040518061012001604052806000815260200160006001600160a01b031681526020016000815260200160008019168152602001600081526020016000151581526020016000815260200160008152602001600081525090565b80356001600160a01b038116811461025957600080fd5b6000602082840312156102fc578081fd5b61030683836102d4565b9392505050565b6000806040838503121561031f578081fd5b61032984846102d4565b946020939093013593505050565b15159052565b815181526020808301516001600160a01b03169082015260408083015190820152606080830151908201526080808301519082015260a08083015161012083019161038a90840182610337565b5060c083015160c083015260e083015160e083015261010080840151818401525092915050565b90815260200190565b9889526001600160a01b03979097166020890152604088019590955260608701939093526080860191909152151560a085015260c084015260e0830152610100820152610120019056fea26469706673582212205914786794ae43bb8d3eea66866f15572395b86e93ec2cb8dc22c80705718c1464736f6c634300060c0033",
  "immutableReferences": {},
  "source": "// SPDX-License-Identifier: MIT\n\npragma solidity >=0.5.16;\n\npragma experimental ABIEncoderV2;\n\nimport \"./interfaces/ICollateralLoan.sol\";\n\ncontract CollateralState is ICollateralLoan {\n\n    mapping(address => Loan[]) public loans;\n\n    function getLoan(address account, uint256 loanID) external view returns (Loan memory) {\n        Loan[] memory accountLoans = loans[account];\n        for (uint i = 0; i < accountLoans.length; i++) {\n            if (accountLoans[i].id == loanID) {\n                return (accountLoans[i]);\n            }\n        }\n    }\n\n    function getNumLoans(address account) external view returns (uint numLoans) {\n        return loans[account].length;\n    }\n    \n}",
  "sourcePath": "/Users/kantapatchankasem/Work/tamago/tamago-finance/contractV2/contracts/utility/synthetix/CollateralState.sol",
  "compiler": {
    "name": "solc",
    "version": "0.6.12+commit.27d51765.Emscripten.clang"
  },
  "schemaVersion": "3.3.4",
  "updatedAt": "2021-11-11T08:48:33.466Z",
  "devdoc": {
    "kind": "dev",
    "methods": {},
    "version": 1
  },
  "userdoc": {
    "kind": "user",
    "methods": {},
    "version": 1
  }
}