{
  "contractName": "CollateralEth",
  "abi": [
    {
      "inputs": [
        {
          "components": [
            {
              "internalType": "uint256",
              "name": "id",
              "type": "uint256"
            },
            {
              "internalType": "address payable",
              "name": "account",
              "type": "address"
            },
            {
              "internalType": "uint256",
              "name": "collateral",
              "type": "uint256"
            },
            {
              "internalType": "bytes32",
              "name": "currency",
              "type": "bytes32"
            },
            {
              "internalType": "uint256",
              "name": "amount",
              "type": "uint256"
            },
            {
              "internalType": "bool",
              "name": "short",
              "type": "bool"
            },
            {
              "internalType": "uint256",
              "name": "accruedInterest",
              "type": "uint256"
            },
            {
              "internalType": "uint256",
              "name": "interestIndex",
              "type": "uint256"
            },
            {
              "internalType": "uint256",
              "name": "lastInteraction",
              "type": "uint256"
            }
          ],
          "internalType": "struct ICollateralLoan.Loan",
          "name": "loan",
          "type": "tuple"
        }
      ],
      "name": "collateralRatio",
      "outputs": [
        {
          "internalType": "uint256",
          "name": "cratio",
          "type": "uint256"
        }
      ],
      "stateMutability": "view",
      "type": "function"
    },
    {
      "inputs": [],
      "name": "interactionDelay",
      "outputs": [
        {
          "internalType": "uint256",
          "name": "",
          "type": "uint256"
        }
      ],
      "stateMutability": "view",
      "type": "function"
    },
    {
      "inputs": [
        {
          "internalType": "uint256",
          "name": "amount",
          "type": "uint256"
        },
        {
          "internalType": "bytes32",
          "name": "currency",
          "type": "bytes32"
        }
      ],
      "name": "maxLoan",
      "outputs": [
        {
          "internalType": "uint256",
          "name": "max",
          "type": "uint256"
        }
      ],
      "stateMutability": "view",
      "type": "function"
    },
    {
      "inputs": [],
      "name": "minCollateral",
      "outputs": [
        {
          "internalType": "uint256",
          "name": "",
          "type": "uint256"
        }
      ],
      "stateMutability": "view",
      "type": "function"
    },
    {
      "inputs": [
        {
          "internalType": "address",
          "name": "",
          "type": "address"
        }
      ],
      "name": "pendingWithdrawals",
      "outputs": [
        {
          "internalType": "uint256",
          "name": "",
          "type": "uint256"
        }
      ],
      "stateMutability": "view",
      "type": "function"
    },
    {
      "inputs": [
        {
          "internalType": "uint256",
          "name": "amount",
          "type": "uint256"
        },
        {
          "internalType": "bytes32",
          "name": "currency",
          "type": "bytes32"
        }
      ],
      "name": "open",
      "outputs": [],
      "stateMutability": "payable",
      "type": "function"
    },
    {
      "inputs": [
        {
          "internalType": "uint256",
          "name": "id",
          "type": "uint256"
        }
      ],
      "name": "close",
      "outputs": [],
      "stateMutability": "nonpayable",
      "type": "function"
    },
    {
      "inputs": [
        {
          "internalType": "address",
          "name": "borrower",
          "type": "address"
        },
        {
          "internalType": "uint256",
          "name": "id",
          "type": "uint256"
        }
      ],
      "name": "deposit",
      "outputs": [],
      "stateMutability": "payable",
      "type": "function"
    },
    {
      "inputs": [
        {
          "internalType": "uint256",
          "name": "id",
          "type": "uint256"
        },
        {
          "internalType": "uint256",
          "name": "withdrawAmount",
          "type": "uint256"
        }
      ],
      "name": "withdraw",
      "outputs": [],
      "stateMutability": "nonpayable",
      "type": "function"
    },
    {
      "inputs": [
        {
          "internalType": "address",
          "name": "account",
          "type": "address"
        },
        {
          "internalType": "uint256",
          "name": "id",
          "type": "uint256"
        },
        {
          "internalType": "uint256",
          "name": "amount",
          "type": "uint256"
        }
      ],
      "name": "repay",
      "outputs": [],
      "stateMutability": "nonpayable",
      "type": "function"
    },
    {
      "inputs": [
        {
          "internalType": "uint256",
          "name": "id",
          "type": "uint256"
        },
        {
          "internalType": "uint256",
          "name": "amount",
          "type": "uint256"
        }
      ],
      "name": "draw",
      "outputs": [],
      "stateMutability": "nonpayable",
      "type": "function"
    },
    {
      "inputs": [
        {
          "internalType": "address",
          "name": "borrower",
          "type": "address"
        },
        {
          "internalType": "uint256",
          "name": "id",
          "type": "uint256"
        },
        {
          "internalType": "uint256",
          "name": "amount",
          "type": "uint256"
        }
      ],
      "name": "liquidate",
      "outputs": [],
      "stateMutability": "nonpayable",
      "type": "function"
    },
    {
      "inputs": [
        {
          "internalType": "uint256",
          "name": "amount",
          "type": "uint256"
        }
      ],
      "name": "claim",
      "outputs": [],
      "stateMutability": "nonpayable",
      "type": "function"
    }
  ],
  "bytecode": "0x608060405261012c60005534801561001657600080fd5b50610402806100266000396000f3fe6080604052600436106100c25760003560e01c806347e7ef241161007f578063ba2de9bc11610059578063ba2de9bc14610190578063d2b8035a14610147578063dac8cf68146101a5578063f3f43703146101c5576100c2565b806347e7ef24146101625780637e132355146101705780638cd2e0c7146100dc576100c2565b806306c19e3f146100c75780630710285c146100dc5780630aebeb4e146100fc57806315aaf4dd1461011c578063379607f5146100fc578063441a3e7014610147575b600080fd5b6100da6100d5366004610366565b6101e5565b005b3480156100e857600080fd5b506100da6100f736600461028c565b6101e9565b34801561010857600080fd5b506100da61011736600461034e565b6101ee565b34801561012857600080fd5b506101316101f1565b60405161013e9190610387565b60405180910390f35b34801561015357600080fd5b506100da6100d5366004610366565b6100da6100d5366004610261565b34801561017c57600080fd5b5061013161018b366004610366565b6101f7565b34801561019c57600080fd5b506101316101ff565b3480156101b157600080fd5b506101316101c03660046102c0565b610205565b3480156101d157600080fd5b506101316101e036600461023e565b61020b565b5050565b505050565b50565b60005481565b600092915050565b60015481565b50600090565b60026020526000908152604090205481565b8035610228816103b7565b92915050565b8035801515811461022857600080fd5b60006020828403121561024f578081fd5b813561025a816103b7565b9392505050565b60008060408385031215610273578081fd5b823561027e816103b7565b946020939093013593505050565b6000806000606084860312156102a0578081fd5b83356102ab816103b7565b95602085013595506040909401359392505050565b60006101208083850312156102d3578182fd5b6102dc81610390565b9050823581526102ef846020850161021d565b602082015260408301356040820152606083013560608201526080830135608082015261031f8460a0850161022e565b60a082015260c083013560c082015260e083013560e08201526101008084013581830152508091505092915050565b60006020828403121561035f578081fd5b5035919050565b60008060408385031215610378578182fd5b50508035926020909101359150565b90815260200190565b60405181810167ffffffffffffffff811182821017156103af57600080fd5b604052919050565b6001600160a01b03811681146101ee57600080fdfea2646970667358221220b6f3e11171863d7f30adffe32c3b025f18070c9157dff723e8a63635b72aa09e64736f6c634300060c0033",
  "immutableReferences": {},
  "source": "// SPDX-License-Identifier: MIT\n\npragma solidity >=0.5.16;\n\npragma experimental ABIEncoderV2;\n\nimport \"./interfaces/ICollateralEth.sol\"; \nimport \"./Collateral.sol\";\n\ncontract CollateralEth is ICollateralEth, Collateral {\n\n    mapping(address => uint) public pendingWithdrawals;\n\n    function open(uint amount, bytes32 currency) override external payable {\n        // openInternal(msg.value, amount, currency, false);\n    }\n\n    function close(uint id) override external {\n        // uint collateral = closeInternal(msg.sender, id);\n\n        // pendingWithdrawals[msg.sender] = pendingWithdrawals[msg.sender].add(collateral);\n    }\n\n    function deposit(address borrower, uint id) override external payable {\n        // depositInternal(borrower, id, msg.value);\n    }\n\n    function withdraw(uint id, uint withdrawAmount) override external {\n        // uint amount = withdrawInternal(id, withdrawAmount);\n\n        // pendingWithdrawals[msg.sender] = pendingWithdrawals[msg.sender].add(amount);\n    }\n\n    function repay(\n        address account,\n        uint id,\n        uint amount\n    ) override external {\n        // repayInternal(account, msg.sender, id, amount);\n    }\n\n    function draw(uint id, uint amount) external {\n        // drawInternal(id, amount);\n    }\n\n    function liquidate(\n        address borrower,\n        uint id,\n        uint amount\n    ) override external {\n        // uint collateralLiquidated = liquidateInternal(borrower, id, amount);\n\n        // pendingWithdrawals[msg.sender] = pendingWithdrawals[msg.sender].add(collateralLiquidated);\n    }\n\n    function claim(uint amount) override external {\n        // If they try to withdraw more than their total balance, it will fail on the safe sub.\n        // pendingWithdrawals[msg.sender] = pendingWithdrawals[msg.sender].sub(amount);\n\n        // (bool success, ) = msg.sender.call.value(amount)(\"\");\n        // require(success, \"Transfer failed\");\n    }\n\n    \n\n}",
  "sourcePath": "/Users/kantapatchankasem/Work/tamago/tamago-finance/contractV2/contracts/utility/synthetix/CollateralEth.sol",
  "compiler": {
    "name": "solc",
    "version": "0.6.12+commit.27d51765.Emscripten.clang"
  },
  "schemaVersion": "3.3.4",
  "updatedAt": "2021-11-11T08:48:33.464Z",
  "devdoc": {
    "kind": "dev",
    "methods": {},
    "version": 1
  },
  "userdoc": {
    "kind": "user",
    "methods": {},
    "version": 1
  }
}