{
  "contractName": "MockPriceFeeder",
  "abi": [
    {
      "inputs": [
        {
          "internalType": "string",
          "name": "_name",
          "type": "string"
        }
      ],
      "stateMutability": "nonpayable",
      "type": "constructor"
    },
    {
      "anonymous": false,
      "inputs": [
        {
          "indexed": true,
          "internalType": "address",
          "name": "previousOwner",
          "type": "address"
        },
        {
          "indexed": true,
          "internalType": "address",
          "name": "newOwner",
          "type": "address"
        }
      ],
      "name": "OwnershipTransferred",
      "type": "event"
    },
    {
      "inputs": [
        {
          "internalType": "address",
          "name": "_address",
          "type": "address"
        }
      ],
      "name": "addAddress",
      "outputs": [],
      "stateMutability": "nonpayable",
      "type": "function"
    },
    {
      "inputs": [],
      "name": "averagePrice",
      "outputs": [
        {
          "internalType": "uint256",
          "name": "",
          "type": "uint256"
        }
      ],
      "stateMutability": "view",
      "type": "function"
    },
    {
      "inputs": [
        {
          "internalType": "address",
          "name": "_address",
          "type": "address"
        }
      ],
      "name": "isWhitelisted",
      "outputs": [
        {
          "internalType": "bool",
          "name": "",
          "type": "bool"
        }
      ],
      "stateMutability": "view",
      "type": "function"
    },
    {
      "inputs": [],
      "name": "name",
      "outputs": [
        {
          "internalType": "string",
          "name": "",
          "type": "string"
        }
      ],
      "stateMutability": "view",
      "type": "function"
    },
    {
      "inputs": [],
      "name": "owner",
      "outputs": [
        {
          "internalType": "address",
          "name": "",
          "type": "address"
        }
      ],
      "stateMutability": "view",
      "type": "function"
    },
    {
      "inputs": [],
      "name": "pastValue",
      "outputs": [
        {
          "internalType": "int256",
          "name": "",
          "type": "int256"
        }
      ],
      "stateMutability": "view",
      "type": "function"
    },
    {
      "inputs": [
        {
          "internalType": "address",
          "name": "_address",
          "type": "address"
        }
      ],
      "name": "removeAddress",
      "outputs": [],
      "stateMutability": "nonpayable",
      "type": "function"
    },
    {
      "inputs": [],
      "name": "renounceOwnership",
      "outputs": [],
      "stateMutability": "nonpayable",
      "type": "function"
    },
    {
      "inputs": [
        {
          "internalType": "address",
          "name": "newOwner",
          "type": "address"
        }
      ],
      "name": "transferOwnership",
      "outputs": [],
      "stateMutability": "nonpayable",
      "type": "function"
    },
    {
      "inputs": [],
      "name": "value",
      "outputs": [
        {
          "internalType": "uint256",
          "name": "",
          "type": "uint256"
        }
      ],
      "stateMutability": "view",
      "type": "function"
    },
    {
      "inputs": [
        {
          "internalType": "uint256",
          "name": "_newValue",
          "type": "uint256"
        }
      ],
      "name": "updateValue",
      "outputs": [],
      "stateMutability": "nonpayable",
      "type": "function"
    },
    {
      "inputs": [],
      "name": "getValue",
      "outputs": [
        {
          "internalType": "uint256",
          "name": "",
          "type": "uint256"
        }
      ],
      "stateMutability": "view",
      "type": "function"
    },
    {
      "inputs": [],
      "name": "getTimestamp",
      "outputs": [
        {
          "internalType": "uint256",
          "name": "",
          "type": "uint256"
        }
      ],
      "stateMutability": "view",
      "type": "function"
    },
    {
      "inputs": [
        {
          "internalType": "uint8",
          "name": "dayAgo",
          "type": "uint8"
        }
      ],
      "name": "getPastValue",
      "outputs": [
        {
          "internalType": "int256",
          "name": "",
          "type": "int256"
        },
        {
          "internalType": "uint256",
          "name": "",
          "type": "uint256"
        }
      ],
      "stateMutability": "view",
      "type": "function"
    },
    {
      "inputs": [
        {
          "internalType": "int256",
          "name": "_newValue",
          "type": "int256"
        }
      ],
      "name": "setPastValue",
      "outputs": [],
      "stateMutability": "nonpayable",
      "type": "function"
    },
    {
      "inputs": [
        {
          "internalType": "uint8",
          "name": "totalDay",
          "type": "uint8"
        }
      ],
      "name": "getAveragePrice",
      "outputs": [
        {
          "internalType": "uint256",
          "name": "",
          "type": "uint256"
        },
        {
          "internalType": "uint8",
          "name": "",
          "type": "uint8"
        }
      ],
      "stateMutability": "view",
      "type": "function"
    },
    {
      "inputs": [
        {
          "internalType": "uint256",
          "name": "_newValue",
          "type": "uint256"
        }
      ],
      "name": "setAveragePrice",
      "outputs": [],
      "stateMutability": "nonpayable",
      "type": "function"
    }
  ],
  "bytecode": "0x6080604052670de0b6b3a7640000600255670de0b6b3a7640000600355670de0b6b3a76400006004553480156200003557600080fd5b5060405162000c2d38038062000c2d833981810160405260208110156200005b57600080fd5b81019080805160405193929190846401000000008211156200007c57600080fd5b9083019060208201858111156200009257600080fd5b8251640100000000811182820188101715620000ad57600080fd5b82525081516020918201929091019080838360005b83811015620000dc578181015183820152602001620000c2565b50505050905090810190601f1680156200010a5780820380516001836020036101000a031916815260200191505b50604052505050600062000123620001c960201b60201c565b600080546001600160a01b0319166001600160a01b0383169081178255604051929350917f8be0079c531659141344cd1fd0a4f28419497f9722a3daafe3b4186f6b6457e0908290a350600062000179620001c9565b6001600160a01b03166000908152600160208181526040909220805460ff191690911790558251620001b29250600691840190620002a9565b5042600555620001c233620001cd565b5062000345565b3390565b6000620001d9620001c9565b9050620001e6816200028b565b62000238576040805162461bcd60e51b815260206004820181905260248201527f4f776e61626c653a2063616c6c6572206973206e6f7420746865206f776e6572604482015290519081900360640190fd5b6001600160a01b03821660009081526001602052604090205460ff1615620002605762000287565b6001600160a01b0382166000908152600160208190526040909120805460ff191690911790555b5050565b6001600160a01b031660009081526001602052604090205460ff1690565b828054600181600116156101000203166002900490600052602060002090601f016020900481019282601f10620002ec57805160ff19168380011785556200031c565b828001600101855582156200031c579182015b828111156200031c578251825591602001919060010190620002ff565b506200032a9291506200032e565b5090565b5b808211156200032a57600081556001016200032f565b6108d880620003556000396000f3fe608060405234801561001057600080fd5b506004361061010b5760003560e01c8063573c0bd3116100a25780638da5cb5b116100715780638da5cb5b146102f5578063a0352ea314610319578063c522f42314610321578063df3389101461033e578063f2fde38b146103465761010b565b8063573c0bd31461025c5780635940c591146102795780636e9abf56146102b4578063715018a6146102ed5761010b565b806338eada1c116100de57806338eada1c146101ce5780633af32abf146101f45780633fa4f2451461022e5780634ba79dfe146102365761010b565b806306a504a61461011057806306fdde031461012f578063188ec356146101ac57806320965255146101c6575b600080fd5b61012d6004803603602081101561012657600080fd5b503561036c565b005b6101376103c6565b6040805160208082528351818301528351919283929083019185019080838360005b83811015610171578181015183820152602001610159565b50505050905090810190601f16801561019e5780820380516001836020036101000a031916815260200191505b509250505060405180910390f35b6101b4610454565b60408051918252519081900360200190f35b6101b461045a565b61012d600480360360208110156101e457600080fd5b50356001600160a01b0316610460565b61021a6004803603602081101561020a57600080fd5b50356001600160a01b0316610505565b604080519115158252519081900360200190f35b6101b4610523565b61012d6004803603602081101561024c57600080fd5b50356001600160a01b0316610529565b61012d6004803603602081101561027257600080fd5b50356105c4565b6102996004803603602081101561028f57600080fd5b503560ff16610622565b6040805192835260ff90911660208301528051918290030190f35b6102d4600480360360208110156102ca57600080fd5b503560ff1661062c565b6040805192835260208301919091528051918290030190f35b61012d610635565b6102fd6106e1565b604080516001600160a01b039092168252519081900360200190f35b6101b46106f0565b61012d6004803603602081101561033757600080fd5b50356106f6565b6101b4610750565b61012d6004803603602081101561035c57600080fd5b50356001600160a01b0316610756565b6000610376610858565b905061038181610505565b6103c0576040805162461bcd60e51b81526020600482018190526024820152600080516020610883833981519152604482015290519081900360640190fd5b50600355565b6006805460408051602060026001851615610100026000190190941693909304601f8101849004840282018401909252818152929183018282801561044c5780601f106104215761010080835404028352916020019161044c565b820191906000526020600020905b81548152906001019060200180831161042f57829003601f168201915b505050505081565b60055490565b60025490565b600061046a610858565b905061047581610505565b6104b4576040805162461bcd60e51b81526020600482018190526024820152600080516020610883833981519152604482015290519081900360640190fd5b6001600160a01b03821660009081526001602052604090205460ff16156104da57610501565b6001600160a01b0382166000908152600160208190526040909120805460ff191690911790555b5050565b6001600160a01b031660009081526001602052604090205460ff1690565b60025481565b6000610533610858565b905061053e81610505565b61057d576040805162461bcd60e51b81526020600482018190526024820152600080516020610883833981519152604482015290519081900360640190fd5b6001600160a01b03821660009081526001602052604090205460ff166105a257610501565b506001600160a01b03166000908152600160205260409020805460ff19169055565b60006105ce610858565b90506105d981610505565b610618576040805162461bcd60e51b81526020600482018190526024820152600080516020610883833981519152604482015290519081900360640190fd5b5060025542600555565b6004546006915091565b60035442915091565b61063d610858565b6001600160a01b031661064e6106e1565b6001600160a01b031614610697576040805162461bcd60e51b81526020600482018190526024820152600080516020610883833981519152604482015290519081900360640190fd5b600080546040516001600160a01b03909116907f8be0079c531659141344cd1fd0a4f28419497f9722a3daafe3b4186f6b6457e0908390a3600080546001600160a01b0319169055565b6000546001600160a01b031690565b60045481565b6000610700610858565b905061070b81610505565b61074a576040805162461bcd60e51b81526020600482018190526024820152600080516020610883833981519152604482015290519081900360640190fd5b50600455565b60035481565b61075e610858565b6001600160a01b031661076f6106e1565b6001600160a01b0316146107b8576040805162461bcd60e51b81526020600482018190526024820152600080516020610883833981519152604482015290519081900360640190fd5b6001600160a01b0381166107fd5760405162461bcd60e51b815260040180806020018281038252602681526020018061085d6026913960400191505060405180910390fd5b600080546040516001600160a01b03808516939216917f8be0079c531659141344cd1fd0a4f28419497f9722a3daafe3b4186f6b6457e091a3600080546001600160a01b0319166001600160a01b0392909216919091179055565b339056fe4f776e61626c653a206e6577206f776e657220697320746865207a65726f20616464726573734f776e61626c653a2063616c6c6572206973206e6f7420746865206f776e6572a2646970667358221220739226d4b1069e2353e3e2763b58e3fb901ae9089ff9d683ee53a95ab5a9a03a64736f6c634300060c0033",
  "immutableReferences": {},
  "source": "// SPDX-License-Identifier: MIT\n\npragma solidity 0.6.12;\n\nimport '@openzeppelin/contracts/access/Ownable.sol';\nimport \"../utility/Whitelist.sol\";\nimport \"../interfaces/IChainlinkPriceFeeder.sol\";\n\ncontract MockPriceFeeder is Whitelist, IChainlinkPriceFeeder {\n    uint256 public value = 1000000000000000000;\n    int256 public pastValue = 1000000000000000000;\n    uint256 public averagePrice = 1000000000000000000;\n    uint256 private timestamp;\n    \n    string public name;\n\n    constructor(string memory _name) public {\n        name = _name;\n        timestamp = now;\n        addAddress(msg.sender);\n    }\n\n    function updateValue(uint256 _newValue) public onlyWhitelisted {\n        value = _newValue;\n        timestamp = now;\n    }\n\n    function getValue() public override view returns (uint256) {\n        return value;\n    }\n\n    function getTimestamp() public override view returns (uint256) {\n        return timestamp;\n    }\n\n    function getPastValue(uint8 dayAgo)\n        external\n        view\n        override\n        returns (int256, uint256)\n    {\n        return (pastValue,now);\n    }\n\n    function setPastValue(int256 _newValue) public onlyWhitelisted {\n        pastValue = _newValue;\n    }\n\n    function getAveragePrice(uint8 totalDay)\n        external\n        view\n        override\n        returns (uint256, uint8)\n    {\n        return (averagePrice,6);\n    }\n\n    function setAveragePrice(uint256 _newValue) public onlyWhitelisted {\n        averagePrice = _newValue;\n    }\n\n}\n",
  "sourcePath": "/Users/kantapatchankasem/Work/tamago/tamago-finance/contractV2/contracts/mocks/MockPriceFeeder.sol",
  "compiler": {
    "name": "solc",
    "version": "0.6.12+commit.27d51765.Emscripten.clang"
  },
  "schemaVersion": "3.3.4",
  "updatedAt": "2021-11-11T08:48:33.265Z",
  "devdoc": {
    "kind": "dev",
    "methods": {
      "addAddress(address)": {
        "details": "adds a given address to the whitelist ",
        "params": {
          "_address": "address to add"
        }
      },
      "isWhitelisted(address)": {
        "details": "returns true if a given address is whitelisted, false if not ",
        "params": {
          "_address": "address to check "
        },
        "returns": {
          "_0": "true if the address is whitelisted, false if not"
        }
      },
      "owner()": {
        "details": "Returns the address of the current owner."
      },
      "removeAddress(address)": {
        "details": "removes a given address from the whitelist ",
        "params": {
          "_address": "address to remove"
        }
      },
      "renounceOwnership()": {
        "details": "Leaves the contract without owner. It will not be possible to call `onlyOwner` functions anymore. Can only be called by the current owner. NOTE: Renouncing ownership will leave the contract without an owner, thereby removing any functionality that is only available to the owner."
      },
      "transferOwnership(address)": {
        "details": "Transfers ownership of the contract to a new account (`newOwner`). Can only be called by the current owner."
      }
    },
    "version": 1
  },
  "userdoc": {
    "kind": "user",
    "methods": {},
    "version": 1
  }
}