{
  "contractName": "PriceResolver",
  "abi": [
    {
      "inputs": [
        {
          "internalType": "address",
          "name": "_priceFeederAddress",
          "type": "address"
        },
        {
          "internalType": "address",
          "name": "_priceFeederCollateralAddress",
          "type": "address"
        },
        {
          "internalType": "uint256",
          "name": "_emergencyAvgPrice",
          "type": "uint256"
        },
        {
          "internalType": "address",
          "name": "_devAddress",
          "type": "address"
        }
      ],
      "stateMutability": "nonpayable",
      "type": "constructor"
    },
    {
      "anonymous": false,
      "inputs": [
        {
          "indexed": true,
          "internalType": "address",
          "name": "previousOwner",
          "type": "address"
        },
        {
          "indexed": true,
          "internalType": "address",
          "name": "newOwner",
          "type": "address"
        }
      ],
      "name": "OwnershipTransferred",
      "type": "event"
    },
    {
      "inputs": [
        {
          "internalType": "address",
          "name": "_address",
          "type": "address"
        }
      ],
      "name": "addAddress",
      "outputs": [],
      "stateMutability": "nonpayable",
      "type": "function"
    },
    {
      "inputs": [],
      "name": "emergencyAvgPrice",
      "outputs": [
        {
          "internalType": "uint256",
          "name": "",
          "type": "uint256"
        }
      ],
      "stateMutability": "view",
      "type": "function"
    },
    {
      "inputs": [
        {
          "internalType": "address",
          "name": "_address",
          "type": "address"
        }
      ],
      "name": "isWhitelisted",
      "outputs": [
        {
          "internalType": "bool",
          "name": "",
          "type": "bool"
        }
      ],
      "stateMutability": "view",
      "type": "function"
    },
    {
      "inputs": [],
      "name": "owner",
      "outputs": [
        {
          "internalType": "address",
          "name": "",
          "type": "address"
        }
      ],
      "stateMutability": "view",
      "type": "function"
    },
    {
      "inputs": [],
      "name": "priceFeeder",
      "outputs": [
        {
          "internalType": "contract IChainlinkPriceFeeder",
          "name": "",
          "type": "address"
        }
      ],
      "stateMutability": "view",
      "type": "function"
    },
    {
      "inputs": [],
      "name": "priceFeederCollateral",
      "outputs": [
        {
          "internalType": "contract IChainlinkPriceFeeder",
          "name": "",
          "type": "address"
        }
      ],
      "stateMutability": "view",
      "type": "function"
    },
    {
      "inputs": [
        {
          "internalType": "address",
          "name": "_address",
          "type": "address"
        }
      ],
      "name": "removeAddress",
      "outputs": [],
      "stateMutability": "nonpayable",
      "type": "function"
    },
    {
      "inputs": [],
      "name": "renounceOwnership",
      "outputs": [],
      "stateMutability": "nonpayable",
      "type": "function"
    },
    {
      "inputs": [
        {
          "internalType": "address",
          "name": "newOwner",
          "type": "address"
        }
      ],
      "name": "transferOwnership",
      "outputs": [],
      "stateMutability": "nonpayable",
      "type": "function"
    },
    {
      "inputs": [
        {
          "internalType": "uint256",
          "name": "_value",
          "type": "uint256"
        }
      ],
      "name": "setEmergencyPrice",
      "outputs": [],
      "stateMutability": "nonpayable",
      "type": "function"
    },
    {
      "inputs": [],
      "name": "getEmergencyReferencePrice",
      "outputs": [
        {
          "internalType": "uint256",
          "name": "",
          "type": "uint256"
        }
      ],
      "stateMutability": "view",
      "type": "function"
    },
    {
      "inputs": [],
      "name": "getCurrentPrice",
      "outputs": [
        {
          "internalType": "uint256",
          "name": "",
          "type": "uint256"
        }
      ],
      "stateMutability": "view",
      "type": "function"
    },
    {
      "inputs": [],
      "name": "getCurrentPriceCollateral",
      "outputs": [
        {
          "internalType": "uint256",
          "name": "",
          "type": "uint256"
        }
      ],
      "stateMutability": "view",
      "type": "function"
    },
    {
      "inputs": [],
      "name": "getAvg30Price",
      "outputs": [
        {
          "internalType": "uint256",
          "name": "",
          "type": "uint256"
        }
      ],
      "stateMutability": "view",
      "type": "function"
    },
    {
      "inputs": [],
      "name": "getAvg60Price",
      "outputs": [
        {
          "internalType": "uint256",
          "name": "",
          "type": "uint256"
        }
      ],
      "stateMutability": "view",
      "type": "function"
    },
    {
      "inputs": [],
      "name": "getRawRatio",
      "outputs": [
        {
          "internalType": "uint256",
          "name": "",
          "type": "uint256"
        }
      ],
      "stateMutability": "view",
      "type": "function"
    },
    {
      "inputs": [],
      "name": "getCurrentRatio",
      "outputs": [
        {
          "internalType": "uint256",
          "name": "",
          "type": "uint256"
        }
      ],
      "stateMutability": "view",
      "type": "function"
    },
    {
      "inputs": [],
      "name": "isBullMarket",
      "outputs": [
        {
          "internalType": "bool",
          "name": "",
          "type": "bool"
        }
      ],
      "stateMutability": "view",
      "type": "function"
    }
  ],
  "bytecode": "0x60806040523480156200001157600080fd5b5060405162000fb838038062000fb8833981810160405260808110156200003757600080fd5b508051602082015160408301516060909301516000805460ff19166001178155929391926200006562000263565b60008054610100600160a81b0319166101006001600160a01b038416908102919091178255604051929350917f8be0079c531659141344cd1fd0a4f28419497f9722a3daafe3b4186f6b6457e0908290a3506000620000c362000263565b6001600160a01b03166000908152600160208190526040909120805460ff1916909117905550620000f362000267565b620000fd620002c1565b6001600160a01b03841662000159576040805162461bcd60e51b815260206004820152601b60248201527f496e76616c6964205f7072696365466565646572416464726573730000000000604482015290519081900360640190fd5b6001600160a01b038316620001a05760405162461bcd60e51b815260040180806020018281038252602581526020018062000f936025913960400191505060405180910390fd5b81620001f3576040805162461bcd60e51b815260206004820152601d60248201527f5265666572656e63652070726963652063616e2774206265207a65726f000000604482015290519081900360640190fd5b600280546001600160a01b038087166001600160a01b031992831617909255600380549286169290911691909117905560048290556200023381620002cd565b6001600160a01b03811633146200024f576200024f33620002cd565b620002596200038b565b50505050620003b8565b3390565b60005460ff16620002bf576040805162461bcd60e51b815260206004820152601f60248201527f5265656e7472616e637947756172643a207265656e7472616e742063616c6c00604482015290519081900360640190fd5b565b6000805460ff19169055565b6000620002d962000263565b9050620002e6816200039a565b62000338576040805162461bcd60e51b815260206004820181905260248201527f4f776e61626c653a2063616c6c6572206973206e6f7420746865206f776e6572604482015290519081900360640190fd5b6001600160a01b03821660009081526001602052604090205460ff1615620003605762000387565b6001600160a01b0382166000908152600160208190526040909120805460ff191690911790555b5050565b6000805460ff19166001179055565b6001600160a01b031660009081526001602052604090205460ff1690565b610bcb80620003c86000396000f3fe608060405234801561001057600080fd5b50600436106101165760003560e01c80638da5cb5b116100a2578063ce58a71711610071578063ce58a71714610221578063eb91d37e14610229578063ebbe998d14610231578063f2fde38b14610239578063f3038e741461025f57610116565b80638da5cb5b14610201578063af7abb9814610209578063bd3b379b14610211578063ca17c14f1461021957610116565b80634ba79dfe116100e95780634ba79dfe146101bb5780635a294bc0146101e1578063637af912146101e9578063715018a6146101f15780637f6a9f12146101f957610116565b80631fada4851461011b57806338eada1c1461013f578063393f5596146101675780633af32abf14610181575b600080fd5b61012361027c565b604080516001600160a01b039092168252519081900360200190f35b6101656004803603602081101561015557600080fd5b50356001600160a01b031661028b565b005b61016f610330565b60408051918252519081900360200190f35b6101a76004803603602081101561019757600080fd5b50356001600160a01b0316610336565b604080519115158252519081900360200190f35b610165600480360360208110156101d157600080fd5b50356001600160a01b0316610358565b61016f6103f3565b61016f610405565b61016561047b565b61016f61052c565b610123610532565b61016f610546565b61016f610550565b6101a761055a565b61016f61058b565b61016f610597565b6101236105dc565b6101656004803603602081101561024f57600080fd5b50356001600160a01b03166105eb565b6101656004803603602081101561027557600080fd5b50356106f8565b6002546001600160a01b031681565b600061029561076d565b90506102a081610336565b6102df576040805162461bcd60e51b81526020600482018190526024820152600080516020610b76833981519152604482015290519081900360640190fd5b6001600160a01b03821660009081526001602052604090205460ff16156103055761032c565b6001600160a01b0382166000908152600160208190526040909120805460ff191690911790555b5050565b60045481565b6001600160a01b03811660009081526001602052604090205460ff165b919050565b600061036261076d565b905061036d81610336565b6103ac576040805162461bcd60e51b81526020600482018190526024820152600080516020610b76833981519152604482015290519081900360640190fd5b6001600160a01b03821660009081526001602052604090205460ff166103d15761032c565b506001600160a01b03166000908152600160205260409020805460ff19169055565b60006103ff601e610771565b90505b90565b60035460408051632096525560e01b815290516000926001600160a01b0316916320965255916004808301926020929190829003018186803b15801561044a57600080fd5b505afa15801561045e573d6000803e3d6000fd5b505050506040513d602081101561047457600080fd5b5051905090565b61048361076d565b6001600160a01b0316610494610532565b6001600160a01b0316146104dd576040805162461bcd60e51b81526020600482018190526024820152600080516020610b76833981519152604482015290519081900360640190fd5b600080546040516101009091046001600160a01b0316907f8be0079c531659141344cd1fd0a4f28419497f9722a3daafe3b4186f6b6457e0908390a360008054610100600160a81b0319169055565b60045490565b60005461010090046001600160a01b031690565b60006103ff61084b565b60006103ff6108ed565b60008061056561084b565b90506706f05b59d3b20000811115610581576001915050610402565b6000915050610402565b60006103ff603c610771565b60025460408051632096525560e01b815290516000926001600160a01b0316916320965255916004808301926020929190829003018186803b15801561044a57600080fd5b6003546001600160a01b031681565b6105f361076d565b6001600160a01b0316610604610532565b6001600160a01b03161461064d576040805162461bcd60e51b81526020600482018190526024820152600080516020610b76833981519152604482015290519081900360640190fd5b6001600160a01b0381166106925760405162461bcd60e51b8152600401808060200182810382526026815260200180610b506026913960400191505060405180910390fd5b600080546040516001600160a01b038085169361010090930416917f8be0079c531659141344cd1fd0a4f28419497f9722a3daafe3b4186f6b6457e091a3600080546001600160a01b0390921661010002610100600160a81b0319909216919091179055565b610700610938565b610708610991565b600061071261076d565b905061071d81610336565b61075c576040805162461bcd60e51b81526020600482018190526024820152600080516020610b76833981519152604482015290519081900360640190fd5b50600481905561076a61099d565b50565b3390565b60035460408051635940c59160e01b815260ff8416600482015281516000936001600160a01b031692635940c5919260248082019391829003018186803b1580156107bb57600080fd5b505afa9250505080156107e757506040513d60408110156107db57600080fd5b50805160209091015160015b610843576107f3610aaa565b806107fe5750610808565b5050600454610353565b3d808015610832576040519150601f19603f3d011682016040523d82523d6000602084013e610837565b606091505b50600454915050610353565b509050610353565b60006103ff61086d61085d603c610771565b610867601e610771565b906109ac565b600360009054906101000a90046001600160a01b03166001600160a01b031663209652556040518163ffffffff1660e01b815260040160206040518083038186803b1580156108bb57600080fd5b505afa1580156108cf573d6000803e3d6000fd5b505050506040513d60208110156108e557600080fd5b505190610a05565b6000806108f861084b565b9050670b1a2bc2ec5000008111156109195750670b1a2bc2ec5000006103ff565b6702c68af0bb1400008110156103ff57506702c68af0bb140000905090565b60005460ff1661098f576040805162461bcd60e51b815260206004820152601f60248201527f5265656e7472616e637947756172643a207265656e7472616e742063616c6c00604482015290519081900360640190fd5b565b6000805460ff19169055565b6000805460ff19166001179055565b6000828201838110156109fc576040805162461bcd60e51b8152602060048201526013602482015272556e6164646974696f6e206f766572666c6f7760681b604482015290519081900360640190fd5b90505b92915050565b600081610a26610a1d85670de0b6b3a7640000610a35565b600285046109ac565b81610a2d57fe5b049392505050565b600082610a44575060006109ff565b82820282848281610a5157fe5b04146109fc576040805162461bcd60e51b815260206004820152601960248201527f556e6d756c7469706c69636174696f6e206f766572666c6f7700000000000000604482015290519081900360640190fd5b60e01c90565b600060443d1015610aba57610402565b600481823e6308c379a0610ace8251610aa4565b14610ad857610402565b6040513d600319016004823e80513d67ffffffffffffffff8160248401118184111715610b085750505050610402565b82840192508251915080821115610b225750505050610402565b503d83016020828401011115610b3a57505050610402565b601f01601f191681016020016040529150509056fe4f776e61626c653a206e6577206f776e657220697320746865207a65726f20616464726573734f776e61626c653a2063616c6c6572206973206e6f7420746865206f776e6572a2646970667358221220231dfd827b07e94e2c2a283081a1d1afddc99a1f68dd9f87de3f2000671d5de164736f6c634300060c0033496e76616c6964205f7072696365466565646572436f6c6c61746572616c41646472657373",
  "immutableReferences": {},
  "source": "// SPDX-License-Identifier: MIT\n\npragma solidity 0.6.12;\n\nimport \"./utility/Lockable.sol\";\nimport \"./utility/Whitelist.sol\";\nimport \"./interfaces/IPriceResolver.sol\";\nimport \"./interfaces/IChainlinkPriceFeeder.sol\";\nimport \"./utility/LibMath.sol\";\n\n/**\n * @title A contract to resolves the asset price\n */\n\ncontract PriceResolver is Lockable, Whitelist, IPriceResolver {\n\n    using LibMathSigned for int256;\n    using LibMathUnsigned for uint256;\n\n    // Price feeder contract.\n    IChainlinkPriceFeeder public priceFeeder;\n    // Price feeder contract of collateral asset\n    IChainlinkPriceFeeder public priceFeederCollateral;\n\n    // fall-back value from avg price\n    uint256 public emergencyAvgPrice;\n\n    constructor(\n        address _priceFeederAddress,\n        address _priceFeederCollateralAddress,\n        uint256 _emergencyAvgPrice,\n        address _devAddress\n    ) public nonReentrant {\n        require( _priceFeederAddress != address(0), \"Invalid _priceFeederAddress\" );\n        require( _priceFeederCollateralAddress != address(0), \"Invalid _priceFeederCollateralAddress\" );\n        require( _emergencyAvgPrice != 0, \"Reference price can't be zero\" );\n\n        priceFeeder = IChainlinkPriceFeeder(_priceFeederAddress);\n        priceFeederCollateral = IChainlinkPriceFeeder(_priceFeederCollateralAddress);\n\n        emergencyAvgPrice = _emergencyAvgPrice;\n\n        addAddress(_devAddress);\n        \n        if (_devAddress != msg.sender) {\n            addAddress(msg.sender);\n        }\n    }\n\n    // update the fall-back avg price\n    function setEmergencyPrice(uint256 _value) public nonReentrant onlyWhitelisted {\n        emergencyAvgPrice = _value;\n    }\n\n    // get the fall-back avg price\n    function getEmergencyReferencePrice() public view returns (uint256) {\n        return emergencyAvgPrice;\n    }\n\n    // get the current price\n    function getCurrentPrice() override external view returns (uint256) {\n        return priceFeeder.getValue();\n    }\n\n    // get the current price of the collateral\n    function getCurrentPriceCollateral() override external view returns (uint256) {\n        return priceFeederCollateral.getValue();\n    }\n\n    // get avg 30d price of the collateral\n    function getAvg30Price() override external view returns (uint256) {\n        return _getAvgPrice(30);\n    }\n\n    // get avg 60d price of the collateral\n    function getAvg60Price() override external view returns (uint256) {\n        return _getAvgPrice(60);\n    }\n\n    // get raw mint ratio\n    function getRawRatio() override external view returns (uint256) {\n        return _rawRatio();\n    }\n\n    // get adjusted mint ratio\n    function getCurrentRatio() override external view returns (uint256) {\n        return _adjustedRatio();\n    }\n\n    // the flag to identify the market\n    function isBullMarket() override public view returns (bool) {\n        uint256 ratio = _rawRatio();\n        if (ratio > 500000000000000000) {\n            return true;\n        } else {\n            return false;\n        }\n    }\n\n    // INTERNAL FUNCTIONS\n\n    // get a collateral asset avg price of totalDay\n    function _getAvgPrice(uint8 totalDay) internal view returns (uint256) {\n        try priceFeederCollateral.getAveragePrice( totalDay ) returns (\n            uint256 value,\n            uint8 count\n        ) {\n            \n            return value;\n        } catch Error(\n            string memory /*reason*/\n        ) {\n            return emergencyAvgPrice;\n        } catch (\n            bytes memory /*lowLevelData*/\n        ) {\n            return emergencyAvgPrice;\n        }\n    }\n\n    // ratio = latest price / (avg 30d price + avg 60d price) , >0.5  = bull , <0.5 = bear\n    function _rawRatio() internal view returns (uint256) {\n        return ((priceFeederCollateral.getValue()).wdiv( _getAvgPrice(30).add(_getAvgPrice(60))));\n    }\n\n    // capping the ratio between 0.2 and 0.8\n    function _adjustedRatio() internal view returns (uint256) {\n        uint256 ratio = _rawRatio();\n        if (ratio > 800000000000000000) { // 0.8\n            ratio = 800000000000000000;\n        } else if (ratio < 200000000000000000) { // 0.2\n            ratio = 200000000000000000;\n        }\n        return ratio;\n    }\n\n}",
  "sourcePath": "/Users/kantapatchankasem/Work/tamago/tamago-finance/contractV2/contracts/PriceResolver.sol",
  "compiler": {
    "name": "solc",
    "version": "0.6.12+commit.27d51765.Emscripten.clang"
  },
  "schemaVersion": "3.3.4",
  "updatedAt": "2021-11-11T08:48:33.095Z",
  "devdoc": {
    "kind": "dev",
    "methods": {
      "addAddress(address)": {
        "details": "adds a given address to the whitelist ",
        "params": {
          "_address": "address to add"
        }
      },
      "isWhitelisted(address)": {
        "details": "returns true if a given address is whitelisted, false if not ",
        "params": {
          "_address": "address to check "
        },
        "returns": {
          "_0": "true if the address is whitelisted, false if not"
        }
      },
      "owner()": {
        "details": "Returns the address of the current owner."
      },
      "removeAddress(address)": {
        "details": "removes a given address from the whitelist ",
        "params": {
          "_address": "address to remove"
        }
      },
      "renounceOwnership()": {
        "details": "Leaves the contract without owner. It will not be possible to call `onlyOwner` functions anymore. Can only be called by the current owner. NOTE: Renouncing ownership will leave the contract without an owner, thereby removing any functionality that is only available to the owner."
      },
      "transferOwnership(address)": {
        "details": "Transfers ownership of the contract to a new account (`newOwner`). Can only be called by the current owner."
      }
    },
    "title": "A contract to resolves the asset price",
    "version": 1
  },
  "userdoc": {
    "kind": "user",
    "methods": {},
    "version": 1
  }
}