{
  "contractName": "Reward",
  "abi": [
    {
      "inputs": [
        {
          "internalType": "contract IERC20",
          "name": "_tamg",
          "type": "address"
        },
        {
          "internalType": "uint256",
          "name": "_tamgPerBlock",
          "type": "uint256"
        },
        {
          "internalType": "uint256",
          "name": "_startBlock",
          "type": "uint256"
        },
        {
          "internalType": "address",
          "name": "_adminAddress",
          "type": "address"
        }
      ],
      "stateMutability": "nonpayable",
      "type": "constructor"
    },
    {
      "anonymous": false,
      "inputs": [
        {
          "indexed": true,
          "internalType": "address",
          "name": "user",
          "type": "address"
        },
        {
          "indexed": true,
          "internalType": "uint256",
          "name": "pid",
          "type": "uint256"
        },
        {
          "indexed": false,
          "internalType": "uint256",
          "name": "amount",
          "type": "uint256"
        }
      ],
      "name": "Deposit",
      "type": "event"
    },
    {
      "anonymous": false,
      "inputs": [
        {
          "indexed": true,
          "internalType": "address",
          "name": "user",
          "type": "address"
        },
        {
          "indexed": true,
          "internalType": "uint256",
          "name": "pid",
          "type": "uint256"
        },
        {
          "indexed": false,
          "internalType": "uint256",
          "name": "amount",
          "type": "uint256"
        }
      ],
      "name": "EmergencyWithdraw",
      "type": "event"
    },
    {
      "anonymous": false,
      "inputs": [
        {
          "indexed": true,
          "internalType": "address",
          "name": "previousOwner",
          "type": "address"
        },
        {
          "indexed": true,
          "internalType": "address",
          "name": "newOwner",
          "type": "address"
        }
      ],
      "name": "OwnershipTransferred",
      "type": "event"
    },
    {
      "anonymous": false,
      "inputs": [
        {
          "indexed": true,
          "internalType": "address",
          "name": "user",
          "type": "address"
        },
        {
          "indexed": true,
          "internalType": "uint256",
          "name": "pid",
          "type": "uint256"
        },
        {
          "indexed": false,
          "internalType": "uint256",
          "name": "amount",
          "type": "uint256"
        }
      ],
      "name": "Withdraw",
      "type": "event"
    },
    {
      "inputs": [
        {
          "internalType": "address",
          "name": "_address",
          "type": "address"
        }
      ],
      "name": "addAddress",
      "outputs": [],
      "stateMutability": "nonpayable",
      "type": "function"
    },
    {
      "inputs": [],
      "name": "bonusMultiplier",
      "outputs": [
        {
          "internalType": "uint256",
          "name": "",
          "type": "uint256"
        }
      ],
      "stateMutability": "view",
      "type": "function"
    },
    {
      "inputs": [
        {
          "internalType": "address",
          "name": "_address",
          "type": "address"
        }
      ],
      "name": "isWhitelisted",
      "outputs": [
        {
          "internalType": "bool",
          "name": "",
          "type": "bool"
        }
      ],
      "stateMutability": "view",
      "type": "function"
    },
    {
      "inputs": [],
      "name": "owner",
      "outputs": [
        {
          "internalType": "address",
          "name": "",
          "type": "address"
        }
      ],
      "stateMutability": "view",
      "type": "function"
    },
    {
      "inputs": [
        {
          "internalType": "uint256",
          "name": "",
          "type": "uint256"
        }
      ],
      "name": "poolInfo",
      "outputs": [
        {
          "internalType": "contract IERC20",
          "name": "lpToken",
          "type": "address"
        },
        {
          "internalType": "uint256",
          "name": "allocPoint",
          "type": "uint256"
        },
        {
          "internalType": "uint256",
          "name": "lastRewardBlock",
          "type": "uint256"
        },
        {
          "internalType": "uint256",
          "name": "accTamgPerShare",
          "type": "uint256"
        }
      ],
      "stateMutability": "view",
      "type": "function"
    },
    {
      "inputs": [
        {
          "internalType": "address",
          "name": "_address",
          "type": "address"
        }
      ],
      "name": "removeAddress",
      "outputs": [],
      "stateMutability": "nonpayable",
      "type": "function"
    },
    {
      "inputs": [],
      "name": "renounceOwnership",
      "outputs": [],
      "stateMutability": "nonpayable",
      "type": "function"
    },
    {
      "inputs": [],
      "name": "startBlock",
      "outputs": [
        {
          "internalType": "uint256",
          "name": "",
          "type": "uint256"
        }
      ],
      "stateMutability": "view",
      "type": "function"
    },
    {
      "inputs": [],
      "name": "tamg",
      "outputs": [
        {
          "internalType": "contract IERC20",
          "name": "",
          "type": "address"
        }
      ],
      "stateMutability": "view",
      "type": "function"
    },
    {
      "inputs": [],
      "name": "tamgPerBlock",
      "outputs": [
        {
          "internalType": "uint256",
          "name": "",
          "type": "uint256"
        }
      ],
      "stateMutability": "view",
      "type": "function"
    },
    {
      "inputs": [],
      "name": "totalAllocPoint",
      "outputs": [
        {
          "internalType": "uint256",
          "name": "",
          "type": "uint256"
        }
      ],
      "stateMutability": "view",
      "type": "function"
    },
    {
      "inputs": [
        {
          "internalType": "address",
          "name": "newOwner",
          "type": "address"
        }
      ],
      "name": "transferOwnership",
      "outputs": [],
      "stateMutability": "nonpayable",
      "type": "function"
    },
    {
      "inputs": [
        {
          "internalType": "uint256",
          "name": "",
          "type": "uint256"
        },
        {
          "internalType": "address",
          "name": "",
          "type": "address"
        }
      ],
      "name": "userInfo",
      "outputs": [
        {
          "internalType": "uint256",
          "name": "amount",
          "type": "uint256"
        },
        {
          "internalType": "uint256",
          "name": "rewardDebt",
          "type": "uint256"
        }
      ],
      "stateMutability": "view",
      "type": "function"
    },
    {
      "inputs": [
        {
          "internalType": "uint256",
          "name": "_allocPoint",
          "type": "uint256"
        },
        {
          "internalType": "contract IERC20",
          "name": "_lpToken",
          "type": "address"
        },
        {
          "internalType": "bool",
          "name": "_withUpdate",
          "type": "bool"
        }
      ],
      "name": "add",
      "outputs": [],
      "stateMutability": "nonpayable",
      "type": "function"
    },
    {
      "inputs": [
        {
          "internalType": "uint256",
          "name": "_pid",
          "type": "uint256"
        },
        {
          "internalType": "uint256",
          "name": "_allocPoint",
          "type": "uint256"
        },
        {
          "internalType": "bool",
          "name": "_withUpdate",
          "type": "bool"
        }
      ],
      "name": "set",
      "outputs": [],
      "stateMutability": "nonpayable",
      "type": "function"
    },
    {
      "inputs": [
        {
          "internalType": "uint256",
          "name": "_multiplierNumber",
          "type": "uint256"
        }
      ],
      "name": "updateMultiplier",
      "outputs": [],
      "stateMutability": "nonpayable",
      "type": "function"
    },
    {
      "inputs": [
        {
          "internalType": "uint256",
          "name": "_tamgPerBlock",
          "type": "uint256"
        }
      ],
      "name": "updateTamgPerBlock",
      "outputs": [],
      "stateMutability": "nonpayable",
      "type": "function"
    },
    {
      "inputs": [
        {
          "internalType": "uint256",
          "name": "_amount",
          "type": "uint256"
        }
      ],
      "name": "addTamg",
      "outputs": [],
      "stateMutability": "nonpayable",
      "type": "function"
    },
    {
      "inputs": [
        {
          "internalType": "uint256",
          "name": "_amount",
          "type": "uint256"
        }
      ],
      "name": "removeTamg",
      "outputs": [],
      "stateMutability": "nonpayable",
      "type": "function"
    },
    {
      "inputs": [],
      "name": "poolLength",
      "outputs": [
        {
          "internalType": "uint256",
          "name": "",
          "type": "uint256"
        }
      ],
      "stateMutability": "view",
      "type": "function"
    },
    {
      "inputs": [
        {
          "internalType": "uint256",
          "name": "_from",
          "type": "uint256"
        },
        {
          "internalType": "uint256",
          "name": "_to",
          "type": "uint256"
        }
      ],
      "name": "getMultiplier",
      "outputs": [
        {
          "internalType": "uint256",
          "name": "",
          "type": "uint256"
        }
      ],
      "stateMutability": "view",
      "type": "function"
    },
    {
      "inputs": [
        {
          "internalType": "uint256",
          "name": "_pid",
          "type": "uint256"
        },
        {
          "internalType": "address",
          "name": "_user",
          "type": "address"
        }
      ],
      "name": "pendingTamg",
      "outputs": [
        {
          "internalType": "uint256",
          "name": "",
          "type": "uint256"
        }
      ],
      "stateMutability": "view",
      "type": "function"
    },
    {
      "inputs": [],
      "name": "massUpdatePools",
      "outputs": [],
      "stateMutability": "nonpayable",
      "type": "function"
    },
    {
      "inputs": [
        {
          "internalType": "uint256",
          "name": "_pid",
          "type": "uint256"
        }
      ],
      "name": "updatePool",
      "outputs": [],
      "stateMutability": "nonpayable",
      "type": "function"
    },
    {
      "inputs": [
        {
          "internalType": "uint256",
          "name": "_pid",
          "type": "uint256"
        },
        {
          "internalType": "uint256",
          "name": "_amount",
          "type": "uint256"
        }
      ],
      "name": "deposit",
      "outputs": [],
      "stateMutability": "nonpayable",
      "type": "function"
    },
    {
      "inputs": [
        {
          "internalType": "uint256",
          "name": "_pid",
          "type": "uint256"
        },
        {
          "internalType": "uint256",
          "name": "_amount",
          "type": "uint256"
        }
      ],
      "name": "withdraw",
      "outputs": [],
      "stateMutability": "nonpayable",
      "type": "function"
    },
    {
      "inputs": [
        {
          "internalType": "uint256",
          "name": "_pid",
          "type": "uint256"
        }
      ],
      "name": "emergencyWithdraw",
      "outputs": [],
      "stateMutability": "nonpayable",
      "type": "function"
    }
  ],
  "bytecode": "0x6080604052600160045560006007553480156200001b57600080fd5b5060405162001edc38038062001edc833981810160405260808110156200004157600080fd5b508051602082015160408301516060909301516000805460ff19166001178155929391926200006f62000167565b60008054610100600160a81b0319166101006001600160a01b038416908102919091178255604051929350917f8be0079c531659141344cd1fd0a4f28419497f9722a3daafe3b4186f6b6457e0908290a3506000620000cd62000167565b6001600160a01b03166000908152600160208190526040909120805460ff1916909117905550620000fd6200016b565b62000107620001c5565b600280546001600160a01b0319166001600160a01b038616179055600383905560088290556200013781620001d1565b6001600160a01b038116331462000153576200015333620001d1565b6200015d6200028f565b50505050620002bc565b3390565b60005460ff16620001c3576040805162461bcd60e51b815260206004820152601f60248201527f5265656e7472616e637947756172643a207265656e7472616e742063616c6c00604482015290519081900360640190fd5b565b6000805460ff19169055565b6000620001dd62000167565b9050620001ea816200029e565b6200023c576040805162461bcd60e51b815260206004820181905260248201527f4f776e61626c653a2063616c6c6572206973206e6f7420746865206f776e6572604482015290519081900360640190fd5b6001600160a01b03821660009081526001602052604090205460ff161562000264576200028b565b6001600160a01b0382166000908152600160208190526040909120805460ff191690911790555b5050565b6000805460ff19166001179055565b6001600160a01b031660009081526001602052604090205460ff1690565b611c1080620002cc6000396000f3fe608060405234801561001057600080fd5b50600436106101a95760003560e01c80635ffe6146116100f957806393f1a40b11610097578063d5ab6d8311610071578063d5ab6d8314610474578063d894b8a7146104a0578063e2bbb158146104bd578063f2fde38b146104e0576101a9565b806393f1a40b1461040a578063a8b973a11461044f578063c3ad7e9814610457576101a9565b8063715018a6116100d3578063715018a6146103ba57806379746135146103c25780638da5cb5b146103df5780638dbb1e3a146103e7576101a9565b80635ffe61461461036a578063630b5ba11461038757806364482f791461038f576101a9565b80633af32abf116101665780634ba79dfe116101405780634ba79dfe1461030257806351eb05a6146103285780635312ea8e14610345578063534601c514610362576101a9565b80633af32abf1461029d578063441a3e70146102d757806348cd4cb1146102fa576101a9565b8063081e3eda146101ae57806308d4b3b3146101c85780631526fe27146101ec57806317caf6f1146102395780631eaaa0451461024157806338eada1c14610277575b600080fd5b6101b6610506565b60408051918252519081900360200190f35b6101d061050c565b604080516001600160a01b039092168252519081900360200190f35b6102096004803603602081101561020257600080fd5b503561051b565b604080516001600160a01b0390951685526020850193909352838301919091526060830152519081900360800190f35b6101b661055c565b6102756004803603606081101561025757600080fd5b508035906001600160a01b0360208201351690604001351515610562565b005b6102756004803603602081101561028d57600080fd5b50356001600160a01b03166106f5565b6102c3600480360360208110156102b357600080fd5b50356001600160a01b031661079a565b604080519115158252519081900360200190f35b610275600480360360408110156102ed57600080fd5b50803590602001356107b8565b6101b661092b565b6102756004803603602081101561031857600080fd5b50356001600160a01b0316610931565b6102756004803603602081101561033e57600080fd5b50356109cc565b6102756004803603602081101561035b57600080fd5b5035610afc565b6101b6610bae565b6102756004803603602081101561038057600080fd5b5035610bb4565b610275610c6f565b610275600480360360608110156103a557600080fd5b50803590602081013590604001351515610c8e565b610275610d6e565b610275600480360360208110156103d857600080fd5b5035610e1f565b6101d0610fa4565b6101b6600480360360408110156103fd57600080fd5b5080359060200135610fb8565b6104366004803603604081101561042057600080fd5b50803590602001356001600160a01b0316610fd5565b6040805192835260208301919091528051918290030190f35b6101b6610ff9565b6102756004803603602081101561046d57600080fd5b5035610fff565b6101b66004803603604081101561048a57600080fd5b50803590602001356001600160a01b03166110be565b610275600480360360208110156104b657600080fd5b5035611220565b610275600480360360408110156104d357600080fd5b50803590602001356112db565b610275600480360360208110156104f657600080fd5b50356001600160a01b0316611401565b60055490565b6002546001600160a01b031681565b6005818154811061052857fe5b600091825260209091206004909102018054600182015460028301546003909301546001600160a01b039092169350919084565b60075481565b600061056c61150e565b90506105778161079a565b6105b6576040805162461bcd60e51b81526020600482018190526024820152600080516020611b91833981519152604482015290519081900360640190fd5b6105be611512565b6105c661156b565b81156105d4576105d4610c6f565b600060085443116105e7576008546105e9565b435b6007549091506105f99086611577565b600755604080516080810182526001600160a01b0386811682526020820188815292820193845260006060830181815260058054600181018255925292517f036b6384b5eca791c62761152d0c79bb0604c104a5fb6f4eb0703f3154bb3db0600490920291820180546001600160a01b031916919093161790915591517f036b6384b5eca791c62761152d0c79bb0604c104a5fb6f4eb0703f3154bb3db183015591517f036b6384b5eca791c62761152d0c79bb0604c104a5fb6f4eb0703f3154bb3db282015590517f036b6384b5eca791c62761152d0c79bb0604c104a5fb6f4eb0703f3154bb3db3909101556106ef6115d1565b50505050565b60006106ff61150e565b905061070a8161079a565b610749576040805162461bcd60e51b81526020600482018190526024820152600080516020611b91833981519152604482015290519081900360640190fd5b6001600160a01b03821660009081526001602052604090205460ff161561076f57610796565b6001600160a01b0382166000908152600160208190526040909120805460ff191690911790555b5050565b6001600160a01b031660009081526001602052604090205460ff1690565b6107c0611512565b6107c861156b565b6000600583815481106107d757fe5b60009182526020808320868452600682526040808520338652909252922080546004909202909201925083111561084a576040805162461bcd60e51b81526020600482015260126024820152711dda5d1a191c985dce881b9bdd0819dbdbd960721b604482015290519081900360640190fd5b610853846109cc565b600061088d826001015461088764e8d4a51000610881876003015487600001546115e090919063ffffffff16565b90611639565b906116a0565b9050801561089f5761089f33826116fd565b83156108c95781546108b190856116a0565b825582546108c9906001600160a01b031633866117b6565b600383015482546108e49164e8d4a5100091610881916115e0565b6001830155604080518581529051869133917ff279e6a1f5e320cca91135676d9cb6e44ca8a08c0b88342bcdb1144f6511b5689181900360200190a35050506107966115d1565b60085481565b600061093b61150e565b90506109468161079a565b610985576040805162461bcd60e51b81526020600482018190526024820152600080516020611b91833981519152604482015290519081900360640190fd5b6001600160a01b03821660009081526001602052604090205460ff166109aa57610796565b506001600160a01b03166000908152600160205260409020805460ff19169055565b6000600582815481106109db57fe5b90600052602060002090600402019050806002015443116109fc5750610af9565b8054604080516370a0823160e01b815230600482015290516000926001600160a01b0316916370a08231916024808301926020929190829003018186803b158015610a4657600080fd5b505afa158015610a5a573d6000803e3d6000fd5b505050506040513d6020811015610a7057600080fd5b5051905080610a86575043600290910155610af9565b6000610a96836002015443610fb8565b90506000610ac36007546108818660010154610abd600354876115e090919063ffffffff16565b906115e0565b9050610ae6610adb846108818464e8d4a510006115e0565b600386015490611577565b6003850155505043600290920191909155505b50565b610b04611512565b610b0c61156b565b600060058281548110610b1b57fe5b60009182526020808320858452600682526040808520338087529352909320805460049093029093018054909450610b60926001600160a01b039190911691906117b6565b805460008083556001830155604080518281529051859133917fbb757047c2b5f3974fe26b7c10f732e7bce710b0952a71082702781e62ae05959181900360200190a3505050610af96115d1565b60035481565b6000610bbe61150e565b9050610bc98161079a565b610c08576040805162461bcd60e51b81526020600482018190526024820152600080516020611b91833981519152604482015290519081900360640190fd5b610c10611512565b610c1861156b565b81610c5a576040805162461bcd60e51b815260206004820152600d60248201526c496e76616c69642076616c756560981b604482015290519081900360640190fd5b610c62610c6f565b60048290556107966115d1565b60055460005b8181101561079657610c86816109cc565b600101610c75565b6000610c9861150e565b9050610ca38161079a565b610ce2576040805162461bcd60e51b81526020600482018190526024820152600080516020611b91833981519152604482015290519081900360640190fd5b610cea611512565b610cf261156b565b8115610d0057610d00610c6f565b610d3d83610d3760058781548110610d1457fe5b9060005260206000209060040201600101546007546116a090919063ffffffff16565b90611577565b6007819055508260058581548110610d5157fe5b9060005260206000209060040201600101819055506106ef6115d1565b610d7661150e565b6001600160a01b0316610d87610fa4565b6001600160a01b031614610dd0576040805162461bcd60e51b81526020600482018190526024820152600080516020611b91833981519152604482015290519081900360640190fd5b600080546040516101009091046001600160a01b0316907f8be0079c531659141344cd1fd0a4f28419497f9722a3daafe3b4186f6b6457e0908390a360008054610100600160a81b0319169055565b6000610e2961150e565b9050610e348161079a565b610e73576040805162461bcd60e51b81526020600482018190526024820152600080516020611b91833981519152604482015290519081900360640190fd5b610e7b611512565b610e8361156b565b81610ec6576040805162461bcd60e51b815260206004820152600e60248201526d125b9d985b1a5908185b5bdd5b9d60921b604482015290519081900360640190fd5b600254604080516370a0823160e01b8152306004820152905184926001600160a01b0316916370a08231916024808301926020929190829003018186803b158015610f1057600080fd5b505afa158015610f24573d6000803e3d6000fd5b505050506040513d6020811015610f3a57600080fd5b50511015610f85576040805162461bcd60e51b8152602060048201526013602482015272496e737566666963656e742062616c616e636560681b604482015290519081900360640190fd5b600254610f9c906001600160a01b031633846117b6565b6107966115d1565b60005461010090046001600160a01b031690565b600454600090610fcc90610abd84866116a0565b90505b92915050565b60066020908152600092835260408084209091529082529020805460019091015482565b60045481565b600061100961150e565b90506110148161079a565b611053576040805162461bcd60e51b81526020600482018190526024820152600080516020611b91833981519152604482015290519081900360640190fd5b61105b611512565b61106361156b565b816110a6576040805162461bcd60e51b815260206004820152600e60248201526d125b9d985b1a5908185b5bdd5b9d60921b604482015290519081900360640190fd5b600254610f9c906001600160a01b0316333085611808565b600080600584815481106110ce57fe5b600091825260208083208784526006825260408085206001600160a01b03898116875290845281862060049586029093016003810154815484516370a0823160e01b81523098810198909852935191985093969395939492909116926370a08231926024808301939192829003018186803b15801561114c57600080fd5b505afa158015611160573d6000803e3d6000fd5b505050506040513d602081101561117657600080fd5b505160028501549091504311801561118d57508015155b156111ed5760006111a2856002015443610fb8565b905060006111c96007546108818860010154610abd600354876115e090919063ffffffff16565b90506111e86111e1846108818464e8d4a510006115e0565b8590611577565b935050505b611215836001015461088764e8d4a510006108818688600001546115e090919063ffffffff16565b979650505050505050565b600061122a61150e565b90506112358161079a565b611274576040805162461bcd60e51b81526020600482018190526024820152600080516020611b91833981519152604482015290519081900360640190fd5b61127c611512565b61128461156b565b816112c6576040805162461bcd60e51b815260206004820152600d60248201526c496e76616c69642076616c756560981b604482015290519081900360640190fd5b6112ce610c6f565b60038290556107966115d1565b6112e3611512565b6112eb61156b565b6000600583815481106112fa57fe5b6000918252602080832086845260068252604080852033865290925292206004909102909101915061132b846109cc565b805415611374576000611360826001015461088764e8d4a51000610881876003015487600001546115e090919063ffffffff16565b905080156113725761137233826116fd565b505b82156113a0578154611391906001600160a01b0316333086611808565b805461139d9084611577565b81555b600382015481546113bb9164e8d4a5100091610881916115e0565b6001820155604080518481529051859133917f90890809c654f11d6e72a28fa60149770a0d11ec6c92319d6ceb2bb0a4ea1a159181900360200190a350506107966115d1565b61140961150e565b6001600160a01b031661141a610fa4565b6001600160a01b031614611463576040805162461bcd60e51b81526020600482018190526024820152600080516020611b91833981519152604482015290519081900360640190fd5b6001600160a01b0381166114a85760405162461bcd60e51b8152600401808060200182810382526026815260200180611b246026913960400191505060405180910390fd5b600080546040516001600160a01b038085169361010090930416917f8be0079c531659141344cd1fd0a4f28419497f9722a3daafe3b4186f6b6457e091a3600080546001600160a01b0390921661010002610100600160a81b0319909216919091179055565b3390565b60005460ff16611569576040805162461bcd60e51b815260206004820152601f60248201527f5265656e7472616e637947756172643a207265656e7472616e742063616c6c00604482015290519081900360640190fd5b565b6000805460ff19169055565b600082820183811015610fcc576040805162461bcd60e51b815260206004820152601b60248201527f536166654d6174683a206164646974696f6e206f766572666c6f770000000000604482015290519081900360640190fd5b6000805460ff19166001179055565b6000826115ef57506000610fcf565b828202828482816115fc57fe5b0414610fcc5760405162461bcd60e51b8152600401808060200182810382526021815260200180611b706021913960400191505060405180910390fd5b600080821161168f576040805162461bcd60e51b815260206004820152601a60248201527f536166654d6174683a206469766973696f6e206279207a65726f000000000000604482015290519081900360640190fd5b81838161169857fe5b049392505050565b6000828211156116f7576040805162461bcd60e51b815260206004820152601e60248201527f536166654d6174683a207375627472616374696f6e206f766572666c6f770000604482015290519081900360640190fd5b50900390565b600254604080516370a0823160e01b815230600482015290516000926001600160a01b0316916370a08231916024808301926020929190829003018186803b15801561174857600080fd5b505afa15801561175c573d6000803e3d6000fd5b505050506040513d602081101561177257600080fd5b505190508082111561179a57600254611795906001600160a01b031684836117b6565b6117b1565b6002546117b1906001600160a01b031684846117b6565b505050565b604080516001600160a01b038416602482015260448082018490528251808303909101815260649091019091526020810180516001600160e01b031663a9059cbb60e01b1790526117b190849061185e565b604080516001600160a01b0380861660248301528416604482015260648082018490528251808303909101815260849091019091526020810180516001600160e01b03166323b872dd60e01b1790526106ef9085905b60606118b3826040518060400160405280602081526020017f5361666545524332303a206c6f772d6c6576656c2063616c6c206661696c6564815250856001600160a01b031661190f9092919063ffffffff16565b8051909150156117b1578080602001905160208110156118d257600080fd5b50516117b15760405162461bcd60e51b815260040180806020018281038252602a815260200180611bb1602a913960400191505060405180910390fd5b606061191e8484600085611928565b90505b9392505050565b6060824710156119695760405162461bcd60e51b8152600401808060200182810382526026815260200180611b4a6026913960400191505060405180910390fd5b61197285611a79565b6119c3576040805162461bcd60e51b815260206004820152601d60248201527f416464726573733a2063616c6c20746f206e6f6e2d636f6e7472616374000000604482015290519081900360640190fd5b60006060866001600160a01b031685876040518082805190602001908083835b60208310611a025780518252601f1990920191602091820191016119e3565b6001836020036101000a03801982511681845116808217855250505050505090500191505060006040518083038185875af1925050503d8060008114611a64576040519150601f19603f3d011682016040523d82523d6000602084013e611a69565b606091505b5091509150611215828286611a7f565b3b151590565b60608315611a8e575081611921565b825115611a9e5782518084602001fd5b8160405162461bcd60e51b81526004018080602001828103825283818151815260200191508051906020019080838360005b83811015611ae8578181015183820152602001611ad0565b50505050905090810190601f168015611b155780820380516001836020036101000a031916815260200191505b509250505060405180910390fdfe4f776e61626c653a206e6577206f776e657220697320746865207a65726f2061646472657373416464726573733a20696e73756666696369656e742062616c616e636520666f722063616c6c536166654d6174683a206d756c7469706c69636174696f6e206f766572666c6f774f776e61626c653a2063616c6c6572206973206e6f7420746865206f776e65725361666545524332303a204552433230206f7065726174696f6e20646964206e6f742073756363656564a2646970667358221220ae054c193e327ebdca1f05c83a6e3fe938cad16e15efee20aa243cefd7cff51664736f6c634300060c0033",
  "immutableReferences": {},
  "source": "// SPDX-License-Identifier: MIT\n\npragma solidity 0.6.12;\n\nimport '@openzeppelin/contracts/math/SafeMath.sol';\nimport '@openzeppelin/contracts/token/ERC20/IERC20.sol';\nimport '@openzeppelin/contracts/token/ERC20/SafeERC20.sol';\nimport \"./utility/Whitelist.sol\";\nimport \"./utility/Lockable.sol\";\n\ncontract Reward is Lockable, Whitelist {\n    using SafeMath for uint256;\n    using SafeERC20 for IERC20;\n\n    // Info of each user.\n    struct UserInfo {\n        uint256 amount; // How many LP tokens the user has provided.\n        uint256 rewardDebt; // Reward debt. See explanation below.\n        //\n        // We do some fancy math here. Basically, any point in time, the amount of Tamgs\n        // entitled to a user but is pending to be distributed is:\n        //\n        //   pending reward = (user.amount * pool.accTamgPerShare) - user.rewardDebt\n        //\n        // Whenever a user deposits or withdraws LP tokens to a pool. Here's what happens:\n        //   1. The pool's `accTamgPerShare` (and `lastRewardBlock`) gets updated.\n        //   2. User receives the pending reward sent to his/her address.\n        //   3. User's `amount` gets updated.\n        //   4. User's `rewardDebt` gets updated.\n    }\n\n    // Info of each pool.\n    struct PoolInfo {\n        IERC20 lpToken; // Address of LP token contract.\n        uint256 allocPoint; // How many allocation points assigned to this pool. Tamgs to distribute per block.\n        uint256 lastRewardBlock; // Last block number that Tamgs distribution occurs.\n        uint256 accTamgPerShare; // Accumulated Tamgs per share, times 1e12. See below.\n    }\n\n    // The Tamg TOKEN!\n    IERC20 public tamg; \n    // Tamg tokens created per block.\n    uint256 public tamgPerBlock;\n    // Bonus muliplier for early tamg makers.\n    uint256 public bonusMultiplier = 1;\n\n    // Info of each pool.\n    PoolInfo[] public poolInfo;\n    // Info of each user that stakes LP tokens.\n    mapping(uint256 => mapping(address => UserInfo)) public userInfo;\n    // Total allocation points. Must be the sum of all allocation points in all pools.\n    uint256 public totalAllocPoint = 0;\n    // The block number when Tamg mining starts.\n    uint256 public startBlock;\n\n    event Deposit(address indexed user, uint256 indexed pid, uint256 amount);\n    event Withdraw(address indexed user, uint256 indexed pid, uint256 amount);\n    event EmergencyWithdraw(\n        address indexed user,\n        uint256 indexed pid,\n        uint256 amount\n    );\n\n    constructor(\n        IERC20 _tamg,\n        uint256 _tamgPerBlock,\n        uint256 _startBlock,\n        address _adminAddress\n    ) public nonReentrant {\n        tamg = _tamg;\n        tamgPerBlock = _tamgPerBlock;\n        startBlock = _startBlock;\n\n        addAddress(_adminAddress);\n        \n        if (_adminAddress != msg.sender) {\n            addAddress(msg.sender);\n        }\n    }\n\n    // ONLY ADMIN\n\n    /**\n     * @notice Add a new lp to the pool. Can only be called by the owner.\n     * @dev DO NOT add the same LP token more than once. Rewards will be messed up if you do.\n     */\n\n    function add(\n        uint256 _allocPoint,\n        IERC20 _lpToken,\n        bool _withUpdate\n    ) public  onlyWhitelisted nonReentrant {\n        if (_withUpdate) {\n            massUpdatePools();\n        }\n        uint256 lastRewardBlock =\n            block.number > startBlock ? block.number : startBlock;\n        totalAllocPoint = totalAllocPoint.add(_allocPoint);\n        poolInfo.push(\n            PoolInfo({\n                lpToken: _lpToken,\n                allocPoint: _allocPoint,\n                lastRewardBlock: lastRewardBlock,\n                accTamgPerShare: 0\n            })\n        );\n    }\n\n    // Update the given pool's Tamg allocation point. Can only be called by the owner.\n    function set(\n        uint256 _pid,\n        uint256 _allocPoint,\n        bool _withUpdate\n    ) public  onlyWhitelisted nonReentrant {\n        if (_withUpdate) {\n            massUpdatePools();\n        }\n        totalAllocPoint = totalAllocPoint.sub(poolInfo[_pid].allocPoint).add(\n            _allocPoint\n        );\n        poolInfo[_pid].allocPoint = _allocPoint;\n    }\n\n    function updateMultiplier(uint256 _multiplierNumber) public onlyWhitelisted nonReentrant() {\n        require( _multiplierNumber != 0, \"Invalid value\" );\n        massUpdatePools();\n        bonusMultiplier = _multiplierNumber;\n    }\n\n    function updateTamgPerBlock(uint256 _tamgPerBlock) public onlyWhitelisted nonReentrant() {\n        require( _tamgPerBlock != 0, \"Invalid value\" );\n        massUpdatePools();\n        tamgPerBlock = _tamgPerBlock;\n    }\n\n    function addTamg(uint256 _amount) public onlyWhitelisted nonReentrant {\n        require( _amount != 0, \"Invalid amount\" );\n\n        tamg.safeTransferFrom(\n                msg.sender,\n                address(this),\n                _amount\n            );\n    }\n\n    function removeTamg(uint256 _amount) public onlyWhitelisted nonReentrant {\n        require( _amount != 0, \"Invalid amount\" );\n        require( tamg.balanceOf( address(this) ) >= _amount , \"Insufficent balance\"  );\n\n        tamg.safeTransfer(msg.sender, _amount);\n    }\n\n    // PUBLIC\n\n    // total pool in the system\n    function poolLength() external view returns (uint256) {\n        return poolInfo.length;\n    }\n\n    // Return reward multiplier over the given _from to _to block.\n    function getMultiplier(uint256 _from, uint256 _to)\n        public\n        view\n        returns (uint256)\n    {\n        return _to.sub(_from).mul(bonusMultiplier);\n    }\n\n    // View function to see pending Tamgs on frontend.\n    function pendingTamg(uint256 _pid, address _user)\n        external\n        view\n        returns (uint256)\n    {\n        PoolInfo storage pool = poolInfo[_pid];\n        UserInfo storage user = userInfo[_pid][_user];\n        uint256 accTamgPerShare = pool.accTamgPerShare;\n        uint256 lpSupply = pool.lpToken.balanceOf(address(this));\n        if (block.number > pool.lastRewardBlock && lpSupply != 0) {\n            uint256 multiplier =\n                getMultiplier(pool.lastRewardBlock, block.number);\n            uint256 tamgReward =\n                multiplier.mul(tamgPerBlock).mul(pool.allocPoint).div(\n                    totalAllocPoint\n                );\n            accTamgPerShare = accTamgPerShare.add(\n                tamgReward.mul(1e12).div(lpSupply)\n            );\n        }\n        return\n            user.amount.mul(accTamgPerShare).div(1e12).sub(user.rewardDebt);\n    }\n\n    // Update reward variables for all pools. Be careful of gas spending!\n    function massUpdatePools() public {\n        uint256 length = poolInfo.length;\n        for (uint256 pid = 0; pid < length; ++pid) {\n            updatePool(pid);\n        }\n    }\n\n    // Update reward variables of the given pool to be up-to-date.\n    function updatePool(uint256 _pid) public {\n        PoolInfo storage pool = poolInfo[_pid];\n        if (block.number <= pool.lastRewardBlock) {\n            return;\n        }\n        uint256 lpSupply = pool.lpToken.balanceOf(address(this));\n        if (lpSupply == 0) {\n            pool.lastRewardBlock = block.number;\n            return;\n        }\n        uint256 multiplier = getMultiplier(pool.lastRewardBlock, block.number);\n        uint256 tamgReward =\n            multiplier.mul(tamgPerBlock).mul(pool.allocPoint).div(\n                totalAllocPoint\n            );\n        pool.accTamgPerShare = pool.accTamgPerShare.add(\n            tamgReward.mul(1e12).div(lpSupply)\n        );\n        pool.lastRewardBlock = block.number;\n    }\n\n    // Deposit LP tokens to MasterChef for Tamg allocation.\n    function deposit(uint256 _pid, uint256 _amount) public nonReentrant {\n        PoolInfo storage pool = poolInfo[_pid];\n        UserInfo storage user = userInfo[_pid][msg.sender];\n        updatePool(_pid);\n        if (user.amount > 0) {\n            uint256 pending =\n                user.amount.mul(pool.accTamgPerShare).div(1e12).sub(\n                    user.rewardDebt\n                );\n            if(pending > 0) {\n                safeTamgTransfer(msg.sender, pending);\n            }\n        }\n        if (_amount > 0) {\n            pool.lpToken.safeTransferFrom(\n                msg.sender,\n                address(this),\n                _amount\n            );\n            user.amount = user.amount.add(_amount);\n        }\n        user.rewardDebt = user.amount.mul(pool.accTamgPerShare).div(1e12);\n        emit Deposit(msg.sender, _pid, _amount);\n    }\n\n    // Withdraw LP tokens from MasterChef.\n    function withdraw(uint256 _pid, uint256 _amount) public nonReentrant {\n        PoolInfo storage pool = poolInfo[_pid];\n        UserInfo storage user = userInfo[_pid][msg.sender];\n        require(user.amount >= _amount, \"withdraw: not good\");\n        updatePool(_pid);\n        uint256 pending =\n            user.amount.mul(pool.accTamgPerShare).div(1e12).sub(\n                user.rewardDebt\n            );\n        if(pending > 0) {\n            safeTamgTransfer(msg.sender, pending);\n        }\n        if (_amount > 0) {\n            user.amount = user.amount.sub(_amount);\n    \t    pool.lpToken.safeTransfer(msg.sender, _amount);       \n        }\n        user.rewardDebt = user.amount.mul(pool.accTamgPerShare).div(1e12);\n        emit Withdraw(msg.sender, _pid, _amount);\n    }\n\n    // Withdraw without caring about rewards. EMERGENCY ONLY.\n    function emergencyWithdraw(uint256 _pid) public nonReentrant{\n        PoolInfo storage pool = poolInfo[_pid];\n        UserInfo storage user = userInfo[_pid][msg.sender];\n        pool.lpToken.safeTransfer(msg.sender, user.amount);\n        uint256 amount = user.amount;\n        user.amount = 0;\n        user.rewardDebt = 0;\n        emit EmergencyWithdraw(msg.sender, _pid, amount);\n    }\n\n\n    // INTERNAL\n\n    // Safe tamg transfer function, just in case if rounding error causes pool to not have enough Tamgs.\n    function safeTamgTransfer(address _to, uint256 _amount) internal {\n        uint256 tamgBal = tamg.balanceOf(address(this));\n\t\tif (_amount > tamgBal) {\n\t\ttamg.safeTransfer(_to, tamgBal);\n\t\t} else {\n\t\ttamg.safeTransfer(_to, _amount);\n\t\t}\n    }\n}",
  "sourcePath": "/Users/kantapatchankasem/Work/tamago/tamago-finance/contractV2/contracts/Reward.sol",
  "compiler": {
    "name": "solc",
    "version": "0.6.12+commit.27d51765.Emscripten.clang"
  },
  "schemaVersion": "3.3.4",
  "updatedAt": "2021-11-11T08:48:33.109Z",
  "devdoc": {
    "kind": "dev",
    "methods": {
      "add(uint256,address,bool)": {
        "details": "DO NOT add the same LP token more than once. Rewards will be messed up if you do."
      },
      "addAddress(address)": {
        "details": "adds a given address to the whitelist ",
        "params": {
          "_address": "address to add"
        }
      },
      "isWhitelisted(address)": {
        "details": "returns true if a given address is whitelisted, false if not ",
        "params": {
          "_address": "address to check "
        },
        "returns": {
          "_0": "true if the address is whitelisted, false if not"
        }
      },
      "owner()": {
        "details": "Returns the address of the current owner."
      },
      "removeAddress(address)": {
        "details": "removes a given address from the whitelist ",
        "params": {
          "_address": "address to remove"
        }
      },
      "renounceOwnership()": {
        "details": "Leaves the contract without owner. It will not be possible to call `onlyOwner` functions anymore. Can only be called by the current owner. NOTE: Renouncing ownership will leave the contract without an owner, thereby removing any functionality that is only available to the owner."
      },
      "transferOwnership(address)": {
        "details": "Transfers ownership of the contract to a new account (`newOwner`). Can only be called by the current owner."
      }
    },
    "version": 1
  },
  "userdoc": {
    "kind": "user",
    "methods": {
      "add(uint256,address,bool)": {
        "notice": "Add a new lp to the pool. Can only be called by the owner."
      }
    },
    "version": 1
  }
}