{
  "contractName": "Timelock",
  "abi": [
    {
      "inputs": [
        {
          "internalType": "address",
          "name": "_lockToken",
          "type": "address"
        }
      ],
      "stateMutability": "nonpayable",
      "type": "constructor"
    },
    {
      "anonymous": false,
      "inputs": [
        {
          "indexed": true,
          "internalType": "address",
          "name": "account",
          "type": "address"
        },
        {
          "indexed": false,
          "internalType": "uint256",
          "name": "amount",
          "type": "uint256"
        },
        {
          "indexed": false,
          "internalType": "uint256",
          "name": "unlockBlock",
          "type": "uint256"
        }
      ],
      "name": "Deposit",
      "type": "event"
    },
    {
      "anonymous": false,
      "inputs": [
        {
          "indexed": true,
          "internalType": "address",
          "name": "previousOwner",
          "type": "address"
        },
        {
          "indexed": true,
          "internalType": "address",
          "name": "newOwner",
          "type": "address"
        }
      ],
      "name": "OwnershipTransferred",
      "type": "event"
    },
    {
      "anonymous": false,
      "inputs": [
        {
          "indexed": true,
          "internalType": "address",
          "name": "account",
          "type": "address"
        },
        {
          "indexed": false,
          "internalType": "uint256",
          "name": "amount",
          "type": "uint256"
        },
        {
          "indexed": false,
          "internalType": "uint256",
          "name": "batchId",
          "type": "uint256"
        }
      ],
      "name": "Withdraw",
      "type": "event"
    },
    {
      "inputs": [
        {
          "internalType": "uint256",
          "name": "",
          "type": "uint256"
        }
      ],
      "name": "batchesInfo",
      "outputs": [
        {
          "internalType": "uint256",
          "name": "amount",
          "type": "uint256"
        },
        {
          "internalType": "uint256",
          "name": "unlockBlock",
          "type": "uint256"
        },
        {
          "internalType": "bool",
          "name": "canWithdraw",
          "type": "bool"
        }
      ],
      "stateMutability": "view",
      "type": "function"
    },
    {
      "inputs": [],
      "name": "lockToken",
      "outputs": [
        {
          "internalType": "address",
          "name": "",
          "type": "address"
        }
      ],
      "stateMutability": "view",
      "type": "function"
    },
    {
      "inputs": [],
      "name": "owner",
      "outputs": [
        {
          "internalType": "address",
          "name": "",
          "type": "address"
        }
      ],
      "stateMutability": "view",
      "type": "function"
    },
    {
      "inputs": [],
      "name": "renounceOwnership",
      "outputs": [],
      "stateMutability": "nonpayable",
      "type": "function"
    },
    {
      "inputs": [
        {
          "internalType": "address",
          "name": "newOwner",
          "type": "address"
        }
      ],
      "name": "transferOwnership",
      "outputs": [],
      "stateMutability": "nonpayable",
      "type": "function"
    },
    {
      "inputs": [],
      "name": "totalBatch",
      "outputs": [
        {
          "internalType": "uint256",
          "name": "",
          "type": "uint256"
        }
      ],
      "stateMutability": "view",
      "type": "function"
    },
    {
      "inputs": [
        {
          "internalType": "uint256",
          "name": "_batchId",
          "type": "uint256"
        }
      ],
      "name": "getBatchUnlockBlock",
      "outputs": [
        {
          "internalType": "uint256",
          "name": "",
          "type": "uint256"
        }
      ],
      "stateMutability": "view",
      "type": "function"
    },
    {
      "inputs": [
        {
          "internalType": "uint256",
          "name": "_batchId",
          "type": "uint256"
        }
      ],
      "name": "getBatchAmount",
      "outputs": [
        {
          "internalType": "uint256",
          "name": "",
          "type": "uint256"
        }
      ],
      "stateMutability": "view",
      "type": "function"
    },
    {
      "inputs": [
        {
          "internalType": "uint256",
          "name": "_batchId",
          "type": "uint256"
        }
      ],
      "name": "getBatchWithdrawStatus",
      "outputs": [
        {
          "internalType": "bool",
          "name": "",
          "type": "bool"
        }
      ],
      "stateMutability": "view",
      "type": "function"
    },
    {
      "inputs": [
        {
          "internalType": "uint256",
          "name": "_amount",
          "type": "uint256"
        },
        {
          "internalType": "uint256",
          "name": "_unlockBlock",
          "type": "uint256"
        }
      ],
      "name": "deposit",
      "outputs": [],
      "stateMutability": "nonpayable",
      "type": "function"
    },
    {
      "inputs": [
        {
          "internalType": "uint256",
          "name": "_batchId",
          "type": "uint256"
        }
      ],
      "name": "withdraw",
      "outputs": [],
      "stateMutability": "nonpayable",
      "type": "function"
    }
  ],
  "bytecode": "0x608060405234801561001057600080fd5b50604051610ec5380380610ec58339818101604052602081101561003357600080fd5b5051600061003f6100d5565b600080546001600160a01b0319166001600160a01b0383169081178255604051929350917f8be0079c531659141344cd1fd0a4f28419497f9722a3daafe3b4186f6b6457e0908290a3506000805460ff60a01b1916600160a01b1790556100a46100d9565b6100ac610139565b600180546001600160a01b0319166001600160a01b0383161790556100cf610148565b5061015d565b3390565b600054600160a01b900460ff16610137576040805162461bcd60e51b815260206004820152601f60248201527f5265656e7472616e637947756172643a207265656e7472616e742063616c6c00604482015290519081900360640190fd5b565b6000805460ff60a01b19169055565b6000805460ff60a01b1916600160a01b179055565b610d598061016c6000396000f3fe608060405234801561001057600080fd5b50600436106100a95760003560e01c80638da5cb5b116100715780638da5cb5b1461013d578063a1583dcb14610161578063bca7a9e21461019e578063e2bbb158146101a6578063f2fde38b146101c9578063fd5e448d146101ef576100a9565b80631435657b146100ae57806325201156146100df5780632e1a7d4d1461010e578063715018a61461012d57806384f7e9c414610135575b600080fd5b6100cb600480360360208110156100c457600080fd5b503561020c565b604080519115158252519081900360200190f35b6100fc600480360360208110156100f557600080fd5b5035610238565b60408051918252519081900360200190f35b61012b6004803603602081101561012457600080fd5b5035610260565b005b61012b610458565b6100fc610504565b61014561050a565b604080516001600160a01b039092168252519081900360200190f35b61017e6004803603602081101561017757600080fd5b5035610519565b604080519384526020840192909252151582820152519081900360600190f35b61014561054c565b61012b600480360360408110156101bc57600080fd5b508035906020013561055b565b61012b600480360360208110156101df57600080fd5b50356001600160a01b031661072d565b6100fc6004803603602081101561020557600080fd5b503561082f565b60006002828154811061021b57fe5b600091825260209091206003909102016002015460ff1692915050565b60006002828154811061024757fe5b9060005260206000209060030201600101549050919050565b610268610857565b6001600160a01b031661027961050a565b6001600160a01b0316146102c2576040805162461bcd60e51b81526020600482018190526024820152600080516020610cda833981519152604482015290519081900360640190fd5b6102ca61085b565b6102d26108bb565b6002548110610320576040805162461bcd60e51b8152602060048201526015602482015274125b9d985b1a590819da5d995b8818985d18da1259605a1b604482015290519081900360640190fd5b60006002828154811061032f57fe5b60009182526020909120600390910201600281015490915060ff1661039b576040805162461bcd60e51b815260206004820152601960248201527f576974686472617720737461747573206973206c6f636b656400000000000000604482015290519081900360640190fd5b80546001820154438111156103e15760405162461bcd60e51b8152600401808060200182810382526027815260200180610c676027913960400191505060405180910390fd5b600080845560018085019190915560028401805460ff1916905554610410906001600160a01b031633846108ca565b6040805183815260208101869052815133927ff279e6a1f5e320cca91135676d9cb6e44ca8a08c0b88342bcdb1144f6511b568928290030190a2505050610455610921565b50565b610460610857565b6001600160a01b031661047161050a565b6001600160a01b0316146104ba576040805162461bcd60e51b81526020600482018190526024820152600080516020610cda833981519152604482015290519081900360640190fd5b600080546040516001600160a01b03909116907f8be0079c531659141344cd1fd0a4f28419497f9722a3daafe3b4186f6b6457e0908390a3600080546001600160a01b0319169055565b60025490565b6000546001600160a01b031690565b6002818154811061052657fe5b600091825260209091206003909102018054600182015460029092015490925060ff1683565b6001546001600160a01b031681565b610563610857565b6001600160a01b031661057461050a565b6001600160a01b0316146105bd576040805162461bcd60e51b81526020600482018190526024820152600080516020610cda833981519152604482015290519081900360640190fd5b6105c561085b565b6105cd6108bb565b804310610621576040805162461bcd60e51b815260206004820152601960248201527f496e76616c696420676976656e20756e6c6f636b426c6f636b00000000000000604482015290519081900360640190fd5b600154610639906001600160a01b0316333085610936565b604080516060810182528381526020808201848152600183850181815260028054928301815560005293517f405787fa12a823e0f2b7631cc41b3ba8828b3321ca811111fa75cd3aa3bb5ace60039092029182015590517f405787fa12a823e0f2b7631cc41b3ba8828b3321ca811111fa75cd3aa3bb5acf82015591517f405787fa12a823e0f2b7631cc41b3ba8828b3321ca811111fa75cd3aa3bb5ad0909201805460ff1916921515929092179091558151848152908101839052815133927f90890809c654f11d6e72a28fa60149770a0d11ec6c92319d6ceb2bb0a4ea1a15928290030190a2610729610921565b5050565b610735610857565b6001600160a01b031661074661050a565b6001600160a01b03161461078f576040805162461bcd60e51b81526020600482018190526024820152600080516020610cda833981519152604482015290519081900360640190fd5b6001600160a01b0381166107d45760405162461bcd60e51b8152600401808060200182810382526026815260200180610c8e6026913960400191505060405180910390fd5b600080546040516001600160a01b03808516939216917f8be0079c531659141344cd1fd0a4f28419497f9722a3daafe3b4186f6b6457e091a3600080546001600160a01b0319166001600160a01b0392909216919091179055565b60006002828154811061083e57fe5b9060005260206000209060030201600001549050919050565b3390565b600054600160a01b900460ff166108b9576040805162461bcd60e51b815260206004820152601f60248201527f5265656e7472616e637947756172643a207265656e7472616e742063616c6c00604482015290519081900360640190fd5b565b6000805460ff60a01b19169055565b604080516001600160a01b038416602482015260448082018490528251808303909101815260649091019091526020810180516001600160e01b031663a9059cbb60e01b17905261091c908490610996565b505050565b6000805460ff60a01b1916600160a01b179055565b604080516001600160a01b0380861660248301528416604482015260648082018490528251808303909101815260849091019091526020810180516001600160e01b03166323b872dd60e01b179052610990908590610996565b50505050565b60606109eb826040518060400160405280602081526020017f5361666545524332303a206c6f772d6c6576656c2063616c6c206661696c6564815250856001600160a01b0316610a479092919063ffffffff16565b80519091501561091c57808060200190516020811015610a0a57600080fd5b505161091c5760405162461bcd60e51b815260040180806020018281038252602a815260200180610cfa602a913960400191505060405180910390fd5b6060610a568484600085610a60565b90505b9392505050565b606082471015610aa15760405162461bcd60e51b8152600401808060200182810382526026815260200180610cb46026913960400191505060405180910390fd5b610aaa85610bbc565b610afb576040805162461bcd60e51b815260206004820152601d60248201527f416464726573733a2063616c6c20746f206e6f6e2d636f6e7472616374000000604482015290519081900360640190fd5b60006060866001600160a01b031685876040518082805190602001908083835b60208310610b3a5780518252601f199092019160209182019101610b1b565b6001836020036101000a03801982511681845116808217855250505050505090500191505060006040518083038185875af1925050503d8060008114610b9c576040519150601f19603f3d011682016040523d82523d6000602084013e610ba1565b606091505b5091509150610bb1828286610bc2565b979650505050505050565b3b151590565b60608315610bd1575081610a59565b825115610be15782518084602001fd5b8160405162461bcd60e51b81526004018080602001828103825283818151815260200191508051906020019080838360005b83811015610c2b578181015183820152602001610c13565b50505050905090810190601f168015610c585780820380516001836020036101000a031916815260200191505b509250505060405180910390fdfe596f752063616e206e6f74207769746864726177206265666f726520756e6c6f636b426c6f636b4f776e61626c653a206e6577206f776e657220697320746865207a65726f2061646472657373416464726573733a20696e73756666696369656e742062616c616e636520666f722063616c6c4f776e61626c653a2063616c6c6572206973206e6f7420746865206f776e65725361666545524332303a204552433230206f7065726174696f6e20646964206e6f742073756363656564a2646970667358221220a27f29aa2816cc1b8ef8a80952e33295d92fe895da42bfd5bbeea3bcb29c6d8a64736f6c634300060c0033",
  "immutableReferences": {},
  "source": "// SPDX-License-Identifier: MIT\n\npragma solidity ^0.6.0;\n\nimport \"@openzeppelin/contracts/access/Ownable.sol\";\nimport \"../interfaces/IERC20.sol\";\nimport \"./SafeERC20.sol\";\nimport \"./Lockable.sol\";\n\ncontract Timelock is Ownable, Lockable {\n\n\tusing SafeERC20 for IERC20;\n\n\tstruct Batch {\n\t\tuint256 amount;\n\t\tuint256 unlockBlock;\n\t\tbool canWithdraw;\n\t}\n\n\taddress public lockToken;\n\tBatch[] public batchesInfo;\t\n\n\tevent Deposit(address indexed account, uint256 amount, uint256 unlockBlock);\n\tevent Withdraw(address indexed account, uint256 amount, uint256 batchId);\n\n\t// must provide the token address\n\tconstructor(address _lockToken) public nonReentrant() {\n\t\tlockToken = _lockToken;\n\t}\n\n\t// return total batch in the system\n\tfunction totalBatch() public view returns (uint256) {\n\t\treturn batchesInfo.length;\n\t}\n\n\t// return the batch's block to be released\n\tfunction getBatchUnlockBlock(uint256 _batchId) public view returns (uint256) {\n\t\treturn batchesInfo[_batchId].unlockBlock;\n\t}\n\n\t// return the batch's amount\n\tfunction getBatchAmount(uint256 _batchId) public view returns (uint256) {\n\t\treturn batchesInfo[_batchId].amount;\n\t}\n\n\t// check the withdraw status\n\tfunction getBatchWithdrawStatus(uint256 _batchId) public view returns (bool) {\n\t\treturn batchesInfo[_batchId].canWithdraw;\n\t}\n\n\t// deposit the token until reach the given _unlockBlock\n\tfunction deposit(uint256 _amount, uint256 _unlockBlock) public onlyOwner nonReentrant {\n\t\trequire(block.number < _unlockBlock, \"Invalid given unlockBlock\");\n\t\tIERC20(lockToken).safeTransferFrom(msg.sender, address(this), _amount);\n\t\tbatchesInfo.push(\n\t\t\tBatch(_amount, _unlockBlock, true)\n\t\t);\n\t\temit Deposit(msg.sender, _amount, _unlockBlock);\n\t}\n\n\t// withdraw the token if the unlockBlock is reached \n\tfunction withdraw(uint256 _batchId) public onlyOwner nonReentrant {\n\t\trequire(_batchId < batchesInfo.length, \"Invalid given batchId\");\n\t\tBatch storage batch = batchesInfo[_batchId];\n\t\trequire(batch.canWithdraw, \"Withdraw status is locked\");\n\t\tuint256 amount = batch.amount;\n\t\tuint256 unlockBlock = batch.unlockBlock;\n\t\trequire(block.number >= unlockBlock, \"You can not withdraw before unlockBlock\");\n\t\tbatch.amount = 0;\n\t\tbatch.unlockBlock = 0;\n\t\tbatch.canWithdraw = false;\n\t\tIERC20(lockToken).safeTransfer(msg.sender, amount);\n\t\temit Withdraw(msg.sender, amount, _batchId);\n\t}\n\n}",
  "sourcePath": "/Users/kantapatchankasem/Work/tamago/tamago-finance/contractV2/contracts/utility/Timelock.sol",
  "compiler": {
    "name": "solc",
    "version": "0.6.12+commit.27d51765.Emscripten.clang"
  },
  "schemaVersion": "3.3.4",
  "updatedAt": "2021-11-11T08:48:33.403Z",
  "devdoc": {
    "kind": "dev",
    "methods": {
      "owner()": {
        "details": "Returns the address of the current owner."
      },
      "renounceOwnership()": {
        "details": "Leaves the contract without owner. It will not be possible to call `onlyOwner` functions anymore. Can only be called by the current owner. NOTE: Renouncing ownership will leave the contract without an owner, thereby removing any functionality that is only available to the owner."
      },
      "transferOwnership(address)": {
        "details": "Transfers ownership of the contract to a new account (`newOwner`). Can only be called by the current owner."
      }
    },
    "version": 1
  },
  "userdoc": {
    "kind": "user",
    "methods": {},
    "version": 1
  }
}