{
  "contractName": "TokenFactory",
  "abi": [
    {
      "anonymous": false,
      "inputs": [
        {
          "indexed": true,
          "internalType": "address",
          "name": "tokenAddress",
          "type": "address"
        }
      ],
      "name": "TokenCreated",
      "type": "event"
    },
    {
      "inputs": [
        {
          "internalType": "string",
          "name": "tokenName",
          "type": "string"
        },
        {
          "internalType": "string",
          "name": "tokenSymbol",
          "type": "string"
        },
        {
          "internalType": "uint8",
          "name": "tokenDecimals",
          "type": "uint8"
        }
      ],
      "name": "createToken",
      "outputs": [
        {
          "internalType": "contract IExpandedIERC20",
          "name": "newToken",
          "type": "address"
        }
      ],
      "stateMutability": "nonpayable",
      "type": "function"
    }
  ],
  "bytecode": "0x608060405234801561001057600080fd5b506000805460ff191660011790556124708061002d6000396000f3fe608060405234801561001057600080fd5b506004361061002b5760003560e01c8063e8a0aed314610030575b600080fd5b6100f56004803603606081101561004657600080fd5b81019060208101813564010000000081111561006157600080fd5b82018360208201111561007357600080fd5b8035906020019184600183028401116401000000008311171561009557600080fd5b9193909290916020810190356401000000008111156100b357600080fd5b8201836020820111156100c557600080fd5b803590602001918460018302840111640100000000831117156100e757600080fd5b91935091503560ff16610111565b604080516001600160a01b039092168252519081900360200190f35b600061011b610328565b610123610381565b600086868686866040516101369061039c565b60ff8216604082015260608082528101859052806020810160808201888880828437600083820152601f01601f1916909101848103835286815260200190508686808284376000838201819052604051601f909201601f19169093018190039a509850909650505050505050f0801580156101b5573d6000803e3d6000fd5b509050806001600160a01b031663983b2d56336040518263ffffffff1660e01b815260040180826001600160a01b03168152602001915050600060405180830381600087803b15801561020757600080fd5b505af115801561021b573d6000803e3d6000fd5b505060408051637a231bdd60e11b815233600482015290516001600160a01b038516935063f44637ba9250602480830192600092919082900301818387803b15801561026657600080fd5b505af115801561027a573d6000803e3d6000fd5b5050604080516339e6401560e11b815233600482015290516001600160a01b03851693506373cc802a9250602480830192600092919082900301818387803b1580156102c557600080fd5b505af11580156102d9573d6000803e3d6000fd5b50505050809150816001600160a01b03167f2e2b3f61b70d2d131b2a807371103cc98d51adcaa5e9a8f9c32658ad8426e74e60405160405180910390a25061031f61038d565b95945050505050565b60005460ff1661037f576040805162461bcd60e51b815260206004820152601f60248201527f5265656e7472616e637947756172643a207265656e7472616e742063616c6c00604482015290519081900360640190fd5b565b6000805460ff19169055565b6000805460ff19166001179055565b612091806103aa8339019056fe60806040523480156200001157600080fd5b506040516200209138038062002091833981810160405260608110156200003757600080fd5b81019080805160405193929190846401000000008211156200005857600080fd5b9083019060208201858111156200006e57600080fd5b82516401000000008111828201881017156200008957600080fd5b82525081516020918201929091019080838360005b83811015620000b85781810151838201526020016200009e565b50505050905090810190601f168015620000e65780820380516001836020036101000a031916815260200191505b50604052602001805160405193929190846401000000008211156200010a57600080fd5b9083019060208201858111156200012057600080fd5b82516401000000008111828201881017156200013b57600080fd5b82525081516020918201929091019080838360005b838110156200016a57818101518382015260200162000150565b50505050905090810190601f168015620001985780820380516001836020036101000a031916815260200191505b5060405260209081015185519093508592508491849184918491620001c4916003919085019062000654565b508051620001da90600490602084019062000654565b50506005805460ff1916601217905550620001f58162000263565b620002036000803362000279565b6200022060015b6040805160008082526020820190925262000394565b6200022c60026200020a565b50506007805460ff191660011790555062000246620004a9565b6200025062000503565b6200025a6200050f565b505050620006f0565b6005805460ff191660ff92909216919091179055565b826000808281526006602052604090206001015460ff1660028111156200029c57fe5b14620002ef576040805162461bcd60e51b815260206004820152601e60248201527f43616e6e6f74207573652061207072652d6578697374696e6720726f6c650000604482015290519081900360640190fd5b60008481526006602052604090206001808201805460ff1916828002179055508381556200032d60028201846200051e602090811b62000f5b17901c565b60008481526006602052604081206001015460ff1660028111156200034e57fe5b14156200038d5760405162461bcd60e51b815260040180806020018281038252603c81526020018062001ffa603c913960400191505060405180910390fd5b5050505050565b826000808281526006602052604090206001015460ff166002811115620003b757fe5b146200040a576040805162461bcd60e51b815260206004820152601e60248201527f43616e6e6f74207573652061207072652d6578697374696e6720726f6c650000604482015290519081900360640190fd5b600084815260066020908152604090912060018101805460ff191660021790558481559062000449906003830190859062000f656200052e821b17901c565b60008481526006602052604081206001015460ff1660028111156200046a57fe5b14156200038d5760405162461bcd60e51b8152600401808060200182810382526038815260200180620020596038913960400191505060405180910390fd5b60075460ff1662000501576040805162461bcd60e51b815260206004820152601f60248201527f5265656e7472616e637947756172643a207265656e7472616e742063616c6c00604482015290519081900360640190fd5b565b6007805460ff19169055565b6007805460ff19166001179055565b6200052a82826200056f565b5050565b60005b81518110156200056a5762000561838383815181106200054d57fe5b6020026020010151620005d360201b60201c565b60010162000531565b505050565b6001600160a01b038116620005b65760405162461bcd60e51b8152600401808060200182810382526023815260200180620020366023913960400191505060405180910390fd5b81546001600160a01b0319166001600160a01b0391909116179055565b6001600160a01b0381166200062f576040805162461bcd60e51b815260206004820152601f60248201527f43616e6e6f74206164642030783020746f20612073686172656420726f6c6500604482015290519081900360640190fd5b6001600160a01b0316600090815260209190915260409020805460ff19166001179055565b828054600181600116156101000203166002900490600052602060002090601f016020900481019282601f106200069757805160ff1916838001178555620006c7565b82800160010185558215620006c7579182015b82811115620006c7578251825591602001919060010190620006aa565b50620006d5929150620006d9565b5090565b5b80821115620006d55760008155600101620006da565b6118fa80620007006000396000f3fe608060405234801561001057600080fd5b506004361061018e5760003560e01c806373cc802a116100de578063a9059cbb11610097578063ab3545e511610071578063ab3545e514610540578063d97c05be14610579578063dd62ed3e146105a5578063f44637ba146105d35761018e565b8063a9059cbb146104d1578063aa271e1a146104fd578063aaa14ca3146105235761018e565b806373cc802a146103f957806374d0a6761461041f5780637cdc1cb91461044b57806395d89b4114610477578063983b2d561461047f578063a457c2d7146104a55761018e565b8063313ce5671161014b57806342966c681161012557806342966c68146103645780634334614a146103815780636be7658b146103a757806370a08231146103d35761018e565b8063313ce567146102ee578063395093511461030c57806340c10f19146103385761018e565b8063028468581461019357806306fdde03146101bb578063095ea7b31461023857806318160ddd1461027857806323b872dd146102925780633092afd5146102c8575b600080fd5b6101b9600480360360208110156101a957600080fd5b50356001600160a01b03166105f9565b005b6101c3610620565b6040805160208082528351818301528351919283929083019185019080838360005b838110156101fd5781810151838201526020016101e5565b50505050905090810190601f16801561022a5780820380516001836020036101000a031916815260200191505b509250505060405180910390f35b6102646004803603604081101561024e57600080fd5b506001600160a01b0381351690602001356106b6565b604080519115158252519081900360200190f35b6102806106d4565b60408051918252519081900360200190f35b610264600480360360608110156102a857600080fd5b506001600160a01b038135811691602081013590911690604001356106da565b6101b9600480360360208110156102de57600080fd5b50356001600160a01b0316610761565b6102f661077b565b6040805160ff9092168252519081900360200190f35b6102646004803603604081101561032257600080fd5b506001600160a01b038135169060200135610784565b6102646004803603604081101561034e57600080fd5b506001600160a01b0381351690602001356107d2565b6101b96004803603602081101561037a57600080fd5b5035610825565b6102646004803603602081101561039757600080fd5b50356001600160a01b031661087a565b6101b9600480360360408110156103bd57600080fd5b50803590602001356001600160a01b0316610890565b610280600480360360208110156103e957600080fd5b50356001600160a01b031661099e565b6101b96004803603602081101561040f57600080fd5b50356001600160a01b03166109b9565b6101b96004803603604081101561043557600080fd5b50803590602001356001600160a01b03166109d4565b6102646004803603604081101561046157600080fd5b50803590602001356001600160a01b0316610ae2565b6101c3610b85565b6101b96004803603602081101561049557600080fd5b50356001600160a01b0316610be6565b610264600480360360408110156104bb57600080fd5b506001600160a01b038135169060200135610c02565b610264600480360360408110156104e757600080fd5b506001600160a01b038135169060200135610c6a565b6102646004803603602081101561051357600080fd5b50356001600160a01b0316610c7e565b6101b96004803603602081101561053957600080fd5b5035610c92565b61055d6004803603602081101561055657600080fd5b5035610d86565b604080516001600160a01b039092168252519081900360200190f35b6101b96004803603604081101561058f57600080fd5b50803590602001356001600160a01b0316610e08565b610280600480360360408110156105bb57600080fd5b506001600160a01b0381358116916020013516610f16565b6101b9600480360360208110156105e957600080fd5b50356001600160a01b0316610f41565b610601610f9b565b610609610ff4565b61061560025b82610890565b61061d611000565b50565b60038054604080516020601f60026000196101006001881615020190951694909404938401819004810282018101909252828152606093909290918301828280156106ac5780601f10610681576101008083540402835291602001916106ac565b820191906000526020600020905b81548152906001019060200180831161068f57829003601f168201915b5050505050905090565b60006106ca6106c361100f565b8484611013565b5060015b92915050565b60025490565b60006106e78484846110ff565b610757846106f361100f565b610752856040518060600160405280602881526020016117c7602891396001600160a01b038a1660009081526001602052604081209061073161100f565b6001600160a01b03168152602081019190915260400160002054919061125a565b611013565b5060019392505050565b610769610f9b565b610771610ff4565b610615600161060f565b60055460ff1690565b60006106ca61079161100f565b8461075285600160006107a261100f565b6001600160a01b03908116825260208083019390935260409182016000908120918c1681529252902054906112f1565b600060016107e08133610ae2565b61081b5760405162461bcd60e51b81526004018080602001828103825260228152602001806117a56022913960400191505060405180910390fd5b610757848461134b565b60026108318133610ae2565b61086c5760405162461bcd60e51b81526004018080602001828103825260228152602001806117a56022913960400191505060405180910390fd5b610876338361143b565b5050565b6000610884610f9b565b6106ce60025b83610ae2565b81600260008281526006602052604090206001015460ff1660028111156108b357fe5b146108ef5760405162461bcd60e51b815260040180806020018281038252602c815260200180611779602c913960400191505060405180910390fd5b600083815260066020526040902054839061090a9033610ae2565b6109455760405162461bcd60e51b815260040180806020018281038252602481526020018061187c6024913960400191505060405180910390fd5b60008481526006602052604090206109609060030184611537565b60405133906001600160a01b0385169086907feb3e33034c392e69263b04ec0fa376dc12784a41b6676c7f31b936cbc0fbb5af90600090a450505050565b6001600160a01b031660009081526020819052604090205490565b6109c1610f9b565b6109c9610ff4565b610615600082610e08565b81600260008281526006602052604090206001015460ff1660028111156109f757fe5b14610a335760405162461bcd60e51b815260040180806020018281038252602c815260200180611779602c913960400191505060405180910390fd5b6000838152600660205260409020548390610a4e9033610ae2565b610a895760405162461bcd60e51b815260040180806020018281038252602481526020018061187c6024913960400191505060405180910390fd5b6000848152600660205260409020610aa49060030184611559565b60405133906001600160a01b0385169086907f63502af7324ff6db91ab38f8236a648727d9385ea6c782073dd4882d8a61a48f90600090a450505050565b600082815260066020526040812060018082015460ff166002811115610b0457fe5b1415610b1f57610b1760028201846115d9565b9150506106ce565b6002600182015460ff166002811115610b3457fe5b1415610b4757610b1760038201846115ec565b6040805162461bcd60e51b815260206004820152600e60248201526d125b9d985b1a59081c9bdb19525960921b604482015290519081900360640190fd5b60048054604080516020601f60026000196101006001881615020190951694909404938401819004810282018101909252828152606093909290918301828280156106ac5780601f10610681576101008083540402835291602001916106ac565b610bee610f9b565b610bf6610ff4565b61061560015b826109d4565b60006106ca610c0f61100f565b84610752856040518060600160405280602581526020016118a06025913960016000610c3961100f565b6001600160a01b03908116825260208083019390935260409182016000908120918d1681529252902054919061125a565b60006106ca610c7761100f565b84846110ff565b6000610c88610f9b565b6106ce600161088a565b80600260008281526006602052604090206001015460ff166002811115610cb557fe5b14610cf15760405162461bcd60e51b815260040180806020018281038252602c815260200180611779602c913960400191505060405180910390fd5b81610cfc8133610ae2565b610d375760405162461bcd60e51b81526004018080602001828103825260228152602001806117a56022913960400191505060405180910390fd5b6000838152600660205260409020610d529060030133611537565b6040513390819085907feb3e33034c392e69263b04ec0fa376dc12784a41b6676c7f31b936cbc0fbb5af90600090a4505050565b600081600160008281526006602052604090206001015460ff166002811115610dab57fe5b14610de75760405162461bcd60e51b815260040180806020018281038252602f81526020018061174a602f913960400191505060405180910390fd5b6000838152600660205260409020610e019060020161160b565b9392505050565b81600160008281526006602052604090206001015460ff166002811115610e2b57fe5b14610e675760405162461bcd60e51b815260040180806020018281038252602f81526020018061174a602f913960400191505060405180910390fd5b6000838152600660205260409020548390610e829033610ae2565b610ebd5760405162461bcd60e51b815260040180806020018281038252602481526020018061187c6024913960400191505060405180910390fd5b6000848152600660205260409020610ed89060020184611618565b60405133906001600160a01b0385169086907f3b855c56b409b671c7112789d022675eb639d0bcb8896f1b6197c132f799e74690600090a450505050565b6001600160a01b03918216600090815260016020908152604080832093909416825291909152205490565b610f49610f9b565b610f51610ff4565b6106156002610bfc565b6108768282611618565b60005b8151811015610f9657610f8e83838381518110610f8157fe5b6020026020010151611559565b600101610f68565b505050565b60075460ff16610ff2576040805162461bcd60e51b815260206004820152601f60248201527f5265656e7472616e637947756172643a207265656e7472616e742063616c6c00604482015290519081900360640190fd5b565b6007805460ff19169055565b6007805460ff19166001179055565b3390565b6001600160a01b0383166110585760405162461bcd60e51b81526004018080602001828103825260248152602001806118586024913960400191505060405180910390fd5b6001600160a01b03821661109d5760405162461bcd60e51b81526004018080602001828103825260228152602001806117026022913960400191505060405180910390fd5b6001600160a01b03808416600081815260016020908152604080832094871680845294825291829020859055815185815291517f8c5be1e5ebec7d5bd14f71427d1e84f3dd0314c0f7b2291e5b200ac8c7c3b9259281900390910190a3505050565b6001600160a01b0383166111445760405162461bcd60e51b81526004018080602001828103825260258152602001806118336025913960400191505060405180910390fd5b6001600160a01b0382166111895760405162461bcd60e51b81526004018080602001828103825260238152602001806116bd6023913960400191505060405180910390fd5b611194838383610f96565b6111d181604051806060016040528060268152602001611724602691396001600160a01b038616600090815260208190526040902054919061125a565b6001600160a01b03808516600090815260208190526040808220939093559084168152205461120090826112f1565b6001600160a01b038084166000818152602081815260409182902094909455805185815290519193928716927fddf252ad1be2c89b69c2b068fc378daa952ba7f163c4a11628f55a4df523b3ef92918290030190a3505050565b600081848411156112e95760405162461bcd60e51b81526004018080602001828103825283818151815260200191508051906020019080838360005b838110156112ae578181015183820152602001611296565b50505050905090810190601f1680156112db5780820380516001836020036101000a031916815260200191505b509250505060405180910390fd5b505050900390565b600082820183811015610e01576040805162461bcd60e51b815260206004820152601b60248201527f536166654d6174683a206164646974696f6e206f766572666c6f770000000000604482015290519081900360640190fd5b6001600160a01b0382166113a6576040805162461bcd60e51b815260206004820152601f60248201527f45524332303a206d696e7420746f20746865207a65726f206164647265737300604482015290519081900360640190fd5b6113b260008383610f96565b6002546113bf90826112f1565b6002556001600160a01b0382166000908152602081905260409020546113e590826112f1565b6001600160a01b0383166000818152602081815260408083209490945583518581529351929391927fddf252ad1be2c89b69c2b068fc378daa952ba7f163c4a11628f55a4df523b3ef9281900390910190a35050565b6001600160a01b0382166114805760405162461bcd60e51b81526004018080602001828103825260218152602001806117ef6021913960400191505060405180910390fd5b61148c82600083610f96565b6114c9816040518060600160405280602281526020016116e0602291396001600160a01b038516600090815260208190526040902054919061125a565b6001600160a01b0383166000908152602081905260409020556002546114ef908261167a565b6002556040805182815290516000916001600160a01b038516917fddf252ad1be2c89b69c2b068fc378daa952ba7f163c4a11628f55a4df523b3ef9181900360200190a35050565b6001600160a01b0316600090815260209190915260409020805460ff19169055565b6001600160a01b0381166115b4576040805162461bcd60e51b815260206004820152601f60248201527f43616e6e6f74206164642030783020746f20612073686172656420726f6c6500604482015290519081900360640190fd5b6001600160a01b0316600090815260209190915260409020805460ff19166001179055565b90546001600160a01b0391821691161490565b6001600160a01b03166000908152602091909152604090205460ff1690565b546001600160a01b031690565b6001600160a01b03811661165d5760405162461bcd60e51b81526004018080602001828103825260238152602001806118106023913960400191505060405180910390fd5b81546001600160a01b0319166001600160a01b0391909116179055565b6000610e0183836040518060400160405280601e81526020017f536166654d6174683a207375627472616374696f6e206f766572666c6f77000081525061125a56fe45524332303a207472616e7366657220746f20746865207a65726f206164647265737345524332303a206275726e20616d6f756e7420657863656564732062616c616e636545524332303a20617070726f766520746f20746865207a65726f206164647265737345524332303a207472616e7366657220616d6f756e7420657863656564732062616c616e63654d7573742062652063616c6c6564206f6e20616e20696e697469616c697a6564204578636c757369766520726f6c654d7573742062652063616c6c6564206f6e20616e20696e697469616c697a65642053686172656420726f6c6553656e64657220646f6573206e6f7420686f6c6420726571756972656420726f6c6545524332303a207472616e7366657220616d6f756e74206578636565647320616c6c6f77616e636545524332303a206275726e2066726f6d20746865207a65726f206164647265737343616e6e6f742073657420616e206578636c757369766520726f6c6520746f2030783045524332303a207472616e736665722066726f6d20746865207a65726f206164647265737345524332303a20617070726f76652066726f6d20746865207a65726f206164647265737343616e206f6e6c792062652063616c6c6564206279206120726f6c65206d616e6167657245524332303a2064656372656173656420616c6c6f77616e63652062656c6f77207a65726fa2646970667358221220944858e94d1078c375cc2a3479a6ed53e5cf73ad0ed1056722014d704d3645e764736f6c634300060c0033417474656d7074656420746f2075736520616e20696e76616c696420726f6c6520746f206d616e61676520616e206578636c757369766520726f6c6543616e6e6f742073657420616e206578636c757369766520726f6c6520746f20307830417474656d7074656420746f2075736520616e20696e76616c696420726f6c6520746f206d616e61676520612073686172656420726f6c65a26469706673582212205eb8a5b5d5b6d99afb1286a59fe7d22d73fab218fa873492f9b67888b4556bbc64736f6c634300060c0033",
  "immutableReferences": {},
  "source": "// SPDX-License-Identifier: MIT\n\npragma solidity 0.6.12;\n\nimport \"./utility/SyntheticToken.sol\";\nimport \"./interfaces/IExpandedIERC20.sol\";\nimport \"./utility/Lockable.sol\";\n\n\n/**\n * @title Factory for creating new mintable and burnable tokens.\n */\n\ncontract TokenFactory is Lockable {\n\n    event TokenCreated(address indexed tokenAddress);\n\n    /**\n     * @notice Create a new token and return it to the caller.\n     * @dev The caller will become the only minter and burner and the new owner capable of assigning the roles.\n     * @param tokenName used to describe the new token.\n     * @param tokenSymbol short ticker abbreviation of the name. Ideally < 5 chars.\n     * @param tokenDecimals used to define the precision used in the token's numerical representation.\n     * @return newToken an instance of the newly created token interface.\n     */\n    function createToken(\n        string calldata tokenName,\n        string calldata tokenSymbol,\n        uint8 tokenDecimals\n    ) external nonReentrant returns (IExpandedIERC20 newToken) {\n        SyntheticToken mintableToken = new SyntheticToken(tokenName, tokenSymbol, tokenDecimals);\n        mintableToken.addMinter(msg.sender);\n        mintableToken.addBurner(msg.sender);\n        mintableToken.resetOwner(msg.sender);\n        newToken = IExpandedIERC20(address(mintableToken));\n\n        emit TokenCreated(address(newToken));\n\n    }\n\n}\n",
  "sourcePath": "/Users/kantapatchankasem/Work/tamago/tamago-finance/contractV2/contracts/TokenFactory.sol",
  "compiler": {
    "name": "solc",
    "version": "0.6.12+commit.27d51765.Emscripten.clang"
  },
  "schemaVersion": "3.3.4",
  "updatedAt": "2021-11-11T08:48:33.168Z",
  "devdoc": {
    "kind": "dev",
    "methods": {
      "createToken(string,string,uint8)": {
        "details": "The caller will become the only minter and burner and the new owner capable of assigning the roles.",
        "params": {
          "tokenDecimals": "used to define the precision used in the token's numerical representation.",
          "tokenName": "used to describe the new token.",
          "tokenSymbol": "short ticker abbreviation of the name. Ideally < 5 chars."
        },
        "returns": {
          "newToken": "an instance of the newly created token interface."
        }
      }
    },
    "title": "Factory for creating new mintable and burnable tokens.",
    "version": 1
  },
  "userdoc": {
    "kind": "user",
    "methods": {
      "createToken(string,string,uint8)": {
        "notice": "Create a new token and return it to the caller."
      }
    },
    "version": 1
  }
}