{
  "contractName": "TokenManager",
  "abi": [
    {
      "inputs": [
        {
          "internalType": "string",
          "name": "_name",
          "type": "string"
        },
        {
          "internalType": "string",
          "name": "_symbol",
          "type": "string"
        },
        {
          "internalType": "address",
          "name": "_tokenFactoryAddress",
          "type": "address"
        },
        {
          "internalType": "address",
          "name": "_priceResolverAddress",
          "type": "address"
        },
        {
          "internalType": "address",
          "name": "_baseCollateralTokenAddress",
          "type": "address"
        },
        {
          "internalType": "address",
          "name": "_supportCollateralTokenAddress",
          "type": "address"
        },
        {
          "internalType": "address",
          "name": "_devAddress",
          "type": "address"
        }
      ],
      "stateMutability": "nonpayable",
      "type": "constructor"
    },
    {
      "anonymous": false,
      "inputs": [],
      "name": "CreatedSyntheticToken",
      "type": "event"
    },
    {
      "anonymous": false,
      "inputs": [
        {
          "indexed": true,
          "internalType": "address",
          "name": "minter",
          "type": "address"
        },
        {
          "indexed": false,
          "internalType": "uint256",
          "name": "baseAmount",
          "type": "uint256"
        },
        {
          "indexed": false,
          "internalType": "uint256",
          "name": "supportAmount",
          "type": "uint256"
        }
      ],
      "name": "Deposit",
      "type": "event"
    },
    {
      "anonymous": false,
      "inputs": [
        {
          "indexed": false,
          "internalType": "address",
          "name": "minter",
          "type": "address"
        }
      ],
      "name": "NewMinter",
      "type": "event"
    },
    {
      "anonymous": false,
      "inputs": [
        {
          "indexed": true,
          "internalType": "address",
          "name": "previousOwner",
          "type": "address"
        },
        {
          "indexed": true,
          "internalType": "address",
          "name": "newOwner",
          "type": "address"
        }
      ],
      "name": "OwnershipTransferred",
      "type": "event"
    },
    {
      "anonymous": false,
      "inputs": [
        {
          "indexed": false,
          "internalType": "address",
          "name": "minter",
          "type": "address"
        },
        {
          "indexed": false,
          "internalType": "uint256",
          "name": "baseAmount",
          "type": "uint256"
        },
        {
          "indexed": false,
          "internalType": "uint256",
          "name": "supportAmount",
          "type": "uint256"
        },
        {
          "indexed": false,
          "internalType": "uint256",
          "name": "syntheticAmount",
          "type": "uint256"
        }
      ],
      "name": "PositionCreated",
      "type": "event"
    },
    {
      "anonymous": false,
      "inputs": [
        {
          "indexed": false,
          "internalType": "address",
          "name": "minter",
          "type": "address"
        }
      ],
      "name": "PositionDeleted",
      "type": "event"
    },
    {
      "anonymous": false,
      "inputs": [
        {
          "indexed": true,
          "internalType": "address",
          "name": "minter",
          "type": "address"
        },
        {
          "indexed": true,
          "internalType": "address",
          "name": "liquidator",
          "type": "address"
        },
        {
          "indexed": false,
          "internalType": "uint256",
          "name": "syntheticAmount",
          "type": "uint256"
        },
        {
          "indexed": false,
          "internalType": "uint256",
          "name": "baseAmountBack",
          "type": "uint256"
        },
        {
          "indexed": false,
          "internalType": "uint256",
          "name": "supportAmountBack",
          "type": "uint256"
        }
      ],
      "name": "PositionLiquidated",
      "type": "event"
    },
    {
      "anonymous": false,
      "inputs": [
        {
          "indexed": false,
          "internalType": "address",
          "name": "contractAddress",
          "type": "address"
        }
      ],
      "name": "PriceResolverUpdated",
      "type": "event"
    },
    {
      "anonymous": false,
      "inputs": [
        {
          "indexed": false,
          "internalType": "address",
          "name": "minter",
          "type": "address"
        },
        {
          "indexed": false,
          "internalType": "uint256",
          "name": "baseAmount",
          "type": "uint256"
        },
        {
          "indexed": false,
          "internalType": "uint256",
          "name": "supportAmount",
          "type": "uint256"
        },
        {
          "indexed": false,
          "internalType": "uint256",
          "name": "syntheticAmount",
          "type": "uint256"
        }
      ],
      "name": "Redeem",
      "type": "event"
    },
    {
      "anonymous": false,
      "inputs": [
        {
          "indexed": true,
          "internalType": "address",
          "name": "minter",
          "type": "address"
        },
        {
          "indexed": false,
          "internalType": "uint256",
          "name": "baseAmount",
          "type": "uint256"
        },
        {
          "indexed": false,
          "internalType": "uint256",
          "name": "supportAmount",
          "type": "uint256"
        }
      ],
      "name": "Withdrawal",
      "type": "event"
    },
    {
      "inputs": [
        {
          "internalType": "address",
          "name": "_address",
          "type": "address"
        }
      ],
      "name": "addAddress",
      "outputs": [],
      "stateMutability": "nonpayable",
      "type": "function"
    },
    {
      "inputs": [],
      "name": "baseCollateralToken",
      "outputs": [
        {
          "internalType": "contract IToken",
          "name": "",
          "type": "address"
        }
      ],
      "stateMutability": "view",
      "type": "function"
    },
    {
      "inputs": [],
      "name": "debts",
      "outputs": [
        {
          "internalType": "uint256",
          "name": "",
          "type": "uint256"
        }
      ],
      "stateMutability": "view",
      "type": "function"
    },
    {
      "inputs": [],
      "name": "devAddress",
      "outputs": [
        {
          "internalType": "address",
          "name": "",
          "type": "address"
        }
      ],
      "stateMutability": "view",
      "type": "function"
    },
    {
      "inputs": [
        {
          "internalType": "address",
          "name": "_address",
          "type": "address"
        }
      ],
      "name": "isWhitelisted",
      "outputs": [
        {
          "internalType": "bool",
          "name": "",
          "type": "bool"
        }
      ],
      "stateMutability": "view",
      "type": "function"
    },
    {
      "inputs": [],
      "name": "liquidationIncentive",
      "outputs": [
        {
          "internalType": "uint256",
          "name": "",
          "type": "uint256"
        }
      ],
      "stateMutability": "view",
      "type": "function"
    },
    {
      "inputs": [],
      "name": "liquidationRatio",
      "outputs": [
        {
          "internalType": "uint256",
          "name": "",
          "type": "uint256"
        }
      ],
      "stateMutability": "view",
      "type": "function"
    },
    {
      "inputs": [],
      "name": "mintFee",
      "outputs": [
        {
          "internalType": "uint256",
          "name": "",
          "type": "uint256"
        }
      ],
      "stateMutability": "view",
      "type": "function"
    },
    {
      "inputs": [],
      "name": "name",
      "outputs": [
        {
          "internalType": "string",
          "name": "",
          "type": "string"
        }
      ],
      "stateMutability": "view",
      "type": "function"
    },
    {
      "inputs": [],
      "name": "owner",
      "outputs": [
        {
          "internalType": "address",
          "name": "",
          "type": "address"
        }
      ],
      "stateMutability": "view",
      "type": "function"
    },
    {
      "inputs": [
        {
          "internalType": "address",
          "name": "",
          "type": "address"
        }
      ],
      "name": "positions",
      "outputs": [
        {
          "internalType": "uint256",
          "name": "tokensOutstanding",
          "type": "uint256"
        },
        {
          "internalType": "uint256",
          "name": "rawBaseCollateral",
          "type": "uint256"
        },
        {
          "internalType": "uint256",
          "name": "rawSupportCollateral",
          "type": "uint256"
        },
        {
          "internalType": "uint256",
          "name": "timestamp",
          "type": "uint256"
        }
      ],
      "stateMutability": "view",
      "type": "function"
    },
    {
      "inputs": [],
      "name": "priceResolver",
      "outputs": [
        {
          "internalType": "contract IPriceResolver",
          "name": "",
          "type": "address"
        }
      ],
      "stateMutability": "view",
      "type": "function"
    },
    {
      "inputs": [],
      "name": "redeemFee",
      "outputs": [
        {
          "internalType": "uint256",
          "name": "",
          "type": "uint256"
        }
      ],
      "stateMutability": "view",
      "type": "function"
    },
    {
      "inputs": [
        {
          "internalType": "address",
          "name": "_address",
          "type": "address"
        }
      ],
      "name": "removeAddress",
      "outputs": [],
      "stateMutability": "nonpayable",
      "type": "function"
    },
    {
      "inputs": [],
      "name": "renounceOwnership",
      "outputs": [],
      "stateMutability": "nonpayable",
      "type": "function"
    },
    {
      "inputs": [],
      "name": "state",
      "outputs": [
        {
          "internalType": "enum TokenManager.ContractState",
          "name": "",
          "type": "uint8"
        }
      ],
      "stateMutability": "view",
      "type": "function"
    },
    {
      "inputs": [],
      "name": "supportCollateralToken",
      "outputs": [
        {
          "internalType": "contract IToken",
          "name": "",
          "type": "address"
        }
      ],
      "stateMutability": "view",
      "type": "function"
    },
    {
      "inputs": [],
      "name": "syntheticToken",
      "outputs": [
        {
          "internalType": "contract IExpandedIERC20",
          "name": "",
          "type": "address"
        }
      ],
      "stateMutability": "view",
      "type": "function"
    },
    {
      "inputs": [],
      "name": "tokenOutstanding",
      "outputs": [
        {
          "internalType": "uint256",
          "name": "",
          "type": "uint256"
        }
      ],
      "stateMutability": "view",
      "type": "function"
    },
    {
      "inputs": [],
      "name": "totalRawCollateral",
      "outputs": [
        {
          "internalType": "uint256",
          "name": "baseToken",
          "type": "uint256"
        },
        {
          "internalType": "uint256",
          "name": "supportToken",
          "type": "uint256"
        }
      ],
      "stateMutability": "view",
      "type": "function"
    },
    {
      "inputs": [
        {
          "internalType": "address",
          "name": "newOwner",
          "type": "address"
        }
      ],
      "name": "transferOwnership",
      "outputs": [],
      "stateMutability": "nonpayable",
      "type": "function"
    },
    {
      "inputs": [
        {
          "internalType": "enum TokenManager.ContractState",
          "name": "_state",
          "type": "uint8"
        }
      ],
      "name": "setContractState",
      "outputs": [],
      "stateMutability": "nonpayable",
      "type": "function"
    },
    {
      "inputs": [
        {
          "internalType": "address",
          "name": "_priceResolverAddress",
          "type": "address"
        }
      ],
      "name": "setPriceResolver",
      "outputs": [],
      "stateMutability": "nonpayable",
      "type": "function"
    },
    {
      "inputs": [
        {
          "internalType": "uint256",
          "name": "baseCollateral",
          "type": "uint256"
        },
        {
          "internalType": "uint256",
          "name": "supportCollateral",
          "type": "uint256"
        },
        {
          "internalType": "uint256",
          "name": "numTokens",
          "type": "uint256"
        }
      ],
      "name": "mint",
      "outputs": [],
      "stateMutability": "nonpayable",
      "type": "function"
    },
    {
      "inputs": [
        {
          "internalType": "uint256",
          "name": "baseCollateral",
          "type": "uint256"
        },
        {
          "internalType": "uint256",
          "name": "numTokens",
          "type": "uint256"
        }
      ],
      "name": "mintWithBaseCollateral",
      "outputs": [],
      "stateMutability": "nonpayable",
      "type": "function"
    },
    {
      "inputs": [
        {
          "internalType": "uint256",
          "name": "supportCollateral",
          "type": "uint256"
        },
        {
          "internalType": "uint256",
          "name": "numTokens",
          "type": "uint256"
        }
      ],
      "name": "mintWithSupportCollateral",
      "outputs": [],
      "stateMutability": "nonpayable",
      "type": "function"
    },
    {
      "inputs": [
        {
          "internalType": "uint256",
          "name": "baseCollateral",
          "type": "uint256"
        },
        {
          "internalType": "uint256",
          "name": "supportCollateral",
          "type": "uint256"
        }
      ],
      "name": "deposit",
      "outputs": [],
      "stateMutability": "nonpayable",
      "type": "function"
    },
    {
      "inputs": [
        {
          "internalType": "uint256",
          "name": "baseCollateral",
          "type": "uint256"
        },
        {
          "internalType": "uint256",
          "name": "supportCollateral",
          "type": "uint256"
        }
      ],
      "name": "withdraw",
      "outputs": [],
      "stateMutability": "nonpayable",
      "type": "function"
    },
    {
      "inputs": [
        {
          "internalType": "uint256",
          "name": "baseCollateral",
          "type": "uint256"
        },
        {
          "internalType": "uint256",
          "name": "supportCollateral",
          "type": "uint256"
        },
        {
          "internalType": "uint256",
          "name": "numTokens",
          "type": "uint256"
        }
      ],
      "name": "redeem",
      "outputs": [],
      "stateMutability": "nonpayable",
      "type": "function"
    },
    {
      "inputs": [],
      "name": "redeemAll",
      "outputs": [],
      "stateMutability": "nonpayable",
      "type": "function"
    },
    {
      "inputs": [
        {
          "internalType": "uint256",
          "name": "numTokens",
          "type": "uint256"
        }
      ],
      "name": "estimateTokensIn",
      "outputs": [
        {
          "internalType": "uint256",
          "name": "",
          "type": "uint256"
        },
        {
          "internalType": "uint256",
          "name": "",
          "type": "uint256"
        }
      ],
      "stateMutability": "view",
      "type": "function"
    },
    {
      "inputs": [
        {
          "internalType": "address",
          "name": "minter",
          "type": "address"
        },
        {
          "internalType": "uint256",
          "name": "baseCollateral",
          "type": "uint256"
        },
        {
          "internalType": "uint256",
          "name": "supportCollateral",
          "type": "uint256"
        }
      ],
      "name": "estimateTokensOut",
      "outputs": [
        {
          "internalType": "uint256",
          "name": "",
          "type": "uint256"
        }
      ],
      "stateMutability": "view",
      "type": "function"
    },
    {
      "inputs": [
        {
          "internalType": "uint256",
          "name": "baseCollateral",
          "type": "uint256"
        },
        {
          "internalType": "uint256",
          "name": "supportCollateral",
          "type": "uint256"
        },
        {
          "internalType": "uint256",
          "name": "numTokens",
          "type": "uint256"
        }
      ],
      "name": "getCollateralizationRatio",
      "outputs": [
        {
          "internalType": "uint256",
          "name": "",
          "type": "uint256"
        }
      ],
      "stateMutability": "view",
      "type": "function"
    },
    {
      "inputs": [],
      "name": "myCollateralizationRatio",
      "outputs": [
        {
          "internalType": "uint256",
          "name": "ratio",
          "type": "uint256"
        }
      ],
      "stateMutability": "view",
      "type": "function"
    },
    {
      "inputs": [],
      "name": "myTokensOutstanding",
      "outputs": [
        {
          "internalType": "uint256",
          "name": "tokensOutstanding",
          "type": "uint256"
        }
      ],
      "stateMutability": "view",
      "type": "function"
    },
    {
      "inputs": [],
      "name": "myTokensCollateral",
      "outputs": [
        {
          "internalType": "uint256",
          "name": "baseCollateral",
          "type": "uint256"
        },
        {
          "internalType": "uint256",
          "name": "supportCollateral",
          "type": "uint256"
        }
      ],
      "stateMutability": "view",
      "type": "function"
    },
    {
      "inputs": [],
      "name": "totalMinter",
      "outputs": [
        {
          "internalType": "uint256",
          "name": "",
          "type": "uint256"
        }
      ],
      "stateMutability": "view",
      "type": "function"
    },
    {
      "inputs": [
        {
          "internalType": "uint256",
          "name": "_index",
          "type": "uint256"
        }
      ],
      "name": "minterAddress",
      "outputs": [
        {
          "internalType": "address",
          "name": "",
          "type": "address"
        }
      ],
      "stateMutability": "view",
      "type": "function"
    },
    {
      "inputs": [
        {
          "internalType": "address",
          "name": "_minter",
          "type": "address"
        }
      ],
      "name": "isMinter",
      "outputs": [
        {
          "internalType": "bool",
          "name": "",
          "type": "bool"
        }
      ],
      "stateMutability": "view",
      "type": "function"
    },
    {
      "inputs": [],
      "name": "getSyntheticPrice",
      "outputs": [
        {
          "internalType": "uint256",
          "name": "",
          "type": "uint256"
        }
      ],
      "stateMutability": "view",
      "type": "function"
    },
    {
      "inputs": [],
      "name": "getBaseCollateralPrice",
      "outputs": [
        {
          "internalType": "uint256",
          "name": "",
          "type": "uint256"
        }
      ],
      "stateMutability": "view",
      "type": "function"
    },
    {
      "inputs": [],
      "name": "getSupportCollateralPrice",
      "outputs": [
        {
          "internalType": "uint256",
          "name": "",
          "type": "uint256"
        }
      ],
      "stateMutability": "pure",
      "type": "function"
    },
    {
      "inputs": [],
      "name": "getMintRatio",
      "outputs": [
        {
          "internalType": "uint256",
          "name": "",
          "type": "uint256"
        }
      ],
      "stateMutability": "view",
      "type": "function"
    },
    {
      "inputs": [
        {
          "internalType": "address",
          "name": "minter",
          "type": "address"
        }
      ],
      "name": "collateralizationRatioOf",
      "outputs": [
        {
          "internalType": "uint256",
          "name": "ratio",
          "type": "uint256"
        }
      ],
      "stateMutability": "view",
      "type": "function"
    },
    {
      "inputs": [
        {
          "internalType": "address",
          "name": "minter",
          "type": "address"
        }
      ],
      "name": "tokensCollateralOf",
      "outputs": [
        {
          "internalType": "uint256",
          "name": "",
          "type": "uint256"
        },
        {
          "internalType": "uint256",
          "name": "",
          "type": "uint256"
        }
      ],
      "stateMutability": "view",
      "type": "function"
    },
    {
      "inputs": [
        {
          "internalType": "address",
          "name": "minter",
          "type": "address"
        }
      ],
      "name": "checkLiquidate",
      "outputs": [
        {
          "internalType": "bool",
          "name": "",
          "type": "bool"
        },
        {
          "internalType": "uint256",
          "name": "",
          "type": "uint256"
        }
      ],
      "stateMutability": "view",
      "type": "function"
    },
    {
      "inputs": [
        {
          "internalType": "address",
          "name": "minter",
          "type": "address"
        },
        {
          "internalType": "uint256",
          "name": "maxNumTokens",
          "type": "uint256"
        }
      ],
      "name": "liquidate",
      "outputs": [],
      "stateMutability": "nonpayable",
      "type": "function"
    },
    {
      "inputs": [
        {
          "internalType": "uint256",
          "name": "amount",
          "type": "uint256"
        }
      ],
      "name": "repayDebt",
      "outputs": [],
      "stateMutability": "nonpayable",
      "type": "function"
    }
  ],
  "bytecode": "0x6080604052611c206002556000600f5560006010553480156200002157600080fd5b5060405162003fbd38038062003fbd833981810160405260e08110156200004757600080fd5b81019080805160405193929190846401000000008211156200006857600080fd5b9083019060208201858111156200007e57600080fd5b82516401000000008111828201881017156200009957600080fd5b82525081516020918201929091019080838360005b83811015620000c8578181015183820152602001620000ae565b50505050905090810190601f168015620000f65780820380516001836020036101000a031916815260200191505b50604052602001805160405193929190846401000000008211156200011a57600080fd5b9083019060208201858111156200013057600080fd5b82516401000000008111828201881017156200014b57600080fd5b82525081516020918201929091019080838360005b838110156200017a57818101518382015260200162000160565b50505050905090810190601f168015620001a85780820380516001836020036101000a031916815260200191505b5060409081526020820151908201516060830151608084015160a0909401516000805460ff191660011781559396509194509291620001e6620006b8565b60008054610100600160a81b0319166101006001600160a01b038416908102919091178255604051929350917f8be0079c531659141344cd1fd0a4f28419497f9722a3daafe3b4186f6b6457e0908290a350600062000244620006b8565b6001600160a01b03166000908152600160208190526040909120805460ff191690911790555062000274620006bc565b6200027e62000716565b6001600160a01b038516620002da576040805162461bcd60e51b815260206004820152601c60248201527f496e76616c696420546f6b656e466163746f7279206164647265737300000000604482015290519081900360640190fd5b6001600160a01b03841662000336576040805162461bcd60e51b815260206004820152601d60248201527f496e76616c69642050726963655265736f6c7665722061646472657373000000604482015290519081900360640190fd5b6001600160a01b0383166200037d5760405162461bcd60e51b815260040180806020018281038252602381526020018062003f9a6023913960400191505060405180910390fd5b6001600160a01b038216620003c45760405162461bcd60e51b815260040180806020018281038252602681526020018062003f746026913960400191505060405180910390fd5b866040516020018082805190602001908083835b60208310620003f95780518252601f199092019160209182019101620003d8565b51815160209384036101000a60001901801990921691161790526d102a37b5b2b71026b0b730b3b2b960911b9190930190815260408051808303601119018152600e909201905280516200045795506003945092019190506200080d565b506004805460ff1916815560405163e8a0aed360e01b8152601260448201819052606092820192835289516064830152895188936001600160a01b0385169363e8a0aed3938d938d9391928291602482019160840190602088019080838360005b83811015620004d2578181015183820152602001620004b8565b50505050905090810190601f168015620005005780820380516001836020036101000a031916815260200191505b50838103825285518152855160209182019187019080838360005b83811015620005355781810151838201526020016200051b565b50505050905090810190601f168015620005635780820380516001836020036101000a031916815260200191505b5095505050505050602060405180830381600087803b1580156200058657600080fd5b505af11580156200059b573d6000803e3d6000fd5b505050506040513d6020811015620005b257600080fd5b5051600980546001600160a01b03199081166001600160a01b039384161790915560048054610100600160a81b03191661010089851602179055600a80548216868416179055600b80548216878416179055601180549091169184169190911790556200061f8262000722565b6001600160a01b03821633146200063b576200063b3362000722565b6040517f74441bb9d5b2d5f280d01834dddfcc7cb575e544945ab4a0bb3ac741fc17180d90600090a1604080516001600160a01b038716815290517f9b5ac84afb7e3543cdc7747edcfac94e5742dae7cd7caf3255b0abbf72b498609181900360200190a150620006ab620007e0565b50505050505050620008a9565b3390565b60005460ff1662000714576040805162461bcd60e51b815260206004820152601f60248201527f5265656e7472616e637947756172643a207265656e7472616e742063616c6c00604482015290519081900360640190fd5b565b6000805460ff19169055565b60006200072e620006b8565b90506200073b81620007ef565b6200078d576040805162461bcd60e51b815260206004820181905260248201527f4f776e61626c653a2063616c6c6572206973206e6f7420746865206f776e6572604482015290519081900360640190fd5b6001600160a01b03821660009081526001602052604090205460ff1615620007b557620007dc565b6001600160a01b0382166000908152600160208190526040909120805460ff191690911790555b5050565b6000805460ff19166001179055565b6001600160a01b031660009081526001602052604090205460ff1690565b828054600181600116156101000203166002900490600052602060002090601f016020900481019282601f106200085057805160ff191683800117855562000880565b8280016001018555821562000880579182015b828111156200088057825182559160200191906001019062000863565b506200088e92915062000892565b5090565b5b808211156200088e576000815560010162000893565b6136bb80620008b96000396000f3fe608060405234801561001057600080fd5b50600436106102a05760003560e01c8063684a81f411610167578063bc7f9346116100ce578063d49de60211610087578063d49de60214610757578063d71e187f1461075f578063e29e647b14610788578063e2bbb15814610790578063f2fde38b146107b3578063f7b4c187146107d9576102a0565b8063bc7f9346146106b8578063bca72aeb146106ea578063bcbaf487146106f2578063bce650c81461071e578063c19d93fb14610726578063cedaf2551461074f576102a0565b8063965fa21e11610120578063965fa21e14610616578063aa271e1a1461061e578063acaefa1514610644578063b28da7351461064c578063b819220514610672578063bc45c7511461069b576102a0565b8063684a81f4146105b35780636b09de45146105d9578063715018a6146105f65780638230ecd6146105fe5780638c765e94146106065780638da5cb5b1461060e576102a0565b806338eada1c1161020b5780634a0cd879116101c45780634a0cd879146105215780634ba79dfe146105295780634c9e08c41461054f5780634e15afdc1461055757806355f575101461055f578063668573bf146105ab576102a0565b806338eada1c1461046b5780633ad10ef6146104915780633af32abf146104995780633f3d7db6146104d3578063441a3e70146104db57806349b8c0b7146104fe576102a0565b806313966db51161025d57806313966db5146104015780631775765f1461040957806320d0d0691461041157806326d17d44146104355780632f4350c21461043d57806338c86f3214610445576102a0565b8063018e1215146102a557806302acc94b146102e657806306fdde03146103115780630c735b541461038e5780630d82b6d1146103b15780630ff6d296146103cb575b600080fd5b6102cb600480360360208110156102bb57600080fd5b50356001600160a01b03166107f9565b60408051921515835260208301919091528051918290030190f35b61030f600480360360608110156102fc57600080fd5b50803590602081013590604001356108b9565b005b610319610c27565b6040805160208082528351818301528351919283929083019185019080838360005b8381101561035357818101518382015260200161033b565b50505050905090810190601f1680156103805780820380516001836020036101000a031916815260200191505b509250505060405180910390f35b61030f600480360360408110156103a457600080fd5b5080359060200135610cb5565b6103b9610fe6565b60408051918252519081900360200190f35b6103e8600480360360208110156103e157600080fd5b5035610fec565b6040805192835260208301919091528051918290030190f35b6103b96111e9565b6103b96111ef565b6104196111fb565b604080516001600160a01b039092168252519081900360200190f35b6103b961120a565b61030f611210565b61030f6004803603602081101561045b57600080fd5b50356001600160a01b0316611409565b61030f6004803603602081101561048157600080fd5b50356001600160a01b03166114d2565b610419611574565b6104bf600480360360208110156104af57600080fd5b50356001600160a01b0316611583565b604080519115158252519081900360200190f35b6103e86115a1565b61030f600480360360408110156104f157600080fd5b50803590602001356115aa565b61030f6004803603604081101561051457600080fd5b5080359060200135611779565b6103b96119d5565b61030f6004803603602081101561053f57600080fd5b50356001600160a01b0316611a01565b6103b9611a9c565b610419611b1d565b6105856004803603602081101561057557600080fd5b50356001600160a01b0316611b31565b604080519485526020850193909352838301919091526060830152519081900360800190f35b6103b9611b58565b6103e8600480360360208110156105c957600080fd5b50356001600160a01b0316611b64565b61030f600480360360208110156105ef57600080fd5b5035611b8a565b61030f611c86565b610419611d37565b6103b9611d46565b610419611d52565b6103b9611d66565b6104bf6004803603602081101561063457600080fd5b50356001600160a01b0316611d6c565b610419611d8a565b6103b96004803603602081101561066257600080fd5b50356001600160a01b0316611d99565b61030f6004803603606081101561068857600080fd5b5080359060208101359060400135611dcf565b610419600480360360208110156106b157600080fd5b50356120ed565b6103b9600480360360608110156106ce57600080fd5b506001600160a01b038135169060208101359060400135612108565b6103b96121df565b61030f6004803603604081101561070857600080fd5b506001600160a01b0381351690602001356121e5565b6103e8612529565b61072e612547565b6040518082600381111561073e57fe5b815260200191505060405180910390f35b6103b9612550565b6103b96125a0565b6103b96004803603606081101561077557600080fd5b50803590602081013590604001356125f0565b6103b9612605565b61030f600480360360408110156107a657600080fd5b5080359060200135612618565b61030f600480360360208110156107c957600080fd5b50356001600160a01b031661275c565b61030f600480360360208110156107ef57600080fd5b503560ff16612869565b6001600160a01b0381166000908152600560205260408120600181015460028201548254849392849261082b926128f4565b9050806710a741a46278000011156108aa5760018201546002830154600061085b8367016345785d8a0000612a38565b905060006108718367016345785d8a0000612a38565b905061087d8483612a71565b93506108898382612a71565b925060006108978585612acc565b6001995097506108b49650505050505050565b6000809350935050505b915091565b600160045460ff1660038111156108cc57fe5b1461090c576040805162461bcd60e51b815260206004820152601b60248201526000805160206135e2833981519152604482015290519081900360640190fd5b610914612c0b565b61091c612c62565b6000811161095f576040805162461bcd60e51b815260206004820181905260248201526000805160206135a2833981519152604482015290519081900360640190fd5b33600090815260056020526040902060018101546109a1906109819086612c6e565b60028301546109909086612c6e565b835461099c9086612c6e565b612cbe565b6109dc5760405162461bcd60e51b815260040180806020018281038252602b815260200180613631602b913960400191505060405180910390fd5b8054610a96576040805133815290517f6adffd5c93085d835dac6f3b40adf7c242ca4b3284048d20c3d8a501748dc9739181900360200190a13360009081526008602052604090205460ff16610a9657336000818152600860209081526040808320805460ff191660019081179091556006805491820190557ff652222313e28459528d920b65115c16c04f3efc82aaedc97be59f3f377c0d3f810181905583526007909152902080546001600160a01b03191690911790555b610aa1818585612ce2565b8054610aad9083612c6e565b8155600c54610abc9083612c6e565b600c5560408051338152602081018690528082018590526060810184905290517f7ff866ce7c339b915eae857187620f1004605a88fe6dc590d56444fc21936c579181900360800190a18315610b2457600b54610b24906001600160a01b0316333087612d2f565b8215610b4257600a54610b42906001600160a01b0316333086612d2f565b426003820155600954604080516340c10f1960e01b81523360048201526024810185905290516001600160a01b03909216916340c10f19916044808201926020929091908290030181600087803b158015610b9c57600080fd5b505af1158015610bb0573d6000803e3d6000fd5b505050506040513d6020811015610bc657600080fd5b5051610c19576040805162461bcd60e51b815260206004820152601f60248201527f4d696e74696e672073796e74686574696320746f6b656e73206661696c656400604482015290519081900360640190fd5b50610c22612d8f565b505050565b6003805460408051602060026001851615610100026000190190941693909304601f81018490048402820184019092528181529291830182828015610cad5780601f10610c8257610100808354040283529160200191610cad565b820191906000526020600020905b815481529060010190602001808311610c9057829003601f168201915b505050505081565b600160045460ff166003811115610cc857fe5b14610d08576040805162461bcd60e51b815260206004820152601b60248201526000805160206135e2833981519152604482015290519081900360640190fd5b610d10612c0b565b610d18612c62565b60008111610d5b576040805162461bcd60e51b815260206004820181905260248201526000805160206135a2833981519152604482015290519081900360640190fd5b33600090815260056020526040812060018101549091610d7e9161098191612c6e565b610db95760405162461bcd60e51b815260040180806020018281038252602b815260200180613631602b913960400191505060405180910390fd5b8054610e73576040805133815290517f6adffd5c93085d835dac6f3b40adf7c242ca4b3284048d20c3d8a501748dc9739181900360200190a13360009081526008602052604090205460ff16610e7357336000818152600860209081526040808320805460ff191660019081179091556006805491820190557ff652222313e28459528d920b65115c16c04f3efc82aaedc97be59f3f377c0d3f810181905583526007909152902080546001600160a01b03191690911790555b610e7f81600085612ce2565b8054610e8b9083612c6e565b8155600c54610e9a9083612c6e565b600c5560408051338152600060208201528082018590526060810184905290517f7ff866ce7c339b915eae857187620f1004605a88fe6dc590d56444fc21936c579181900360800190a18215610f0257600a54610f02906001600160a01b0316333086612d2f565b426003820155600954604080516340c10f1960e01b81523360048201526024810185905290516001600160a01b03909216916340c10f19916044808201926020929091908290030181600087803b158015610f5c57600080fd5b505af1158015610f70573d6000803e3d6000fd5b505050506040513d6020811015610f8657600080fd5b5051610fd9576040805162461bcd60e51b815260206004820152601f60248201527f4d696e74696e672073796e74686574696320746f6b656e73206661696c656400604482015290519081900360640190fd5b50610fe2612d8f565b5050565b600c5481565b6000806000600460019054906101000a90046001600160a01b03166001600160a01b031663eb91d37e6040518163ffffffff1660e01b815260040160206040518083038186803b15801561103f57600080fd5b505afa158015611053573d6000803e3d6000fd5b505050506040513d602081101561106957600080fd5b505160048054604080516331bd7c8960e11b815290519394506000936101009092046001600160a01b03169263637af912928282019260209290829003018186803b1580156110b757600080fd5b505afa1580156110cb573d6000803e3d6000fd5b505050506040513d60208110156110e157600080fd5b5051905060006110f18684612a38565b9050611105816710a741a462780000612a38565b90506000600460019054906101000a90046001600160a01b03166001600160a01b031663bd3b379b6040518163ffffffff1660e01b815260040160206040518083038186803b15801561115757600080fd5b505afa15801561116b573d6000803e3d6000fd5b505050506040513d602081101561118157600080fd5b5051905060006111918383612a38565b905060006111b16111aa670de0b6b3a764000085612a71565b8590612a38565b90506111bd8286612d9e565b915060006111ca83612dbe565b905060006111d783612e47565b91995090975050505050505050915091565b600f5481565b6710a741a46278000081565b600b546001600160a01b031681565b60065490565b600160045460ff16600381111561122357fe5b148061123f5750600260045460ff16600381111561123d57fe5b145b61127a5760405162461bcd60e51b815260040180806020018281038252602f815260200180613602602f913960400191505060405180910390fd5b611282612c0b565b61128a612c62565b3360009081526005602052604090206002546003820154014210156112e05760405162461bcd60e51b815260040180806020018281038252602b815260200180613577602b913960400191505060405180910390fd5b600181015460028201548254604080513381526020810194909452838101929092526060830152517fbd5034ffbd47e4e72a94baa2cdb74c6fad73cb3bcdc13036b72ec8306f5a76469181900360800190a16002810154600a54611351916001600160a01b03909116903390612e98565b6001810154600b54611370916001600160a01b03909116903390612e98565b805460095461138e916001600160a01b039091169033903090612d2f565b600954815460408051630852cd8d60e31b81526004810192909252516001600160a01b03909216916342966c689160248082019260009290919082900301818387803b1580156113dd57600080fd5b505af11580156113f1573d6000803e3d6000fd5b505050506113fe33612eea565b50611407612d8f565b565b611411612c0b565b611419612c62565b6000611423612fa3565b905061142e81611583565b61146d576040805162461bcd60e51b815260206004820181905260248201526000805160206135c2833981519152604482015290519081900360640190fd5b600480546001600160a01b0384166101008102610100600160a81b03199092169190911790915560408051918252517f9b5ac84afb7e3543cdc7747edcfac94e5742dae7cd7caf3255b0abbf72b498609181900360200190a1506114cf612d8f565b50565b60006114dc612fa3565b90506114e781611583565b611526576040805162461bcd60e51b815260206004820181905260248201526000805160206135c2833981519152604482015290519081900360640190fd5b6001600160a01b03821660009081526001602052604090205460ff161561154c57610fe2565b506001600160a01b03166000908152600160208190526040909120805460ff19169091179055565b6011546001600160a01b031681565b6001600160a01b031660009081526001602052604090205460ff1690565b600d54600e5482565b600160045460ff1660038111156115bd57fe5b146115fd576040805162461bcd60e51b815260206004820152601b60248201526000805160206135e2833981519152604482015290519081900360640190fd5b611605612c0b565b61160d612c62565b336000908152600560205260409020600181015483111561165f5760405162461bcd60e51b815260040180806020018281038252602a815260200180613502602a913960400191505060405180910390fd5b81816002015410156116a25760405162461bcd60e51b815260040180806020018281038252602d8152602001806134af602d913960400191505060405180910390fd5b60018101546116cb906116b59085612a71565b60028301546116c49085612a71565b8354612cbe565b6117065760405162461bcd60e51b815260040180806020018281038252602b815260200180613631602b913960400191505060405180910390fd5b611711818484612fa7565b6040805184815260208101849052815133927fdf273cb619d95419a9cd0ec88123a0538c85064229baa6363788f743fff90deb928290030190a2600b54611762906001600160a01b03163385612e98565b600a54610fd9906001600160a01b03163384612e98565b600160045460ff16600381111561178c57fe5b146117cc576040805162461bcd60e51b815260206004820152601b60248201526000805160206135e2833981519152604482015290519081900360640190fd5b6117d4612c0b565b6117dc612c62565b6000811161181f576040805162461bcd60e51b815260206004820181905260248201526000805160206135a2833981519152604482015290519081900360640190fd5b3360009081526005602052604090206001810154611851906118419085612c6e565b6002830154610990906000612c6e565b61188c5760405162461bcd60e51b815260040180806020018281038252602b815260200180613631602b913960400191505060405180910390fd5b8054611946576040805133815290517f6adffd5c93085d835dac6f3b40adf7c242ca4b3284048d20c3d8a501748dc9739181900360200190a13360009081526008602052604090205460ff1661194657336000818152600860209081526040808320805460ff191660019081179091556006805491820190557ff652222313e28459528d920b65115c16c04f3efc82aaedc97be59f3f377c0d3f810181905583526007909152902080546001600160a01b03191690911790555b61195281846000612ce2565b805461195e9083612c6e565b8155600c5461196d9083612c6e565b600c5560408051338152602081018590526000818301526060810184905290517f7ff866ce7c339b915eae857187620f1004605a88fe6dc590d56444fc21936c579181900360800190a18215610f0257600b54610f02906001600160a01b0316333086612d2f565b3360009081526005602052604081206001810154600282015482546119fb9291906128f4565b91505090565b6000611a0b612fa3565b9050611a1681611583565b611a55576040805162461bcd60e51b815260206004820181905260248201526000805160206135c2833981519152604482015290519081900360640190fd5b6001600160a01b03821660009081526001602052604090205460ff16611a7a57610fe2565b506001600160a01b03166000908152600160205260409020805460ff19169055565b6000600460019054906101000a90046001600160a01b03166001600160a01b031663bd3b379b6040518163ffffffff1660e01b815260040160206040518083038186803b158015611aec57600080fd5b505afa158015611b00573d6000803e3d6000fd5b505050506040513d6020811015611b1657600080fd5b5051905090565b60045461010090046001600160a01b031681565b60056020526000908152604090208054600182015460028301546003909301549192909184565b670de0b6b3a764000090565b6001600160a01b0316600090815260056020526040902060018101546002909101549091565b611b92612c0b565b611b9a612c62565b806012541015611bf1576040805162461bcd60e51b815260206004820152601a60248201527f416d6f756e74203e204f75747374616e64696e67206465627473000000000000604482015290519081900360640190fd5b601254611bfe9082612a71565b601255600954611c19906001600160a01b0316333084612d2f565b60095460408051630852cd8d60e31b81526004810184905290516001600160a01b03909216916342966c689160248082019260009290919082900301818387803b158015611c6657600080fd5b505af1158015611c7a573d6000803e3d6000fd5b505050506114cf612d8f565b611c8e612fa3565b6001600160a01b0316611c9f611d52565b6001600160a01b031614611ce8576040805162461bcd60e51b815260206004820181905260248201526000805160206135c2833981519152604482015290519081900360640190fd5b600080546040516101009091046001600160a01b0316907f8be0079c531659141344cd1fd0a4f28419497f9722a3daafe3b4186f6b6457e0908390a360008054610100600160a81b0319169055565b6009546001600160a01b031681565b67016345785d8a000081565b60005461010090046001600160a01b031690565b60105481565b6001600160a01b031660009081526008602052604090205460ff1690565b600a546001600160a01b031681565b6001600160a01b0381166000908152600560205260408120600181015460028201548254611dc89291906128f4565b9392505050565b600160045460ff166003811115611de257fe5b14611e22576040805162461bcd60e51b815260206004820152601b60248201526000805160206135e2833981519152604482015290519081900360640190fd5b611e2a612c0b565b611e32612c62565b60008111611e75576040805162461bcd60e51b815260206004820181905260248201526000805160206135a2833981519152604482015290519081900360640190fd5b3360009081526005602052604090206001810154841115611ec75760405162461bcd60e51b815260040180806020018281038252602a815260200180613502602a913960400191505060405180910390fd5b8281600201541015611f0a5760405162461bcd60e51b815260040180806020018281038252602d8152602001806134af602d913960400191505060405180910390fd5b8054821115611f60576040805162461bcd60e51b815260206004820152601e60248201527f496e73756666696369656e742073796e7468657469637320616d6f756e740000604482015290519081900360640190fd5b6001810154611f8e90611f739086612a71565b6002830154611f829086612a71565b835461099c9086612a71565b611fc95760405162461bcd60e51b815260040180806020018281038252602b815260200180613631602b913960400191505060405180910390fd5b611fd4818585612fa7565b8054611fe09083612a71565b8155600c54611fef9083612a71565b600c5560408051338152602081018690528082018590526060810184905290517fbd5034ffbd47e4e72a94baa2cdb74c6fad73cb3bcdc13036b72ec8306f5a76469181900360800190a1600b54612050906001600160a01b03163386612e98565b600a54612067906001600160a01b03163385612e98565b60095461207f906001600160a01b0316333085612d2f565b60095460408051630852cd8d60e31b81526004810185905290516001600160a01b03909216916342966c689160248082019260009290919082900301818387803b1580156120cc57600080fd5b505af11580156120e0573d6000803e3d6000fd5b5050505050610c22612d8f565b6000908152600760205260409020546001600160a01b031690565b6001600160a01b038316600090815260056020526040812060018101548411156121635760405162461bcd60e51b815260040180806020018281038252602a815260200180613502602a913960400191505060405180910390fd5b82816002015410156121a65760405162461bcd60e51b815260040180806020018281038252602d8152602001806134af602d913960400191505060405180910390fd5b60006121bf8260010154836002015484600001546128f4565b90506121d5816121cf8787612acc565b90612d9e565b9695505050505050565b60125481565b600160045460ff1660038111156121f857fe5b14806122145750600260045460ff16600381111561221257fe5b145b61224f5760405162461bcd60e51b815260040180806020018281038252602f815260200180613602602f913960400191505060405180910390fd5b612257612c0b565b61225f612c62565b6001600160a01b038216600090815260056020526040902060018101546002820154825461228e929190612cbe565b156122ca5760405162461bcd60e51b81526004018080602001828103825260258152602001806135526025913960400191505060405180910390fd5b6001810154600282015460006122e88367016345785d8a0000612a38565b905060006122fe8367016345785d8a0000612a38565b905061230a8483612a71565b93506123168382612a71565b925060006123248585612acc565b90508087101561237b576040805162461bcd60e51b815260206004820152601c60248201527f457863656564696e6720676976656e206d61784e756d746f6b656e7300000000604482015290519081900360640190fd5b85548110156123a157855461239d906123949083612a71565b60125490612c6e565b6012555b6002860154600a546123c0916001600160a01b03909116903390612e98565b6001860154600b546123df916001600160a01b03909116903390612e98565b6009546123f7906001600160a01b0316333084612d2f565b60095460408051630852cd8d60e31b81526004810184905290516001600160a01b03909216916342966c689160248082019260009290919082900301818387803b15801561244457600080fd5b505af1158015612458573d6000803e3d6000fd5b5050506001870154600288015460408051858152602081019390935282810191909152513392506001600160a01b038b16917f3ecbb371880c45545c63ac02e2364778ac379d2c14519773964068ef51bb454a919081900360600190a36001860154600d546124c691612a71565b600d556002860154600e546124da91612a71565b600e55600c546124ea9082612a71565b600c55505050506001600160a01b038416600090815260056020526040812081815560018101829055600281018290556003015550610fe29050612d8f565b33600090815260056020526040902060018101546002909101549091565b60045460ff1681565b6000600460019054906101000a90046001600160a01b03166001600160a01b031663637af9126040518163ffffffff1660e01b815260040160206040518083038186803b158015611aec57600080fd5b6000600460019054906101000a90046001600160a01b03166001600160a01b031663eb91d37e6040518163ffffffff1660e01b815260040160206040518083038186803b158015611aec57600080fd5b60006125fd8484846128f4565b949350505050565b3360009081526005602052604090205490565b600160045460ff16600381111561262b57fe5b1461266b576040805162461bcd60e51b815260206004820152601b60248201526000805160206135e2833981519152604482015290519081900360640190fd5b612673612c0b565b61267b612c62565b33600090815260056020526040902060018101546126ac9061269d9085612c6e565b60028301546116c49085612c6e565b6126e75760405162461bcd60e51b815260040180806020018281038252602b815260200180613631602b913960400191505060405180910390fd5b6126f2818484612ce2565b6040805184815260208101849052815133927f90890809c654f11d6e72a28fa60149770a0d11ec6c92319d6ceb2bb0a4ea1a15928290030190a2600b54612744906001600160a01b0316333086612d2f565b600a54610fd9906001600160a01b0316333085612d2f565b612764612fa3565b6001600160a01b0316612775611d52565b6001600160a01b0316146127be576040805162461bcd60e51b815260206004820181905260248201526000805160206135c2833981519152604482015290519081900360640190fd5b6001600160a01b0381166128035760405162461bcd60e51b81526004018080602001828103825260268152602001806134dc6026913960400191505060405180910390fd5b600080546040516001600160a01b038085169361010090930416917f8be0079c531659141344cd1fd0a4f28419497f9722a3daafe3b4186f6b6457e091a3600080546001600160a01b0390921661010002610100600160a81b0319909216919091179055565b612871612c0b565b612879612c62565b6000612883612fa3565b905061288e81611583565b6128cd576040805162461bcd60e51b815260206004820181905260248201526000805160206135c2833981519152604482015290519081900360640190fd5b6004805483919060ff191660018360038111156128e657fe5b0217905550506114cf612d8f565b60006128ff84612fec565b935061290a83613075565b92506000600460019054906101000a90046001600160a01b03166001600160a01b031663eb91d37e6040518163ffffffff1660e01b815260040160206040518083038186803b15801561295c57600080fd5b505afa158015612970573d6000803e3d6000fd5b505050506040513d602081101561298657600080fd5b505160048054604080516331bd7c8960e11b815290519394506000936101009092046001600160a01b03169263637af912928282019260209290829003018186803b1580156129d457600080fd5b505afa1580156129e8573d6000803e3d6000fd5b505050506040513d60208110156129fe57600080fd5b505190506000612a0e8783612a38565b90506000612a1c8288612c6e565b9050612a2c866121cf8387612d9e565b98975050505050505050565b6000670de0b6b3a7640000612a62612a5085856130c6565b6002670de0b6b3a76400005b04612c6e565b81612a6957fe5b049392505050565b600082821115612ac1576040805162461bcd60e51b8152602060048201526016602482015275556e7375627472616374696f6e206f766572666c6f7760501b604482015290519081900360640190fd5b508082035b92915050565b6000612ad783612fec565b9250612ae282613075565b91506000600460019054906101000a90046001600160a01b03166001600160a01b031663eb91d37e6040518163ffffffff1660e01b815260040160206040518083038186803b158015612b3457600080fd5b505afa158015612b48573d6000803e3d6000fd5b505050506040513d6020811015612b5e57600080fd5b505160048054604080516331bd7c8960e11b815290519394506000936101009092046001600160a01b03169263637af912928282019260209290829003018186803b158015612bac57600080fd5b505afa158015612bc0573d6000803e3d6000fd5b505050506040513d6020811015612bd657600080fd5b505190506000612be68683612a38565b90506000612bf48287612c6e565b9050612c008185612d9e565b979650505050505050565b60005460ff16611407576040805162461bcd60e51b815260206004820152601f60248201527f5265656e7472616e637947756172643a207265656e7472616e742063616c6c00604482015290519081900360640190fd5b6000805460ff19169055565b600082820183811015611dc8576040805162461bcd60e51b8152602060048201526013602482015272556e6164646974696f6e206f766572666c6f7760681b604482015290519081900360640190fd5b60006710a741a46278000081612cd58686866128f4565b9091111595945050505050565b6001830154612cf19083612c6e565b60018401556002830154612d059082612c6e565b6002840155600d54612d179083612c6e565b600d55600e54612d279082612c6e565b600e55505050565b604080516001600160a01b0380861660248301528416604482015260648082018490528251808303909101815260849091019091526020810180516001600160e01b03166323b872dd60e01b179052612d89908590613135565b50505050565b6000805460ff19166001179055565b600081612a62612db685670de0b6b3a76400006130c6565b600285612a5c565b600080600b60009054906101000a90046001600160a01b03166001600160a01b031663313ce5676040518163ffffffff1660e01b815260040160206040518083038186803b158015612e0f57600080fd5b505afa158015612e23573d6000803e3d6000fd5b505050506040513d6020811015612e3957600080fd5b50519050611dc883826131e6565b600080600a60009054906101000a90046001600160a01b03166001600160a01b031663313ce5676040518163ffffffff1660e01b815260040160206040518083038186803b158015612e0f57600080fd5b604080516001600160a01b038416602482015260448082018490528251808303909101815260649091019091526020810180516001600160e01b031663a9059cbb60e01b179052610c22908490613135565b6001600160a01b03811660009081526005602052604090206001810154600d54612f1391612a71565b600d556002810154600e54612f2791612a71565b600e558054600c54612f3891612a71565b600c556001600160a01b0382166000818152600560209081526040808320838155600181018490556002810184905560030192909255815192835290517fa035e093ebe6149182fab66a69367d4ad2b20b04608b739b27122ab7f2521a5b9281900390910190a15050565b3390565b6001830154612fb69083612a71565b60018401556002830154612fca9082612a71565b6002840155600d54612fdc9083612a71565b600d55600e54612d279082612a71565b600080600b60009054906101000a90046001600160a01b03166001600160a01b031663313ce5676040518163ffffffff1660e01b815260040160206040518083038186803b15801561303d57600080fd5b505afa158015613051573d6000803e3d6000fd5b505050506040513d602081101561306757600080fd5b50519050611dc8838261321a565b600080600a60009054906101000a90046001600160a01b03166001600160a01b031663313ce5676040518163ffffffff1660e01b815260040160206040518083038186803b15801561303d57600080fd5b6000826130d557506000612ac6565b828202828482816130e257fe5b0414611dc8576040805162461bcd60e51b815260206004820152601960248201527f556e6d756c7469706c69636174696f6e206f766572666c6f7700000000000000604482015290519081900360640190fd5b606061318a826040518060400160405280602081526020017f5361666545524332303a206c6f772d6c6576656c2063616c6c206661696c6564815250856001600160a01b03166132459092919063ffffffff16565b805190915015610c22578080602001905160208110156131a957600080fd5b5051610c225760405162461bcd60e51b815260040180806020018281038252602a81526020018061365c602a913960400191505060405180910390fd5b60008160ff16601214156131fb575081612ac6565b601282900360ff8116600a0a6132118582613254565b92505050612ac6565b60008160ff166012141561322f575081612ac6565b601282900360ff8116600a0a61321185826130c6565b60606125fd84846000856132b3565b600080821161329f576040805162461bcd60e51b8152602060048201526012602482015271556e6469766973696f6e206279207a65726f60701b604482015290519081900360640190fd5b60008284816132aa57fe5b04949350505050565b6060824710156132f45760405162461bcd60e51b815260040180806020018281038252602681526020018061352c6026913960400191505060405180910390fd5b6132fd85613404565b61334e576040805162461bcd60e51b815260206004820152601d60248201527f416464726573733a2063616c6c20746f206e6f6e2d636f6e7472616374000000604482015290519081900360640190fd5b60006060866001600160a01b031685876040518082805190602001908083835b6020831061338d5780518252601f19909201916020918201910161336e565b6001836020036101000a03801982511681845116808217855250505050505090500191505060006040518083038185875af1925050503d80600081146133ef576040519150601f19603f3d011682016040523d82523d6000602084013e6133f4565b606091505b5091509150612c0082828661340a565b3b151590565b60608315613419575081611dc8565b8251156134295782518084602001fd5b8160405162461bcd60e51b81526004018080602001828103825283818151815260200191508051906020019080838360005b8381101561347357818101518382015260200161345b565b50505050905090810190601f1680156134a05780820380516001836020036101000a031916815260200191505b509250505060405180910390fdfe496e73756666696369656e7420737570706f727420636f6c6c61746572616c20746f6b656e7320616d6f756e744f776e61626c653a206e6577206f776e657220697320746865207a65726f2061646472657373496e73756666696369656e74206261736520636f6c6c61746572616c20746f6b656e7320616d6f756e74416464726573733a20696e73756666696369656e742062616c616e636520666f722063616c6c506f736974696f6e2061626f7665207468616e206c69717569646174696f6e20726174696f43616e2072656465656d207768656e206d696e742074696d65206d6f7265207468616e203220686f7572736e756d546f6b656e73206d7573742062652067726561746572207468616e20304f776e61626c653a2063616c6c6572206973206e6f7420746865206f776e6572436f6e7472616374207374617465206973206e6f742072656164790000000000436f6e7472616374207374617465206973206e6f7420656974686572207265616479206f7220656d657267656e6379506f736974696f6e2062656c6f77207468616e20636f6c6c61746572616c697a6174696f6e20726174696f5361666545524332303a204552433230206f7065726174696f6e20646964206e6f742073756363656564a26469706673582212202b229f4539c58a8bd9b6641bd65418ea5ce2e4d75e55b3c4de11171e19c5165864736f6c634300060c0033496e76616c696420537570706f7274436f6c6c61746572616c546f6b656e2061646472657373496e76616c69642042617365436f6c6c61746572616c546f6b656e2061646472657373",
  "immutableReferences": {},
  "source": "// SPDX-License-Identifier: MIT\n\npragma solidity 0.6.12;\n\nimport \"./utility/Whitelist.sol\";\nimport \"./utility/LibMath.sol\";\nimport \"./utility/SafeERC20.sol\";\nimport \"./interfaces/IExpandedIERC20.sol\";\nimport \"./interfaces/IPriceResolver.sol\";\nimport \"./interfaces/ITokenManager.sol\";\nimport \"./interfaces/IToken.sol\";\nimport \"./TokenFactory.sol\";\n\ncontract TokenManager is Lockable, Whitelist, ITokenManager {\n    using LibMathSigned for int256;\n    using LibMathUnsigned for uint256;\n    using SafeERC20 for IToken;\n    using SafeERC20 for IExpandedIERC20;\n\n    uint256 TWO_HOURS = 2 hours;\n\n    enum ContractState {\n        INITIAL,\n        NORMAL,\n        EMERGENCY,\n        EXPIRED\n    }\n\n    struct PositionData {\n        // Total tokens have been issued\n        uint256 tokensOutstanding;\n        // Raw collateral value of base token\n        uint256 rawBaseCollateral;\n        // Raw collateral value of support token (stablecoin)\n        uint256 rawSupportCollateral;\n        // Mint timestamp\n        uint256 timestamp;\n    }\n\n    struct Minters {\n        uint256[] array;\n        mapping(uint256 => address) list;\n        mapping(address => bool) active;\n    }\n\n    struct RawCollateral {\n        uint256 baseToken;\n        uint256 supportToken;\n    }\n\n    // Name of this contract (SYNTHETIC_NAME + \"Token Manager\")\n    string public name;\n    // Contract state\n    ContractState public state;\n    // Price feeder contract.\n    IPriceResolver public priceResolver;\n    // Minter data\n    mapping(address => PositionData) public positions;\n    // Minters\n    Minters private minters;\n    // Synthetic token created by this contract.\n    IExpandedIERC20 public override syntheticToken;\n    // Support collateral token (stablecoin)\n    IToken public override supportCollateralToken;\n    // Base collateral token\n    IToken public override baseCollateralToken;\n    // Keep track of synthetic tokens that've been issued\n    uint256 public tokenOutstanding;\n    // Total collateral that locked in this contract\n    RawCollateral public totalRawCollateral;\n    // trading fee\n    uint256 public mintFee = 0; // 0%\n    uint256 public redeemFee = 0; // 0%\n    // dev address\n    address public devAddress;\n    // liquidation ratio\n    uint256 public constant liquidationRatio = 1200000000000000000; // 120%\n    // Liquidation Incentive Fee 10%\n    uint256 public constant liquidationIncentive = 100000000000000000;\n    // Debts outstanding\n    uint256 public debts;\n\n    // Helpers\n    uint256 constant MAX =\n        0xffffffffffffffffffffffffffffffffffffffffffffffffffffffffffffffff;\n    uint256 constant ONE = 1000000000000000000; // 1\n\n    event CreatedSyntheticToken();\n    event NewMinter(address minter);\n    event PositionCreated(\n        address minter,\n        uint256 baseAmount,\n        uint256 supportAmount,\n        uint256 syntheticAmount\n    );\n    event PositionDeleted(address minter);\n    event Redeem(\n        address minter,\n        uint256 baseAmount,\n        uint256 supportAmount,\n        uint256 syntheticAmount\n    );\n    event Deposit(\n        address indexed minter,\n        uint256 baseAmount,\n        uint256 supportAmount\n    );\n    event Withdrawal(\n        address indexed minter,\n        uint256 baseAmount,\n        uint256 supportAmount\n    );\n    event PositionLiquidated(\n        address indexed minter,\n        address indexed liquidator,\n        uint256 syntheticAmount,\n        uint256 baseAmountBack,\n        uint256 supportAmountBack\n    );\n    event PriceResolverUpdated(address contractAddress);\n\n    constructor(\n        string memory _name,\n        string memory _symbol,\n        address _tokenFactoryAddress,\n        address _priceResolverAddress,\n        address _baseCollateralTokenAddress,\n        address _supportCollateralTokenAddress,\n        address _devAddress // dev wallet\n    ) public nonReentrant {\n        require(\n            _tokenFactoryAddress != address(0),\n            \"Invalid TokenFactory address\"\n        );\n        require(\n            _priceResolverAddress != address(0),\n            \"Invalid PriceResolver address\"\n        );\n        require(\n            _baseCollateralTokenAddress != address(0),\n            \"Invalid BaseCollateralToken address\"\n        );\n        require(\n            _supportCollateralTokenAddress != address(0),\n            \"Invalid SupportCollateralToken address\"\n        );\n\n        name = string(abi.encodePacked(_name, \" Token Manager\"));\n        state = ContractState.INITIAL;\n\n        // Create the synthetic token\n        TokenFactory tf = TokenFactory(_tokenFactoryAddress);\n        syntheticToken = tf.createToken(_name, _symbol, 18);\n\n        priceResolver = IPriceResolver(_priceResolverAddress);\n\n        // FIXME : Allow only stablecoin addresses\n        supportCollateralToken = IToken(_supportCollateralTokenAddress);\n        baseCollateralToken = IToken(_baseCollateralTokenAddress);\n\n        devAddress = _devAddress;\n\n        // add dev into the whitelist\n        addAddress(_devAddress);\n\n        if (_devAddress != msg.sender) {\n            addAddress(msg.sender);\n        }\n\n        emit CreatedSyntheticToken();\n\n        emit PriceResolverUpdated(_priceResolverAddress);\n    }\n\n    // update the contract state\n    function setContractState(ContractState _state)\n        public\n        nonReentrant\n        onlyWhitelisted\n    {\n        state = _state;\n    }\n\n    // update the price resolver contract\n    function setPriceResolver(address _priceResolverAddress)\n        public\n        nonReentrant\n        onlyWhitelisted\n    {\n        priceResolver = IPriceResolver(_priceResolverAddress);\n        \n        emit PriceResolverUpdated(_priceResolverAddress);\n    }\n\n    // mint synthetic tokens from the given collateral tokens\n    function mint(\n        uint256 baseCollateral, // main token\n        uint256 supportCollateral, // stablecoin\n        uint256 numTokens // synthetic tokens to be minted\n    ) public isReady nonReentrant {\n        require(baseCollateral >= 0, \"baseCollateral must be greater than 0\");\n        require(\n            supportCollateral >= 0,\n            \"supportCollateral must be greater than 0\"\n        );\n        require(numTokens > 0, \"numTokens must be greater than 0\");\n\n        PositionData storage positionData = positions[msg.sender];\n\n        require(\n            _checkCollateralization(\n                positionData.rawBaseCollateral.add(baseCollateral),\n                positionData.rawSupportCollateral.add(supportCollateral),\n                positionData.tokensOutstanding.add(numTokens)\n            ),\n            \"Position below than collateralization ratio\"\n        );\n\n        if (positionData.tokensOutstanding == 0) {\n            emit NewMinter(msg.sender);\n\n            if (!minters.active[msg.sender]) {\n                minters.active[msg.sender] = true;\n                uint256 index = minters.array.length;\n                minters.array.push(index);\n                minters.list[index] = msg.sender;\n            }\n        }\n\n        // Increase the position and global collateral balance by collateral amount.\n        _incrementCollateralBalances(\n            positionData,\n            baseCollateral,\n            supportCollateral\n        );\n\n        // Add the number of tokens created to the position's outstanding tokens.\n        positionData.tokensOutstanding = positionData.tokensOutstanding.add(\n            numTokens\n        );\n\n        tokenOutstanding = tokenOutstanding.add(numTokens);\n\n        emit PositionCreated(\n            msg.sender,\n            baseCollateral,\n            supportCollateral,\n            numTokens\n        );\n\n        // Transfer tokens into the contract from caller and mint corresponding synthetic tokens to the caller's address.\n        if (baseCollateral > 0) {\n            baseCollateralToken.safeTransferFrom(\n                msg.sender,\n                address(this),\n                baseCollateral\n            );\n        }\n        \n        if (supportCollateral > 0) {\n            supportCollateralToken.safeTransferFrom(\n                msg.sender,\n                address(this),\n                supportCollateral\n            );\n        }\n\n        positionData.timestamp = block.timestamp;\n        \n        require(\n            syntheticToken.mint(msg.sender, numTokens),\n            \"Minting synthetic tokens failed\"\n        );\n    }\n\n    // mint synthetic tokens from the given baseCollateral tokens\n    function mintWithBaseCollateral(\n        uint256 baseCollateral, // main token\n        uint256 numTokens // synthetic tokens to be minted\n    ) public isReady nonReentrant {\n        require(baseCollateral >= 0, \"baseCollateral must be greater than 0\");\n        require(numTokens > 0, \"numTokens must be greater than 0\");\n\n        PositionData storage positionData = positions[msg.sender];\n\n        require(\n            _checkCollateralization(\n                positionData.rawBaseCollateral.add(baseCollateral),\n                positionData.rawSupportCollateral.add(0),\n                positionData.tokensOutstanding.add(numTokens)\n            ),\n            \"Position below than collateralization ratio\"\n        );\n\n        if (positionData.tokensOutstanding == 0) {\n            emit NewMinter(msg.sender);\n\n            if (!minters.active[msg.sender]) {\n                minters.active[msg.sender] = true;\n                uint256 index = minters.array.length;\n                minters.array.push(index);\n                minters.list[index] = msg.sender;\n            }\n        }\n\n        // Increase the position and global collateral balance by collateral amount.\n        _incrementCollateralBalances(\n            positionData,\n            baseCollateral,\n            0\n        );\n\n        // Add the number of tokens created to the position's outstanding tokens.\n        positionData.tokensOutstanding = positionData.tokensOutstanding.add(\n            numTokens\n        );\n\n        tokenOutstanding = tokenOutstanding.add(numTokens);\n\n        emit PositionCreated(\n            msg.sender,\n            baseCollateral,\n            0,\n            numTokens\n        );\n\n        // Transfer tokens into the contract from caller and mint corresponding synthetic tokens to the caller's address.\n        if (baseCollateral > 0) {\n            baseCollateralToken.safeTransferFrom(\n                msg.sender,\n                address(this),\n                baseCollateral\n            );\n        }\n\n        positionData.timestamp = block.timestamp;\n        \n        require(\n            syntheticToken.mint(msg.sender, numTokens),\n            \"Minting synthetic tokens failed\"\n        );\n    }\n\n    // mint synthetic tokens from the given support collateral tokens\n    function mintWithSupportCollateral(\n        uint256 supportCollateral, // stablecoin\n        uint256 numTokens // synthetic tokens to be minted\n    ) public isReady nonReentrant {\n        require(\n            supportCollateral >= 0,\n            \"supportCollateral must be greater than 0\"\n        );\n        require(numTokens > 0, \"numTokens must be greater than 0\");\n\n        PositionData storage positionData = positions[msg.sender];\n\n        require(\n            _checkCollateralization(\n                positionData.rawBaseCollateral.add(0),\n                positionData.rawSupportCollateral.add(supportCollateral),\n                positionData.tokensOutstanding.add(numTokens)\n            ),\n            \"Position below than collateralization ratio\"\n        );\n\n        if (positionData.tokensOutstanding == 0) {\n            emit NewMinter(msg.sender);\n\n            if (!minters.active[msg.sender]) {\n                minters.active[msg.sender] = true;\n                uint256 index = minters.array.length;\n                minters.array.push(index);\n                minters.list[index] = msg.sender;\n            }\n        }\n\n        // Increase the position and global collateral balance by collateral amount.\n        _incrementCollateralBalances(\n            positionData,\n            0,\n            supportCollateral\n        );\n\n        // Add the number of tokens created to the position's outstanding tokens.\n        positionData.tokensOutstanding = positionData.tokensOutstanding.add(\n            numTokens\n        );\n\n        tokenOutstanding = tokenOutstanding.add(numTokens);\n\n        emit PositionCreated(\n            msg.sender,\n            0,\n            supportCollateral,\n            numTokens\n        );\n\n        // Transfer tokens into the contract from caller and mint corresponding synthetic tokens to the caller's address.\n        if (supportCollateral > 0) {\n            supportCollateralToken.safeTransferFrom(\n                msg.sender,\n                address(this),\n                supportCollateral\n            );\n        }\n\n        positionData.timestamp = block.timestamp;\n        \n        require(\n            syntheticToken.mint(msg.sender, numTokens),\n            \"Minting synthetic tokens failed\"\n        );\n    }\n\n    // increase collateralization ratio by deposit more collateral\n    function deposit(\n        uint256 baseCollateral, // main token\n        uint256 supportCollateral // stablecoin\n    ) public isReady nonReentrant {\n        PositionData storage positionData = positions[msg.sender];\n\n        require(\n            _checkCollateralization(\n                positionData.rawBaseCollateral.add(baseCollateral),\n                positionData.rawSupportCollateral.add(supportCollateral),\n                positionData.tokensOutstanding\n            ),\n            \"Position below than collateralization ratio\"\n        );\n\n        // Increase the position and collateral balance by collateral amount.\n        _incrementCollateralBalances(\n            positionData,\n            baseCollateral,\n            supportCollateral\n        );\n\n        emit Deposit(msg.sender, baseCollateral, supportCollateral);\n\n        // Move collateral tokens from sender to contract.\n        baseCollateralToken.safeTransferFrom(\n            msg.sender,\n            address(this),\n            baseCollateral\n        );\n        supportCollateralToken.safeTransferFrom(\n            msg.sender,\n            address(this),\n            supportCollateral\n        );\n    }\n\n    // decrease collateralization ratio by withdraw some collateral as long as the new postion above the liquidation ratio\n    function withdraw(\n        uint256 baseCollateral, // main token\n        uint256 supportCollateral // stablecoin\n    ) public isReady nonReentrant {\n        PositionData storage positionData = positions[msg.sender];\n\n        require(\n            positionData.rawBaseCollateral >= baseCollateral,\n            \"Insufficient base collateral tokens amount\"\n        );\n        require(\n            positionData.rawSupportCollateral >= supportCollateral,\n            \"Insufficient support collateral tokens amount\"\n        );\n\n        require(\n            _checkCollateralization(\n                positionData.rawBaseCollateral.sub(baseCollateral),\n                positionData.rawSupportCollateral.sub(supportCollateral),\n                positionData.tokensOutstanding\n            ),\n            \"Position below than collateralization ratio\"\n        );\n\n        // Decrement the minter's collateral and global collateral amounts.\n        _decrementCollateralBalances(\n            positionData,\n            baseCollateral,\n            supportCollateral\n        );\n\n        emit Withdrawal(msg.sender, baseCollateral, supportCollateral);\n\n        // Transfer collateral from contract to minter\n        baseCollateralToken.safeTransfer(msg.sender, baseCollateral);\n        supportCollateralToken.safeTransfer(msg.sender, supportCollateral);\n    }\n\n    // redeem synthetic tokens back to the minter\n    function redeem(\n        uint256 baseCollateral, // main token\n        uint256 supportCollateral, // stablecoin\n        uint256 numTokens // synthetic tokens to be redeemed\n    ) public isReady nonReentrant {\n        require(numTokens > 0, \"numTokens must be greater than 0\");\n\n        PositionData storage positionData = positions[msg.sender];\n\n        require(\n            positionData.rawBaseCollateral >= baseCollateral,\n            \"Insufficient base collateral tokens amount\"\n        );\n        require(\n            positionData.rawSupportCollateral >= supportCollateral,\n            \"Insufficient support collateral tokens amount\"\n        );\n        require(\n            positionData.tokensOutstanding >= numTokens,\n            \"Insufficient synthetics amount\"\n        );\n\n        require(\n            _checkCollateralization(\n                positionData.rawBaseCollateral.sub(baseCollateral),\n                positionData.rawSupportCollateral.sub(supportCollateral),\n                positionData.tokensOutstanding.sub(numTokens)\n            ),\n            \"Position below than collateralization ratio\"\n        );\n\n        // Decrement the minter's collateral and global collateral amounts.\n        _decrementCollateralBalances(\n            positionData,\n            baseCollateral,\n            supportCollateral\n        );\n\n        positionData.tokensOutstanding = positionData.tokensOutstanding.sub(\n            numTokens\n        );\n        tokenOutstanding = tokenOutstanding.sub(numTokens);\n\n        emit Redeem(msg.sender, baseCollateral, supportCollateral, numTokens);\n\n        // Transfer collateral from contract to caller and burn callers synthetic tokens.\n        baseCollateralToken.safeTransfer(msg.sender, baseCollateral);\n        supportCollateralToken.safeTransfer(msg.sender, supportCollateral);\n\n        syntheticToken.safeTransferFrom(msg.sender, address(this), numTokens);\n        syntheticToken.burn(numTokens);\n    }\n\n    // burn all synthetic tokens and send collateral tokens back to the minter\n    function redeemAll() public isReadyOrEmergency nonReentrant {\n        PositionData storage positionData = positions[msg.sender];\n\n        require(block.timestamp >= positionData.timestamp + TWO_HOURS, \"Can redeem when mint time more than 2 hours\");\n\n        emit Redeem(\n            msg.sender,\n            positionData.rawBaseCollateral,\n            positionData.rawSupportCollateral,\n            positionData.tokensOutstanding\n        );\n\n        // Transfer collateral from contract to minter and burn synthetic tokens.\n        supportCollateralToken.safeTransfer(\n            msg.sender,\n            positionData.rawSupportCollateral\n        );\n        baseCollateralToken.safeTransfer(\n            msg.sender,\n            positionData.rawBaseCollateral\n        );\n\n        syntheticToken.safeTransferFrom(\n            msg.sender,\n            address(this),\n            positionData.tokensOutstanding\n        );\n        syntheticToken.burn(positionData.tokensOutstanding);\n\n        // delete the position\n        _deleteSponsorPosition(msg.sender);\n    }\n\n    // estimate min. base and support tokens require to mint the given synthetic tokens\n    function estimateTokensIn(uint256 numTokens)\n        public\n        view\n        returns (uint256, uint256)\n    {\n        uint256 currentRate = priceResolver.getCurrentPrice();\n        uint256 currentBaseRate = priceResolver.getCurrentPriceCollateral();\n\n        uint256 totalCollateralNeed = numTokens.wmul(currentRate);\n        // multiply by liquidation ratio\n        totalCollateralNeed = totalCollateralNeed.wmul(liquidationRatio);\n\n        // find suitable mint ratio from historical prices ( ratio = latestPrice / (average 30d + average 60d) )\n        uint256 mintRatio = priceResolver.getCurrentRatio();\n        uint256 baseCollateralNeed = totalCollateralNeed.wmul(mintRatio);\n\n        uint256 supportCollateralNeed = totalCollateralNeed.wmul(\n            ONE.sub(mintRatio)\n        );\n\n        // convert base from usd\n        baseCollateralNeed = baseCollateralNeed.wdiv(currentBaseRate);\n\n        uint256 adjustedBaseCollateralNeed = _adjustBaseAmountBack(\n            baseCollateralNeed\n        );\n        uint256 adjustedSupportCollateralNeed = _adjustSupportAmountBack(\n            supportCollateralNeed\n        );\n\n        return (adjustedBaseCollateralNeed, adjustedSupportCollateralNeed);\n    }\n\n    // estimate synthetic tokens to be redeemed from the given base and support collateral tokens\n    function estimateTokensOut(\n        address minter,\n        uint256 baseCollateral,\n        uint256 supportCollateral\n    ) public view returns (uint256) {\n        PositionData storage positionData = positions[minter];\n\n        require(\n            positionData.rawBaseCollateral >= baseCollateral,\n            \"Insufficient base collateral tokens amount\"\n        );\n        require(\n            positionData.rawSupportCollateral >= supportCollateral,\n            \"Insufficient support collateral tokens amount\"\n        );\n\n        uint256 currentRatio = _getCollateralizationRatio(\n            positionData.rawBaseCollateral,\n            positionData.rawSupportCollateral,\n            positionData.tokensOutstanding\n        );\n\n        return\n            _calculateSyntheticRedeemed(baseCollateral, supportCollateral).wdiv(\n                currentRatio\n            );\n    }\n\n    // calculate the collateralization ratio from the given amounts\n    function getCollateralizationRatio(\n        uint256 baseCollateral, // main token\n        uint256 supportCollateral, // stablecoin\n        uint256 numTokens // synthetic tokens to be minted\n    ) public view returns (uint256) {\n        return\n            _getCollateralizationRatio(\n                baseCollateral,\n                supportCollateral,\n                numTokens\n            );\n    }\n\n    // return the caller's collateralization ratio\n    function myCollateralizationRatio() public view returns (uint256 ratio) {\n        PositionData storage positionData = positions[msg.sender];\n        return\n            _getCollateralizationRatio(\n                positionData.rawBaseCollateral,\n                positionData.rawSupportCollateral,\n                positionData.tokensOutstanding\n            );\n    }\n\n    // return the caller position's outstanding synthetic tokens\n    function myTokensOutstanding()\n        public\n        view\n        returns (uint256 tokensOutstanding)\n    {\n        PositionData storage positionData = positions[msg.sender];\n        return positionData.tokensOutstanding;\n    }\n\n    // return the caller position's collateral tokens\n    function myTokensCollateral()\n        public\n        view\n        returns (uint256 baseCollateral, uint256 supportCollateral)\n    {\n        PositionData storage positionData = positions[msg.sender];\n        return (\n            positionData.rawBaseCollateral,\n            positionData.rawSupportCollateral\n        );\n    }\n\n    // total minter in the system\n    function totalMinter() public view returns (uint256) {\n        return minters.array.length;\n    }\n\n    // return minter's address from given index\n    function minterAddress(uint256 _index) public view returns (address) {\n        return minters.list[_index];\n    }\n\n    // check whether the given address is minter or not\n    function isMinter(address _minter) public view returns (bool) {\n        return minters.active[_minter];\n    }\n\n    // check the synthetic token price\n    function getSyntheticPrice() public view returns (uint256) {\n        return priceResolver.getCurrentPrice();\n    }\n\n    // check base collateral token price\n    function getBaseCollateralPrice() public view returns (uint256) {\n        return priceResolver.getCurrentPriceCollateral();\n    }\n\n    // check support collateral token price\n    function getSupportCollateralPrice() public pure returns (uint256) {\n        // FIXME: Fetch the actual value\n        return ONE;\n    }\n\n    // check current mint ratio\n    function getMintRatio() public view returns (uint256) {\n        return priceResolver.getCurrentRatio();\n    }\n\n    // return the collateralization ratio of the given address\n    function collateralizationRatioOf(address minter)\n        public\n        view\n        returns (uint256 ratio)\n    {\n        PositionData storage positionData = positions[minter];\n        return\n            _getCollateralizationRatio(\n                positionData.rawBaseCollateral,\n                positionData.rawSupportCollateral,\n                positionData.tokensOutstanding\n            );\n    }\n\n    // return deposited collaterals of the given address\n    function tokensCollateralOf(address minter)\n        public\n        view\n        returns (uint256, uint256)\n    {\n        PositionData storage positionData = positions[minter];\n        return (\n            positionData.rawBaseCollateral,\n            positionData.rawSupportCollateral\n        );\n    }\n\n    // check whether the given address can be liquidated or not\n    function checkLiquidate(address minter)\n        public\n        view\n        returns (bool, uint256)\n    {\n        PositionData storage positionData = positions[minter];\n\n        uint256 currentRatio = _getCollateralizationRatio(\n            positionData.rawBaseCollateral,\n            positionData.rawSupportCollateral,\n            positionData.tokensOutstanding\n        );\n\n        if (liquidationRatio > currentRatio) {\n            // find no. of synthetic tokens require to liquidate the position\n            uint256 remainingCollateralBase = positionData.rawBaseCollateral;\n            uint256 remainingCollateralSupport = positionData.rawSupportCollateral;\n            uint256 discountBase = remainingCollateralBase.wmul( liquidationIncentive );\n            uint256 discountSupport = remainingCollateralSupport.wmul( liquidationIncentive );\n            remainingCollateralBase = remainingCollateralBase.sub(discountBase);\n            remainingCollateralSupport = remainingCollateralSupport.sub(discountSupport);\n\n            uint256 synthsNeed = _calculateSyntheticRedeemed(remainingCollateralBase , remainingCollateralSupport);\n            return (true, synthsNeed);\n        } else {\n            return (false, 0);\n        }\n    }\n\n    // liquidate the minter's position \n    function liquidate( \n        address minter, // address of the minter to be liquidated\n        uint256 maxNumTokens // max amount of synthetic tokens that effort to burn\n    ) public isReadyOrEmergency nonReentrant {\n        // Retrieve Position data for minter\n        PositionData storage positionData = positions[minter];\n\n        require(\n            _checkCollateralization(\n                positionData.rawBaseCollateral,\n                positionData.rawSupportCollateral,\n                positionData.tokensOutstanding\n            ) == false,\n            \"Position above than liquidation ratio\"\n        );\n\n        uint256 remainingCollateralBase = positionData.rawBaseCollateral;\n        uint256 remainingCollateralSupport = positionData.rawSupportCollateral;\n        uint256 discountBase = remainingCollateralBase.wmul( liquidationIncentive );\n        uint256 discountSupport = remainingCollateralSupport.wmul( liquidationIncentive );\n        remainingCollateralBase = remainingCollateralBase.sub(discountBase);\n        remainingCollateralSupport = remainingCollateralSupport.sub(discountSupport);\n\n        uint256 totalBurnt = _calculateSyntheticRedeemed(remainingCollateralBase , remainingCollateralSupport);\n\n        require( maxNumTokens >= totalBurnt , \"Exceeding given maxNumtokens\" );\n\n        if ( positionData.tokensOutstanding > totalBurnt ) {\n            // keep tack of debts\n            debts = debts.add( positionData.tokensOutstanding.sub(totalBurnt));\n        }\n\n        // pay incentives + collateral tokens to liquidator\n        supportCollateralToken.safeTransfer(\n            msg.sender,\n            positionData.rawSupportCollateral\n        );\n        baseCollateralToken.safeTransfer(\n            msg.sender,\n            positionData.rawBaseCollateral\n        );\n\n        // transfer synthetic tokens from liquidator to burn here\n        syntheticToken.safeTransferFrom(msg.sender, address(this), totalBurnt);\n        syntheticToken.burn(totalBurnt);\n\n        emit PositionLiquidated(\n            minter,\n            msg.sender,\n            totalBurnt,\n            positionData.rawBaseCollateral,\n            positionData.rawSupportCollateral\n        );\n\n        // delete the position\n        totalRawCollateral.baseToken = totalRawCollateral.baseToken.sub(\n            positionData.rawBaseCollateral\n        );\n        totalRawCollateral.supportToken = totalRawCollateral.supportToken.sub(\n            positionData.rawSupportCollateral\n        );\n\n        tokenOutstanding = tokenOutstanding.sub( totalBurnt );\n        // Reset the sponsors position to have zero outstanding and collateral.\n        delete positions[minter];\n    }\n\n    // repay debts \n    function repayDebt(uint256 amount) public nonReentrant {\n        require( debts >= amount , \"Amount > Outstanding debts\" );\n\n        debts = debts.sub( amount );\n\n        syntheticToken.safeTransferFrom(msg.sender, address(this), amount);\n        syntheticToken.burn(amount);\n    }\n\n    // INTERNAL FUNCTIONS\n\n    function _getCollateralizationRatio(\n        uint256 baseCollateral,\n        uint256 supportCollateral,\n        uint256 numTokens\n    ) internal view returns (uint256) {\n        baseCollateral = _adjustBaseAmount(baseCollateral);\n        supportCollateral = _adjustSupportAmount(supportCollateral);\n\n        uint256 currentRate = priceResolver.getCurrentPrice();\n        uint256 currentBaseRate = priceResolver.getCurrentPriceCollateral();\n\n        uint256 baseAmount = baseCollateral.wmul(currentBaseRate);\n        uint256 totalCollateral = baseAmount.add(supportCollateral);\n\n        return (totalCollateral.wdiv(currentRate)).wdiv(numTokens);\n    }\n\n    function _checkCollateralization(\n        uint256 baseCollateral,\n        uint256 supportCollateral,\n        uint256 numTokens\n    ) internal view returns (bool) {\n        uint256 minRatio = liquidationRatio;\n\n        uint256 thisChange = _getCollateralizationRatio(\n            baseCollateral,\n            supportCollateral,\n            numTokens\n        );\n\n        return !(minRatio > (thisChange));\n    }\n\n    function _calculateSyntheticRedeemed(\n        uint256 baseCollateral,\n        uint256 supportCollateral\n    ) internal view returns (uint256) {\n        baseCollateral = _adjustBaseAmount(baseCollateral);\n        supportCollateral = _adjustSupportAmount(supportCollateral);\n\n        uint256 currentRate = priceResolver.getCurrentPrice();\n        uint256 currentBaseRate = priceResolver.getCurrentPriceCollateral();\n\n        uint256 baseAmount = baseCollateral.wmul(currentBaseRate);\n        uint256 totalCollateral = baseAmount.add(supportCollateral);\n\n        return (totalCollateral.wdiv(currentRate));\n    }\n\n    function _adjustBaseAmount(uint256 amount) internal view returns (uint256) {\n        uint8 decimals = baseCollateralToken.decimals();\n        return _adjustAmount(amount, decimals);\n    }\n\n    function _adjustSupportAmount(uint256 amount)\n        internal\n        view\n        returns (uint256)\n    {\n        uint8 decimals = supportCollateralToken.decimals();\n        return _adjustAmount(amount, decimals);\n    }\n\n    function _adjustAmount(uint256 amount, uint8 decimals)\n        internal\n        pure\n        returns (uint256)\n    {\n        if (decimals == 18) {\n            return amount;\n        } else {\n            uint8 remainingDecimals = 18 - decimals;\n            uint256 multiplier = 10**uint256(remainingDecimals);\n            return amount.mul(multiplier);\n        }\n    }\n\n    function _adjustBaseAmountBack(uint256 amount)\n        internal\n        view\n        returns (uint256)\n    {\n        uint8 decimals = baseCollateralToken.decimals();\n        return _adjustAmountBack(amount, decimals);\n    }\n\n    function _adjustSupportAmountBack(uint256 amount)\n        internal\n        view\n        returns (uint256)\n    {\n        uint8 decimals = supportCollateralToken.decimals();\n        return _adjustAmountBack(amount, decimals);\n    }\n\n    function _adjustAmountBack(uint256 amount, uint8 decimals)\n        internal\n        pure\n        returns (uint256)\n    {\n        if (decimals == 18) {\n            return amount;\n        } else {\n            uint8 remainingDecimals = 18 - decimals;\n            uint256 multiplier = 10**uint256(remainingDecimals);\n            return amount.div(multiplier);\n        }\n    }\n\n    function _incrementCollateralBalances(\n        PositionData storage positionData,\n        uint256 baseCollateral,\n        uint256 supportCollateral\n    ) internal {\n        positionData.rawBaseCollateral = positionData.rawBaseCollateral.add(\n            baseCollateral\n        );\n        positionData.rawSupportCollateral = positionData\n            .rawSupportCollateral\n            .add(supportCollateral);\n\n        totalRawCollateral.baseToken = totalRawCollateral.baseToken.add(\n            baseCollateral\n        );\n        totalRawCollateral.supportToken = totalRawCollateral.supportToken.add(\n            supportCollateral\n        );\n    }\n\n    function _decrementCollateralBalances(\n        PositionData storage positionData,\n        uint256 baseCollateral,\n        uint256 supportCollateral\n    ) internal {\n        positionData.rawBaseCollateral = positionData.rawBaseCollateral.sub(\n            baseCollateral\n        );\n        positionData.rawSupportCollateral = positionData\n            .rawSupportCollateral\n            .sub(supportCollateral);\n\n        totalRawCollateral.baseToken = totalRawCollateral.baseToken.sub(\n            baseCollateral\n        );\n        totalRawCollateral.supportToken = totalRawCollateral.supportToken.sub(\n            supportCollateral\n        );\n    }\n\n    function _deleteSponsorPosition(address _minter) internal {\n        PositionData storage positionToLiquidate = positions[_minter];\n\n        totalRawCollateral.baseToken = totalRawCollateral.baseToken.sub(\n            positionToLiquidate.rawBaseCollateral\n        );\n        totalRawCollateral.supportToken = totalRawCollateral.supportToken.sub(\n            positionToLiquidate.rawSupportCollateral\n        );\n\n        tokenOutstanding = tokenOutstanding.sub(\n            positionToLiquidate.tokensOutstanding\n        );\n\n        // Reset the sponsors position to have zero outstanding and collateral.\n        delete positions[_minter];\n\n        emit PositionDeleted(_minter);\n    }\n\n    // Check if the state is ready\n    modifier isReady() {\n        require((state) == ContractState.NORMAL, \"Contract state is not ready\");\n        _;\n    }\n\n    // Only Ready and Emergency\n    modifier isReadyOrEmergency() {\n        require(\n            (state) == ContractState.NORMAL ||\n                (state) == ContractState.EMERGENCY,\n            \"Contract state is not either ready or emergency\"\n        );\n        _;\n    }\n}\n",
  "sourcePath": "/Users/kantapatchankasem/Work/tamago/tamago-finance/contractV2/contracts/TokenManager.sol",
  "compiler": {
    "name": "solc",
    "version": "0.6.12+commit.27d51765.Emscripten.clang"
  },
  "schemaVersion": "3.3.4",
  "updatedAt": "2021-11-11T08:48:33.185Z",
  "devdoc": {
    "kind": "dev",
    "methods": {
      "addAddress(address)": {
        "details": "adds a given address to the whitelist ",
        "params": {
          "_address": "address to add"
        }
      },
      "isWhitelisted(address)": {
        "details": "returns true if a given address is whitelisted, false if not ",
        "params": {
          "_address": "address to check "
        },
        "returns": {
          "_0": "true if the address is whitelisted, false if not"
        }
      },
      "owner()": {
        "details": "Returns the address of the current owner."
      },
      "removeAddress(address)": {
        "details": "removes a given address from the whitelist ",
        "params": {
          "_address": "address to remove"
        }
      },
      "renounceOwnership()": {
        "details": "Leaves the contract without owner. It will not be possible to call `onlyOwner` functions anymore. Can only be called by the current owner. NOTE: Renouncing ownership will leave the contract without an owner, thereby removing any functionality that is only available to the owner."
      },
      "transferOwnership(address)": {
        "details": "Transfers ownership of the contract to a new account (`newOwner`). Can only be called by the current owner."
      }
    },
    "version": 1
  },
  "userdoc": {
    "kind": "user",
    "methods": {},
    "version": 1
  }
}