{
  "contractName": "Whitelist",
  "abi": [
    {
      "inputs": [],
      "stateMutability": "nonpayable",
      "type": "constructor"
    },
    {
      "anonymous": false,
      "inputs": [
        {
          "indexed": true,
          "internalType": "address",
          "name": "previousOwner",
          "type": "address"
        },
        {
          "indexed": true,
          "internalType": "address",
          "name": "newOwner",
          "type": "address"
        }
      ],
      "name": "OwnershipTransferred",
      "type": "event"
    },
    {
      "inputs": [],
      "name": "owner",
      "outputs": [
        {
          "internalType": "address",
          "name": "",
          "type": "address"
        }
      ],
      "stateMutability": "view",
      "type": "function"
    },
    {
      "inputs": [],
      "name": "renounceOwnership",
      "outputs": [],
      "stateMutability": "nonpayable",
      "type": "function"
    },
    {
      "inputs": [
        {
          "internalType": "address",
          "name": "newOwner",
          "type": "address"
        }
      ],
      "name": "transferOwnership",
      "outputs": [],
      "stateMutability": "nonpayable",
      "type": "function"
    },
    {
      "inputs": [
        {
          "internalType": "address",
          "name": "_address",
          "type": "address"
        }
      ],
      "name": "isWhitelisted",
      "outputs": [
        {
          "internalType": "bool",
          "name": "",
          "type": "bool"
        }
      ],
      "stateMutability": "view",
      "type": "function"
    },
    {
      "inputs": [
        {
          "internalType": "address",
          "name": "_address",
          "type": "address"
        }
      ],
      "name": "addAddress",
      "outputs": [],
      "stateMutability": "nonpayable",
      "type": "function"
    },
    {
      "inputs": [
        {
          "internalType": "address",
          "name": "_address",
          "type": "address"
        }
      ],
      "name": "removeAddress",
      "outputs": [],
      "stateMutability": "nonpayable",
      "type": "function"
    }
  ],
  "bytecode": "0x608060405234801561001057600080fd5b50600061001b61009a565b600080546001600160a01b0319166001600160a01b0383169081178255604051929350917f8be0079c531659141344cd1fd0a4f28419497f9722a3daafe3b4186f6b6457e0908290a350600061006f61009a565b6001600160a01b03166000908152600160208190526040909120805460ff191690911790555061009e565b3390565b6104dc806100ad6000396000f3fe608060405234801561001057600080fd5b50600436106100625760003560e01c806338eada1c146100675780633af32abf1461008f5780634ba79dfe146100c9578063715018a6146100ef5780638da5cb5b146100f7578063f2fde38b1461011b575b600080fd5b61008d6004803603602081101561007d57600080fd5b50356001600160a01b0316610141565b005b6100b5600480360360208110156100a557600080fd5b50356001600160a01b03166101e6565b604080519115158252519081900360200190f35b61008d600480360360208110156100df57600080fd5b50356001600160a01b0316610204565b61008d61029f565b6100ff61034b565b604080516001600160a01b039092168252519081900360200190f35b61008d6004803603602081101561013157600080fd5b50356001600160a01b031661035a565b600061014b61045c565b9050610156816101e6565b610195576040805162461bcd60e51b81526020600482018190526024820152600080516020610487833981519152604482015290519081900360640190fd5b6001600160a01b03821660009081526001602052604090205460ff16156101bb576101e2565b6001600160a01b0382166000908152600160208190526040909120805460ff191690911790555b5050565b6001600160a01b031660009081526001602052604090205460ff1690565b600061020e61045c565b9050610219816101e6565b610258576040805162461bcd60e51b81526020600482018190526024820152600080516020610487833981519152604482015290519081900360640190fd5b6001600160a01b03821660009081526001602052604090205460ff1661027d576101e2565b506001600160a01b03166000908152600160205260409020805460ff19169055565b6102a761045c565b6001600160a01b03166102b861034b565b6001600160a01b031614610301576040805162461bcd60e51b81526020600482018190526024820152600080516020610487833981519152604482015290519081900360640190fd5b600080546040516001600160a01b03909116907f8be0079c531659141344cd1fd0a4f28419497f9722a3daafe3b4186f6b6457e0908390a3600080546001600160a01b0319169055565b6000546001600160a01b031690565b61036261045c565b6001600160a01b031661037361034b565b6001600160a01b0316146103bc576040805162461bcd60e51b81526020600482018190526024820152600080516020610487833981519152604482015290519081900360640190fd5b6001600160a01b0381166104015760405162461bcd60e51b81526004018080602001828103825260268152602001806104616026913960400191505060405180910390fd5b600080546040516001600160a01b03808516939216917f8be0079c531659141344cd1fd0a4f28419497f9722a3daafe3b4186f6b6457e091a3600080546001600160a01b0319166001600160a01b0392909216919091179055565b339056fe4f776e61626c653a206e6577206f776e657220697320746865207a65726f20616464726573734f776e61626c653a2063616c6c6572206973206e6f7420746865206f776e6572a2646970667358221220e2027cddb1f6fc5423c1a671dd86315407a28561c4eb6f904435ee72ea559a8e64736f6c634300060c0033",
  "immutableReferences": {},
  "source": "// SPDX-License-Identifier: MIT\n\npragma solidity ^0.6.0;\n\nimport \"@openzeppelin/contracts/access/Ownable.sol\";\nimport \"@openzeppelin/contracts/utils/Address.sol\";\nimport \"@openzeppelin/contracts/utils/Context.sol\";\n\n\n/**\n  * @dev The contract manages a list of whitelisted addresses\n*/\ncontract Whitelist is Ownable {\n    using Address for address;\n\n    mapping (address => bool) private whitelist;\n\n    constructor() public {\n        address msgSender = _msgSender();\n        whitelist[msgSender] = true;\n    }\n\n\n    /**\n      * @dev returns true if a given address is whitelisted, false if not\n      * \n      * @param _address address to check\n      * \n      * @return true if the address is whitelisted, false if not\n    */\n    function isWhitelisted(address _address) public view returns (bool) {\n        return whitelist[_address];\n    }\n\n    modifier onlyWhitelisted() {\n        address sender = _msgSender();\n        require(isWhitelisted(sender), \"Ownable: caller is not the owner\");\n        _;\n    }\n\n    /**\n      * @dev adds a given address to the whitelist\n      * \n      * @param _address address to add\n    */\n    function addAddress(address _address)\n        public\n        onlyWhitelisted\n    {\n        if (whitelist[_address]) // checks if the address is already whitelisted\n            return;\n\n        whitelist[_address] = true;\n    }\n\n    /**\n      * @dev removes a given address from the whitelist\n      * \n      * @param _address address to remove\n    */\n    function removeAddress(address _address) public onlyWhitelisted {\n        if (!whitelist[_address]) // checks if the address is actually whitelisted\n            return;\n\n        whitelist[_address] = false;\n    }\n\n\n\n}",
  "sourcePath": "/Users/kantapatchankasem/Work/tamago/tamago-finance/contractV2/contracts/utility/Whitelist.sol",
  "compiler": {
    "name": "solc",
    "version": "0.6.12+commit.27d51765.Emscripten.clang"
  },
  "schemaVersion": "3.3.4",
  "updatedAt": "2021-11-11T08:48:33.407Z",
  "devdoc": {
    "details": "The contract manages a list of whitelisted addresses",
    "kind": "dev",
    "methods": {
      "addAddress(address)": {
        "details": "adds a given address to the whitelist ",
        "params": {
          "_address": "address to add"
        }
      },
      "isWhitelisted(address)": {
        "details": "returns true if a given address is whitelisted, false if not ",
        "params": {
          "_address": "address to check "
        },
        "returns": {
          "_0": "true if the address is whitelisted, false if not"
        }
      },
      "owner()": {
        "details": "Returns the address of the current owner."
      },
      "removeAddress(address)": {
        "details": "removes a given address from the whitelist ",
        "params": {
          "_address": "address to remove"
        }
      },
      "renounceOwnership()": {
        "details": "Leaves the contract without owner. It will not be possible to call `onlyOwner` functions anymore. Can only be called by the current owner. NOTE: Renouncing ownership will leave the contract without an owner, thereby removing any functionality that is only available to the owner."
      },
      "transferOwnership(address)": {
        "details": "Transfers ownership of the contract to a new account (`newOwner`). Can only be called by the current owner."
      }
    },
    "version": 1
  },
  "userdoc": {
    "kind": "user",
    "methods": {},
    "version": 1
  }
}