{
  "address": "0x6fdB032668F1F856fbC2e9F5Df348938aFBFBE17",
  "abi": [
    {
      "anonymous": false,
      "inputs": [
        {
          "indexed": false,
          "internalType": "address",
          "name": "to",
          "type": "address"
        },
        {
          "indexed": false,
          "internalType": "uint256",
          "name": "eventId",
          "type": "uint256"
        },
        {
          "indexed": false,
          "internalType": "address",
          "name": "assetAddress",
          "type": "address"
        },
        {
          "indexed": false,
          "internalType": "uint256",
          "name": "tokenId",
          "type": "uint256"
        },
        {
          "indexed": false,
          "internalType": "bool",
          "name": "is1155",
          "type": "bool"
        }
      ],
      "name": "Claimed",
      "type": "event"
    },
    {
      "anonymous": false,
      "inputs": [
        {
          "indexed": false,
          "internalType": "address",
          "name": "from",
          "type": "address"
        },
        {
          "indexed": false,
          "internalType": "address",
          "name": "assetAddress",
          "type": "address"
        },
        {
          "indexed": false,
          "internalType": "uint256",
          "name": "tokenId",
          "type": "uint256"
        },
        {
          "indexed": false,
          "internalType": "uint256",
          "name": "amount",
          "type": "uint256"
        },
        {
          "indexed": false,
          "internalType": "bool",
          "name": "is1155",
          "type": "bool"
        }
      ],
      "name": "Deposited",
      "type": "event"
    },
    {
      "anonymous": false,
      "inputs": [
        {
          "indexed": true,
          "internalType": "uint256",
          "name": "eventId",
          "type": "uint256"
        },
        {
          "indexed": false,
          "internalType": "string",
          "name": "name",
          "type": "string"
        },
        {
          "indexed": false,
          "internalType": "uint256[]",
          "name": "poaps",
          "type": "uint256[]"
        }
      ],
      "name": "EventCreated",
      "type": "event"
    },
    {
      "anonymous": false,
      "inputs": [
        {
          "indexed": true,
          "internalType": "address",
          "name": "finalizer",
          "type": "address"
        },
        {
          "indexed": false,
          "internalType": "bytes32",
          "name": "requestId",
          "type": "bytes32"
        },
        {
          "indexed": false,
          "internalType": "uint256",
          "name": "time",
          "type": "uint256"
        }
      ],
      "name": "FinalizeEvent",
      "type": "event"
    },
    {
      "anonymous": false,
      "inputs": [
        {
          "indexed": true,
          "internalType": "address",
          "name": "previousOwner",
          "type": "address"
        },
        {
          "indexed": true,
          "internalType": "address",
          "name": "newOwner",
          "type": "address"
        }
      ],
      "name": "OwnershipTransferred",
      "type": "event"
    },
    {
      "anonymous": false,
      "inputs": [
        {
          "indexed": true,
          "internalType": "uint256",
          "name": "poapId",
          "type": "uint256"
        },
        {
          "indexed": false,
          "internalType": "address",
          "name": "assetAddress",
          "type": "address"
        },
        {
          "indexed": false,
          "internalType": "uint256",
          "name": "tokenId",
          "type": "uint256"
        },
        {
          "indexed": false,
          "internalType": "bool",
          "name": "is1155",
          "type": "bool"
        }
      ],
      "name": "PoapCreated",
      "type": "event"
    },
    {
      "anonymous": false,
      "inputs": [
        {
          "indexed": true,
          "internalType": "uint256",
          "name": "projectId",
          "type": "uint256"
        },
        {
          "indexed": false,
          "internalType": "string",
          "name": "name",
          "type": "string"
        }
      ],
      "name": "ProjectCreated",
      "type": "event"
    },
    {
      "inputs": [],
      "name": "FEE",
      "outputs": [
        {
          "internalType": "uint256",
          "name": "",
          "type": "uint256"
        }
      ],
      "stateMutability": "view",
      "type": "function"
    },
    {
      "inputs": [],
      "name": "KEY_HASH",
      "outputs": [
        {
          "internalType": "bytes32",
          "name": "",
          "type": "bytes32"
        }
      ],
      "stateMutability": "view",
      "type": "function"
    },
    {
      "inputs": [],
      "name": "LINK_TOKEN",
      "outputs": [
        {
          "internalType": "address",
          "name": "",
          "type": "address"
        }
      ],
      "stateMutability": "view",
      "type": "function"
    },
    {
      "inputs": [],
      "name": "VRF_COORDINATOR",
      "outputs": [
        {
          "internalType": "address",
          "name": "",
          "type": "address"
        }
      ],
      "stateMutability": "view",
      "type": "function"
    },
    {
      "inputs": [
        {
          "internalType": "address",
          "name": "_address",
          "type": "address"
        }
      ],
      "name": "addAddress",
      "outputs": [],
      "stateMutability": "nonpayable",
      "type": "function"
    },
    {
      "inputs": [
        {
          "internalType": "uint256",
          "name": "_eventId",
          "type": "uint256"
        },
        {
          "internalType": "bytes32",
          "name": "_merkleRoot",
          "type": "bytes32"
        }
      ],
      "name": "attachClaim",
      "outputs": [],
      "stateMutability": "nonpayable",
      "type": "function"
    },
    {
      "inputs": [
        {
          "internalType": "uint256",
          "name": "_projectId",
          "type": "uint256"
        },
        {
          "internalType": "bytes32",
          "name": "_merkleRoot",
          "type": "bytes32"
        }
      ],
      "name": "attachWhitelist",
      "outputs": [],
      "stateMutability": "nonpayable",
      "type": "function"
    },
    {
      "inputs": [
        {
          "internalType": "uint256[]",
          "name": "_projectIds",
          "type": "uint256[]"
        },
        {
          "internalType": "bytes32[]",
          "name": "_merkleRoots",
          "type": "bytes32[]"
        }
      ],
      "name": "attachWhitelistBatch",
      "outputs": [],
      "stateMutability": "nonpayable",
      "type": "function"
    },
    {
      "inputs": [
        {
          "internalType": "uint256",
          "name": "_eventId",
          "type": "uint256"
        },
        {
          "internalType": "uint256",
          "name": "_poapId",
          "type": "uint256"
        },
        {
          "internalType": "bytes32[]",
          "name": "_proof",
          "type": "bytes32[]"
        }
      ],
      "name": "checkClaim",
      "outputs": [
        {
          "internalType": "bool",
          "name": "output",
          "type": "bool"
        }
      ],
      "stateMutability": "view",
      "type": "function"
    },
    {
      "inputs": [
        {
          "internalType": "uint256",
          "name": "_eventId",
          "type": "uint256"
        },
        {
          "internalType": "uint256",
          "name": "_poapId",
          "type": "uint256"
        },
        {
          "internalType": "bytes32[]",
          "name": "_proof",
          "type": "bytes32[]"
        }
      ],
      "name": "claim",
      "outputs": [],
      "stateMutability": "nonpayable",
      "type": "function"
    },
    {
      "inputs": [
        {
          "internalType": "uint256",
          "name": "_eventId",
          "type": "uint256"
        },
        {
          "internalType": "string",
          "name": "_name",
          "type": "string"
        },
        {
          "internalType": "uint256[]",
          "name": "_poaps",
          "type": "uint256[]"
        }
      ],
      "name": "createEvent",
      "outputs": [],
      "stateMutability": "nonpayable",
      "type": "function"
    },
    {
      "inputs": [
        {
          "internalType": "uint256",
          "name": "_poapId",
          "type": "uint256"
        },
        {
          "internalType": "address",
          "name": "_assetAddress",
          "type": "address"
        },
        {
          "internalType": "uint256",
          "name": "_tokenId",
          "type": "uint256"
        },
        {
          "internalType": "bool",
          "name": "_is1155",
          "type": "bool"
        }
      ],
      "name": "createPoap",
      "outputs": [],
      "stateMutability": "nonpayable",
      "type": "function"
    },
    {
      "inputs": [
        {
          "internalType": "uint256",
          "name": "_projectId",
          "type": "uint256"
        },
        {
          "internalType": "string",
          "name": "_name",
          "type": "string"
        }
      ],
      "name": "createProject",
      "outputs": [],
      "stateMutability": "nonpayable",
      "type": "function"
    },
    {
      "inputs": [
        {
          "internalType": "address",
          "name": "_assetAddress",
          "type": "address"
        },
        {
          "internalType": "uint256",
          "name": "_tokenId",
          "type": "uint256"
        },
        {
          "internalType": "uint256",
          "name": "_amount",
          "type": "uint256"
        }
      ],
      "name": "depositERC1155",
      "outputs": [],
      "stateMutability": "nonpayable",
      "type": "function"
    },
    {
      "inputs": [
        {
          "internalType": "address",
          "name": "_assetAddress",
          "type": "address"
        },
        {
          "internalType": "uint256",
          "name": "_tokenId",
          "type": "uint256"
        }
      ],
      "name": "depositERC721",
      "outputs": [],
      "stateMutability": "nonpayable",
      "type": "function"
    },
    {
      "inputs": [
        {
          "internalType": "uint256",
          "name": "_projectId",
          "type": "uint256"
        },
        {
          "internalType": "address",
          "name": "_address",
          "type": "address"
        },
        {
          "internalType": "bytes32[]",
          "name": "_proof",
          "type": "bytes32[]"
        }
      ],
      "name": "eligible",
      "outputs": [
        {
          "internalType": "bool",
          "name": "output",
          "type": "bool"
        }
      ],
      "stateMutability": "view",
      "type": "function"
    },
    {
      "inputs": [
        {
          "internalType": "address",
          "name": "_to",
          "type": "address"
        },
        {
          "internalType": "address",
          "name": "_tokenAddress",
          "type": "address"
        },
        {
          "internalType": "uint256",
          "name": "_tokenId",
          "type": "uint256"
        },
        {
          "internalType": "uint256",
          "name": "_amount",
          "type": "uint256"
        }
      ],
      "name": "emergencyWithdrawERC1155",
      "outputs": [],
      "stateMutability": "nonpayable",
      "type": "function"
    },
    {
      "inputs": [
        {
          "internalType": "address",
          "name": "_tokenAddress",
          "type": "address"
        },
        {
          "internalType": "uint256",
          "name": "_amount",
          "type": "uint256"
        }
      ],
      "name": "emergencyWithdrawERC20",
      "outputs": [],
      "stateMutability": "nonpayable",
      "type": "function"
    },
    {
      "inputs": [
        {
          "internalType": "address",
          "name": "_to",
          "type": "address"
        },
        {
          "internalType": "address",
          "name": "_tokenAddress",
          "type": "address"
        },
        {
          "internalType": "uint256",
          "name": "_tokenId",
          "type": "uint256"
        }
      ],
      "name": "emergencyWithdrawERC721",
      "outputs": [],
      "stateMutability": "nonpayable",
      "type": "function"
    },
    {
      "inputs": [
        {
          "internalType": "uint256",
          "name": "",
          "type": "uint256"
        }
      ],
      "name": "events",
      "outputs": [
        {
          "internalType": "string",
          "name": "name",
          "type": "string"
        },
        {
          "internalType": "bytes32",
          "name": "merkleRoot",
          "type": "bytes32"
        },
        {
          "internalType": "uint256",
          "name": "claimCount",
          "type": "uint256"
        },
        {
          "internalType": "uint256",
          "name": "seed",
          "type": "uint256"
        },
        {
          "internalType": "bool",
          "name": "ended",
          "type": "bool"
        },
        {
          "internalType": "bool",
          "name": "active",
          "type": "bool"
        }
      ],
      "stateMutability": "view",
      "type": "function"
    },
    {
      "inputs": [
        {
          "internalType": "uint256",
          "name": "_eventId",
          "type": "uint256"
        }
      ],
      "name": "finalizeEvent",
      "outputs": [],
      "stateMutability": "nonpayable",
      "type": "function"
    },
    {
      "inputs": [],
      "name": "initialize",
      "outputs": [],
      "stateMutability": "nonpayable",
      "type": "function"
    },
    {
      "inputs": [
        {
          "internalType": "address",
          "name": "_address",
          "type": "address"
        }
      ],
      "name": "isWhitelisted",
      "outputs": [
        {
          "internalType": "bool",
          "name": "",
          "type": "bool"
        }
      ],
      "stateMutability": "view",
      "type": "function"
    },
    {
      "inputs": [
        {
          "internalType": "address",
          "name": "",
          "type": "address"
        },
        {
          "internalType": "address",
          "name": "",
          "type": "address"
        },
        {
          "internalType": "uint256[]",
          "name": "",
          "type": "uint256[]"
        },
        {
          "internalType": "uint256[]",
          "name": "",
          "type": "uint256[]"
        },
        {
          "internalType": "bytes",
          "name": "",
          "type": "bytes"
        }
      ],
      "name": "onERC1155BatchReceived",
      "outputs": [
        {
          "internalType": "bytes4",
          "name": "",
          "type": "bytes4"
        }
      ],
      "stateMutability": "nonpayable",
      "type": "function"
    },
    {
      "inputs": [
        {
          "internalType": "address",
          "name": "",
          "type": "address"
        },
        {
          "internalType": "address",
          "name": "",
          "type": "address"
        },
        {
          "internalType": "uint256",
          "name": "",
          "type": "uint256"
        },
        {
          "internalType": "uint256",
          "name": "",
          "type": "uint256"
        },
        {
          "internalType": "bytes",
          "name": "",
          "type": "bytes"
        }
      ],
      "name": "onERC1155Received",
      "outputs": [
        {
          "internalType": "bytes4",
          "name": "",
          "type": "bytes4"
        }
      ],
      "stateMutability": "nonpayable",
      "type": "function"
    },
    {
      "inputs": [
        {
          "internalType": "address",
          "name": "",
          "type": "address"
        },
        {
          "internalType": "address",
          "name": "",
          "type": "address"
        },
        {
          "internalType": "uint256",
          "name": "",
          "type": "uint256"
        },
        {
          "internalType": "bytes",
          "name": "",
          "type": "bytes"
        }
      ],
      "name": "onERC721Received",
      "outputs": [
        {
          "internalType": "bytes4",
          "name": "",
          "type": "bytes4"
        }
      ],
      "stateMutability": "nonpayable",
      "type": "function"
    },
    {
      "inputs": [],
      "name": "owner",
      "outputs": [
        {
          "internalType": "address",
          "name": "",
          "type": "address"
        }
      ],
      "stateMutability": "view",
      "type": "function"
    },
    {
      "inputs": [
        {
          "internalType": "uint256",
          "name": "",
          "type": "uint256"
        }
      ],
      "name": "poaps",
      "outputs": [
        {
          "internalType": "address",
          "name": "assetAddress",
          "type": "address"
        },
        {
          "internalType": "uint256",
          "name": "tokenId",
          "type": "uint256"
        },
        {
          "internalType": "bool",
          "name": "is1155",
          "type": "bool"
        }
      ],
      "stateMutability": "view",
      "type": "function"
    },
    {
      "inputs": [
        {
          "internalType": "uint256",
          "name": "",
          "type": "uint256"
        }
      ],
      "name": "projects",
      "outputs": [
        {
          "internalType": "string",
          "name": "name",
          "type": "string"
        },
        {
          "internalType": "bytes32",
          "name": "merkleRoot",
          "type": "bytes32"
        },
        {
          "internalType": "uint256",
          "name": "timestamp",
          "type": "uint256"
        },
        {
          "internalType": "bool",
          "name": "active",
          "type": "bool"
        }
      ],
      "stateMutability": "view",
      "type": "function"
    },
    {
      "inputs": [
        {
          "internalType": "bytes32",
          "name": "requestId",
          "type": "bytes32"
        },
        {
          "internalType": "uint256",
          "name": "randomness",
          "type": "uint256"
        }
      ],
      "name": "rawFulfillRandomness",
      "outputs": [],
      "stateMutability": "nonpayable",
      "type": "function"
    },
    {
      "inputs": [
        {
          "internalType": "address",
          "name": "_address",
          "type": "address"
        }
      ],
      "name": "removeAddress",
      "outputs": [],
      "stateMutability": "nonpayable",
      "type": "function"
    },
    {
      "inputs": [],
      "name": "renounceOwnership",
      "outputs": [],
      "stateMutability": "nonpayable",
      "type": "function"
    },
    {
      "inputs": [
        {
          "internalType": "bytes4",
          "name": "interfaceId",
          "type": "bytes4"
        }
      ],
      "name": "supportsInterface",
      "outputs": [
        {
          "internalType": "bool",
          "name": "",
          "type": "bool"
        }
      ],
      "stateMutability": "view",
      "type": "function"
    },
    {
      "inputs": [
        {
          "internalType": "address",
          "name": "newOwner",
          "type": "address"
        }
      ],
      "name": "transferOwnership",
      "outputs": [],
      "stateMutability": "nonpayable",
      "type": "function"
    },
    {
      "inputs": [
        {
          "internalType": "uint256",
          "name": "_eventId",
          "type": "uint256"
        },
        {
          "internalType": "uint256[]",
          "name": "_poaps",
          "type": "uint256[]"
        }
      ],
      "name": "updatePoaps",
      "outputs": [],
      "stateMutability": "nonpayable",
      "type": "function"
    }
  ],
  "transactionHash": "0x916ad71fb2380a7e82cbd726597d8641f851f0c2667d645e667f9914606efcfa",
  "args": [],
  "solcInputHash": "a07a4c69d6208a19999ae8bffe4431da",
  "bytecode": "0x608060405234801561001057600080fd5b50613bc7806100206000396000f3fe608060405234801561001057600080fd5b50600436106102115760003560e01c80638129fc1c11610125578063bf1a8003116100ad578063d29a4bf61161007c578063d29a4bf614610e8b578063df29b98214610eb7578063eedac3a614610ee3578063f23a6e6114610eeb578063f2fde38b14610fb457610211565b8063bf1a800314610cff578063c57981b514610daa578063cb15d43f14610db2578063cc2fe72d14610e6857610211565b80639bb36076116100f45780639bb36076146108fc5780639e3c1b6114610a29578063ae0b51df14610a5b578063b72b85a114610b08578063bc197c8114610b3e57610211565b80638129fc1c146108ac5780638da5cb5b146108b457806394985ddd146108bc5780639b71e673146108df57610211565b806338eada1c116101a857806361e4058f1161017757806361e4058f1461066f5780636946c2ef146106b65780636ce637b4146106d957806370ee997b14610781578063715018a6146108a457610211565b806338eada1c146105e35780633af32abf146106095780634ba79dfe1461062f57806351dc86a51461065557610211565b80630f72faec116101e45780630f72faec1461036f578063107046bd1461041c578063150b7a02146104c8578063180dc8e7146105a957610211565b806301ffc9a71461021657806305f6a924146102515780630adc089d146102755780630b791430146102b3575b600080fd5b61023d6004803603602081101561022c57600080fd5b50356001600160e01b031916610fda565b604080519115158252519081900360200190f35b610259610ff9565b604080516001600160a01b039092168252519081900360200190f35b6102b16004803603608081101561028b57600080fd5b506001600160a01b03813581169160208101359091169060408101359060600135611011565b005b6102d0600480360360208110156102c957600080fd5b5035611153565b604051808060200187815260200186815260200185815260200184151581526020018315158152602001828103825288818151815260200191508051906020019080838360005b8381101561032f578181015183820152602001610317565b50505050905090810190601f16801561035c5780820380516001836020036101000a031916815260200191505b5097505050505050505060405180910390f35b61023d6004803603606081101561038557600080fd5b813591602081013591810190606081016040820135600160201b8111156103ab57600080fd5b8201836020820111156103bd57600080fd5b803590602001918460208302840111600160201b831117156103de57600080fd5b91908080602002602001604051908101604052809392919081815260200183836020028082843760009201919091525092955061121a945050505050565b6104396004803603602081101561043257600080fd5b503561122f565b60405180806020018581526020018481526020018315158152602001828103825286818151815260200191508051906020019080838360005b8381101561048a578181015183820152602001610472565b50505050905090810190601f1680156104b75780820380516001836020036101000a031916815260200191505b509550505050505060405180910390f35b61058c600480360360808110156104de57600080fd5b6001600160a01b03823581169260208101359091169160408201359190810190608081016060820135600160201b81111561051857600080fd5b82018360208201111561052a57600080fd5b803590602001918460018302840111600160201b8311171561054b57600080fd5b91908080601f0160208091040260200160405190810160405280939291908181526020018383808284376000920191909152509295506112e8945050505050565b604080516001600160e01b03199092168252519081900360200190f35b6102b1600480360360808110156105bf57600080fd5b508035906001600160a01b03602082013516906040810135906060013515156112f8565b6102b1600480360360208110156105f957600080fd5b50356001600160a01b0316611491565b61023d6004803603602081101561061f57600080fd5b50356001600160a01b0316611533565b6102b16004803603602081101561064557600080fd5b50356001600160a01b0316611551565b61065d6115ec565b60408051918252519081900360200190f35b61068c6004803603602081101561068557600080fd5b5035611610565b604080516001600160a01b0390941684526020840192909252151582820152519081900360600190f35b6102b1600480360360408110156106cc57600080fd5b508035906020013561163f565b6102b1600480360360408110156106ef57600080fd5b81359190810190604081016020820135600160201b81111561071057600080fd5b82018360208201111561072257600080fd5b803590602001918460208302840111600160201b8311171561074357600080fd5b919080806020026020016040519081016040528093929190818152602001838360200280828437600092019190915250929550611766945050505050565b6102b16004803603604081101561079757600080fd5b810190602081018135600160201b8111156107b157600080fd5b8201836020820111156107c357600080fd5b803590602001918460208302840111600160201b831117156107e457600080fd5b9190808060200260200160405190810160405280939291908181526020018383602002808284376000920191909152509295949360208101935035915050600160201b81111561083357600080fd5b82018360208201111561084557600080fd5b803590602001918460208302840111600160201b8311171561086657600080fd5b91908080602002602001604051908101604052809392919081815260200183836020028082843760009201919091525092955061189e945050505050565b6102b1611a03565b6102b1611aaf565b610259611bbb565b6102b1600480360360408110156108d257600080fd5b5080359060200135611bca565b6102b1600480360360208110156108f557600080fd5b5035611c34565b6102b16004803603606081101561091257600080fd5b81359190810190604081016020820135600160201b81111561093357600080fd5b82018360208201111561094557600080fd5b803590602001918460018302840111600160201b8311171561096657600080fd5b91908080601f0160208091040260200160405190810160405280939291908181526020018383808284376000920191909152509295949360208101935035915050600160201b8111156109b857600080fd5b8201836020820111156109ca57600080fd5b803590602001918460208302840111600160201b831117156109eb57600080fd5b919080806020026020016040519081016040528093929190818152602001838360200280828437600092019190915250929550611e6f945050505050565b6102b160048036036060811015610a3f57600080fd5b506001600160a01b0381351690602081013590604001356120b2565b6102b160048036036060811015610a7157600080fd5b813591602081013591810190606081016040820135600160201b811115610a9757600080fd5b820183602082011115610aa957600080fd5b803590602001918460208302840111600160201b83111715610aca57600080fd5b9190808060200260200160405190810160405280939291908181526020018383602002808284376000920191909152509295506121ee945050505050565b6102b160048036036060811015610b1e57600080fd5b506001600160a01b038135811691602081013590911690604001356125bd565b61058c600480360360a0811015610b5457600080fd5b6001600160a01b038235811692602081013590911691810190606081016040820135600160201b811115610b8757600080fd5b820183602082011115610b9957600080fd5b803590602001918460208302840111600160201b83111715610bba57600080fd5b9190808060200260200160405190810160405280939291908181526020018383602002808284376000920191909152509295949360208101935035915050600160201b811115610c0957600080fd5b820183602082011115610c1b57600080fd5b803590602001918460208302840111600160201b83111715610c3c57600080fd5b9190808060200260200160405190810160405280939291908181526020018383602002808284376000920191909152509295949360208101935035915050600160201b811115610c8b57600080fd5b820183602082011115610c9d57600080fd5b803590602001918460018302840111600160201b83111715610cbe57600080fd5b91908080601f0160208091040260200160405190810160405280939291908181526020018383808284376000920191909152509295506126d7945050505050565b6102b160048036036040811015610d1557600080fd5b81359190810190604081016020820135600160201b811115610d3657600080fd5b820183602082011115610d4857600080fd5b803590602001918460018302840111600160201b83111715610d6957600080fd5b91908080601f0160208091040260200160405190810160405280939291908181526020018383808284376000920191909152509295506126e8945050505050565b61065d6128ba565b61023d60048036036060811015610dc857600080fd5b8135916001600160a01b0360208201351691810190606081016040820135600160201b811115610df757600080fd5b820183602082011115610e0957600080fd5b803590602001918460208302840111600160201b83111715610e2a57600080fd5b9190808060200260200160405190810160405280939291908181526020018383602002808284376000920191909152509295506128c6945050505050565b6102b160048036036040811015610e7e57600080fd5b50803590602001356128d3565b6102b160048036036040811015610ea157600080fd5b506001600160a01b0381351690602001356129f6565b6102b160048036036040811015610ecd57600080fd5b506001600160a01b038135169060200135612b0d565b610259612c31565b61058c600480360360a0811015610f0157600080fd5b6001600160a01b03823581169260208101359091169160408201359160608101359181019060a081016080820135600160201b811115610f4057600080fd5b820183602082011115610f5257600080fd5b803590602001918460018302840111600160201b83111715610f7357600080fd5b91908080601f016020809104026020016040519081016040528093929190818152602001838380828437600092019190915250929550612c49945050505050565b6102b160048036036020811015610fca57600080fd5b50356001600160a01b0316612c5a565b6001600160e01b03191660009081526098602052604090205460ff1690565b73271682deb8c4e0901d1a1550ad2e64d568e6990981565b60026066541415611057576040805162461bcd60e51b815260206004820152601f6024820152600080516020613aab833981519152604482015290519081900360640190fd5b60026066556000611066612d5d565b905061107181611533565b6110b0576040805162461bcd60e51b81526020600482018190526024820152600080516020613b40833981519152604482015290519081900360640190fd5b60408051637921219560e11b8152306004808301919091526001600160a01b038881166024840152604483018790526064830186905260a0608484015260a4830191909152630307830360e41b60c483015291519186169163f242432a9160e48082019260009290919082900301818387803b15801561112f57600080fd5b505af1158015611143573d6000803e3d6000fd5b5050600160665550505050505050565b6101666020908152600091825260409182902080548351601f600260001961010060018616150201909316929092049182018490048402810184019094528084529092918391908301828280156111eb5780601f106111c0576101008083540402835291602001916111eb565b820191906000526020600020905b8154815290600101906020018083116111ce57829003601f168201915b505050506002830154600484015460058501546006909501549394919390925060ff8082169161010090041686565b6000611227848484612d61565b949350505050565b6101676020908152600091825260409182902080548351601f600260001961010060018616150201909316929092049182018490048402810184019094528084529092918391908301828280156112c75780601f1061129c576101008083540402835291602001916112c7565b820191906000526020600020905b8154815290600101906020018083116112aa57829003601f168201915b50505050600183015460028401546003909401549293909290915060ff1684565b630a85bd0160e11b949350505050565b6002606654141561133e576040805162461bcd60e51b815260206004820152601f6024820152600080516020613aab833981519152604482015290519081900360640190fd5b6002606655600061134d612d5d565b905061135881611533565b611397576040805162461bcd60e51b81526020600482018190526024820152600080516020613b40833981519152604482015290519081900360640190fd5b600085815261016560205260409020546001600160a01b0316156113f9576040805162461bcd60e51b815260206004820152601460248201527311da5d995b881251081a5cc81bd8d8dd5c1a595960621b604482015290519081900360640190fd5b6000858152610165602090815260409182902080546001600160a01b0388166001600160a01b031990911681178255600182018790556002909101805486151560ff199091168117909155835191825291810186905280830191909152905186917fd5a1e278f584cc151f1f46874b828382dadb6deb986a44792b7a1ce84d770bcd919081900360600190a250506001606655505050565b600061149b612d5d565b90506114a681611533565b6114e5576040805162461bcd60e51b81526020600482018190526024820152600080516020613b40833981519152604482015290519081900360640190fd5b6001600160a01b03821660009081526065602052604090205460ff161561150b5761152f565b6001600160a01b0382166000908152606560205260409020805460ff191660011790555b5050565b6001600160a01b031660009081526065602052604090205460ff1690565b600061155b612d5d565b905061156681611533565b6115a5576040805162461bcd60e51b81526020600482018190526024820152600080516020613b40833981519152604482015290519081900360640190fd5b6001600160a01b03821660009081526065602052604090205460ff166115ca5761152f565b506001600160a01b03166000908152606560205260409020805460ff19169055565b7fff8dedfbfa60af186cf3c830acbc32c05aae823045ae5ea7da1e45fbfaba4f9281565b610165602052600090815260409020805460018201546002909201546001600160a01b03909116919060ff1683565b60026066541415611685576040805162461bcd60e51b815260206004820152601f6024820152600080516020613aab833981519152604482015290519081900360640190fd5b60026066556000611694612d5d565b905061169f81611533565b6116de576040805162461bcd60e51b81526020600482018190526024820152600080516020613b40833981519152604482015290519081900360640190fd5b6000838152610167602052604090206003015460ff161515600114611740576040805162461bcd60e51b815260206004820152601360248201527211da5d995b881251081a5cc81a5b9d985b1a59606a1b604482015290519081900360640190fd5b506000918252610167602052604090912060018082019290925542600290910155606655565b600260665414156117ac576040805162461bcd60e51b815260206004820152601f6024820152600080516020613aab833981519152604482015290519081900360640190fd5b600260665560006117bb612d5d565b90506117c681611533565b611805576040805162461bcd60e51b81526020600482018190526024820152600080516020613b40833981519152604482015290519081900360640190fd5b6000838152610166602052604090206006015460ff61010090910416151560011461186d576040805162461bcd60e51b815260206004820152601360248201527211da5d995b881251081a5cc81a5b9d985b1a59606a1b604482015290519081900360640190fd5b6000838152610166602090815260409091208351611893926001909201918501906139dd565b505060016066555050565b600260665414156118e4576040805162461bcd60e51b815260206004820152601f6024820152600080516020613aab833981519152604482015290519081900360640190fd5b600260665560006118f3612d5d565b90506118fe81611533565b61193d576040805162461bcd60e51b81526020600482018190526024820152600080516020613b40833981519152604482015290519081900360640190fd5b815183511461197d5760405162461bcd60e51b8152600401808060200182810382526021815260200180613af16021913960400191505060405180910390fd5b60005b83518110156118935782818151811061199557fe5b602002602001015161016760008684815181106119ae57fe5b60200260200101518152602001908152602001600020600101819055504261016760008684815181106119dd57fe5b602090810291909101810151825281019190915260400160002060020155600101611980565b611a0b612d5d565b6001600160a01b0316611a1c611bbb565b6001600160a01b031614611a65576040805162461bcd60e51b81526020600482018190526024820152600080516020613b40833981519152604482015290519081900360640190fd5b6033546040516000916001600160a01b0316907f8be0079c531659141344cd1fd0a4f28419497f9722a3daafe3b4186f6b6457e0908390a3603380546001600160a01b0319169055565b600054610100900460ff1680611ac85750611ac8612dcc565b80611ad6575060005460ff16155b611b115760405162461bcd60e51b815260040180806020018281038252602e815260200180613b12602e913960400191505060405180910390fd5b600054610100900460ff16158015611b3c576000805460ff1961ff0019909116610100171660011790555b611b44612ddd565b611b4c612e72565b611b54612f07565b611b5c612fa4565b611b64613039565b611b74630a85bd0160e11b61310f565b611ba673271682deb8c4e0901d1a1550ad2e64d568e6990973514910771af9ca656af840dff83e8264ecf986ca613193565b8015611bb8576000805461ff00191690555b50565b6033546001600160a01b031690565b610161546001600160a01b03163314611c2a576040805162461bcd60e51b815260206004820152601f60248201527f4f6e6c7920565246436f6f7264696e61746f722063616e2066756c66696c6c00604482015290519081900360640190fd5b61152f8282613269565b60026066541415611c7a576040805162461bcd60e51b815260206004820152601f6024820152600080516020613aab833981519152604482015290519081900360640190fd5b60026066556000818152610166602052604090206006015460ff610100909104161515600114611ce7576040805162461bcd60e51b815260206004820152601360248201527211da5d995b881251081a5cc81a5b9d985b1a59606a1b604482015290519081900360640190fd5b604080516370a0823160e01b815230600482015290516703782dace9d900009173514910771af9ca656af840dff83e8264ecf986ca916370a0823191602480820192602092909190829003018186803b158015611d4357600080fd5b505afa158015611d57573d6000803e3d6000fd5b505050506040513d6020811015611d6d57600080fd5b50511015611dc2576040805162461bcd60e51b815260206004820181905260248201527f496e73756666696369656e74204c494e4b20746f2070726f6365656420565246604482015290519081900360640190fd5b6000611df67fff8dedfbfa60af186cf3c830acbc32c05aae823045ae5ea7da1e45fbfaba4f926703782dace9d90000613295565b60008181526101636020908152604080832080546001600160a01b0319163390811790915561016483529281902086905580518481524292810192909252805193945091927faeba677757adb30ff8b2f03114a5f7aedfa18c58954d4f67a8a5a1f65d848470929181900390910190a250506001606655565b60026066541415611eb5576040805162461bcd60e51b815260206004820152601f6024820152600080516020613aab833981519152604482015290519081900360640190fd5b60026066556000611ec4612d5d565b9050611ecf81611533565b611f0e576040805162461bcd60e51b81526020600482018190526024820152600080516020613b40833981519152604482015290519081900360640190fd5b60008481526101666020526040902060060154610100900460ff1615611f72576040805162461bcd60e51b815260206004820152601460248201527311da5d995b881251081a5cc81bd8d8dd5c1a595960621b604482015290519081900360640190fd5b60008481526101666020908152604090912060068101805461ff0019166101001790558451611fa392860190613a28565b506000848152610166602090815260409091208351611fca926001909201918501906139dd565b50837f8133537ae7f66126e2c2f00bd8d8d66977b41620113eea31ac6fd6c571158d448484604051808060200180602001838103835285818151815260200191508051906020019080838360005b83811015612030578181015183820152602001612018565b50505050905090810190601f16801561205d5780820380516001836020036101000a031916815260200191505b508381038252845181528451602091820191808701910280838360005b8381101561209257818101518382015260200161207a565b5050505090500194505050505060405180910390a2505060016066555050565b600260665414156120f8576040805162461bcd60e51b815260206004820152601f6024820152600080516020613aab833981519152604482015290519081900360640190fd5b600260665560408051637921219560e11b815233600480830191909152306024830152604482018590526064820184905260a0608483015260a4820152630307830360e41b60c482015290516001600160a01b0385169163f242432a9160e480830192600092919082900301818387803b15801561217557600080fd5b505af1158015612189573d6000803e3d6000fd5b5050604080513381526001600160a01b0387166020820152808201869052606081018590526001608082015290517f4650251833fea404cc00aad3da10dade0b14fb7a08758404b4ff967b4b34281693509081900360a0019150a15050600160665550565b60026066541415612234576040805162461bcd60e51b815260206004820152601f6024820152600080516020613aab833981519152604482015290519081900360640190fd5b60026066556000838152610166602052604090206006015460ff6101009091041615156001146122ab576040805162461bcd60e51b815260206004820152601960248201527f476976656e204576656e7420494420697320696e76616c696400000000000000604482015290519081900360640190fd5b6000838152610166602052604090206006015460ff1615612308576040805162461bcd60e51b8152602060048201526012602482015271151a1948195d995b9d081a5cc8195b99195960721b604482015290519081900360640190fd5b60008381526101666020908152604080832033845260030190915290205460ff161561237b576040805162461bcd60e51b815260206004820152601d60248201527f5468652063616c6c657220697320616c726561647920636c61696d6564000000604482015290519081900360640190fd5b612386838383612d61565b15156001146123c65760405162461bcd60e51b8152600401808060200182810382526032815260200180613b606032913960400191505060405180910390fd5b6000828152610165602052604090206002015460ff161561248a576000828152610165602052604080822080546001918201548351637921219560e11b8152306004808301919091523360248301526044820192909252606481019390935260a0608484015260a4830152630307830360e41b60c483015291516001600160a01b039092169263f242432a9260e48084019382900301818387803b15801561246d57600080fd5b505af1158015612481573d6000803e3d6000fd5b5050505061250b565b6000828152610165602052604080822080546001909101548251632142170760e11b8152306004820152336024820152604481019190915291516001600160a01b03909116926342842e0e926064808201939182900301818387803b1580156124f257600080fd5b505af1158015612506573d6000803e3d6000fd5b505050505b60008381526101666020908152604080832033808552600382018452828520805460ff19166001908117909155600490920180548301905586855261016584529382902080549181015460029091015483519586529385018890526001600160a01b039190911684830152606084015260ff9190911615156080830152517f4c9100214741dbc7f953cb38b477362273dc50162972f625b4af38ccf8d4a1259181900360a00190a15050600160665550565b60026066541415612603576040805162461bcd60e51b815260206004820152601f6024820152600080516020613aab833981519152604482015290519081900360640190fd5b60026066556000612612612d5d565b905061261d81611533565b61265c576040805162461bcd60e51b81526020600482018190526024820152600080516020613b40833981519152604482015290519081900360640190fd5b60408051632142170760e11b81523060048201526001600160a01b038681166024830152604482018590529151918516916342842e0e9160648082019260009290919082900301818387803b1580156126b457600080fd5b505af11580156126c8573d6000803e3d6000fd5b50506001606655505050505050565b63bc197c8160e01b95945050505050565b6002606654141561272e576040805162461bcd60e51b815260206004820152601f6024820152600080516020613aab833981519152604482015290519081900360640190fd5b6002606655600061273d612d5d565b905061274881611533565b612787576040805162461bcd60e51b81526020600482018190526024820152600080516020613b40833981519152604482015290519081900360640190fd5b6000838152610167602052604090206003015460ff16156127e6576040805162461bcd60e51b815260206004820152601460248201527311da5d995b881251081a5cc81bd8d8dd5c1a595960621b604482015290519081900360640190fd5b60008381526101676020908152604090912060038101805460ff19166001179055835161281592850190613a28565b50827fed06d1e70f1faa0e1750def1b3a1d942390a8f47d03679c9025a1c38dc34fe7b836040518080602001828103825283818151815260200191508051906020019080838360005b8381101561287657818101518382015260200161285e565b50505050905090810190601f1680156128a35780820380516001836020036101000a031916815260200191505b509250505060405180910390a25050600160665550565b6703782dace9d9000081565b60006112278484846133ee565b60026066541415612919576040805162461bcd60e51b815260206004820152601f6024820152600080516020613aab833981519152604482015290519081900360640190fd5b60026066556000612928612d5d565b905061293381611533565b612972576040805162461bcd60e51b81526020600482018190526024820152600080516020613b40833981519152604482015290519081900360640190fd5b6000838152610166602052604090206006015460ff6101009091041615156001146129da576040805162461bcd60e51b815260206004820152601360248201527211da5d995b881251081a5cc81a5b9d985b1a59606a1b604482015290519081900360640190fd5b5060009182526101666020526040909120600201556001606655565b60026066541415612a3c576040805162461bcd60e51b815260206004820152601f6024820152600080516020613aab833981519152604482015290519081900360640190fd5b600260665560408051632142170760e11b81523360048201523060248201526044810183905290516001600160a01b038416916342842e0e91606480830192600092919082900301818387803b158015612a9557600080fd5b505af1158015612aa9573d6000803e3d6000fd5b5050604080513381526001600160a01b0386166020820152808201859052600160608201526000608082015290517f4650251833fea404cc00aad3da10dade0b14fb7a08758404b4ff967b4b34281693509081900360a0019150a150506001606655565b60026066541415612b53576040805162461bcd60e51b815260206004820152601f6024820152600080516020613aab833981519152604482015290519081900360640190fd5b60026066556000612b62612d5d565b9050612b6d81611533565b612bac576040805162461bcd60e51b81526020600482018190526024820152600080516020613b40833981519152604482015290519081900360640190fd5b6040805163a9059cbb60e01b81523360048201526024810184905290516001600160a01b0385169163a9059cbb9160448083019260209291908290030181600087803b158015612bfb57600080fd5b505af1158015612c0f573d6000803e3d6000fd5b505050506040513d6020811015612c2557600080fd5b50506001606655505050565b73514910771af9ca656af840dff83e8264ecf986ca81565b63f23a6e6160e01b95945050505050565b612c62612d5d565b6001600160a01b0316612c73611bbb565b6001600160a01b031614612cbc576040805162461bcd60e51b81526020600482018190526024820152600080516020613b40833981519152604482015290519081900360640190fd5b6001600160a01b038116612d015760405162461bcd60e51b8152600401808060200182810382526026815260200180613acb6026913960400191505060405180910390fd5b6033546040516001600160a01b038084169216907f8be0079c531659141344cd1fd0a4f28419497f9722a3daafe3b4186f6b6457e090600090a3603380546001600160a01b0319166001600160a01b0392909216919091179055565b3390565b600080338460405160200180836001600160a01b031660601b815260140182815260200192505050604051602081830303815290604052805190602001209050612dc383610166600088815260200190815260200160002060020154836134a5565b95945050505050565b6000612dd73061354e565b15905090565b600054610100900460ff1680612df65750612df6612dcc565b80612e04575060005460ff16155b612e3f5760405162461bcd60e51b815260040180806020018281038252602e815260200180613b12602e913960400191505060405180910390fd5b600054610100900460ff16158015612e6a576000805460ff1961ff0019909116610100171660011790555b611ba6613554565b600054610100900460ff1680612e8b5750612e8b612dcc565b80612e99575060005460ff16155b612ed45760405162461bcd60e51b815260040180806020018281038252602e815260200180613b12602e913960400191505060405180910390fd5b600054610100900460ff16158015612eff576000805460ff1961ff0019909116610100171660011790555b611ba66135f4565b600054610100900460ff1680612f205750612f20612dcc565b80612f2e575060005460ff16155b612f695760405162461bcd60e51b815260040180806020018281038252602e815260200180613b12602e913960400191505060405180910390fd5b600054610100900460ff16158015612f94576000805460ff1961ff0019909116610100171660011790555b612f9c6135f4565b612e6a613691565b600054610100900460ff1680612fbd5750612fbd612dcc565b80612fcb575060005460ff16155b6130065760405162461bcd60e51b815260040180806020018281038252602e815260200180613b12602e913960400191505060405180910390fd5b600054610100900460ff16158015613031576000805460ff1961ff0019909116610100171660011790555b611ba661372e565b600054610100900460ff16806130525750613052612dcc565b80613060575060005460ff16155b61309b5760405162461bcd60e51b815260040180806020018281038252602e815260200180613b12602e913960400191505060405180910390fd5b600054610100900460ff161580156130c6576000805460ff1961ff0019909116610100171660011790555b6130ce6137d4565b60006130d8612d5d565b6001600160a01b03166000908152606560205260409020805460ff19166001179055508015611bb8576000805461ff001916905550565b6001600160e01b0319808216141561316e576040805162461bcd60e51b815260206004820152601c60248201527f4552433136353a20696e76616c696420696e7465726661636520696400000000604482015290519081900360640190fd5b6001600160e01b0319166000908152609860205260409020805460ff19166001179055565b600054610100900460ff16806131ac57506131ac612dcc565b806131ba575060005460ff16155b6131f55760405162461bcd60e51b815260040180806020018281038252602e815260200180613b12602e913960400191505060405180910390fd5b600054610100900460ff16158015613220576000805460ff1961ff0019909116610100171660011790555b61016180546001600160a01b038086166001600160a01b0319928316179092556101608054928516929091169190911790558015613264576000805461ff00191690555b505050565b600082815261016460205260409020548015613264576000908152610166602052604090206005015550565b61016054610161546040805160208082018790526000828401819052835180840385018152606080850195869052630200057560e51b9095526001600160a01b0395861660648501818152608486018a905260a48601968752825160c4870152825193989790971696634000aea09691958a959394919360e490910191908501908083838d5b8381101561333357818101518382015260200161331b565b50505050905090810190601f1680156133605780820380516001836020036101000a031916815260200191505b50945050505050602060405180830381600087803b15801561338157600080fd5b505af1158015613395573d6000803e3d6000fd5b505050506040513d60208110156133ab57600080fd5b5050600083815261016260205260408120546133cc90859083903090613871565b60008581526101626020526040902080546001019055905061122784826138b8565b6000838152610167602052604081206003015460ff161515600114613450576040805162461bcd60e51b815260206004820152601360248201527211da5d995b881251081a5cc81a5b9d985b1a59606a1b604482015290519081900360640190fd5b60008360405160200180826001600160a01b031660601b8152601401915050604051602081830303815290604052805190602001209050612dc383610167600088815260200190815260200160002060010154835b600081815b85518110156135435760008682815181106134c157fe5b60200260200101519050808311613508578281604051602001808381526020018281526020019250505060405160208183030381529060405280519060200120925061353a565b808360405160200180838152602001828152602001925050506040516020818303038152906040528051906020012092505b506001016134aa565b509092149392505050565b3b151590565b600054610100900460ff168061356d575061356d612dcc565b8061357b575060005460ff16155b6135b65760405162461bcd60e51b815260040180806020018281038252602e815260200180613b12602e913960400191505060405180910390fd5b600054610100900460ff16158015611ba6576000805460ff1961ff0019909116610100171660011790558015611bb8576000805461ff001916905550565b600054610100900460ff168061360d575061360d612dcc565b8061361b575060005460ff16155b6136565760405162461bcd60e51b815260040180806020018281038252602e815260200180613b12602e913960400191505060405180910390fd5b600054610100900460ff16158015613681576000805460ff1961ff0019909116610100171660011790555b611ba66301ffc9a760e01b61310f565b600054610100900460ff16806136aa57506136aa612dcc565b806136b8575060005460ff16155b6136f35760405162461bcd60e51b815260040180806020018281038252602e815260200180613b12602e913960400191505060405180910390fd5b600054610100900460ff1615801561371e576000805460ff1961ff0019909116610100171660011790555b611ba6630271189760e51b61310f565b600054610100900460ff16806137475750613747612dcc565b80613755575060005460ff16155b6137905760405162461bcd60e51b815260040180806020018281038252602e815260200180613b12602e913960400191505060405180910390fd5b600054610100900460ff161580156137bb576000805460ff1961ff0019909116610100171660011790555b60016066558015611bb8576000805461ff001916905550565b600054610100900460ff16806137ed57506137ed612dcc565b806137fb575060005460ff16155b6138365760405162461bcd60e51b815260040180806020018281038252602e815260200180613b12602e913960400191505060405180910390fd5b600054610100900460ff16158015613861576000805460ff1961ff0019909116610100171660011790555b613869613554565b611ba66138e4565b60408051602080820196909652808201949094526001600160a01b039290921660608401526080808401919091528151808403909101815260a09092019052805191012090565b604080516020808201949094528082019290925280518083038201815260609092019052805191012090565b600054610100900460ff16806138fd57506138fd612dcc565b8061390b575060005460ff16155b6139465760405162461bcd60e51b815260040180806020018281038252602e815260200180613b12602e913960400191505060405180910390fd5b600054610100900460ff16158015613971576000805460ff1961ff0019909116610100171660011790555b600061397b612d5d565b603380546001600160a01b0319166001600160a01b038316908117909155604051919250906000907f8be0079c531659141344cd1fd0a4f28419497f9722a3daafe3b4186f6b6457e0908290a3508015611bb8576000805461ff001916905550565b828054828255906000526020600020908101928215613a18579160200282015b82811115613a185782518255916020019190600101906139fd565b50613a24929150613a95565b5090565b828054600181600116156101000203166002900490600052602060002090601f016020900481019282601f10613a6957805160ff1916838001178555613a18565b82800160010185558215613a185791820182811115613a185782518255916020019190600101906139fd565b5b80821115613a245760008155600101613a9656fe5265656e7472616e637947756172643a207265656e7472616e742063616c6c004f776e61626c653a206e6577206f776e657220697320746865207a65726f206164647265737341727261792073697a65206973206e6f74207468652073616d65206c656e677468496e697469616c697a61626c653a20636f6e747261637420697320616c726561647920696e697469616c697a65644f776e61626c653a2063616c6c6572206973206e6f7420746865206f776e65725468652063616c6c6572206973206e6f7420656c696769626c6520746f20636c61696d2074686520676976656e20706f6170a2646970667358221220584c81cc97b896ae070d892ac6d689adbbd274684c5ebf593425e905bf1b680564736f6c634300060c0033",
  "devdoc": {
    "details": "A contract aims to help distribute NFTs for collectors to users who met the conditions",
    "kind": "dev",
    "methods": {
      "addAddress(address)": {
        "details": "adds a given address to the whitelist",
        "params": {
          "_address": "address to add"
        }
      },
      "attachClaim(uint256,bytes32)": {
        "params": {
          "_eventId": "ID for the event",
          "_merkleRoot": "the root of the proof to be uploaded"
        }
      },
      "attachWhitelist(uint256,bytes32)": {
        "params": {
          "_merkleRoot": "the root of the proof to be uploaded",
          "_projectId": "ID for the project"
        }
      },
      "attachWhitelistBatch(uint256[],bytes32[])": {
        "params": {
          "_merkleRoots": "array of the root of the proof to be uploaded",
          "_projectIds": "array of ID for the project"
        }
      },
      "checkClaim(uint256,uint256,bytes32[])": {
        "params": {
          "_eventId": "the event that the caller wants to claim the prize",
          "_poapId": "ID of the POAP NFT recorded on this contract",
          "_proof": "the proof generated off-chain"
        },
        "returns": {
          "output": "the result"
        }
      },
      "claim(uint256,uint256,bytes32[])": {
        "params": {
          "_eventId": "the event that the caller wants to claim the prize",
          "_poapId": "ID of the POAP NFT recorded on this contract",
          "_proof": "the proof generated off-chain"
        }
      },
      "createEvent(uint256,string,uint256[])": {
        "params": {
          "_eventId": "ID for the event",
          "_name": "name of the event",
          "_poaps": "NFT that will be distributed"
        }
      },
      "createPoap(uint256,address,uint256,bool)": {
        "params": {
          "_assetAddress": "the NFT asset address",
          "_is1155": "ERC-1155 flags",
          "_poapId": "ID for the POAP",
          "_tokenId": "the token ID on the NFT"
        }
      },
      "createProject(uint256,string)": {
        "params": {
          "_name": "name of the project",
          "_projectId": "ID for the project"
        }
      },
      "depositERC1155(address,uint256,uint256)": {
        "params": {
          "_amount": "the amount of NFT to be deposited",
          "_assetAddress": "the NFT asset address",
          "_tokenId": "the token ID on the NFT"
        }
      },
      "depositERC721(address,uint256)": {
        "params": {
          "_assetAddress": "the NFT asset address",
          "_tokenId": "the token ID on the NFT"
        }
      },
      "eligible(uint256,address,bytes32[])": {
        "params": {
          "_address": "the wallet address that want to check",
          "_projectId": "the project ID",
          "_proof": "the proof generated off-chain"
        },
        "returns": {
          "output": "the result"
        }
      },
      "finalizeEvent(uint256)": {
        "params": {
          "_eventId": "ID of the event"
        }
      },
      "isWhitelisted(address)": {
        "details": "returns true if a given address is whitelisted, false if not",
        "params": {
          "_address": "address to check"
        },
        "returns": {
          "_0": "true if the address is whitelisted, false if not"
        }
      },
      "onERC721Received(address,address,uint256,bytes)": {
        "details": "See {IERC721Receiver-onERC721Received}. Always returns `IERC721Receiver.onERC721Received.selector`."
      },
      "owner()": {
        "details": "Returns the address of the current owner."
      },
      "removeAddress(address)": {
        "details": "removes a given address from the whitelist",
        "params": {
          "_address": "address to remove"
        }
      },
      "renounceOwnership()": {
        "details": "Leaves the contract without owner. It will not be possible to call `onlyOwner` functions anymore. Can only be called by the current owner. NOTE: Renouncing ownership will leave the contract without an owner, thereby removing any functionality that is only available to the owner."
      },
      "supportsInterface(bytes4)": {
        "details": "See {IERC165-supportsInterface}. Time complexity O(1), guaranteed to always use less than 30 000 gas."
      },
      "transferOwnership(address)": {
        "details": "Transfers ownership of the contract to a new account (`newOwner`). Can only be called by the current owner."
      },
      "updatePoaps(uint256,uint256[])": {
        "params": {
          "_eventId": "ID of the event",
          "_poaps": "array of the POAP ID"
        }
      }
    },
    "title": "Luckbox v.2",
    "version": 1
  },
  "userdoc": {
    "kind": "user",
    "methods": {
      "attachClaim(uint256,bytes32)": {
        "notice": "upload the root of the proof identifies who will be able to claim the prizes"
      },
      "attachWhitelist(uint256,bytes32)": {
        "notice": "upload the root of the proof identifies who is holding the project's NFTs"
      },
      "attachWhitelistBatch(uint256[],bytes32[])": {
        "notice": "upload the root of the proof identifies who is holding the project's NFTs (in batch)"
      },
      "checkClaim(uint256,uint256,bytes32[])": {
        "notice": "check whether the caller can claim a POAP NFT or not"
      },
      "claim(uint256,uint256,bytes32[])": {
        "notice": "claim the NFT if the caller is eligible for"
      },
      "createEvent(uint256,string,uint256[])": {
        "notice": "create a campaign"
      },
      "createPoap(uint256,address,uint256,bool)": {
        "notice": "create a record for POAP NFT which will be used during a claim period for mapping POAP ID <-> ASSET ADDRESS"
      },
      "createProject(uint256,string)": {
        "notice": "create a project, once set it allows users to verify that they  having the project's NFTs in the wallet"
      },
      "depositERC1155(address,uint256,uint256)": {
        "notice": "deposit ERC-1155 NFT prior to the claim, ideally should be called by the event's owner"
      },
      "depositERC721(address,uint256)": {
        "notice": "deposit ERC-721 NFT prior to the claim, ideally should be called by the event's owner"
      },
      "eligible(uint256,address,bytes32[])": {
        "notice": "check whether the given address has held NFTs or not"
      },
      "emergencyWithdrawERC1155(address,address,uint256,uint256)": {
        "notice": "withdraw ERC-1155 NFTs locked in the contract"
      },
      "emergencyWithdrawERC721(address,address,uint256)": {
        "notice": "withdraw ERC-721 NFTs locked in the contract"
      },
      "finalizeEvent(uint256)": {
        "notice": "finalize event for get seed"
      },
      "updatePoaps(uint256,uint256[])": {
        "notice": "replace POAP NFTs to be distributed on the event"
      }
    },
    "version": 1
  },
  "storageLayout": {
    "storage": [
      {
        "astId": 1105,
        "contract": "contracts/NFTLuckBox.sol:LuckBox",
        "label": "_initialized",
        "offset": 0,
        "slot": "0",
        "type": "t_bool"
      },
      {
        "astId": 1108,
        "contract": "contracts/NFTLuckBox.sol:LuckBox",
        "label": "_initializing",
        "offset": 1,
        "slot": "0",
        "type": "t_bool"
      },
      {
        "astId": 3273,
        "contract": "contracts/NFTLuckBox.sol:LuckBox",
        "label": "__gap",
        "offset": 0,
        "slot": "1",
        "type": "t_array(t_uint256)50_storage"
      },
      {
        "astId": 465,
        "contract": "contracts/NFTLuckBox.sol:LuckBox",
        "label": "_owner",
        "offset": 0,
        "slot": "51",
        "type": "t_address"
      },
      {
        "astId": 584,
        "contract": "contracts/NFTLuckBox.sol:LuckBox",
        "label": "__gap",
        "offset": 0,
        "slot": "52",
        "type": "t_array(t_uint256)49_storage"
      },
      {
        "astId": 18174,
        "contract": "contracts/NFTLuckBox.sol:LuckBox",
        "label": "whitelist",
        "offset": 0,
        "slot": "101",
        "type": "t_mapping(t_address,t_bool)"
      },
      {
        "astId": 3401,
        "contract": "contracts/NFTLuckBox.sol:LuckBox",
        "label": "_status",
        "offset": 0,
        "slot": "102",
        "type": "t_uint256"
      },
      {
        "astId": 3444,
        "contract": "contracts/NFTLuckBox.sol:LuckBox",
        "label": "__gap",
        "offset": 0,
        "slot": "103",
        "type": "t_array(t_uint256)49_storage"
      },
      {
        "astId": 673,
        "contract": "contracts/NFTLuckBox.sol:LuckBox",
        "label": "_supportedInterfaces",
        "offset": 0,
        "slot": "152",
        "type": "t_mapping(t_bytes4,t_bool)"
      },
      {
        "astId": 730,
        "contract": "contracts/NFTLuckBox.sol:LuckBox",
        "label": "__gap",
        "offset": 0,
        "slot": "153",
        "type": "t_array(t_uint256)49_storage"
      },
      {
        "astId": 2850,
        "contract": "contracts/NFTLuckBox.sol:LuckBox",
        "label": "__gap",
        "offset": 0,
        "slot": "202",
        "type": "t_array(t_uint256)50_storage"
      },
      {
        "astId": 1297,
        "contract": "contracts/NFTLuckBox.sol:LuckBox",
        "label": "__gap",
        "offset": 0,
        "slot": "252",
        "type": "t_array(t_uint256)50_storage"
      },
      {
        "astId": 1242,
        "contract": "contracts/NFTLuckBox.sol:LuckBox",
        "label": "__gap",
        "offset": 0,
        "slot": "302",
        "type": "t_array(t_uint256)50_storage"
      },
      {
        "astId": 18343,
        "contract": "contracts/NFTLuckBox.sol:LuckBox",
        "label": "LINK",
        "offset": 0,
        "slot": "352",
        "type": "t_contract(LinkTokenInterface)15421"
      },
      {
        "astId": 18345,
        "contract": "contracts/NFTLuckBox.sol:LuckBox",
        "label": "vrfCoordinator",
        "offset": 0,
        "slot": "353",
        "type": "t_address"
      },
      {
        "astId": 18349,
        "contract": "contracts/NFTLuckBox.sol:LuckBox",
        "label": "nonces",
        "offset": 0,
        "slot": "354",
        "type": "t_mapping(t_bytes32,t_uint256)"
      },
      {
        "astId": 9675,
        "contract": "contracts/NFTLuckBox.sol:LuckBox",
        "label": "requestIdToAddress",
        "offset": 0,
        "slot": "355",
        "type": "t_mapping(t_bytes32,t_address)"
      },
      {
        "astId": 9679,
        "contract": "contracts/NFTLuckBox.sol:LuckBox",
        "label": "requestIdToEventId",
        "offset": 0,
        "slot": "356",
        "type": "t_mapping(t_bytes32,t_uint256)"
      },
      {
        "astId": 9683,
        "contract": "contracts/NFTLuckBox.sol:LuckBox",
        "label": "poaps",
        "offset": 0,
        "slot": "357",
        "type": "t_mapping(t_uint256,t_struct(Poap)9626_storage)"
      },
      {
        "astId": 9687,
        "contract": "contracts/NFTLuckBox.sol:LuckBox",
        "label": "events",
        "offset": 0,
        "slot": "358",
        "type": "t_mapping(t_uint256,t_struct(Event)9646_storage)"
      },
      {
        "astId": 9691,
        "contract": "contracts/NFTLuckBox.sol:LuckBox",
        "label": "projects",
        "offset": 0,
        "slot": "359",
        "type": "t_mapping(t_uint256,t_struct(Project)9655_storage)"
      }
    ],
    "types": {
      "t_address": {
        "encoding": "inplace",
        "label": "address",
        "numberOfBytes": "20"
      },
      "t_array(t_uint256)49_storage": {
        "base": "t_uint256",
        "encoding": "inplace",
        "label": "uint256[49]",
        "numberOfBytes": "1568"
      },
      "t_array(t_uint256)50_storage": {
        "base": "t_uint256",
        "encoding": "inplace",
        "label": "uint256[50]",
        "numberOfBytes": "1600"
      },
      "t_array(t_uint256)dyn_storage": {
        "base": "t_uint256",
        "encoding": "dynamic_array",
        "label": "uint256[]",
        "numberOfBytes": "32"
      },
      "t_bool": {
        "encoding": "inplace",
        "label": "bool",
        "numberOfBytes": "1"
      },
      "t_bytes32": {
        "encoding": "inplace",
        "label": "bytes32",
        "numberOfBytes": "32"
      },
      "t_bytes4": {
        "encoding": "inplace",
        "label": "bytes4",
        "numberOfBytes": "4"
      },
      "t_contract(LinkTokenInterface)15421": {
        "encoding": "inplace",
        "label": "contract LinkTokenInterface",
        "numberOfBytes": "20"
      },
      "t_mapping(t_address,t_bool)": {
        "encoding": "mapping",
        "key": "t_address",
        "label": "mapping(address => bool)",
        "numberOfBytes": "32",
        "value": "t_bool"
      },
      "t_mapping(t_bytes32,t_address)": {
        "encoding": "mapping",
        "key": "t_bytes32",
        "label": "mapping(bytes32 => address)",
        "numberOfBytes": "32",
        "value": "t_address"
      },
      "t_mapping(t_bytes32,t_uint256)": {
        "encoding": "mapping",
        "key": "t_bytes32",
        "label": "mapping(bytes32 => uint256)",
        "numberOfBytes": "32",
        "value": "t_uint256"
      },
      "t_mapping(t_bytes4,t_bool)": {
        "encoding": "mapping",
        "key": "t_bytes4",
        "label": "mapping(bytes4 => bool)",
        "numberOfBytes": "32",
        "value": "t_bool"
      },
      "t_mapping(t_uint256,t_struct(Event)9646_storage)": {
        "encoding": "mapping",
        "key": "t_uint256",
        "label": "mapping(uint256 => struct LuckBox.Event)",
        "numberOfBytes": "32",
        "value": "t_struct(Event)9646_storage"
      },
      "t_mapping(t_uint256,t_struct(Poap)9626_storage)": {
        "encoding": "mapping",
        "key": "t_uint256",
        "label": "mapping(uint256 => struct LuckBox.Poap)",
        "numberOfBytes": "32",
        "value": "t_struct(Poap)9626_storage"
      },
      "t_mapping(t_uint256,t_struct(Project)9655_storage)": {
        "encoding": "mapping",
        "key": "t_uint256",
        "label": "mapping(uint256 => struct LuckBox.Project)",
        "numberOfBytes": "32",
        "value": "t_struct(Project)9655_storage"
      },
      "t_string_storage": {
        "encoding": "bytes",
        "label": "string",
        "numberOfBytes": "32"
      },
      "t_struct(Event)9646_storage": {
        "encoding": "inplace",
        "label": "struct LuckBox.Event",
        "members": [
          {
            "astId": 9628,
            "contract": "contracts/NFTLuckBox.sol:LuckBox",
            "label": "name",
            "offset": 0,
            "slot": "0",
            "type": "t_string_storage"
          },
          {
            "astId": 9631,
            "contract": "contracts/NFTLuckBox.sol:LuckBox",
            "label": "poaps",
            "offset": 0,
            "slot": "1",
            "type": "t_array(t_uint256)dyn_storage"
          },
          {
            "astId": 9633,
            "contract": "contracts/NFTLuckBox.sol:LuckBox",
            "label": "merkleRoot",
            "offset": 0,
            "slot": "2",
            "type": "t_bytes32"
          },
          {
            "astId": 9637,
            "contract": "contracts/NFTLuckBox.sol:LuckBox",
            "label": "claimed",
            "offset": 0,
            "slot": "3",
            "type": "t_mapping(t_address,t_bool)"
          },
          {
            "astId": 9639,
            "contract": "contracts/NFTLuckBox.sol:LuckBox",
            "label": "claimCount",
            "offset": 0,
            "slot": "4",
            "type": "t_uint256"
          },
          {
            "astId": 9641,
            "contract": "contracts/NFTLuckBox.sol:LuckBox",
            "label": "seed",
            "offset": 0,
            "slot": "5",
            "type": "t_uint256"
          },
          {
            "astId": 9643,
            "contract": "contracts/NFTLuckBox.sol:LuckBox",
            "label": "ended",
            "offset": 0,
            "slot": "6",
            "type": "t_bool"
          },
          {
            "astId": 9645,
            "contract": "contracts/NFTLuckBox.sol:LuckBox",
            "label": "active",
            "offset": 1,
            "slot": "6",
            "type": "t_bool"
          }
        ],
        "numberOfBytes": "224"
      },
      "t_struct(Poap)9626_storage": {
        "encoding": "inplace",
        "label": "struct LuckBox.Poap",
        "members": [
          {
            "astId": 9621,
            "contract": "contracts/NFTLuckBox.sol:LuckBox",
            "label": "assetAddress",
            "offset": 0,
            "slot": "0",
            "type": "t_address"
          },
          {
            "astId": 9623,
            "contract": "contracts/NFTLuckBox.sol:LuckBox",
            "label": "tokenId",
            "offset": 0,
            "slot": "1",
            "type": "t_uint256"
          },
          {
            "astId": 9625,
            "contract": "contracts/NFTLuckBox.sol:LuckBox",
            "label": "is1155",
            "offset": 0,
            "slot": "2",
            "type": "t_bool"
          }
        ],
        "numberOfBytes": "96"
      },
      "t_struct(Project)9655_storage": {
        "encoding": "inplace",
        "label": "struct LuckBox.Project",
        "members": [
          {
            "astId": 9648,
            "contract": "contracts/NFTLuckBox.sol:LuckBox",
            "label": "name",
            "offset": 0,
            "slot": "0",
            "type": "t_string_storage"
          },
          {
            "astId": 9650,
            "contract": "contracts/NFTLuckBox.sol:LuckBox",
            "label": "merkleRoot",
            "offset": 0,
            "slot": "1",
            "type": "t_bytes32"
          },
          {
            "astId": 9652,
            "contract": "contracts/NFTLuckBox.sol:LuckBox",
            "label": "timestamp",
            "offset": 0,
            "slot": "2",
            "type": "t_uint256"
          },
          {
            "astId": 9654,
            "contract": "contracts/NFTLuckBox.sol:LuckBox",
            "label": "active",
            "offset": 0,
            "slot": "3",
            "type": "t_bool"
          }
        ],
        "numberOfBytes": "128"
      },
      "t_uint256": {
        "encoding": "inplace",
        "label": "uint256",
        "numberOfBytes": "32"
      }
    }
  }
}