{
  "address": "0x67790326185F8E97c216daC33d0d09dcAd0d7A18",
  "abi": [
    {
      "inputs": [
        {
          "internalType": "string",
          "name": "_name",
          "type": "string"
        }
      ],
      "stateMutability": "nonpayable",
      "type": "constructor"
    },
    {
      "anonymous": false,
      "inputs": [
        {
          "indexed": true,
          "internalType": "address",
          "name": "previousOwner",
          "type": "address"
        },
        {
          "indexed": true,
          "internalType": "address",
          "name": "newOwner",
          "type": "address"
        }
      ],
      "name": "OwnershipTransferred",
      "type": "event"
    },
    {
      "inputs": [
        {
          "internalType": "address",
          "name": "_address",
          "type": "address"
        }
      ],
      "name": "addAddress",
      "outputs": [],
      "stateMutability": "nonpayable",
      "type": "function"
    },
    {
      "inputs": [],
      "name": "getTimestamp",
      "outputs": [
        {
          "internalType": "uint256",
          "name": "",
          "type": "uint256"
        }
      ],
      "stateMutability": "view",
      "type": "function"
    },
    {
      "inputs": [],
      "name": "getValue",
      "outputs": [
        {
          "internalType": "uint256",
          "name": "",
          "type": "uint256"
        }
      ],
      "stateMutability": "view",
      "type": "function"
    },
    {
      "inputs": [
        {
          "internalType": "address",
          "name": "_address",
          "type": "address"
        }
      ],
      "name": "isWhitelisted",
      "outputs": [
        {
          "internalType": "bool",
          "name": "",
          "type": "bool"
        }
      ],
      "stateMutability": "view",
      "type": "function"
    },
    {
      "inputs": [],
      "name": "name",
      "outputs": [
        {
          "internalType": "string",
          "name": "",
          "type": "string"
        }
      ],
      "stateMutability": "view",
      "type": "function"
    },
    {
      "inputs": [],
      "name": "owner",
      "outputs": [
        {
          "internalType": "address",
          "name": "",
          "type": "address"
        }
      ],
      "stateMutability": "view",
      "type": "function"
    },
    {
      "inputs": [
        {
          "internalType": "address",
          "name": "_address",
          "type": "address"
        }
      ],
      "name": "removeAddress",
      "outputs": [],
      "stateMutability": "nonpayable",
      "type": "function"
    },
    {
      "inputs": [],
      "name": "renounceOwnership",
      "outputs": [],
      "stateMutability": "nonpayable",
      "type": "function"
    },
    {
      "inputs": [
        {
          "internalType": "address",
          "name": "newOwner",
          "type": "address"
        }
      ],
      "name": "transferOwnership",
      "outputs": [],
      "stateMutability": "nonpayable",
      "type": "function"
    },
    {
      "inputs": [
        {
          "internalType": "uint256",
          "name": "_newValue",
          "type": "uint256"
        }
      ],
      "name": "updateValue",
      "outputs": [],
      "stateMutability": "nonpayable",
      "type": "function"
    },
    {
      "inputs": [],
      "name": "value",
      "outputs": [
        {
          "internalType": "uint256",
          "name": "",
          "type": "uint256"
        }
      ],
      "stateMutability": "view",
      "type": "function"
    }
  ],
  "transactionHash": "0x5a9f71b63b5e5ce168c0a96133a80b6bc8dd506f36cc3378c3a6fb6566ddbaea",
  "args": [
    "USDT/USD"
  ],
  "solcInputHash": "8265e4161eec9b5a7dcd6b2c71b6665f",
  "bytecode": "0x6080604052670de0b6b3a764000060045534801561001c57600080fd5b50604051610a5e380380610a5e8339818101604052602081101561003f57600080fd5b810190808051604051939291908464010000000082111561005f57600080fd5b90830190602082018581111561007457600080fd5b825164010000000081118282018810171561008e57600080fd5b82525081516020918201929091019080838360005b838110156100bb5781810151838201526020016100a3565b50505050905090810190601f1680156100e85780820380516001836020036101000a031916815260200191505b5060405250506001600090815590506100ff610203565b600180546001600160a01b0319166001600160a01b038316908117909155604051919250906000907f8be0079c531659141344cd1fd0a4f28419497f9722a3daafe3b4186f6b6457e0908290a3506000610157610203565b6001600160a01b031660009081526002602081905260408220805460ff191660011790559054141590506101d2576040805162461bcd60e51b815260206004820152601f60248201527f5265656e7472616e637947756172643a207265656e7472616e742063616c6c00604482015290519081900360640190fd5b600260005580516101ea9060039060208401906102d9565b50426005556101f833610207565b50600160005561036c565b3390565b6000610211610203565b905061021c816102bb565b61026d576040805162461bcd60e51b815260206004820181905260248201527f4f776e61626c653a2063616c6c6572206973206e6f7420746865206f776e6572604482015290519081900360640190fd5b6001600160a01b03821660009081526002602052604090205460ff1615610293576102b7565b6001600160a01b0382166000908152600260205260409020805460ff191660011790555b5050565b6001600160a01b031660009081526002602052604090205460ff1690565b828054600181600116156101000203166002900490600052602060002090601f016020900481019282601f1061031a57805160ff1916838001178555610347565b82800160010185558215610347579182015b8281111561034757825182559160200191906001019061032c565b50610353929150610357565b5090565b5b808211156103535760008155600101610358565b6106e38061037b6000396000f3fe608060405234801561001057600080fd5b50600436106100a95760003560e01c80633fa4f245116100715780633fa4f245146101af5780634ba79dfe146101b7578063573c0bd3146101dd578063715018a6146101fa5780638da5cb5b14610202578063f2fde38b14610226576100a9565b806306fdde03146100ae578063188ec3561461012b578063209652551461014557806338eada1c1461014d5780633af32abf14610175575b600080fd5b6100b661024c565b6040805160208082528351818301528351919283929083019185019080838360005b838110156100f05781810151838201526020016100d8565b50505050905090810190601f16801561011d5780820380516001836020036101000a031916815260200191505b509250505060405180910390f35b6101336102da565b60408051918252519081900360200190f35b6101336102e0565b6101736004803603602081101561016357600080fd5b50356001600160a01b03166102e6565b005b61019b6004803603602081101561018b57600080fd5b50356001600160a01b0316610388565b604080519115158252519081900360200190f35b6101336103a6565b610173600480360360208110156101cd57600080fd5b50356001600160a01b03166103ac565b610173600480360360208110156101f357600080fd5b5035610447565b6101736104a5565b61020a610551565b604080516001600160a01b039092168252519081900360200190f35b6101736004803603602081101561023c57600080fd5b50356001600160a01b0316610560565b6003805460408051602060026001851615610100026000190190941693909304601f810184900484028201840190925281815292918301828280156102d25780601f106102a7576101008083540402835291602001916102d2565b820191906000526020600020905b8154815290600101906020018083116102b557829003601f168201915b505050505081565b60055490565b60045490565b60006102f0610663565b90506102fb81610388565b61033a576040805162461bcd60e51b8152602060048201819052602482015260008051602061068e833981519152604482015290519081900360640190fd5b6001600160a01b03821660009081526002602052604090205460ff161561036057610384565b6001600160a01b0382166000908152600260205260409020805460ff191660011790555b5050565b6001600160a01b031660009081526002602052604090205460ff1690565b60045481565b60006103b6610663565b90506103c181610388565b610400576040805162461bcd60e51b8152602060048201819052602482015260008051602061068e833981519152604482015290519081900360640190fd5b6001600160a01b03821660009081526002602052604090205460ff1661042557610384565b506001600160a01b03166000908152600260205260409020805460ff19169055565b6000610451610663565b905061045c81610388565b61049b576040805162461bcd60e51b8152602060048201819052602482015260008051602061068e833981519152604482015290519081900360640190fd5b5060045542600555565b6104ad610663565b6001600160a01b03166104be610551565b6001600160a01b031614610507576040805162461bcd60e51b8152602060048201819052602482015260008051602061068e833981519152604482015290519081900360640190fd5b6001546040516000916001600160a01b0316907f8be0079c531659141344cd1fd0a4f28419497f9722a3daafe3b4186f6b6457e0908390a3600180546001600160a01b0319169055565b6001546001600160a01b031690565b610568610663565b6001600160a01b0316610579610551565b6001600160a01b0316146105c2576040805162461bcd60e51b8152602060048201819052602482015260008051602061068e833981519152604482015290519081900360640190fd5b6001600160a01b0381166106075760405162461bcd60e51b81526004018080602001828103825260268152602001806106686026913960400191505060405180910390fd5b6001546040516001600160a01b038084169216907f8be0079c531659141344cd1fd0a4f28419497f9722a3daafe3b4186f6b6457e090600090a3600180546001600160a01b0319166001600160a01b0392909216919091179055565b339056fe4f776e61626c653a206e6577206f776e657220697320746865207a65726f20616464726573734f776e61626c653a2063616c6c6572206973206e6f7420746865206f776e6572a2646970667358221220d5be3de9f8841865a20b64d3dd06c64c784549bb91e07e60548709e3d4fadc2364736f6c634300060c0033",
  "devdoc": {
    "kind": "dev",
    "methods": {
      "addAddress(address)": {
        "details": "adds a given address to the whitelist",
        "params": {
          "_address": "address to add"
        }
      },
      "isWhitelisted(address)": {
        "details": "returns true if a given address is whitelisted, false if not",
        "params": {
          "_address": "address to check"
        },
        "returns": {
          "_0": "true if the address is whitelisted, false if not"
        }
      },
      "owner()": {
        "details": "Returns the address of the current owner."
      },
      "removeAddress(address)": {
        "details": "removes a given address from the whitelist",
        "params": {
          "_address": "address to remove"
        }
      },
      "renounceOwnership()": {
        "details": "Leaves the contract without owner. It will not be possible to call `onlyOwner` functions anymore. Can only be called by the current owner. NOTE: Renouncing ownership will leave the contract without an owner, thereby removing any functionality that is only available to the owner."
      },
      "transferOwnership(address)": {
        "details": "Transfers ownership of the contract to a new account (`newOwner`). Can only be called by the current owner."
      }
    },
    "version": 1
  },
  "userdoc": {
    "kind": "user",
    "methods": {},
    "version": 1
  },
  "storageLayout": {
    "storage": [
      {
        "astId": 7702,
        "contract": "contracts/mocks/MockPriceFeeder.sol:MockPriceFeeder",
        "label": "_status",
        "offset": 0,
        "slot": "0",
        "type": "t_uint256"
      },
      {
        "astId": 2403,
        "contract": "contracts/mocks/MockPriceFeeder.sol:MockPriceFeeder",
        "label": "_owner",
        "offset": 0,
        "slot": "1",
        "type": "t_address"
      },
      {
        "astId": 22299,
        "contract": "contracts/mocks/MockPriceFeeder.sol:MockPriceFeeder",
        "label": "whitelist",
        "offset": 0,
        "slot": "2",
        "type": "t_mapping(t_address,t_bool)"
      },
      {
        "astId": 20585,
        "contract": "contracts/mocks/MockPriceFeeder.sol:MockPriceFeeder",
        "label": "name",
        "offset": 0,
        "slot": "3",
        "type": "t_string_storage"
      },
      {
        "astId": 20593,
        "contract": "contracts/mocks/MockPriceFeeder.sol:MockPriceFeeder",
        "label": "value",
        "offset": 0,
        "slot": "4",
        "type": "t_uint256"
      },
      {
        "astId": 20595,
        "contract": "contracts/mocks/MockPriceFeeder.sol:MockPriceFeeder",
        "label": "timestamp",
        "offset": 0,
        "slot": "5",
        "type": "t_uint256"
      }
    ],
    "types": {
      "t_address": {
        "encoding": "inplace",
        "label": "address",
        "numberOfBytes": "20"
      },
      "t_bool": {
        "encoding": "inplace",
        "label": "bool",
        "numberOfBytes": "1"
      },
      "t_mapping(t_address,t_bool)": {
        "encoding": "mapping",
        "key": "t_address",
        "label": "mapping(address => bool)",
        "numberOfBytes": "32",
        "value": "t_bool"
      },
      "t_string_storage": {
        "encoding": "bytes",
        "label": "string",
        "numberOfBytes": "32"
      },
      "t_uint256": {
        "encoding": "inplace",
        "label": "uint256",
        "numberOfBytes": "32"
      }
    }
  }
}