{
  "address": "0xBC0dD6eBc1146E502A35E695Dd8DA0719d014a74",
  "abi": [
    {
      "anonymous": false,
      "inputs": [
        {
          "indexed": true,
          "internalType": "address",
          "name": "previousOwner",
          "type": "address"
        },
        {
          "indexed": true,
          "internalType": "address",
          "name": "newOwner",
          "type": "address"
        }
      ],
      "name": "OwnershipTransferred",
      "type": "event"
    },
    {
      "anonymous": false,
      "inputs": [
        {
          "indexed": false,
          "internalType": "address",
          "name": "minter",
          "type": "address"
        },
        {
          "indexed": false,
          "internalType": "uint8",
          "name": "variantId",
          "type": "uint8"
        },
        {
          "indexed": false,
          "internalType": "uint256",
          "name": "tokenValue",
          "type": "uint256"
        },
        {
          "indexed": false,
          "internalType": "uint256",
          "name": "collateralAmount",
          "type": "uint256"
        },
        {
          "indexed": false,
          "internalType": "uint256",
          "name": "tokenAmount",
          "type": "uint256"
        }
      ],
      "name": "PositionCreated",
      "type": "event"
    },
    {
      "anonymous": false,
      "inputs": [
        {
          "indexed": false,
          "internalType": "address",
          "name": "minter",
          "type": "address"
        },
        {
          "indexed": false,
          "internalType": "uint8",
          "name": "variantId",
          "type": "uint8"
        },
        {
          "indexed": false,
          "internalType": "uint256",
          "name": "tokenValue",
          "type": "uint256"
        },
        {
          "indexed": false,
          "internalType": "uint256",
          "name": "collateralAmount",
          "type": "uint256"
        },
        {
          "indexed": false,
          "internalType": "uint256",
          "name": "tokenAmount",
          "type": "uint256"
        }
      ],
      "name": "PositionRemoved",
      "type": "event"
    },
    {
      "inputs": [],
      "name": "ROUTER_ADDRESS",
      "outputs": [
        {
          "internalType": "address",
          "name": "",
          "type": "address"
        }
      ],
      "stateMutability": "view",
      "type": "function"
    },
    {
      "inputs": [
        {
          "internalType": "address",
          "name": "_address",
          "type": "address"
        }
      ],
      "name": "addAddress",
      "outputs": [],
      "stateMutability": "nonpayable",
      "type": "function"
    },
    {
      "inputs": [
        {
          "internalType": "string",
          "name": "_name",
          "type": "string"
        },
        {
          "internalType": "uint256",
          "name": "_tokenId",
          "type": "uint256"
        },
        {
          "internalType": "uint256",
          "name": "_tokenValue",
          "type": "uint256"
        }
      ],
      "name": "addSyntheticVariant",
      "outputs": [],
      "stateMutability": "nonpayable",
      "type": "function"
    },
    {
      "inputs": [],
      "name": "collateralShare",
      "outputs": [
        {
          "internalType": "contract IPancakePair",
          "name": "",
          "type": "address"
        }
      ],
      "stateMutability": "view",
      "type": "function"
    },
    {
      "inputs": [],
      "name": "collateralShareSymbol",
      "outputs": [
        {
          "internalType": "bytes32",
          "name": "",
          "type": "bytes32"
        }
      ],
      "stateMutability": "view",
      "type": "function"
    },
    {
      "inputs": [],
      "name": "devAddress",
      "outputs": [
        {
          "internalType": "address",
          "name": "",
          "type": "address"
        }
      ],
      "stateMutability": "view",
      "type": "function"
    },
    {
      "inputs": [],
      "name": "discountDisabled",
      "outputs": [
        {
          "internalType": "bool",
          "name": "",
          "type": "bool"
        }
      ],
      "stateMutability": "view",
      "type": "function"
    },
    {
      "inputs": [
        {
          "internalType": "uint8",
          "name": "_id",
          "type": "uint8"
        },
        {
          "internalType": "uint256",
          "name": "_tokenAmount",
          "type": "uint256"
        }
      ],
      "name": "estimateMint",
      "outputs": [
        {
          "internalType": "uint256",
          "name": "baseTokenAmount",
          "type": "uint256"
        },
        {
          "internalType": "uint256",
          "name": "pairTokenAmount",
          "type": "uint256"
        },
        {
          "internalType": "uint256",
          "name": "lpAmount",
          "type": "uint256"
        },
        {
          "internalType": "uint256",
          "name": "discount",
          "type": "uint256"
        }
      ],
      "stateMutability": "view",
      "type": "function"
    },
    {
      "inputs": [
        {
          "internalType": "uint8",
          "name": "_id",
          "type": "uint8"
        },
        {
          "internalType": "uint256",
          "name": "_tokenAmount",
          "type": "uint256"
        }
      ],
      "name": "estimateRedeem",
      "outputs": [
        {
          "internalType": "uint256",
          "name": "baseTokenAmount",
          "type": "uint256"
        },
        {
          "internalType": "uint256",
          "name": "pairTokenAmount",
          "type": "uint256"
        },
        {
          "internalType": "uint256",
          "name": "lpAmount",
          "type": "uint256"
        },
        {
          "internalType": "uint256",
          "name": "offset",
          "type": "uint256"
        }
      ],
      "stateMutability": "view",
      "type": "function"
    },
    {
      "inputs": [
        {
          "internalType": "uint8",
          "name": "_id",
          "type": "uint8"
        },
        {
          "internalType": "uint256",
          "name": "_collateralAmount",
          "type": "uint256"
        },
        {
          "internalType": "uint256",
          "name": "_tokenAmount",
          "type": "uint256"
        }
      ],
      "name": "forceMint",
      "outputs": [],
      "stateMutability": "nonpayable",
      "type": "function"
    },
    {
      "inputs": [
        {
          "internalType": "uint8",
          "name": "_id",
          "type": "uint8"
        },
        {
          "internalType": "uint256",
          "name": "_collateralAmount",
          "type": "uint256"
        },
        {
          "internalType": "uint256",
          "name": "_tokenAmount",
          "type": "uint256"
        }
      ],
      "name": "forceRedeem",
      "outputs": [],
      "stateMutability": "nonpayable",
      "type": "function"
    },
    {
      "inputs": [],
      "name": "getCollateralSharePrice",
      "outputs": [
        {
          "internalType": "uint256",
          "name": "",
          "type": "uint256"
        }
      ],
      "stateMutability": "view",
      "type": "function"
    },
    {
      "inputs": [],
      "name": "getSyntheticPrice",
      "outputs": [
        {
          "internalType": "uint256",
          "name": "",
          "type": "uint256"
        }
      ],
      "stateMutability": "view",
      "type": "function"
    },
    {
      "inputs": [],
      "name": "globalCollatelizationRatio",
      "outputs": [
        {
          "internalType": "uint256",
          "name": "",
          "type": "uint256"
        }
      ],
      "stateMutability": "view",
      "type": "function"
    },
    {
      "inputs": [
        {
          "internalType": "string",
          "name": "_name",
          "type": "string"
        },
        {
          "internalType": "string",
          "name": "_nftUri",
          "type": "string"
        },
        {
          "internalType": "address",
          "name": "_priceResolverAddress",
          "type": "address"
        },
        {
          "internalType": "address",
          "name": "_collateralShareAddress",
          "type": "address"
        },
        {
          "internalType": "bytes32",
          "name": "_collateralShareSymbol",
          "type": "bytes32"
        },
        {
          "internalType": "bytes32",
          "name": "_syntheticSymbol",
          "type": "bytes32"
        },
        {
          "internalType": "address",
          "name": "_routerAddress",
          "type": "address"
        },
        {
          "internalType": "address",
          "name": "_devAddress",
          "type": "address"
        }
      ],
      "name": "initialize",
      "outputs": [],
      "stateMutability": "nonpayable",
      "type": "function"
    },
    {
      "inputs": [
        {
          "internalType": "address",
          "name": "_address",
          "type": "address"
        }
      ],
      "name": "isWhitelisted",
      "outputs": [
        {
          "internalType": "bool",
          "name": "",
          "type": "bool"
        }
      ],
      "stateMutability": "view",
      "type": "function"
    },
    {
      "inputs": [
        {
          "internalType": "uint8",
          "name": "_id",
          "type": "uint8"
        },
        {
          "internalType": "uint256",
          "name": "_tokenAmount",
          "type": "uint256"
        },
        {
          "internalType": "uint256",
          "name": "_maxBaseAmount",
          "type": "uint256"
        },
        {
          "internalType": "uint256",
          "name": "_maxPairAmount",
          "type": "uint256"
        }
      ],
      "name": "mint",
      "outputs": [],
      "stateMutability": "nonpayable",
      "type": "function"
    },
    {
      "inputs": [],
      "name": "multiplier",
      "outputs": [
        {
          "internalType": "uint256",
          "name": "",
          "type": "uint256"
        }
      ],
      "stateMutability": "view",
      "type": "function"
    },
    {
      "inputs": [],
      "name": "name",
      "outputs": [
        {
          "internalType": "string",
          "name": "",
          "type": "string"
        }
      ],
      "stateMutability": "view",
      "type": "function"
    },
    {
      "inputs": [],
      "name": "offsetDisabled",
      "outputs": [
        {
          "internalType": "bool",
          "name": "",
          "type": "bool"
        }
      ],
      "stateMutability": "view",
      "type": "function"
    },
    {
      "inputs": [],
      "name": "owner",
      "outputs": [
        {
          "internalType": "address",
          "name": "",
          "type": "address"
        }
      ],
      "stateMutability": "view",
      "type": "function"
    },
    {
      "inputs": [],
      "name": "priceResolver",
      "outputs": [
        {
          "internalType": "contract IPriceResolver",
          "name": "",
          "type": "address"
        }
      ],
      "stateMutability": "view",
      "type": "function"
    },
    {
      "inputs": [
        {
          "internalType": "uint8",
          "name": "_id",
          "type": "uint8"
        },
        {
          "internalType": "uint256",
          "name": "_tokenAmount",
          "type": "uint256"
        },
        {
          "internalType": "uint256",
          "name": "_minBaseAmount",
          "type": "uint256"
        },
        {
          "internalType": "uint256",
          "name": "_minPairAmount",
          "type": "uint256"
        }
      ],
      "name": "redeem",
      "outputs": [],
      "stateMutability": "nonpayable",
      "type": "function"
    },
    {
      "inputs": [],
      "name": "redeemFee",
      "outputs": [
        {
          "internalType": "uint256",
          "name": "",
          "type": "uint256"
        }
      ],
      "stateMutability": "view",
      "type": "function"
    },
    {
      "inputs": [
        {
          "internalType": "address",
          "name": "_address",
          "type": "address"
        }
      ],
      "name": "removeAddress",
      "outputs": [],
      "stateMutability": "nonpayable",
      "type": "function"
    },
    {
      "inputs": [],
      "name": "renounceOwnership",
      "outputs": [],
      "stateMutability": "nonpayable",
      "type": "function"
    },
    {
      "inputs": [
        {
          "internalType": "enum NFTManager.ContractState",
          "name": "_state",
          "type": "uint8"
        }
      ],
      "name": "setContractState",
      "outputs": [],
      "stateMutability": "nonpayable",
      "type": "function"
    },
    {
      "inputs": [
        {
          "internalType": "address",
          "name": "_devAddress",
          "type": "address"
        }
      ],
      "name": "setDevAddress",
      "outputs": [],
      "stateMutability": "nonpayable",
      "type": "function"
    },
    {
      "inputs": [
        {
          "internalType": "bool",
          "name": "_active",
          "type": "bool"
        }
      ],
      "name": "setDiscountDisabled",
      "outputs": [],
      "stateMutability": "nonpayable",
      "type": "function"
    },
    {
      "inputs": [
        {
          "internalType": "uint256",
          "name": "_multiplier",
          "type": "uint256"
        }
      ],
      "name": "setMultiplier",
      "outputs": [],
      "stateMutability": "nonpayable",
      "type": "function"
    },
    {
      "inputs": [
        {
          "internalType": "string",
          "name": "_uri",
          "type": "string"
        }
      ],
      "name": "setNftUri",
      "outputs": [],
      "stateMutability": "nonpayable",
      "type": "function"
    },
    {
      "inputs": [
        {
          "internalType": "bool",
          "name": "_active",
          "type": "bool"
        }
      ],
      "name": "setOffsetDisabled",
      "outputs": [],
      "stateMutability": "nonpayable",
      "type": "function"
    },
    {
      "inputs": [
        {
          "internalType": "address",
          "name": "_priceResolverAddress",
          "type": "address"
        }
      ],
      "name": "setPriceResolver",
      "outputs": [],
      "stateMutability": "nonpayable",
      "type": "function"
    },
    {
      "inputs": [
        {
          "internalType": "uint256",
          "name": "_fee",
          "type": "uint256"
        }
      ],
      "name": "setRedeemFee",
      "outputs": [],
      "stateMutability": "nonpayable",
      "type": "function"
    },
    {
      "inputs": [
        {
          "internalType": "address",
          "name": "_syntheticNFT",
          "type": "address"
        }
      ],
      "name": "setSyntheticNFT",
      "outputs": [],
      "stateMutability": "nonpayable",
      "type": "function"
    },
    {
      "inputs": [
        {
          "internalType": "uint8",
          "name": "_id",
          "type": "uint8"
        },
        {
          "internalType": "bool",
          "name": "_disabled",
          "type": "bool"
        }
      ],
      "name": "setSyntheticVariantDisable",
      "outputs": [],
      "stateMutability": "nonpayable",
      "type": "function"
    },
    {
      "inputs": [],
      "name": "state",
      "outputs": [
        {
          "internalType": "enum NFTManager.ContractState",
          "name": "",
          "type": "uint8"
        }
      ],
      "stateMutability": "view",
      "type": "function"
    },
    {
      "inputs": [],
      "name": "syntheticNFT",
      "outputs": [
        {
          "internalType": "contract ISyntheticNFT",
          "name": "",
          "type": "address"
        }
      ],
      "stateMutability": "view",
      "type": "function"
    },
    {
      "inputs": [],
      "name": "syntheticSymbol",
      "outputs": [
        {
          "internalType": "bytes32",
          "name": "",
          "type": "bytes32"
        }
      ],
      "stateMutability": "view",
      "type": "function"
    },
    {
      "inputs": [],
      "name": "syntheticVariantCount",
      "outputs": [
        {
          "internalType": "uint8",
          "name": "",
          "type": "uint8"
        }
      ],
      "stateMutability": "view",
      "type": "function"
    },
    {
      "inputs": [
        {
          "internalType": "uint8",
          "name": "",
          "type": "uint8"
        }
      ],
      "name": "syntheticVariants",
      "outputs": [
        {
          "internalType": "string",
          "name": "name",
          "type": "string"
        },
        {
          "internalType": "uint256",
          "name": "tokenId",
          "type": "uint256"
        },
        {
          "internalType": "uint256",
          "name": "tokenValue",
          "type": "uint256"
        },
        {
          "internalType": "uint256",
          "name": "totalRawCollateral",
          "type": "uint256"
        },
        {
          "internalType": "uint256",
          "name": "totalDebtCollateral",
          "type": "uint256"
        },
        {
          "internalType": "uint256",
          "name": "totalOutstanding",
          "type": "uint256"
        },
        {
          "internalType": "uint256",
          "name": "totalIssued",
          "type": "uint256"
        },
        {
          "internalType": "uint256",
          "name": "totalBurnt",
          "type": "uint256"
        },
        {
          "internalType": "bool",
          "name": "disabled",
          "type": "bool"
        }
      ],
      "stateMutability": "view",
      "type": "function"
    },
    {
      "inputs": [
        {
          "internalType": "uint8",
          "name": "_id",
          "type": "uint8"
        }
      ],
      "name": "targetCollatelizationRatio",
      "outputs": [
        {
          "internalType": "int256",
          "name": "",
          "type": "int256"
        },
        {
          "internalType": "int256",
          "name": "",
          "type": "int256"
        }
      ],
      "stateMutability": "view",
      "type": "function"
    },
    {
      "inputs": [],
      "name": "totalDebtCollateral",
      "outputs": [
        {
          "internalType": "uint256",
          "name": "",
          "type": "uint256"
        }
      ],
      "stateMutability": "view",
      "type": "function"
    },
    {
      "inputs": [],
      "name": "totalOutstanding",
      "outputs": [
        {
          "internalType": "uint256",
          "name": "",
          "type": "uint256"
        }
      ],
      "stateMutability": "view",
      "type": "function"
    },
    {
      "inputs": [],
      "name": "totalRawCollateral",
      "outputs": [
        {
          "internalType": "uint256",
          "name": "",
          "type": "uint256"
        }
      ],
      "stateMutability": "view",
      "type": "function"
    },
    {
      "inputs": [
        {
          "internalType": "address",
          "name": "newOwner",
          "type": "address"
        }
      ],
      "name": "transferOwnership",
      "outputs": [],
      "stateMutability": "nonpayable",
      "type": "function"
    },
    {
      "inputs": [
        {
          "internalType": "uint8",
          "name": "_id",
          "type": "uint8"
        }
      ],
      "name": "variantCollatelizationRatio",
      "outputs": [
        {
          "internalType": "uint256",
          "name": "",
          "type": "uint256"
        }
      ],
      "stateMutability": "view",
      "type": "function"
    },
    {
      "inputs": [
        {
          "internalType": "address",
          "name": "_tokenAddress",
          "type": "address"
        },
        {
          "internalType": "uint256",
          "name": "_amount",
          "type": "uint256"
        }
      ],
      "name": "withdrawErc20",
      "outputs": [],
      "stateMutability": "nonpayable",
      "type": "function"
    }
  ],
  "transactionHash": "0x67ace4d542193b345f9d5aa7be9656fa6192580dc7964c5e3750e90a7fc40d45",
  "args": [],
  "solcInputHash": "10dfbe4ed68b85e88ef67ca1c7827bfc",
  "bytecode": "0x6080604052670de0b6b3a764000060a65534801561001c57600080fd5b50615e21806200002d6000396000f3fe608060405234801561001057600080fd5b50600436106102a05760003560e01c8063759da3d111610167578063c19d93fb116100ce578063e26cdf2b11610087578063e26cdf2b146109f1578063ea12671c14610a10578063ea3aef5214610a18578063eda0701414610a20578063f2fde38b14610af2578063f7b4c18714610b18576102a0565b8063c19d93fb1461091c578063d0d41fe114610945578063d332ef431461096b578063d49de602146109a4578063d8e6e79b146109ac578063db3e2ecb146109d2576102a0565b80639e1d8644116101205780639e1d86441461081c578063b630d27914610848578063b94a6dfe14610894578063b97998481461089c578063bd1f4b52146108c4578063bdf46087146108f0576102a0565b8063759da3d1146107ac57806377ce33b3146107b45780637f377a73146107d2578063848374ec146107da5780638da5cb5b1461080c578063965fa21e14610814576102a0565b80633ad10ef61161020b57806351289539116101c457806351289539146106035780635d841af51461060b578063641579a61461062857806367b577641461064557806369e69bc31461064d578063715018a6146107a4576102a0565b80633ad10ef6146105975780633af32abf1461059f5780633f3d7db6146105c557806348a6fbd7146105cd5780634ba79dfe146105d55780634e15afdc146105fb576102a0565b8063237cfae81161025d578063237cfae8146103ba57806323cdcf151461046357806329e78dc0146104875780632a751e42146104a757806338c86f321461054b57806338eada1c14610571576102a0565b806306fdde03146102a5578063105de9451461032257806311ab3b341461034a57806316078d04146103665780631a1062d0146103805780631b3ed722146103b2575b600080fd5b6102ad610b38565b6040805160208082528351818301528351919283929083019185019080838360005b838110156102e75781810151838201526020016102cf565b50505050905090810190601f1680156103145780820380516001836020036101000a031916815260200191505b509250505060405180910390f35b6103486004803603602081101561033857600080fd5b50356001600160a01b0316610bc6565b005b610352610cd5565b604080519115158252519081900360200190f35b61036e610ce3565b60408051918252519081900360200190f35b6103486004803603608081101561039657600080fd5b5060ff8135169060208101359060408101359060600135610ce9565b61036e6118f8565b610348600480360360608110156103d057600080fd5b810190602081018135600160201b8111156103ea57600080fd5b8201836020820111156103fc57600080fd5b803590602001918460018302840111600160201b8311171561041d57600080fd5b91908080601f01602080910402602001604051908101604052809392919081815260200183838082843760009201919091525092955050823593505050602001356118fe565b61046b611a0e565b604080516001600160a01b039092168252519081900360200190f35b61036e6004803603602081101561049d57600080fd5b503560ff16611a1d565b610348600480360360208110156104bd57600080fd5b810190602081018135600160201b8111156104d757600080fd5b8201836020820111156104e957600080fd5b803590602001918460018302840111600160201b8311171561050a57600080fd5b91908080601f016020809104026020016040519081016040528093929190818152602001838380828437600092019190915250929550611ac9945050505050565b6103486004803603602081101561056157600080fd5b50356001600160a01b0316611c34565b6103486004803603602081101561058757600080fd5b50356001600160a01b0316611d00565b61046b611da2565b610352600480360360208110156105b557600080fd5b50356001600160a01b0316611db1565b61036e611dcf565b61036e611dd5565b610348600480360360208110156105eb57600080fd5b50356001600160a01b0316611ddb565b61046b611e76565b61036e611e8a565b6103486004803603602081101561062157600080fd5b5035611e90565b6103486004803603602081101561063e57600080fd5b5035611f39565b61036e612029565b610348600480360361010081101561066457600080fd5b810190602081018135600160201b81111561067e57600080fd5b82018360208201111561069057600080fd5b803590602001918460018302840111600160201b831117156106b157600080fd5b91908080601f0160208091040260200160405190810160405280939291908181526020018383808284376000920191909152509295949360208101935035915050600160201b81111561070357600080fd5b82018360208201111561071557600080fd5b803590602001918460018302840111600160201b8311171561073657600080fd5b91908080601f016020809104026020016040519081016040528093929190818152602001838380828437600092019190915250929550505081356001600160a01b039081169350602083013581169260408101359250606081013591608082013581169160a0013516612094565b6103486124e4565b61046b612590565b6107bc61259f565b6040805160ff9092168252519081900360200190f35b61036e6125a8565b610348600480360360808110156107f057600080fd5b5060ff81351690602081013590604081013590606001356126ef565b61046b612d12565b61036e612d21565b6103486004803603606081101561083257600080fd5b5060ff8135169060208101359060400135612d27565b61086e6004803603604081101561085e57600080fd5b5060ff81351690602001356130b1565b604080519485526020850193909352838301919091526060830152519081900360800190f35b61046b613209565b610348600480360360408110156108b257600080fd5b5060ff81351690602001351515613218565b610348600480360360408110156108da57600080fd5b506001600160a01b038135169060200135613334565b6103486004803603606081101561090657600080fd5b5060ff8135169060208101359060400135613457565b610924613823565b6040518082600381111561093457fe5b815260200191505060405180910390f35b6103486004803603602081101561095b57600080fd5b50356001600160a01b031661382c565b61098b6004803603602081101561098157600080fd5b503560ff166138f2565b6040805192835260208301919091528051918290030190f35b61036e613962565b61086e600480360360408110156109c257600080fd5b5060ff8135169060200135613a8e565b610348600480360360208110156109e857600080fd5b50351515613bd4565b61034860048036036020811015610a0757600080fd5b50351515613c92565b610352613d49565b61036e613d52565b610a4060048036036020811015610a3657600080fd5b503560ff16613d58565b60405180806020018a8152602001898152602001888152602001878152602001868152602001858152602001848152602001831515815260200182810382528b818151815260200191508051906020019080838360005b83811015610aaf578181015183820152602001610a97565b50505050905090810190601f168015610adc5780820380516001836020036101000a031916815260200191505b509a505050505050505050505060405180910390f35b61034860048036036020811015610b0857600080fd5b50356001600160a01b0316613e2f565b61034860048036036020811015610b2e57600080fd5b503560ff16613f32565b6098805460408051602060026001851615610100026000190190941693909304601f81018490048402820184019092528181529291830182828015610bbe5780601f10610b9357610100808354040283529160200191610bbe565b820191906000526020600020905b815481529060010190602001808311610ba157829003601f168201915b505050505081565b60026001541415610c0c576040805162461bcd60e51b815260206004820152601f6024820152600080516020615c63833981519152604482015290519081900360640190fd5b60026001556000610c1b613ff7565b9050610c2681611db1565b610c65576040805162461bcd60e51b81526020600482018190526024820152600080516020615d60833981519152604482015290519081900360640190fd5b6001600160a01b038216610cae576040805162461bcd60e51b815260206004820152600b60248201526a216164647265737328302960a81b604482015290519081900360640190fd5b50609a80546001600160a01b0319166001600160a01b039290921691909117905560018055565b60a554610100900460ff1681565b60a25481565b60026001541415610d2f576040805162461bcd60e51b815260206004820152601f6024820152600080516020615c63833981519152604482015290519081900360640190fd5b6002600190815560995460ff166003811115610d4757fe5b14610d99576040805162461bcd60e51b815260206004820152601b60248201527f436f6e7472616374207374617465206973206e6f742072656164790000000000604482015290519081900360640190fd5b609f548490849060ff808416911611610ded576040805162461bcd60e51b8152602060048201526011602482015270125b9d985b1a590819da5d995b8817da59607a1b604482015290519081900360640190fd5b60ff8083166000908152609e60205260409020600801541615610e45576040805162461bcd60e51b81526020600482015260196024820152600080516020615cec833981519152604482015290519081900360640190fd5b80610e85576040805162461bcd60e51b815260206004820152601a6024820152600080516020615da2833981519152604482015290519081900360640190fd5b8060641015610ecc576040805162461bcd60e51b815260206004820152600e60248201526d115e18d959590813505617d3919560921b604482015290519081900360640190fd5b6000610ed88787613ffb565b5092505050610ee887828861416c565b609a5460ff88166000908152609e60205260408120600101546001600160a01b039092169163f242432a91339130918b90610f2290614346565b6040518663ffffffff1660e01b815260040180866001600160a01b03168152602001856001600160a01b0316815260200184815260200183815260200180602001828103825283818151815260200191508051906020019080838360005b83811015610f98578181015183820152602001610f80565b50505050905090810190601f168015610fc55780820380516001836020036101000a031916815260200191505b509650505050505050600060405180830381600087803b158015610fe857600080fd5b505af1158015610ffc573d6000803e3d6000fd5b5050609a5460ff8a166000908152609e6020526040808220600101548151637a94c56560e11b81523060048201526024810191909152604481018c905290516001600160a01b03909316945063f5298aca93506064808201939182900301818387803b15801561106b57600080fd5b505af115801561107f573d6000803e3d6000fd5b505060a754609b5460408051630dfe168160e01b81529051600095508594506001600160a01b039384169363baa2abde931691630dfe1681916004808301926020929190829003018186803b1580156110d757600080fd5b505afa1580156110eb573d6000803e3d6000fd5b505050506040513d602081101561110157600080fd5b5051609b546040805163d21220a760e01b815290516001600160a01b039092169163d21220a791600480820192602092909190829003018186803b15801561114857600080fd5b505afa15801561115c573d6000803e3d6000fd5b505050506040513d602081101561117257600080fd5b5051604080516001600160e01b031960e086901b1681526001600160a01b03938416600482015292909116602483015260448201879052606482018b9052608482018a90523060a483015262015180420160c4830152805160e4808401938290030181600087803b1580156111e657600080fd5b505af11580156111fa573d6000803e3d6000fd5b505050506040513d604081101561121057600080fd5b508051602090910151909250905086821015611273576040805162461bcd60e51b815260206004820152601d60248201527f5f6d696e42617365416d6f756e74206973206e6f742072656163686564000000604482015290519081900360640190fd5b858110156112c8576040805162461bcd60e51b815260206004820152601d60248201527f5f6d696e50616972416d6f756e74206973206e6f742072656163686564000000604482015290519081900360640190fd5b60a454156117035760006112f36127106112ed60a4548661437090919063ffffffff16565b906143e8565b905060006113126127106112ed60a4548661437090919063ffffffff16565b9050609b60009054906101000a90046001600160a01b03166001600160a01b0316630dfe16816040518163ffffffff1660e01b815260040160206040518083038186803b15801561136257600080fd5b505afa158015611376573d6000803e3d6000fd5b505050506040513d602081101561138c57600080fd5b50516001600160a01b031663a9059cbb336113a78786614447565b6040518363ffffffff1660e01b815260040180836001600160a01b0316815260200182815260200192505050602060405180830381600087803b1580156113ed57600080fd5b505af1158015611401573d6000803e3d6000fd5b505050506040513d602081101561141757600080fd5b5050609b546040805163d21220a760e01b815290516001600160a01b039092169163d21220a791600480820192602092909190829003018186803b15801561145e57600080fd5b505afa158015611472573d6000803e3d6000fd5b505050506040513d602081101561148857600080fd5b50516001600160a01b031663a9059cbb336114a38685614447565b6040518363ffffffff1660e01b815260040180836001600160a01b0316815260200182815260200192505050602060405180830381600087803b1580156114e957600080fd5b505af11580156114fd573d6000803e3d6000fd5b505050506040513d602081101561151357600080fd5b5050609b5460408051630dfe168160e01b815290516001600160a01b0390921691630dfe168191600480820192602092909190829003018186803b15801561155a57600080fd5b505afa15801561156e573d6000803e3d6000fd5b505050506040513d602081101561158457600080fd5b505160a3546040805163a9059cbb60e01b81526001600160a01b039283166004820152602481018690529051919092169163a9059cbb9160448083019260209291908290030181600087803b1580156115dc57600080fd5b505af11580156115f0573d6000803e3d6000fd5b505050506040513d602081101561160657600080fd5b5050609b546040805163d21220a760e01b815290516001600160a01b039092169163d21220a791600480820192602092909190829003018186803b15801561164d57600080fd5b505afa158015611661573d6000803e3d6000fd5b505050506040513d602081101561167757600080fd5b505160a3546040805163a9059cbb60e01b81526001600160a01b039283166004820152602481018590529051919092169163a9059cbb9160448083019260209291908290030181600087803b1580156116cf57600080fd5b505af11580156116e3573d6000803e3d6000fd5b505050506040513d60208110156116f957600080fd5b506118e992505050565b609b60009054906101000a90046001600160a01b03166001600160a01b0316630dfe16816040518163ffffffff1660e01b815260040160206040518083038186803b15801561175157600080fd5b505afa158015611765573d6000803e3d6000fd5b505050506040513d602081101561177b57600080fd5b50516040805163a9059cbb60e01b81523360048201526024810185905290516001600160a01b039092169163a9059cbb916044808201926020929091908290030181600087803b1580156117ce57600080fd5b505af11580156117e2573d6000803e3d6000fd5b505050506040513d60208110156117f857600080fd5b5050609b546040805163d21220a760e01b815290516001600160a01b039092169163d21220a791600480820192602092909190829003018186803b15801561183f57600080fd5b505afa158015611853573d6000803e3d6000fd5b505050506040513d602081101561186957600080fd5b50516040805163a9059cbb60e01b81523360048201526024810184905290516001600160a01b039092169163a9059cbb916044808201926020929091908290030181600087803b1580156118bc57600080fd5b505af11580156118d0573d6000803e3d6000fd5b505050506040513d60208110156118e657600080fd5b50505b50506001805550505050505050565b60a65481565b60026001541415611944576040805162461bcd60e51b815260206004820152601f6024820152600080516020615c63833981519152604482015290519081900360640190fd5b60026001556000611953613ff7565b905061195e81611db1565b61199d576040805162461bcd60e51b81526020600482018190526024820152600080516020615d60833981519152604482015290519081900360640190fd5b609f5460ff166000908152609e6020908152604090912085516119c292870190615bd8565b5050609f805460ff9081166000908152609e6020526040808220600190810196909655835483168252902060020192909255805460ff1981169083168401909216919091179055805550565b609a546001600160a01b031681565b609f5460009060ff808416911611611a70576040805162461bcd60e51b8152602060048201526011602482015270125b9d985b1a590819da5d995b8817da59607a1b604482015290519081900360640190fd5b60ff82166000908152609e602052604090206003015415611ab95760ff82166000908152609e602052604090206003810154600590910154611ab2919061449d565b9050611ac4565b50670de0b6b3a76400005b919050565b60026001541415611b0f576040805162461bcd60e51b815260206004820152601f6024820152600080516020615c63833981519152604482015290519081900360640190fd5b60026001556000611b1e613ff7565b9050611b2981611db1565b611b68576040805162461bcd60e51b81526020600482018190526024820152600080516020615d60833981519152604482015290519081900360640190fd5b609a54604051639b642de160e01b81526020600482018181528551602484015285516001600160a01b0390941693639b642de193879383926044909201919085019080838360005b83811015611bc8578181015183820152602001611bb0565b50505050905090810190601f168015611bf55780820380516001836020036101000a031916815260200191505b5092505050600060405180830381600087803b158015611c1457600080fd5b505af1158015611c28573d6000803e3d6000fd5b50506001805550505050565b60026001541415611c7a576040805162461bcd60e51b815260206004820152601f6024820152600080516020615c63833981519152604482015290519081900360640190fd5b60026001556000611c89613ff7565b9050611c9481611db1565b611cd3576040805162461bcd60e51b81526020600482018190526024820152600080516020615d60833981519152604482015290519081900360640190fd5b50609980546001600160a01b0390921661010002610100600160a81b031990921691909117905560018055565b6000611d0a613ff7565b9050611d1581611db1565b611d54576040805162461bcd60e51b81526020600482018190526024820152600080516020615d60833981519152604482015290519081900360640190fd5b6001600160a01b03821660009081526097602052604090205460ff1615611d7a57611d9e565b6001600160a01b0382166000908152609760205260409020805460ff191660011790555b5050565b60a3546001600160a01b031681565b6001600160a01b031660009081526097602052604090205460ff1690565b60a05481565b609d5481565b6000611de5613ff7565b9050611df081611db1565b611e2f576040805162461bcd60e51b81526020600482018190526024820152600080516020615d60833981519152604482015290519081900360640190fd5b6001600160a01b03821660009081526097602052604090205460ff16611e5457611d9e565b506001600160a01b03166000908152609760205260409020805460ff19169055565b60995461010090046001600160a01b031681565b609c5481565b60026001541415611ed6576040805162461bcd60e51b815260206004820152601f6024820152600080516020615c63833981519152604482015290519081900360640190fd5b60026001556000611ee5613ff7565b9050611ef081611db1565b611f2f576040805162461bcd60e51b81526020600482018190526024820152600080516020615d60833981519152604482015290519081900360640190fd5b5060a45560018055565b60026001541415611f7f576040805162461bcd60e51b815260206004820152601f6024820152600080516020615c63833981519152604482015290519081900360640190fd5b60026001556000611f8e613ff7565b9050611f9981611db1565b611fd8576040805162461bcd60e51b81526020600482018190526024820152600080516020615d60833981519152604482015290519081900360640190fd5b6706f05b59d3b2000082101561201f5760405162461bcd60e51b8152600401808060200182810382526021815260200180615ccb6021913960400191505060405180910390fd5b5060a65560018055565b60008060a05411612081576040805162461bcd60e51b815260206004820152601e60248201527f4e6f20636f6c6c61746572616c7320696e2074686520636f6e74726163740000604482015290519081900360640190fd5b61208f60a05460a25461449d565b905090565b600054610100900460ff16806120ad57506120ad6145fb565b806120bb575060005460ff16155b6120f65760405162461bcd60e51b815260040180806020018281038252602e815260200180615d32602e913960400191505060405180910390fd5b600054610100900460ff16158015612121576000805460ff1961ff0019909116610100171660011790555b61212961460c565b6121316146b6565b88516121449060989060208c0190615bd8565b50609d84905560998054609b80546001600160a01b03199081166001600160a01b038b811691909117909255609c8990556001600160a81b03199092166101008b8316021790925560a78054821686841617905561012c60a45560a380549091169184169190911790556121b782611d00565b6001600160a01b03821633146121d0576121d033611d00565b609b5460408051630dfe168160e01b815290516000926001600160a01b031691630dfe1681916004808301926020929190829003018186803b15801561221557600080fd5b505afa158015612229573d6000803e3d6000fd5b505050506040513d602081101561223f57600080fd5b50516001600160a01b0316146124c757609b60009054906101000a90046001600160a01b03166001600160a01b0316630dfe16816040518163ffffffff1660e01b815260040160206040518083038186803b15801561229d57600080fd5b505afa1580156122b1573d6000803e3d6000fd5b505050506040513d60208110156122c757600080fd5b505160a7546040805163095ea7b360e01b81526001600160a01b03928316600482015260001960248201529051919092169163095ea7b39160448083019260209291908290030181600087803b15801561232057600080fd5b505af1158015612334573d6000803e3d6000fd5b505050506040513d602081101561234a57600080fd5b5050609b546040805163d21220a760e01b815290516001600160a01b039092169163d21220a791600480820192602092909190829003018186803b15801561239157600080fd5b505afa1580156123a5573d6000803e3d6000fd5b505050506040513d60208110156123bb57600080fd5b505160a7546040805163095ea7b360e01b81526001600160a01b03928316600482015260001960248201529051919092169163095ea7b39160448083019260209291908290030181600087803b15801561241457600080fd5b505af1158015612428573d6000803e3d6000fd5b505050506040513d602081101561243e57600080fd5b5050609b5460a7546040805163095ea7b360e01b81526001600160a01b03928316600482015260001960248201529051919092169163095ea7b39160448083019260209291908290030181600087803b15801561249a57600080fd5b505af11580156124ae573d6000803e3d6000fd5b505050506040513d60208110156124c457600080fd5b50505b80156124d9576000805461ff00191690555b505050505050505050565b6124ec613ff7565b6001600160a01b03166124fd612d12565b6001600160a01b031614612546576040805162461bcd60e51b81526020600482018190526024820152600080516020615d60833981519152604482015290519081900360640190fd5b6065546040516000916001600160a01b0316907f8be0079c531659141344cd1fd0a4f28419497f9722a3daafe3b4186f6b6457e0908390a3606580546001600160a01b0319169055565b609b546001600160a01b031681565b609f5460ff1681565b609954609c5460408051636a93856760e01b815260048101929092525160009261010090046001600160a01b031691636a938567916024808301926020929190829003018186803b1580156125fc57600080fd5b505afa158015612610573d6000803e3d6000fd5b505050506040513d602081101561262657600080fd5b50516126635760405162461bcd60e51b8152600401808060200182810382526022815260200180615d806022913960400191505060405180910390fd5b609960019054906101000a90046001600160a01b03166001600160a01b031663161e444e609c546040518263ffffffff1660e01b81526004018082815260200191505060206040518083038186803b1580156126be57600080fd5b505afa1580156126d2573d6000803e3d6000fd5b505050506040513d60208110156126e857600080fd5b5051905090565b60026001541415612735576040805162461bcd60e51b815260206004820152601f6024820152600080516020615c63833981519152604482015290519081900360640190fd5b6002600190815560995460ff16600381111561274d57fe5b1461279f576040805162461bcd60e51b815260206004820152601b60248201527f436f6e7472616374207374617465206973206e6f742072656164790000000000604482015290519081900360640190fd5b609f548490849060ff8084169116116127f3576040805162461bcd60e51b8152602060048201526011602482015270125b9d985b1a590819da5d995b8817da59607a1b604482015290519081900360640190fd5b60ff8083166000908152609e6020526040902060080154161561284b576040805162461bcd60e51b81526020600482015260196024820152600080516020615cec833981519152604482015290519081900360640190fd5b8061288b576040805162461bcd60e51b815260206004820152601a6024820152600080516020615da2833981519152604482015290519081900360640190fd5b80606410156128d2576040805162461bcd60e51b815260206004820152600e60248201526d115e18d959590813505617d3919560921b604482015290519081900360640190fd5b6000806128df888861478c565b5050915091508186101561293a576040805162461bcd60e51b815260206004820152601860248201527f457863656564696e67205f6d617842617365416d6f756e740000000000000000604482015290519081900360640190fd5b8085101561298f576040805162461bcd60e51b815260206004820152601860248201527f457863656564696e67205f6d617850616972416d6f756e740000000000000000604482015290519081900360640190fd5b612a20333084609b60009054906101000a90046001600160a01b03166001600160a01b0316630dfe16816040518163ffffffff1660e01b815260040160206040518083038186803b1580156129e357600080fd5b505afa1580156129f7573d6000803e3d6000fd5b505050506040513d6020811015612a0d57600080fd5b50516001600160a01b031692919061488c565b612a74333083609b60009054906101000a90046001600160a01b03166001600160a01b031663d21220a76040518163ffffffff1660e01b815260040160206040518083038186803b1580156129e357600080fd5b60a754609b5460408051630dfe168160e01b815290516000936001600160a01b039081169363e8e3370093911691630dfe168191600480820192602092909190829003018186803b158015612ac857600080fd5b505afa158015612adc573d6000803e3d6000fd5b505050506040513d6020811015612af257600080fd5b5051609b546040805163d21220a760e01b815290516001600160a01b039092169163d21220a791600480820192602092909190829003018186803b158015612b3957600080fd5b505afa158015612b4d573d6000803e3d6000fd5b505050506040513d6020811015612b6357600080fd5b5051604080516001600160e01b031960e086901b1681526001600160a01b039384166004820152929091166024830152604482018790526064820186905260006084830181905260a483018190523060c484015262015180420160e48401529051610104808401936060939083900390910190829087803b158015612be757600080fd5b505af1158015612bfb573d6000803e3d6000fd5b505050506040513d6060811015612c1157600080fd5b50604001519050612c2389828a6148ec565b609a5460ff8a166000908152609e60205260408120600101546001600160a01b039092169163731133e9913391908c90612c5c90614346565b6040518563ffffffff1660e01b815260040180856001600160a01b0316815260200184815260200183815260200180602001828103825283818151815260200191508051906020019080838360005b83811015612cc3578181015183820152602001612cab565b50505050905090810190601f168015612cf05780820380516001836020036101000a031916815260200191505b5095505050505050602060405180830381600087803b1580156118bc57600080fd5b6065546001600160a01b031690565b60a45481565b60026001541415612d6d576040805162461bcd60e51b815260206004820152601f6024820152600080516020615c63833981519152604482015290519081900360640190fd5b60026001556000612d7c613ff7565b9050612d8781611db1565b612dc6576040805162461bcd60e51b81526020600482018190526024820152600080516020615d60833981519152604482015290519081900360640190fd5b609f548490839060ff808416911611612e1a576040805162461bcd60e51b8152602060048201526011602482015270125b9d985b1a590819da5d995b8817da59607a1b604482015290519081900360640190fd5b60ff8083166000908152609e60205260409020600801541615612e72576040805162461bcd60e51b81526020600482015260196024820152600080516020615cec833981519152604482015290519081900360640190fd5b80612eb2576040805162461bcd60e51b815260206004820152601a6024820152600080516020615da2833981519152604482015290519081900360640190fd5b8060641015612ef9576040805162461bcd60e51b815260206004820152600e60248201526d115e18d959590813505617d3919560921b604482015290519081900360640190fd5b612f048686866148ec565b609b54604080516323b872dd60e01b81523360048201523060248201526044810188905290516001600160a01b03909216916323b872dd916064808201926020929091908290030181600087803b158015612f5e57600080fd5b505af1158015612f72573d6000803e3d6000fd5b505050506040513d6020811015612f8857600080fd5b5050609a5460ff87166000908152609e60205260408120600101546001600160a01b039092169163731133e9913391908890612fc390614346565b6040518563ffffffff1660e01b815260040180856001600160a01b0316815260200184815260200183815260200180602001828103825283818151815260200191508051906020019080838360005b8381101561302a578181015183820152602001613012565b50505050905090810190601f1680156130575780820380516001836020036101000a031916815260200191505b5095505050505050602060405180830381600087803b15801561307957600080fd5b505af115801561308d573d6000803e3d6000fd5b505050506040513d60208110156130a357600080fd5b505060018055505050505050565b609f546000908190819081908690869060ff80841691161161310e576040805162461bcd60e51b8152602060048201526011602482015270125b9d985b1a590819da5d995b8817da59607a1b604482015290519081900360640190fd5b60ff8083166000908152609e60205260409020600801541615613166576040805162461bcd60e51b81526020600482015260196024820152600080516020615cec833981519152604482015290519081900360640190fd5b806131a6576040805162461bcd60e51b815260206004820152601a6024820152600080516020615da2833981519152604482015290519081900360640190fd5b80606410156131ed576040805162461bcd60e51b815260206004820152600e60248201526d115e18d959590813505617d3919560921b604482015290519081900360640190fd5b6131f78888613ffb565b929b919a509850909650945050505050565b60a7546001600160a01b031681565b6002600154141561325e576040805162461bcd60e51b815260206004820152601f6024820152600080516020615c63833981519152604482015290519081900360640190fd5b6002600155600061326d613ff7565b905061327881611db1565b6132b7576040805162461bcd60e51b81526020600482018190526024820152600080516020615d60833981519152604482015290519081900360640190fd5b609f5460ff808516911611613307576040805162461bcd60e51b8152602060048201526011602482015270125b9d985b1a590819da5d995b8817da59607a1b604482015290519081900360640190fd5b5060ff919091166000908152609e60205260409020600801805460ff191691151591909117905560018055565b6002600154141561337a576040805162461bcd60e51b815260206004820152601f6024820152600080516020615c63833981519152604482015290519081900360640190fd5b60026001556000613389613ff7565b905061339481611db1565b6133d3576040805162461bcd60e51b81526020600482018190526024820152600080516020615d60833981519152604482015290519081900360640190fd5b6040805163a9059cbb60e01b81523360048201526024810184905290516001600160a01b0385169163a9059cbb9160448083019260209291908290030181600087803b15801561342257600080fd5b505af1158015613436573d6000803e3d6000fd5b505050506040513d602081101561344c57600080fd5b505060018055505050565b6002600154141561349d576040805162461bcd60e51b815260206004820152601f6024820152600080516020615c63833981519152604482015290519081900360640190fd5b600260015560006134ac613ff7565b90506134b781611db1565b6134f6576040805162461bcd60e51b81526020600482018190526024820152600080516020615d60833981519152604482015290519081900360640190fd5b609f548490839060ff80841691161161354a576040805162461bcd60e51b8152602060048201526011602482015270125b9d985b1a590819da5d995b8817da59607a1b604482015290519081900360640190fd5b60ff8083166000908152609e602052604090206008015416156135a2576040805162461bcd60e51b81526020600482015260196024820152600080516020615cec833981519152604482015290519081900360640190fd5b806135e2576040805162461bcd60e51b815260206004820152601a6024820152600080516020615da2833981519152604482015290519081900360640190fd5b8060641015613629576040805162461bcd60e51b815260206004820152600e60248201526d115e18d959590813505617d3919560921b604482015290519081900360640190fd5b61363486868661416c565b609a5460ff87166000908152609e60205260408120600101546001600160a01b039092169163f242432a9133913091899061366e90614346565b6040518663ffffffff1660e01b815260040180866001600160a01b03168152602001856001600160a01b0316815260200184815260200183815260200180602001828103825283818151815260200191508051906020019080838360005b838110156136e45781810151838201526020016136cc565b50505050905090810190601f1680156137115780820380516001836020036101000a031916815260200191505b509650505050505050600060405180830381600087803b15801561373457600080fd5b505af1158015613748573d6000803e3d6000fd5b5050609a5460ff89166000908152609e6020526040808220600101548151637a94c56560e11b81523060048201526024810191909152604481018a905290516001600160a01b03909316945063f5298aca93506064808201939182900301818387803b1580156137b757600080fd5b505af11580156137cb573d6000803e3d6000fd5b5050609b546040805163a9059cbb60e01b8152336004820152602481018a905290516001600160a01b03909216935063a9059cbb92506044808201926020929091908290030181600087803b15801561307957600080fd5b60995460ff1681565b60026001541415613872576040805162461bcd60e51b815260206004820152601f6024820152600080516020615c63833981519152604482015290519081900360640190fd5b60026001556000613881613ff7565b905061388c81611db1565b6138cb576040805162461bcd60e51b81526020600482018190526024820152600080516020615d60833981519152604482015290519081900360640190fd5b5060a380546001600160a01b0319166001600160a01b039290921691909117905560018055565b609f54600090819060ff808516911611613947576040805162461bcd60e51b8152602060048201526011602482015270125b9d985b1a590819da5d995b8817da59607a1b604482015290519081900360640190fd5b61395083614a29565b61395984614a84565b91509150915091565b609954609d5460408051636a93856760e01b815260048101929092525160009261010090046001600160a01b031691636a938567916024808301926020929190829003018186803b1580156139b657600080fd5b505afa1580156139ca573d6000803e3d6000fd5b505050506040513d60208110156139e057600080fd5b5051613a33576040805162461bcd60e51b815260206004820152601c60248201527f73796e74686574696353796d626f6c206973206e6f742076616c696400000000604482015290519081900360640190fd5b609960019054906101000a90046001600160a01b03166001600160a01b031663161e444e609d546040518263ffffffff1660e01b81526004018082815260200191505060206040518083038186803b1580156126be57600080fd5b609f546000908190819081908690869060ff808416911611613aeb576040805162461bcd60e51b8152602060048201526011602482015270125b9d985b1a590819da5d995b8817da59607a1b604482015290519081900360640190fd5b60ff8083166000908152609e60205260409020600801541615613b43576040805162461bcd60e51b81526020600482015260196024820152600080516020615cec833981519152604482015290519081900360640190fd5b80613b83576040805162461bcd60e51b815260206004820152601a6024820152600080516020615da2833981519152604482015290519081900360640190fd5b8060641015613bca576040805162461bcd60e51b815260206004820152600e60248201526d115e18d959590813505617d3919560921b604482015290519081900360640190fd5b6131f7888861478c565b60026001541415613c1a576040805162461bcd60e51b815260206004820152601f6024820152600080516020615c63833981519152604482015290519081900360640190fd5b60026001556000613c29613ff7565b9050613c3481611db1565b613c73576040805162461bcd60e51b81526020600482018190526024820152600080516020615d60833981519152604482015290519081900360640190fd5b5060a580549115156101000261ff001990921691909117905560018055565b60026001541415613cd8576040805162461bcd60e51b815260206004820152601f6024820152600080516020615c63833981519152604482015290519081900360640190fd5b60026001556000613ce7613ff7565b9050613cf281611db1565b613d31576040805162461bcd60e51b81526020600482018190526024820152600080516020615d60833981519152604482015290519081900360640190fd5b5060a5805460ff191691151591909117905560018055565b60a55460ff1681565b60a15481565b609e6020908152600091825260409182902080548351601f60026000196101006001861615020190931692909204918201849004840281018401909452808452909291839190830182828015613def5780601f10613dc457610100808354040283529160200191613def565b820191906000526020600020905b815481529060010190602001808311613dd257829003601f168201915b50505060018401546002850154600386015460048701546005880154600689015460078a01546008909a0154989995989497509295509093909260ff1689565b613e37613ff7565b6001600160a01b0316613e48612d12565b6001600160a01b031614613e91576040805162461bcd60e51b81526020600482018190526024820152600080516020615d60833981519152604482015290519081900360640190fd5b6001600160a01b038116613ed65760405162461bcd60e51b8152600401808060200182810382526026815260200180615c836026913960400191505060405180910390fd5b6065546040516001600160a01b038084169216907f8be0079c531659141344cd1fd0a4f28419497f9722a3daafe3b4186f6b6457e090600090a3606580546001600160a01b0319166001600160a01b0392909216919091179055565b60026001541415613f78576040805162461bcd60e51b815260206004820152601f6024820152600080516020615c63833981519152604482015290519081900360640190fd5b60026001556000613f87613ff7565b9050613f9281611db1565b613fd1576040805162461bcd60e51b81526020600482018190526024820152600080516020615d60833981519152604482015290519081900360640190fd5b6099805483919060ff19166001836003811115613fea57fe5b0217905550506001805550565b3390565b60008060008061400b8686614acf565b91955093509150600061401d87614a29565b905080670de0b6b3a7640000141580156140375750600081135b8015614046575060a55460ff16155b156141625760ff87166000908152609e602052604081206003015461406b9085614447565b60ff89166000908152609e6020526040812060020154919250906140ba9083906140b590614099908c614370565b60ff8d166000908152609e602052604090206005015490614447565b61449d565b905060006140db826140d5856140cf88614f22565b90614f6c565b90614fa5565b90508281111561412e5760ff8a166000908152609e60205260409020600301546141149061410a908890614fa5565b6140cf8386614447565b945061412b60a65486614f6c90919063ffffffff16565b94505b600061413a8787614447565b905061414a876112ed8b84614370565b985061415a876112ed8a84614370565b975095505050505b5092959194509250565b60ff83166000908152609e60205260409020600201546141ac906141909083614370565b60ff85166000908152609e602052604090206005015490614447565b60ff84166000908152609e602052604090206005810191909155600701546141d49082614fc5565b60ff84166000908152609e602052604090206007810191909155600301548211156142715760ff83166000908152609e602052604081206003015461421a908490614447565b60ff85166000908152609e602052604090206004015490915061423d9082614fc5565b60ff85166000908152609e602052604090206004015560a1546142609082614fc5565b60a15561426d8382614447565b9250505b60ff83166000908152609e60205260409020600301546142919083614447565b60ff84166000818152609e60209081526040918290206003810194909455600290930154815133815293840192909252828101919091526060820184905260808201839052517f1d52264c290e444923399d71f1a1d34e37e52c16b4e85326d5accce8653f709f9181900360a00190a160a05461430e9083614447565b60a05560ff83166000908152609e602052604090206002015461433e906143359083614370565b60a25490614447565b60a255505050565b60408051602080825281830190925260609160208201818036833750505060208101929092525090565b60008261437f575060006143e2565b8282028284828161438c57fe5b04146143df576040805162461bcd60e51b815260206004820152601960248201527f556e6d756c7469706c69636174696f6e206f766572666c6f7700000000000000604482015290519081900360640190fd5b90505b92915050565b6000808211614433576040805162461bcd60e51b8152602060048201526012602482015271556e6469766973696f6e206279207a65726f60701b604482015290519081900360640190fd5b600082848161443e57fe5b04949350505050565b600082821115614497576040805162461bcd60e51b8152602060048201526016602482015275556e7375627472616374696f6e206f766572666c6f7760501b604482015290519081900360640190fd5b50900390565b600080609960019054906101000a90046001600160a01b03166001600160a01b031663161e444e609c546040518263ffffffff1660e01b81526004018082815260200191505060206040518083038186803b1580156144fb57600080fd5b505afa15801561450f573d6000803e3d6000fd5b505050506040513d602081101561452557600080fd5b5051609954609d5460408051630b0f222760e11b81526004810192909252519293506000926101009092046001600160a01b03169163161e444e91602480820192602092909190829003018186803b15801561458057600080fd5b505afa158015614594573d6000803e3d6000fd5b505050506040513d60208110156145aa57600080fd5b5051905060006145ba8387614f6c565b905060006145c88387614f6c565b905060006145e36145d98989614fa5565b6140cf8787614fa5565b90506145ef8383614fa5565b98975050505050505050565b600061460630615015565b15905090565b600054610100900460ff168061462557506146256145fb565b80614633575060005460ff16155b61466e5760405162461bcd60e51b815260040180806020018281038252602e815260200180615d32602e913960400191505060405180910390fd5b600054610100900460ff16158015614699576000805460ff1961ff0019909116610100171660011790555b6146a161501b565b80156146b3576000805461ff00191690555b50565b600054610100900460ff16806146cf57506146cf6145fb565b806146dd575060005460ff16155b6147185760405162461bcd60e51b815260040180806020018281038252602e815260200180615d32602e913960400191505060405180910390fd5b600054610100900460ff16158015614743576000805460ff1961ff0019909116610100171660011790555b61474b6150c0565b6000614755613ff7565b6001600160a01b03166000908152609760205260409020805460ff191660011790555080156146b3576000805461ff001916905550565b60008060008061479c8686614acf565b9195509350915060006147ae87614a84565b9050670de0b6b3a7640000811380156147cf575060a554610100900460ff16155b156141625760ff87166000908152609e60205260408120600301546147f49085614fc5565b60ff89166000908152609e60205260408120600201549192509061483e9083906140b590614822908c614370565b60ff8d166000908152609e602052604090206005015490614fc5565b90506000614853826140d5856140cf88614f22565b90508083111561412e5760ff8a166000908152609e602052604090206003015461411490614882908890614fa5565b6140cf8584614447565b604080516001600160a01b0380861660248301528416604482015260648082018490528251808303909101815260849091019091526020810180516001600160e01b03166323b872dd60e01b1790526148e690859061515d565b50505050565b60ff83166000908152609e602052604090206002015461492c906149109083614370565b60ff85166000908152609e602052604090206005015490614fc5565b60ff84166000908152609e602052604090206005810191909155600601546149549082614fc5565b60ff84166000908152609e6020526040902060068101919091556003015461497c9083614fc5565b60ff84166000818152609e60209081526040918290206003810194909455600290930154815133815293840192909252828101919091526060820184905260808201839052517ff7bd85d3f10229150829e8504450ec5e026df0879e5a690aa9a5cb6bab4a51d89181900360a00190a160a0546149f99083614fc5565b60a05560ff83166000908152609e602052604090206002015461433e90614a209083614370565b60a25490614fc5565b600080614a3d614a3884611a1d565b615213565b90506000614a4a82615264565b9050600082138015614a64575080670de0b6b3a764000012155b15614a72579150611ac49050565b670de0b6b3a764000092505050611ac4565b600080614a93614a3884611a1d565b90506000614aa082615264565b9050670de0b6b3a764000082138015614ab857508082135b15614a7257614ac682615264565b92505050611ac4565b600080600080609960019054906101000a90046001600160a01b03166001600160a01b031663161e444e609d546040518263ffffffff1660e01b81526004018082815260200191505060206040518083038186803b158015614b3057600080fd5b505afa158015614b44573d6000803e3d6000fd5b505050506040513d6020811015614b5a57600080fd5b5051609954609c5460408051630b0f222760e11b81526004810192909252519293506000926101009092046001600160a01b03169163161e444e91602480820192602092909190829003018186803b158015614bb557600080fd5b505afa158015614bc9573d6000803e3d6000fd5b505050506040513d6020811015614bdf57600080fd5b505160ff88166000908152609e602052604081206002015491925090614c1090614c099089614370565b8490614f6c565b90506000614c1e8284614fa5565b90508094506000609b60009054906101000a90046001600160a01b03166001600160a01b0316630dfe16816040518163ffffffff1660e01b815260040160206040518083038186803b158015614c7357600080fd5b505afa158015614c87573d6000803e3d6000fd5b505050506040513d6020811015614c9d57600080fd5b5051609b54604080516370a0823160e01b81526001600160a01b039283166004820152905191909216916370a08231916024808301926020929190829003018186803b158015614cec57600080fd5b505afa158015614d00573d6000803e3d6000fd5b505050506040513d6020811015614d1657600080fd5b5051609b546040805163d21220a760e01b815290519293506000926001600160a01b039092169163d21220a791600480820192602092909190829003018186803b158015614d6357600080fd5b505afa158015614d77573d6000803e3d6000fd5b505050506040513d6020811015614d8d57600080fd5b5051609b54604080516370a0823160e01b81526001600160a01b039283166004820152905191909216916370a08231916024808301926020929190829003018186803b158015614ddc57600080fd5b505afa158015614df0573d6000803e3d6000fd5b505050506040513d6020811015614e0657600080fd5b5051609b54604080516318160ddd60e01b81529051929350614e8a926001600160a01b03909216916318160ddd91600480820192602092909190829003018186803b158015614e5457600080fd5b505afa158015614e68573d6000803e3d6000fd5b505050506040513d6020811015614e7e57600080fd5b50516112ed8585614370565b9850614f13609b60009054906101000a90046001600160a01b03166001600160a01b03166318160ddd6040518163ffffffff1660e01b815260040160206040518083038186803b158015614edd57600080fd5b505afa158015614ef1573d6000803e3d6000fd5b505050506040513d6020811015614f0757600080fd5b50516112ed8584614370565b97505050505050509250925092565b600080821215614f68576040805162461bcd60e51b815260206004820152600c60248201526b696e74206f766572666c6f7760a01b604482015290519081900360640190fd5b5090565b6000670de0b6b3a7640000614f96614f848585614370565b6002670de0b6b3a76400005b04614fc5565b81614f9d57fe5b049392505050565b600081614f96614fbd85670de0b6b3a7640000614370565b600285614f90565b6000828201838110156143df576040805162461bcd60e51b8152602060048201526013602482015272556e6164646974696f6e206f766572666c6f7760681b604482015290519081900360640190fd5b3b151590565b600054610100900460ff168061503457506150346145fb565b80615042575060005460ff16155b61507d5760405162461bcd60e51b815260040180806020018281038252602e815260200180615d32602e913960400191505060405180910390fd5b600054610100900460ff161580156150a8576000805460ff1961ff0019909116610100171660011790555b6001805580156146b3576000805461ff001916905550565b600054610100900460ff16806150d957506150d96145fb565b806150e7575060005460ff16155b6151225760405162461bcd60e51b815260040180806020018281038252602e815260200180615d32602e913960400191505060405180910390fd5b600054610100900460ff1615801561514d576000805460ff1961ff0019909116610100171660011790555b61515561529c565b6146a161533c565b60606151b2826040518060400160405280602081526020017f5361666545524332303a206c6f772d6c6576656c2063616c6c206661696c6564815250856001600160a01b03166154359092919063ffffffff16565b80519091501561520e578080602001905160208110156151d157600080fd5b505161520e5760405162461bcd60e51b815260040180806020018281038252602a815260200180615dc2602a913960400191505060405180910390fd5b505050565b60006001600160ff1b03821115614f68576040805162461bcd60e51b815260206004820152601060248201526f75696e74323536206f766572666c6f7760801b604482015290519081900360640190fd5b60006143e261528d670de0b6b3a76400006152876781103cb9fb2200008661544e565b90615483565b678ac7230489e80000906154f2565b600054610100900460ff16806152b557506152b56145fb565b806152c3575060005460ff16155b6152fe5760405162461bcd60e51b815260040180806020018281038252602e815260200180615d32602e913960400191505060405180910390fd5b600054610100900460ff161580156146a1576000805460ff1961ff00199091166101001716600117905580156146b3576000805461ff001916905550565b600054610100900460ff168061535557506153556145fb565b80615363575060005460ff16155b61539e5760405162461bcd60e51b815260040180806020018281038252602e815260200180615d32602e913960400191505060405180910390fd5b600054610100900460ff161580156153c9576000805460ff1961ff0019909116610100171660011790555b60006153d3613ff7565b606580546001600160a01b0319166001600160a01b038316908117909155604051919250906000907f8be0079c531659141344cd1fd0a4f28419497f9722a3daafe3b4186f6b6457e0908290a35080156146b3576000805461ff001916905550565b6060615444848460008561550e565b90505b9392505050565b6000670de0b6b3a7640000615474615466858561566a565b670de0b6b3a7640000615735565b8161547b57fe5b059392505050565b60008282018183128015906154985750838112155b806154ad57506000831280156154ad57508381125b6143df576040805162461bcd60e51b81526020600482015260116024820152706164646974696f6e206f766572666c6f7760781b604482015290519081900360640190fd5b60006143df615500836157b4565b615509856157b4565b615a8f565b60608247101561554f5760405162461bcd60e51b8152600401808060200182810382526026815260200180615d0c6026913960400191505060405180910390fd5b61555885615015565b6155a9576040805162461bcd60e51b815260206004820152601d60248201527f416464726573733a2063616c6c20746f206e6f6e2d636f6e7472616374000000604482015290519081900360640190fd5b60006060866001600160a01b031685876040518082805190602001908083835b602083106155e85780518252601f1990920191602091820191016155c9565b6001836020036101000a03801982511681845116808217855250505050505090500191505060006040518083038185875af1925050503d806000811461564a576040519150601f19603f3d011682016040523d82523d6000602084013e61564f565b606091505b509150915061565f828286615ac2565b979650505050505050565b600082615679575060006143e2565b8260001914801561568d5750600160ff1b82145b156156da576040805162461bcd60e51b8152602060048201526018602482015277776d756c7469706c69636174696f6e206f766572666c6f7760401b604482015290519081900360640190fd5b828202828482816156e757fe5b05146143df576040805162461bcd60e51b8152602060048201526018602482015277776d756c7469706c69636174696f6e206f766572666c6f7760401b604482015290519081900360640190fd5b600080821361578b576040805162461bcd60e51b815260206004820152601f60248201527f726f756e6448616c665570206f6e6c7920737570706f7274732079203e203000604482015290519081900360640190fd5b600083126157a7576157a08360028405615483565b90506143e2565b6143df8360028405615b66565b600080821361580a576040805162461bcd60e51b815260206004820152601760248201527f6c6f6745206f66206e65676174697665206e756d626572000000000000000000604482015290519081900360640190fd5b701d6329f1c35ca4bfabb9f561000000000082131561585a5760405162461bcd60e51b8152600401808060200182810382526022815260200180615ca96022913960400191505060405180910390fd5b60006012670de0b6b3a76400005b67016345785d8a000085136158975784600a0294506f01bb7635c5de48ef4ce5b7b41cc43db083039250615868565b678ac7230489e8000085126158c657600a850594506f01bb7635c5de48ef4ce5b7b41cc43db083019250615897565b670de0b6b3a7640000851215615903576158e8856725b946ebc0b3617361544e565b94506ec097ce7bc90715b34b9f1000000000830392506158c6565b6725b946ebc0b3617385131561594057615925856725b946ebc0b36173615a8f565b94506ec097ce7bc90715b34b9f100000000083019250615903565b670de0b6b3a764000085141561596d578061595b8483615735565b8161596257fe5b059350505050611ac4565b6725b946ebc0b361738514156159a457806159888483615735565b8161598f57fe5b05670de0b6b3a7640000019350505050611ac4565b938402936e4e16f927cdca7f15b39123f740f5d192909201916f0120e3b5b9ad8aa08cf16e980000000060008187016ec097ce7bc90715b34b9f10000000006f0120e3b5b9ad8aa08cf16e97ffffffff19890102816159ff57fe5b059050806002028501945060006ec097ce7bc90715b34b9f100000000082830281615a2657fe5b05905060035b6ec097ce7bc90715b34b9f10000000008383020592508060ff168360020281615a5157fe5b059690960195600201602760ff821610615a6a57615a6f565b615a2c565b84615a7a8887615735565b81615a8157fe5b059998505050505050505050565b600080821215615aa6578160000391508260000392505b81615474615abc85670de0b6b3a764000061566a565b84615735565b60608315615ad1575081615447565b825115615ae15782518084602001fd5b8160405162461bcd60e51b81526004018080602001828103825283818151815260200191508051906020019080838360005b83811015615b2b578181015183820152602001615b13565b50505050905090810190601f168015615b585780820380516001836020036101000a031916815260200191505b509250505060405180910390fd5b6000818303818312801590615b7b5750838113155b80615b905750600083128015615b9057508381135b6143df576040805162461bcd60e51b81526020600482015260146024820152737375627472616374696f6e206f766572666c6f7760601b604482015290519081900360640190fd5b828054600181600116156101000203166002900490600052602060002090601f016020900481019282601f10615c1957805160ff1916838001178555615c46565b82800160010185558215615c46579182015b82811115615c46578251825591602001919060010190615c2b565b50614f689291505b80821115614f685760008155600101615c4e56fe5265656e7472616e637947756172643a207265656e7472616e742063616c6c004f776e61626c653a206e6577206f776e657220697320746865207a65726f20616464726573736c6f6745206f6e6c7920616363657074732076203c3d2031653232202a20316531385f6d756c7469706c696572206d7573742067726561746572207468616e20302e3554686520676976656e205f69642069732064697361626c656400000000000000416464726573733a20696e73756666696369656e742062616c616e636520666f722063616c6c496e697469616c697a61626c653a20636f6e747261637420697320616c726561647920696e697469616c697a65644f776e61626c653a2063616c6c6572206973206e6f7420746865206f776e6572636f6c6c61746572616c536861726553796d626f6c206973206e6f742076616c69645f746f6b656e416d6f756e742063616e2774206265207a65726f0000000000005361666545524332303a204552433230206f7065726174696f6e20646964206e6f742073756363656564a2646970667358221220e2231ec18ef5e12ce4d97430d0fd68341bda8ed69fbbf7a351ce233eb5ef0e4e64736f6c634300060c0033",
  "devdoc": {
    "details": "The contract heavily depends on 3rd party modules from QuickSwap, Chainlink to running. Check out docs.tamago.finance for more details",
    "kind": "dev",
    "methods": {
      "addAddress(address)": {
        "details": "adds a given address to the whitelist",
        "params": {
          "_address": "address to add"
        }
      },
      "estimateMint(uint8,uint256)": {
        "params": {
          "_id": "the NFT's variant id",
          "_tokenAmount": "total NFT to be created"
        },
        "returns": {
          "baseTokenAmount": "required amount of token0 on LP",
          "discount": "The discount if CR > 1",
          "lpAmount": "Estimated LP amount to be deposited as a collateral",
          "pairTokenAmount": "required amount of token1 on LP"
        }
      },
      "estimateRedeem(uint8,uint256)": {
        "params": {
          "_id": "the NFT's variant id",
          "_tokenAmount": "total NFT to be burnt"
        },
        "returns": {
          "baseTokenAmount": "redeemed amount of token0 on LP",
          "lpAmount": "Estimated LP amount to be withdrawn from Quickswap",
          "offset": "The offset fee when CR < 1",
          "pairTokenAmount": "redeemed amount of token1 on LP"
        }
      },
      "getCollateralSharePrice()": {
        "returns": {
          "_0": "US price per a LP token"
        }
      },
      "getSyntheticPrice()": {
        "returns": {
          "_0": "US price per a synthetic token"
        }
      },
      "globalCollatelizationRatio()": {
        "returns": {
          "_0": "the system collateral ratio"
        }
      },
      "initialize(string,string,address,address,bytes32,bytes32,address,address)": {
        "params": {
          "_collateralShareAddress": "the address of LP token to be used as a collateral",
          "_collateralShareSymbol": "the symbol of LP token that defined on the price registry",
          "_devAddress": "dev address",
          "_name": "name of the NFT collection",
          "_nftUri": "base uri for the ERC-1155 NFT",
          "_priceResolverAddress": "the address of the shared price feeder registry",
          "_syntheticSymbol": "the symbol of value-backed NFT that defined on the price registry"
        }
      },
      "isWhitelisted(address)": {
        "details": "returns true if a given address is whitelisted, false if not",
        "params": {
          "_address": "address to check"
        },
        "returns": {
          "_0": "true if the address is whitelisted, false if not"
        }
      },
      "mint(uint8,uint256,uint256,uint256)": {
        "params": {
          "_id": "the NFT's variant id",
          "_maxBaseAmount": "cap amount of token0 that can be sent out from the wallet",
          "_maxPairAmount": "cap amount of token1 that can be sent out from the wallet",
          "_tokenAmount": "total NFT to be created"
        }
      },
      "owner()": {
        "details": "Returns the address of the current owner."
      },
      "redeem(uint8,uint256,uint256,uint256)": {
        "params": {
          "_id": "the NFT's variant id",
          "_minBaseAmount": "min. amount of token0 expects to receive",
          "_minPairAmount": "min. amount of token1 expects to receive",
          "_tokenAmount": "total NFT to be burnt"
        }
      },
      "removeAddress(address)": {
        "details": "removes a given address from the whitelist",
        "params": {
          "_address": "address to remove"
        }
      },
      "renounceOwnership()": {
        "details": "Leaves the contract without owner. It will not be possible to call `onlyOwner` functions anymore. Can only be called by the current owner. NOTE: Renouncing ownership will leave the contract without an owner, thereby removing any functionality that is only available to the owner."
      },
      "targetCollatelizationRatio(uint8)": {
        "params": {
          "_id": "the NFT's variant id"
        },
        "returns": {
          "_0": "the target ratio when CR < 1",
          "_1": "the target ratio when CR > 1"
        }
      },
      "transferOwnership(address)": {
        "details": "Transfers ownership of the contract to a new account (`newOwner`). Can only be called by the current owner."
      },
      "variantCollatelizationRatio(uint8)": {
        "params": {
          "_id": "the NFT's variant id"
        },
        "returns": {
          "_0": "the variant collateral ratio"
        }
      }
    },
    "title": "A contract to collaterizes ERC-20 and mints NFT",
    "version": 1
  },
  "userdoc": {
    "kind": "user",
    "methods": {
      "estimateMint(uint8,uint256)": {
        "notice": "calculate amount of collateral assets to be placed for minting the NFT"
      },
      "estimateRedeem(uint8,uint256)": {
        "notice": "calcualte amount of collateral assets to be returned when burning NFT"
      },
      "getCollateralSharePrice()": {
        "notice": "call the price feeder registry to retrieve the latest price of LP token"
      },
      "getSyntheticPrice()": {
        "notice": "call the price feeder registry to retrieve the latest price of NFT"
      },
      "globalCollatelizationRatio()": {
        "notice": "looks for the system collateral ratio basically calculates from total collateral deposited / total NFT minted"
      },
      "initialize(string,string,address,address,bytes32,bytes32,address,address)": {
        "notice": "the contructor that requires necessary params to setup ERC-1155 contract"
      },
      "mint(uint8,uint256,uint256,uint256)": {
        "notice": "taking 2 tokens and adding them to Quickswap LP, the returned LP will be locked and be the variant's collateral for the NFT issuing"
      },
      "redeem(uint8,uint256,uint256,uint256)": {
        "notice": "burning NFT and returning collateral assets, the offset fee will be charged when CR < 1"
      },
      "targetCollatelizationRatio(uint8)": {
        "notice": "calculates the target ratio that we need to either leaving and giving away (as discount) some collaterals to help bring the ratio back to 1"
      },
      "variantCollatelizationRatio(uint8)": {
        "notice": "looks for the collateral ratio for particular variant"
      }
    },
    "version": 1
  },
  "storageLayout": {
    "storage": [
      {
        "astId": 1034,
        "contract": "contracts/NFTManager.sol:NFTManager",
        "label": "_initialized",
        "offset": 0,
        "slot": "0",
        "type": "t_bool"
      },
      {
        "astId": 1037,
        "contract": "contracts/NFTManager.sol:NFTManager",
        "label": "_initializing",
        "offset": 1,
        "slot": "0",
        "type": "t_bool"
      },
      {
        "astId": 2900,
        "contract": "contracts/NFTManager.sol:NFTManager",
        "label": "_status",
        "offset": 0,
        "slot": "1",
        "type": "t_uint256"
      },
      {
        "astId": 2943,
        "contract": "contracts/NFTManager.sol:NFTManager",
        "label": "__gap",
        "offset": 0,
        "slot": "2",
        "type": "t_array(t_uint256)49_storage"
      },
      {
        "astId": 2885,
        "contract": "contracts/NFTManager.sol:NFTManager",
        "label": "__gap",
        "offset": 0,
        "slot": "51",
        "type": "t_array(t_uint256)50_storage"
      },
      {
        "astId": 465,
        "contract": "contracts/NFTManager.sol:NFTManager",
        "label": "_owner",
        "offset": 0,
        "slot": "101",
        "type": "t_address"
      },
      {
        "astId": 584,
        "contract": "contracts/NFTManager.sol:NFTManager",
        "label": "__gap",
        "offset": 0,
        "slot": "102",
        "type": "t_array(t_uint256)49_storage"
      },
      {
        "astId": 17846,
        "contract": "contracts/NFTManager.sol:NFTManager",
        "label": "whitelist",
        "offset": 0,
        "slot": "151",
        "type": "t_mapping(t_address,t_bool)"
      },
      {
        "astId": 10406,
        "contract": "contracts/NFTManager.sol:NFTManager",
        "label": "name",
        "offset": 0,
        "slot": "152",
        "type": "t_string_storage"
      },
      {
        "astId": 10408,
        "contract": "contracts/NFTManager.sol:NFTManager",
        "label": "state",
        "offset": 0,
        "slot": "153",
        "type": "t_enum(ContractState)10385"
      },
      {
        "astId": 10410,
        "contract": "contracts/NFTManager.sol:NFTManager",
        "label": "priceResolver",
        "offset": 1,
        "slot": "153",
        "type": "t_contract(IPriceResolver)14985"
      },
      {
        "astId": 10413,
        "contract": "contracts/NFTManager.sol:NFTManager",
        "label": "syntheticNFT",
        "offset": 0,
        "slot": "154",
        "type": "t_contract(ISyntheticNFT)15073"
      },
      {
        "astId": 10416,
        "contract": "contracts/NFTManager.sol:NFTManager",
        "label": "collateralShare",
        "offset": 0,
        "slot": "155",
        "type": "t_contract(IPancakePair)14559"
      },
      {
        "astId": 10418,
        "contract": "contracts/NFTManager.sol:NFTManager",
        "label": "collateralShareSymbol",
        "offset": 0,
        "slot": "156",
        "type": "t_bytes32"
      },
      {
        "astId": 10420,
        "contract": "contracts/NFTManager.sol:NFTManager",
        "label": "syntheticSymbol",
        "offset": 0,
        "slot": "157",
        "type": "t_bytes32"
      },
      {
        "astId": 10424,
        "contract": "contracts/NFTManager.sol:NFTManager",
        "label": "syntheticVariants",
        "offset": 0,
        "slot": "158",
        "type": "t_mapping(t_uint8,t_struct(SyntheticVariant)10404_storage)"
      },
      {
        "astId": 10426,
        "contract": "contracts/NFTManager.sol:NFTManager",
        "label": "syntheticVariantCount",
        "offset": 0,
        "slot": "159",
        "type": "t_uint8"
      },
      {
        "astId": 10428,
        "contract": "contracts/NFTManager.sol:NFTManager",
        "label": "totalRawCollateral",
        "offset": 0,
        "slot": "160",
        "type": "t_uint256"
      },
      {
        "astId": 10430,
        "contract": "contracts/NFTManager.sol:NFTManager",
        "label": "totalDebtCollateral",
        "offset": 0,
        "slot": "161",
        "type": "t_uint256"
      },
      {
        "astId": 10432,
        "contract": "contracts/NFTManager.sol:NFTManager",
        "label": "totalOutstanding",
        "offset": 0,
        "slot": "162",
        "type": "t_uint256"
      },
      {
        "astId": 10434,
        "contract": "contracts/NFTManager.sol:NFTManager",
        "label": "devAddress",
        "offset": 0,
        "slot": "163",
        "type": "t_address"
      },
      {
        "astId": 10436,
        "contract": "contracts/NFTManager.sol:NFTManager",
        "label": "redeemFee",
        "offset": 0,
        "slot": "164",
        "type": "t_uint256"
      },
      {
        "astId": 10438,
        "contract": "contracts/NFTManager.sol:NFTManager",
        "label": "offsetDisabled",
        "offset": 0,
        "slot": "165",
        "type": "t_bool"
      },
      {
        "astId": 10440,
        "contract": "contracts/NFTManager.sol:NFTManager",
        "label": "discountDisabled",
        "offset": 1,
        "slot": "165",
        "type": "t_bool"
      },
      {
        "astId": 10443,
        "contract": "contracts/NFTManager.sol:NFTManager",
        "label": "multiplier",
        "offset": 0,
        "slot": "166",
        "type": "t_uint256"
      },
      {
        "astId": 10445,
        "contract": "contracts/NFTManager.sol:NFTManager",
        "label": "ROUTER_ADDRESS",
        "offset": 0,
        "slot": "167",
        "type": "t_address"
      }
    ],
    "types": {
      "t_address": {
        "encoding": "inplace",
        "label": "address",
        "numberOfBytes": "20"
      },
      "t_array(t_uint256)49_storage": {
        "base": "t_uint256",
        "encoding": "inplace",
        "label": "uint256[49]",
        "numberOfBytes": "1568"
      },
      "t_array(t_uint256)50_storage": {
        "base": "t_uint256",
        "encoding": "inplace",
        "label": "uint256[50]",
        "numberOfBytes": "1600"
      },
      "t_bool": {
        "encoding": "inplace",
        "label": "bool",
        "numberOfBytes": "1"
      },
      "t_bytes32": {
        "encoding": "inplace",
        "label": "bytes32",
        "numberOfBytes": "32"
      },
      "t_contract(IPancakePair)14559": {
        "encoding": "inplace",
        "label": "contract IPancakePair",
        "numberOfBytes": "20"
      },
      "t_contract(IPriceResolver)14985": {
        "encoding": "inplace",
        "label": "contract IPriceResolver",
        "numberOfBytes": "20"
      },
      "t_contract(ISyntheticNFT)15073": {
        "encoding": "inplace",
        "label": "contract ISyntheticNFT",
        "numberOfBytes": "20"
      },
      "t_enum(ContractState)10385": {
        "encoding": "inplace",
        "label": "enum NFTManager.ContractState",
        "numberOfBytes": "1"
      },
      "t_mapping(t_address,t_bool)": {
        "encoding": "mapping",
        "key": "t_address",
        "label": "mapping(address => bool)",
        "numberOfBytes": "32",
        "value": "t_bool"
      },
      "t_mapping(t_uint8,t_struct(SyntheticVariant)10404_storage)": {
        "encoding": "mapping",
        "key": "t_uint8",
        "label": "mapping(uint8 => struct NFTManager.SyntheticVariant)",
        "numberOfBytes": "32",
        "value": "t_struct(SyntheticVariant)10404_storage"
      },
      "t_string_storage": {
        "encoding": "bytes",
        "label": "string",
        "numberOfBytes": "32"
      },
      "t_struct(SyntheticVariant)10404_storage": {
        "encoding": "inplace",
        "label": "struct NFTManager.SyntheticVariant",
        "members": [
          {
            "astId": 10387,
            "contract": "contracts/NFTManager.sol:NFTManager",
            "label": "name",
            "offset": 0,
            "slot": "0",
            "type": "t_string_storage"
          },
          {
            "astId": 10389,
            "contract": "contracts/NFTManager.sol:NFTManager",
            "label": "tokenId",
            "offset": 0,
            "slot": "1",
            "type": "t_uint256"
          },
          {
            "astId": 10391,
            "contract": "contracts/NFTManager.sol:NFTManager",
            "label": "tokenValue",
            "offset": 0,
            "slot": "2",
            "type": "t_uint256"
          },
          {
            "astId": 10393,
            "contract": "contracts/NFTManager.sol:NFTManager",
            "label": "totalRawCollateral",
            "offset": 0,
            "slot": "3",
            "type": "t_uint256"
          },
          {
            "astId": 10395,
            "contract": "contracts/NFTManager.sol:NFTManager",
            "label": "totalDebtCollateral",
            "offset": 0,
            "slot": "4",
            "type": "t_uint256"
          },
          {
            "astId": 10397,
            "contract": "contracts/NFTManager.sol:NFTManager",
            "label": "totalOutstanding",
            "offset": 0,
            "slot": "5",
            "type": "t_uint256"
          },
          {
            "astId": 10399,
            "contract": "contracts/NFTManager.sol:NFTManager",
            "label": "totalIssued",
            "offset": 0,
            "slot": "6",
            "type": "t_uint256"
          },
          {
            "astId": 10401,
            "contract": "contracts/NFTManager.sol:NFTManager",
            "label": "totalBurnt",
            "offset": 0,
            "slot": "7",
            "type": "t_uint256"
          },
          {
            "astId": 10403,
            "contract": "contracts/NFTManager.sol:NFTManager",
            "label": "disabled",
            "offset": 0,
            "slot": "8",
            "type": "t_bool"
          }
        ],
        "numberOfBytes": "288"
      },
      "t_uint256": {
        "encoding": "inplace",
        "label": "uint256",
        "numberOfBytes": "32"
      },
      "t_uint8": {
        "encoding": "inplace",
        "label": "uint8",
        "numberOfBytes": "1"
      }
    }
  }
}