{
  "address": "0x2FdCA4a18B446f436F0BbEa34394620a74F60156",
  "abi": [
    {
      "anonymous": false,
      "inputs": [
        {
          "indexed": true,
          "internalType": "address",
          "name": "previousOwner",
          "type": "address"
        },
        {
          "indexed": true,
          "internalType": "address",
          "name": "newOwner",
          "type": "address"
        }
      ],
      "name": "OwnershipTransferred",
      "type": "event"
    },
    {
      "anonymous": false,
      "inputs": [
        {
          "indexed": false,
          "internalType": "address",
          "name": "account",
          "type": "address"
        }
      ],
      "name": "Paused",
      "type": "event"
    },
    {
      "anonymous": false,
      "inputs": [
        {
          "indexed": false,
          "internalType": "address",
          "name": "minter",
          "type": "address"
        },
        {
          "indexed": false,
          "internalType": "uint8",
          "name": "variantId",
          "type": "uint8"
        },
        {
          "indexed": false,
          "internalType": "uint8",
          "name": "collateralId",
          "type": "uint8"
        },
        {
          "indexed": false,
          "internalType": "uint256",
          "name": "tokenValue",
          "type": "uint256"
        },
        {
          "indexed": false,
          "internalType": "uint256",
          "name": "collateralAmount",
          "type": "uint256"
        },
        {
          "indexed": false,
          "internalType": "uint256",
          "name": "tokenAmount",
          "type": "uint256"
        }
      ],
      "name": "PositionCreated",
      "type": "event"
    },
    {
      "anonymous": false,
      "inputs": [
        {
          "indexed": false,
          "internalType": "address",
          "name": "minter",
          "type": "address"
        },
        {
          "indexed": false,
          "internalType": "uint8",
          "name": "variantId",
          "type": "uint8"
        },
        {
          "indexed": false,
          "internalType": "uint8",
          "name": "collateralId",
          "type": "uint8"
        },
        {
          "indexed": false,
          "internalType": "uint256",
          "name": "tokenValue",
          "type": "uint256"
        },
        {
          "indexed": false,
          "internalType": "uint256",
          "name": "collateralAmount",
          "type": "uint256"
        },
        {
          "indexed": false,
          "internalType": "uint256",
          "name": "tokenAmount",
          "type": "uint256"
        }
      ],
      "name": "PositionRemoved",
      "type": "event"
    },
    {
      "anonymous": false,
      "inputs": [
        {
          "indexed": false,
          "internalType": "address",
          "name": "account",
          "type": "address"
        }
      ],
      "name": "Unpaused",
      "type": "event"
    },
    {
      "inputs": [],
      "name": "ROUTER_ADDRESS",
      "outputs": [
        {
          "internalType": "address",
          "name": "",
          "type": "address"
        }
      ],
      "stateMutability": "view",
      "type": "function"
    },
    {
      "inputs": [],
      "name": "_globalCollatelizationRatio",
      "outputs": [
        {
          "internalType": "uint256",
          "name": "",
          "type": "uint256"
        }
      ],
      "stateMutability": "view",
      "type": "function"
    },
    {
      "inputs": [
        {
          "internalType": "address",
          "name": "_address",
          "type": "address"
        }
      ],
      "name": "addAddress",
      "outputs": [],
      "stateMutability": "nonpayable",
      "type": "function"
    },
    {
      "inputs": [
        {
          "internalType": "string",
          "name": "_name",
          "type": "string"
        },
        {
          "internalType": "bytes32",
          "name": "_priceFeeder",
          "type": "bytes32"
        },
        {
          "internalType": "address",
          "name": "_tokenAddress",
          "type": "address"
        },
        {
          "internalType": "uint8",
          "name": "_decimals",
          "type": "uint8"
        }
      ],
      "name": "addCollateralAsset",
      "outputs": [],
      "stateMutability": "nonpayable",
      "type": "function"
    },
    {
      "inputs": [
        {
          "internalType": "string",
          "name": "_name",
          "type": "string"
        },
        {
          "internalType": "uint256",
          "name": "_tokenId",
          "type": "uint256"
        },
        {
          "internalType": "uint256",
          "name": "_tokenValue",
          "type": "uint256"
        }
      ],
      "name": "addSyntheticVariant",
      "outputs": [],
      "stateMutability": "nonpayable",
      "type": "function"
    },
    {
      "inputs": [],
      "name": "collateralCount",
      "outputs": [
        {
          "internalType": "uint8",
          "name": "",
          "type": "uint8"
        }
      ],
      "stateMutability": "view",
      "type": "function"
    },
    {
      "inputs": [
        {
          "internalType": "uint8",
          "name": "",
          "type": "uint8"
        }
      ],
      "name": "collaterals",
      "outputs": [
        {
          "internalType": "string",
          "name": "name",
          "type": "string"
        },
        {
          "internalType": "bytes32",
          "name": "priceFeeder",
          "type": "bytes32"
        },
        {
          "internalType": "address",
          "name": "tokenAddress",
          "type": "address"
        },
        {
          "internalType": "uint8",
          "name": "decimals",
          "type": "uint8"
        },
        {
          "internalType": "bool",
          "name": "disabled",
          "type": "bool"
        }
      ],
      "stateMutability": "view",
      "type": "function"
    },
    {
      "inputs": [],
      "name": "devAddress",
      "outputs": [
        {
          "internalType": "address",
          "name": "",
          "type": "address"
        }
      ],
      "stateMutability": "view",
      "type": "function"
    },
    {
      "inputs": [],
      "name": "discountFee",
      "outputs": [
        {
          "internalType": "uint256",
          "name": "",
          "type": "uint256"
        }
      ],
      "stateMutability": "view",
      "type": "function"
    },
    {
      "inputs": [
        {
          "internalType": "uint8",
          "name": "_variantId",
          "type": "uint8"
        },
        {
          "internalType": "uint8",
          "name": "_collateralId",
          "type": "uint8"
        },
        {
          "internalType": "uint256",
          "name": "_tokenAmount",
          "type": "uint256"
        }
      ],
      "name": "estimateMint",
      "outputs": [
        {
          "internalType": "uint256",
          "name": "amount",
          "type": "uint256"
        }
      ],
      "stateMutability": "view",
      "type": "function"
    },
    {
      "inputs": [
        {
          "internalType": "uint8",
          "name": "_variantId",
          "type": "uint8"
        },
        {
          "internalType": "uint8",
          "name": "_collateralId",
          "type": "uint8"
        },
        {
          "internalType": "uint256",
          "name": "_tokenAmount",
          "type": "uint256"
        }
      ],
      "name": "estimateRedeem",
      "outputs": [
        {
          "internalType": "uint256",
          "name": "amount",
          "type": "uint256"
        }
      ],
      "stateMutability": "view",
      "type": "function"
    },
    {
      "inputs": [
        {
          "internalType": "uint8",
          "name": "_variantId",
          "type": "uint8"
        },
        {
          "internalType": "uint8",
          "name": "_collateralId",
          "type": "uint8"
        },
        {
          "internalType": "uint256",
          "name": "_collateralAmount",
          "type": "uint256"
        },
        {
          "internalType": "uint256",
          "name": "_tokenAmount",
          "type": "uint256"
        }
      ],
      "name": "forceMint",
      "outputs": [],
      "stateMutability": "nonpayable",
      "type": "function"
    },
    {
      "inputs": [
        {
          "internalType": "uint8",
          "name": "_variantId",
          "type": "uint8"
        },
        {
          "internalType": "uint8",
          "name": "_collateralId",
          "type": "uint8"
        },
        {
          "internalType": "uint256",
          "name": "_collateralAmount",
          "type": "uint256"
        },
        {
          "internalType": "uint256",
          "name": "_tokenAmount",
          "type": "uint256"
        }
      ],
      "name": "forceRedeem",
      "outputs": [],
      "stateMutability": "nonpayable",
      "type": "function"
    },
    {
      "inputs": [
        {
          "internalType": "uint8",
          "name": "_collateralId",
          "type": "uint8"
        }
      ],
      "name": "getCollateralPrice",
      "outputs": [
        {
          "internalType": "uint256",
          "name": "",
          "type": "uint256"
        }
      ],
      "stateMutability": "view",
      "type": "function"
    },
    {
      "inputs": [],
      "name": "getSyntheticPrice",
      "outputs": [
        {
          "internalType": "uint256",
          "name": "",
          "type": "uint256"
        }
      ],
      "stateMutability": "view",
      "type": "function"
    },
    {
      "inputs": [
        {
          "internalType": "uint8",
          "name": "_variantId",
          "type": "uint8"
        },
        {
          "internalType": "uint8",
          "name": "_collateralId",
          "type": "uint8"
        }
      ],
      "name": "getVariantCollateral",
      "outputs": [
        {
          "internalType": "uint256",
          "name": "",
          "type": "uint256"
        }
      ],
      "stateMutability": "view",
      "type": "function"
    },
    {
      "inputs": [],
      "name": "globalCollatelizationRatio",
      "outputs": [
        {
          "internalType": "uint256",
          "name": "",
          "type": "uint256"
        }
      ],
      "stateMutability": "view",
      "type": "function"
    },
    {
      "inputs": [
        {
          "internalType": "address",
          "name": "_registryAddress",
          "type": "address"
        },
        {
          "internalType": "bytes32",
          "name": "_targetCurrency",
          "type": "bytes32"
        },
        {
          "internalType": "bytes32",
          "name": "_priceResolver",
          "type": "bytes32"
        },
        {
          "internalType": "bytes32",
          "name": "_syntheticNFT",
          "type": "bytes32"
        },
        {
          "internalType": "address",
          "name": "_devAddress",
          "type": "address"
        }
      ],
      "name": "initialize",
      "outputs": [],
      "stateMutability": "nonpayable",
      "type": "function"
    },
    {
      "inputs": [
        {
          "internalType": "address",
          "name": "_address",
          "type": "address"
        }
      ],
      "name": "isWhitelisted",
      "outputs": [
        {
          "internalType": "bool",
          "name": "",
          "type": "bool"
        }
      ],
      "stateMutability": "view",
      "type": "function"
    },
    {
      "inputs": [
        {
          "internalType": "uint8",
          "name": "_variantId",
          "type": "uint8"
        },
        {
          "internalType": "uint8",
          "name": "_collateralId",
          "type": "uint8"
        },
        {
          "internalType": "uint256",
          "name": "_tokenAmount",
          "type": "uint256"
        },
        {
          "internalType": "uint256",
          "name": "_maxCollateralAmount",
          "type": "uint256"
        }
      ],
      "name": "mint",
      "outputs": [],
      "stateMutability": "nonpayable",
      "type": "function"
    },
    {
      "inputs": [],
      "name": "mintFee",
      "outputs": [
        {
          "internalType": "uint256",
          "name": "",
          "type": "uint256"
        }
      ],
      "stateMutability": "view",
      "type": "function"
    },
    {
      "inputs": [],
      "name": "offsetFee",
      "outputs": [
        {
          "internalType": "uint256",
          "name": "",
          "type": "uint256"
        }
      ],
      "stateMutability": "view",
      "type": "function"
    },
    {
      "inputs": [
        {
          "internalType": "address",
          "name": "",
          "type": "address"
        },
        {
          "internalType": "address",
          "name": "",
          "type": "address"
        },
        {
          "internalType": "uint256[]",
          "name": "",
          "type": "uint256[]"
        },
        {
          "internalType": "uint256[]",
          "name": "",
          "type": "uint256[]"
        },
        {
          "internalType": "bytes",
          "name": "",
          "type": "bytes"
        }
      ],
      "name": "onERC1155BatchReceived",
      "outputs": [
        {
          "internalType": "bytes4",
          "name": "",
          "type": "bytes4"
        }
      ],
      "stateMutability": "nonpayable",
      "type": "function"
    },
    {
      "inputs": [
        {
          "internalType": "address",
          "name": "",
          "type": "address"
        },
        {
          "internalType": "address",
          "name": "",
          "type": "address"
        },
        {
          "internalType": "uint256",
          "name": "",
          "type": "uint256"
        },
        {
          "internalType": "uint256",
          "name": "",
          "type": "uint256"
        },
        {
          "internalType": "bytes",
          "name": "",
          "type": "bytes"
        }
      ],
      "name": "onERC1155Received",
      "outputs": [
        {
          "internalType": "bytes4",
          "name": "",
          "type": "bytes4"
        }
      ],
      "stateMutability": "nonpayable",
      "type": "function"
    },
    {
      "inputs": [],
      "name": "owner",
      "outputs": [
        {
          "internalType": "address",
          "name": "",
          "type": "address"
        }
      ],
      "stateMutability": "view",
      "type": "function"
    },
    {
      "inputs": [],
      "name": "paused",
      "outputs": [
        {
          "internalType": "bool",
          "name": "",
          "type": "bool"
        }
      ],
      "stateMutability": "view",
      "type": "function"
    },
    {
      "inputs": [],
      "name": "priceResolver",
      "outputs": [
        {
          "internalType": "contract IPriceResolver",
          "name": "",
          "type": "address"
        }
      ],
      "stateMutability": "view",
      "type": "function"
    },
    {
      "inputs": [
        {
          "internalType": "uint8",
          "name": "_variantId",
          "type": "uint8"
        },
        {
          "internalType": "uint8",
          "name": "_collateralId",
          "type": "uint8"
        },
        {
          "internalType": "uint256",
          "name": "_tokenAmount",
          "type": "uint256"
        },
        {
          "internalType": "uint256",
          "name": "_minAmount",
          "type": "uint256"
        }
      ],
      "name": "redeem",
      "outputs": [],
      "stateMutability": "nonpayable",
      "type": "function"
    },
    {
      "inputs": [],
      "name": "redeemFee",
      "outputs": [
        {
          "internalType": "uint256",
          "name": "",
          "type": "uint256"
        }
      ],
      "stateMutability": "view",
      "type": "function"
    },
    {
      "inputs": [],
      "name": "registry",
      "outputs": [
        {
          "internalType": "contract IRegistry",
          "name": "",
          "type": "address"
        }
      ],
      "stateMutability": "view",
      "type": "function"
    },
    {
      "inputs": [
        {
          "internalType": "address",
          "name": "_address",
          "type": "address"
        }
      ],
      "name": "removeAddress",
      "outputs": [],
      "stateMutability": "nonpayable",
      "type": "function"
    },
    {
      "inputs": [],
      "name": "renounceOwnership",
      "outputs": [],
      "stateMutability": "nonpayable",
      "type": "function"
    },
    {
      "inputs": [
        {
          "internalType": "uint8",
          "name": "_id",
          "type": "uint8"
        },
        {
          "internalType": "bool",
          "name": "_disabled",
          "type": "bool"
        }
      ],
      "name": "setCollateralAssetDisable",
      "outputs": [],
      "stateMutability": "nonpayable",
      "type": "function"
    },
    {
      "inputs": [
        {
          "internalType": "address",
          "name": "_devAddress",
          "type": "address"
        }
      ],
      "name": "setDevAddress",
      "outputs": [],
      "stateMutability": "nonpayable",
      "type": "function"
    },
    {
      "inputs": [
        {
          "internalType": "uint256",
          "name": "_fee",
          "type": "uint256"
        }
      ],
      "name": "setDiscountFee",
      "outputs": [],
      "stateMutability": "nonpayable",
      "type": "function"
    },
    {
      "inputs": [
        {
          "internalType": "uint256",
          "name": "_value",
          "type": "uint256"
        }
      ],
      "name": "setMaxNft",
      "outputs": [],
      "stateMutability": "nonpayable",
      "type": "function"
    },
    {
      "inputs": [
        {
          "internalType": "uint256",
          "name": "_fee",
          "type": "uint256"
        }
      ],
      "name": "setMintFee",
      "outputs": [],
      "stateMutability": "nonpayable",
      "type": "function"
    },
    {
      "inputs": [
        {
          "internalType": "string",
          "name": "_uri",
          "type": "string"
        }
      ],
      "name": "setNftUri",
      "outputs": [],
      "stateMutability": "nonpayable",
      "type": "function"
    },
    {
      "inputs": [
        {
          "internalType": "uint256",
          "name": "_fee",
          "type": "uint256"
        }
      ],
      "name": "setOffsetFee",
      "outputs": [],
      "stateMutability": "nonpayable",
      "type": "function"
    },
    {
      "inputs": [],
      "name": "setPaused",
      "outputs": [],
      "stateMutability": "nonpayable",
      "type": "function"
    },
    {
      "inputs": [
        {
          "internalType": "address",
          "name": "_priceResolverAddress",
          "type": "address"
        }
      ],
      "name": "setPriceResolver",
      "outputs": [],
      "stateMutability": "nonpayable",
      "type": "function"
    },
    {
      "inputs": [
        {
          "internalType": "uint256",
          "name": "_fee",
          "type": "uint256"
        }
      ],
      "name": "setRedeemFee",
      "outputs": [],
      "stateMutability": "nonpayable",
      "type": "function"
    },
    {
      "inputs": [
        {
          "internalType": "address",
          "name": "_syntheticNFT",
          "type": "address"
        }
      ],
      "name": "setSyntheticNFT",
      "outputs": [],
      "stateMutability": "nonpayable",
      "type": "function"
    },
    {
      "inputs": [
        {
          "internalType": "uint8",
          "name": "_id",
          "type": "uint8"
        },
        {
          "internalType": "bool",
          "name": "_disabled",
          "type": "bool"
        }
      ],
      "name": "setSyntheticVariantDisable",
      "outputs": [],
      "stateMutability": "nonpayable",
      "type": "function"
    },
    {
      "inputs": [],
      "name": "setUnpaused",
      "outputs": [],
      "stateMutability": "nonpayable",
      "type": "function"
    },
    {
      "inputs": [
        {
          "internalType": "bytes4",
          "name": "interfaceId",
          "type": "bytes4"
        }
      ],
      "name": "supportsInterface",
      "outputs": [
        {
          "internalType": "bool",
          "name": "",
          "type": "bool"
        }
      ],
      "stateMutability": "view",
      "type": "function"
    },
    {
      "inputs": [],
      "name": "syntheticNFT",
      "outputs": [
        {
          "internalType": "contract ISyntheticNFT",
          "name": "",
          "type": "address"
        }
      ],
      "stateMutability": "view",
      "type": "function"
    },
    {
      "inputs": [],
      "name": "syntheticVariantCount",
      "outputs": [
        {
          "internalType": "uint8",
          "name": "",
          "type": "uint8"
        }
      ],
      "stateMutability": "view",
      "type": "function"
    },
    {
      "inputs": [
        {
          "internalType": "uint8",
          "name": "",
          "type": "uint8"
        }
      ],
      "name": "syntheticVariants",
      "outputs": [
        {
          "internalType": "string",
          "name": "name",
          "type": "string"
        },
        {
          "internalType": "uint256",
          "name": "tokenId",
          "type": "uint256"
        },
        {
          "internalType": "uint256",
          "name": "tokenValue",
          "type": "uint256"
        },
        {
          "internalType": "uint256",
          "name": "totalOutstanding",
          "type": "uint256"
        },
        {
          "internalType": "uint256",
          "name": "totalIssued",
          "type": "uint256"
        },
        {
          "internalType": "uint256",
          "name": "totalBurnt",
          "type": "uint256"
        },
        {
          "internalType": "bool",
          "name": "disabled",
          "type": "bool"
        }
      ],
      "stateMutability": "view",
      "type": "function"
    },
    {
      "inputs": [],
      "name": "targetCollatelizationRatio",
      "outputs": [
        {
          "internalType": "int256",
          "name": "",
          "type": "int256"
        },
        {
          "internalType": "int256",
          "name": "",
          "type": "int256"
        }
      ],
      "stateMutability": "view",
      "type": "function"
    },
    {
      "inputs": [],
      "name": "targetCurrency",
      "outputs": [
        {
          "internalType": "bytes32",
          "name": "",
          "type": "bytes32"
        }
      ],
      "stateMutability": "view",
      "type": "function"
    },
    {
      "inputs": [],
      "name": "totalOutstanding",
      "outputs": [
        {
          "internalType": "uint256",
          "name": "",
          "type": "uint256"
        }
      ],
      "stateMutability": "view",
      "type": "function"
    },
    {
      "inputs": [
        {
          "internalType": "uint8",
          "name": "",
          "type": "uint8"
        }
      ],
      "name": "totalRawCollateral",
      "outputs": [
        {
          "internalType": "uint256",
          "name": "",
          "type": "uint256"
        }
      ],
      "stateMutability": "view",
      "type": "function"
    },
    {
      "inputs": [
        {
          "internalType": "address",
          "name": "newOwner",
          "type": "address"
        }
      ],
      "name": "transferOwnership",
      "outputs": [],
      "stateMutability": "nonpayable",
      "type": "function"
    },
    {
      "inputs": [
        {
          "internalType": "uint8",
          "name": "_id",
          "type": "uint8"
        }
      ],
      "name": "variantCollatelizationRatio",
      "outputs": [
        {
          "internalType": "uint256",
          "name": "",
          "type": "uint256"
        }
      ],
      "stateMutability": "view",
      "type": "function"
    },
    {
      "inputs": [
        {
          "internalType": "address",
          "name": "_tokenAddress",
          "type": "address"
        },
        {
          "internalType": "uint256",
          "name": "_amount",
          "type": "uint256"
        }
      ],
      "name": "withdrawErc20",
      "outputs": [],
      "stateMutability": "nonpayable",
      "type": "function"
    }
  ],
  "transactionHash": "0x80aabbecd52268f8ab5ee0636d4bd744e976b6f278c7b601f51ce00adace8eb7",
  "args": [],
  "solcInputHash": "8265e4161eec9b5a7dcd6b2c71b6665f",
  "bytecode": "0x608060405234801561001057600080fd5b506160bc80620000216000396000f3fe608060405234801561001057600080fd5b50600436106103785760003560e01c80636b08af6b116101d3578063b94a6dfe11610104578063e3d1bc37116100a2578063eddd0d9c1161007c578063eddd0d9c14610e01578063f01530ed14610e1e578063f23a6e6114610e26578063f2fde38b14610eef57610378565b8063e3d1bc3714610ced578063eca895dd14610d1d578063eda0701414610d3d57610378565b8063bd1f4b52116100de578063bd1f4b5214610c5d578063bd4a162214610c89578063d0d41fe114610cbf578063d49de60214610ce557610378565b8063b94a6dfe14610a4f578063b979984814610a57578063bc197c8114610a7f57610378565b806384244add11610171578063a1a9200e1161014b578063a1a9200e146109c9578063a37fa1fd146109f1578063abea856714610a11578063b6faaf8a14610a4757610378565b806384244add146109b15780638da5cb5b146109b9578063965fa21e146109c157610378565b806377ce33b3116101ad57806377ce33b31461080e5780637a66816c1461082c5780637b103999146108e75780637e9e4d0e146108ef57610378565b80636b08af6b146107e1578063715018a6146107fe578063765b5f1c1461080657610378565b806338eada1c116102ad5780634e15afdc1161024b5780635d841af5116102255780635d841af51461075057806363c0f9c51461076d5780636580f8fb146107a357806367b57764146107d957610378565b80634e15afdc1461071f578063581d25a5146107275780635c975abb1461074857610378565b80633af32abf116102875780633af32abf146106ae5780633c89edce146106d4578063488e8da9146106dc5780634ba79dfe146106f957610378565b806338eada1c1461063e57806339c486b2146106645780633ad10ef6146106a657610378565b806323cdcf151161031a57806329e78dc0116102f457806329e78dc01461054c5780632a751e421461056c57806337a66d851461061057806338c86f321461061857610378565b806323cdcf15146104db57806324f272a5146104ff578063264494de1461052f57610378565b806316078d041161035657806316078d04146103fa57806318266dae146104025780631eb1fe951461040a578063237cfae81461043257610378565b806301ffc9a71461037d578063105de945146103b857806313966db5146103e0575b600080fd5b6103a46004803603602081101561039357600080fd5b50356001600160e01b031916610f15565b604080519115158252519081900360200190f35b6103de600480360360208110156103ce57600080fd5b50356001600160a01b0316610f38565b005b6103e8611048565b60408051918252519081900360200190f35b6103e861104f565b6103e8611056565b6103e86004803603604081101561042057600080fd5b5060ff8135811691602001351661115d565b6103de6004803603606081101561044857600080fd5b810190602081018135600160201b81111561046257600080fd5b82018360208201111561047457600080fd5b803590602001918460018302840111600160201b8311171561049557600080fd5b91908080601f0160208091040260200160405190810160405280939291908181526020018383808284376000920191909152509295505082359350505060200135611189565b6104e361129d565b604080516001600160a01b039092168252519081900360200190f35b6103e86004803603606081101561051557600080fd5b5060ff8135811691602081013590911690604001356112ad565b6103de6004803603602081101561054557600080fd5b50356114a6565b6103e86004803603602081101561056257600080fd5b503560ff16611550565b6103de6004803603602081101561058257600080fd5b810190602081018135600160201b81111561059c57600080fd5b8201836020820111156105ae57600080fd5b803590602001918460018302840111600160201b831117156105cf57600080fd5b91908080601f01602080910402602001604051908101604052809392919081815260200183838082843760009201919091525092955061155b945050505050565b6103de6116c7565b6103de6004803603602081101561062e57600080fd5b50356001600160a01b0316611773565b6103de6004803603602081101561065457600080fd5b50356001600160a01b031661183a565b6103de600480360360a081101561067a57600080fd5b506001600160a01b038135811691602081013591604082013591606081013591608090910135166118dc565b6104e3611b32565b6103a4600480360360208110156106c457600080fd5b50356001600160a01b0316611b42565b6103de611b60565b6103de600480360360208110156106f257600080fd5b5035611c0c565b6103de6004803603602081101561070f57600080fd5b50356001600160a01b0316611cb6565b6104e3611d51565b61072f611d61565b6040805192835260208301919091528051918290030190f35b6103a4611d74565b6103de6004803603602081101561076657600080fd5b5035611d7e565b6103de6004803603608081101561078357600080fd5b5060ff813581169160208101359091169060408101359060600135611e28565b6103de600480360360808110156107b957600080fd5b5060ff813581169160208101359091169060408101359060600135612331565b6103e86127cd565b6103de600480360360208110156107f757600080fd5b50356127dc565b6103de612886565b6103e8612932565b610816612939565b6040805160ff9092168252519081900360200190f35b6103de6004803603608081101561084257600080fd5b810190602081018135600160201b81111561085c57600080fd5b82018360208201111561086e57600080fd5b803590602001918460018302840111600160201b8311171561088f57600080fd5b91908080601f0160208091040260200160405190810160405280939291908181526020018383808284376000920191909152509295505082359350505060208101356001600160a01b0316906040013560ff16612943565b6104e3612adf565b61090f6004803603602081101561090557600080fd5b503560ff16612aef565b6040518080602001868152602001856001600160a01b031681526020018460ff1681526020018315158152602001828103825287818151815260200191508051906020019080838360005b8381101561097257818101518382015260200161095a565b50505050905090810190601f16801561099f5780820380516001836020036101000a031916815260200191505b50965050505050505060405180910390f35b6103e8612bbd565b6104e3612bc4565b6103e8612bd3565b6103de600480360360408110156109df57600080fd5b5060ff81351690602001351515612bda565b6103e860048036036020811015610a0757600080fd5b503560ff16612d05565b6103de60048036036080811015610a2757600080fd5b5060ff813581169160208101359091169060408101359060600135612d10565b6108166131eb565b6104e36131f5565b6103de60048036036040811015610a6d57600080fd5b5060ff81351690602001351515613205565b610c40600480360360a0811015610a9557600080fd5b6001600160a01b038235811692602081013590911691810190606081016040820135600160201b811115610ac857600080fd5b820183602082011115610ada57600080fd5b803590602001918460208302840111600160201b83111715610afb57600080fd5b9190808060200260200160405190810160405280939291908181526020018383602002808284376000920191909152509295949360208101935035915050600160201b811115610b4a57600080fd5b820183602082011115610b5c57600080fd5b803590602001918460208302840111600160201b83111715610b7d57600080fd5b9190808060200260200160405190810160405280939291908181526020018383602002808284376000920191909152509295949360208101935035915050600160201b811115610bcc57600080fd5b820183602082011115610bde57600080fd5b803590602001918460018302840111600160201b83111715610bff57600080fd5b91908080601f016020809104026020016040519081016040528093929190818152602001838380828437600092019190915250929550613323945050505050565b604080516001600160e01b03199092168252519081900360200190f35b6103de60048036036040811015610c7357600080fd5b506001600160a01b038135169060200135613334565b6103de60048036036080811015610c9f57600080fd5b5060ff813581169160208101359091169060408101359060600135613457565b6103de60048036036020811015610cd557600080fd5b50356001600160a01b0316613a0e565b6103e8613ad5565b6103e860048036036060811015610d0357600080fd5b5060ff813581169160208101359091169060400135613adf565b6103e860048036036020811015610d3357600080fd5b503560ff16613ccd565b610d5d60048036036020811015610d5357600080fd5b503560ff16613ce0565b60405180806020018881526020018781526020018681526020018581526020018481526020018315158152602001828103825289818151815260200191508051906020019080838360005b83811015610dc0578181015183820152602001610da8565b50505050905090810190601f168015610ded5780820380516001836020036101000a031916815260200191505b509850505050505050505060405180910390f35b6103de60048036036020811015610e1757600080fd5b5035613dac565b6103e8613e56565b610c40600480360360a0811015610e3c57600080fd5b6001600160a01b03823581169260208101359091169160408201359160608101359181019060a081016080820135600160201b811115610e7b57600080fd5b820183602082011115610e8d57600080fd5b803590602001918460018302840111600160201b83111715610eae57600080fd5b91908080601f016020809104026020016040519081016040528093929190818152602001838380828437600092019190915250929550613e5d945050505050565b6103de60048036036020811015610f0557600080fd5b50356001600160a01b0316613e6e565b6001600160e01b0319811660009081526098602052604090205460ff165b919050565b60026001541415610f7e576040805162461bcd60e51b815260206004820152601f6024820152600080516020615eb9833981519152604482015290519081900360640190fd5b60026001556000610f8d613f71565b9050610f9881611b42565b610fd7576040805162461bcd60e51b81526020600482018190526024820152600080516020615fdb833981519152604482015290519081900360640190fd5b6001600160a01b038216611020576040805162461bcd60e51b815260206004820152600b60248201526a216164647265737328302960a81b604482015290519081900360640190fd5b5061016280546001600160a01b0319166001600160a01b039290921691909117905560018055565b61016b5481565b6101695481565b600061016954600014156110735750670de0b6b3a764000061115a565b6000805b6101645460ff908116908216101561112357600061109482613f75565b60ff838116600090815261016860209081526040808320546101639092529091206002015492935091600160a01b9004166012146111035760ff80841660009081526101636020526040902060020154600160a01b90048116601203166110ff82600a83900a61417e565b9150505b61111761111083836141f4565b859061422d565b93505050600101611077565b50600061112e61427d565b9050600061114861016954836141f490919063ffffffff16565b905061115483826143cd565b93505050505b90565b60ff80831660009081526101656020908152604080832093851683526003909301905220545b92915050565b600260015414156111cf576040805162461bcd60e51b815260206004820152601f6024820152600080516020615eb9833981519152604482015290519081900360640190fd5b600260015560006111de613f71565b90506111e981611b42565b611228576040805162461bcd60e51b81526020600482018190526024820152600080516020615fdb833981519152604482015290519081900360640190fd5b6101665460ff16600090815261016560209081526040909120855161124f92870190615e2e565b5050610166805460ff90811660009081526101656020526040808220600190810196909655835483168252902060020192909255805460ff1981169083168401909216919091179055805550565b610162546001600160a01b031681565b6101665460009084908490849060ff808516911611611307576040805162461bcd60e51b8152602060048201526011602482015270125b9d985b1a590819da5d995b8817da59607a1b604482015290519081900360640190fd5b60ff808416600090815261016560205260409020600701541615611360576040805162461bcd60e51b81526020600482018190526024820152600080516020615ffb833981519152604482015290519081900360640190fd5b6101645460ff8084169116116113ab576040805162461bcd60e51b815260206004820152601b6024820152600080516020615ed9833981519152604482015290519081900360640190fd5b60ff80831660009081526101636020526040902060020154600160a81b900416156114075760405162461bcd60e51b8152600401808060200182810382526023815260200180615f426023913960400191505060405180910390fd5b80611447576040805162461bcd60e51b815260206004820152601a602482015260008051602061603d833981519152604482015290519081900360640190fd5b80610170541015611490576040805162461bcd60e51b815260206004820152600e60248201526d115e18d959590813505617d3919560921b604482015290519081900360640190fd5b61149b8787876143ed565b979650505050505050565b600260015414156114ec576040805162461bcd60e51b815260206004820152601f6024820152600080516020615eb9833981519152604482015290519081900360640190fd5b600260015560006114fb613f71565b905061150681611b42565b611545576040805162461bcd60e51b81526020600482018190526024820152600080516020615fdb833981519152604482015290519081900360640190fd5b506101705560018055565b60006111838261447a565b600260015414156115a1576040805162461bcd60e51b815260206004820152601f6024820152600080516020615eb9833981519152604482015290519081900360640190fd5b600260015560006115b0613f71565b90506115bb81611b42565b6115fa576040805162461bcd60e51b81526020600482018190526024820152600080516020615fdb833981519152604482015290519081900360640190fd5b61016254604051639b642de160e01b81526020600482018181528551602484015285516001600160a01b0390941693639b642de193879383926044909201919085019080838360005b8381101561165b578181015183820152602001611643565b50505050905090810190601f1680156116885780820380516001836020036101000a031916815260200191505b5092505050600060405180830381600087803b1580156116a757600080fd5b505af11580156116bb573d6000803e3d6000fd5b50506001805550505050565b60006116d1613f71565b90506116dc81611b42565b61171b576040805162461bcd60e51b81526020600482018190526024820152600080516020615fdb833981519152604482015290519081900360640190fd5b611723611d74565b15611768576040805162461bcd60e51b815260206004820152601060248201526f14185d5cd8589b194e881c185d5cd95960821b604482015290519081900360640190fd5b6117706145e1565b50565b600260015414156117b9576040805162461bcd60e51b815260206004820152601f6024820152600080516020615eb9833981519152604482015290519081900360640190fd5b600260015560006117c8613f71565b90506117d381611b42565b611812576040805162461bcd60e51b81526020600482018190526024820152600080516020615fdb833981519152604482015290519081900360640190fd5b5061016180546001600160a01b0319166001600160a01b039290921691909117905560018055565b6000611844613f71565b905061184f81611b42565b61188e576040805162461bcd60e51b81526020600482018190526024820152600080516020615fdb833981519152604482015290519081900360640190fd5b6001600160a01b03821660009081526097602052604090205460ff16156118b4576118d8565b6001600160a01b0382166000908152609760205260409020805460ff191660011790555b5050565b600054610100900460ff16806118f557506118f5614682565b80611903575060005460ff16155b61193e5760405162461bcd60e51b815260040180806020018281038252602e815260200180615fad602e913960400191505060405180910390fd5b600054610100900460ff16158015611969576000805460ff1961ff0019909116610100171660011790555b611971614693565b61197961474c565b6119816147e1565b6119896148b7565b61016785905561016080546001600160a01b0319166001600160a01b03888116919091179182905560408051630d2020dd60e01b81526004810188905290519290911691630d2020dd91602480820192602092909190829003018186803b1580156119f357600080fd5b505afa158015611a07573d6000803e3d6000fd5b505050506040513d6020811015611a1d57600080fd5b505161016180546001600160a01b03199081166001600160a01b039384161790915561016a8054909116848316179055606461017081905561016b81905561016c81905561016d556101605460408051630d2020dd60e01b81526004810187905290519190921691630d2020dd916024808301926020929190829003018186803b158015611aaa57600080fd5b505afa158015611abe573d6000803e3d6000fd5b505050506040513d6020811015611ad457600080fd5b505161016280546001600160a01b0319166001600160a01b03909216919091179055611aff8261183a565b6001600160a01b0382163314611b1857611b183361183a565b8015611b2a576000805461ff00191690555b505050505050565b61016a546001600160a01b031681565b6001600160a01b031660009081526097602052604090205460ff1690565b6000611b6a613f71565b9050611b7581611b42565b611bb4576040805162461bcd60e51b81526020600482018190526024820152600080516020615fdb833981519152604482015290519081900360640190fd5b611bbc611d74565b611c04576040805162461bcd60e51b815260206004820152601460248201527314185d5cd8589b194e881b9bdd081c185d5cd95960621b604482015290519081900360640190fd5b611770614954565b60026001541415611c52576040805162461bcd60e51b815260206004820152601f6024820152600080516020615eb9833981519152604482015290519081900360640190fd5b60026001556000611c61613f71565b9050611c6c81611b42565b611cab576040805162461bcd60e51b81526020600482018190526024820152600080516020615fdb833981519152604482015290519081900360640190fd5b5061016d5560018055565b6000611cc0613f71565b9050611ccb81611b42565b611d0a576040805162461bcd60e51b81526020600482018190526024820152600080516020615fdb833981519152604482015290519081900360640190fd5b6001600160a01b03821660009081526097602052604090205460ff16611d2f576118d8565b506001600160a01b03166000908152609760205260409020805460ff19169055565b610161546001600160a01b031681565b600080611d6c6149d8565b915091509091565b61012e5460ff1690565b60026001541415611dc4576040805162461bcd60e51b815260206004820152601f6024820152600080516020615eb9833981519152604482015290519081900360640190fd5b60026001556000611dd3613f71565b9050611dde81611b42565b611e1d576040805162461bcd60e51b81526020600482018190526024820152600080516020615fdb833981519152604482015290519081900360640190fd5b5061016c5560018055565b60026001541415611e6e576040805162461bcd60e51b815260206004820152601f6024820152600080516020615eb9833981519152604482015290519081900360640190fd5b60026001556101665484908490849060ff808516911611611eca576040805162461bcd60e51b8152602060048201526011602482015270125b9d985b1a590819da5d995b8817da59607a1b604482015290519081900360640190fd5b60ff808416600090815261016560205260409020600701541615611f23576040805162461bcd60e51b81526020600482018190526024820152600080516020615ffb833981519152604482015290519081900360640190fd5b6101645460ff808416911611611f6e576040805162461bcd60e51b815260206004820152601b6024820152600080516020615ed9833981519152604482015290519081900360640190fd5b60ff80831660009081526101636020526040902060020154600160a81b90041615611fca5760405162461bcd60e51b8152600401808060200182810382526023815260200180615f426023913960400191505060405180910390fd5b8061200a576040805162461bcd60e51b815260206004820152601a602482015260008051602061603d833981519152604482015290519081900360640190fd5b80610170541015612053576040805162461bcd60e51b815260206004820152600e60248201526d115e18d959590813505617d3919560921b604482015290519081900360640190fd5b61205b611d74565b156120a0576040805162461bcd60e51b815260206004820152601060248201526f14185d5cd8589b194e881c185d5cd95960821b604482015290519081900360640190fd5b60006120ad8888886143ed565b905080851015612104576040805162461bcd60e51b815260206004820152601e60248201527f457863656564696e67205f6d6178436f6c6c61746572616c416d6f756e740000604482015290519081900360640190fd5b600061212861271061212261016b548561417e90919063ffffffff16565b90614a62565b60ff891660009081526101636020526040902060020154909150612157906001600160a01b0316333085614ac1565b60ff88166000908152610163602090815260408083206002015461016a54825163a9059cbb60e01b81526001600160a01b03918216600482015260248101879052925191169363a9059cbb93604480850194919392918390030190829087803b1580156121c357600080fd5b505af11580156121d7573d6000803e3d6000fd5b505050506040513d60208110156121ed57600080fd5b50612205905089896121ff8585614b21565b8a614b77565b6101625460ff8a16600090815261016560205260408120600101546001600160a01b039092169163731133e9913391908b9061224090614d0f565b6040518563ffffffff1660e01b815260040180856001600160a01b0316815260200184815260200183815260200180602001828103825283818151815260200191508051906020019080838360005b838110156122a757818101518382015260200161228f565b50505050905090810190601f1680156122d45780820380516001836020036101000a031916815260200191505b5095505050505050602060405180830381600087803b1580156122f657600080fd5b505af115801561230a573d6000803e3d6000fd5b505050506040513d602081101561232057600080fd5b505060018055505050505050505050565b60026001541415612377576040805162461bcd60e51b815260206004820152601f6024820152600080516020615eb9833981519152604482015290519081900360640190fd5b60026001556000612386613f71565b905061239181611b42565b6123d0576040805162461bcd60e51b81526020600482018190526024820152600080516020615fdb833981519152604482015290519081900360640190fd5b6101665485908590849060ff808516911611612427576040805162461bcd60e51b8152602060048201526011602482015270125b9d985b1a590819da5d995b8817da59607a1b604482015290519081900360640190fd5b60ff808416600090815261016560205260409020600701541615612480576040805162461bcd60e51b81526020600482018190526024820152600080516020615ffb833981519152604482015290519081900360640190fd5b6101645460ff8084169116116124cb576040805162461bcd60e51b815260206004820152601b6024820152600080516020615ed9833981519152604482015290519081900360640190fd5b60ff80831660009081526101636020526040902060020154600160a81b900416156125275760405162461bcd60e51b8152600401808060200182810382526023815260200180615f426023913960400191505060405180910390fd5b80612567576040805162461bcd60e51b815260206004820152601a602482015260008051602061603d833981519152604482015290519081900360640190fd5b806101705410156125b0576040805162461bcd60e51b815260206004820152600e60248201526d115e18d959590813505617d3919560921b604482015290519081900360640190fd5b6125b8611d74565b156125fd576040805162461bcd60e51b815260206004820152601060248201526f14185d5cd8589b194e881c185d5cd95960821b604482015290519081900360640190fd5b61260988888888614b77565b60ff87166000908152610163602090815260408083206002015481516323b872dd60e01b8152336004820152306024820152604481018b905291516001600160a01b03909116936323b872dd93606480850194919392918390030190829087803b15801561267657600080fd5b505af115801561268a573d6000803e3d6000fd5b505050506040513d60208110156126a057600080fd5b50506101625460ff8916600090815261016560205260408120600101546001600160a01b039092169163731133e99133919089906126dd90614d0f565b6040518563ffffffff1660e01b815260040180856001600160a01b0316815260200184815260200183815260200180602001828103825283818151815260200191508051906020019080838360005b8381101561274457818101518382015260200161272c565b50505050905090810190601f1680156127715780820380516001836020036101000a031916815260200191505b5095505050505050602060405180830381600087803b15801561279357600080fd5b505af11580156127a7573d6000803e3d6000fd5b505050506040513d60208110156127bd57600080fd5b5050600180555050505050505050565b60006127d7611056565b905090565b60026001541415612822576040805162461bcd60e51b815260206004820152601f6024820152600080516020615eb9833981519152604482015290519081900360640190fd5b60026001556000612831613f71565b905061283c81611b42565b61287b576040805162461bcd60e51b81526020600482018190526024820152600080516020615fdb833981519152604482015290519081900360640190fd5b5061016e5560018055565b61288e613f71565b6001600160a01b031661289f612bc4565b6001600160a01b0316146128e8576040805162461bcd60e51b81526020600482018190526024820152600080516020615fdb833981519152604482015290519081900360640190fd5b6065546040516000916001600160a01b0316907f8be0079c531659141344cd1fd0a4f28419497f9722a3daafe3b4186f6b6457e0908390a3606580546001600160a01b0319169055565b61016e5481565b6101665460ff1681565b60026001541415612989576040805162461bcd60e51b815260206004820152601f6024820152600080516020615eb9833981519152604482015290519081900360640190fd5b60026001556000612998613f71565b90506129a381611b42565b6129e2576040805162461bcd60e51b81526020600482018190526024820152600080516020615fdb833981519152604482015290519081900360640190fd5b8160ff1660121015612a255760405162461bcd60e51b8152600401808060200182810382526023815260200180615ef96023913960400191505060405180910390fd5b6101645460ff166000908152610163602090815260409091208651612a4c92880190615e2e565b5050610164805460ff90811660009081526101636020526040808220600190810197909755835483168252808220600290810180546001600160a01b0319166001600160a01b0398909816979097179096558354831682529020909301805460ff60a01b1916600160a01b9385169390930292909217909155805460ff1981169083168401909216919091179055805550565b610160546001600160a01b031681565b6101636020908152600091825260409182902080548351601f60026000196101006001861615020190931692909204918201849004840281018401909452808452909291839190830182828015612b875780601f10612b5c57610100808354040283529160200191612b87565b820191906000526020600020905b815481529060010190602001808311612b6a57829003601f168201915b50505060018401546002909401549293926001600160a01b038116925060ff600160a01b820481169250600160a81b9091041685565b61016d5481565b6065546001600160a01b031690565b61016c5481565b60026001541415612c20576040805162461bcd60e51b815260206004820152601f6024820152600080516020615eb9833981519152604482015290519081900360640190fd5b60026001556000612c2f613f71565b9050612c3a81611b42565b612c79576040805162461bcd60e51b81526020600482018190526024820152600080516020615fdb833981519152604482015290519081900360640190fd5b6101645460ff808516911611612cca576040805162461bcd60e51b8152602060048201526011602482015270125b9d985b1a590819da5d995b8817da59607a1b604482015290519081900360640190fd5b506101645460ff166000908152610163602052604090206002018054911515600160a81b0260ff60a81b199092169190911790555060018055565b600061118382613f75565b60026001541415612d56576040805162461bcd60e51b815260206004820152601f6024820152600080516020615eb9833981519152604482015290519081900360640190fd5b60026001556000612d65613f71565b9050612d7081611b42565b612daf576040805162461bcd60e51b81526020600482018190526024820152600080516020615fdb833981519152604482015290519081900360640190fd5b6101665485908590849060ff808516911611612e06576040805162461bcd60e51b8152602060048201526011602482015270125b9d985b1a590819da5d995b8817da59607a1b604482015290519081900360640190fd5b60ff808416600090815261016560205260409020600701541615612e5f576040805162461bcd60e51b81526020600482018190526024820152600080516020615ffb833981519152604482015290519081900360640190fd5b6101645460ff808416911611612eaa576040805162461bcd60e51b815260206004820152601b6024820152600080516020615ed9833981519152604482015290519081900360640190fd5b60ff80831660009081526101636020526040902060020154600160a81b90041615612f065760405162461bcd60e51b8152600401808060200182810382526023815260200180615f426023913960400191505060405180910390fd5b80612f46576040805162461bcd60e51b815260206004820152601a602482015260008051602061603d833981519152604482015290519081900360640190fd5b80610170541015612f8f576040805162461bcd60e51b815260206004820152600e60248201526d115e18d959590813505617d3919560921b604482015290519081900360640190fd5b612f97611d74565b15612fdc576040805162461bcd60e51b815260206004820152601060248201526f14185d5cd8589b194e881c185d5cd95960821b604482015290519081900360640190fd5b612fe888888888614d39565b6101625460ff8916600090815261016560205260408120600101546001600160a01b039092169163f242432a91339130918a9061302490614d0f565b6040518663ffffffff1660e01b815260040180866001600160a01b03168152602001856001600160a01b0316815260200184815260200183815260200180602001828103825283818151815260200191508051906020019080838360005b8381101561309a578181015183820152602001613082565b50505050905090810190601f1680156130c75780820380516001836020036101000a031916815260200191505b509650505050505050600060405180830381600087803b1580156130ea57600080fd5b505af11580156130fe573d6000803e3d6000fd5b50506101625460ff8b1660009081526101656020526040808220600101548151637a94c56560e11b81523060048201526024810191909152604481018b905290516001600160a01b03909316945063f5298aca93506064808201939182900301818387803b15801561316f57600080fd5b505af1158015613183573d6000803e3d6000fd5b50505060ff881660009081526101636020908152604080832060020154815163a9059cbb60e01b8152336004820152602481018c905291516001600160a01b03909116945063a9059cbb93604480840194938390030190829087803b15801561279357600080fd5b6101645460ff1681565b61016f546001600160a01b031681565b6002600154141561324b576040805162461bcd60e51b815260206004820152601f6024820152600080516020615eb9833981519152604482015290519081900360640190fd5b6002600155600061325a613f71565b905061326581611b42565b6132a4576040805162461bcd60e51b81526020600482018190526024820152600080516020615fdb833981519152604482015290519081900360640190fd5b6101665460ff8085169116116132f5576040805162461bcd60e51b8152602060048201526011602482015270125b9d985b1a590819da5d995b8817da59607a1b604482015290519081900360640190fd5b5060ff91909116600090815261016560205260409020600701805460ff191691151591909117905560018055565b63bc197c8160e01b95945050505050565b6002600154141561337a576040805162461bcd60e51b815260206004820152601f6024820152600080516020615eb9833981519152604482015290519081900360640190fd5b60026001556000613389613f71565b905061339481611b42565b6133d3576040805162461bcd60e51b81526020600482018190526024820152600080516020615fdb833981519152604482015290519081900360640190fd5b6040805163a9059cbb60e01b81523360048201526024810184905290516001600160a01b0385169163a9059cbb9160448083019260209291908290030181600087803b15801561342257600080fd5b505af1158015613436573d6000803e3d6000fd5b505050506040513d602081101561344c57600080fd5b505060018055505050565b6002600154141561349d576040805162461bcd60e51b815260206004820152601f6024820152600080516020615eb9833981519152604482015290519081900360640190fd5b60026001556101665484908490849060ff8085169116116134f9576040805162461bcd60e51b8152602060048201526011602482015270125b9d985b1a590819da5d995b8817da59607a1b604482015290519081900360640190fd5b60ff808416600090815261016560205260409020600701541615613552576040805162461bcd60e51b81526020600482018190526024820152600080516020615ffb833981519152604482015290519081900360640190fd5b6101645460ff80841691161161359d576040805162461bcd60e51b815260206004820152601b6024820152600080516020615ed9833981519152604482015290519081900360640190fd5b60ff80831660009081526101636020526040902060020154600160a81b900416156135f95760405162461bcd60e51b8152600401808060200182810382526023815260200180615f426023913960400191505060405180910390fd5b80613639576040805162461bcd60e51b815260206004820152601a602482015260008051602061603d833981519152604482015290519081900360640190fd5b80610170541015613682576040805162461bcd60e51b815260206004820152600e60248201526d115e18d959590813505617d3919560921b604482015290519081900360640190fd5b61368a611d74565b156136cf576040805162461bcd60e51b815260206004820152601060248201526f14185d5cd8589b194e881c185d5cd95960821b604482015290519081900360640190fd5b60006136dc888888614ec7565b905084811015613733576040805162461bcd60e51b815260206004820152601960248201527f5f6d696e416d6f756e74206973206e6f74207265616368656400000000000000604482015290519081900360640190fd5b61373f88888389614d39565b6101625460ff8916600090815261016560205260408120600101546001600160a01b039092169163f242432a91339130918b9061377b90614d0f565b6040518663ffffffff1660e01b815260040180866001600160a01b03168152602001856001600160a01b0316815260200184815260200183815260200180602001828103825283818151815260200191508051906020019080838360005b838110156137f15781810151838201526020016137d9565b50505050905090810190601f16801561381e5780820380516001836020036101000a031916815260200191505b509650505050505050600060405180830381600087803b15801561384157600080fd5b505af1158015613855573d6000803e3d6000fd5b50506101625460ff8b1660009081526101656020526040808220600101548151637a94c56560e11b81523060048201526024810191909152604481018c905290516001600160a01b03909316945063f5298aca93506064808201939182900301818387803b1580156138c657600080fd5b505af11580156138da573d6000803e3d6000fd5b50505060ff881660009081526101636020908152604080832060020154815163a9059cbb60e01b81523360048201526024810187905291516001600160a01b03909116945063a9059cbb93604480840194938390030190829087803b15801561394257600080fd5b505af1158015613956573d6000803e3d6000fd5b505050506040513d602081101561396c57600080fd5b505061016c5415613a0057600061399561271061212261016c548561417e90919063ffffffff16565b60ff89166000908152610163602090815260408083206002015461016a54825163a9059cbb60e01b81526001600160a01b039182166004820152602481018790529251959650169363a9059cbb93604480840194938390030190829087803b1580156122f657600080fd5b505060018055505050505050565b60026001541415613a54576040805162461bcd60e51b815260206004820152601f6024820152600080516020615eb9833981519152604482015290519081900360640190fd5b60026001556000613a63613f71565b9050613a6e81611b42565b613aad576040805162461bcd60e51b81526020600482018190526024820152600080516020615fdb833981519152604482015290519081900360640190fd5b5061016a80546001600160a01b0319166001600160a01b039290921691909117905560018055565b60006127d761427d565b6101665460009084908490849060ff808516911611613b39576040805162461bcd60e51b8152602060048201526011602482015270125b9d985b1a590819da5d995b8817da59607a1b604482015290519081900360640190fd5b60ff808416600090815261016560205260409020600701541615613b92576040805162461bcd60e51b81526020600482018190526024820152600080516020615ffb833981519152604482015290519081900360640190fd5b6101645460ff808416911611613bdd576040805162461bcd60e51b815260206004820152601b6024820152600080516020615ed9833981519152604482015290519081900360640190fd5b60ff80831660009081526101636020526040902060020154600160a81b90041615613c395760405162461bcd60e51b8152600401808060200182810382526023815260200180615f426023913960400191505060405180910390fd5b80613c79576040805162461bcd60e51b815260206004820152601a602482015260008051602061603d833981519152604482015290519081900360640190fd5b80610170541015613cc2576040805162461bcd60e51b815260206004820152600e60248201526d115e18d959590813505617d3919560921b604482015290519081900360640190fd5b61149b878787614ec7565b6101686020526000908152604090205481565b6101656020908152600091825260409182902080548351601f60026000196101006001861615020190931692909204918201849004840281018401909452808452909291839190830182828015613d785780601f10613d4d57610100808354040283529160200191613d78565b820191906000526020600020905b815481529060010190602001808311613d5b57829003601f168201915b5050506001840154600285015460048601546005870154600688015460079098015496979396929550909350919060ff1687565b60026001541415613df2576040805162461bcd60e51b815260206004820152601f6024820152600080516020615eb9833981519152604482015290519081900360640190fd5b60026001556000613e01613f71565b9050613e0c81611b42565b613e4b576040805162461bcd60e51b81526020600482018190526024820152600080516020615fdb833981519152604482015290519081900360640190fd5b5061016b5560018055565b6101675481565b63f23a6e6160e01b95945050505050565b613e76613f71565b6001600160a01b0316613e87612bc4565b6001600160a01b031614613ed0576040805162461bcd60e51b81526020600482018190526024820152600080516020615fdb833981519152604482015290519081900360640190fd5b6001600160a01b038116613f155760405162461bcd60e51b8152600401808060200182810382526026815260200180615f1c6026913960400191505060405180910390fd5b6065546040516001600160a01b038084169216907f8be0079c531659141344cd1fd0a4f28419497f9722a3daafe3b4186f6b6457e090600090a3606580546001600160a01b0319166001600160a01b0392909216919091179055565b3390565b6101645460009060ff808416911611613fc3576040805162461bcd60e51b815260206004820152601b6024820152600080516020615ed9833981519152604482015290519081900360640190fd5b60ff80831660009081526101636020526040902060020154600160a81b9004161561401f5760405162461bcd60e51b8152600401808060200182810382526023815260200180615f426023913960400191505060405180910390fd5b6101615460ff831660009081526101636020908152604091829020600101548251636a93856760e01b8152600481019190915291516001600160a01b0390931692636a938567926024808201939291829003018186803b15801561408257600080fd5b505afa158015614096573d6000803e3d6000fd5b505050506040513d60208110156140ac57600080fd5b50516140e95760405162461bcd60e51b815260040180806020018281038252602281526020018061601b6022913960400191505060405180910390fd5b6101615460ff831660009081526101636020908152604091829020600101548251630b0f222760e11b8152600481019190915291516001600160a01b039093169263161e444e926024808201939291829003018186803b15801561414c57600080fd5b505afa158015614160573d6000803e3d6000fd5b505050506040513d602081101561417657600080fd5b505192915050565b60008261418d57506000611183565b8282028284828161419a57fe5b04146141ed576040805162461bcd60e51b815260206004820152601960248201527f556e6d756c7469706c69636174696f6e206f766572666c6f7700000000000000604482015290519081900360640190fd5b9392505050565b6000670de0b6b3a764000061421e61420c858561417e565b6002670de0b6b3a76400005b0461422d565b8161422557fe5b049392505050565b6000828201838110156141ed576040805162461bcd60e51b8152602060048201526013602482015272556e6164646974696f6e206f766572666c6f7760681b604482015290519081900360640190fd5b610161546101675460408051636a93856760e01b81526004810192909252516000926001600160a01b031691636a938567916024808301926020929190829003018186803b1580156142ce57600080fd5b505afa1580156142e2573d6000803e3d6000fd5b505050506040513d60208110156142f857600080fd5b505161434b576040805162461bcd60e51b815260206004820152601b60248201527f74617267657443757272656e6379206973206e6f742076616c69640000000000604482015290519081900360640190fd5b610161546101675460408051630b0f222760e11b81526004810192909252516001600160a01b039092169163161e444e91602480820192602092909190829003018186803b15801561439c57600080fd5b505afa1580156143b0573d6000803e3d6000fd5b505050506040513d60208110156143c657600080fd5b5051905090565b60008161421e6143e585670de0b6b3a764000061417e565b600285614218565b60006143fa848484614f4a565b905060006144066149d8565b915050670de0b6b3a7640000811461444657600061443661271061212261016e548661417e90919063ffffffff16565b90506144428382614b21565b9250505b600061446461271061212261016b548661417e90919063ffffffff16565b9050614470838261422d565b9695505050505050565b6101665460009060ff8084169116116144ce576040805162461bcd60e51b8152602060048201526011602482015270125b9d985b1a590819da5d995b8817da59607a1b604482015290519081900360640190fd5b6000805b6101645460ff90811690821610156145845760006144ef82613f75565b60ff86811660009081526101656020908152604080832087851684526003018252808320546101639092529091206002015492935091600160a01b90041660121461456b5760ff80841660009081526101636020526040902060020154600160a01b900481166012031661456782600a83900a61417e565b9150505b61457861111083836141f4565b935050506001016144d2565b508061459b57670de0b6b3a7640000915050610f33565b60006145a561427d565b60ff851660009081526101656020526040812060040154919250906145cb9083906141f4565b90506145d783826143cd565b9350505050610f33565b6145e9611d74565b1561462e576040805162461bcd60e51b815260206004820152601060248201526f14185d5cd8589b194e881c185d5cd95960821b604482015290519081900360640190fd5b61012e805460ff191660011790557f62e78cea01bee320cd4e420270b5ea74000d11b0c9f74754ebdbfc544b05a258614665613f71565b604080516001600160a01b039092168252519081900360200190a1565b600061468d3061500a565b15905090565b600054610100900460ff16806146ac57506146ac614682565b806146ba575060005460ff16155b6146f55760405162461bcd60e51b815260040180806020018281038252602e815260200180615fad602e913960400191505060405180910390fd5b600054610100900460ff16158015614720576000805460ff1961ff0019909116610100171660011790555b614728615010565b6147306150ad565b61473861514a565b8015611770576000805461ff001916905550565b600054610100900460ff16806147655750614765614682565b80614773575060005460ff16155b6147ae5760405162461bcd60e51b815260040180806020018281038252602e815260200180615fad602e913960400191505060405180910390fd5b600054610100900460ff161580156147d9576000805460ff1961ff0019909116610100171660011790555b6147386151ea565b600054610100900460ff16806147fa57506147fa614682565b80614808575060005460ff16155b6148435760405162461bcd60e51b815260040180806020018281038252602e815260200180615fad602e913960400191505060405180910390fd5b600054610100900460ff1615801561486e576000805460ff1961ff0019909116610100171660011790555b61487661528f565b6000614880613f71565b6001600160a01b03166000908152609760205260409020805460ff19166001179055508015611770576000805461ff001916905550565b600054610100900460ff16806148d057506148d0614682565b806148de575060005460ff16155b6149195760405162461bcd60e51b815260040180806020018281038252602e815260200180615fad602e913960400191505060405180910390fd5b600054610100900460ff16158015614944576000805460ff1961ff0019909116610100171660011790555b61494c61514a565b61473861532c565b61495c611d74565b6149a4576040805162461bcd60e51b815260206004820152601460248201527314185d5cd8589b194e881b9bdd081c185d5cd95960621b604482015290519081900360640190fd5b61012e805460ff191690557f5db9ee0a495bf2e6ff9c91a7834c1ba4fdd244a5e8aa4e537bd38aeae4b073aa614665613f71565b60008060006149ed6149e8611056565b6153d8565b905060006149fa8261542d565b9050600082138015614a14575080670de0b6b3a764000012155b15614a2157809350614a2d565b670de0b6b3a764000093505b670de0b6b3a764000082138015614a4357508082135b15614a5057809250614a5c565b670de0b6b3a764000092505b50509091565b6000808211614aad576040805162461bcd60e51b8152602060048201526012602482015271556e6469766973696f6e206279207a65726f60701b604482015290519081900360640190fd5b6000828481614ab857fe5b04949350505050565b604080516001600160a01b0380861660248301528416604482015260648082018490528251808303909101815260849091019091526020810180516001600160e01b03166323b872dd60e01b179052614b1b908590615465565b50505050565b600082821115614b71576040805162461bcd60e51b8152602060048201526016602482015275556e7375627472616374696f6e206f766572666c6f7760501b604482015290519081900360640190fd5b50900390565b60ff841660009081526101656020526040902060020154614bb990614b9c908361417e565b60ff8616600090815261016560205260409020600401549061422d565b60ff8516600090815261016560205260409020600481019190915560050154614be2908261422d565b60ff808616600090815261016560209081526040808320600581019590955592871682526003909301909252902054614c1b908361422d565b60ff808616600081815261016560208181526040808420958a1680855260038701835281852097909755928490529081526002909301548151338152938401929092528281019390935260608201526080810184905260a0810183905290517f814595c6c8cd9b481ac4e0571779bcc3745d6a3ba06d3c042d04c1abcd1ee8599181900360c00190a160ff831660009081526101686020526040902054614cc2908361422d565b60ff8085166000908152610168602090815260408083209490945591871681526101659091522060020154614d0590614cfb908361417e565b610169549061422d565b6101695550505050565b60408051602080825281830190925260609160208201818036833750505060208101929092525090565b60ff841660009081526101656020526040902060020154614d7b90614d5e908361417e565b60ff86166000908152610165602052604090206004015490614b21565b60ff8516600090815261016560205260409020600481019190915560060154614da4908261422d565b60ff808616600090815261016560209081526040808320600681019590955592871682526003909301909252902054614ddd9083614b21565b60ff808616600081815261016560208181526040808420958a1680855260038701835281852097909755928490529081526002909301548151338152938401929092528281019390935260608201526080810184905260a0810183905290517fa79ae14dc10c3ec7fdfb1dda878fb17cfca3175e3c5ddb2f794970bab08f064f9181900360c00190a160ff831660009081526101686020526040902054614e849083614b21565b60ff8085166000908152610168602090815260408083209490945591871681526101659091522060020154614d0590614ebd908361417e565b6101695490614b21565b6000614ed4848484614f4a565b90506000614ee06149d8565b509050670de0b6b3a76400008114614f20576000614f1061271061212261016d548661417e90919063ffffffff16565b9050614f1c8382614b21565b9250505b6000614f3e61271061212261016c548661417e90919063ffffffff16565b90506144708382614b21565b600080614f5561427d565b90506000614f6285613f75565b60ff87166000908152610165602052604081206002015491925090614f9290614f8b908761417e565b84906141f4565b9050614f9e81836143cd565b60ff808816600090815261016360205260409020600201549195506012600160a01b90920416146150005760ff80871660009081526101636020526040902060020154600160a01b9004811660120316614ffc85600a83900a614a62565b9450505b5050509392505050565b3b151590565b600054610100900460ff16806150295750615029614682565b80615037575060005460ff16155b6150725760405162461bcd60e51b815260040180806020018281038252602e815260200180615fad602e913960400191505060405180910390fd5b600054610100900460ff1615801561509d576000805460ff1961ff0019909116610100171660011790555b6147386301ffc9a760e01b61551b565b600054610100900460ff16806150c657506150c6614682565b806150d4575060005460ff16155b61510f5760405162461bcd60e51b815260040180806020018281038252602e815260200180615fad602e913960400191505060405180910390fd5b600054610100900460ff1615801561513a576000805460ff1961ff0019909116610100171660011790555b614738630271189760e51b61551b565b600054610100900460ff16806151635750615163614682565b80615171575060005460ff16155b6151ac5760405162461bcd60e51b815260040180806020018281038252602e815260200180615fad602e913960400191505060405180910390fd5b600054610100900460ff16158015614738576000805460ff1961ff0019909116610100171660011790558015611770576000805461ff001916905550565b600054610100900460ff16806152035750615203614682565b80615211575060005460ff16155b61524c5760405162461bcd60e51b815260040180806020018281038252602e815260200180615fad602e913960400191505060405180910390fd5b600054610100900460ff16158015615277576000805460ff1961ff0019909116610100171660011790555b600180558015611770576000805461ff001916905550565b600054610100900460ff16806152a857506152a8614682565b806152b6575060005460ff16155b6152f15760405162461bcd60e51b815260040180806020018281038252602e815260200180615fad602e913960400191505060405180910390fd5b600054610100900460ff1615801561531c576000805460ff1961ff0019909116610100171660011790555b61532461514a565b61473861559f565b600054610100900460ff16806153455750615345614682565b80615353575060005460ff16155b61538e5760405162461bcd60e51b815260040180806020018281038252602e815260200180615fad602e913960400191505060405180910390fd5b600054610100900460ff161580156153b9576000805460ff1961ff0019909116610100171660011790555b61012e805460ff191690558015611770576000805461ff001916905550565b60006001600160ff1b03821115615429576040805162461bcd60e51b815260206004820152601060248201526f75696e74323536206f766572666c6f7760801b604482015290519081900360640190fd5b5090565b6000611183615456670de0b6b3a76400006154506781103cb9fb22000086615698565b906156cd565b678ac7230489e800009061573c565b60606154ba826040518060400160405280602081526020017f5361666545524332303a206c6f772d6c6576656c2063616c6c206661696c6564815250856001600160a01b03166157589092919063ffffffff16565b805190915015615516578080602001905160208110156154d957600080fd5b50516155165760405162461bcd60e51b815260040180806020018281038252602a81526020018061605d602a913960400191505060405180910390fd5b505050565b6001600160e01b0319808216141561557a576040805162461bcd60e51b815260206004820152601c60248201527f4552433136353a20696e76616c696420696e7465726661636520696400000000604482015290519081900360640190fd5b6001600160e01b0319166000908152609860205260409020805460ff19166001179055565b600054610100900460ff16806155b857506155b8614682565b806155c6575060005460ff16155b6156015760405162461bcd60e51b815260040180806020018281038252602e815260200180615fad602e913960400191505060405180910390fd5b600054610100900460ff1615801561562c576000805460ff1961ff0019909116610100171660011790555b6000615636613f71565b606580546001600160a01b0319166001600160a01b038316908117909155604051919250906000907f8be0079c531659141344cd1fd0a4f28419497f9722a3daafe3b4186f6b6457e0908290a3508015611770576000805461ff001916905550565b6000670de0b6b3a76400006156be6156b0858561576f565b670de0b6b3a764000061583a565b816156c557fe5b059392505050565b60008282018183128015906156e25750838112155b806156f757506000831280156156f757508381125b6141ed576040805162461bcd60e51b81526020600482015260116024820152706164646974696f6e206f766572666c6f7760781b604482015290519081900360640190fd5b60006141ed61574a836158b9565b615753856158b9565b615b94565b60606157678484600085615bc7565b949350505050565b60008261577e57506000611183565b826000191480156157925750600160ff1b82145b156157df576040805162461bcd60e51b8152602060048201526018602482015277776d756c7469706c69636174696f6e206f766572666c6f7760401b604482015290519081900360640190fd5b828202828482816157ec57fe5b05146141ed576040805162461bcd60e51b8152602060048201526018602482015277776d756c7469706c69636174696f6e206f766572666c6f7760401b604482015290519081900360640190fd5b6000808213615890576040805162461bcd60e51b815260206004820152601f60248201527f726f756e6448616c665570206f6e6c7920737570706f7274732079203e203000604482015290519081900360640190fd5b600083126158ac576158a583600284056156cd565b9050611183565b6141ed8360028405615d18565b600080821361590f576040805162461bcd60e51b815260206004820152601760248201527f6c6f6745206f66206e65676174697665206e756d626572000000000000000000604482015290519081900360640190fd5b701d6329f1c35ca4bfabb9f561000000000082131561595f5760405162461bcd60e51b8152600401808060200182810382526022815260200180615f656022913960400191505060405180910390fd5b60006012670de0b6b3a76400005b67016345785d8a0000851361599c5784600a0294506f01bb7635c5de48ef4ce5b7b41cc43db08303925061596d565b678ac7230489e8000085126159cb57600a850594506f01bb7635c5de48ef4ce5b7b41cc43db08301925061599c565b670de0b6b3a7640000851215615a08576159ed856725b946ebc0b36173615698565b94506ec097ce7bc90715b34b9f1000000000830392506159cb565b6725b946ebc0b36173851315615a4557615a2a856725b946ebc0b36173615b94565b94506ec097ce7bc90715b34b9f100000000083019250615a08565b670de0b6b3a7640000851415615a725780615a60848361583a565b81615a6757fe5b059350505050610f33565b6725b946ebc0b36173851415615aa95780615a8d848361583a565b81615a9457fe5b05670de0b6b3a7640000019350505050610f33565b938402936e4e16f927cdca7f15b39123f740f5d192909201916f0120e3b5b9ad8aa08cf16e980000000060008187016ec097ce7bc90715b34b9f10000000006f0120e3b5b9ad8aa08cf16e97ffffffff1989010281615b0457fe5b059050806002028501945060006ec097ce7bc90715b34b9f100000000082830281615b2b57fe5b05905060035b6ec097ce7bc90715b34b9f10000000008383020592508060ff168360020281615b5657fe5b059690960195600201602760ff821610615b6f57615b74565b615b31565b84615b7f888761583a565b81615b8657fe5b059998505050505050505050565b600080821215615bab578160000391508260000392505b816156be615bc185670de0b6b3a764000061576f565b8461583a565b606082471015615c085760405162461bcd60e51b8152600401808060200182810382526026815260200180615f876026913960400191505060405180910390fd5b615c118561500a565b615c62576040805162461bcd60e51b815260206004820152601d60248201527f416464726573733a2063616c6c20746f206e6f6e2d636f6e7472616374000000604482015290519081900360640190fd5b60006060866001600160a01b031685876040518082805190602001908083835b60208310615ca15780518252601f199092019160209182019101615c82565b6001836020036101000a03801982511681845116808217855250505050505090500191505060006040518083038185875af1925050503d8060008114615d03576040519150601f19603f3d011682016040523d82523d6000602084013e615d08565b606091505b509150915061149b828286615d8a565b6000818303818312801590615d2d5750838113155b80615d425750600083128015615d4257508381135b6141ed576040805162461bcd60e51b81526020600482015260146024820152737375627472616374696f6e206f766572666c6f7760601b604482015290519081900360640190fd5b60608315615d995750816141ed565b825115615da95782518084602001fd5b8160405162461bcd60e51b81526004018080602001828103825283818151815260200191508051906020019080838360005b83811015615df3578181015183820152602001615ddb565b50505050905090810190601f168015615e205780820380516001836020036101000a031916815260200191505b509250505060405180910390fd5b828054600181600116156101000203166002900490600052602060002090601f016020900481019282601f10615e6f57805160ff1916838001178555615e9c565b82800160010185558215615e9c579182015b82811115615e9c578251825591602001919060010190615e81565b506154299291505b808211156154295760008155600101615ea456fe5265656e7472616e637947756172643a207265656e7472616e742063616c6c00496e76616c696420676976656e205f636f6c6c61746572616c496400000000005f646563696d616c732073686f756c64206e6f742062652065786365656465642031384f776e61626c653a206e6577206f776e657220697320746865207a65726f206164647265737354686520676976656e205f636f6c6c61746572616c49642069732064697361626c65646c6f6745206f6e6c7920616363657074732076203c3d2031653232202a2031653138416464726573733a20696e73756666696369656e742062616c616e636520666f722063616c6c496e697469616c697a61626c653a20636f6e747261637420697320616c726561647920696e697469616c697a65644f776e61626c653a2063616c6c6572206973206e6f7420746865206f776e657254686520676976656e205f76617269616e7449642069732064697361626c6564636f6c6c61746572616c536861726553796d626f6c206973206e6f742076616c69645f746f6b656e416d6f756e742063616e2774206265207a65726f0000000000005361666545524332303a204552433230206f7065726174696f6e20646964206e6f742073756363656564a2646970667358221220b4d1285553db7895642c219294373ab689c60d434ec2f538166fda749ea2b1a864736f6c634300060c0033",
  "devdoc": {
    "kind": "dev",
    "methods": {
      "addAddress(address)": {
        "details": "adds a given address to the whitelist",
        "params": {
          "_address": "address to add"
        }
      },
      "estimateMint(uint8,uint8,uint256)": {
        "params": {
          "_collateralId": "the collateral asset to use",
          "_tokenAmount": "total NFT to be created",
          "_variantId": "the NFT's variant id"
        },
        "returns": {
          "amount": "the amount of the collateral need for minting"
        }
      },
      "estimateRedeem(uint8,uint8,uint256)": {
        "params": {
          "_collateralId": "the collateral asset to use",
          "_tokenAmount": "total NFT to be burnt",
          "_variantId": "the NFT's variant id"
        },
        "returns": {
          "amount": "amount of collateral to be returned"
        }
      },
      "getCollateralPrice(uint8)": {
        "params": {
          "_collateralId": "the collateral id"
        },
        "returns": {
          "_0": "US price per a collateral token"
        }
      },
      "getSyntheticPrice()": {
        "returns": {
          "_0": "US price per a synthetic token"
        }
      },
      "getVariantCollateral(uint8,uint8)": {
        "params": {
          "_collateralId": "the collateral id"
        },
        "returns": {
          "_0": "amount total amount of collateral"
        }
      },
      "globalCollatelizationRatio()": {
        "returns": {
          "_0": "the system collateral ratio"
        }
      },
      "initialize(address,bytes32,bytes32,bytes32,address)": {
        "params": {
          "_devAddress": "dev address",
          "_registryAddress": "the address of the registry contract"
        }
      },
      "isWhitelisted(address)": {
        "details": "returns true if a given address is whitelisted, false if not",
        "params": {
          "_address": "address to check"
        },
        "returns": {
          "_0": "true if the address is whitelisted, false if not"
        }
      },
      "mint(uint8,uint8,uint256,uint256)": {
        "params": {
          "_collateralId": "the collateral id",
          "_maxCollateralAmount": "cap. amount of token that can be sent out from the wallet",
          "_tokenAmount": "total NFT to be created",
          "_variantId": "the NFT's variant id"
        }
      },
      "owner()": {
        "details": "Returns the address of the current owner."
      },
      "paused()": {
        "details": "Returns true if the contract is paused, and false otherwise."
      },
      "redeem(uint8,uint8,uint256,uint256)": {
        "params": {
          "_collateralId": "the collateral id",
          "_minAmount": "min. amount of collateral token expects to receive",
          "_tokenAmount": "total NFT to be burnt",
          "_variantId": "the NFT's variant id"
        }
      },
      "removeAddress(address)": {
        "details": "removes a given address from the whitelist",
        "params": {
          "_address": "address to remove"
        }
      },
      "renounceOwnership()": {
        "details": "Leaves the contract without owner. It will not be possible to call `onlyOwner` functions anymore. Can only be called by the current owner. NOTE: Renouncing ownership will leave the contract without an owner, thereby removing any functionality that is only available to the owner."
      },
      "supportsInterface(bytes4)": {
        "details": "See {IERC165-supportsInterface}. Time complexity O(1), guaranteed to always use less than 30 000 gas."
      },
      "targetCollatelizationRatio()": {
        "returns": {
          "_0": "the target ratio when CR < 1",
          "_1": "the target ratio when CR > 1"
        }
      },
      "transferOwnership(address)": {
        "details": "Transfers ownership of the contract to a new account (`newOwner`). Can only be called by the current owner."
      },
      "variantCollatelizationRatio(uint8)": {
        "params": {
          "_id": "the NFT's variant id"
        },
        "returns": {
          "_0": "the variant collateral ratio"
        }
      }
    },
    "title": "A contract to collaterizes ERC-20 and mints NFT",
    "version": 1
  },
  "userdoc": {
    "kind": "user",
    "methods": {
      "estimateMint(uint8,uint8,uint256)": {
        "notice": "calculate amount of collateral assets to be placed for minting the NFT"
      },
      "estimateRedeem(uint8,uint8,uint256)": {
        "notice": "calculate amount of collateral assets to be returned when burning NFT"
      },
      "getCollateralPrice(uint8)": {
        "notice": "call the price feeder registry to retrieve the latest price of collateral token"
      },
      "getSyntheticPrice()": {
        "notice": "call the price feeder registry to retrieve the latest price of NFT"
      },
      "getVariantCollateral(uint8,uint8)": {
        "notice": "check variant collateral"
      },
      "globalCollatelizationRatio()": {
        "notice": "looks for the system collateral ratio basically calculates from total collateral deposited / total NFT minted"
      },
      "initialize(address,bytes32,bytes32,bytes32,address)": {
        "notice": "the contructor"
      },
      "mint(uint8,uint8,uint256,uint256)": {
        "notice": "taking collateral tokens to mint the NFT"
      },
      "redeem(uint8,uint8,uint256,uint256)": {
        "notice": "burning NFT and returning collateral assets, the offset fee will be charged when CR < 1"
      },
      "targetCollatelizationRatio()": {
        "notice": "calculates the normalized collateral ratio"
      },
      "variantCollatelizationRatio(uint8)": {
        "notice": "calculates the collateral ratio for particular variant"
      }
    },
    "version": 1
  },
  "storageLayout": {
    "storage": [
      {
        "astId": 1105,
        "contract": "contracts/NFTManagerUpgradeable.sol:NFTManagerUpgradeable",
        "label": "_initialized",
        "offset": 0,
        "slot": "0",
        "type": "t_bool"
      },
      {
        "astId": 1108,
        "contract": "contracts/NFTManagerUpgradeable.sol:NFTManagerUpgradeable",
        "label": "_initializing",
        "offset": 1,
        "slot": "0",
        "type": "t_bool"
      },
      {
        "astId": 2351,
        "contract": "contracts/NFTManagerUpgradeable.sol:NFTManagerUpgradeable",
        "label": "_status",
        "offset": 0,
        "slot": "1",
        "type": "t_uint256"
      },
      {
        "astId": 2394,
        "contract": "contracts/NFTManagerUpgradeable.sol:NFTManagerUpgradeable",
        "label": "__gap",
        "offset": 0,
        "slot": "2",
        "type": "t_array(t_uint256)49_storage"
      },
      {
        "astId": 2223,
        "contract": "contracts/NFTManagerUpgradeable.sol:NFTManagerUpgradeable",
        "label": "__gap",
        "offset": 0,
        "slot": "51",
        "type": "t_array(t_uint256)50_storage"
      },
      {
        "astId": 465,
        "contract": "contracts/NFTManagerUpgradeable.sol:NFTManagerUpgradeable",
        "label": "_owner",
        "offset": 0,
        "slot": "101",
        "type": "t_address"
      },
      {
        "astId": 584,
        "contract": "contracts/NFTManagerUpgradeable.sol:NFTManagerUpgradeable",
        "label": "__gap",
        "offset": 0,
        "slot": "102",
        "type": "t_array(t_uint256)49_storage"
      },
      {
        "astId": 22399,
        "contract": "contracts/NFTManagerUpgradeable.sol:NFTManagerUpgradeable",
        "label": "whitelist",
        "offset": 0,
        "slot": "151",
        "type": "t_mapping(t_address,t_bool)"
      },
      {
        "astId": 673,
        "contract": "contracts/NFTManagerUpgradeable.sol:NFTManagerUpgradeable",
        "label": "_supportedInterfaces",
        "offset": 0,
        "slot": "152",
        "type": "t_mapping(t_bytes4,t_bool)"
      },
      {
        "astId": 730,
        "contract": "contracts/NFTManagerUpgradeable.sol:NFTManagerUpgradeable",
        "label": "__gap",
        "offset": 0,
        "slot": "153",
        "type": "t_array(t_uint256)49_storage"
      },
      {
        "astId": 1297,
        "contract": "contracts/NFTManagerUpgradeable.sol:NFTManagerUpgradeable",
        "label": "__gap",
        "offset": 0,
        "slot": "202",
        "type": "t_array(t_uint256)50_storage"
      },
      {
        "astId": 1242,
        "contract": "contracts/NFTManagerUpgradeable.sol:NFTManagerUpgradeable",
        "label": "__gap",
        "offset": 0,
        "slot": "252",
        "type": "t_array(t_uint256)50_storage"
      },
      {
        "astId": 2245,
        "contract": "contracts/NFTManagerUpgradeable.sol:NFTManagerUpgradeable",
        "label": "_paused",
        "offset": 0,
        "slot": "302",
        "type": "t_bool"
      },
      {
        "astId": 2336,
        "contract": "contracts/NFTManagerUpgradeable.sol:NFTManagerUpgradeable",
        "label": "__gap",
        "offset": 0,
        "slot": "303",
        "type": "t_array(t_uint256)49_storage"
      },
      {
        "astId": 9901,
        "contract": "contracts/NFTManagerUpgradeable.sol:NFTManagerUpgradeable",
        "label": "registry",
        "offset": 0,
        "slot": "352",
        "type": "t_contract(IRegistry)19274"
      },
      {
        "astId": 9903,
        "contract": "contracts/NFTManagerUpgradeable.sol:NFTManagerUpgradeable",
        "label": "priceResolver",
        "offset": 0,
        "slot": "353",
        "type": "t_contract(IPriceResolver)19245"
      },
      {
        "astId": 9906,
        "contract": "contracts/NFTManagerUpgradeable.sol:NFTManagerUpgradeable",
        "label": "syntheticNFT",
        "offset": 0,
        "slot": "354",
        "type": "t_contract(ISyntheticNFT)19338"
      },
      {
        "astId": 9910,
        "contract": "contracts/NFTManagerUpgradeable.sol:NFTManagerUpgradeable",
        "label": "collaterals",
        "offset": 0,
        "slot": "355",
        "type": "t_mapping(t_uint8,t_struct(CollateralAsset)9880_storage)"
      },
      {
        "astId": 9912,
        "contract": "contracts/NFTManagerUpgradeable.sol:NFTManagerUpgradeable",
        "label": "collateralCount",
        "offset": 0,
        "slot": "356",
        "type": "t_uint8"
      },
      {
        "astId": 9916,
        "contract": "contracts/NFTManagerUpgradeable.sol:NFTManagerUpgradeable",
        "label": "syntheticVariants",
        "offset": 0,
        "slot": "357",
        "type": "t_mapping(t_uint8,t_struct(SyntheticVariant)9899_storage)"
      },
      {
        "astId": 9918,
        "contract": "contracts/NFTManagerUpgradeable.sol:NFTManagerUpgradeable",
        "label": "syntheticVariantCount",
        "offset": 0,
        "slot": "358",
        "type": "t_uint8"
      },
      {
        "astId": 9920,
        "contract": "contracts/NFTManagerUpgradeable.sol:NFTManagerUpgradeable",
        "label": "targetCurrency",
        "offset": 0,
        "slot": "359",
        "type": "t_bytes32"
      },
      {
        "astId": 9924,
        "contract": "contracts/NFTManagerUpgradeable.sol:NFTManagerUpgradeable",
        "label": "totalRawCollateral",
        "offset": 0,
        "slot": "360",
        "type": "t_mapping(t_uint8,t_uint256)"
      },
      {
        "astId": 9926,
        "contract": "contracts/NFTManagerUpgradeable.sol:NFTManagerUpgradeable",
        "label": "totalOutstanding",
        "offset": 0,
        "slot": "361",
        "type": "t_uint256"
      },
      {
        "astId": 9928,
        "contract": "contracts/NFTManagerUpgradeable.sol:NFTManagerUpgradeable",
        "label": "devAddress",
        "offset": 0,
        "slot": "362",
        "type": "t_address"
      },
      {
        "astId": 9930,
        "contract": "contracts/NFTManagerUpgradeable.sol:NFTManagerUpgradeable",
        "label": "mintFee",
        "offset": 0,
        "slot": "363",
        "type": "t_uint256"
      },
      {
        "astId": 9932,
        "contract": "contracts/NFTManagerUpgradeable.sol:NFTManagerUpgradeable",
        "label": "redeemFee",
        "offset": 0,
        "slot": "364",
        "type": "t_uint256"
      },
      {
        "astId": 9934,
        "contract": "contracts/NFTManagerUpgradeable.sol:NFTManagerUpgradeable",
        "label": "offsetFee",
        "offset": 0,
        "slot": "365",
        "type": "t_uint256"
      },
      {
        "astId": 9936,
        "contract": "contracts/NFTManagerUpgradeable.sol:NFTManagerUpgradeable",
        "label": "discountFee",
        "offset": 0,
        "slot": "366",
        "type": "t_uint256"
      },
      {
        "astId": 9938,
        "contract": "contracts/NFTManagerUpgradeable.sol:NFTManagerUpgradeable",
        "label": "ROUTER_ADDRESS",
        "offset": 0,
        "slot": "367",
        "type": "t_address"
      },
      {
        "astId": 9940,
        "contract": "contracts/NFTManagerUpgradeable.sol:NFTManagerUpgradeable",
        "label": "maxNft",
        "offset": 0,
        "slot": "368",
        "type": "t_uint256"
      }
    ],
    "types": {
      "t_address": {
        "encoding": "inplace",
        "label": "address",
        "numberOfBytes": "20"
      },
      "t_array(t_uint256)49_storage": {
        "base": "t_uint256",
        "encoding": "inplace",
        "label": "uint256[49]",
        "numberOfBytes": "1568"
      },
      "t_array(t_uint256)50_storage": {
        "base": "t_uint256",
        "encoding": "inplace",
        "label": "uint256[50]",
        "numberOfBytes": "1600"
      },
      "t_bool": {
        "encoding": "inplace",
        "label": "bool",
        "numberOfBytes": "1"
      },
      "t_bytes32": {
        "encoding": "inplace",
        "label": "bytes32",
        "numberOfBytes": "32"
      },
      "t_bytes4": {
        "encoding": "inplace",
        "label": "bytes4",
        "numberOfBytes": "4"
      },
      "t_contract(IPriceResolver)19245": {
        "encoding": "inplace",
        "label": "contract IPriceResolver",
        "numberOfBytes": "20"
      },
      "t_contract(IRegistry)19274": {
        "encoding": "inplace",
        "label": "contract IRegistry",
        "numberOfBytes": "20"
      },
      "t_contract(ISyntheticNFT)19338": {
        "encoding": "inplace",
        "label": "contract ISyntheticNFT",
        "numberOfBytes": "20"
      },
      "t_mapping(t_address,t_bool)": {
        "encoding": "mapping",
        "key": "t_address",
        "label": "mapping(address => bool)",
        "numberOfBytes": "32",
        "value": "t_bool"
      },
      "t_mapping(t_bytes4,t_bool)": {
        "encoding": "mapping",
        "key": "t_bytes4",
        "label": "mapping(bytes4 => bool)",
        "numberOfBytes": "32",
        "value": "t_bool"
      },
      "t_mapping(t_uint8,t_struct(CollateralAsset)9880_storage)": {
        "encoding": "mapping",
        "key": "t_uint8",
        "label": "mapping(uint8 => struct NFTManagerUpgradeable.CollateralAsset)",
        "numberOfBytes": "32",
        "value": "t_struct(CollateralAsset)9880_storage"
      },
      "t_mapping(t_uint8,t_struct(SyntheticVariant)9899_storage)": {
        "encoding": "mapping",
        "key": "t_uint8",
        "label": "mapping(uint8 => struct NFTManagerUpgradeable.SyntheticVariant)",
        "numberOfBytes": "32",
        "value": "t_struct(SyntheticVariant)9899_storage"
      },
      "t_mapping(t_uint8,t_uint256)": {
        "encoding": "mapping",
        "key": "t_uint8",
        "label": "mapping(uint8 => uint256)",
        "numberOfBytes": "32",
        "value": "t_uint256"
      },
      "t_string_storage": {
        "encoding": "bytes",
        "label": "string",
        "numberOfBytes": "32"
      },
      "t_struct(CollateralAsset)9880_storage": {
        "encoding": "inplace",
        "label": "struct NFTManagerUpgradeable.CollateralAsset",
        "members": [
          {
            "astId": 9871,
            "contract": "contracts/NFTManagerUpgradeable.sol:NFTManagerUpgradeable",
            "label": "name",
            "offset": 0,
            "slot": "0",
            "type": "t_string_storage"
          },
          {
            "astId": 9873,
            "contract": "contracts/NFTManagerUpgradeable.sol:NFTManagerUpgradeable",
            "label": "priceFeeder",
            "offset": 0,
            "slot": "1",
            "type": "t_bytes32"
          },
          {
            "astId": 9875,
            "contract": "contracts/NFTManagerUpgradeable.sol:NFTManagerUpgradeable",
            "label": "tokenAddress",
            "offset": 0,
            "slot": "2",
            "type": "t_address"
          },
          {
            "astId": 9877,
            "contract": "contracts/NFTManagerUpgradeable.sol:NFTManagerUpgradeable",
            "label": "decimals",
            "offset": 20,
            "slot": "2",
            "type": "t_uint8"
          },
          {
            "astId": 9879,
            "contract": "contracts/NFTManagerUpgradeable.sol:NFTManagerUpgradeable",
            "label": "disabled",
            "offset": 21,
            "slot": "2",
            "type": "t_bool"
          }
        ],
        "numberOfBytes": "96"
      },
      "t_struct(SyntheticVariant)9899_storage": {
        "encoding": "inplace",
        "label": "struct NFTManagerUpgradeable.SyntheticVariant",
        "members": [
          {
            "astId": 9882,
            "contract": "contracts/NFTManagerUpgradeable.sol:NFTManagerUpgradeable",
            "label": "name",
            "offset": 0,
            "slot": "0",
            "type": "t_string_storage"
          },
          {
            "astId": 9884,
            "contract": "contracts/NFTManagerUpgradeable.sol:NFTManagerUpgradeable",
            "label": "tokenId",
            "offset": 0,
            "slot": "1",
            "type": "t_uint256"
          },
          {
            "astId": 9886,
            "contract": "contracts/NFTManagerUpgradeable.sol:NFTManagerUpgradeable",
            "label": "tokenValue",
            "offset": 0,
            "slot": "2",
            "type": "t_uint256"
          },
          {
            "astId": 9890,
            "contract": "contracts/NFTManagerUpgradeable.sol:NFTManagerUpgradeable",
            "label": "totalRawCollateral",
            "offset": 0,
            "slot": "3",
            "type": "t_mapping(t_uint8,t_uint256)"
          },
          {
            "astId": 9892,
            "contract": "contracts/NFTManagerUpgradeable.sol:NFTManagerUpgradeable",
            "label": "totalOutstanding",
            "offset": 0,
            "slot": "4",
            "type": "t_uint256"
          },
          {
            "astId": 9894,
            "contract": "contracts/NFTManagerUpgradeable.sol:NFTManagerUpgradeable",
            "label": "totalIssued",
            "offset": 0,
            "slot": "5",
            "type": "t_uint256"
          },
          {
            "astId": 9896,
            "contract": "contracts/NFTManagerUpgradeable.sol:NFTManagerUpgradeable",
            "label": "totalBurnt",
            "offset": 0,
            "slot": "6",
            "type": "t_uint256"
          },
          {
            "astId": 9898,
            "contract": "contracts/NFTManagerUpgradeable.sol:NFTManagerUpgradeable",
            "label": "disabled",
            "offset": 0,
            "slot": "7",
            "type": "t_bool"
          }
        ],
        "numberOfBytes": "256"
      },
      "t_uint256": {
        "encoding": "inplace",
        "label": "uint256",
        "numberOfBytes": "32"
      },
      "t_uint8": {
        "encoding": "inplace",
        "label": "uint8",
        "numberOfBytes": "1"
      }
    }
  }
}