{
  "address": "0xA731D33E2245c6b2076e7Be91530a54B5811ABd0",
  "abi": [
    {
      "inputs": [
        {
          "internalType": "address",
          "name": "_devAddress",
          "type": "address"
        }
      ],
      "stateMutability": "nonpayable",
      "type": "constructor"
    },
    {
      "anonymous": false,
      "inputs": [
        {
          "indexed": true,
          "internalType": "address",
          "name": "previousOwner",
          "type": "address"
        },
        {
          "indexed": true,
          "internalType": "address",
          "name": "newOwner",
          "type": "address"
        }
      ],
      "name": "OwnershipTransferred",
      "type": "event"
    },
    {
      "anonymous": false,
      "inputs": [
        {
          "indexed": false,
          "internalType": "bytes32",
          "name": "symbol",
          "type": "bytes32"
        },
        {
          "indexed": false,
          "internalType": "address",
          "name": "priceFeederAddress",
          "type": "address"
        },
        {
          "indexed": false,
          "internalType": "bool",
          "name": "invert",
          "type": "bool"
        }
      ],
      "name": "PriceFeederAdded",
      "type": "event"
    },
    {
      "inputs": [
        {
          "internalType": "address",
          "name": "_address",
          "type": "address"
        }
      ],
      "name": "addAddress",
      "outputs": [],
      "stateMutability": "nonpayable",
      "type": "function"
    },
    {
      "inputs": [
        {
          "internalType": "bytes32",
          "name": "_symbol",
          "type": "bytes32"
        }
      ],
      "name": "getCurrentPrice",
      "outputs": [
        {
          "internalType": "uint256",
          "name": "",
          "type": "uint256"
        }
      ],
      "stateMutability": "view",
      "type": "function"
    },
    {
      "inputs": [
        {
          "internalType": "uint256",
          "name": "",
          "type": "uint256"
        }
      ],
      "name": "indexToPriceFeeder",
      "outputs": [
        {
          "internalType": "bytes32",
          "name": "",
          "type": "bytes32"
        }
      ],
      "stateMutability": "view",
      "type": "function"
    },
    {
      "inputs": [
        {
          "internalType": "bytes32",
          "name": "_symbol",
          "type": "bytes32"
        }
      ],
      "name": "isValid",
      "outputs": [
        {
          "internalType": "bool",
          "name": "",
          "type": "bool"
        }
      ],
      "stateMutability": "view",
      "type": "function"
    },
    {
      "inputs": [
        {
          "internalType": "address",
          "name": "_address",
          "type": "address"
        }
      ],
      "name": "isWhitelisted",
      "outputs": [
        {
          "internalType": "bool",
          "name": "",
          "type": "bool"
        }
      ],
      "stateMutability": "view",
      "type": "function"
    },
    {
      "inputs": [],
      "name": "owner",
      "outputs": [
        {
          "internalType": "address",
          "name": "",
          "type": "address"
        }
      ],
      "stateMutability": "view",
      "type": "function"
    },
    {
      "inputs": [],
      "name": "priceFeederCount",
      "outputs": [
        {
          "internalType": "uint256",
          "name": "",
          "type": "uint256"
        }
      ],
      "stateMutability": "view",
      "type": "function"
    },
    {
      "inputs": [
        {
          "internalType": "bytes32",
          "name": "",
          "type": "bytes32"
        }
      ],
      "name": "priceFeeders",
      "outputs": [
        {
          "internalType": "address",
          "name": "priceFeederAddress",
          "type": "address"
        },
        {
          "internalType": "bool",
          "name": "disabled",
          "type": "bool"
        },
        {
          "internalType": "bool",
          "name": "invert",
          "type": "bool"
        },
        {
          "internalType": "uint256",
          "name": "fallbackValue",
          "type": "uint256"
        }
      ],
      "stateMutability": "view",
      "type": "function"
    },
    {
      "inputs": [
        {
          "internalType": "bytes32",
          "name": "_symbol",
          "type": "bytes32"
        },
        {
          "internalType": "address",
          "name": "_priceFeederAddress",
          "type": "address"
        },
        {
          "internalType": "bool",
          "name": "_invert",
          "type": "bool"
        },
        {
          "internalType": "uint256",
          "name": "_fallbackValue",
          "type": "uint256"
        }
      ],
      "name": "registerPriceFeeder",
      "outputs": [],
      "stateMutability": "nonpayable",
      "type": "function"
    },
    {
      "inputs": [
        {
          "internalType": "address",
          "name": "_address",
          "type": "address"
        }
      ],
      "name": "removeAddress",
      "outputs": [],
      "stateMutability": "nonpayable",
      "type": "function"
    },
    {
      "inputs": [],
      "name": "renounceOwnership",
      "outputs": [],
      "stateMutability": "nonpayable",
      "type": "function"
    },
    {
      "inputs": [
        {
          "internalType": "bytes32",
          "name": "_symbol",
          "type": "bytes32"
        },
        {
          "internalType": "address",
          "name": "_priceFeederAddress",
          "type": "address"
        }
      ],
      "name": "setPriceFeederAddress",
      "outputs": [],
      "stateMutability": "nonpayable",
      "type": "function"
    },
    {
      "inputs": [
        {
          "internalType": "bytes32",
          "name": "_symbol",
          "type": "bytes32"
        },
        {
          "internalType": "bool",
          "name": "_disabled",
          "type": "bool"
        }
      ],
      "name": "setPriceFeederDisable",
      "outputs": [],
      "stateMutability": "nonpayable",
      "type": "function"
    },
    {
      "inputs": [
        {
          "internalType": "bytes32",
          "name": "_symbol",
          "type": "bytes32"
        },
        {
          "internalType": "uint256",
          "name": "_fallbackValue",
          "type": "uint256"
        }
      ],
      "name": "setPriceFeederFallbackValue",
      "outputs": [],
      "stateMutability": "nonpayable",
      "type": "function"
    },
    {
      "inputs": [
        {
          "internalType": "bytes32",
          "name": "_symbol",
          "type": "bytes32"
        },
        {
          "internalType": "bool",
          "name": "_invert",
          "type": "bool"
        }
      ],
      "name": "setPriceFeederInvertFlag",
      "outputs": [],
      "stateMutability": "nonpayable",
      "type": "function"
    },
    {
      "inputs": [
        {
          "internalType": "address",
          "name": "newOwner",
          "type": "address"
        }
      ],
      "name": "transferOwnership",
      "outputs": [],
      "stateMutability": "nonpayable",
      "type": "function"
    }
  ],
  "transactionHash": "0xf0380b8ad2baf92580d2e1b6b0fedfba90511113bb1e49fd9b3582563eb5b21e",
  "args": [
    "0x6dAC71153D5869f60686F6F0cabBaC96D4CA31f2"
  ],
  "solcInputHash": "ebd60ca7dcd601301bd97eafef9bd9e1",
  "bytecode": "0x60806040523480156200001157600080fd5b50604051620011c8380380620011c8833981810160405260208110156200003757600080fd5b5051600160009081556200004a62000158565b600180546001600160a01b0319166001600160a01b038316908117909155604051919250906000907f8be0079c531659141344cd1fd0a4f28419497f9722a3daafe3b4186f6b6457e0908290a3506000620000a462000158565b6001600160a01b031660009081526002602081905260408220805460ff1916600117905590541415905062000120576040805162461bcd60e51b815260206004820152601f60248201527f5265656e7472616e637947756172643a207265656e7472616e742063616c6c00604482015290519081900360640190fd5b600260005562000130816200015c565b6001600160a01b03811633146200014c576200014c336200015c565b50600160005562000235565b3390565b60006200016862000158565b9050620001758162000217565b620001c7576040805162461bcd60e51b815260206004820181905260248201527f4f776e61626c653a2063616c6c6572206973206e6f7420746865206f776e6572604482015290519081900360640190fd5b6001600160a01b03821660009081526002602052604090205460ff1615620001ef5762000213565b6001600160a01b0382166000908152600260205260409020805460ff191660011790555b5050565b6001600160a01b031660009081526002602052604090205460ff1690565b610f8380620002456000396000f3fe608060405234801561001057600080fd5b50600436106101005760003560e01c80636a938567116100975780638da5cb5b116100665780638da5cb5b146102dd578063afa6485d14610301578063e5d200651461031e578063f2fde38b1461034a57610100565b80636a93856714610259578063715018a61461027657806384660c271461027e57806385b5da87146102a357610100565b80633af32abf116100d35780633af32abf146101895780634ba79dfe146101c357806361cd6686146101e957806364b456ed1461020c57610100565b806314bd418714610105578063161e444e1461011f5780631eaa602e1461013c57806338eada1c14610163575b600080fd5b61010d610370565b60408051918252519081900360200190f35b61010d6004803603602081101561013557600080fd5b5035610376565b6101616004803603604081101561015257600080fd5b508035906020013515156104e1565b005b6101616004803603602081101561017957600080fd5b50356001600160a01b03166105af565b6101af6004803603602081101561019f57600080fd5b50356001600160a01b0316610651565b604080519115158252519081900360200190f35b610161600480360360208110156101d957600080fd5b50356001600160a01b031661066f565b610161600480360360408110156101ff57600080fd5b508035906020013561070a565b6102296004803603602081101561022257600080fd5b50356107c5565b604080516001600160a01b0390951685529215156020850152901515838301526060830152519081900360800190f35b6101af6004803603602081101561026f57600080fd5b50356107ff565b61016161081c565b6101616004803603604081101561029457600080fd5b508035906020013515156108c8565b610161600480360360808110156102b957600080fd5b508035906001600160a01b0360208201351690604081013515159060600135610996565b6102e5610bf5565b604080516001600160a01b039092168252519081900360200190f35b61010d6004803603602081101561031757600080fd5b5035610c04565b6101616004803603604081101561033457600080fd5b50803590602001356001600160a01b0316610c16565b6101616004803603602081101561036057600080fd5b50356001600160a01b0316610ce8565b60055481565b6000818152600360205260408120546001600160a01b03166103df576040805162461bcd60e51b815260206004820152601760248201527f476976656e2073796d626f6c20697320696e76616c6964000000000000000000604482015290519081900360640190fd5b600082815260036020526040902054600160a01b900460ff166104b6576000828152600360209081526040808320548151632096525560e01b815291516001600160a01b039091169263209652559260048082019391829003018186803b15801561044957600080fd5b505afa15801561045d573d6000803e3d6000fd5b505050506040513d602081101561047357600080fd5b5051600084815260036020526040902054909150600160a81b900460ff1661049c5790506104dc565b6104ae670de0b6b3a764000082610deb565b9150506104dc565b600082815260036020526040902060018101549054600160a81b900460ff1661049c5790505b919050565b60026000541415610527576040805162461bcd60e51b815260206004820152601f6024820152600080516020610ee8833981519152604482015290519081900360640190fd5b60026000908155610536610e1b565b905061054181610651565b610580576040805162461bcd60e51b81526020600482018190526024820152600080516020610f2e833981519152604482015290519081900360640190fd5b5060009182526003602052604082208054911515600160a81b0260ff60a81b1990921691909117905560019055565b60006105b9610e1b565b90506105c481610651565b610603576040805162461bcd60e51b81526020600482018190526024820152600080516020610f2e833981519152604482015290519081900360640190fd5b6001600160a01b03821660009081526002602052604090205460ff16156106295761064d565b6001600160a01b0382166000908152600260205260409020805460ff191660011790555b5050565b6001600160a01b031660009081526002602052604090205460ff1690565b6000610679610e1b565b905061068481610651565b6106c3576040805162461bcd60e51b81526020600482018190526024820152600080516020610f2e833981519152604482015290519081900360640190fd5b6001600160a01b03821660009081526002602052604090205460ff166106e85761064d565b506001600160a01b03166000908152600260205260409020805460ff19169055565b60026000541415610750576040805162461bcd60e51b815260206004820152601f6024820152600080516020610ee8833981519152604482015290519081900360640190fd5b6002600090815561075f610e1b565b905061076a81610651565b6107a9576040805162461bcd60e51b81526020600482018190526024820152600080516020610f2e833981519152604482015290519081900360640190fd5b5060009182526003602052604082206001908101919091559055565b600360205260009081526040902080546001909101546001600160a01b0382169160ff600160a01b8204811692600160a81b909204169084565b6000908152600360205260409020546001600160a01b0316151590565b610824610e1b565b6001600160a01b0316610835610bf5565b6001600160a01b03161461087e576040805162461bcd60e51b81526020600482018190526024820152600080516020610f2e833981519152604482015290519081900360640190fd5b6001546040516000916001600160a01b0316907f8be0079c531659141344cd1fd0a4f28419497f9722a3daafe3b4186f6b6457e0908390a3600180546001600160a01b0319169055565b6002600054141561090e576040805162461bcd60e51b815260206004820152601f6024820152600080516020610ee8833981519152604482015290519081900360640190fd5b6002600090815561091d610e1b565b905061092881610651565b610967576040805162461bcd60e51b81526020600482018190526024820152600080516020610f2e833981519152604482015290519081900360640190fd5b5060009182526003602052604082208054911515600160a01b0260ff60a01b1990921691909117905560019055565b600260005414156109dc576040805162461bcd60e51b815260206004820152601f6024820152600080516020610ee8833981519152604482015290519081900360640190fd5b600260009081556109eb610e1b565b90506109f681610651565b610a35576040805162461bcd60e51b81526020600482018190526024820152600080516020610f2e833981519152604482015290519081900360640190fd5b84630307830360e41b1415610a83576040805162461bcd60e51b815260206004820152600f60248201526e125b9d985b1a590817dcde5b589bdb608a1b604482015290519081900360640190fd5b6001600160a01b038416610ade576040805162461bcd60e51b815260206004820152601b60248201527f496e76616c6964205f7072696365466565646572416464726573730000000000604482015290519081900360640190fd5b6000858152600360205260409020546001600160a01b031615610b40576040805162461bcd60e51b815260206004820152601560248201527417dcde5b589bdb081a5cc8191d5c1b1a58d85d1959605a1b604482015290519081900360640190fd5b6000858152600360209081526040808320805460ff60a01b19881515600160a81b810260ff60a81b196001600160a01b038d166001600160a01b031990951685171617919091168355600192830188905560058054875260048652958490208b905585549092019094558151898152928301939093528181019290925290517f282208b44c2800a19eb320723b186749f096cce0b6cd15520e7f9141e249deea9181900360600190a150506001600055505050565b6001546001600160a01b031690565b60046020526000908152604090205481565b60026000541415610c5c576040805162461bcd60e51b815260206004820152601f6024820152600080516020610ee8833981519152604482015290519081900360640190fd5b60026000908155610c6b610e1b565b9050610c7681610651565b610cb5576040805162461bcd60e51b81526020600482018190526024820152600080516020610f2e833981519152604482015290519081900360640190fd5b50600091825260036020526040822080546001600160a01b0319166001600160a01b039290921691909117905560019055565b610cf0610e1b565b6001600160a01b0316610d01610bf5565b6001600160a01b031614610d4a576040805162461bcd60e51b81526020600482018190526024820152600080516020610f2e833981519152604482015290519081900360640190fd5b6001600160a01b038116610d8f5760405162461bcd60e51b8152600401808060200182810382526026815260200180610f086026913960400191505060405180910390fd5b6001546040516001600160a01b038084169216907f8be0079c531659141344cd1fd0a4f28419497f9722a3daafe3b4186f6b6457e090600090a3600180546001600160a01b0319166001600160a01b0392909216919091179055565b600081610e0c610e0385670de0b6b3a7640000610e1f565b60028504610e97565b81610e1357fe5b049392505050565b3390565b600082610e2e57506000610e91565b82820282848281610e3b57fe5b0414610e8e576040805162461bcd60e51b815260206004820152601960248201527f556e6d756c7469706c69636174696f6e206f766572666c6f7700000000000000604482015290519081900360640190fd5b90505b92915050565b600082820183811015610e8e576040805162461bcd60e51b8152602060048201526013602482015272556e6164646974696f6e206f766572666c6f7760681b604482015290519081900360640190fdfe5265656e7472616e637947756172643a207265656e7472616e742063616c6c004f776e61626c653a206e6577206f776e657220697320746865207a65726f20616464726573734f776e61626c653a2063616c6c6572206973206e6f7420746865206f776e6572a264697066735822122025003bb63349da5937cb0a45b1e88e55490e1c5b1d3ce5863c6207f410214d9964736f6c634300060c0033",
  "devdoc": {
    "kind": "dev",
    "methods": {
      "addAddress(address)": {
        "details": "adds a given address to the whitelist ",
        "params": {
          "_address": "address to add"
        }
      },
      "getCurrentPrice(bytes32)": {
        "params": {
          "_symbol": "the currency symbol that has registered to the contract"
        },
        "returns": {
          "_0": "the price in Wei unit"
        }
      },
      "isWhitelisted(address)": {
        "details": "returns true if a given address is whitelisted, false if not ",
        "params": {
          "_address": "address to check "
        },
        "returns": {
          "_0": "true if the address is whitelisted, false if not"
        }
      },
      "owner()": {
        "details": "Returns the address of the current owner."
      },
      "removeAddress(address)": {
        "details": "removes a given address from the whitelist ",
        "params": {
          "_address": "address to remove"
        }
      },
      "renounceOwnership()": {
        "details": "Leaves the contract without owner. It will not be possible to call `onlyOwner` functions anymore. Can only be called by the current owner. NOTE: Renouncing ownership will leave the contract without an owner, thereby removing any functionality that is only available to the owner."
      },
      "transferOwnership(address)": {
        "details": "Transfers ownership of the contract to a new account (`newOwner`). Can only be called by the current owner."
      }
    },
    "title": "A contract to resolves the asset price",
    "version": 1
  },
  "userdoc": {
    "kind": "user",
    "methods": {
      "getCurrentPrice(bytes32)": {
        "notice": "get the latest price of the given symbol, return the fallback value if the symbol has been disabled"
      }
    },
    "version": 1
  },
  "storageLayout": {
    "storage": [
      {
        "astId": 5162,
        "contract": "contracts/PriceResolver.sol:PriceResolver",
        "label": "_status",
        "offset": 0,
        "slot": "0",
        "type": "t_uint256"
      },
      {
        "astId": 53,
        "contract": "contracts/PriceResolver.sol:PriceResolver",
        "label": "_owner",
        "offset": 0,
        "slot": "1",
        "type": "t_address"
      },
      {
        "astId": 10950,
        "contract": "contracts/PriceResolver.sol:PriceResolver",
        "label": "whitelist",
        "offset": 0,
        "slot": "2",
        "type": "t_mapping(t_address,t_bool)"
      },
      {
        "astId": 7255,
        "contract": "contracts/PriceResolver.sol:PriceResolver",
        "label": "priceFeeders",
        "offset": 0,
        "slot": "3",
        "type": "t_mapping(t_bytes32,t_struct(PriceFeeder)7251_storage)"
      },
      {
        "astId": 7259,
        "contract": "contracts/PriceResolver.sol:PriceResolver",
        "label": "indexToPriceFeeder",
        "offset": 0,
        "slot": "4",
        "type": "t_mapping(t_uint256,t_bytes32)"
      },
      {
        "astId": 7261,
        "contract": "contracts/PriceResolver.sol:PriceResolver",
        "label": "priceFeederCount",
        "offset": 0,
        "slot": "5",
        "type": "t_uint256"
      }
    ],
    "types": {
      "t_address": {
        "encoding": "inplace",
        "label": "address",
        "numberOfBytes": "20"
      },
      "t_bool": {
        "encoding": "inplace",
        "label": "bool",
        "numberOfBytes": "1"
      },
      "t_bytes32": {
        "encoding": "inplace",
        "label": "bytes32",
        "numberOfBytes": "32"
      },
      "t_mapping(t_address,t_bool)": {
        "encoding": "mapping",
        "key": "t_address",
        "label": "mapping(address => bool)",
        "numberOfBytes": "32",
        "value": "t_bool"
      },
      "t_mapping(t_bytes32,t_struct(PriceFeeder)7251_storage)": {
        "encoding": "mapping",
        "key": "t_bytes32",
        "label": "mapping(bytes32 => struct PriceResolver.PriceFeeder)",
        "numberOfBytes": "32",
        "value": "t_struct(PriceFeeder)7251_storage"
      },
      "t_mapping(t_uint256,t_bytes32)": {
        "encoding": "mapping",
        "key": "t_uint256",
        "label": "mapping(uint256 => bytes32)",
        "numberOfBytes": "32",
        "value": "t_bytes32"
      },
      "t_struct(PriceFeeder)7251_storage": {
        "encoding": "inplace",
        "label": "struct PriceResolver.PriceFeeder",
        "members": [
          {
            "astId": 7244,
            "contract": "contracts/PriceResolver.sol:PriceResolver",
            "label": "priceFeederAddress",
            "offset": 0,
            "slot": "0",
            "type": "t_address"
          },
          {
            "astId": 7246,
            "contract": "contracts/PriceResolver.sol:PriceResolver",
            "label": "disabled",
            "offset": 20,
            "slot": "0",
            "type": "t_bool"
          },
          {
            "astId": 7248,
            "contract": "contracts/PriceResolver.sol:PriceResolver",
            "label": "invert",
            "offset": 21,
            "slot": "0",
            "type": "t_bool"
          },
          {
            "astId": 7250,
            "contract": "contracts/PriceResolver.sol:PriceResolver",
            "label": "fallbackValue",
            "offset": 0,
            "slot": "1",
            "type": "t_uint256"
          }
        ],
        "numberOfBytes": "64"
      },
      "t_uint256": {
        "encoding": "inplace",
        "label": "uint256",
        "numberOfBytes": "32"
      }
    }
  }
}