{
  "address": "0x49F74a10855288D2f390E784c349dCD3f44499AC",
  "abi": [
    {
      "anonymous": false,
      "inputs": [
        {
          "indexed": false,
          "internalType": "bytes32",
          "name": "name",
          "type": "bytes32"
        },
        {
          "indexed": false,
          "internalType": "address",
          "name": "contractAddress",
          "type": "address"
        }
      ],
      "name": "ContractAdded",
      "type": "event"
    },
    {
      "anonymous": false,
      "inputs": [
        {
          "indexed": false,
          "internalType": "bytes32",
          "name": "name",
          "type": "bytes32"
        },
        {
          "indexed": false,
          "internalType": "address",
          "name": "contractAddress",
          "type": "address"
        }
      ],
      "name": "ContractUpdated",
      "type": "event"
    },
    {
      "anonymous": false,
      "inputs": [
        {
          "indexed": true,
          "internalType": "address",
          "name": "previousOwner",
          "type": "address"
        },
        {
          "indexed": true,
          "internalType": "address",
          "name": "newOwner",
          "type": "address"
        }
      ],
      "name": "OwnershipTransferred",
      "type": "event"
    },
    {
      "anonymous": false,
      "inputs": [
        {
          "indexed": false,
          "internalType": "address",
          "name": "managerAddress",
          "type": "address"
        },
        {
          "indexed": false,
          "internalType": "address",
          "name": "nftAddress",
          "type": "address"
        }
      ],
      "name": "PermittedToMint",
      "type": "event"
    },
    {
      "inputs": [
        {
          "internalType": "address",
          "name": "_address",
          "type": "address"
        }
      ],
      "name": "addAddress",
      "outputs": [],
      "stateMutability": "nonpayable",
      "type": "function"
    },
    {
      "inputs": [],
      "name": "contractCount",
      "outputs": [
        {
          "internalType": "uint256",
          "name": "",
          "type": "uint256"
        }
      ],
      "stateMutability": "view",
      "type": "function"
    },
    {
      "inputs": [
        {
          "internalType": "bytes32",
          "name": "",
          "type": "bytes32"
        }
      ],
      "name": "contracts",
      "outputs": [
        {
          "internalType": "address",
          "name": "",
          "type": "address"
        }
      ],
      "stateMutability": "view",
      "type": "function"
    },
    {
      "inputs": [
        {
          "internalType": "bytes32",
          "name": "_name",
          "type": "bytes32"
        },
        {
          "internalType": "string",
          "name": "_nftName",
          "type": "string"
        },
        {
          "internalType": "string",
          "name": "_nftUri",
          "type": "string"
        }
      ],
      "name": "deploySyntheticNFT",
      "outputs": [],
      "stateMutability": "nonpayable",
      "type": "function"
    },
    {
      "inputs": [
        {
          "internalType": "bytes32",
          "name": "_name",
          "type": "bytes32"
        }
      ],
      "name": "getContractAddress",
      "outputs": [
        {
          "internalType": "address",
          "name": "",
          "type": "address"
        }
      ],
      "stateMutability": "view",
      "type": "function"
    },
    {
      "inputs": [
        {
          "internalType": "uint256",
          "name": "",
          "type": "uint256"
        }
      ],
      "name": "indexToContract",
      "outputs": [
        {
          "internalType": "bytes32",
          "name": "",
          "type": "bytes32"
        }
      ],
      "stateMutability": "view",
      "type": "function"
    },
    {
      "inputs": [
        {
          "internalType": "address",
          "name": "_address",
          "type": "address"
        }
      ],
      "name": "isWhitelisted",
      "outputs": [
        {
          "internalType": "bool",
          "name": "",
          "type": "bool"
        }
      ],
      "stateMutability": "view",
      "type": "function"
    },
    {
      "inputs": [],
      "name": "owner",
      "outputs": [
        {
          "internalType": "address",
          "name": "",
          "type": "address"
        }
      ],
      "stateMutability": "view",
      "type": "function"
    },
    {
      "inputs": [
        {
          "internalType": "bytes32",
          "name": "_nftManagerName",
          "type": "bytes32"
        },
        {
          "internalType": "bytes32",
          "name": "_syntheticNftName",
          "type": "bytes32"
        }
      ],
      "name": "permitToMint",
      "outputs": [],
      "stateMutability": "nonpayable",
      "type": "function"
    },
    {
      "inputs": [
        {
          "internalType": "bytes32",
          "name": "_name",
          "type": "bytes32"
        },
        {
          "internalType": "address",
          "name": "_contractAddress",
          "type": "address"
        }
      ],
      "name": "registerContract",
      "outputs": [],
      "stateMutability": "nonpayable",
      "type": "function"
    },
    {
      "inputs": [
        {
          "internalType": "address",
          "name": "_address",
          "type": "address"
        }
      ],
      "name": "removeAddress",
      "outputs": [],
      "stateMutability": "nonpayable",
      "type": "function"
    },
    {
      "inputs": [],
      "name": "renounceOwnership",
      "outputs": [],
      "stateMutability": "nonpayable",
      "type": "function"
    },
    {
      "inputs": [
        {
          "internalType": "address",
          "name": "newOwner",
          "type": "address"
        }
      ],
      "name": "transferOwnership",
      "outputs": [],
      "stateMutability": "nonpayable",
      "type": "function"
    },
    {
      "inputs": [
        {
          "internalType": "bytes32",
          "name": "_name",
          "type": "bytes32"
        },
        {
          "internalType": "address",
          "name": "_contractAddress",
          "type": "address"
        }
      ],
      "name": "updateContract",
      "outputs": [],
      "stateMutability": "nonpayable",
      "type": "function"
    }
  ],
  "transactionHash": "0x45b04cec0714f6753eea543cbf7fe6605bcf0b9d15974a3f7d36ce23befca9ad",
  "args": [],
  "solcInputHash": "8265e4161eec9b5a7dcd6b2c71b6665f",
  "bytecode": "0x608060405234801561001057600080fd5b50600160009081556100206100a0565b600180546001600160a01b0319166001600160a01b038316908117909155604051919250906000907f8be0079c531659141344cd1fd0a4f28419497f9722a3daafe3b4186f6b6457e0908290a35060006100786100a0565b6001600160a01b03166000908152600260205260409020805460ff19166001179055506100a4565b3390565b614aa0806100b36000396000f3fe60806040523480156200001157600080fd5b5060043610620001005760003560e01c80638736381a1162000099578063ba535b8e116200006f578063ba535b8e1462000286578063c2ab51cf14620002a6578063ec56a37314620003e3578063f2fde38b14620004035762000100565b80638736381a14620002315780638da5cb5b146200024d578063956138ed14620002575762000100565b80633af32abf11620000db5780633af32abf14620001925780634ba79dfe14620001cf578063645c6fae14620001f8578063715018a614620002275762000100565b80630d2020dd1462000105578063201535a4146200014157806338eada1c1462000169575b600080fd5b62000125600480360360208110156200011d57600080fd5b50356200042c565b604080516001600160a01b039092168252519081900360200190f35b62000167600480360360408110156200015957600080fd5b5080359060200135620004b2565b005b62000167600480360360208110156200018157600080fd5b50356001600160a01b0316620006ce565b620001bb60048036036020811015620001aa57600080fd5b50356001600160a01b031662000778565b604080519115158252519081900360200190f35b6200016760048036036020811015620001e757600080fd5b50356001600160a01b031662000796565b62000167600480360360408110156200021057600080fd5b50803590602001356001600160a01b031662000839565b6200016762000a0a565b6200023b62000abc565b60408051918252519081900360200190f35b6200012562000ac2565b62000167600480360360408110156200026f57600080fd5b50803590602001356001600160a01b031662000ad1565b6200023b600480360360208110156200029e57600080fd5b503562000bee565b6200016760048036036060811015620002be57600080fd5b81359190810190604081016020820135640100000000811115620002e157600080fd5b820183602082011115620002f457600080fd5b803590602001918460018302840111640100000000831117156200031757600080fd5b91908080601f01602080910402602001604051908101604052809392919081815260200183838082843760009201919091525092959493602081019350359150506401000000008111156200036b57600080fd5b8201836020820111156200037e57600080fd5b80359060200191846001830284011164010000000083111715620003a157600080fd5b91908080601f01602080910402602001604051908101604052809392919081815260200183838082843760009201919091525092955062000c00945050505050565b6200012560048036036020811015620003fb57600080fd5b503562000e31565b62000167600480360360208110156200041b57600080fd5b50356001600160a01b031662000e4c565b6000818152600360205260408120546001600160a01b031662000496576040805162461bcd60e51b815260206004820152601b60248201527f54686520676976656e206e616d6520697320696e636f72726563740000000000604482015290519081900360640190fd5b506000908152600360205260409020546001600160a01b031690565b60026000541415620004fa576040805162461bcd60e51b815260206004820152601f6024820152600080516020620049b7833981519152604482015290519081900360640190fd5b600260009081556200050b62000f57565b9050620005188162000778565b62000559576040805162461bcd60e51b8152602060048201819052602482015260008051602062004a4b833981519152604482015290519081900360640190fd5b6000838152600360205260409020546001600160a01b0316620005ae5760405162461bcd60e51b8152600401808060200182810382526026815260200180620049fd6026913960400191505060405180910390fd5b6000828152600360205260409020546001600160a01b0316620006035760405162461bcd60e51b815260040180806020018281038252602881526020018062004a236028913960400191505060405180910390fd5b60008281526003602052604080822054858352818320548251630e3ab68760e21b81526001600160a01b03918216600482018190529351919092169384926338eada1c926024808301939282900301818387803b1580156200066457600080fd5b505af115801562000679573d6000803e3d6000fd5b5050604080516001600160a01b0380861682528616602082015281517f06016dff203802d8213a719eedd546dca22ebbe503a03cd80fa579e3bc9d644d9450908190039091019150a150506001600055505050565b6000620006da62000f57565b9050620006e78162000778565b62000728576040805162461bcd60e51b8152602060048201819052602482015260008051602062004a4b833981519152604482015290519081900360640190fd5b6001600160a01b03821660009081526002602052604090205460ff1615620007505762000774565b6001600160a01b0382166000908152600260205260409020805460ff191660011790555b5050565b6001600160a01b031660009081526002602052604090205460ff1690565b6000620007a262000f57565b9050620007af8162000778565b620007f0576040805162461bcd60e51b8152602060048201819052602482015260008051602062004a4b833981519152604482015290519081900360640190fd5b6001600160a01b03821660009081526002602052604090205460ff16620008175762000774565b506001600160a01b03166000908152600260205260409020805460ff19169055565b6002600054141562000881576040805162461bcd60e51b815260206004820152601f6024820152600080516020620049b7833981519152604482015290519081900360640190fd5b600260009081556200089262000f57565b90506200089f8162000778565b620008e0576040805162461bcd60e51b8152602060048201819052602482015260008051602062004a4b833981519152604482015290519081900360640190fd5b6000838152600360205260409020546001600160a01b0316156200094b576040805162461bcd60e51b815260206004820152601a60248201527f54686520676976656e206e616d65206973206f63637570696564000000000000604482015290519081900360640190fd5b82630307830360e41b141562000998576040805162461bcd60e51b815260206004820152600d60248201526c496e76616c6964205f6e616d6560981b604482015290519081900360640190fd5b6001600160a01b038216620009f4576040805162461bcd60e51b815260206004820152601860248201527f496e76616c6964205f636f6e7472616374416464726573730000000000000000604482015290519081900360640190fd5b62000a00838362000f5b565b5050600160005550565b62000a1462000f57565b6001600160a01b031662000a2762000ac2565b6001600160a01b03161462000a72576040805162461bcd60e51b8152602060048201819052602482015260008051602062004a4b833981519152604482015290519081900360640190fd5b6001546040516000916001600160a01b0316907f8be0079c531659141344cd1fd0a4f28419497f9722a3daafe3b4186f6b6457e0908390a3600180546001600160a01b0319169055565b60055481565b6001546001600160a01b031690565b6002600054141562000b19576040805162461bcd60e51b815260206004820152601f6024820152600080516020620049b7833981519152604482015290519081900360640190fd5b6002600090815562000b2a62000f57565b905062000b378162000778565b62000b78576040805162461bcd60e51b8152602060048201819052602482015260008051602062004a4b833981519152604482015290519081900360640190fd5b6000838152600360205260409020546001600160a01b031662000be2576040805162461bcd60e51b815260206004820152601b60248201527f54686520676976656e206e616d6520697320696e636f72726563740000000000604482015290519081900360640190fd5b62000a00838362000fde565b60046020526000908152604090205481565b6002600054141562000c48576040805162461bcd60e51b815260206004820152601f6024820152600080516020620049b7833981519152604482015290519081900360640190fd5b6002600090815562000c5962000f57565b905062000c668162000778565b62000ca7576040805162461bcd60e51b8152602060048201819052602482015260008051602062004a4b833981519152604482015290519081900360640190fd5b6000848152600360205260409020546001600160a01b03161562000d12576040805162461bcd60e51b815260206004820152601a60248201527f54686520676976656e206e616d65206973206f63637570696564000000000000604482015290519081900360640190fd5b6000838360405162000d249062001046565b604080825283519082015282518190602080830191606084019187019080838360005b8381101562000d6157818101518382015260200162000d47565b50505050905090810190601f16801562000d8f5780820380516001836020036101000a031916815260200191505b50838103825284518152845160209182019186019080838360005b8381101562000dc457818101518382015260200162000daa565b50505050905090810190601f16801562000df25780820380516001836020036101000a031916815260200191505b50945050505050604051809103906000f08015801562000e16573d6000803e3d6000fd5b50905062000e25858262000f5b565b50506001600055505050565b6003602052600090815260409020546001600160a01b031681565b62000e5662000f57565b6001600160a01b031662000e6962000ac2565b6001600160a01b03161462000eb4576040805162461bcd60e51b8152602060048201819052602482015260008051602062004a4b833981519152604482015290519081900360640190fd5b6001600160a01b03811662000efb5760405162461bcd60e51b8152600401808060200182810382526026815260200180620049d76026913960400191505060405180910390fd5b6001546040516001600160a01b038084169216907f8be0079c531659141344cd1fd0a4f28419497f9722a3daafe3b4186f6b6457e090600090a3600180546001600160a01b0319166001600160a01b0392909216919091179055565b3390565b600082815260036020908152604080832080546001600160a01b0319166001600160a01b0386169081179091556005805485526004845293829020869055835460010190935580518581529182019290925281517f643cefa5894755d9e02f78cb384977d4ee3a06c8394b062a290e19176e9c69de929181900390910190a15050565b60008281526003602090815260409182902080546001600160a01b0319166001600160a01b03851690811790915582518581529182015281517fd45de243cd15102b320d0d75eb12a34864595b07f8853b6b7d487946b2924630929181900390910190a15050565b61396280620010558339019056fe60806040526006805460ff191690553480156200001b57600080fd5b506040516200396238038062003962833981810160405260408110156200004157600080fd5b81019080805160405193929190846401000000008211156200006257600080fd5b9083019060208201858111156200007857600080fd5b82516401000000008111828201881017156200009357600080fd5b82525081516020918201929091019080838360005b83811015620000c2578181015183820152602001620000a8565b50505050905090810190601f168015620000f05780820380516001836020036101000a031916815260200191505b50604052602001805160405193929190846401000000008211156200011457600080fd5b9083019060208201858111156200012a57600080fd5b82516401000000008111828201881017156200014557600080fd5b82525081516020918201929091019080838360005b83811015620001745781810151838201526020016200015a565b50505050905090810190601f168015620001a25780820380516001836020036101000a031916815260200191505b5060405250829150620001be90506301ffc9a760e01b6200033e565b620001c981620003c3565b620001db636cdb3d1360e11b6200033e565b620001ed6303a24d0760e21b6200033e565b506000620001fa620003dc565b600480546001600160a01b0319166001600160a01b038316908117909155604051919250906000907f8be0079c531659141344cd1fd0a4f28419497f9722a3daafe3b4186f6b6457e0908290a350600062000254620003dc565b6001600160a01b03166000908152600560205260409020805460ff19166001179055506200028233620003f9565b8151620002979060099060208501906200065e565b5060098054604080516020601f600260001961010060018816150201909516949094049384018190048102820181019092528281526200033693909290918301828280156200032a5780601f10620002fe576101008083540402835291602001916200032a565b820191906000526020600020905b8154815290600101906020018083116200030c57829003601f168201915b5050620004b392505050565b5050620006fa565b6001600160e01b031980821614156200039e576040805162461bcd60e51b815260206004820152601c60248201527f4552433136353a20696e76616c696420696e7465726661636520696400000000604482015290519081900360640190fd5b6001600160e01b0319166000908152602081905260409020805460ff19166001179055565b8051620003d89060039060208401906200065e565b5050565b6000620003f36200051860201b62001f111760201c565b90505b90565b600062000405620003dc565b9050620004128162000577565b62000464576040805162461bcd60e51b815260206004820181905260248201527f4f776e61626c653a2063616c6c6572206973206e6f7420746865206f776e6572604482015290519081900360640190fd5b6001600160a01b03821660009081526005602052604090205460ff16156200048c57620003d8565b6001600160a01b0382166000908152600560205260409020805460ff191660011790555050565b60065460ff1615620004fd576040805162461bcd60e51b815260206004820152600e60248201526d185b1c9958591e481a5b9a5d195960921b604482015290519081900360640190fd5b620005088162000595565b506006805460ff19166001179055565b600033301415620005725760606000368080601f0160208091040260200160405190810160405280939291908181526020018383808284376000920191909152505050503601516001600160a01b03169150620003f69050565b503390565b6001600160a01b031660009081526005602052604090205460ff1690565b6040518060800160405280604f815260200162003913604f913980516020918201208251838301206040805180820190915260018152603160f81b930192909252907fc89efdaa54c0f20c7adf612882df0950f5a951637e0307cdcb4c672f298b8bc630620006036200065a565b60001b60405160200180868152602001858152602001848152602001836001600160a01b03168152602001828152602001955050505050506040516020818303038152906040528051906020012060078190555050565b4690565b828054600181600116156101000203166002900490600052602060002090601f016020900481019282601f10620006a157805160ff1916838001178555620006d1565b82800160010185558215620006d1579182015b82811115620006d1578251825591602001919060010190620006b4565b50620006df929150620006e3565b5090565b5b80821115620006df5760008155600101620006e4565b613209806200070a6000396000f3fe6080604052600436106101655760003560e01c80633af32abf116100d15780638da5cb5b1161008a578063e985e9c511610064578063e985e9c514610cd2578063f242432a14610d0d578063f2fde38b14610de3578063f5298aca14610e1657610165565b80638da5cb5b14610bb55780639b642de114610be6578063a22cb46514610c9757610165565b80633af32abf146107ad5780634ba79dfe146107e05780634e1273f4146108135780636b20c45414610993578063715018a614610ad3578063731133e914610ae857610165565b80631f7fdffa116101235780631f7fdffa1461038857806320379ee51461054d5780632d0335ab146105625780632eb2c2d6146105955780633408e4701461076557806338eada1c1461077a57610165565b8062fdd58e1461016a57806301ffc9a7146101b557806306fdde03146101fd5780630c53c51c146102875780630e89341c146103495780630f7e597014610373575b600080fd5b34801561017657600080fd5b506101a36004803603604081101561018d57600080fd5b506001600160a01b038135169060200135610e55565b60408051918252519081900360200190f35b3480156101c157600080fd5b506101e9600480360360208110156101d857600080fd5b50356001600160e01b031916610ec7565b604080519115158252519081900360200190f35b34801561020957600080fd5b50610212610ee6565b6040805160208082528351818301528351919283929083019185019080838360005b8381101561024c578181015183820152602001610234565b50505050905090810190601f1680156102795780820380516001836020036101000a031916815260200191505b509250505060405180910390f35b610212600480360360a081101561029d57600080fd5b6001600160a01b038235169190810190604081016020820135600160201b8111156102c757600080fd5b8201836020820111156102d957600080fd5b803590602001918460018302840111600160201b831117156102fa57600080fd5b91908080601f016020809104026020016040519081016040528093929190818152602001838380828437600092019190915250929550508235935050506020810135906040013560ff16610f74565b34801561035557600080fd5b506102126004803603602081101561036c57600080fd5b503561124a565b34801561037f57600080fd5b506102126112e2565b34801561039457600080fd5b506101e9600480360360808110156103ab57600080fd5b6001600160a01b038235169190810190604081016020820135600160201b8111156103d557600080fd5b8201836020820111156103e757600080fd5b803590602001918460208302840111600160201b8311171561040857600080fd5b9190808060200260200160405190810160405280939291908181526020018383602002808284376000920191909152509295949360208101935035915050600160201b81111561045757600080fd5b82018360208201111561046957600080fd5b803590602001918460208302840111600160201b8311171561048a57600080fd5b9190808060200260200160405190810160405280939291908181526020018383602002808284376000920191909152509295949360208101935035915050600160201b8111156104d957600080fd5b8201836020820111156104eb57600080fd5b803590602001918460018302840111600160201b8311171561050c57600080fd5b91908080601f0160208091040260200160405190810160405280939291908181526020018383808284376000920191909152509295506112ff945050505050565b34801561055957600080fd5b506101a361136c565b34801561056e57600080fd5b506101a36004803603602081101561058557600080fd5b50356001600160a01b0316611373565b3480156105a157600080fd5b50610763600480360360a08110156105b857600080fd5b6001600160a01b038235811692602081013590911691810190606081016040820135600160201b8111156105eb57600080fd5b8201836020820111156105fd57600080fd5b803590602001918460208302840111600160201b8311171561061e57600080fd5b9190808060200260200160405190810160405280939291908181526020018383602002808284376000920191909152509295949360208101935035915050600160201b81111561066d57600080fd5b82018360208201111561067f57600080fd5b803590602001918460208302840111600160201b831117156106a057600080fd5b9190808060200260200160405190810160405280939291908181526020018383602002808284376000920191909152509295949360208101935035915050600160201b8111156106ef57600080fd5b82018360208201111561070157600080fd5b803590602001918460018302840111600160201b8311171561072257600080fd5b91908080601f01602080910402602001604051908101604052809392919081815260200183838082843760009201919091525092955061138e945050505050565b005b34801561077157600080fd5b506101a361168c565b34801561078657600080fd5b506107636004803603602081101561079d57600080fd5b50356001600160a01b0316611690565b3480156107b957600080fd5b506101e9600480360360208110156107d057600080fd5b50356001600160a01b0316611732565b3480156107ec57600080fd5b506107636004803603602081101561080357600080fd5b50356001600160a01b0316611750565b34801561081f57600080fd5b506109436004803603604081101561083657600080fd5b810190602081018135600160201b81111561085057600080fd5b82018360208201111561086257600080fd5b803590602001918460208302840111600160201b8311171561088357600080fd5b9190808060200260200160405190810160405280939291908181526020018383602002808284376000920191909152509295949360208101935035915050600160201b8111156108d257600080fd5b8201836020820111156108e457600080fd5b803590602001918460208302840111600160201b8311171561090557600080fd5b9190808060200260200160405190810160405280939291908181526020018383602002808284376000920191909152509295506117eb945050505050565b60408051602080825283518183015283519192839290830191858101910280838360005b8381101561097f578181015183820152602001610967565b505050509050019250505060405180910390f35b34801561099f57600080fd5b50610763600480360360608110156109b657600080fd5b6001600160a01b038235169190810190604081016020820135600160201b8111156109e057600080fd5b8201836020820111156109f257600080fd5b803590602001918460208302840111600160201b83111715610a1357600080fd5b9190808060200260200160405190810160405280939291908181526020018383602002808284376000920191909152509295949360208101935035915050600160201b811115610a6257600080fd5b820183602082011115610a7457600080fd5b803590602001918460208302840111600160201b83111715610a9557600080fd5b9190808060200260200160405190810160405280939291908181526020018383602002808284376000920191909152509295506118d7945050505050565b348015610adf57600080fd5b5061076361193c565b348015610af457600080fd5b506101e960048036036080811015610b0b57600080fd5b6001600160a01b038235169160208101359160408201359190810190608081016060820135600160201b811115610b4157600080fd5b820183602082011115610b5357600080fd5b803590602001918460018302840111600160201b83111715610b7457600080fd5b91908080601f0160208091040260200160405190810160405280939291908181526020018383808284376000920191909152509295506119e8945050505050565b348015610bc157600080fd5b50610bca611a49565b604080516001600160a01b039092168252519081900360200190f35b348015610bf257600080fd5b5061076360048036036020811015610c0957600080fd5b810190602081018135600160201b811115610c2357600080fd5b820183602082011115610c3557600080fd5b803590602001918460018302840111600160201b83111715610c5657600080fd5b91908080601f016020809104026020016040519081016040528093929190818152602001838380828437600092019190915250929550611a58945050505050565b348015610ca357600080fd5b5061076360048036036040811015610cba57600080fd5b506001600160a01b0381351690602001351515611ab5565b348015610cde57600080fd5b506101e960048036036040811015610cf557600080fd5b506001600160a01b0381358116916020013516611ba4565b348015610d1957600080fd5b50610763600480360360a0811015610d3057600080fd5b6001600160a01b03823581169260208101359091169160408201359160608101359181019060a081016080820135600160201b811115610d6f57600080fd5b820183602082011115610d8157600080fd5b803590602001918460018302840111600160201b83111715610da257600080fd5b91908080601f016020809104026020016040519081016040528093929190818152602001838380828437600092019190915250929550611be4945050505050565b348015610def57600080fd5b5061076360048036036020811015610e0657600080fd5b50356001600160a01b0316611daf565b348015610e2257600080fd5b5061076360048036036060811015610e3957600080fd5b506001600160a01b038135169060208101359060400135611eb2565b60006001600160a01b038316610e9c5760405162461bcd60e51b815260040180806020018281038252602b815260200180612f4e602b913960400191505060405180910390fd5b5060008181526001602090815260408083206001600160a01b03861684529091529020545b92915050565b6001600160e01b03191660009081526020819052604090205460ff1690565b6009805460408051602060026001851615610100026000190190941693909304601f81018490048402820184019092528181529291830182828015610f6c5780601f10610f4157610100808354040283529160200191610f6c565b820191906000526020600020905b815481529060010190602001808311610f4f57829003601f168201915b505050505081565b6060610f7e612d89565b50604080516060810182526001600160a01b03881660008181526008602090815290849020548352820152908101869052610fbc8782878787611f6e565b610ff75760405162461bcd60e51b81526004018080602001828103825260218152602001806131186021913960400191505060405180910390fd5b6001600160a01b03871660008181526008602090815260408083208054600101905580519384523384830181905260609185018281528b51928601929092528a517f5845892132946850460bff5a0083f71031bc5bf9aadcd40f1de79423eac9b10b958d9592948d94919391926080850192918601918190849084905b8381101561108c578181015183820152602001611074565b50505050905090810190601f1680156110b95780820380516001836020036101000a031916815260200191505b5094505050505060405180910390a160006060306001600160a01b0316888a6040516020018083805190602001908083835b6020831061110a5780518252601f1990920191602091820191016110eb565b6001836020036101000a038019825116818451168082178552505050505050905001826001600160a01b031660601b8152601401925050506040516020818303038152906040526040518082805190602001908083835b602083106111805780518252601f199092019160209182019101611161565b6001836020036101000a0380198251168184511680821785525050505050509050019150506000604051808303816000865af19150503d80600081146111e2576040519150601f19603f3d011682016040523d82523d6000602084013e6111e7565b606091505b50915091508161123e576040805162461bcd60e51b815260206004820152601c60248201527f46756e6374696f6e2063616c6c206e6f74207375636365737366756c00000000604482015290519081900360640190fd5b98975050505050505050565b60038054604080516020601f60026000196101006001881615020190951694909404938401819004810282018101909252828152606093909290918301828280156112d65780601f106112ab576101008083540402835291602001916112d6565b820191906000526020600020905b8154815290600101906020018083116112b957829003601f168201915b50505050509050919050565b604051806040016040528060018152602001603160f81b81525081565b60008061130a612048565b905061131581611732565b611354576040805162461bcd60e51b815260206004820181905260248201526000805160206130f8833981519152604482015290519081900360640190fd5b61136086868686612057565b50600195945050505050565b6007545b90565b6001600160a01b031660009081526008602052604090205490565b81518351146113ce5760405162461bcd60e51b815260040180806020018281038252602881526020018061318b6028913960400191505060405180910390fd5b6001600160a01b0384166114135760405162461bcd60e51b81526004018080602001828103825260258152602001806130546025913960400191505060405180910390fd5b61141b612048565b6001600160a01b0316856001600160a01b03161480611446575061144685611441612048565b611ba4565b6114815760405162461bcd60e51b81526004018080602001828103825260328152602001806130796032913960400191505060405180910390fd5b600061148b612048565b905061149b818787878787611684565b60005b845181101561159c5760008582815181106114b557fe5b6020026020010151905060008583815181106114cd57fe5b6020026020010151905061153a816040518060600160405280602a81526020016130ce602a91396001600086815260200190815260200160002060008d6001600160a01b03166001600160a01b03168152602001908152602001600020546122ac9092919063ffffffff16565b60008381526001602090815260408083206001600160a01b038e811685529252808320939093558a16815220546115719082612343565b60009283526001602081815260408086206001600160a01b038d16875290915290932055500161149e565b50846001600160a01b0316866001600160a01b0316826001600160a01b03167f4a39dc06d4c0dbc64b70af90fd698a233a518aa5d07e595d983b8c0526c8f7fb8787604051808060200180602001838103835285818151815260200191508051906020019060200280838360005b8381101561162257818101518382015260200161160a565b50505050905001838103825284818151815260200191508051906020019060200280838360005b83811015611661578181015183820152602001611649565b5050505090500194505050505060405180910390a461168481878787878761239d565b505050505050565b4690565b600061169a612048565b90506116a581611732565b6116e4576040805162461bcd60e51b815260206004820181905260248201526000805160206130f8833981519152604482015290519081900360640190fd5b6001600160a01b03821660009081526005602052604090205460ff161561170a5761172e565b6001600160a01b0382166000908152600560205260409020805460ff191660011790555b5050565b6001600160a01b031660009081526005602052604090205460ff1690565b600061175a612048565b905061176581611732565b6117a4576040805162461bcd60e51b815260206004820181905260248201526000805160206130f8833981519152604482015290519081900360640190fd5b6001600160a01b03821660009081526005602052604090205460ff166117c95761172e565b506001600160a01b03166000908152600560205260409020805460ff19169055565b6060815183511461182d5760405162461bcd60e51b81526004018080602001828103825260298152602001806131626029913960400191505060405180910390fd5b6060835167ffffffffffffffff8111801561184757600080fd5b50604051908082528060200260200182016040528015611871578160200160208202803683370190505b50905060005b84518110156118cf576118b085828151811061188f57fe5b60200260200101518583815181106118a357fe5b6020026020010151610e55565b8282815181106118bc57fe5b6020908102919091010152600101611877565b509392505050565b60006118e1612048565b90506118ec81611732565b61192b576040805162461bcd60e51b815260206004820181905260248201526000805160206130f8833981519152604482015290519081900360640190fd5b61193684848461261c565b50505050565b611944612048565b6001600160a01b0316611955611a49565b6001600160a01b03161461199e576040805162461bcd60e51b815260206004820181905260248201526000805160206130f8833981519152604482015290519081900360640190fd5b6004546040516000916001600160a01b0316907f8be0079c531659141344cd1fd0a4f28419497f9722a3daafe3b4186f6b6457e0908390a3600480546001600160a01b0319169055565b6000806119f3612048565b90506119fe81611732565b611a3d576040805162461bcd60e51b815260206004820181905260248201526000805160206130f8833981519152604482015290519081900360640190fd5b6113608686868661288a565b6004546001600160a01b031690565b6000611a62612048565b9050611a6d81611732565b611aac576040805162461bcd60e51b815260206004820181905260248201526000805160206130f8833981519152604482015290519081900360640190fd5b61172e8261298b565b816001600160a01b0316611ac7612048565b6001600160a01b03161415611b0d5760405162461bcd60e51b81526004018080602001828103825260298152602001806131396029913960400191505060405180910390fd5b8060026000611b1a612048565b6001600160a01b03908116825260208083019390935260409182016000908120918716808252919093529120805460ff191692151592909217909155611b5e612048565b6001600160a01b03167f17307eab39ab6107e8899845ad3d59bd9653f200f220920489ca2b5937696c318360405180821515815260200191505060405180910390a35050565b60006001600160a01b03821673207fa8df3a17d96ca7ea4f2893fcdcb78a3041011415611bd357506001610ec1565b611bdd838361299e565b9392505050565b6001600160a01b038416611c295760405162461bcd60e51b81526004018080602001828103825260258152602001806130546025913960400191505060405180910390fd5b611c31612048565b6001600160a01b0316856001600160a01b03161480611c575750611c5785611441612048565b611c925760405162461bcd60e51b81526004018080602001828103825260298152602001806130066029913960400191505060405180910390fd5b6000611c9c612048565b9050611cbc818787611cad886129cc565b611cb6886129cc565b87611684565b611d03836040518060600160405280602a81526020016130ce602a913960008781526001602090815260408083206001600160a01b038d16845290915290205491906122ac565b60008581526001602090815260408083206001600160a01b038b81168552925280832093909355871681522054611d3a9084612343565b60008581526001602090815260408083206001600160a01b03808b168086529184529382902094909455805188815291820187905280518a8416938616927fc3d58168c5ae7397731d063d5bbf3d657854427343f4c083240f7aacaa2d0f6292908290030190a4611684818787878787612a10565b611db7612048565b6001600160a01b0316611dc8611a49565b6001600160a01b031614611e11576040805162461bcd60e51b815260206004820181905260248201526000805160206130f8833981519152604482015290519081900360640190fd5b6001600160a01b038116611e565760405162461bcd60e51b8152600401808060200182810382526026815260200180612fbc6026913960400191505060405180910390fd5b6004546040516001600160a01b038084169216907f8be0079c531659141344cd1fd0a4f28419497f9722a3daafe3b4186f6b6457e090600090a3600480546001600160a01b0319166001600160a01b0392909216919091179055565b6000611ebc612048565b9050611ec781611732565b611f06576040805162461bcd60e51b815260206004820181905260248201526000805160206130f8833981519152604482015290519081900360640190fd5b611936848484612b81565b600033301415611f695760606000368080601f0160208091040260200160405190810160405280939291908181526020018383808284376000920191909152505050503601516001600160a01b031691506113709050565b503390565b60006001600160a01b038616611fb55760405162461bcd60e51b815260040180806020018281038252602581526020018061302f6025913960400191505060405180910390fd5b6001611fc8611fc387612cb4565b612d37565b83868660405160008152602001604052604051808581526020018460ff1681526020018381526020018281526020019450505050506020604051602081039080840390855afa15801561201f573d6000803e3d6000fd5b505050602060405103516001600160a01b0316866001600160a01b031614905095945050505050565b6000612052611f11565b905090565b6001600160a01b03841661209c5760405162461bcd60e51b81526004018080602001828103825260218152602001806131b36021913960400191505060405180910390fd5b81518351146120dc5760405162461bcd60e51b815260040180806020018281038252602881526020018061318b6028913960400191505060405180910390fd5b60006120e6612048565b90506120f781600087878787611684565b60005b84518110156121bb576121726001600087848151811061211657fe5b602002602001015181526020019081526020016000206000886001600160a01b03166001600160a01b031681526020019081526020016000205485838151811061215c57fe5b602002602001015161234390919063ffffffff16565b6001600087848151811061218257fe5b602090810291909101810151825281810192909252604090810160009081206001600160a01b038b1682529092529020556001016120fa565b50846001600160a01b031660006001600160a01b0316826001600160a01b03167f4a39dc06d4c0dbc64b70af90fd698a233a518aa5d07e595d983b8c0526c8f7fb8787604051808060200180602001838103835285818151815260200191508051906020019060200280838360005b8381101561224257818101518382015260200161222a565b50505050905001838103825284818151815260200191508051906020019060200280838360005b83811015612281578181015183820152602001612269565b5050505090500194505050505060405180910390a46122a58160008787878761239d565b5050505050565b6000818484111561233b5760405162461bcd60e51b81526004018080602001828103825283818151815260200191508051906020019080838360005b838110156123005781810151838201526020016122e8565b50505050905090810190601f16801561232d5780820380516001836020036101000a031916815260200191505b509250505060405180910390fd5b505050900390565b600082820183811015611bdd576040805162461bcd60e51b815260206004820152601b60248201527f536166654d6174683a206164646974696f6e206f766572666c6f770000000000604482015290519081900360640190fd5b6123af846001600160a01b0316612d83565b1561168457836001600160a01b031663bc197c8187878686866040518663ffffffff1660e01b815260040180866001600160a01b03168152602001856001600160a01b03168152602001806020018060200180602001848103845287818151815260200191508051906020019060200280838360005b8381101561243d578181015183820152602001612425565b50505050905001848103835286818151815260200191508051906020019060200280838360005b8381101561247c578181015183820152602001612464565b50505050905001848103825285818151815260200191508051906020019080838360005b838110156124b85781810151838201526020016124a0565b50505050905090810190601f1680156124e55780820380516001836020036101000a031916815260200191505b5098505050505050505050602060405180830381600087803b15801561250a57600080fd5b505af192505050801561252f57506040513d602081101561252a57600080fd5b505160015b6125c45761253b612e4c565b80612546575061258d565b60405162461bcd60e51b81526020600482018181528351602484015283518493919283926044019190850190808383600083156123005781810151838201526020016122e8565b60405162461bcd60e51b8152600401808060200182810382526034815260200180612ef26034913960400191505060405180910390fd5b6001600160e01b0319811663bc197c8160e01b146126135760405162461bcd60e51b8152600401808060200182810382526028815260200180612f266028913960400191505060405180910390fd5b50505050505050565b6001600160a01b0383166126615760405162461bcd60e51b81526004018080602001828103825260238152602001806130ab6023913960400191505060405180910390fd5b80518251146126a15760405162461bcd60e51b815260040180806020018281038252602881526020018061318b6028913960400191505060405180910390fd5b60006126ab612048565b90506126cb81856000868660405180602001604052806000815250611684565b60005b83518110156127a9576127608382815181106126e657fe5b6020026020010151604051806060016040528060248152602001612fe2602491396001600088868151811061271757fe5b602002602001015181526020019081526020016000206000896001600160a01b03166001600160a01b03168152602001908152602001600020546122ac9092919063ffffffff16565b6001600086848151811061277057fe5b602090810291909101810151825281810192909252604090810160009081206001600160a01b038a1682529092529020556001016126ce565b5060006001600160a01b0316846001600160a01b0316826001600160a01b03167f4a39dc06d4c0dbc64b70af90fd698a233a518aa5d07e595d983b8c0526c8f7fb8686604051808060200180602001838103835285818151815260200191508051906020019060200280838360005b83811015612830578181015183820152602001612818565b50505050905001838103825284818151815260200191508051906020019060200280838360005b8381101561286f578181015183820152602001612857565b5050505090500194505050505060405180910390a450505050565b6001600160a01b0384166128cf5760405162461bcd60e51b81526004018080602001828103825260218152602001806131b36021913960400191505060405180910390fd5b60006128d9612048565b90506128eb81600087611cad886129cc565b60008481526001602090815260408083206001600160a01b03891684529091529020546129189084612343565b60008581526001602090815260408083206001600160a01b03808b16808652918452828520959095558151898152928301889052815190948616927fc3d58168c5ae7397731d063d5bbf3d657854427343f4c083240f7aacaa2d0f6292908290030190a46122a581600087878787612a10565b805161172e906003906020840190612db3565b6001600160a01b03918216600090815260026020908152604080832093909416825291909152205460ff1690565b6040805160018082528183019092526060918291906020808301908036833701905050905082816000815181106129ff57fe5b602090810291909101015292915050565b612a22846001600160a01b0316612d83565b1561168457836001600160a01b031663f23a6e6187878686866040518663ffffffff1660e01b815260040180866001600160a01b03168152602001856001600160a01b0316815260200184815260200183815260200180602001828103825283818151815260200191508051906020019080838360005b83811015612ab1578181015183820152602001612a99565b50505050905090810190601f168015612ade5780820380516001836020036101000a031916815260200191505b509650505050505050602060405180830381600087803b158015612b0157600080fd5b505af1925050508015612b2657506040513d6020811015612b2157600080fd5b505160015b612b325761253b612e4c565b6001600160e01b0319811663f23a6e6160e01b146126135760405162461bcd60e51b8152600401808060200182810382526028815260200180612f266028913960400191505060405180910390fd5b6001600160a01b038316612bc65760405162461bcd60e51b81526004018080602001828103825260238152602001806130ab6023913960400191505060405180910390fd5b6000612bd0612048565b9050612c0081856000612be2876129cc565b612beb876129cc565b60405180602001604052806000815250611684565b612c4782604051806060016040528060248152602001612fe26024913960008681526001602090815260408083206001600160a01b038b16845290915290205491906122ac565b60008481526001602090815260408083206001600160a01b03808a16808652918452828520959095558151888152928301879052815193949093908616927fc3d58168c5ae7397731d063d5bbf3d657854427343f4c083240f7aacaa2d0f6292908290030190a450505050565b6000604051806080016040528060438152602001612f7960439139805190602001208260000151836020015184604001518051906020012060405160200180858152602001848152602001836001600160a01b03168152602001828152602001945050505050604051602081830303815290604052805190602001209050919050565b6000612d4161136c565b82604051602001808061190160f01b81525060020183815260200182815260200192505050604051602081830303815290604052805190602001209050919050565b3b151590565b60405180606001604052806000815260200160006001600160a01b03168152602001606081525090565b828054600181600116156101000203166002900490600052602060002090601f016020900481019282601f10612df457805160ff1916838001178555612e21565b82800160010185558215612e21579182015b82811115612e21578251825591602001919060010190612e06565b50612e2d929150612e31565b5090565b5b80821115612e2d5760008155600101612e32565b60e01c90565b600060443d1015612e5c57611370565b600481823e6308c379a0612e708251612e46565b14612e7a57611370565b6040513d600319016004823e80513d67ffffffffffffffff8160248401118184111715612eaa5750505050611370565b82840192508251915080821115612ec45750505050611370565b503d83016020828401011115612edc57505050611370565b601f01601f191681016020016040529150509056fe455243313135353a207472616e7366657220746f206e6f6e2045524331313535526563656976657220696d706c656d656e746572455243313135353a204552433131353552656365697665722072656a656374656420746f6b656e73455243313135353a2062616c616e636520717565727920666f7220746865207a65726f20616464726573734d6574615472616e73616374696f6e2875696e74323536206e6f6e63652c616464726573732066726f6d2c62797465732066756e6374696f6e5369676e6174757265294f776e61626c653a206e6577206f776e657220697320746865207a65726f2061646472657373455243313135353a206275726e20616d6f756e7420657863656564732062616c616e6365455243313135353a2063616c6c6572206973206e6f74206f776e6572206e6f7220617070726f7665644e61746976654d6574615472616e73616374696f6e3a20494e56414c49445f5349474e4552455243313135353a207472616e7366657220746f20746865207a65726f2061646472657373455243313135353a207472616e736665722063616c6c6572206973206e6f74206f776e6572206e6f7220617070726f766564455243313135353a206275726e2066726f6d20746865207a65726f2061646472657373455243313135353a20696e73756666696369656e742062616c616e636520666f72207472616e736665724f776e61626c653a2063616c6c6572206973206e6f7420746865206f776e65725369676e657220616e64207369676e617475726520646f206e6f74206d61746368455243313135353a2073657474696e6720617070726f76616c2073746174757320666f722073656c66455243313135353a206163636f756e747320616e6420696473206c656e677468206d69736d61746368455243313135353a2069647320616e6420616d6f756e7473206c656e677468206d69736d61746368455243313135353a206d696e7420746f20746865207a65726f2061646472657373a26469706673582212201dd307b6f2720f70fd4298d065f6c12d08838334dffad7112e3183ddcc36575864736f6c634300060c0033454950373132446f6d61696e28737472696e67206e616d652c737472696e672076657273696f6e2c6164647265737320766572696679696e67436f6e74726163742c627974657333322073616c74295265656e7472616e637947756172643a207265656e7472616e742063616c6c004f776e61626c653a206e6577206f776e657220697320746865207a65726f206164647265737354686520676976656e205f6e66744d616e616765724e616d6520697320696e636f727265637454686520676976656e205f73796e7468657469634e66744e616d6520697320696e636f72726563744f776e61626c653a2063616c6c6572206973206e6f7420746865206f776e6572a2646970667358221220da3ff79409d028eefcd293a6357e2b1190a0e652f9fd6e8ec8fc2b2546aa4a0864736f6c634300060c0033",
  "devdoc": {
    "kind": "dev",
    "methods": {
      "addAddress(address)": {
        "details": "adds a given address to the whitelist",
        "params": {
          "_address": "address to add"
        }
      },
      "deploySyntheticNFT(bytes32,string,string)": {
        "params": {
          "_name": "the name for resolve",
          "_nftName": "the name for ERC1155 NFT",
          "_nftUri": "the URI for ERC1155 NFT"
        }
      },
      "getContractAddress(bytes32)": {
        "params": {
          "_name": "the contract name"
        },
        "returns": {
          "_0": "the contract address "
        }
      },
      "isWhitelisted(address)": {
        "details": "returns true if a given address is whitelisted, false if not",
        "params": {
          "_address": "address to check"
        },
        "returns": {
          "_0": "true if the address is whitelisted, false if not"
        }
      },
      "owner()": {
        "details": "Returns the address of the current owner."
      },
      "permitToMint(bytes32,bytes32)": {
        "params": {
          "_nftManagerName": "the name of the NFT Manager contract",
          "_syntheticNftName": "the name of the synthetic NFT contract"
        }
      },
      "registerContract(bytes32,address)": {
        "params": {
          "_contractAddress": "the contract address",
          "_name": "the name for resolve"
        }
      },
      "removeAddress(address)": {
        "details": "removes a given address from the whitelist",
        "params": {
          "_address": "address to remove"
        }
      },
      "renounceOwnership()": {
        "details": "Leaves the contract without owner. It will not be possible to call `onlyOwner` functions anymore. Can only be called by the current owner. NOTE: Renouncing ownership will leave the contract without an owner, thereby removing any functionality that is only available to the owner."
      },
      "transferOwnership(address)": {
        "details": "Transfers ownership of the contract to a new account (`newOwner`). Can only be called by the current owner."
      },
      "updateContract(bytes32,address)": {
        "params": {
          "_contractAddress": "the new contract address",
          "_name": "the contract name"
        }
      }
    },
    "title": "A contract to keep track of all contract in the system",
    "version": 1
  },
  "userdoc": {
    "kind": "user",
    "methods": {
      "deploySyntheticNFT(bytes32,string,string)": {
        "notice": "deploy and register the synthetic NFT contract"
      },
      "getContractAddress(bytes32)": {
        "notice": "retrieve a contract address from a given name"
      },
      "permitToMint(bytes32,bytes32)": {
        "notice": "give a permission to mint NFTs"
      },
      "registerContract(bytes32,address)": {
        "notice": "register a new contract "
      },
      "updateContract(bytes32,address)": {
        "notice": "update a contract address from a given name"
      }
    },
    "version": 1
  },
  "storageLayout": {
    "storage": [
      {
        "astId": 7702,
        "contract": "contracts/Registry.sol:Registry",
        "label": "_status",
        "offset": 0,
        "slot": "0",
        "type": "t_uint256"
      },
      {
        "astId": 2403,
        "contract": "contracts/Registry.sol:Registry",
        "label": "_owner",
        "offset": 0,
        "slot": "1",
        "type": "t_address"
      },
      {
        "astId": 22299,
        "contract": "contracts/Registry.sol:Registry",
        "label": "whitelist",
        "offset": 0,
        "slot": "2",
        "type": "t_mapping(t_address,t_bool)"
      },
      {
        "astId": 13176,
        "contract": "contracts/Registry.sol:Registry",
        "label": "contracts",
        "offset": 0,
        "slot": "3",
        "type": "t_mapping(t_bytes32,t_address)"
      },
      {
        "astId": 13180,
        "contract": "contracts/Registry.sol:Registry",
        "label": "indexToContract",
        "offset": 0,
        "slot": "4",
        "type": "t_mapping(t_uint256,t_bytes32)"
      },
      {
        "astId": 13183,
        "contract": "contracts/Registry.sol:Registry",
        "label": "contractCount",
        "offset": 0,
        "slot": "5",
        "type": "t_uint256"
      }
    ],
    "types": {
      "t_address": {
        "encoding": "inplace",
        "label": "address",
        "numberOfBytes": "20"
      },
      "t_bool": {
        "encoding": "inplace",
        "label": "bool",
        "numberOfBytes": "1"
      },
      "t_bytes32": {
        "encoding": "inplace",
        "label": "bytes32",
        "numberOfBytes": "32"
      },
      "t_mapping(t_address,t_bool)": {
        "encoding": "mapping",
        "key": "t_address",
        "label": "mapping(address => bool)",
        "numberOfBytes": "32",
        "value": "t_bool"
      },
      "t_mapping(t_bytes32,t_address)": {
        "encoding": "mapping",
        "key": "t_bytes32",
        "label": "mapping(bytes32 => address)",
        "numberOfBytes": "32",
        "value": "t_address"
      },
      "t_mapping(t_uint256,t_bytes32)": {
        "encoding": "mapping",
        "key": "t_uint256",
        "label": "mapping(uint256 => bytes32)",
        "numberOfBytes": "32",
        "value": "t_bytes32"
      },
      "t_uint256": {
        "encoding": "inplace",
        "label": "uint256",
        "numberOfBytes": "32"
      }
    }
  }
}