{
  "address": "0x35E6A61153F8C6FE2Aa616d2Eb35b90cc330A388",
  "abi": [
    {
      "anonymous": false,
      "inputs": [
        {
          "indexed": false,
          "internalType": "address",
          "name": "to",
          "type": "address"
        },
        {
          "indexed": false,
          "internalType": "uint256",
          "name": "eventId",
          "type": "uint256"
        },
        {
          "indexed": false,
          "internalType": "address",
          "name": "assetAddress",
          "type": "address"
        },
        {
          "indexed": false,
          "internalType": "uint256",
          "name": "tokenId",
          "type": "uint256"
        },
        {
          "indexed": false,
          "internalType": "bool",
          "name": "is1155",
          "type": "bool"
        }
      ],
      "name": "Claimed",
      "type": "event"
    },
    {
      "anonymous": false,
      "inputs": [
        {
          "indexed": false,
          "internalType": "address",
          "name": "from",
          "type": "address"
        },
        {
          "indexed": false,
          "internalType": "address",
          "name": "assetAddress",
          "type": "address"
        },
        {
          "indexed": false,
          "internalType": "uint256",
          "name": "tokenId",
          "type": "uint256"
        },
        {
          "indexed": false,
          "internalType": "uint256",
          "name": "amount",
          "type": "uint256"
        },
        {
          "indexed": false,
          "internalType": "bool",
          "name": "is1155",
          "type": "bool"
        }
      ],
      "name": "Deposited",
      "type": "event"
    },
    {
      "anonymous": false,
      "inputs": [
        {
          "indexed": true,
          "internalType": "uint256",
          "name": "eventId",
          "type": "uint256"
        },
        {
          "indexed": false,
          "internalType": "string",
          "name": "name",
          "type": "string"
        },
        {
          "indexed": false,
          "internalType": "uint256[]",
          "name": "poaps",
          "type": "uint256[]"
        }
      ],
      "name": "EventCreated",
      "type": "event"
    },
    {
      "anonymous": false,
      "inputs": [
        {
          "indexed": true,
          "internalType": "address",
          "name": "finalizer",
          "type": "address"
        },
        {
          "indexed": false,
          "internalType": "bytes32",
          "name": "requestId",
          "type": "bytes32"
        },
        {
          "indexed": false,
          "internalType": "uint256",
          "name": "time",
          "type": "uint256"
        }
      ],
      "name": "FinalizeEvent",
      "type": "event"
    },
    {
      "anonymous": false,
      "inputs": [
        {
          "indexed": true,
          "internalType": "address",
          "name": "previousOwner",
          "type": "address"
        },
        {
          "indexed": true,
          "internalType": "address",
          "name": "newOwner",
          "type": "address"
        }
      ],
      "name": "OwnershipTransferred",
      "type": "event"
    },
    {
      "anonymous": false,
      "inputs": [
        {
          "indexed": true,
          "internalType": "uint256",
          "name": "poapId",
          "type": "uint256"
        },
        {
          "indexed": false,
          "internalType": "address",
          "name": "assetAddress",
          "type": "address"
        },
        {
          "indexed": false,
          "internalType": "uint256",
          "name": "tokenId",
          "type": "uint256"
        },
        {
          "indexed": false,
          "internalType": "bool",
          "name": "is1155",
          "type": "bool"
        }
      ],
      "name": "PoapCreated",
      "type": "event"
    },
    {
      "anonymous": false,
      "inputs": [
        {
          "indexed": true,
          "internalType": "uint256",
          "name": "projectId",
          "type": "uint256"
        },
        {
          "indexed": false,
          "internalType": "string",
          "name": "name",
          "type": "string"
        }
      ],
      "name": "ProjectCreated",
      "type": "event"
    },
    {
      "anonymous": false,
      "inputs": [
        {
          "indexed": true,
          "internalType": "uint256",
          "name": "projectId",
          "type": "uint256"
        },
        {
          "indexed": false,
          "internalType": "bool",
          "name": "isEnd",
          "type": "bool"
        }
      ],
      "name": "SetEndEvent",
      "type": "event"
    },
    {
      "inputs": [],
      "name": "FEE",
      "outputs": [
        {
          "internalType": "uint256",
          "name": "",
          "type": "uint256"
        }
      ],
      "stateMutability": "view",
      "type": "function"
    },
    {
      "inputs": [],
      "name": "KEY_HASH",
      "outputs": [
        {
          "internalType": "bytes32",
          "name": "",
          "type": "bytes32"
        }
      ],
      "stateMutability": "view",
      "type": "function"
    },
    {
      "inputs": [],
      "name": "LINK_TOKEN",
      "outputs": [
        {
          "internalType": "address",
          "name": "",
          "type": "address"
        }
      ],
      "stateMutability": "view",
      "type": "function"
    },
    {
      "inputs": [
        {
          "internalType": "address",
          "name": "_address",
          "type": "address"
        }
      ],
      "name": "addAddress",
      "outputs": [],
      "stateMutability": "nonpayable",
      "type": "function"
    },
    {
      "inputs": [
        {
          "internalType": "uint256",
          "name": "_eventId",
          "type": "uint256"
        },
        {
          "internalType": "bytes32",
          "name": "_merkleRoot",
          "type": "bytes32"
        }
      ],
      "name": "attachClaim",
      "outputs": [],
      "stateMutability": "nonpayable",
      "type": "function"
    },
    {
      "inputs": [
        {
          "internalType": "uint256",
          "name": "_projectId",
          "type": "uint256"
        },
        {
          "internalType": "bytes32",
          "name": "_merkleRoot",
          "type": "bytes32"
        }
      ],
      "name": "attachWhitelist",
      "outputs": [],
      "stateMutability": "nonpayable",
      "type": "function"
    },
    {
      "inputs": [
        {
          "internalType": "uint256[]",
          "name": "_projectIds",
          "type": "uint256[]"
        },
        {
          "internalType": "bytes32[]",
          "name": "_merkleRoots",
          "type": "bytes32[]"
        }
      ],
      "name": "attachWhitelistBatch",
      "outputs": [],
      "stateMutability": "nonpayable",
      "type": "function"
    },
    {
      "inputs": [
        {
          "internalType": "uint256",
          "name": "_eventId",
          "type": "uint256"
        },
        {
          "internalType": "uint256",
          "name": "_poapId",
          "type": "uint256"
        },
        {
          "internalType": "bytes32[]",
          "name": "_proof",
          "type": "bytes32[]"
        }
      ],
      "name": "checkClaim",
      "outputs": [
        {
          "internalType": "bool",
          "name": "output",
          "type": "bool"
        }
      ],
      "stateMutability": "view",
      "type": "function"
    },
    {
      "inputs": [
        {
          "internalType": "uint256",
          "name": "_eventId",
          "type": "uint256"
        },
        {
          "internalType": "uint256",
          "name": "_poapId",
          "type": "uint256"
        },
        {
          "internalType": "bytes32[]",
          "name": "_proof",
          "type": "bytes32[]"
        }
      ],
      "name": "claim",
      "outputs": [],
      "stateMutability": "nonpayable",
      "type": "function"
    },
    {
      "inputs": [
        {
          "internalType": "uint256",
          "name": "_eventId",
          "type": "uint256"
        },
        {
          "internalType": "string",
          "name": "_name",
          "type": "string"
        },
        {
          "internalType": "uint256[]",
          "name": "_poaps",
          "type": "uint256[]"
        }
      ],
      "name": "createEvent",
      "outputs": [],
      "stateMutability": "nonpayable",
      "type": "function"
    },
    {
      "inputs": [
        {
          "internalType": "uint256",
          "name": "_poapId",
          "type": "uint256"
        },
        {
          "internalType": "address",
          "name": "_assetAddress",
          "type": "address"
        },
        {
          "internalType": "uint256",
          "name": "_tokenId",
          "type": "uint256"
        },
        {
          "internalType": "bool",
          "name": "_is1155",
          "type": "bool"
        }
      ],
      "name": "createPoap",
      "outputs": [],
      "stateMutability": "nonpayable",
      "type": "function"
    },
    {
      "inputs": [
        {
          "internalType": "uint256[]",
          "name": "_poapId",
          "type": "uint256[]"
        },
        {
          "internalType": "address[]",
          "name": "_assetAddress",
          "type": "address[]"
        },
        {
          "internalType": "uint256[]",
          "name": "_tokenId",
          "type": "uint256[]"
        },
        {
          "internalType": "bool[]",
          "name": "_is1155",
          "type": "bool[]"
        }
      ],
      "name": "createPoapBatch",
      "outputs": [],
      "stateMutability": "nonpayable",
      "type": "function"
    },
    {
      "inputs": [
        {
          "internalType": "uint256",
          "name": "_projectId",
          "type": "uint256"
        },
        {
          "internalType": "string",
          "name": "_name",
          "type": "string"
        }
      ],
      "name": "createProject",
      "outputs": [],
      "stateMutability": "nonpayable",
      "type": "function"
    },
    {
      "inputs": [
        {
          "internalType": "address",
          "name": "_assetAddress",
          "type": "address"
        },
        {
          "internalType": "uint256",
          "name": "_tokenId",
          "type": "uint256"
        },
        {
          "internalType": "uint256",
          "name": "_amount",
          "type": "uint256"
        }
      ],
      "name": "depositERC1155",
      "outputs": [],
      "stateMutability": "nonpayable",
      "type": "function"
    },
    {
      "inputs": [
        {
          "internalType": "address",
          "name": "_assetAddress",
          "type": "address"
        },
        {
          "internalType": "uint256",
          "name": "_tokenId",
          "type": "uint256"
        }
      ],
      "name": "depositERC721",
      "outputs": [],
      "stateMutability": "nonpayable",
      "type": "function"
    },
    {
      "inputs": [
        {
          "internalType": "uint256",
          "name": "_projectId",
          "type": "uint256"
        },
        {
          "internalType": "address",
          "name": "_address",
          "type": "address"
        },
        {
          "internalType": "bytes32[]",
          "name": "_proof",
          "type": "bytes32[]"
        }
      ],
      "name": "eligible",
      "outputs": [
        {
          "internalType": "bool",
          "name": "output",
          "type": "bool"
        }
      ],
      "stateMutability": "view",
      "type": "function"
    },
    {
      "inputs": [
        {
          "internalType": "address",
          "name": "_to",
          "type": "address"
        },
        {
          "internalType": "address",
          "name": "_tokenAddress",
          "type": "address"
        },
        {
          "internalType": "uint256",
          "name": "_tokenId",
          "type": "uint256"
        },
        {
          "internalType": "uint256",
          "name": "_amount",
          "type": "uint256"
        }
      ],
      "name": "emergencyWithdrawERC1155",
      "outputs": [],
      "stateMutability": "nonpayable",
      "type": "function"
    },
    {
      "inputs": [
        {
          "internalType": "address",
          "name": "_tokenAddress",
          "type": "address"
        },
        {
          "internalType": "uint256",
          "name": "_amount",
          "type": "uint256"
        }
      ],
      "name": "emergencyWithdrawERC20",
      "outputs": [],
      "stateMutability": "nonpayable",
      "type": "function"
    },
    {
      "inputs": [
        {
          "internalType": "address",
          "name": "_to",
          "type": "address"
        },
        {
          "internalType": "address",
          "name": "_tokenAddress",
          "type": "address"
        },
        {
          "internalType": "uint256",
          "name": "_tokenId",
          "type": "uint256"
        }
      ],
      "name": "emergencyWithdrawERC721",
      "outputs": [],
      "stateMutability": "nonpayable",
      "type": "function"
    },
    {
      "inputs": [
        {
          "internalType": "uint256",
          "name": "",
          "type": "uint256"
        }
      ],
      "name": "events",
      "outputs": [
        {
          "internalType": "string",
          "name": "name",
          "type": "string"
        },
        {
          "internalType": "bytes32",
          "name": "merkleRoot",
          "type": "bytes32"
        },
        {
          "internalType": "uint256",
          "name": "claimCount",
          "type": "uint256"
        },
        {
          "internalType": "uint256",
          "name": "seed",
          "type": "uint256"
        },
        {
          "internalType": "bool",
          "name": "ended",
          "type": "bool"
        },
        {
          "internalType": "bool",
          "name": "active",
          "type": "bool"
        }
      ],
      "stateMutability": "view",
      "type": "function"
    },
    {
      "inputs": [
        {
          "internalType": "uint256",
          "name": "_eventId",
          "type": "uint256"
        }
      ],
      "name": "finalizeEvent",
      "outputs": [],
      "stateMutability": "nonpayable",
      "type": "function"
    },
    {
      "inputs": [
        {
          "internalType": "address",
          "name": "_linkToken",
          "type": "address"
        },
        {
          "internalType": "address",
          "name": "_vrfCoordinator",
          "type": "address"
        },
        {
          "internalType": "bytes32",
          "name": "_keyHash",
          "type": "bytes32"
        },
        {
          "internalType": "uint256",
          "name": "_fee",
          "type": "uint256"
        }
      ],
      "name": "initialize",
      "outputs": [],
      "stateMutability": "nonpayable",
      "type": "function"
    },
    {
      "inputs": [
        {
          "internalType": "address",
          "name": "_address",
          "type": "address"
        }
      ],
      "name": "isWhitelisted",
      "outputs": [
        {
          "internalType": "bool",
          "name": "",
          "type": "bool"
        }
      ],
      "stateMutability": "view",
      "type": "function"
    },
    {
      "inputs": [
        {
          "internalType": "address",
          "name": "",
          "type": "address"
        },
        {
          "internalType": "address",
          "name": "",
          "type": "address"
        },
        {
          "internalType": "uint256[]",
          "name": "",
          "type": "uint256[]"
        },
        {
          "internalType": "uint256[]",
          "name": "",
          "type": "uint256[]"
        },
        {
          "internalType": "bytes",
          "name": "",
          "type": "bytes"
        }
      ],
      "name": "onERC1155BatchReceived",
      "outputs": [
        {
          "internalType": "bytes4",
          "name": "",
          "type": "bytes4"
        }
      ],
      "stateMutability": "nonpayable",
      "type": "function"
    },
    {
      "inputs": [
        {
          "internalType": "address",
          "name": "",
          "type": "address"
        },
        {
          "internalType": "address",
          "name": "",
          "type": "address"
        },
        {
          "internalType": "uint256",
          "name": "",
          "type": "uint256"
        },
        {
          "internalType": "uint256",
          "name": "",
          "type": "uint256"
        },
        {
          "internalType": "bytes",
          "name": "",
          "type": "bytes"
        }
      ],
      "name": "onERC1155Received",
      "outputs": [
        {
          "internalType": "bytes4",
          "name": "",
          "type": "bytes4"
        }
      ],
      "stateMutability": "nonpayable",
      "type": "function"
    },
    {
      "inputs": [
        {
          "internalType": "address",
          "name": "",
          "type": "address"
        },
        {
          "internalType": "address",
          "name": "",
          "type": "address"
        },
        {
          "internalType": "uint256",
          "name": "",
          "type": "uint256"
        },
        {
          "internalType": "bytes",
          "name": "",
          "type": "bytes"
        }
      ],
      "name": "onERC721Received",
      "outputs": [
        {
          "internalType": "bytes4",
          "name": "",
          "type": "bytes4"
        }
      ],
      "stateMutability": "nonpayable",
      "type": "function"
    },
    {
      "inputs": [],
      "name": "owner",
      "outputs": [
        {
          "internalType": "address",
          "name": "",
          "type": "address"
        }
      ],
      "stateMutability": "view",
      "type": "function"
    },
    {
      "inputs": [
        {
          "internalType": "uint256",
          "name": "",
          "type": "uint256"
        }
      ],
      "name": "poaps",
      "outputs": [
        {
          "internalType": "address",
          "name": "assetAddress",
          "type": "address"
        },
        {
          "internalType": "uint256",
          "name": "tokenId",
          "type": "uint256"
        },
        {
          "internalType": "bool",
          "name": "is1155",
          "type": "bool"
        }
      ],
      "stateMutability": "view",
      "type": "function"
    },
    {
      "inputs": [
        {
          "internalType": "uint256",
          "name": "",
          "type": "uint256"
        }
      ],
      "name": "projects",
      "outputs": [
        {
          "internalType": "string",
          "name": "name",
          "type": "string"
        },
        {
          "internalType": "bytes32",
          "name": "merkleRoot",
          "type": "bytes32"
        },
        {
          "internalType": "uint256",
          "name": "timestamp",
          "type": "uint256"
        },
        {
          "internalType": "bool",
          "name": "active",
          "type": "bool"
        }
      ],
      "stateMutability": "view",
      "type": "function"
    },
    {
      "inputs": [
        {
          "internalType": "bytes32",
          "name": "requestId",
          "type": "bytes32"
        },
        {
          "internalType": "uint256",
          "name": "randomness",
          "type": "uint256"
        }
      ],
      "name": "rawFulfillRandomness",
      "outputs": [],
      "stateMutability": "nonpayable",
      "type": "function"
    },
    {
      "inputs": [
        {
          "internalType": "address",
          "name": "_address",
          "type": "address"
        }
      ],
      "name": "removeAddress",
      "outputs": [],
      "stateMutability": "nonpayable",
      "type": "function"
    },
    {
      "inputs": [],
      "name": "renounceOwnership",
      "outputs": [],
      "stateMutability": "nonpayable",
      "type": "function"
    },
    {
      "inputs": [
        {
          "internalType": "uint256",
          "name": "_eventId",
          "type": "uint256"
        },
        {
          "internalType": "bool",
          "name": "_isEnd",
          "type": "bool"
        }
      ],
      "name": "setEndEvent",
      "outputs": [],
      "stateMutability": "nonpayable",
      "type": "function"
    },
    {
      "inputs": [
        {
          "internalType": "bytes4",
          "name": "interfaceId",
          "type": "bytes4"
        }
      ],
      "name": "supportsInterface",
      "outputs": [
        {
          "internalType": "bool",
          "name": "",
          "type": "bool"
        }
      ],
      "stateMutability": "view",
      "type": "function"
    },
    {
      "inputs": [
        {
          "internalType": "address",
          "name": "newOwner",
          "type": "address"
        }
      ],
      "name": "transferOwnership",
      "outputs": [],
      "stateMutability": "nonpayable",
      "type": "function"
    },
    {
      "inputs": [
        {
          "internalType": "uint256",
          "name": "_eventId",
          "type": "uint256"
        },
        {
          "internalType": "uint256[]",
          "name": "_poaps",
          "type": "uint256[]"
        }
      ],
      "name": "updatePoaps",
      "outputs": [],
      "stateMutability": "nonpayable",
      "type": "function"
    }
  ],
  "transactionHash": "0xfc5b2b133df9c8b079b194a3f25d0870c3e9cfc6fc5822fcf55864f2bf16ca9e",
  "args": [],
  "solcInputHash": "51738c7395e366f687a6184be2dcfac1",
  "bytecode": "0x608060405234801561001057600080fd5b50614152806100206000396000f3fe608060405234801561001057600080fd5b506004361061021c5760003560e01c80638da5cb5b11610125578063bf1a8003116100ad578063d29a4bf61161007c578063d29a4bf61461110e578063df29b9821461113a578063eedac3a614611166578063f23a6e611461116e578063f2fde38b146112375761021c565b8063bf1a800314610f82578063c57981b51461102d578063cb15d43f14611035578063cc2fe72d146110eb5761021c565b80639bb36076116100f45780639bb3607614610b7f5780639e3c1b6114610cac578063ae0b51df14610cde578063b72b85a114610d8b578063bc197c8114610dc15761021c565b80638da5cb5b146108f457806394985ddd146109185780639617129c1461093b5780639b71e67314610b625761021c565b806338eada1c116101a857806361e4058f1161017757806361e4058f146106b75780636946c2ef146106fe5780636ce637b41461072157806370ee997b146107c9578063715018a6146108ec5761021c565b806338eada1c1461062b5780633af32abf146106515780634ba79dfe1461067757806351dc86a51461069d5761021c565b8063107046bd116101ef578063107046bd14610403578063150b7a02146104af578063180dc8e714610590578063277a2389146105ca5780632c1e2584146106065761021c565b806301ffc9a7146102215780630adc089d1461025c5780630b7914301461029a5780630f72faec14610356575b600080fd5b6102486004803603602081101561023757600080fd5b50356001600160e01b03191661125d565b604080519115158252519081900360200190f35b6102986004803603608081101561027257600080fd5b506001600160a01b0381358116916020810135909116906040810135906060013561127c565b005b6102b7600480360360208110156102b057600080fd5b50356113be565b604051808060200187815260200186815260200185815260200184151581526020018315158152602001828103825288818151815260200191508051906020019080838360005b838110156103165781810151838201526020016102fe565b50505050905090810190601f1680156103435780820380516001836020036101000a031916815260200191505b5097505050505050505060405180910390f35b6102486004803603606081101561036c57600080fd5b813591602081013591810190606081016040820135600160201b81111561039257600080fd5b8201836020820111156103a457600080fd5b803590602001918460208302840111600160201b831117156103c557600080fd5b919080806020026020016040519081016040528093929190818152602001838360200280828437600092019190915250929550611485945050505050565b6104206004803603602081101561041957600080fd5b503561149a565b60405180806020018581526020018481526020018315158152602001828103825286818151815260200191508051906020019080838360005b83811015610471578181015183820152602001610459565b50505050905090810190601f16801561049e5780820380516001836020036101000a031916815260200191505b509550505050505060405180910390f35b610573600480360360808110156104c557600080fd5b6001600160a01b03823581169260208101359091169160408201359190810190608081016060820135600160201b8111156104ff57600080fd5b82018360208201111561051157600080fd5b803590602001918460018302840111600160201b8311171561053257600080fd5b91908080601f016020809104026020016040519081016040528093929190818152602001838380828437600092019190915250929550611553945050505050565b604080516001600160e01b03199092168252519081900360200190f35b610298600480360360808110156105a657600080fd5b508035906001600160a01b0360208201351690604081013590606001351515611563565b610298600480360360808110156105e057600080fd5b506001600160a01b038135811691602081013590911690604081013590606001356116fc565b6102986004803603604081101561061c57600080fd5b5080359060200135151561180c565b6102986004803603602081101561064157600080fd5b50356001600160a01b03166118bc565b6102486004803603602081101561066757600080fd5b50356001600160a01b031661195e565b6102986004803603602081101561068d57600080fd5b50356001600160a01b031661197c565b6106a5611a17565b60408051918252519081900360200190f35b6106d4600480360360208110156106cd57600080fd5b5035611a1e565b604080516001600160a01b0390941684526020840192909252151582820152519081900360600190f35b6102986004803603604081101561071457600080fd5b5080359060200135611a4d565b6102986004803603604081101561073757600080fd5b81359190810190604081016020820135600160201b81111561075857600080fd5b82018360208201111561076a57600080fd5b803590602001918460208302840111600160201b8311171561078b57600080fd5b919080806020026020016040519081016040528093929190818152602001838360200280828437600092019190915250929550611b74945050505050565b610298600480360360408110156107df57600080fd5b810190602081018135600160201b8111156107f957600080fd5b82018360208201111561080b57600080fd5b803590602001918460208302840111600160201b8311171561082c57600080fd5b9190808060200260200160405190810160405280939291908181526020018383602002808284376000920191909152509295949360208101935035915050600160201b81111561087b57600080fd5b82018360208201111561088d57600080fd5b803590602001918460208302840111600160201b831117156108ae57600080fd5b919080806020026020016040519081016040528093929190818152602001838360200280828437600092019190915250929550611cac945050505050565b610298611e11565b6108fc611ebd565b604080516001600160a01b039092168252519081900360200190f35b6102986004803603604081101561092e57600080fd5b5080359060200135611ecc565b6102986004803603608081101561095157600080fd5b810190602081018135600160201b81111561096b57600080fd5b82018360208201111561097d57600080fd5b803590602001918460208302840111600160201b8311171561099e57600080fd5b9190808060200260200160405190810160405280939291908181526020018383602002808284376000920191909152509295949360208101935035915050600160201b8111156109ed57600080fd5b8201836020820111156109ff57600080fd5b803590602001918460208302840111600160201b83111715610a2057600080fd5b9190808060200260200160405190810160405280939291908181526020018383602002808284376000920191909152509295949360208101935035915050600160201b811115610a6f57600080fd5b820183602082011115610a8157600080fd5b803590602001918460208302840111600160201b83111715610aa257600080fd5b9190808060200260200160405190810160405280939291908181526020018383602002808284376000920191909152509295949360208101935035915050600160201b811115610af157600080fd5b820183602082011115610b0357600080fd5b803590602001918460208302840111600160201b83111715610b2457600080fd5b919080806020026020016040519081016040528093929190818152602001838360200280828437600092019190915250929550611f36945050505050565b61029860048036036020811015610b7857600080fd5b503561212b565b61029860048036036060811015610b9557600080fd5b81359190810190604081016020820135600160201b811115610bb657600080fd5b820183602082011115610bc857600080fd5b803590602001918460018302840111600160201b83111715610be957600080fd5b91908080601f0160208091040260200160405190810160405280939291908181526020018383808284376000920191909152509295949360208101935035915050600160201b811115610c3b57600080fd5b820183602082011115610c4d57600080fd5b803590602001918460208302840111600160201b83111715610c6e57600080fd5b9190808060200260200160405190810160405280939291908181526020018383602002808284376000920191909152509295506123f2945050505050565b61029860048036036060811015610cc257600080fd5b506001600160a01b038135169060208101359060400135612635565b61029860048036036060811015610cf457600080fd5b813591602081013591810190606081016040820135600160201b811115610d1a57600080fd5b820183602082011115610d2c57600080fd5b803590602001918460208302840111600160201b83111715610d4d57600080fd5b919080806020026020016040519081016040528093929190818152602001838360200280828437600092019190915250929550612771945050505050565b61029860048036036060811015610da157600080fd5b506001600160a01b03813581169160208101359091169060400135612b40565b610573600480360360a0811015610dd757600080fd5b6001600160a01b038235811692602081013590911691810190606081016040820135600160201b811115610e0a57600080fd5b820183602082011115610e1c57600080fd5b803590602001918460208302840111600160201b83111715610e3d57600080fd5b9190808060200260200160405190810160405280939291908181526020018383602002808284376000920191909152509295949360208101935035915050600160201b811115610e8c57600080fd5b820183602082011115610e9e57600080fd5b803590602001918460208302840111600160201b83111715610ebf57600080fd5b9190808060200260200160405190810160405280939291908181526020018383602002808284376000920191909152509295949360208101935035915050600160201b811115610f0e57600080fd5b820183602082011115610f2057600080fd5b803590602001918460018302840111600160201b83111715610f4157600080fd5b91908080601f016020809104026020016040519081016040528093929190818152602001838380828437600092019190915250929550612c5a945050505050565b61029860048036036040811015610f9857600080fd5b81359190810190604081016020820135600160201b811115610fb957600080fd5b820183602082011115610fcb57600080fd5b803590602001918460018302840111600160201b83111715610fec57600080fd5b91908080601f016020809104026020016040519081016040528093929190818152602001838380828437600092019190915250929550612c6b945050505050565b6106a5612e3d565b6102486004803603606081101561104b57600080fd5b8135916001600160a01b0360208201351691810190606081016040820135600160201b81111561107a57600080fd5b82018360208201111561108c57600080fd5b803590602001918460208302840111600160201b831117156110ad57600080fd5b919080806020026020016040519081016040528093929190818152602001838360200280828437600092019190915250929550612e44945050505050565b6102986004803603604081101561110157600080fd5b5080359060200135612e51565b6102986004803603604081101561112457600080fd5b506001600160a01b038135169060200135612f74565b6102986004803603604081101561115057600080fd5b506001600160a01b03813516906020013561308b565b6108fc6131af565b610573600480360360a081101561118457600080fd5b6001600160a01b03823581169260208101359091169160408201359160608101359181019060a081016080820135600160201b8111156111c357600080fd5b8201836020820111156111d557600080fd5b803590602001918460018302840111600160201b831117156111f657600080fd5b91908080601f0160208091040260200160405190810160405280939291908181526020018383808284376000920191909152509295506131bf945050505050565b6102986004803603602081101561124d57600080fd5b50356001600160a01b03166131d0565b6001600160e01b03191660009081526098602052604090205460ff1690565b600260665414156112c2576040805162461bcd60e51b815260206004820152601f6024820152600080516020614036833981519152604482015290519081900360640190fd5b600260665560006112d16132d3565b90506112dc8161195e565b61131b576040805162461bcd60e51b815260206004820181905260248201526000805160206140cb833981519152604482015290519081900360640190fd5b60408051637921219560e11b8152306004808301919091526001600160a01b038881166024840152604483018790526064830186905260a0608484015260a4830191909152630307830360e41b60c483015291519186169163f242432a9160e48082019260009290919082900301818387803b15801561139a57600080fd5b505af11580156113ae573d6000803e3d6000fd5b5050600160665550505050505050565b6101696020908152600091825260409182902080548351601f600260001961010060018616150201909316929092049182018490048402810184019094528084529092918391908301828280156114565780601f1061142b57610100808354040283529160200191611456565b820191906000526020600020905b81548152906001019060200180831161143957829003601f168201915b505050506002830154600484015460058501546006909501549394919390925060ff8082169161010090041686565b60006114928484846132d7565b949350505050565b61016a6020908152600091825260409182902080548351601f600260001961010060018616150201909316929092049182018490048402810184019094528084529092918391908301828280156115325780601f1061150757610100808354040283529160200191611532565b820191906000526020600020905b81548152906001019060200180831161151557829003601f168201915b50505050600183015460028401546003909401549293909290915060ff1684565b630a85bd0160e11b949350505050565b600260665414156115a9576040805162461bcd60e51b815260206004820152601f6024820152600080516020614036833981519152604482015290519081900360640190fd5b600260665560006115b86132d3565b90506115c38161195e565b611602576040805162461bcd60e51b815260206004820181905260248201526000805160206140cb833981519152604482015290519081900360640190fd5b600085815261016860205260409020546001600160a01b031615611664576040805162461bcd60e51b815260206004820152601460248201527311da5d995b881251081a5cc81bd8d8dd5c1a595960621b604482015290519081900360640190fd5b6000858152610168602090815260409182902080546001600160a01b0388166001600160a01b031990911681178255600182018790556002909101805486151560ff199091168117909155835191825291810186905280830191909152905186917fd5a1e278f584cc151f1f46874b828382dadb6deb986a44792b7a1ce84d770bcd919081900360600190a250506001606655505050565b600054610100900460ff16806117155750611715613342565b80611723575060005460ff16155b61175e5760405162461bcd60e51b815260040180806020018281038252602e81526020018061409d602e913960400191505060405180910390fd5b600054610100900460ff16158015611789576000805460ff1961ff0019909116610100171660011790555b61016380546001600160a01b0319166001600160a01b0387161790556101648390556101658290556117b9613353565b6117c16133fd565b6117c9613492565b6117d161352f565b6117d96135c4565b6117e9630a85bd0160e11b61369a565b6117f3848661371e565b8015611805576000805461ff00191690555b5050505050565b60006118166132d3565b90506118218161195e565b611860576040805162461bcd60e51b815260206004820181905260248201526000805160206140cb833981519152604482015290519081900360640190fd5b60008381526101696020908152604091829020600601805460ff19168515159081179091558251908152915185927f578d9b7d4452f20b3da7f9295c5f80b1883a09be26c7b51dd69a3bd7feab408192908290030190a2505050565b60006118c66132d3565b90506118d18161195e565b611910576040805162461bcd60e51b815260206004820181905260248201526000805160206140cb833981519152604482015290519081900360640190fd5b6001600160a01b03821660009081526065602052604090205460ff16156119365761195a565b6001600160a01b0382166000908152606560205260409020805460ff191660011790555b5050565b6001600160a01b031660009081526065602052604090205460ff1690565b60006119866132d3565b90506119918161195e565b6119d0576040805162461bcd60e51b815260206004820181905260248201526000805160206140cb833981519152604482015290519081900360640190fd5b6001600160a01b03821660009081526065602052604090205460ff166119f55761195a565b506001600160a01b03166000908152606560205260409020805460ff19169055565b6101645481565b610168602052600090815260409020805460018201546002909201546001600160a01b03909116919060ff1683565b60026066541415611a93576040805162461bcd60e51b815260206004820152601f6024820152600080516020614036833981519152604482015290519081900360640190fd5b60026066556000611aa26132d3565b9050611aad8161195e565b611aec576040805162461bcd60e51b815260206004820181905260248201526000805160206140cb833981519152604482015290519081900360640190fd5b600083815261016a602052604090206003015460ff161515600114611b4e576040805162461bcd60e51b815260206004820152601360248201527211da5d995b881251081a5cc81a5b9d985b1a59606a1b604482015290519081900360640190fd5b50600091825261016a602052604090912060018082019290925542600290910155606655565b60026066541415611bba576040805162461bcd60e51b815260206004820152601f6024820152600080516020614036833981519152604482015290519081900360640190fd5b60026066556000611bc96132d3565b9050611bd48161195e565b611c13576040805162461bcd60e51b815260206004820181905260248201526000805160206140cb833981519152604482015290519081900360640190fd5b6000838152610169602052604090206006015460ff610100909104161515600114611c7b576040805162461bcd60e51b815260206004820152601360248201527211da5d995b881251081a5cc81a5b9d985b1a59606a1b604482015290519081900360640190fd5b6000838152610169602090815260409091208351611ca192600190920191850190613f68565b505060016066555050565b60026066541415611cf2576040805162461bcd60e51b815260206004820152601f6024820152600080516020614036833981519152604482015290519081900360640190fd5b60026066556000611d016132d3565b9050611d0c8161195e565b611d4b576040805162461bcd60e51b815260206004820181905260248201526000805160206140cb833981519152604482015290519081900360640190fd5b8151835114611d8b5760405162461bcd60e51b815260040180806020018281038252602181526020018061407c6021913960400191505060405180910390fd5b60005b8351811015611ca157828181518110611da357fe5b602002602001015161016a6000868481518110611dbc57fe5b60200260200101518152602001908152602001600020600101819055504261016a6000868481518110611deb57fe5b602090810291909101810151825281019190915260400160002060020155600101611d8e565b611e196132d3565b6001600160a01b0316611e2a611ebd565b6001600160a01b031614611e73576040805162461bcd60e51b815260206004820181905260248201526000805160206140cb833981519152604482015290519081900360640190fd5b6033546040516000916001600160a01b0316907f8be0079c531659141344cd1fd0a4f28419497f9722a3daafe3b4186f6b6457e0908390a3603380546001600160a01b0319169055565b6033546001600160a01b031690565b610161546001600160a01b03163314611f2c576040805162461bcd60e51b815260206004820152601f60248201527f4f6e6c7920565246436f6f7264696e61746f722063616e2066756c66696c6c00604482015290519081900360640190fd5b61195a82826137f4565b60026066541415611f7c576040805162461bcd60e51b815260206004820152601f6024820152600080516020614036833981519152604482015290519081900360640190fd5b60026066556000611f8b6132d3565b9050611f968161195e565b611fd5576040805162461bcd60e51b815260206004820181905260248201526000805160206140cb833981519152604482015290519081900360640190fd5b83518551146120155760405162461bcd60e51b815260040180806020018281038252602181526020018061407c6021913960400191505060405180910390fd5b60005b855181101561211e5784818151811061202d57fe5b6020026020010151610168600088848151811061204657fe5b6020026020010151815260200190815260200160002060000160006101000a8154816001600160a01b0302191690836001600160a01b0316021790555083818151811061208f57fe5b602002602001015161016860008884815181106120a857fe5b60200260200101518152602001908152602001600020600101819055508281815181106120d157fe5b602002602001015161016860008884815181106120ea57fe5b6020908102919091018101518252810191909152604001600020600201805460ff1916911515919091179055600101612018565b5050600160665550505050565b60026066541415612171576040805162461bcd60e51b815260206004820152601f6024820152600080516020614036833981519152604482015290519081900360640190fd5b600260665560006121806132d3565b905061218b8161195e565b6121ca576040805162461bcd60e51b815260206004820181905260248201526000805160206140cb833981519152604482015290519081900360640190fd5b6000828152610169602052604090206006015460ff610100909104161515600114612232576040805162461bcd60e51b815260206004820152601360248201527211da5d995b881251081a5cc81a5b9d985b1a59606a1b604482015290519081900360640190fd5b6000828152610169602052604090206005015415612297576040805162461bcd60e51b815260206004820181905260248201527f53656564206e756d62657220697320616c72656164792067656e657261746564604482015290519081900360640190fd5b6101655461016354604080516370a0823160e01b815230600482015290516001600160a01b03909216916370a0823191602480820192602092909190829003018186803b1580156122e757600080fd5b505afa1580156122fb573d6000803e3d6000fd5b505050506040513d602081101561231157600080fd5b50511015612366576040805162461bcd60e51b815260206004820181905260248201527f496e73756666696369656e74204c494e4b20746f2070726f6365656420565246604482015290519081900360640190fd5b60006123786101645461016554613820565b60008181526101666020908152604080832080546001600160a01b0319163390811790915561016783529281902087905580518481524292810192909252805193945091927faeba677757adb30ff8b2f03114a5f7aedfa18c58954d4f67a8a5a1f65d848470929181900390910190a25050600160665550565b60026066541415612438576040805162461bcd60e51b815260206004820152601f6024820152600080516020614036833981519152604482015290519081900360640190fd5b600260665560006124476132d3565b90506124528161195e565b612491576040805162461bcd60e51b815260206004820181905260248201526000805160206140cb833981519152604482015290519081900360640190fd5b60008481526101696020526040902060060154610100900460ff16156124f5576040805162461bcd60e51b815260206004820152601460248201527311da5d995b881251081a5cc81bd8d8dd5c1a595960621b604482015290519081900360640190fd5b60008481526101696020908152604090912060068101805461ff001916610100179055845161252692860190613fb3565b50600084815261016960209081526040909120835161254d92600190920191850190613f68565b50837f8133537ae7f66126e2c2f00bd8d8d66977b41620113eea31ac6fd6c571158d448484604051808060200180602001838103835285818151815260200191508051906020019080838360005b838110156125b357818101518382015260200161259b565b50505050905090810190601f1680156125e05780820380516001836020036101000a031916815260200191505b508381038252845181528451602091820191808701910280838360005b838110156126155781810151838201526020016125fd565b5050505090500194505050505060405180910390a2505060016066555050565b6002606654141561267b576040805162461bcd60e51b815260206004820152601f6024820152600080516020614036833981519152604482015290519081900360640190fd5b600260665560408051637921219560e11b815233600480830191909152306024830152604482018590526064820184905260a0608483015260a4820152630307830360e41b60c482015290516001600160a01b0385169163f242432a9160e480830192600092919082900301818387803b1580156126f857600080fd5b505af115801561270c573d6000803e3d6000fd5b5050604080513381526001600160a01b0387166020820152808201869052606081018590526001608082015290517f4650251833fea404cc00aad3da10dade0b14fb7a08758404b4ff967b4b34281693509081900360a0019150a15050600160665550565b600260665414156127b7576040805162461bcd60e51b815260206004820152601f6024820152600080516020614036833981519152604482015290519081900360640190fd5b60026066556000838152610169602052604090206006015460ff61010090910416151560011461282e576040805162461bcd60e51b815260206004820152601960248201527f476976656e204576656e7420494420697320696e76616c696400000000000000604482015290519081900360640190fd5b6000838152610169602052604090206006015460ff161561288b576040805162461bcd60e51b8152602060048201526012602482015271151a1948195d995b9d081a5cc8195b99195960721b604482015290519081900360640190fd5b60008381526101696020908152604080832033845260030190915290205460ff16156128fe576040805162461bcd60e51b815260206004820152601d60248201527f5468652063616c6c657220697320616c726561647920636c61696d6564000000604482015290519081900360640190fd5b6129098383836132d7565b15156001146129495760405162461bcd60e51b81526004018080602001828103825260328152602001806140eb6032913960400191505060405180910390fd5b6000828152610168602052604090206002015460ff1615612a0d576000828152610168602052604080822080546001918201548351637921219560e11b8152306004808301919091523360248301526044820192909252606481019390935260a0608484015260a4830152630307830360e41b60c483015291516001600160a01b039092169263f242432a9260e48084019382900301818387803b1580156129f057600080fd5b505af1158015612a04573d6000803e3d6000fd5b50505050612a8e565b6000828152610168602052604080822080546001909101548251632142170760e11b8152306004820152336024820152604481019190915291516001600160a01b03909116926342842e0e926064808201939182900301818387803b158015612a7557600080fd5b505af1158015612a89573d6000803e3d6000fd5b505050505b60008381526101696020908152604080832033808552600382018452828520805460ff19166001908117909155600490920180548301905586855261016884529382902080549181015460029091015483519586529385018890526001600160a01b039190911684830152606084015260ff9190911615156080830152517f4c9100214741dbc7f953cb38b477362273dc50162972f625b4af38ccf8d4a1259181900360a00190a15050600160665550565b60026066541415612b86576040805162461bcd60e51b815260206004820152601f6024820152600080516020614036833981519152604482015290519081900360640190fd5b60026066556000612b956132d3565b9050612ba08161195e565b612bdf576040805162461bcd60e51b815260206004820181905260248201526000805160206140cb833981519152604482015290519081900360640190fd5b60408051632142170760e11b81523060048201526001600160a01b038681166024830152604482018590529151918516916342842e0e9160648082019260009290919082900301818387803b158015612c3757600080fd5b505af1158015612c4b573d6000803e3d6000fd5b50506001606655505050505050565b63bc197c8160e01b95945050505050565b60026066541415612cb1576040805162461bcd60e51b815260206004820152601f6024820152600080516020614036833981519152604482015290519081900360640190fd5b60026066556000612cc06132d3565b9050612ccb8161195e565b612d0a576040805162461bcd60e51b815260206004820181905260248201526000805160206140cb833981519152604482015290519081900360640190fd5b600083815261016a602052604090206003015460ff1615612d69576040805162461bcd60e51b815260206004820152601460248201527311da5d995b881251081a5cc81bd8d8dd5c1a595960621b604482015290519081900360640190fd5b600083815261016a6020908152604090912060038101805460ff191660011790558351612d9892850190613fb3565b50827fed06d1e70f1faa0e1750def1b3a1d942390a8f47d03679c9025a1c38dc34fe7b836040518080602001828103825283818151815260200191508051906020019080838360005b83811015612df9578181015183820152602001612de1565b50505050905090810190601f168015612e265780820380516001836020036101000a031916815260200191505b509250505060405180910390a25050600160665550565b6101655481565b6000611492848484613979565b60026066541415612e97576040805162461bcd60e51b815260206004820152601f6024820152600080516020614036833981519152604482015290519081900360640190fd5b60026066556000612ea66132d3565b9050612eb18161195e565b612ef0576040805162461bcd60e51b815260206004820181905260248201526000805160206140cb833981519152604482015290519081900360640190fd5b6000838152610169602052604090206006015460ff610100909104161515600114612f58576040805162461bcd60e51b815260206004820152601360248201527211da5d995b881251081a5cc81a5b9d985b1a59606a1b604482015290519081900360640190fd5b5060009182526101696020526040909120600201556001606655565b60026066541415612fba576040805162461bcd60e51b815260206004820152601f6024820152600080516020614036833981519152604482015290519081900360640190fd5b600260665560408051632142170760e11b81523360048201523060248201526044810183905290516001600160a01b038416916342842e0e91606480830192600092919082900301818387803b15801561301357600080fd5b505af1158015613027573d6000803e3d6000fd5b5050604080513381526001600160a01b0386166020820152808201859052600160608201526000608082015290517f4650251833fea404cc00aad3da10dade0b14fb7a08758404b4ff967b4b34281693509081900360a0019150a150506001606655565b600260665414156130d1576040805162461bcd60e51b815260206004820152601f6024820152600080516020614036833981519152604482015290519081900360640190fd5b600260665560006130e06132d3565b90506130eb8161195e565b61312a576040805162461bcd60e51b815260206004820181905260248201526000805160206140cb833981519152604482015290519081900360640190fd5b6040805163a9059cbb60e01b81523360048201526024810184905290516001600160a01b0385169163a9059cbb9160448083019260209291908290030181600087803b15801561317957600080fd5b505af115801561318d573d6000803e3d6000fd5b505050506040513d60208110156131a357600080fd5b50506001606655505050565b610163546001600160a01b031681565b63f23a6e6160e01b95945050505050565b6131d86132d3565b6001600160a01b03166131e9611ebd565b6001600160a01b031614613232576040805162461bcd60e51b815260206004820181905260248201526000805160206140cb833981519152604482015290519081900360640190fd5b6001600160a01b0381166132775760405162461bcd60e51b81526004018080602001828103825260268152602001806140566026913960400191505060405180910390fd5b6033546040516001600160a01b038084169216907f8be0079c531659141344cd1fd0a4f28419497f9722a3daafe3b4186f6b6457e090600090a3603380546001600160a01b0319166001600160a01b0392909216919091179055565b3390565b600080338460405160200180836001600160a01b031660601b8152601401828152602001925050506040516020818303038152906040528051906020012090506133398361016960008881526020019081526020016000206002015483613a30565b95945050505050565b600061334d30613ad9565b15905090565b600054610100900460ff168061336c575061336c613342565b8061337a575060005460ff16155b6133b55760405162461bcd60e51b815260040180806020018281038252602e81526020018061409d602e913960400191505060405180910390fd5b600054610100900460ff161580156133e0576000805460ff1961ff0019909116610100171660011790555b6133e8613adf565b80156133fa576000805461ff00191690555b50565b600054610100900460ff16806134165750613416613342565b80613424575060005460ff16155b61345f5760405162461bcd60e51b815260040180806020018281038252602e81526020018061409d602e913960400191505060405180910390fd5b600054610100900460ff1615801561348a576000805460ff1961ff0019909116610100171660011790555b6133e8613b7f565b600054610100900460ff16806134ab57506134ab613342565b806134b9575060005460ff16155b6134f45760405162461bcd60e51b815260040180806020018281038252602e81526020018061409d602e913960400191505060405180910390fd5b600054610100900460ff1615801561351f576000805460ff1961ff0019909116610100171660011790555b613527613b7f565b6133e0613c1c565b600054610100900460ff16806135485750613548613342565b80613556575060005460ff16155b6135915760405162461bcd60e51b815260040180806020018281038252602e81526020018061409d602e913960400191505060405180910390fd5b600054610100900460ff161580156135bc576000805460ff1961ff0019909116610100171660011790555b6133e8613cb9565b600054610100900460ff16806135dd57506135dd613342565b806135eb575060005460ff16155b6136265760405162461bcd60e51b815260040180806020018281038252602e81526020018061409d602e913960400191505060405180910390fd5b600054610100900460ff16158015613651576000805460ff1961ff0019909116610100171660011790555b613659613d5f565b60006136636132d3565b6001600160a01b03166000908152606560205260409020805460ff191660011790555080156133fa576000805461ff001916905550565b6001600160e01b031980821614156136f9576040805162461bcd60e51b815260206004820152601c60248201527f4552433136353a20696e76616c696420696e7465726661636520696400000000604482015290519081900360640190fd5b6001600160e01b0319166000908152609860205260409020805460ff19166001179055565b600054610100900460ff16806137375750613737613342565b80613745575060005460ff16155b6137805760405162461bcd60e51b815260040180806020018281038252602e81526020018061409d602e913960400191505060405180910390fd5b600054610100900460ff161580156137ab576000805460ff1961ff0019909116610100171660011790555b61016180546001600160a01b038086166001600160a01b03199283161790925561016080549285169290911691909117905580156137ef576000805461ff00191690555b505050565b6000828152610167602052604090205480156137ef576000908152610169602052604090206005015550565b61016054610161546040805160208082018790526000828401819052835180840385018152606080850195869052630200057560e51b9095526001600160a01b0395861660648501818152608486018a905260a48601968752825160c4870152825193989790971696634000aea09691958a959394919360e490910191908501908083838d5b838110156138be5781810151838201526020016138a6565b50505050905090810190601f1680156138eb5780820380516001836020036101000a031916815260200191505b50945050505050602060405180830381600087803b15801561390c57600080fd5b505af1158015613920573d6000803e3d6000fd5b505050506040513d602081101561393657600080fd5b50506000838152610162602052604081205461395790859083903090613dfc565b6000858152610162602052604090208054600101905590506114928482613e43565b600083815261016a602052604081206003015460ff1615156001146139db576040805162461bcd60e51b815260206004820152601360248201527211da5d995b881251081a5cc81a5b9d985b1a59606a1b604482015290519081900360640190fd5b60008360405160200180826001600160a01b031660601b81526014019150506040516020818303038152906040528051906020012090506133398361016a600088815260200190815260200160002060010154835b600081815b8551811015613ace576000868281518110613a4c57fe5b60200260200101519050808311613a935782816040516020018083815260200182815260200192505050604051602081830303815290604052805190602001209250613ac5565b808360405160200180838152602001828152602001925050506040516020818303038152906040528051906020012092505b50600101613a35565b509092149392505050565b3b151590565b600054610100900460ff1680613af85750613af8613342565b80613b06575060005460ff16155b613b415760405162461bcd60e51b815260040180806020018281038252602e81526020018061409d602e913960400191505060405180910390fd5b600054610100900460ff161580156133e8576000805460ff1961ff00199091166101001716600117905580156133fa576000805461ff001916905550565b600054610100900460ff1680613b985750613b98613342565b80613ba6575060005460ff16155b613be15760405162461bcd60e51b815260040180806020018281038252602e81526020018061409d602e913960400191505060405180910390fd5b600054610100900460ff16158015613c0c576000805460ff1961ff0019909116610100171660011790555b6133e86301ffc9a760e01b61369a565b600054610100900460ff1680613c355750613c35613342565b80613c43575060005460ff16155b613c7e5760405162461bcd60e51b815260040180806020018281038252602e81526020018061409d602e913960400191505060405180910390fd5b600054610100900460ff16158015613ca9576000805460ff1961ff0019909116610100171660011790555b6133e8630271189760e51b61369a565b600054610100900460ff1680613cd25750613cd2613342565b80613ce0575060005460ff16155b613d1b5760405162461bcd60e51b815260040180806020018281038252602e81526020018061409d602e913960400191505060405180910390fd5b600054610100900460ff16158015613d46576000805460ff1961ff0019909116610100171660011790555b600160665580156133fa576000805461ff001916905550565b600054610100900460ff1680613d785750613d78613342565b80613d86575060005460ff16155b613dc15760405162461bcd60e51b815260040180806020018281038252602e81526020018061409d602e913960400191505060405180910390fd5b600054610100900460ff16158015613dec576000805460ff1961ff0019909116610100171660011790555b613df4613adf565b6133e8613e6f565b60408051602080820196909652808201949094526001600160a01b039290921660608401526080808401919091528151808403909101815260a09092019052805191012090565b604080516020808201949094528082019290925280518083038201815260609092019052805191012090565b600054610100900460ff1680613e885750613e88613342565b80613e96575060005460ff16155b613ed15760405162461bcd60e51b815260040180806020018281038252602e81526020018061409d602e913960400191505060405180910390fd5b600054610100900460ff16158015613efc576000805460ff1961ff0019909116610100171660011790555b6000613f066132d3565b603380546001600160a01b0319166001600160a01b038316908117909155604051919250906000907f8be0079c531659141344cd1fd0a4f28419497f9722a3daafe3b4186f6b6457e0908290a35080156133fa576000805461ff001916905550565b828054828255906000526020600020908101928215613fa3579160200282015b82811115613fa3578251825591602001919060010190613f88565b50613faf929150614020565b5090565b828054600181600116156101000203166002900490600052602060002090601f016020900481019282601f10613ff457805160ff1916838001178555613fa3565b82800160010185558215613fa35791820182811115613fa3578251825591602001919060010190613f88565b5b80821115613faf576000815560010161402156fe5265656e7472616e637947756172643a207265656e7472616e742063616c6c004f776e61626c653a206e6577206f776e657220697320746865207a65726f206164647265737341727261792073697a65206973206e6f74207468652073616d65206c656e677468496e697469616c697a61626c653a20636f6e747261637420697320616c726561647920696e697469616c697a65644f776e61626c653a2063616c6c6572206973206e6f7420746865206f776e65725468652063616c6c6572206973206e6f7420656c696769626c6520746f20636c61696d2074686520676976656e20706f6170a2646970667358221220ffcd0efcad9f9f98ae25145c45586ccea743be2383184f4faf5ec8298e33b03f64736f6c634300060c0033",
  "devdoc": {
    "details": "A contract aims to help distribute NFTs for collectors to users who met the conditions",
    "kind": "dev",
    "methods": {
      "addAddress(address)": {
        "details": "adds a given address to the whitelist",
        "params": {
          "_address": "address to add"
        }
      },
      "attachClaim(uint256,bytes32)": {
        "params": {
          "_eventId": "ID for the event",
          "_merkleRoot": "the root of the proof to be uploaded"
        }
      },
      "attachWhitelist(uint256,bytes32)": {
        "params": {
          "_merkleRoot": "the root of the proof to be uploaded",
          "_projectId": "ID for the project"
        }
      },
      "attachWhitelistBatch(uint256[],bytes32[])": {
        "params": {
          "_merkleRoots": "array of the root of the proof to be uploaded",
          "_projectIds": "array of ID for the project"
        }
      },
      "checkClaim(uint256,uint256,bytes32[])": {
        "params": {
          "_eventId": "the event that the caller wants to claim the prize",
          "_poapId": "ID of the POAP NFT recorded on this contract",
          "_proof": "the proof generated off-chain"
        },
        "returns": {
          "output": "the result"
        }
      },
      "claim(uint256,uint256,bytes32[])": {
        "params": {
          "_eventId": "the event that the caller wants to claim the prize",
          "_poapId": "ID of the POAP NFT recorded on this contract",
          "_proof": "the proof generated off-chain"
        }
      },
      "createEvent(uint256,string,uint256[])": {
        "params": {
          "_eventId": "ID for the event",
          "_name": "name of the event",
          "_poaps": "NFT that will be distributed"
        }
      },
      "createPoap(uint256,address,uint256,bool)": {
        "params": {
          "_assetAddress": "the NFT asset address",
          "_is1155": "ERC-1155 flags",
          "_poapId": "ID for the POAP",
          "_tokenId": "the token ID on the NFT"
        }
      },
      "createProject(uint256,string)": {
        "params": {
          "_name": "name of the project",
          "_projectId": "ID for the project"
        }
      },
      "depositERC1155(address,uint256,uint256)": {
        "params": {
          "_amount": "the amount of NFT to be deposited",
          "_assetAddress": "the NFT asset address",
          "_tokenId": "the token ID on the NFT"
        }
      },
      "depositERC721(address,uint256)": {
        "params": {
          "_assetAddress": "the NFT asset address",
          "_tokenId": "the token ID on the NFT"
        }
      },
      "eligible(uint256,address,bytes32[])": {
        "params": {
          "_address": "the wallet address that want to check",
          "_projectId": "the project ID",
          "_proof": "the proof generated off-chain"
        },
        "returns": {
          "output": "the result"
        }
      },
      "finalizeEvent(uint256)": {
        "params": {
          "_eventId": "ID of the event"
        }
      },
      "isWhitelisted(address)": {
        "details": "returns true if a given address is whitelisted, false if not",
        "params": {
          "_address": "address to check"
        },
        "returns": {
          "_0": "true if the address is whitelisted, false if not"
        }
      },
      "onERC721Received(address,address,uint256,bytes)": {
        "details": "See {IERC721Receiver-onERC721Received}. Always returns `IERC721Receiver.onERC721Received.selector`."
      },
      "owner()": {
        "details": "Returns the address of the current owner."
      },
      "removeAddress(address)": {
        "details": "removes a given address from the whitelist",
        "params": {
          "_address": "address to remove"
        }
      },
      "renounceOwnership()": {
        "details": "Leaves the contract without owner. It will not be possible to call `onlyOwner` functions anymore. Can only be called by the current owner. NOTE: Renouncing ownership will leave the contract without an owner, thereby removing any functionality that is only available to the owner."
      },
      "supportsInterface(bytes4)": {
        "details": "See {IERC165-supportsInterface}. Time complexity O(1), guaranteed to always use less than 30 000 gas."
      },
      "transferOwnership(address)": {
        "details": "Transfers ownership of the contract to a new account (`newOwner`). Can only be called by the current owner."
      },
      "updatePoaps(uint256,uint256[])": {
        "params": {
          "_eventId": "ID of the event",
          "_poaps": "array of the POAP ID"
        }
      }
    },
    "title": "Luckbox v.2",
    "version": 1
  },
  "userdoc": {
    "kind": "user",
    "methods": {
      "attachClaim(uint256,bytes32)": {
        "notice": "upload the root of the proof identifies who will be able to claim the prizes"
      },
      "attachWhitelist(uint256,bytes32)": {
        "notice": "upload the root of the proof identifies who is holding the project's NFTs"
      },
      "attachWhitelistBatch(uint256[],bytes32[])": {
        "notice": "upload the root of the proof identifies who is holding the project's NFTs (in batch)"
      },
      "checkClaim(uint256,uint256,bytes32[])": {
        "notice": "check whether the caller can claim a POAP NFT or not"
      },
      "claim(uint256,uint256,bytes32[])": {
        "notice": "claim the NFT if the caller is eligible for"
      },
      "createEvent(uint256,string,uint256[])": {
        "notice": "create a campaign"
      },
      "createPoap(uint256,address,uint256,bool)": {
        "notice": "create a record for POAP NFT which will be used during a claim period for mapping POAP ID <-> ASSET ADDRESS"
      },
      "createProject(uint256,string)": {
        "notice": "create a project, once set it allows users to verify that they  having the project's NFTs in the wallet"
      },
      "depositERC1155(address,uint256,uint256)": {
        "notice": "deposit ERC-1155 NFT prior to the claim, ideally should be called by the event's owner"
      },
      "depositERC721(address,uint256)": {
        "notice": "deposit ERC-721 NFT prior to the claim, ideally should be called by the event's owner"
      },
      "eligible(uint256,address,bytes32[])": {
        "notice": "check whether the given address has held NFTs or not"
      },
      "emergencyWithdrawERC1155(address,address,uint256,uint256)": {
        "notice": "withdraw ERC-1155 NFTs locked in the contract"
      },
      "emergencyWithdrawERC721(address,address,uint256)": {
        "notice": "withdraw ERC-721 NFTs locked in the contract"
      },
      "finalizeEvent(uint256)": {
        "notice": "finalize event for get seed"
      },
      "setEndEvent(uint256,bool)": {
        "notice": "set end flag to event"
      },
      "updatePoaps(uint256,uint256[])": {
        "notice": "replace POAP NFTs to be distributed on the event"
      }
    },
    "version": 1
  },
  "storageLayout": {
    "storage": [
      {
        "astId": 650,
        "contract": "contracts/NFTLuckBoxUpgradeable.sol:LuckBoxUpgradeable",
        "label": "_initialized",
        "offset": 0,
        "slot": "0",
        "type": "t_bool"
      },
      {
        "astId": 653,
        "contract": "contracts/NFTLuckBoxUpgradeable.sol:LuckBoxUpgradeable",
        "label": "_initializing",
        "offset": 1,
        "slot": "0",
        "type": "t_bool"
      },
      {
        "astId": 1555,
        "contract": "contracts/NFTLuckBoxUpgradeable.sol:LuckBoxUpgradeable",
        "label": "__gap",
        "offset": 0,
        "slot": "1",
        "type": "t_array(t_uint256)50_storage"
      },
      {
        "astId": 10,
        "contract": "contracts/NFTLuckBoxUpgradeable.sol:LuckBoxUpgradeable",
        "label": "_owner",
        "offset": 0,
        "slot": "51",
        "type": "t_address"
      },
      {
        "astId": 129,
        "contract": "contracts/NFTLuckBoxUpgradeable.sol:LuckBoxUpgradeable",
        "label": "__gap",
        "offset": 0,
        "slot": "52",
        "type": "t_array(t_uint256)49_storage"
      },
      {
        "astId": 2867,
        "contract": "contracts/NFTLuckBoxUpgradeable.sol:LuckBoxUpgradeable",
        "label": "whitelist",
        "offset": 0,
        "slot": "101",
        "type": "t_mapping(t_address,t_bool)"
      },
      {
        "astId": 1570,
        "contract": "contracts/NFTLuckBoxUpgradeable.sol:LuckBoxUpgradeable",
        "label": "_status",
        "offset": 0,
        "slot": "102",
        "type": "t_uint256"
      },
      {
        "astId": 1613,
        "contract": "contracts/NFTLuckBoxUpgradeable.sol:LuckBoxUpgradeable",
        "label": "__gap",
        "offset": 0,
        "slot": "103",
        "type": "t_array(t_uint256)49_storage"
      },
      {
        "astId": 218,
        "contract": "contracts/NFTLuckBoxUpgradeable.sol:LuckBoxUpgradeable",
        "label": "_supportedInterfaces",
        "offset": 0,
        "slot": "152",
        "type": "t_mapping(t_bytes4,t_bool)"
      },
      {
        "astId": 275,
        "contract": "contracts/NFTLuckBoxUpgradeable.sol:LuckBoxUpgradeable",
        "label": "__gap",
        "offset": 0,
        "slot": "153",
        "type": "t_array(t_uint256)49_storage"
      },
      {
        "astId": 1132,
        "contract": "contracts/NFTLuckBoxUpgradeable.sol:LuckBoxUpgradeable",
        "label": "__gap",
        "offset": 0,
        "slot": "202",
        "type": "t_array(t_uint256)50_storage"
      },
      {
        "astId": 842,
        "contract": "contracts/NFTLuckBoxUpgradeable.sol:LuckBoxUpgradeable",
        "label": "__gap",
        "offset": 0,
        "slot": "252",
        "type": "t_array(t_uint256)50_storage"
      },
      {
        "astId": 787,
        "contract": "contracts/NFTLuckBoxUpgradeable.sol:LuckBoxUpgradeable",
        "label": "__gap",
        "offset": 0,
        "slot": "302",
        "type": "t_array(t_uint256)50_storage"
      },
      {
        "astId": 3036,
        "contract": "contracts/NFTLuckBoxUpgradeable.sol:LuckBoxUpgradeable",
        "label": "LINK",
        "offset": 0,
        "slot": "352",
        "type": "t_contract(LinkTokenInterface)2853"
      },
      {
        "astId": 3038,
        "contract": "contracts/NFTLuckBoxUpgradeable.sol:LuckBoxUpgradeable",
        "label": "vrfCoordinator",
        "offset": 0,
        "slot": "353",
        "type": "t_address"
      },
      {
        "astId": 3042,
        "contract": "contracts/NFTLuckBoxUpgradeable.sol:LuckBoxUpgradeable",
        "label": "nonces",
        "offset": 0,
        "slot": "354",
        "type": "t_mapping(t_bytes32,t_uint256)"
      },
      {
        "astId": 1691,
        "contract": "contracts/NFTLuckBoxUpgradeable.sol:LuckBoxUpgradeable",
        "label": "LINK_TOKEN",
        "offset": 0,
        "slot": "355",
        "type": "t_address"
      },
      {
        "astId": 1693,
        "contract": "contracts/NFTLuckBoxUpgradeable.sol:LuckBoxUpgradeable",
        "label": "KEY_HASH",
        "offset": 0,
        "slot": "356",
        "type": "t_bytes32"
      },
      {
        "astId": 1695,
        "contract": "contracts/NFTLuckBoxUpgradeable.sol:LuckBoxUpgradeable",
        "label": "FEE",
        "offset": 0,
        "slot": "357",
        "type": "t_uint256"
      },
      {
        "astId": 1699,
        "contract": "contracts/NFTLuckBoxUpgradeable.sol:LuckBoxUpgradeable",
        "label": "requestIdToAddress",
        "offset": 0,
        "slot": "358",
        "type": "t_mapping(t_bytes32,t_address)"
      },
      {
        "astId": 1703,
        "contract": "contracts/NFTLuckBoxUpgradeable.sol:LuckBoxUpgradeable",
        "label": "requestIdToEventId",
        "offset": 0,
        "slot": "359",
        "type": "t_mapping(t_bytes32,t_uint256)"
      },
      {
        "astId": 1707,
        "contract": "contracts/NFTLuckBoxUpgradeable.sol:LuckBoxUpgradeable",
        "label": "poaps",
        "offset": 0,
        "slot": "360",
        "type": "t_mapping(t_uint256,t_struct(Poap)1660_storage)"
      },
      {
        "astId": 1711,
        "contract": "contracts/NFTLuckBoxUpgradeable.sol:LuckBoxUpgradeable",
        "label": "events",
        "offset": 0,
        "slot": "361",
        "type": "t_mapping(t_uint256,t_struct(Event)1680_storage)"
      },
      {
        "astId": 1715,
        "contract": "contracts/NFTLuckBoxUpgradeable.sol:LuckBoxUpgradeable",
        "label": "projects",
        "offset": 0,
        "slot": "362",
        "type": "t_mapping(t_uint256,t_struct(Project)1689_storage)"
      }
    ],
    "types": {
      "t_address": {
        "encoding": "inplace",
        "label": "address",
        "numberOfBytes": "20"
      },
      "t_array(t_uint256)49_storage": {
        "base": "t_uint256",
        "encoding": "inplace",
        "label": "uint256[49]",
        "numberOfBytes": "1568"
      },
      "t_array(t_uint256)50_storage": {
        "base": "t_uint256",
        "encoding": "inplace",
        "label": "uint256[50]",
        "numberOfBytes": "1600"
      },
      "t_array(t_uint256)dyn_storage": {
        "base": "t_uint256",
        "encoding": "dynamic_array",
        "label": "uint256[]",
        "numberOfBytes": "32"
      },
      "t_bool": {
        "encoding": "inplace",
        "label": "bool",
        "numberOfBytes": "1"
      },
      "t_bytes32": {
        "encoding": "inplace",
        "label": "bytes32",
        "numberOfBytes": "32"
      },
      "t_bytes4": {
        "encoding": "inplace",
        "label": "bytes4",
        "numberOfBytes": "4"
      },
      "t_contract(LinkTokenInterface)2853": {
        "encoding": "inplace",
        "label": "contract LinkTokenInterface",
        "numberOfBytes": "20"
      },
      "t_mapping(t_address,t_bool)": {
        "encoding": "mapping",
        "key": "t_address",
        "label": "mapping(address => bool)",
        "numberOfBytes": "32",
        "value": "t_bool"
      },
      "t_mapping(t_bytes32,t_address)": {
        "encoding": "mapping",
        "key": "t_bytes32",
        "label": "mapping(bytes32 => address)",
        "numberOfBytes": "32",
        "value": "t_address"
      },
      "t_mapping(t_bytes32,t_uint256)": {
        "encoding": "mapping",
        "key": "t_bytes32",
        "label": "mapping(bytes32 => uint256)",
        "numberOfBytes": "32",
        "value": "t_uint256"
      },
      "t_mapping(t_bytes4,t_bool)": {
        "encoding": "mapping",
        "key": "t_bytes4",
        "label": "mapping(bytes4 => bool)",
        "numberOfBytes": "32",
        "value": "t_bool"
      },
      "t_mapping(t_uint256,t_struct(Event)1680_storage)": {
        "encoding": "mapping",
        "key": "t_uint256",
        "label": "mapping(uint256 => struct LuckBoxUpgradeable.Event)",
        "numberOfBytes": "32",
        "value": "t_struct(Event)1680_storage"
      },
      "t_mapping(t_uint256,t_struct(Poap)1660_storage)": {
        "encoding": "mapping",
        "key": "t_uint256",
        "label": "mapping(uint256 => struct LuckBoxUpgradeable.Poap)",
        "numberOfBytes": "32",
        "value": "t_struct(Poap)1660_storage"
      },
      "t_mapping(t_uint256,t_struct(Project)1689_storage)": {
        "encoding": "mapping",
        "key": "t_uint256",
        "label": "mapping(uint256 => struct LuckBoxUpgradeable.Project)",
        "numberOfBytes": "32",
        "value": "t_struct(Project)1689_storage"
      },
      "t_string_storage": {
        "encoding": "bytes",
        "label": "string",
        "numberOfBytes": "32"
      },
      "t_struct(Event)1680_storage": {
        "encoding": "inplace",
        "label": "struct LuckBoxUpgradeable.Event",
        "members": [
          {
            "astId": 1662,
            "contract": "contracts/NFTLuckBoxUpgradeable.sol:LuckBoxUpgradeable",
            "label": "name",
            "offset": 0,
            "slot": "0",
            "type": "t_string_storage"
          },
          {
            "astId": 1665,
            "contract": "contracts/NFTLuckBoxUpgradeable.sol:LuckBoxUpgradeable",
            "label": "poaps",
            "offset": 0,
            "slot": "1",
            "type": "t_array(t_uint256)dyn_storage"
          },
          {
            "astId": 1667,
            "contract": "contracts/NFTLuckBoxUpgradeable.sol:LuckBoxUpgradeable",
            "label": "merkleRoot",
            "offset": 0,
            "slot": "2",
            "type": "t_bytes32"
          },
          {
            "astId": 1671,
            "contract": "contracts/NFTLuckBoxUpgradeable.sol:LuckBoxUpgradeable",
            "label": "claimed",
            "offset": 0,
            "slot": "3",
            "type": "t_mapping(t_address,t_bool)"
          },
          {
            "astId": 1673,
            "contract": "contracts/NFTLuckBoxUpgradeable.sol:LuckBoxUpgradeable",
            "label": "claimCount",
            "offset": 0,
            "slot": "4",
            "type": "t_uint256"
          },
          {
            "astId": 1675,
            "contract": "contracts/NFTLuckBoxUpgradeable.sol:LuckBoxUpgradeable",
            "label": "seed",
            "offset": 0,
            "slot": "5",
            "type": "t_uint256"
          },
          {
            "astId": 1677,
            "contract": "contracts/NFTLuckBoxUpgradeable.sol:LuckBoxUpgradeable",
            "label": "ended",
            "offset": 0,
            "slot": "6",
            "type": "t_bool"
          },
          {
            "astId": 1679,
            "contract": "contracts/NFTLuckBoxUpgradeable.sol:LuckBoxUpgradeable",
            "label": "active",
            "offset": 1,
            "slot": "6",
            "type": "t_bool"
          }
        ],
        "numberOfBytes": "224"
      },
      "t_struct(Poap)1660_storage": {
        "encoding": "inplace",
        "label": "struct LuckBoxUpgradeable.Poap",
        "members": [
          {
            "astId": 1655,
            "contract": "contracts/NFTLuckBoxUpgradeable.sol:LuckBoxUpgradeable",
            "label": "assetAddress",
            "offset": 0,
            "slot": "0",
            "type": "t_address"
          },
          {
            "astId": 1657,
            "contract": "contracts/NFTLuckBoxUpgradeable.sol:LuckBoxUpgradeable",
            "label": "tokenId",
            "offset": 0,
            "slot": "1",
            "type": "t_uint256"
          },
          {
            "astId": 1659,
            "contract": "contracts/NFTLuckBoxUpgradeable.sol:LuckBoxUpgradeable",
            "label": "is1155",
            "offset": 0,
            "slot": "2",
            "type": "t_bool"
          }
        ],
        "numberOfBytes": "96"
      },
      "t_struct(Project)1689_storage": {
        "encoding": "inplace",
        "label": "struct LuckBoxUpgradeable.Project",
        "members": [
          {
            "astId": 1682,
            "contract": "contracts/NFTLuckBoxUpgradeable.sol:LuckBoxUpgradeable",
            "label": "name",
            "offset": 0,
            "slot": "0",
            "type": "t_string_storage"
          },
          {
            "astId": 1684,
            "contract": "contracts/NFTLuckBoxUpgradeable.sol:LuckBoxUpgradeable",
            "label": "merkleRoot",
            "offset": 0,
            "slot": "1",
            "type": "t_bytes32"
          },
          {
            "astId": 1686,
            "contract": "contracts/NFTLuckBoxUpgradeable.sol:LuckBoxUpgradeable",
            "label": "timestamp",
            "offset": 0,
            "slot": "2",
            "type": "t_uint256"
          },
          {
            "astId": 1688,
            "contract": "contracts/NFTLuckBoxUpgradeable.sol:LuckBoxUpgradeable",
            "label": "active",
            "offset": 0,
            "slot": "3",
            "type": "t_bool"
          }
        ],
        "numberOfBytes": "128"
      },
      "t_uint256": {
        "encoding": "inplace",
        "label": "uint256",
        "numberOfBytes": "32"
      }
    }
  }
}