{
  "address": "0x70309380BecA42BbEE85b1dfA255C05C607FFe71",
  "abi": [
    {
      "inputs": [
        {
          "internalType": "string",
          "name": "uri",
          "type": "string"
        }
      ],
      "stateMutability": "nonpayable",
      "type": "constructor"
    },
    {
      "anonymous": false,
      "inputs": [
        {
          "indexed": true,
          "internalType": "address",
          "name": "account",
          "type": "address"
        },
        {
          "indexed": true,
          "internalType": "address",
          "name": "operator",
          "type": "address"
        },
        {
          "indexed": false,
          "internalType": "bool",
          "name": "approved",
          "type": "bool"
        }
      ],
      "name": "ApprovalForAll",
      "type": "event"
    },
    {
      "anonymous": false,
      "inputs": [
        {
          "indexed": true,
          "internalType": "address",
          "name": "operator",
          "type": "address"
        },
        {
          "indexed": true,
          "internalType": "address",
          "name": "from",
          "type": "address"
        },
        {
          "indexed": true,
          "internalType": "address",
          "name": "to",
          "type": "address"
        },
        {
          "indexed": false,
          "internalType": "uint256[]",
          "name": "ids",
          "type": "uint256[]"
        },
        {
          "indexed": false,
          "internalType": "uint256[]",
          "name": "values",
          "type": "uint256[]"
        }
      ],
      "name": "TransferBatch",
      "type": "event"
    },
    {
      "anonymous": false,
      "inputs": [
        {
          "indexed": true,
          "internalType": "address",
          "name": "operator",
          "type": "address"
        },
        {
          "indexed": true,
          "internalType": "address",
          "name": "from",
          "type": "address"
        },
        {
          "indexed": true,
          "internalType": "address",
          "name": "to",
          "type": "address"
        },
        {
          "indexed": false,
          "internalType": "uint256",
          "name": "id",
          "type": "uint256"
        },
        {
          "indexed": false,
          "internalType": "uint256",
          "name": "value",
          "type": "uint256"
        }
      ],
      "name": "TransferSingle",
      "type": "event"
    },
    {
      "anonymous": false,
      "inputs": [
        {
          "indexed": false,
          "internalType": "string",
          "name": "value",
          "type": "string"
        },
        {
          "indexed": true,
          "internalType": "uint256",
          "name": "id",
          "type": "uint256"
        }
      ],
      "name": "URI",
      "type": "event"
    },
    {
      "inputs": [
        {
          "internalType": "address",
          "name": "account",
          "type": "address"
        },
        {
          "internalType": "uint256",
          "name": "id",
          "type": "uint256"
        }
      ],
      "name": "balanceOf",
      "outputs": [
        {
          "internalType": "uint256",
          "name": "",
          "type": "uint256"
        }
      ],
      "stateMutability": "view",
      "type": "function"
    },
    {
      "inputs": [
        {
          "internalType": "address[]",
          "name": "accounts",
          "type": "address[]"
        },
        {
          "internalType": "uint256[]",
          "name": "ids",
          "type": "uint256[]"
        }
      ],
      "name": "balanceOfBatch",
      "outputs": [
        {
          "internalType": "uint256[]",
          "name": "",
          "type": "uint256[]"
        }
      ],
      "stateMutability": "view",
      "type": "function"
    },
    {
      "inputs": [
        {
          "internalType": "address",
          "name": "owner",
          "type": "address"
        },
        {
          "internalType": "uint256",
          "name": "id",
          "type": "uint256"
        },
        {
          "internalType": "uint256",
          "name": "value",
          "type": "uint256"
        }
      ],
      "name": "burn",
      "outputs": [],
      "stateMutability": "nonpayable",
      "type": "function"
    },
    {
      "inputs": [
        {
          "internalType": "address",
          "name": "owner",
          "type": "address"
        },
        {
          "internalType": "uint256[]",
          "name": "ids",
          "type": "uint256[]"
        },
        {
          "internalType": "uint256[]",
          "name": "values",
          "type": "uint256[]"
        }
      ],
      "name": "burnBatch",
      "outputs": [],
      "stateMutability": "nonpayable",
      "type": "function"
    },
    {
      "inputs": [
        {
          "internalType": "address",
          "name": "account",
          "type": "address"
        },
        {
          "internalType": "address",
          "name": "operator",
          "type": "address"
        }
      ],
      "name": "isApprovedForAll",
      "outputs": [
        {
          "internalType": "bool",
          "name": "",
          "type": "bool"
        }
      ],
      "stateMutability": "view",
      "type": "function"
    },
    {
      "inputs": [
        {
          "internalType": "address",
          "name": "to",
          "type": "address"
        },
        {
          "internalType": "uint256",
          "name": "id",
          "type": "uint256"
        },
        {
          "internalType": "uint256",
          "name": "value",
          "type": "uint256"
        },
        {
          "internalType": "bytes",
          "name": "data",
          "type": "bytes"
        }
      ],
      "name": "mint",
      "outputs": [],
      "stateMutability": "nonpayable",
      "type": "function"
    },
    {
      "inputs": [
        {
          "internalType": "address",
          "name": "to",
          "type": "address"
        },
        {
          "internalType": "uint256[]",
          "name": "ids",
          "type": "uint256[]"
        },
        {
          "internalType": "uint256[]",
          "name": "values",
          "type": "uint256[]"
        },
        {
          "internalType": "bytes",
          "name": "data",
          "type": "bytes"
        }
      ],
      "name": "mintBatch",
      "outputs": [],
      "stateMutability": "nonpayable",
      "type": "function"
    },
    {
      "inputs": [
        {
          "internalType": "address",
          "name": "from",
          "type": "address"
        },
        {
          "internalType": "address",
          "name": "to",
          "type": "address"
        },
        {
          "internalType": "uint256[]",
          "name": "ids",
          "type": "uint256[]"
        },
        {
          "internalType": "uint256[]",
          "name": "amounts",
          "type": "uint256[]"
        },
        {
          "internalType": "bytes",
          "name": "data",
          "type": "bytes"
        }
      ],
      "name": "safeBatchTransferFrom",
      "outputs": [],
      "stateMutability": "nonpayable",
      "type": "function"
    },
    {
      "inputs": [
        {
          "internalType": "address",
          "name": "from",
          "type": "address"
        },
        {
          "internalType": "address",
          "name": "to",
          "type": "address"
        },
        {
          "internalType": "uint256",
          "name": "id",
          "type": "uint256"
        },
        {
          "internalType": "uint256",
          "name": "amount",
          "type": "uint256"
        },
        {
          "internalType": "bytes",
          "name": "data",
          "type": "bytes"
        }
      ],
      "name": "safeTransferFrom",
      "outputs": [],
      "stateMutability": "nonpayable",
      "type": "function"
    },
    {
      "inputs": [
        {
          "internalType": "address",
          "name": "operator",
          "type": "address"
        },
        {
          "internalType": "bool",
          "name": "approved",
          "type": "bool"
        }
      ],
      "name": "setApprovalForAll",
      "outputs": [],
      "stateMutability": "nonpayable",
      "type": "function"
    },
    {
      "inputs": [
        {
          "internalType": "string",
          "name": "newuri",
          "type": "string"
        }
      ],
      "name": "setURI",
      "outputs": [],
      "stateMutability": "nonpayable",
      "type": "function"
    },
    {
      "inputs": [
        {
          "internalType": "bytes4",
          "name": "interfaceId",
          "type": "bytes4"
        }
      ],
      "name": "supportsInterface",
      "outputs": [
        {
          "internalType": "bool",
          "name": "",
          "type": "bool"
        }
      ],
      "stateMutability": "view",
      "type": "function"
    },
    {
      "inputs": [
        {
          "internalType": "uint256",
          "name": "",
          "type": "uint256"
        }
      ],
      "name": "uri",
      "outputs": [
        {
          "internalType": "string",
          "name": "",
          "type": "string"
        }
      ],
      "stateMutability": "view",
      "type": "function"
    }
  ],
  "transactionHash": "0x66bd8791ab8ec0dac7f931fd4a0c4c5ebd8f67874ee981bf884c0677a005d35e",
  "args": [
    "ipfs://QmeSjSinHpPnmXmspMjwiXyN6zS4E9zccariGR3jxcaWtq/"
  ],
  "solcInputHash": "4e876c80279ea7188059a6ffb37600b2",
  "bytecode": "0x60806040523480156200001157600080fd5b506040516200254638038062002546833981810160405260208110156200003757600080fd5b81019080805160405193929190846401000000008211156200005857600080fd5b9083019060208201858111156200006e57600080fd5b82516401000000008111828201881017156200008957600080fd5b82525081516020918201929091019080838360005b83811015620000b85781810151838201526020016200009e565b50505050905090810190601f168015620000e65780820380516001836020036101000a031916815260200191505b50604052508291506200010290506301ffc9a760e01b62000139565b6200010d81620001be565b6200011f636cdb3d1360e11b62000139565b620001316303a24d0760e21b62000139565b505062000273565b6001600160e01b0319808216141562000199576040805162461bcd60e51b815260206004820152601c60248201527f4552433136353a20696e76616c696420696e7465726661636520696400000000604482015290519081900360640190fd5b6001600160e01b0319166000908152602081905260409020805460ff19166001179055565b8051620001d3906003906020840190620001d7565b5050565b828054600181600116156101000203166002900490600052602060002090601f016020900481019282601f106200021a57805160ff19168380011785556200024a565b828001600101855582156200024a579182015b828111156200024a5782518255916020019190600101906200022d565b50620002589291506200025c565b5090565b5b808211156200025857600081556001016200025d565b6122c380620002836000396000f3fe608060405234801561001057600080fd5b50600436106100ce5760003560e01c80634e1273f41161008c578063a22cb46511610066578063a22cb46514610963578063e985e9c514610991578063f242432a146109bf578063f5298aca14610a88576100ce565b80634e1273f4146105fd5780636b20c45414610770578063731133e9146108a3576100ce565b8062fdd58e146100d357806301ffc9a71461011157806302fe53051461014c5780630e89341c146101f25780631f7fdffa146102845780632eb2c2d61461043c575b600080fd5b6100ff600480360360408110156100e957600080fd5b506001600160a01b038135169060200135610aba565b60408051918252519081900360200190f35b6101386004803603602081101561012757600080fd5b50356001600160e01b031916610b29565b604080519115158252519081900360200190f35b6101f06004803603602081101561016257600080fd5b810190602081018135600160201b81111561017c57600080fd5b82018360208201111561018e57600080fd5b803590602001918460018302840111600160201b831117156101af57600080fd5b91908080601f016020809104026020016040519081016040528093929190818152602001838380828437600092019190915250929550610b48945050505050565b005b61020f6004803603602081101561020857600080fd5b5035610b54565b6040805160208082528351818301528351919283929083019185019080838360005b83811015610249578181015183820152602001610231565b50505050905090810190601f1680156102765780820380516001836020036101000a031916815260200191505b509250505060405180910390f35b6101f06004803603608081101561029a57600080fd5b6001600160a01b038235169190810190604081016020820135600160201b8111156102c457600080fd5b8201836020820111156102d657600080fd5b803590602001918460208302840111600160201b831117156102f757600080fd5b9190808060200260200160405190810160405280939291908181526020018383602002808284376000920191909152509295949360208101935035915050600160201b81111561034657600080fd5b82018360208201111561035857600080fd5b803590602001918460208302840111600160201b8311171561037957600080fd5b9190808060200260200160405190810160405280939291908181526020018383602002808284376000920191909152509295949360208101935035915050600160201b8111156103c857600080fd5b8201836020820111156103da57600080fd5b803590602001918460018302840111600160201b831117156103fb57600080fd5b91908080601f016020809104026020016040519081016040528093929190818152602001838380828437600092019190915250929550610bec945050505050565b6101f0600480360360a081101561045257600080fd5b6001600160a01b038235811692602081013590911691810190606081016040820135600160201b81111561048557600080fd5b82018360208201111561049757600080fd5b803590602001918460208302840111600160201b831117156104b857600080fd5b9190808060200260200160405190810160405280939291908181526020018383602002808284376000920191909152509295949360208101935035915050600160201b81111561050757600080fd5b82018360208201111561051957600080fd5b803590602001918460208302840111600160201b8311171561053a57600080fd5b9190808060200260200160405190810160405280939291908181526020018383602002808284376000920191909152509295949360208101935035915050600160201b81111561058957600080fd5b82018360208201111561059b57600080fd5b803590602001918460018302840111600160201b831117156105bc57600080fd5b91908080601f016020809104026020016040519081016040528093929190818152602001838380828437600092019190915250929550610bfe945050505050565b6107206004803603604081101561061357600080fd5b810190602081018135600160201b81111561062d57600080fd5b82018360208201111561063f57600080fd5b803590602001918460208302840111600160201b8311171561066057600080fd5b9190808060200260200160405190810160405280939291908181526020018383602002808284376000920191909152509295949360208101935035915050600160201b8111156106af57600080fd5b8201836020820111156106c157600080fd5b803590602001918460208302840111600160201b831117156106e257600080fd5b919080806020026020016040519081016040528093929190818152602001838360200280828437600092019190915250929550610efc945050505050565b60408051602080825283518183015283519192839290830191858101910280838360005b8381101561075c578181015183820152602001610744565b505050509050019250505060405180910390f35b6101f06004803603606081101561078657600080fd5b6001600160a01b038235169190810190604081016020820135600160201b8111156107b057600080fd5b8201836020820111156107c257600080fd5b803590602001918460208302840111600160201b831117156107e357600080fd5b9190808060200260200160405190810160405280939291908181526020018383602002808284376000920191909152509295949360208101935035915050600160201b81111561083257600080fd5b82018360208201111561084457600080fd5b803590602001918460208302840111600160201b8311171561086557600080fd5b919080806020026020016040519081016040528093929190818152602001838360200280828437600092019190915250929550610fe8945050505050565b6101f0600480360360808110156108b957600080fd5b6001600160a01b038235169160208101359160408201359190810190608081016060820135600160201b8111156108ef57600080fd5b82018360208201111561090157600080fd5b803590602001918460018302840111600160201b8311171561092257600080fd5b91908080601f016020809104026020016040519081016040528093929190818152602001838380828437600092019190915250929550610ff8945050505050565b6101f06004803603604081101561097957600080fd5b506001600160a01b0381351690602001351515611004565b610138600480360360408110156109a757600080fd5b506001600160a01b03813581169160200135166110f3565b6101f0600480360360a08110156109d557600080fd5b6001600160a01b03823581169260208101359091169160408201359160608101359181019060a081016080820135600160201b811115610a1457600080fd5b820183602082011115610a2657600080fd5b803590602001918460018302840111600160201b83111715610a4757600080fd5b91908080601f016020809104026020016040519081016040528093929190818152602001838380828437600092019190915250929550611121945050505050565b6101f060048036036060811015610a9e57600080fd5b506001600160a01b0381351690602081013590604001356112ec565b60006001600160a01b038316610b015760405162461bcd60e51b815260040180806020018281038252602b8152602001806120d7602b913960400191505060405180910390fd5b5060009081526001602090815260408083206001600160a01b03949094168352929052205490565b6001600160e01b03191660009081526020819052604090205460ff1690565b610b51816112f7565b50565b60038054604080516020601f6002600019610100600188161502019095169490940493840181900481028201810190925282815260609390929091830182828015610be05780601f10610bb557610100808354040283529160200191610be0565b820191906000526020600020905b815481529060010190602001808311610bc357829003601f168201915b50505050509050919050565b610bf88484848461130e565b50505050565b8151835114610c3e5760405162461bcd60e51b81526004018080602001828103825260288152602001806122456028913960400191505060405180910390fd5b6001600160a01b038416610c835760405162461bcd60e51b815260040180806020018281038252602581526020018061214f6025913960400191505060405180910390fd5b610c8b611563565b6001600160a01b0316856001600160a01b03161480610cb65750610cb685610cb1611563565b6110f3565b610cf15760405162461bcd60e51b81526004018080602001828103825260328152602001806121746032913960400191505060405180910390fd5b6000610cfb611563565b9050610d0b818787878787610ef4565b60005b8451811015610e0c576000858281518110610d2557fe5b602002602001015190506000858381518110610d3d57fe5b60200260200101519050610daa816040518060600160405280602a81526020016121c9602a91396001600086815260200190815260200160002060008d6001600160a01b03166001600160a01b03168152602001908152602001600020546115689092919063ffffffff16565b60008381526001602090815260408083206001600160a01b038e811685529252808320939093558a1681522054610de190826115ff565b60009283526001602081815260408086206001600160a01b038d168752909152909320555001610d0e565b50846001600160a01b0316866001600160a01b0316826001600160a01b03167f4a39dc06d4c0dbc64b70af90fd698a233a518aa5d07e595d983b8c0526c8f7fb8787604051808060200180602001838103835285818151815260200191508051906020019060200280838360005b83811015610e92578181015183820152602001610e7a565b50505050905001838103825284818151815260200191508051906020019060200280838360005b83811015610ed1578181015183820152602001610eb9565b5050505090500194505050505060405180910390a4610ef4818787878787611660565b505050505050565b60608151835114610f3e5760405162461bcd60e51b815260040180806020018281038252602981526020018061221c6029913960400191505060405180910390fd5b6060835167ffffffffffffffff81118015610f5857600080fd5b50604051908082528060200260200182016040528015610f82578160200160208202803683370190505b50905060005b8451811015610fe057610fc1858281518110610fa057fe5b6020026020010151858381518110610fb457fe5b6020026020010151610aba565b828281518110610fcd57fe5b6020908102919091010152600101610f88565b509392505050565b610ff38383836118df565b505050565b610bf884848484611b4d565b816001600160a01b0316611016611563565b6001600160a01b0316141561105c5760405162461bcd60e51b81526004018080602001828103825260298152602001806121f36029913960400191505060405180910390fd5b8060026000611069611563565b6001600160a01b03908116825260208083019390935260409182016000908120918716808252919093529120805460ff1916921515929092179091556110ad611563565b6001600160a01b03167f17307eab39ab6107e8899845ad3d59bd9653f200f220920489ca2b5937696c318360405180821515815260200191505060405180910390a35050565b6001600160a01b03918216600090815260026020908152604080832093909416825291909152205460ff1690565b6001600160a01b0384166111665760405162461bcd60e51b815260040180806020018281038252602581526020018061214f6025913960400191505060405180910390fd5b61116e611563565b6001600160a01b0316856001600160a01b03161480611194575061119485610cb1611563565b6111cf5760405162461bcd60e51b81526004018080602001828103825260298152602001806121266029913960400191505060405180910390fd5b60006111d9611563565b90506111f98187876111ea88611c4e565b6111f388611c4e565b87610ef4565b611240836040518060600160405280602a81526020016121c9602a913960008781526001602090815260408083206001600160a01b038d1684529091529020549190611568565b60008581526001602090815260408083206001600160a01b038b8116855292528083209390935587168152205461127790846115ff565b60008581526001602090815260408083206001600160a01b03808b168086529184529382902094909455805188815291820187905280518a8416938616927fc3d58168c5ae7397731d063d5bbf3d657854427343f4c083240f7aacaa2d0f6292908290030190a4610ef4818787878787611c92565b610ff3838383611e03565b805161130a906003906020840190611f3c565b5050565b6001600160a01b0384166113535760405162461bcd60e51b815260040180806020018281038252602181526020018061226d6021913960400191505060405180910390fd5b81518351146113935760405162461bcd60e51b81526004018080602001828103825260288152602001806122456028913960400191505060405180910390fd5b600061139d611563565b90506113ae81600087878787610ef4565b60005b845181101561147257611429600160008784815181106113cd57fe5b602002602001015181526020019081526020016000206000886001600160a01b03166001600160a01b031681526020019081526020016000205485838151811061141357fe5b60200260200101516115ff90919063ffffffff16565b6001600087848151811061143957fe5b602090810291909101810151825281810192909252604090810160009081206001600160a01b038b1682529092529020556001016113b1565b50846001600160a01b031660006001600160a01b0316826001600160a01b03167f4a39dc06d4c0dbc64b70af90fd698a233a518aa5d07e595d983b8c0526c8f7fb8787604051808060200180602001838103835285818151815260200191508051906020019060200280838360005b838110156114f95781810151838201526020016114e1565b50505050905001838103825284818151815260200191508051906020019060200280838360005b83811015611538578181015183820152602001611520565b5050505090500194505050505060405180910390a461155c81600087878787611660565b5050505050565b335b90565b600081848411156115f75760405162461bcd60e51b81526004018080602001828103825283818151815260200191508051906020019080838360005b838110156115bc5781810151838201526020016115a4565b50505050905090810190601f1680156115e95780820380516001836020036101000a031916815260200191505b509250505060405180910390fd5b505050900390565b600082820183811015611659576040805162461bcd60e51b815260206004820152601b60248201527f536166654d6174683a206164646974696f6e206f766572666c6f770000000000604482015290519081900360640190fd5b9392505050565b611672846001600160a01b0316611f36565b15610ef457836001600160a01b031663bc197c8187878686866040518663ffffffff1660e01b815260040180866001600160a01b03168152602001856001600160a01b03168152602001806020018060200180602001848103845287818151815260200191508051906020019060200280838360005b838110156117005781810151838201526020016116e8565b50505050905001848103835286818151815260200191508051906020019060200280838360005b8381101561173f578181015183820152602001611727565b50505050905001848103825285818151815260200191508051906020019080838360005b8381101561177b578181015183820152602001611763565b50505050905090810190601f1680156117a85780820380516001836020036101000a031916815260200191505b5098505050505050505050602060405180830381600087803b1580156117cd57600080fd5b505af19250505080156117f257506040513d60208110156117ed57600080fd5b505160015b611887576117fe611fd5565b806118095750611850565b60405162461bcd60e51b81526020600482018181528351602484015283518493919283926044019190850190808383600083156115bc5781810151838201526020016115a4565b60405162461bcd60e51b815260040180806020018281038252603481526020018061207b6034913960400191505060405180910390fd5b6001600160e01b0319811663bc197c8160e01b146118d65760405162461bcd60e51b81526004018080602001828103825260288152602001806120af6028913960400191505060405180910390fd5b50505050505050565b6001600160a01b0383166119245760405162461bcd60e51b81526004018080602001828103825260238152602001806121a66023913960400191505060405180910390fd5b80518251146119645760405162461bcd60e51b81526004018080602001828103825260288152602001806122456028913960400191505060405180910390fd5b600061196e611563565b905061198e81856000868660405180602001604052806000815250610ef4565b60005b8351811015611a6c57611a238382815181106119a957fe5b602002602001015160405180606001604052806024815260200161210260249139600160008886815181106119da57fe5b602002602001015181526020019081526020016000206000896001600160a01b03166001600160a01b03168152602001908152602001600020546115689092919063ffffffff16565b60016000868481518110611a3357fe5b602090810291909101810151825281810192909252604090810160009081206001600160a01b038a168252909252902055600101611991565b5060006001600160a01b0316846001600160a01b0316826001600160a01b03167f4a39dc06d4c0dbc64b70af90fd698a233a518aa5d07e595d983b8c0526c8f7fb8686604051808060200180602001838103835285818151815260200191508051906020019060200280838360005b83811015611af3578181015183820152602001611adb565b50505050905001838103825284818151815260200191508051906020019060200280838360005b83811015611b32578181015183820152602001611b1a565b5050505090500194505050505060405180910390a450505050565b6001600160a01b038416611b925760405162461bcd60e51b815260040180806020018281038252602181526020018061226d6021913960400191505060405180910390fd5b6000611b9c611563565b9050611bae816000876111ea88611c4e565b60008481526001602090815260408083206001600160a01b0389168452909152902054611bdb90846115ff565b60008581526001602090815260408083206001600160a01b03808b16808652918452828520959095558151898152928301889052815190948616927fc3d58168c5ae7397731d063d5bbf3d657854427343f4c083240f7aacaa2d0f6292908290030190a461155c81600087878787611c92565b604080516001808252818301909252606091829190602080830190803683370190505090508281600081518110611c8157fe5b602090810291909101015292915050565b611ca4846001600160a01b0316611f36565b15610ef457836001600160a01b031663f23a6e6187878686866040518663ffffffff1660e01b815260040180866001600160a01b03168152602001856001600160a01b0316815260200184815260200183815260200180602001828103825283818151815260200191508051906020019080838360005b83811015611d33578181015183820152602001611d1b565b50505050905090810190601f168015611d605780820380516001836020036101000a031916815260200191505b509650505050505050602060405180830381600087803b158015611d8357600080fd5b505af1925050508015611da857506040513d6020811015611da357600080fd5b505160015b611db4576117fe611fd5565b6001600160e01b0319811663f23a6e6160e01b146118d65760405162461bcd60e51b81526004018080602001828103825260288152602001806120af6028913960400191505060405180910390fd5b6001600160a01b038316611e485760405162461bcd60e51b81526004018080602001828103825260238152602001806121a66023913960400191505060405180910390fd5b6000611e52611563565b9050611e8281856000611e6487611c4e565b611e6d87611c4e565b60405180602001604052806000815250610ef4565b611ec9826040518060600160405280602481526020016121026024913960008681526001602090815260408083206001600160a01b038b1684529091529020549190611568565b60008481526001602090815260408083206001600160a01b03808a16808652918452828520959095558151888152928301879052815193949093908616927fc3d58168c5ae7397731d063d5bbf3d657854427343f4c083240f7aacaa2d0f6292908290030190a450505050565b3b151590565b828054600181600116156101000203166002900490600052602060002090601f016020900481019282601f10611f7d57805160ff1916838001178555611faa565b82800160010185558215611faa579182015b82811115611faa578251825591602001919060010190611f8f565b50611fb6929150611fba565b5090565b5b80821115611fb65760008155600101611fbb565b60e01c90565b600060443d1015611fe557611565565b600481823e6308c379a0611ff98251611fcf565b1461200357611565565b6040513d600319016004823e80513d67ffffffffffffffff81602484011181841117156120335750505050611565565b8284019250825191508082111561204d5750505050611565565b503d8301602082840101111561206557505050611565565b601f01601f191681016020016040529150509056fe455243313135353a207472616e7366657220746f206e6f6e2045524331313535526563656976657220696d706c656d656e746572455243313135353a204552433131353552656365697665722072656a656374656420746f6b656e73455243313135353a2062616c616e636520717565727920666f7220746865207a65726f2061646472657373455243313135353a206275726e20616d6f756e7420657863656564732062616c616e6365455243313135353a2063616c6c6572206973206e6f74206f776e6572206e6f7220617070726f766564455243313135353a207472616e7366657220746f20746865207a65726f2061646472657373455243313135353a207472616e736665722063616c6c6572206973206e6f74206f776e6572206e6f7220617070726f766564455243313135353a206275726e2066726f6d20746865207a65726f2061646472657373455243313135353a20696e73756666696369656e742062616c616e636520666f72207472616e73666572455243313135353a2073657474696e6720617070726f76616c2073746174757320666f722073656c66455243313135353a206163636f756e747320616e6420696473206c656e677468206d69736d61746368455243313135353a2069647320616e6420616d6f756e7473206c656e677468206d69736d61746368455243313135353a206d696e7420746f20746865207a65726f2061646472657373a2646970667358221220e3972ea64d1f2e9a86f326e69ae0658bf477278e259c1fc258f4fad334af379e64736f6c634300060c0033",
  "devdoc": {
    "kind": "dev",
    "methods": {
      "balanceOf(address,uint256)": {
        "details": "See {IERC1155-balanceOf}. Requirements: - `account` cannot be the zero address."
      },
      "balanceOfBatch(address[],uint256[])": {
        "details": "See {IERC1155-balanceOfBatch}. Requirements: - `accounts` and `ids` must have the same length."
      },
      "isApprovedForAll(address,address)": {
        "details": "See {IERC1155-isApprovedForAll}."
      },
      "safeBatchTransferFrom(address,address,uint256[],uint256[],bytes)": {
        "details": "See {IERC1155-safeBatchTransferFrom}."
      },
      "safeTransferFrom(address,address,uint256,uint256,bytes)": {
        "details": "See {IERC1155-safeTransferFrom}."
      },
      "setApprovalForAll(address,bool)": {
        "details": "See {IERC1155-setApprovalForAll}."
      },
      "supportsInterface(bytes4)": {
        "details": "See {IERC165-supportsInterface}. Time complexity O(1), guaranteed to always use less than 30 000 gas."
      },
      "uri(uint256)": {
        "details": "See {IERC1155MetadataURI-uri}. This implementation returns the same URI for *all* token types. It relies on the token type ID substitution mechanism https://eips.ethereum.org/EIPS/eip-1155#metadata[defined in the EIP]. Clients calling this function must replace the `\\{id\\}` substring with the actual token type ID."
      }
    },
    "version": 1
  },
  "userdoc": {
    "kind": "user",
    "methods": {},
    "version": 1
  },
  "storageLayout": {
    "storage": [
      {
        "astId": 2590,
        "contract": "contracts/mocks/MockERC1155.sol:MockERC1155",
        "label": "_supportedInterfaces",
        "offset": 0,
        "slot": "0",
        "type": "t_mapping(t_bytes4,t_bool)"
      },
      {
        "astId": 3030,
        "contract": "contracts/mocks/MockERC1155.sol:MockERC1155",
        "label": "_balances",
        "offset": 0,
        "slot": "1",
        "type": "t_mapping(t_uint256,t_mapping(t_address,t_uint256))"
      },
      {
        "astId": 3036,
        "contract": "contracts/mocks/MockERC1155.sol:MockERC1155",
        "label": "_operatorApprovals",
        "offset": 0,
        "slot": "2",
        "type": "t_mapping(t_address,t_mapping(t_address,t_bool))"
      },
      {
        "astId": 3038,
        "contract": "contracts/mocks/MockERC1155.sol:MockERC1155",
        "label": "_uri",
        "offset": 0,
        "slot": "3",
        "type": "t_string_storage"
      }
    ],
    "types": {
      "t_address": {
        "encoding": "inplace",
        "label": "address",
        "numberOfBytes": "20"
      },
      "t_bool": {
        "encoding": "inplace",
        "label": "bool",
        "numberOfBytes": "1"
      },
      "t_bytes4": {
        "encoding": "inplace",
        "label": "bytes4",
        "numberOfBytes": "4"
      },
      "t_mapping(t_address,t_bool)": {
        "encoding": "mapping",
        "key": "t_address",
        "label": "mapping(address => bool)",
        "numberOfBytes": "32",
        "value": "t_bool"
      },
      "t_mapping(t_address,t_mapping(t_address,t_bool))": {
        "encoding": "mapping",
        "key": "t_address",
        "label": "mapping(address => mapping(address => bool))",
        "numberOfBytes": "32",
        "value": "t_mapping(t_address,t_bool)"
      },
      "t_mapping(t_address,t_uint256)": {
        "encoding": "mapping",
        "key": "t_address",
        "label": "mapping(address => uint256)",
        "numberOfBytes": "32",
        "value": "t_uint256"
      },
      "t_mapping(t_bytes4,t_bool)": {
        "encoding": "mapping",
        "key": "t_bytes4",
        "label": "mapping(bytes4 => bool)",
        "numberOfBytes": "32",
        "value": "t_bool"
      },
      "t_mapping(t_uint256,t_mapping(t_address,t_uint256))": {
        "encoding": "mapping",
        "key": "t_uint256",
        "label": "mapping(uint256 => mapping(address => uint256))",
        "numberOfBytes": "32",
        "value": "t_mapping(t_address,t_uint256)"
      },
      "t_string_storage": {
        "encoding": "bytes",
        "label": "string",
        "numberOfBytes": "32"
      },
      "t_uint256": {
        "encoding": "inplace",
        "label": "uint256",
        "numberOfBytes": "32"
      }
    }
  }
}