{
  "address": "0x5894d07B6620B898CB00aA3D8DEc5c57F41a2935",
  "abi": [
    {
      "inputs": [
        {
          "internalType": "string",
          "name": "name",
          "type": "string"
        },
        {
          "internalType": "string",
          "name": "symbol",
          "type": "string"
        }
      ],
      "stateMutability": "nonpayable",
      "type": "constructor"
    },
    {
      "anonymous": false,
      "inputs": [
        {
          "indexed": true,
          "internalType": "address",
          "name": "owner",
          "type": "address"
        },
        {
          "indexed": true,
          "internalType": "address",
          "name": "approved",
          "type": "address"
        },
        {
          "indexed": true,
          "internalType": "uint256",
          "name": "tokenId",
          "type": "uint256"
        }
      ],
      "name": "Approval",
      "type": "event"
    },
    {
      "anonymous": false,
      "inputs": [
        {
          "indexed": true,
          "internalType": "address",
          "name": "owner",
          "type": "address"
        },
        {
          "indexed": true,
          "internalType": "address",
          "name": "operator",
          "type": "address"
        },
        {
          "indexed": false,
          "internalType": "bool",
          "name": "approved",
          "type": "bool"
        }
      ],
      "name": "ApprovalForAll",
      "type": "event"
    },
    {
      "anonymous": false,
      "inputs": [
        {
          "indexed": true,
          "internalType": "address",
          "name": "from",
          "type": "address"
        },
        {
          "indexed": true,
          "internalType": "address",
          "name": "to",
          "type": "address"
        },
        {
          "indexed": true,
          "internalType": "uint256",
          "name": "tokenId",
          "type": "uint256"
        }
      ],
      "name": "Transfer",
      "type": "event"
    },
    {
      "inputs": [
        {
          "internalType": "address",
          "name": "to",
          "type": "address"
        },
        {
          "internalType": "uint256",
          "name": "tokenId",
          "type": "uint256"
        }
      ],
      "name": "approve",
      "outputs": [],
      "stateMutability": "nonpayable",
      "type": "function"
    },
    {
      "inputs": [
        {
          "internalType": "address",
          "name": "owner",
          "type": "address"
        }
      ],
      "name": "balanceOf",
      "outputs": [
        {
          "internalType": "uint256",
          "name": "",
          "type": "uint256"
        }
      ],
      "stateMutability": "view",
      "type": "function"
    },
    {
      "inputs": [],
      "name": "baseURI",
      "outputs": [
        {
          "internalType": "string",
          "name": "",
          "type": "string"
        }
      ],
      "stateMutability": "view",
      "type": "function"
    },
    {
      "inputs": [
        {
          "internalType": "uint256",
          "name": "tokenId",
          "type": "uint256"
        }
      ],
      "name": "burn",
      "outputs": [],
      "stateMutability": "nonpayable",
      "type": "function"
    },
    {
      "inputs": [
        {
          "internalType": "uint256",
          "name": "tokenId",
          "type": "uint256"
        }
      ],
      "name": "exists",
      "outputs": [
        {
          "internalType": "bool",
          "name": "",
          "type": "bool"
        }
      ],
      "stateMutability": "view",
      "type": "function"
    },
    {
      "inputs": [
        {
          "internalType": "uint256",
          "name": "tokenId",
          "type": "uint256"
        }
      ],
      "name": "getApproved",
      "outputs": [
        {
          "internalType": "address",
          "name": "",
          "type": "address"
        }
      ],
      "stateMutability": "view",
      "type": "function"
    },
    {
      "inputs": [
        {
          "internalType": "address",
          "name": "owner",
          "type": "address"
        },
        {
          "internalType": "address",
          "name": "operator",
          "type": "address"
        }
      ],
      "name": "isApprovedForAll",
      "outputs": [
        {
          "internalType": "bool",
          "name": "",
          "type": "bool"
        }
      ],
      "stateMutability": "view",
      "type": "function"
    },
    {
      "inputs": [
        {
          "internalType": "address",
          "name": "to",
          "type": "address"
        },
        {
          "internalType": "uint256",
          "name": "tokenId",
          "type": "uint256"
        }
      ],
      "name": "mint",
      "outputs": [],
      "stateMutability": "nonpayable",
      "type": "function"
    },
    {
      "inputs": [],
      "name": "name",
      "outputs": [
        {
          "internalType": "string",
          "name": "",
          "type": "string"
        }
      ],
      "stateMutability": "view",
      "type": "function"
    },
    {
      "inputs": [
        {
          "internalType": "uint256",
          "name": "tokenId",
          "type": "uint256"
        }
      ],
      "name": "ownerOf",
      "outputs": [
        {
          "internalType": "address",
          "name": "",
          "type": "address"
        }
      ],
      "stateMutability": "view",
      "type": "function"
    },
    {
      "inputs": [
        {
          "internalType": "address",
          "name": "to",
          "type": "address"
        },
        {
          "internalType": "uint256",
          "name": "tokenId",
          "type": "uint256"
        },
        {
          "internalType": "bytes",
          "name": "_data",
          "type": "bytes"
        }
      ],
      "name": "safeMint",
      "outputs": [],
      "stateMutability": "nonpayable",
      "type": "function"
    },
    {
      "inputs": [
        {
          "internalType": "address",
          "name": "to",
          "type": "address"
        },
        {
          "internalType": "uint256",
          "name": "tokenId",
          "type": "uint256"
        }
      ],
      "name": "safeMint",
      "outputs": [],
      "stateMutability": "nonpayable",
      "type": "function"
    },
    {
      "inputs": [
        {
          "internalType": "address",
          "name": "from",
          "type": "address"
        },
        {
          "internalType": "address",
          "name": "to",
          "type": "address"
        },
        {
          "internalType": "uint256",
          "name": "tokenId",
          "type": "uint256"
        }
      ],
      "name": "safeTransferFrom",
      "outputs": [],
      "stateMutability": "nonpayable",
      "type": "function"
    },
    {
      "inputs": [
        {
          "internalType": "address",
          "name": "from",
          "type": "address"
        },
        {
          "internalType": "address",
          "name": "to",
          "type": "address"
        },
        {
          "internalType": "uint256",
          "name": "tokenId",
          "type": "uint256"
        },
        {
          "internalType": "bytes",
          "name": "_data",
          "type": "bytes"
        }
      ],
      "name": "safeTransferFrom",
      "outputs": [],
      "stateMutability": "nonpayable",
      "type": "function"
    },
    {
      "inputs": [
        {
          "internalType": "address",
          "name": "operator",
          "type": "address"
        },
        {
          "internalType": "bool",
          "name": "approved",
          "type": "bool"
        }
      ],
      "name": "setApprovalForAll",
      "outputs": [],
      "stateMutability": "nonpayable",
      "type": "function"
    },
    {
      "inputs": [
        {
          "internalType": "string",
          "name": "baseURI",
          "type": "string"
        }
      ],
      "name": "setBaseURI",
      "outputs": [],
      "stateMutability": "nonpayable",
      "type": "function"
    },
    {
      "inputs": [
        {
          "internalType": "uint256",
          "name": "tokenId",
          "type": "uint256"
        },
        {
          "internalType": "string",
          "name": "uri",
          "type": "string"
        }
      ],
      "name": "setTokenURI",
      "outputs": [],
      "stateMutability": "nonpayable",
      "type": "function"
    },
    {
      "inputs": [
        {
          "internalType": "bytes4",
          "name": "interfaceId",
          "type": "bytes4"
        }
      ],
      "name": "supportsInterface",
      "outputs": [
        {
          "internalType": "bool",
          "name": "",
          "type": "bool"
        }
      ],
      "stateMutability": "view",
      "type": "function"
    },
    {
      "inputs": [],
      "name": "symbol",
      "outputs": [
        {
          "internalType": "string",
          "name": "",
          "type": "string"
        }
      ],
      "stateMutability": "view",
      "type": "function"
    },
    {
      "inputs": [
        {
          "internalType": "uint256",
          "name": "index",
          "type": "uint256"
        }
      ],
      "name": "tokenByIndex",
      "outputs": [
        {
          "internalType": "uint256",
          "name": "",
          "type": "uint256"
        }
      ],
      "stateMutability": "view",
      "type": "function"
    },
    {
      "inputs": [
        {
          "internalType": "address",
          "name": "owner",
          "type": "address"
        },
        {
          "internalType": "uint256",
          "name": "index",
          "type": "uint256"
        }
      ],
      "name": "tokenOfOwnerByIndex",
      "outputs": [
        {
          "internalType": "uint256",
          "name": "",
          "type": "uint256"
        }
      ],
      "stateMutability": "view",
      "type": "function"
    },
    {
      "inputs": [
        {
          "internalType": "uint256",
          "name": "tokenId",
          "type": "uint256"
        }
      ],
      "name": "tokenURI",
      "outputs": [
        {
          "internalType": "string",
          "name": "",
          "type": "string"
        }
      ],
      "stateMutability": "view",
      "type": "function"
    },
    {
      "inputs": [],
      "name": "totalSupply",
      "outputs": [
        {
          "internalType": "uint256",
          "name": "",
          "type": "uint256"
        }
      ],
      "stateMutability": "view",
      "type": "function"
    },
    {
      "inputs": [
        {
          "internalType": "address",
          "name": "from",
          "type": "address"
        },
        {
          "internalType": "address",
          "name": "to",
          "type": "address"
        },
        {
          "internalType": "uint256",
          "name": "tokenId",
          "type": "uint256"
        }
      ],
      "name": "transferFrom",
      "outputs": [],
      "stateMutability": "nonpayable",
      "type": "function"
    }
  ],
  "transactionHash": "0xc3a92710806e3c29cf00e44d332827b00988dee2706fd33c8edf290d80604ccd",
  "args": [
    "Mock NFT",
    "MOCK"
  ],
  "solcInputHash": "4e876c80279ea7188059a6ffb37600b2",
  "bytecode": "0x60806040523480156200001157600080fd5b506040516200253538038062002535833981810160405260408110156200003757600080fd5b81019080805160405193929190846401000000008211156200005857600080fd5b9083019060208201858111156200006e57600080fd5b82516401000000008111828201881017156200008957600080fd5b82525081516020918201929091019080838360005b83811015620000b85781810151838201526020016200009e565b50505050905090810190601f168015620000e65780820380516001836020036101000a031916815260200191505b50604052602001805160405193929190846401000000008211156200010a57600080fd5b9083019060208201858111156200012057600080fd5b82516401000000008111828201881017156200013b57600080fd5b82525081516020918201929091019080838360005b838110156200016a57818101518382015260200162000150565b50505050905090810190601f168015620001985780820380516001836020036101000a031916815260200191505b5060405250839150829050620001b56301ffc9a760e01b62000245565b8151620001ca906006906020850190620002e3565b508051620001e0906007906020840190620002e3565b50620001f36380ac58cd60e01b62000245565b62000205635b5e139f60e01b62000245565b6200021763780e9d6360e01b62000245565b50506200023d6040518060600160405280602581526020016200251060259139620002ca565b50506200037f565b6001600160e01b03198082161415620002a5576040805162461bcd60e51b815260206004820152601c60248201527f4552433136353a20696e76616c696420696e7465726661636520696400000000604482015290519081900360640190fd5b6001600160e01b0319166000908152602081905260409020805460ff19166001179055565b8051620002df906009906020840190620002e3565b5050565b828054600181600116156101000203166002900490600052602060002090601f016020900481019282601f106200032657805160ff191683800117855562000356565b8280016001018555821562000356579182015b828111156200035657825182559160200191906001019062000339565b506200036492915062000368565b5090565b5b8082111562000364576000815560010162000369565b612181806200038f6000396000f3fe608060405234801561001057600080fd5b50600436106101585760003560e01c80634f6ccce7116100c357806395d89b411161007c57806395d89b4114610604578063a14481941461060c578063a22cb46514610638578063b88d4fde14610666578063c87b56dd1461072a578063e985e9c51461074757610158565b80634f6ccce71461043f57806355f804b31461045c5780636352211e146105005780636c0360eb1461051d57806370a08231146105255780638832e6e31461054b57610158565b806323b872dd1161011557806323b872dd146103415780632f745c591461037757806340c10f19146103a357806342842e0e146103cf57806342966c68146104055780634f558e791461042257610158565b806301ffc9a71461015d57806306fdde0314610198578063081812fc14610215578063095ea7b31461024e578063162094c41461027c57806318160ddd14610327575b600080fd5b6101846004803603602081101561017357600080fd5b50356001600160e01b031916610775565b604080519115158252519081900360200190f35b6101a0610798565b6040805160208082528351818301528351919283929083019185019080838360005b838110156101da5781810151838201526020016101c2565b50505050905090810190601f1680156102075780820380516001836020036101000a031916815260200191505b509250505060405180910390f35b6102326004803603602081101561022b57600080fd5b503561082e565b604080516001600160a01b039092168252519081900360200190f35b61027a6004803603604081101561026457600080fd5b506001600160a01b038135169060200135610890565b005b61027a6004803603604081101561029257600080fd5b81359190810190604081016020820135600160201b8111156102b357600080fd5b8201836020820111156102c557600080fd5b803590602001918460018302840111600160201b831117156102e657600080fd5b91908080601f01602080910402602001604051908101604052809392919081815260200183838082843760009201919091525092955061096b945050505050565b61032f610979565b60408051918252519081900360200190f35b61027a6004803603606081101561035757600080fd5b506001600160a01b0381358116916020810135909116906040013561098a565b61032f6004803603604081101561038d57600080fd5b506001600160a01b0381351690602001356109e1565b61027a600480360360408110156103b957600080fd5b506001600160a01b038135169060200135610a0c565b61027a600480360360608110156103e557600080fd5b506001600160a01b03813581169160208101359091169060400135610a16565b61027a6004803603602081101561041b57600080fd5b5035610a31565b6101846004803603602081101561043857600080fd5b5035610a3d565b61032f6004803603602081101561045557600080fd5b5035610a48565b61027a6004803603602081101561047257600080fd5b810190602081018135600160201b81111561048c57600080fd5b82018360208201111561049e57600080fd5b803590602001918460018302840111600160201b831117156104bf57600080fd5b91908080601f016020809104026020016040519081016040528093929190818152602001838380828437600092019190915250929550610a5e945050505050565b6102326004803603602081101561051657600080fd5b5035610a67565b6101a0610a8f565b61032f6004803603602081101561053b57600080fd5b50356001600160a01b0316610af0565b61027a6004803603606081101561056157600080fd5b6001600160a01b0382351691602081013591810190606081016040820135600160201b81111561059057600080fd5b8201836020820111156105a257600080fd5b803590602001918460018302840111600160201b831117156105c357600080fd5b91908080601f016020809104026020016040519081016040528093929190818152602001838380828437600092019190915250929550610b58945050505050565b6101a0610b63565b61027a6004803603604081101561062257600080fd5b506001600160a01b038135169060200135610bc4565b61027a6004803603604081101561064e57600080fd5b506001600160a01b0381351690602001351515610bce565b61027a6004803603608081101561067c57600080fd5b6001600160a01b03823581169260208101359091169160408201359190810190608081016060820135600160201b8111156106b657600080fd5b8201836020820111156106c857600080fd5b803590602001918460018302840111600160201b831117156106e957600080fd5b91908080601f016020809104026020016040519081016040528093929190818152602001838380828437600092019190915250929550610cd3945050505050565b6101a06004803603602081101561074057600080fd5b5035610d31565b6101846004803603604081101561075d57600080fd5b506001600160a01b0381358116916020013516610fb4565b6001600160e01b0319811660009081526020819052604090205460ff165b919050565b60068054604080516020601f60026000196101006001881615020190951694909404938401819004810282018101909252828152606093909290918301828280156108245780601f106107f957610100808354040283529160200191610824565b820191906000526020600020905b81548152906001019060200180831161080757829003601f168201915b5050505050905090565b600061083982610fe2565b6108745760405162461bcd60e51b815260040180806020018281038252602c81526020018061204a602c913960400191505060405180910390fd5b506000908152600460205260409020546001600160a01b031690565b600061089b82610a67565b9050806001600160a01b0316836001600160a01b031614156108ee5760405162461bcd60e51b81526004018080602001828103825260218152602001806120fa6021913960400191505060405180910390fd5b806001600160a01b0316610900610fef565b6001600160a01b0316148061092157506109218161091c610fef565b610fb4565b61095c5760405162461bcd60e51b8152600401808060200182810382526038815260200180611f9d6038913960400191505060405180910390fd5b6109668383610ff3565b505050565b6109758282611061565b5050565b600061098560026110c4565b905090565b61099b610995610fef565b826110cf565b6109d65760405162461bcd60e51b815260040180806020018281038252603181526020018061211b6031913960400191505060405180910390fd5b610966838383611173565b6001600160a01b0382166000908152600160205260408120610a0390836112bf565b90505b92915050565b61097582826112cb565b61096683838360405180602001604052806000815250610cd3565b610a3a816113f9565b50565b6000610a0682610fe2565b600080610a566002846114c6565b509392505050565b610a3a816114e2565b6000610a0682604051806060016040528060298152602001611fff60299139600291906114f5565b60098054604080516020601f60026000196101006001881615020190951694909404938401819004810282018101909252828152606093909290918301828280156108245780601f106107f957610100808354040283529160200191610824565b60006001600160a01b038216610b375760405162461bcd60e51b815260040180806020018281038252602a815260200180611fd5602a913960400191505060405180910390fd5b6001600160a01b0382166000908152600160205260409020610a06906110c4565b61096683838361150c565b60078054604080516020601f60026000196101006001881615020190951694909404938401819004810282018101909252828152606093909290918301828280156108245780601f106107f957610100808354040283529160200191610824565b610975828261155e565b610bd6610fef565b6001600160a01b0316826001600160a01b03161415610c3c576040805162461bcd60e51b815260206004820152601960248201527f4552433732313a20617070726f766520746f2063616c6c657200000000000000604482015290519081900360640190fd5b8060056000610c49610fef565b6001600160a01b03908116825260208083019390935260409182016000908120918716808252919093529120805460ff191692151592909217909155610c8d610fef565b6001600160a01b03167f17307eab39ab6107e8899845ad3d59bd9653f200f220920489ca2b5937696c318360405180821515815260200191505060405180910390a35050565b610ce4610cde610fef565b836110cf565b610d1f5760405162461bcd60e51b815260040180806020018281038252603181526020018061211b6031913960400191505060405180910390fd5b610d2b84848484611578565b50505050565b6060610d3c82610fe2565b610d775760405162461bcd60e51b815260040180806020018281038252602f8152602001806120cb602f913960400191505060405180910390fd5b60008281526008602090815260409182902080548351601f6002600019610100600186161502019093169290920491820184900484028101840190945280845260609392830182828015610e0c5780601f10610de157610100808354040283529160200191610e0c565b820191906000526020600020905b815481529060010190602001808311610def57829003601f168201915b505050505090506060610e1d610a8f565b9050805160001415610e3157509050610793565b815115610ef25780826040516020018083805190602001908083835b60208310610e6c5780518252601f199092019160209182019101610e4d565b51815160209384036101000a600019018019909216911617905285519190930192850191508083835b60208310610eb45780518252601f199092019160209182019101610e95565b6001836020036101000a0380198251168184511680821785525050505050509050019250505060405160208183030381529060405292505050610793565b80610efc856115ca565b6040516020018083805190602001908083835b60208310610f2e5780518252601f199092019160209182019101610f0f565b51815160209384036101000a600019018019909216911617905285519190930192850191508083835b60208310610f765780518252601f199092019160209182019101610f57565b6001836020036101000a0380198251168184511680821785525050505050509050019250505060405160208183030381529060405292505050919050565b6001600160a01b03918216600090815260056020908152604080832093909416825291909152205460ff1690565b6000610a066002836116a5565b3390565b600081815260046020526040902080546001600160a01b0319166001600160a01b038416908117909155819061102882610a67565b6001600160a01b03167f8c5be1e5ebec7d5bd14f71427d1e84f3dd0314c0f7b2291e5b200ac8c7c3b92560405160405180910390a45050565b61106a82610fe2565b6110a55760405162461bcd60e51b815260040180806020018281038252602c815260200180612076602c913960400191505060405180910390fd5b6000828152600860209081526040909120825161096692840190611e25565b6000610a06826116b1565b60006110da82610fe2565b6111155760405162461bcd60e51b815260040180806020018281038252602c815260200180611f71602c913960400191505060405180910390fd5b600061112083610a67565b9050806001600160a01b0316846001600160a01b0316148061115b5750836001600160a01b03166111508461082e565b6001600160a01b0316145b8061116b575061116b8185610fb4565b949350505050565b826001600160a01b031661118682610a67565b6001600160a01b0316146111cb5760405162461bcd60e51b81526004018080602001828103825260298152602001806120a26029913960400191505060405180910390fd5b6001600160a01b0382166112105760405162461bcd60e51b8152600401808060200182810382526024815260200180611f4d6024913960400191505060405180910390fd5b61121b838383610966565b611226600082610ff3565b6001600160a01b038316600090815260016020526040902061124890826116b5565b506001600160a01b038216600090815260016020526040902061126b90826116c1565b50611278600282846116cd565b5080826001600160a01b0316846001600160a01b03167fddf252ad1be2c89b69c2b068fc378daa952ba7f163c4a11628f55a4df523b3ef60405160405180910390a4505050565b6000610a0383836116e3565b6001600160a01b038216611326576040805162461bcd60e51b815260206004820181905260248201527f4552433732313a206d696e7420746f20746865207a65726f2061646472657373604482015290519081900360640190fd5b61132f81610fe2565b15611381576040805162461bcd60e51b815260206004820152601c60248201527f4552433732313a20746f6b656e20616c7265616479206d696e74656400000000604482015290519081900360640190fd5b61138d60008383610966565b6001600160a01b03821660009081526001602052604090206113af90826116c1565b506113bc600282846116cd565b5060405181906001600160a01b038416906000907fddf252ad1be2c89b69c2b068fc378daa952ba7f163c4a11628f55a4df523b3ef908290a45050565b600061140482610a67565b905061141281600084610966565b61141d600083610ff3565b600082815260086020526040902054600260001961010060018416150201909116041561145b57600082815260086020526040812061145b91611ea3565b6001600160a01b038116600090815260016020526040902061147d90836116b5565b50611489600283611747565b5060405182906000906001600160a01b038416907fddf252ad1be2c89b69c2b068fc378daa952ba7f163c4a11628f55a4df523b3ef908390a45050565b60008080806114d58686611753565b9097909650945050505050565b8051610975906009906020840190611e25565b60006115028484846117ce565b90505b9392505050565b61151683836112cb565b6115236000848484611898565b6109665760405162461bcd60e51b8152600401808060200182810382526032815260200180611f1b6032913960400191505060405180910390fd5b61097582826040518060200160405280600081525061150c565b611583848484611173565b61158f84848484611898565b610d2b5760405162461bcd60e51b8152600401808060200182810382526032815260200180611f1b6032913960400191505060405180910390fd5b6060816115ef57506040805180820190915260018152600360fc1b6020820152610793565b8160005b811561160757600101600a820491506115f3565b60608167ffffffffffffffff8111801561162057600080fd5b506040519080825280601f01601f19166020018201604052801561164b576020820181803683370190505b50859350905060001982015b831561169c57600a840660300160f81b8282806001900393508151811061167a57fe5b60200101906001600160f81b031916908160001a905350600a84049350611657565b50949350505050565b6000610a038383611a00565b5490565b6000610a038383611a18565b6000610a038383611ade565b600061150284846001600160a01b038516611b28565b815460009082106117255760405162461bcd60e51b8152600401808060200182810382526022815260200180611ef96022913960400191505060405180910390fd5b82600001828154811061173457fe5b9060005260206000200154905092915050565b6000610a038383611bbf565b8154600090819083106117975760405162461bcd60e51b81526004018080602001828103825260228152602001806120286022913960400191505060405180910390fd5b60008460000184815481106117a857fe5b906000526020600020906002020190508060000154816001015492509250509250929050565b600082815260018401602052604081205482816118695760405162461bcd60e51b81526004018080602001828103825283818151815260200191508051906020019080838360005b8381101561182e578181015183820152602001611816565b50505050905090810190601f16801561185b5780820380516001836020036101000a031916815260200191505b509250505060405180910390fd5b5084600001600182038154811061187c57fe5b9060005260206000209060020201600101549150509392505050565b60006118ac846001600160a01b0316611c93565b6118b85750600161116b565b60606119c6630a85bd0160e11b6118cd610fef565b88878760405160240180856001600160a01b03168152602001846001600160a01b0316815260200183815260200180602001828103825283818151815260200191508051906020019080838360005b8381101561193457818101518382015260200161191c565b50505050905090810190601f1680156119615780820380516001836020036101000a031916815260200191505b5095505050505050604051602081830303815290604052906001600160e01b0319166020820180516001600160e01b038381831617835250505050604051806060016040528060328152602001611f1b603291396001600160a01b0388169190611c99565b905060008180602001905160208110156119df57600080fd5b50516001600160e01b031916630a85bd0160e11b1492505050949350505050565b60009081526001919091016020526040902054151590565b60008181526001830160205260408120548015611ad45783546000198083019190810190600090879083908110611a4b57fe5b9060005260206000200154905080876000018481548110611a6857fe5b600091825260208083209091019290925582815260018981019092526040902090840190558654879080611a9857fe5b60019003818190600052602060002001600090559055866001016000878152602001908152602001600020600090556001945050505050610a06565b6000915050610a06565b6000611aea8383611a00565b611b2057508154600181810184556000848152602080822090930184905584548482528286019093526040902091909155610a06565b506000610a06565b600082815260018401602052604081205480611b8d575050604080518082018252838152602080820184815286546001818101895560008981528481209551600290930290950191825591519082015586548684528188019092529290912055611505565b82856000016001830381548110611ba057fe5b9060005260206000209060020201600101819055506000915050611505565b60008181526001830160205260408120548015611ad45783546000198083019190810190600090879083908110611bf257fe5b9060005260206000209060020201905080876000018481548110611c1257fe5b600091825260208083208454600290930201918255600193840154918401919091558354825289830190526040902090840190558654879080611c5157fe5b6000828152602080822060026000199094019384020182815560019081018390559290935588815289820190925260408220919091559450610a069350505050565b3b151590565b6060611502848460008585611cad85611c93565b611cfe576040805162461bcd60e51b815260206004820152601d60248201527f416464726573733a2063616c6c20746f206e6f6e2d636f6e7472616374000000604482015290519081900360640190fd5b60006060866001600160a01b031685876040518082805190602001908083835b60208310611d3d5780518252601f199092019160209182019101611d1e565b6001836020036101000a03801982511681845116808217855250505050505090500191505060006040518083038185875af1925050503d8060008114611d9f576040519150601f19603f3d011682016040523d82523d6000602084013e611da4565b606091505b5091509150611db4828286611dbf565b979650505050505050565b60608315611dce575081611505565b825115611dde5782518084602001fd5b60405162461bcd60e51b815260206004820181815284516024840152845185939192839260440191908501908083836000831561182e578181015183820152602001611816565b828054600181600116156101000203166002900490600052602060002090601f016020900481019282601f10611e6657805160ff1916838001178555611e93565b82800160010185558215611e93579182015b82811115611e93578251825591602001919060010190611e78565b50611e9f929150611ee3565b5090565b50805460018160011615610100020316600290046000825580601f10611ec95750610a3a565b601f016020900490600052602060002090810190610a3a91905b5b80821115611e9f5760008155600101611ee456fe456e756d657261626c655365743a20696e646578206f7574206f6620626f756e64734552433732313a207472616e7366657220746f206e6f6e20455243373231526563656976657220696d706c656d656e7465724552433732313a207472616e7366657220746f20746865207a65726f20616464726573734552433732313a206f70657261746f7220717565727920666f72206e6f6e6578697374656e7420746f6b656e4552433732313a20617070726f76652063616c6c6572206973206e6f74206f776e6572206e6f7220617070726f76656420666f7220616c6c4552433732313a2062616c616e636520717565727920666f7220746865207a65726f20616464726573734552433732313a206f776e657220717565727920666f72206e6f6e6578697374656e7420746f6b656e456e756d657261626c654d61703a20696e646578206f7574206f6620626f756e64734552433732313a20617070726f76656420717565727920666f72206e6f6e6578697374656e7420746f6b656e4552433732314d657461646174613a2055524920736574206f66206e6f6e6578697374656e7420746f6b656e4552433732313a207472616e73666572206f6620746f6b656e2074686174206973206e6f74206f776e4552433732314d657461646174613a2055524920717565727920666f72206e6f6e6578697374656e7420746f6b656e4552433732313a20617070726f76616c20746f2063757272656e74206f776e65724552433732313a207472616e736665722063616c6c6572206973206e6f74206f776e6572206e6f7220617070726f766564a2646970667358221220b91887ed656e674cb9042dd2ca446b083069b2b2ebefe259385392689c7b16ab64736f6c634300060c003368747470733a2f2f6170692e63727970746f6b6974746965732e636f2f6b6974746965732f",
  "devdoc": {
    "kind": "dev",
    "methods": {
      "approve(address,uint256)": {
        "details": "See {IERC721-approve}."
      },
      "balanceOf(address)": {
        "details": "See {IERC721-balanceOf}."
      },
      "baseURI()": {
        "details": "Returns the base URI set via {_setBaseURI}. This will be automatically added as a prefix in {tokenURI} to each token's URI, or to the token ID if no specific URI is set for that token ID."
      },
      "getApproved(uint256)": {
        "details": "See {IERC721-getApproved}."
      },
      "isApprovedForAll(address,address)": {
        "details": "See {IERC721-isApprovedForAll}."
      },
      "name()": {
        "details": "See {IERC721Metadata-name}."
      },
      "ownerOf(uint256)": {
        "details": "See {IERC721-ownerOf}."
      },
      "safeTransferFrom(address,address,uint256)": {
        "details": "See {IERC721-safeTransferFrom}."
      },
      "safeTransferFrom(address,address,uint256,bytes)": {
        "details": "See {IERC721-safeTransferFrom}."
      },
      "setApprovalForAll(address,bool)": {
        "details": "See {IERC721-setApprovalForAll}."
      },
      "supportsInterface(bytes4)": {
        "details": "See {IERC165-supportsInterface}. Time complexity O(1), guaranteed to always use less than 30 000 gas."
      },
      "symbol()": {
        "details": "See {IERC721Metadata-symbol}."
      },
      "tokenByIndex(uint256)": {
        "details": "See {IERC721Enumerable-tokenByIndex}."
      },
      "tokenOfOwnerByIndex(address,uint256)": {
        "details": "See {IERC721Enumerable-tokenOfOwnerByIndex}."
      },
      "tokenURI(uint256)": {
        "details": "See {IERC721Metadata-tokenURI}."
      },
      "totalSupply()": {
        "details": "See {IERC721Enumerable-totalSupply}."
      },
      "transferFrom(address,address,uint256)": {
        "details": "See {IERC721-transferFrom}."
      }
    },
    "version": 1
  },
  "userdoc": {
    "kind": "user",
    "methods": {},
    "version": 1
  },
  "storageLayout": {
    "storage": [
      {
        "astId": 2590,
        "contract": "contracts/mocks/MockERC721.sol:MockERC721",
        "label": "_supportedInterfaces",
        "offset": 0,
        "slot": "0",
        "type": "t_mapping(t_bytes4,t_bool)"
      },
      {
        "astId": 5111,
        "contract": "contracts/mocks/MockERC721.sol:MockERC721",
        "label": "_holderTokens",
        "offset": 0,
        "slot": "1",
        "type": "t_mapping(t_address,t_struct(UintSet)7504_storage)"
      },
      {
        "astId": 5113,
        "contract": "contracts/mocks/MockERC721.sol:MockERC721",
        "label": "_tokenOwners",
        "offset": 0,
        "slot": "2",
        "type": "t_struct(UintToAddressMap)6881_storage"
      },
      {
        "astId": 5117,
        "contract": "contracts/mocks/MockERC721.sol:MockERC721",
        "label": "_tokenApprovals",
        "offset": 0,
        "slot": "4",
        "type": "t_mapping(t_uint256,t_address)"
      },
      {
        "astId": 5123,
        "contract": "contracts/mocks/MockERC721.sol:MockERC721",
        "label": "_operatorApprovals",
        "offset": 0,
        "slot": "5",
        "type": "t_mapping(t_address,t_mapping(t_address,t_bool))"
      },
      {
        "astId": 5125,
        "contract": "contracts/mocks/MockERC721.sol:MockERC721",
        "label": "_name",
        "offset": 0,
        "slot": "6",
        "type": "t_string_storage"
      },
      {
        "astId": 5127,
        "contract": "contracts/mocks/MockERC721.sol:MockERC721",
        "label": "_symbol",
        "offset": 0,
        "slot": "7",
        "type": "t_string_storage"
      },
      {
        "astId": 5131,
        "contract": "contracts/mocks/MockERC721.sol:MockERC721",
        "label": "_tokenURIs",
        "offset": 0,
        "slot": "8",
        "type": "t_mapping(t_uint256,t_string_storage)"
      },
      {
        "astId": 5133,
        "contract": "contracts/mocks/MockERC721.sol:MockERC721",
        "label": "_baseURI",
        "offset": 0,
        "slot": "9",
        "type": "t_string_storage"
      }
    ],
    "types": {
      "t_address": {
        "encoding": "inplace",
        "label": "address",
        "numberOfBytes": "20"
      },
      "t_array(t_bytes32)dyn_storage": {
        "base": "t_bytes32",
        "encoding": "dynamic_array",
        "label": "bytes32[]",
        "numberOfBytes": "32"
      },
      "t_array(t_struct(MapEntry)6555_storage)dyn_storage": {
        "base": "t_struct(MapEntry)6555_storage",
        "encoding": "dynamic_array",
        "label": "struct EnumerableMap.MapEntry[]",
        "numberOfBytes": "32"
      },
      "t_bool": {
        "encoding": "inplace",
        "label": "bool",
        "numberOfBytes": "1"
      },
      "t_bytes32": {
        "encoding": "inplace",
        "label": "bytes32",
        "numberOfBytes": "32"
      },
      "t_bytes4": {
        "encoding": "inplace",
        "label": "bytes4",
        "numberOfBytes": "4"
      },
      "t_mapping(t_address,t_bool)": {
        "encoding": "mapping",
        "key": "t_address",
        "label": "mapping(address => bool)",
        "numberOfBytes": "32",
        "value": "t_bool"
      },
      "t_mapping(t_address,t_mapping(t_address,t_bool))": {
        "encoding": "mapping",
        "key": "t_address",
        "label": "mapping(address => mapping(address => bool))",
        "numberOfBytes": "32",
        "value": "t_mapping(t_address,t_bool)"
      },
      "t_mapping(t_address,t_struct(UintSet)7504_storage)": {
        "encoding": "mapping",
        "key": "t_address",
        "label": "mapping(address => struct EnumerableSet.UintSet)",
        "numberOfBytes": "32",
        "value": "t_struct(UintSet)7504_storage"
      },
      "t_mapping(t_bytes32,t_uint256)": {
        "encoding": "mapping",
        "key": "t_bytes32",
        "label": "mapping(bytes32 => uint256)",
        "numberOfBytes": "32",
        "value": "t_uint256"
      },
      "t_mapping(t_bytes4,t_bool)": {
        "encoding": "mapping",
        "key": "t_bytes4",
        "label": "mapping(bytes4 => bool)",
        "numberOfBytes": "32",
        "value": "t_bool"
      },
      "t_mapping(t_uint256,t_address)": {
        "encoding": "mapping",
        "key": "t_uint256",
        "label": "mapping(uint256 => address)",
        "numberOfBytes": "32",
        "value": "t_address"
      },
      "t_mapping(t_uint256,t_string_storage)": {
        "encoding": "mapping",
        "key": "t_uint256",
        "label": "mapping(uint256 => string)",
        "numberOfBytes": "32",
        "value": "t_string_storage"
      },
      "t_string_storage": {
        "encoding": "bytes",
        "label": "string",
        "numberOfBytes": "32"
      },
      "t_struct(Map)6563_storage": {
        "encoding": "inplace",
        "label": "struct EnumerableMap.Map",
        "members": [
          {
            "astId": 6558,
            "contract": "contracts/mocks/MockERC721.sol:MockERC721",
            "label": "_entries",
            "offset": 0,
            "slot": "0",
            "type": "t_array(t_struct(MapEntry)6555_storage)dyn_storage"
          },
          {
            "astId": 6562,
            "contract": "contracts/mocks/MockERC721.sol:MockERC721",
            "label": "_indexes",
            "offset": 0,
            "slot": "1",
            "type": "t_mapping(t_bytes32,t_uint256)"
          }
        ],
        "numberOfBytes": "64"
      },
      "t_struct(MapEntry)6555_storage": {
        "encoding": "inplace",
        "label": "struct EnumerableMap.MapEntry",
        "members": [
          {
            "astId": 6552,
            "contract": "contracts/mocks/MockERC721.sol:MockERC721",
            "label": "_key",
            "offset": 0,
            "slot": "0",
            "type": "t_bytes32"
          },
          {
            "astId": 6554,
            "contract": "contracts/mocks/MockERC721.sol:MockERC721",
            "label": "_value",
            "offset": 0,
            "slot": "1",
            "type": "t_bytes32"
          }
        ],
        "numberOfBytes": "64"
      },
      "t_struct(Set)7118_storage": {
        "encoding": "inplace",
        "label": "struct EnumerableSet.Set",
        "members": [
          {
            "astId": 7113,
            "contract": "contracts/mocks/MockERC721.sol:MockERC721",
            "label": "_values",
            "offset": 0,
            "slot": "0",
            "type": "t_array(t_bytes32)dyn_storage"
          },
          {
            "astId": 7117,
            "contract": "contracts/mocks/MockERC721.sol:MockERC721",
            "label": "_indexes",
            "offset": 0,
            "slot": "1",
            "type": "t_mapping(t_bytes32,t_uint256)"
          }
        ],
        "numberOfBytes": "64"
      },
      "t_struct(UintSet)7504_storage": {
        "encoding": "inplace",
        "label": "struct EnumerableSet.UintSet",
        "members": [
          {
            "astId": 7503,
            "contract": "contracts/mocks/MockERC721.sol:MockERC721",
            "label": "_inner",
            "offset": 0,
            "slot": "0",
            "type": "t_struct(Set)7118_storage"
          }
        ],
        "numberOfBytes": "64"
      },
      "t_struct(UintToAddressMap)6881_storage": {
        "encoding": "inplace",
        "label": "struct EnumerableMap.UintToAddressMap",
        "members": [
          {
            "astId": 6880,
            "contract": "contracts/mocks/MockERC721.sol:MockERC721",
            "label": "_inner",
            "offset": 0,
            "slot": "0",
            "type": "t_struct(Map)6563_storage"
          }
        ],
        "numberOfBytes": "64"
      },
      "t_uint256": {
        "encoding": "inplace",
        "label": "uint256",
        "numberOfBytes": "32"
      }
    }
  }
}