{
  "address": "0x30F05eaE48eC052beC6873E37E74545229e804F5",
  "abi": [
    {
      "anonymous": false,
      "inputs": [
        {
          "indexed": true,
          "internalType": "uint256",
          "name": "orderId",
          "type": "uint256"
        },
        {
          "indexed": false,
          "internalType": "address",
          "name": "owner",
          "type": "address"
        }
      ],
      "name": "OrderCanceled",
      "type": "event"
    },
    {
      "anonymous": false,
      "inputs": [
        {
          "indexed": true,
          "internalType": "uint256",
          "name": "orderId",
          "type": "uint256"
        },
        {
          "indexed": false,
          "internalType": "address",
          "name": "assetAddress",
          "type": "address"
        },
        {
          "indexed": false,
          "internalType": "uint256",
          "name": "tokenId",
          "type": "uint256"
        },
        {
          "indexed": false,
          "internalType": "bool",
          "name": "is1155",
          "type": "bool"
        },
        {
          "indexed": false,
          "internalType": "address",
          "name": "owner",
          "type": "address"
        },
        {
          "indexed": false,
          "internalType": "bytes32",
          "name": "root",
          "type": "bytes32"
        }
      ],
      "name": "OrderCreated",
      "type": "event"
    },
    {
      "anonymous": false,
      "inputs": [
        {
          "indexed": true,
          "internalType": "address",
          "name": "previousOwner",
          "type": "address"
        },
        {
          "indexed": true,
          "internalType": "address",
          "name": "newOwner",
          "type": "address"
        }
      ],
      "name": "OwnershipTransferred",
      "type": "event"
    },
    {
      "anonymous": false,
      "inputs": [
        {
          "indexed": false,
          "internalType": "address",
          "name": "account",
          "type": "address"
        }
      ],
      "name": "Paused",
      "type": "event"
    },
    {
      "anonymous": false,
      "inputs": [
        {
          "indexed": true,
          "internalType": "uint256",
          "name": "orderId",
          "type": "uint256"
        },
        {
          "indexed": false,
          "internalType": "address",
          "name": "fromAddress",
          "type": "address"
        },
        {
          "indexed": false,
          "internalType": "address",
          "name": "fromAssetAddress",
          "type": "address"
        },
        {
          "indexed": false,
          "internalType": "uint256",
          "name": "fromTokenId",
          "type": "uint256"
        },
        {
          "indexed": false,
          "internalType": "address",
          "name": "toAddress",
          "type": "address"
        },
        {
          "indexed": false,
          "internalType": "address",
          "name": "toAssetAddress",
          "type": "address"
        },
        {
          "indexed": false,
          "internalType": "uint256",
          "name": "toTokenId",
          "type": "uint256"
        }
      ],
      "name": "Swapped",
      "type": "event"
    },
    {
      "anonymous": false,
      "inputs": [
        {
          "indexed": false,
          "internalType": "address",
          "name": "account",
          "type": "address"
        }
      ],
      "name": "Unpaused",
      "type": "event"
    },
    {
      "inputs": [
        {
          "internalType": "address",
          "name": "_address",
          "type": "address"
        }
      ],
      "name": "addAddress",
      "outputs": [],
      "stateMutability": "nonpayable",
      "type": "function"
    },
    {
      "inputs": [
        {
          "internalType": "uint256",
          "name": "_orderId",
          "type": "uint256"
        }
      ],
      "name": "cancelOrder",
      "outputs": [],
      "stateMutability": "nonpayable",
      "type": "function"
    },
    {
      "inputs": [
        {
          "internalType": "uint256[]",
          "name": "_orderId",
          "type": "uint256[]"
        },
        {
          "internalType": "address[]",
          "name": "_assetAddress",
          "type": "address[]"
        },
        {
          "internalType": "uint256[]",
          "name": "_tokenId",
          "type": "uint256[]"
        },
        {
          "internalType": "bool[]",
          "name": "_is1155",
          "type": "bool[]"
        },
        {
          "internalType": "bytes32[]",
          "name": "_root",
          "type": "bytes32[]"
        }
      ],
      "name": "createBatchOrders",
      "outputs": [],
      "stateMutability": "nonpayable",
      "type": "function"
    },
    {
      "inputs": [
        {
          "internalType": "uint256",
          "name": "_orderId",
          "type": "uint256"
        },
        {
          "internalType": "address",
          "name": "_assetAddress",
          "type": "address"
        },
        {
          "internalType": "uint256",
          "name": "_tokenId",
          "type": "uint256"
        },
        {
          "internalType": "bool",
          "name": "_is1155",
          "type": "bool"
        },
        {
          "internalType": "bytes32",
          "name": "_root",
          "type": "bytes32"
        }
      ],
      "name": "createOrder",
      "outputs": [],
      "stateMutability": "nonpayable",
      "type": "function"
    },
    {
      "inputs": [
        {
          "internalType": "uint256",
          "name": "_orderId",
          "type": "uint256"
        },
        {
          "internalType": "address",
          "name": "_assetAddress",
          "type": "address"
        },
        {
          "internalType": "uint256",
          "name": "_tokenId",
          "type": "uint256"
        },
        {
          "internalType": "bytes32[]",
          "name": "_proof",
          "type": "bytes32[]"
        }
      ],
      "name": "eligibleToSwap",
      "outputs": [
        {
          "internalType": "bool",
          "name": "",
          "type": "bool"
        }
      ],
      "stateMutability": "view",
      "type": "function"
    },
    {
      "inputs": [
        {
          "internalType": "address",
          "name": "_devAddress",
          "type": "address"
        }
      ],
      "name": "initialize",
      "outputs": [],
      "stateMutability": "nonpayable",
      "type": "function"
    },
    {
      "inputs": [
        {
          "internalType": "address",
          "name": "_address",
          "type": "address"
        }
      ],
      "name": "isWhitelisted",
      "outputs": [
        {
          "internalType": "bool",
          "name": "",
          "type": "bool"
        }
      ],
      "stateMutability": "view",
      "type": "function"
    },
    {
      "inputs": [
        {
          "internalType": "address",
          "name": "",
          "type": "address"
        },
        {
          "internalType": "address",
          "name": "",
          "type": "address"
        },
        {
          "internalType": "uint256[]",
          "name": "",
          "type": "uint256[]"
        },
        {
          "internalType": "uint256[]",
          "name": "",
          "type": "uint256[]"
        },
        {
          "internalType": "bytes",
          "name": "",
          "type": "bytes"
        }
      ],
      "name": "onERC1155BatchReceived",
      "outputs": [
        {
          "internalType": "bytes4",
          "name": "",
          "type": "bytes4"
        }
      ],
      "stateMutability": "nonpayable",
      "type": "function"
    },
    {
      "inputs": [
        {
          "internalType": "address",
          "name": "",
          "type": "address"
        },
        {
          "internalType": "address",
          "name": "",
          "type": "address"
        },
        {
          "internalType": "uint256",
          "name": "",
          "type": "uint256"
        },
        {
          "internalType": "uint256",
          "name": "",
          "type": "uint256"
        },
        {
          "internalType": "bytes",
          "name": "",
          "type": "bytes"
        }
      ],
      "name": "onERC1155Received",
      "outputs": [
        {
          "internalType": "bytes4",
          "name": "",
          "type": "bytes4"
        }
      ],
      "stateMutability": "nonpayable",
      "type": "function"
    },
    {
      "inputs": [
        {
          "internalType": "address",
          "name": "",
          "type": "address"
        },
        {
          "internalType": "address",
          "name": "",
          "type": "address"
        },
        {
          "internalType": "uint256",
          "name": "",
          "type": "uint256"
        },
        {
          "internalType": "bytes",
          "name": "",
          "type": "bytes"
        }
      ],
      "name": "onERC721Received",
      "outputs": [
        {
          "internalType": "bytes4",
          "name": "",
          "type": "bytes4"
        }
      ],
      "stateMutability": "nonpayable",
      "type": "function"
    },
    {
      "inputs": [
        {
          "internalType": "uint256",
          "name": "",
          "type": "uint256"
        }
      ],
      "name": "orders",
      "outputs": [
        {
          "internalType": "address",
          "name": "assetAddress",
          "type": "address"
        },
        {
          "internalType": "uint256",
          "name": "tokenId",
          "type": "uint256"
        },
        {
          "internalType": "bool",
          "name": "is1155",
          "type": "bool"
        },
        {
          "internalType": "address",
          "name": "owner",
          "type": "address"
        },
        {
          "internalType": "bytes32",
          "name": "root",
          "type": "bytes32"
        },
        {
          "internalType": "bool",
          "name": "canceled",
          "type": "bool"
        },
        {
          "internalType": "bool",
          "name": "ended",
          "type": "bool"
        },
        {
          "internalType": "bool",
          "name": "active",
          "type": "bool"
        }
      ],
      "stateMutability": "view",
      "type": "function"
    },
    {
      "inputs": [],
      "name": "owner",
      "outputs": [
        {
          "internalType": "address",
          "name": "",
          "type": "address"
        }
      ],
      "stateMutability": "view",
      "type": "function"
    },
    {
      "inputs": [],
      "name": "paused",
      "outputs": [
        {
          "internalType": "bool",
          "name": "",
          "type": "bool"
        }
      ],
      "stateMutability": "view",
      "type": "function"
    },
    {
      "inputs": [
        {
          "internalType": "address",
          "name": "_address",
          "type": "address"
        }
      ],
      "name": "removeAddress",
      "outputs": [],
      "stateMutability": "nonpayable",
      "type": "function"
    },
    {
      "inputs": [],
      "name": "renounceOwnership",
      "outputs": [],
      "stateMutability": "nonpayable",
      "type": "function"
    },
    {
      "inputs": [
        {
          "internalType": "uint256",
          "name": "_value",
          "type": "uint256"
        }
      ],
      "name": "setMaxBatchOrders",
      "outputs": [],
      "stateMutability": "nonpayable",
      "type": "function"
    },
    {
      "inputs": [],
      "name": "setPaused",
      "outputs": [],
      "stateMutability": "nonpayable",
      "type": "function"
    },
    {
      "inputs": [],
      "name": "setUnpaused",
      "outputs": [],
      "stateMutability": "nonpayable",
      "type": "function"
    },
    {
      "inputs": [
        {
          "internalType": "bytes4",
          "name": "interfaceId",
          "type": "bytes4"
        }
      ],
      "name": "supportsInterface",
      "outputs": [
        {
          "internalType": "bool",
          "name": "",
          "type": "bool"
        }
      ],
      "stateMutability": "view",
      "type": "function"
    },
    {
      "inputs": [
        {
          "internalType": "uint256",
          "name": "_orderId",
          "type": "uint256"
        },
        {
          "internalType": "address",
          "name": "_assetAddress",
          "type": "address"
        },
        {
          "internalType": "uint256",
          "name": "_tokenId",
          "type": "uint256"
        },
        {
          "internalType": "bool",
          "name": "_is1155",
          "type": "bool"
        },
        {
          "internalType": "bytes32[]",
          "name": "_proof",
          "type": "bytes32[]"
        }
      ],
      "name": "swap",
      "outputs": [],
      "stateMutability": "nonpayable",
      "type": "function"
    },
    {
      "inputs": [
        {
          "internalType": "uint256[]",
          "name": "_orderIds",
          "type": "uint256[]"
        },
        {
          "internalType": "address[]",
          "name": "_assetAddress",
          "type": "address[]"
        },
        {
          "internalType": "uint256[]",
          "name": "_tokenId",
          "type": "uint256[]"
        },
        {
          "internalType": "bool[]",
          "name": "_is1155",
          "type": "bool[]"
        },
        {
          "internalType": "bytes32[][]",
          "name": "_proof",
          "type": "bytes32[][]"
        }
      ],
      "name": "swapBatch",
      "outputs": [],
      "stateMutability": "nonpayable",
      "type": "function"
    },
    {
      "inputs": [
        {
          "internalType": "address",
          "name": "newOwner",
          "type": "address"
        }
      ],
      "name": "transferOwnership",
      "outputs": [],
      "stateMutability": "nonpayable",
      "type": "function"
    }
  ],
  "transactionHash": "0x6b30d6d234ca9ee67fbd085ddd438aacda5c5909a891d3087874d7cb6dfcf447",
  "args": [],
  "solcInputHash": "8265e4161eec9b5a7dcd6b2c71b6665f",
  "bytecode": "0x608060405234801561001057600080fd5b50613010806100206000396000f3fe608060405234801561001057600080fd5b50600436106101425760003560e01c80635c975abb116100b8578063ae3430131161007c578063ae34301314610286578063bc197c8114610299578063c0275e8d146102ac578063c4d66de8146102bf578063f23a6e61146102d2578063f2fde38b146102e557610142565b80635c975abb1461022757806367c2f12c1461022f578063715018a6146102425780638da5cb5b1461024a578063a85c38ef1461025f57610142565b806338eada1c1161010a57806338eada1c146101c05780633af32abf146101d35780633c89edce146101e65780634ba79dfe146101ee57806350cbf10e14610201578063514fcac71461021457610142565b806301ffc9a71461014757806306222a13146101705780630cdc52a414610185578063150b7a021461019857806337a66d85146101b8575b600080fd5b61015a610155366004612926565b6102f8565b6040516101679190612be5565b60405180910390f35b61018361017e3660046127a2565b610317565b005b61018361019336600461288d565b6108e4565b6101ab6101a63660046126d5565b610d9b565b6040516101679190612bf0565b610183610dab565b6101836101ce366004612609565b610e0c565b61015a6101e1366004612609565b610e8b565b610183610ea9565b6101836101fc366004612609565b610f06565b61018361020f36600461294e565b610f7e565b61018361022236600461294e565b610fd3565b61015a611221565b61018361023d3660046129bb565b61122b565b610183611606565b61025261168f565b6040516101679190612abc565b61027261026d36600461294e565b61169e565b604051610167989796959493929190612b9b565b61015a610294366004612966565b6116f9565b6101ab6102a736600461262b565b6117b9565b6101836102ba366004612a21565b6117ca565b6101836102cd366004612609565b6119e0565b6101ab6102e036600461273d565b611acb565b6101836102f3366004612609565b611adc565b6001600160e01b03191660009081526098602052604090205460ff1690565b898980806020026020016040519081016040528093929190818152602001838360200280828437600092019190915250508251610193541015915061037990505760405162461bcd60e51b815260040161037090612e34565b60405180910390fd5b60005b8151811015610435576000818152610192602052604090206004015462010000900460ff1615156001146103c25760405162461bcd60e51b815260040161037090612c61565b6000818152610192602052604090206004015460ff16156103f55760405162461bcd60e51b815260040161037090612d85565b60008181526101926020526040902060040154610100900460ff161561042d5760405162461bcd60e51b815260040161037090612ef2565b60010161037c565b5061043e611221565b1561045b5760405162461bcd60e51b815260040161037090612dbc565b6002606654141561047e5760405162461bcd60e51b815260040161037090612ebb565b600260665560005b8a8110156108d15760008c8c8381811061049c57fe5b905060200201359050610532818c8c858181106104b557fe5b90506020020160208101906104ca9190612609565b8b8b868181106104d657fe5b905060200201358888878181106104e957fe5b90506020028101906104fb9190612f29565b80806020026020016040519081016040528093929190818152602001838360200280828437600092019190915250611b9d92505050565b15156001146105535760405162461bcd60e51b815260040161037090612c8e565b86868381811061055f57fe5b9050602002016020810190610574919061290a565b151560011415610638578a8a8381811061058a57fe5b905060200201602081019061059f9190612609565b600082815261019260205260409020600201546001600160a01b039182169163f242432a913391610100909104168c8c878181106105d957fe5b9050602002013560016040518563ffffffff1660e01b81526004016106019493929190612b2f565b600060405180830381600087803b15801561061b57600080fd5b505af115801561062f573d6000803e3d6000fd5b505050506106eb565b8a8a8381811061064457fe5b90506020020160208101906106599190612609565b600082815261019260205260409020600201546001600160a01b03918216916342842e0e913391610100909104168c8c8781811061069357fe5b905060200201356040518463ffffffff1660e01b81526004016106b893929190612ad0565b600060405180830381600087803b1580156106d257600080fd5b505af11580156106e6573d6000803e3d6000fd5b505050505b6000818152610192602052604090206002015460ff1615156001141561078b57600081815261019260205260409081902080546001918201549251637921219560e11b81526001600160a01b039091169263f242432a9261075492309233929091600401612b2f565b600060405180830381600087803b15801561076e57600080fd5b505af1158015610782573d6000803e3d6000fd5b50505050610806565b600081815261019260205260409081902080546001909101549151632142170760e11b81526001600160a01b03909116916342842e0e916107d3913091339190600401612ad0565b600060405180830381600087803b1580156107ed57600080fd5b505af1158015610801573d6000803e3d6000fd5b505050505b600081815261019260205260409020600401805461ff001916610100179055807f805c49e22da9be2e9133b26f3b3d856eeac0cc4afa93c4b16eccbe2b5fd7de1b338d8d8681811061085457fe5b90506020020160208101906108699190612609565b8c8c8781811061087557fe5b600088815261019260209081526040918290206002810154815460019092015493516108c0999897959093029094013594506001600160a01b03610100909404841693169190612af4565b60405180910390a250600101610486565b5050600160665550505050505050505050565b6108ec611221565b156109095760405162461bcd60e51b815260040161037090612dbc565b6002606654141561092c5760405162461bcd60e51b815260040161037090612ebb565b600260665560005b89811015610d895761019260008c8c8481811061094d57fe5b602090810292909201358352508101919091526040016000206004015462010000900460ff16156109905760405162461bcd60e51b815260040161037090612c05565b600161019260008d8d858181106109a357fe5b90506020020135815260200190815260200160002060040160026101000a81548160ff0219169083151502179055508888828181106109de57fe5b90506020020160208101906109f39190612609565b61019260008d8d85818110610a0457fe5b90506020020135815260200190815260200160002060000160006101000a8154816001600160a01b0302191690836001600160a01b03160217905550868682818110610a4c57fe5b9050602002013561019260008d8d85818110610a6457fe5b90506020020135815260200190815260200160002060010181905550848482818110610a8c57fe5b9050602002016020810190610aa1919061290a565b61019260008d8d85818110610ab257fe5b90506020020135815260200190815260200160002060020160006101000a81548160ff021916908315150217905550828282818110610aed57fe5b9050602002013561019260008d8d85818110610b0557fe5b905060200201358152602001908152602001600020600301819055503361019260008d8d85818110610b3357fe5b90506020020135815260200190815260200160002060020160016101000a8154816001600160a01b0302191690836001600160a01b03160217905550848482818110610b7b57fe5b9050602002016020810190610b90919061290a565b151560011415610c3657888882818110610ba657fe5b9050602002016020810190610bbb9190612609565b6001600160a01b031663f242432a33308a8a86818110610bd757fe5b9050602002013560016040518563ffffffff1660e01b8152600401610bff9493929190612b2f565b600060405180830381600087803b158015610c1957600080fd5b505af1158015610c2d573d6000803e3d6000fd5b50505050610ccb565b888882818110610c4257fe5b9050602002016020810190610c579190612609565b6001600160a01b03166342842e0e33308a8a86818110610c7357fe5b905060200201356040518463ffffffff1660e01b8152600401610c9893929190612ad0565b600060405180830381600087803b158015610cb257600080fd5b505af1158015610cc6573d6000803e3d6000fd5b505050505b8a8a82818110610cd757fe5b905060200201357fde3b249a928a461ed26b543eee0d35d3b55f1de36390180411348c212f26b5098a8a84818110610d0b57fe5b9050602002016020810190610d209190612609565b898985818110610d2c57fe5b90506020020135888886818110610d3f57fe5b9050602002016020810190610d54919061290a565b33888888818110610d6157fe5b90506020020135604051610d79959493929190612b68565b60405180910390a2600101610934565b50506001606655505050505050505050565b630a85bd0160e11b949350505050565b6000610db5611bed565b9050610dc081610e8b565b610ddc5760405162461bcd60e51b815260040161037090612e5f565b610de4611221565b15610e015760405162461bcd60e51b815260040161037090612dbc565b610e09611bf1565b50565b6000610e16611bed565b9050610e2181610e8b565b610e3d5760405162461bcd60e51b815260040161037090612e5f565b6001600160a01b03821660009081526065602052604090205460ff1615610e6357610e87565b6001600160a01b0382166000908152606560205260409020805460ff191660011790555b5050565b6001600160a01b031660009081526065602052604090205460ff1690565b6000610eb3611bed565b9050610ebe81610e8b565b610eda5760405162461bcd60e51b815260040161037090612e5f565b610ee2611221565b610efe5760405162461bcd60e51b815260040161037090612c33565b610e09611c64565b6000610f10611bed565b9050610f1b81610e8b565b610f375760405162461bcd60e51b815260040161037090612e5f565b6001600160a01b03821660009081526065602052604090205460ff16610f5c57610e87565b506001600160a01b03166000908152606560205260409020805460ff19169055565b6000610f88611bed565b9050610f9381610e8b565b610faf5760405162461bcd60e51b815260040161037090612e5f565b81610fcc5760405162461bcd60e51b815260040161037090612e94565b5061019355565b610fdb611221565b15610ff85760405162461bcd60e51b815260040161037090612dbc565b6002606654141561101b5760405162461bcd60e51b815260040161037090612ebb565b60026066556000818152610192602052604090206004015462010000900460ff16151560011461105d5760405162461bcd60e51b815260040161037090612c61565b6000818152610192602052604090206002015461010090046001600160a01b0316331461109c5760405162461bcd60e51b815260040161037090612d56565b6000818152610192602052604090206002015460ff1615156001141561113c57600081815261019260205260409081902080546001918201549251637921219560e11b81526001600160a01b039091169263f242432a9261110592309233929091600401612b2f565b600060405180830381600087803b15801561111f57600080fd5b505af1158015611133573d6000803e3d6000fd5b505050506111b7565b600081815261019260205260409081902080546001909101549151632142170760e11b81526001600160a01b03909116916342842e0e91611184913091339190600401612ad0565b600060405180830381600087803b15801561119e57600080fd5b505af11580156111b2573d6000803e3d6000fd5b505050505b6000818152610192602052604090819020600401805461ff001960ff19909116600117166101001790555181907f9384174c8517f5537b08e79211fc039e8a098571a3a2b4cb21dfa6f3237e8de190611211903390612abc565b60405180910390a2506001606655565b6101605460ff1690565b60008581526101926020526040902060040154859062010000900460ff16151560011461126a5760405162461bcd60e51b815260040161037090612c61565b6000818152610192602052604090206004015460ff161561129d5760405162461bcd60e51b815260040161037090612d85565b60008181526101926020526040902060040154610100900460ff16156112d55760405162461bcd60e51b815260040161037090612ef2565b6112dd611221565b156112fa5760405162461bcd60e51b815260040161037090612dbc565b6002606654141561131d5760405162461bcd60e51b815260040161037090612ebb565b600260665561132e86868685611b9d565b151560011461134f5760405162461bcd60e51b815260040161037090612c8e565b600183151514156113de576000868152610192602052604090819020600201549051637921219560e11b81526001600160a01b038088169263f242432a926113a7923392610100900416908990600190600401612b2f565b600060405180830381600087803b1580156113c157600080fd5b505af11580156113d5573d6000803e3d6000fd5b5050505061145b565b6000868152610192602052604090819020600201549051632142170760e11b81526001600160a01b03808816926342842e0e92611428923392610100900416908990600401612ad0565b600060405180830381600087803b15801561144257600080fd5b505af1158015611456573d6000803e3d6000fd5b505050505b6000868152610192602052604090206002015460ff161515600114156114fb57600086815261019260205260409081902080546001918201549251637921219560e11b81526001600160a01b039091169263f242432a926114c492309233929091600401612b2f565b600060405180830381600087803b1580156114de57600080fd5b505af11580156114f2573d6000803e3d6000fd5b50505050611576565b600086815261019260205260409081902080546001909101549151632142170760e11b81526001600160a01b03909116916342842e0e91611543913091339190600401612ad0565b600060405180830381600087803b15801561155d57600080fd5b505af1158015611571573d6000803e3d6000fd5b505050505b600086815261019260205260409081902060048101805461ff001916610100908117909155600282015482546001939093015493518a947f805c49e22da9be2e9133b26f3b3d856eeac0cc4afa93c4b16eccbe2b5fd7de1b946115f19433948d948d946001600160a01b039390920483169390921691612af4565b60405180910390a25050600160665550505050565b61160e611bed565b6001600160a01b031661161f61168f565b6001600160a01b0316146116455760405162461bcd60e51b815260040161037090612e5f565b6033546040516000916001600160a01b0316907f8be0079c531659141344cd1fd0a4f28419497f9722a3daafe3b4186f6b6457e0908390a3603380546001600160a01b0319169055565b6033546001600160a01b031690565b61019260205260009081526040902080546001820154600283015460038401546004909401546001600160a01b0393841694929360ff8084169461010094859004909216939192808216928104821691620100009091041688565b60008481526101926020526040812060040154859062010000900460ff1615156001146117385760405162461bcd60e51b815260040161037090612c61565b6000818152610192602052604090206004015460ff161561176b5760405162461bcd60e51b815260040161037090612d85565b60008181526101926020526040902060040154610100900460ff16156117a35760405162461bcd60e51b815260040161037090612ef2565b6117af86868686611b9d565b9695505050505050565b63bc197c8160e01b95945050505050565b600260665414156117ed5760405162461bcd60e51b815260040161037090612ebb565b60026066556117fa611221565b156118175760405162461bcd60e51b815260040161037090612dbc565b6000858152610192602052604090206004015462010000900460ff16156118505760405162461bcd60e51b815260040161037090612c05565b60008581526101926020526040902060048101805462ff000019166201000017905580546001600160a01b0386166001600160a01b0319909116178155600181810185905560028201805460039093018490553361010002610100600160a81b031986151560ff19909516851716179055141561193157604051637921219560e11b81526001600160a01b0385169063f242432a906118fa90339030908890600190600401612b2f565b600060405180830381600087803b15801561191457600080fd5b505af1158015611928573d6000803e3d6000fd5b50505050611994565b604051632142170760e11b81526001600160a01b038516906342842e0e9061196190339030908890600401612ad0565b600060405180830381600087803b15801561197b57600080fd5b505af115801561198f573d6000803e3d6000fd5b505050505b847fde3b249a928a461ed26b543eee0d35d3b55f1de36390180411348c212f26b50985858533866040516119cc959493929190612b68565b60405180910390a250506001606655505050565b600054610100900460ff16806119f957506119f9611cbc565b80611a07575060005460ff16155b611a235760405162461bcd60e51b815260040161037090612de6565b600054610100900460ff16158015611a4e576000805460ff1961ff0019909116610100171660011790555b611a56611ccd565b611a5e611d57565b611a66611dcd565b611a6e611e43565b611a76611ec1565b611a7e611f3f565b611a8782610e0c565b600a610193556001600160a01b0382163314611aa657611aa633610e0c565b611ab6630a85bd0160e11b611ff6565b8015610e87576000805461ff00191690555050565b63f23a6e6160e01b95945050505050565b611ae4611bed565b6001600160a01b0316611af561168f565b6001600160a01b031614611b1b5760405162461bcd60e51b815260040161037090612e5f565b6001600160a01b038116611b415760405162461bcd60e51b815260040161037090612cd9565b6033546040516001600160a01b038084169216907f8be0079c531659141344cd1fd0a4f28419497f9722a3daafe3b4186f6b6457e090600090a3603380546001600160a01b0319166001600160a01b0392909216919091179055565b6000808484604051602001611bb3929190612a8c565b6040516020818303038152906040528051906020012090506117af8361019260008981526020019081526020016000206003015483612045565b3390565b611bf9611221565b15611c165760405162461bcd60e51b815260040161037090612dbc565b610160805460ff191660011790557f62e78cea01bee320cd4e420270b5ea74000d11b0c9f74754ebdbfc544b05a258611c4d611bed565b604051611c5a9190612abc565b60405180910390a1565b611c6c611221565b611c885760405162461bcd60e51b815260040161037090612c33565b610160805460ff191690557f5db9ee0a495bf2e6ff9c91a7834c1ba4fdd244a5e8aa4e537bd38aeae4b073aa611c4d611bed565b6000611cc7306120e2565b15905090565b600054610100900460ff1680611ce65750611ce6611cbc565b80611cf4575060005460ff16155b611d105760405162461bcd60e51b815260040161037090612de6565b600054610100900460ff16158015611d3b576000805460ff1961ff0019909116610100171660011790555b611d436120e8565b8015610e09576000805461ff001916905550565b600054610100900460ff1680611d705750611d70611cbc565b80611d7e575060005460ff16155b611d9a5760405162461bcd60e51b815260040161037090612de6565b600054610100900460ff16158015611dc5576000805460ff1961ff0019909116610100171660011790555b611d4361216f565b600054610100900460ff1680611de65750611de6611cbc565b80611df4575060005460ff16155b611e105760405162461bcd60e51b815260040161037090612de6565b600054610100900460ff16158015611e3b576000805460ff1961ff0019909116610100171660011790555b611d436121f0565b600054610100900460ff1680611e5c5750611e5c611cbc565b80611e6a575060005460ff16155b611e865760405162461bcd60e51b815260040161037090612de6565b600054610100900460ff16158015611eb1576000805460ff1961ff0019909116610100171660011790555b611eb96121f0565b611dc561226e565b600054610100900460ff1680611eda5750611eda611cbc565b80611ee8575060005460ff16155b611f045760405162461bcd60e51b815260040161037090612de6565b600054610100900460ff16158015611f2f576000805460ff1961ff0019909116610100171660011790555b611f3761216f565b611d436122ec565b600054610100900460ff1680611f585750611f58611cbc565b80611f66575060005460ff16155b611f825760405162461bcd60e51b815260040161037090612de6565b600054610100900460ff16158015611fad576000805460ff1961ff0019909116610100171660011790555b611fb5612379565b6000611fbf611bed565b6001600160a01b03166000908152606560205260409020805460ff19166001179055508015610e09576000805461ff001916905550565b6001600160e01b031980821614156120205760405162461bcd60e51b815260040161037090612d1f565b6001600160e01b0319166000908152609860205260409020805460ff19166001179055565b600081815b85518110156120d757600086828151811061206157fe5b602002602001015190508083116120a2578281604051602001612085929190612aae565b6040516020818303038152906040528051906020012092506120ce565b80836040516020016120b5929190612aae565b6040516020818303038152906040528051906020012092505b5060010161204a565b509092149392505050565b3b151590565b600054610100900460ff16806121015750612101611cbc565b8061210f575060005460ff16155b61212b5760405162461bcd60e51b815260040161037090612de6565b600054610100900460ff16158015612156576000805460ff1961ff0019909116610100171660011790555b60016066558015610e09576000805461ff001916905550565b600054610100900460ff16806121885750612188611cbc565b80612196575060005460ff16155b6121b25760405162461bcd60e51b815260040161037090612de6565b600054610100900460ff16158015611d43576000805460ff1961ff0019909116610100171660011790558015610e09576000805461ff001916905550565b600054610100900460ff16806122095750612209611cbc565b80612217575060005460ff16155b6122335760405162461bcd60e51b815260040161037090612de6565b600054610100900460ff1615801561225e576000805460ff1961ff0019909116610100171660011790555b611d436301ffc9a760e01b611ff6565b600054610100900460ff16806122875750612287611cbc565b80612295575060005460ff16155b6122b15760405162461bcd60e51b815260040161037090612de6565b600054610100900460ff161580156122dc576000805460ff1961ff0019909116610100171660011790555b611d43630271189760e51b611ff6565b600054610100900460ff16806123055750612305611cbc565b80612313575060005460ff16155b61232f5760405162461bcd60e51b815260040161037090612de6565b600054610100900460ff1615801561235a576000805460ff1961ff0019909116610100171660011790555b610160805460ff191690558015610e09576000805461ff001916905550565b600054610100900460ff16806123925750612392611cbc565b806123a0575060005460ff16155b6123bc5760405162461bcd60e51b815260040161037090612de6565b600054610100900460ff161580156123e7576000805460ff1961ff0019909116610100171660011790555b6123ef61216f565b611d43600054610100900460ff168061240b575061240b611cbc565b80612419575060005460ff16155b6124355760405162461bcd60e51b815260040161037090612de6565b600054610100900460ff16158015612460576000805460ff1961ff0019909116610100171660011790555b600061246a611bed565b603380546001600160a01b0319166001600160a01b038316908117909155604051919250906000907f8be0079c531659141344cd1fd0a4f28419497f9722a3daafe3b4186f6b6457e0908290a3508015610e09576000805461ff001916905550565b80356001600160a01b03811681146124e357600080fd5b92915050565b60008083601f8401126124fa578182fd5b50813567ffffffffffffffff811115612511578182fd5b602083019150836020808302850101111561252b57600080fd5b9250929050565b600082601f830112612542578081fd5b813561255561255082612f97565b612f70565b81815291506020808301908481018184028601820187101561257657600080fd5b60005b8481101561259557813584529282019290820190600101612579565b505050505092915050565b600082601f8301126125b0578081fd5b813567ffffffffffffffff8111156125c6578182fd5b6125d9601f8201601f1916602001612f70565b91508082528360208285010111156125f057600080fd5b8060208401602084013760009082016020015292915050565b60006020828403121561261a578081fd5b61262483836124cc565b9392505050565b600080600080600060a08688031215612642578081fd5b853561264d81612fb7565b9450602086013561265d81612fb7565b9350604086013567ffffffffffffffff80821115612679578283fd5b61268589838a01612532565b9450606088013591508082111561269a578283fd5b6126a689838a01612532565b935060808801359150808211156126bb578283fd5b506126c8888289016125a0565b9150509295509295909350565b600080600080608085870312156126ea578384fd5b6126f486866124cc565b935061270386602087016124cc565b925060408501359150606085013567ffffffffffffffff811115612725578182fd5b612731878288016125a0565b91505092959194509250565b600080600080600060a08688031215612754578081fd5b61275e87876124cc565b945061276d87602088016124cc565b93506040860135925060608601359150608086013567ffffffffffffffff811115612796578182fd5b6126c8888289016125a0565b60008060008060008060008060008060a08b8d0312156127c0578485fd5b8a3567ffffffffffffffff808211156127d7578687fd5b6127e38e838f016124e9565b909c509a5060208d01359150808211156127fb578687fd5b6128078e838f016124e9565b909a50985060408d013591508082111561281f578687fd5b61282b8e838f016124e9565b909850965060608d0135915080821115612843578586fd5b61284f8e838f016124e9565b909650945060808d0135915080821115612867578384fd5b506128748d828e016124e9565b915080935050809150509295989b9194979a5092959850565b60008060008060008060008060008060a08b8d0312156128ab578586fd5b8a3567ffffffffffffffff808211156128c2578788fd5b6128ce8e838f016124e9565b909c509a5060208d01359150808211156128e6578788fd5b6128f28e838f016124e9565b909a50985060408d013591508082111561281f578788fd5b60006020828403121561291b578081fd5b813561262481612fcc565b600060208284031215612937578081fd5b81356001600160e01b031981168114612624578182fd5b60006020828403121561295f578081fd5b5035919050565b6000806000806080858703121561297b578182fd5b84359350602085013561298d81612fb7565b925060408501359150606085013567ffffffffffffffff8111156129af578182fd5b61273187828801612532565b600080600080600060a086880312156129d2578283fd5b853594506129e387602088016124cc565b93506040860135925060608601356129fa81612fcc565b9150608086013567ffffffffffffffff811115612a15578182fd5b6126c888828901612532565b600080600080600060a08688031215612a38578283fd5b85359450612a4987602088016124cc565b93506040860135925060608601358015158114612a64578182fd5b949793965091946080013592915050565b60048152630307830360e41b602082015260400190565b60609290921b6bffffffffffffffffffffffff19168252601482015260340190565b918252602082015260400190565b6001600160a01b0391909116815260200190565b6001600160a01b039384168152919092166020820152604081019190915260600190565b6001600160a01b039687168152948616602086015260408501939093529084166060840152909216608082015260a081019190915260c00190565b6001600160a01b03858116825284166020820152604081018390526060810182905260a0608082018190526000906117af908301612a75565b6001600160a01b039586168152602081019490945291151560408401529092166060820152608081019190915260a00190565b6001600160a01b03988916815260208101979097529415156040870152929095166060850152608084015292151560a083015291151560c082015290151560e08201526101000190565b901515815260200190565b6001600160e01b031991909116815260200190565b60208082526014908201527311da5d995b881251081a5cc81bd8d8dd5c1a595960621b604082015260600190565b60208082526014908201527314185d5cd8589b194e881b9bdd081c185d5cd95960621b604082015260600190565b60208082526013908201527211da5d995b881251081a5cc81a5b9d985b1a59606a1b604082015260600190565b6020808252602b908201527f5468652063616c6c6572206973206e6f7420656c696769626c6520746f20636c60408201526a185a5b481d1a194813919560aa1b606082015260800190565b60208082526026908201527f4f776e61626c653a206e6577206f776e657220697320746865207a65726f206160408201526564647265737360d01b606082015260800190565b6020808252601c908201527f4552433136353a20696e76616c696420696e7465726661636520696400000000604082015260600190565b6020808252601590820152742cb7ba9030b932903737ba103a34329037bbb732b960591b604082015260600190565b6020808252601c908201527f546865206f7264657220686173206265656e2063616e63656c6c656400000000604082015260600190565b60208082526010908201526f14185d5cd8589b194e881c185d5cd95960821b604082015260600190565b6020808252602e908201527f496e697469616c697a61626c653a20636f6e747261637420697320616c72656160408201526d191e481a5b9a5d1a585b1a5e995960921b606082015260800190565b6020808252601190820152704578636565642062617463682073697a6560781b604082015260600190565b6020808252818101527f4f776e61626c653a2063616c6c6572206973206e6f7420746865206f776e6572604082015260600190565b6020808252600d908201526c496e76616c69642076616c756560981b604082015260600190565b6020808252601f908201527f5265656e7472616e637947756172643a207265656e7472616e742063616c6c00604082015260600190565b6020808252601c908201527f546865206f7264657220686173206265656e2066756c66696c6c656400000000604082015260600190565b6000808335601e19843603018112612f3f578283fd5b83018035915067ffffffffffffffff821115612f59578283fd5b602090810192508102360382131561252b57600080fd5b60405181810167ffffffffffffffff81118282101715612f8f57600080fd5b604052919050565b600067ffffffffffffffff821115612fad578081fd5b5060209081020190565b6001600160a01b0381168114610e0957600080fd5b8015158114610e0957600080fdfea2646970667358221220d90efb67501780307caac5e2b21823eac1f9f0e04f1ddc9759aab02ba5ffbd1964736f6c634300060c0033",
  "devdoc": {
    "kind": "dev",
    "methods": {
      "addAddress(address)": {
        "details": "adds a given address to the whitelist",
        "params": {
          "_address": "address to add"
        }
      },
      "cancelOrder(uint256)": {
        "params": {
          "_orderId": "ID that want to cancel"
        }
      },
      "createOrder(uint256,address,uint256,bool,bytes32)": {
        "params": {
          "_orderId": "ID for the event"
        }
      },
      "isWhitelisted(address)": {
        "details": "returns true if a given address is whitelisted, false if not",
        "params": {
          "_address": "address to check"
        },
        "returns": {
          "_0": "true if the address is whitelisted, false if not"
        }
      },
      "onERC721Received(address,address,uint256,bytes)": {
        "details": "See {IERC721Receiver-onERC721Received}. Always returns `IERC721Receiver.onERC721Received.selector`."
      },
      "owner()": {
        "details": "Returns the address of the current owner."
      },
      "paused()": {
        "details": "Returns true if the contract is paused, and false otherwise."
      },
      "removeAddress(address)": {
        "details": "removes a given address from the whitelist",
        "params": {
          "_address": "address to remove"
        }
      },
      "renounceOwnership()": {
        "details": "Leaves the contract without owner. It will not be possible to call `onlyOwner` functions anymore. Can only be called by the current owner. NOTE: Renouncing ownership will leave the contract without an owner, thereby removing any functionality that is only available to the owner."
      },
      "supportsInterface(bytes4)": {
        "details": "See {IERC165-supportsInterface}. Time complexity O(1), guaranteed to always use less than 30 000 gas."
      },
      "transferOwnership(address)": {
        "details": "Transfers ownership of the contract to a new account (`newOwner`). Can only be called by the current owner."
      }
    },
    "title": "P2P marketplace",
    "version": 1
  },
  "userdoc": {
    "kind": "user",
    "methods": {
      "cancelOrder(uint256)": {
        "notice": "cancel the order and return NFT back to the original holder"
      },
      "createOrder(uint256,address,uint256,bool,bytes32)": {
        "notice": "create an order and deposit NFT to the contract"
      }
    },
    "version": 1
  },
  "storageLayout": {
    "storage": [
      {
        "astId": 1105,
        "contract": "contracts/NFTMarketplaceUpgradeable.sol:NFTMarketplaceUpgradeable",
        "label": "_initialized",
        "offset": 0,
        "slot": "0",
        "type": "t_bool"
      },
      {
        "astId": 1108,
        "contract": "contracts/NFTMarketplaceUpgradeable.sol:NFTMarketplaceUpgradeable",
        "label": "_initializing",
        "offset": 1,
        "slot": "0",
        "type": "t_bool"
      },
      {
        "astId": 2223,
        "contract": "contracts/NFTMarketplaceUpgradeable.sol:NFTMarketplaceUpgradeable",
        "label": "__gap",
        "offset": 0,
        "slot": "1",
        "type": "t_array(t_uint256)50_storage"
      },
      {
        "astId": 465,
        "contract": "contracts/NFTMarketplaceUpgradeable.sol:NFTMarketplaceUpgradeable",
        "label": "_owner",
        "offset": 0,
        "slot": "51",
        "type": "t_address"
      },
      {
        "astId": 584,
        "contract": "contracts/NFTMarketplaceUpgradeable.sol:NFTMarketplaceUpgradeable",
        "label": "__gap",
        "offset": 0,
        "slot": "52",
        "type": "t_array(t_uint256)49_storage"
      },
      {
        "astId": 22399,
        "contract": "contracts/NFTMarketplaceUpgradeable.sol:NFTMarketplaceUpgradeable",
        "label": "whitelist",
        "offset": 0,
        "slot": "101",
        "type": "t_mapping(t_address,t_bool)"
      },
      {
        "astId": 2351,
        "contract": "contracts/NFTMarketplaceUpgradeable.sol:NFTMarketplaceUpgradeable",
        "label": "_status",
        "offset": 0,
        "slot": "102",
        "type": "t_uint256"
      },
      {
        "astId": 2394,
        "contract": "contracts/NFTMarketplaceUpgradeable.sol:NFTMarketplaceUpgradeable",
        "label": "__gap",
        "offset": 0,
        "slot": "103",
        "type": "t_array(t_uint256)49_storage"
      },
      {
        "astId": 673,
        "contract": "contracts/NFTMarketplaceUpgradeable.sol:NFTMarketplaceUpgradeable",
        "label": "_supportedInterfaces",
        "offset": 0,
        "slot": "152",
        "type": "t_mapping(t_bytes4,t_bool)"
      },
      {
        "astId": 730,
        "contract": "contracts/NFTMarketplaceUpgradeable.sol:NFTMarketplaceUpgradeable",
        "label": "__gap",
        "offset": 0,
        "slot": "153",
        "type": "t_array(t_uint256)49_storage"
      },
      {
        "astId": 1800,
        "contract": "contracts/NFTMarketplaceUpgradeable.sol:NFTMarketplaceUpgradeable",
        "label": "__gap",
        "offset": 0,
        "slot": "202",
        "type": "t_array(t_uint256)50_storage"
      },
      {
        "astId": 1297,
        "contract": "contracts/NFTMarketplaceUpgradeable.sol:NFTMarketplaceUpgradeable",
        "label": "__gap",
        "offset": 0,
        "slot": "252",
        "type": "t_array(t_uint256)50_storage"
      },
      {
        "astId": 1242,
        "contract": "contracts/NFTMarketplaceUpgradeable.sol:NFTMarketplaceUpgradeable",
        "label": "__gap",
        "offset": 0,
        "slot": "302",
        "type": "t_array(t_uint256)50_storage"
      },
      {
        "astId": 2245,
        "contract": "contracts/NFTMarketplaceUpgradeable.sol:NFTMarketplaceUpgradeable",
        "label": "_paused",
        "offset": 0,
        "slot": "352",
        "type": "t_bool"
      },
      {
        "astId": 2336,
        "contract": "contracts/NFTMarketplaceUpgradeable.sol:NFTMarketplaceUpgradeable",
        "label": "__gap",
        "offset": 0,
        "slot": "353",
        "type": "t_array(t_uint256)49_storage"
      },
      {
        "astId": 11785,
        "contract": "contracts/NFTMarketplaceUpgradeable.sol:NFTMarketplaceUpgradeable",
        "label": "orders",
        "offset": 0,
        "slot": "402",
        "type": "t_mapping(t_uint256,t_struct(Order)11781_storage)"
      },
      {
        "astId": 11787,
        "contract": "contracts/NFTMarketplaceUpgradeable.sol:NFTMarketplaceUpgradeable",
        "label": "maxBatchOrders",
        "offset": 0,
        "slot": "403",
        "type": "t_uint256"
      }
    ],
    "types": {
      "t_address": {
        "encoding": "inplace",
        "label": "address",
        "numberOfBytes": "20"
      },
      "t_array(t_uint256)49_storage": {
        "base": "t_uint256",
        "encoding": "inplace",
        "label": "uint256[49]",
        "numberOfBytes": "1568"
      },
      "t_array(t_uint256)50_storage": {
        "base": "t_uint256",
        "encoding": "inplace",
        "label": "uint256[50]",
        "numberOfBytes": "1600"
      },
      "t_bool": {
        "encoding": "inplace",
        "label": "bool",
        "numberOfBytes": "1"
      },
      "t_bytes32": {
        "encoding": "inplace",
        "label": "bytes32",
        "numberOfBytes": "32"
      },
      "t_bytes4": {
        "encoding": "inplace",
        "label": "bytes4",
        "numberOfBytes": "4"
      },
      "t_mapping(t_address,t_bool)": {
        "encoding": "mapping",
        "key": "t_address",
        "label": "mapping(address => bool)",
        "numberOfBytes": "32",
        "value": "t_bool"
      },
      "t_mapping(t_bytes4,t_bool)": {
        "encoding": "mapping",
        "key": "t_bytes4",
        "label": "mapping(bytes4 => bool)",
        "numberOfBytes": "32",
        "value": "t_bool"
      },
      "t_mapping(t_uint256,t_struct(Order)11781_storage)": {
        "encoding": "mapping",
        "key": "t_uint256",
        "label": "mapping(uint256 => struct NFTMarketplaceUpgradeable.Order)",
        "numberOfBytes": "32",
        "value": "t_struct(Order)11781_storage"
      },
      "t_struct(Order)11781_storage": {
        "encoding": "inplace",
        "label": "struct NFTMarketplaceUpgradeable.Order",
        "members": [
          {
            "astId": 11766,
            "contract": "contracts/NFTMarketplaceUpgradeable.sol:NFTMarketplaceUpgradeable",
            "label": "assetAddress",
            "offset": 0,
            "slot": "0",
            "type": "t_address"
          },
          {
            "astId": 11768,
            "contract": "contracts/NFTMarketplaceUpgradeable.sol:NFTMarketplaceUpgradeable",
            "label": "tokenId",
            "offset": 0,
            "slot": "1",
            "type": "t_uint256"
          },
          {
            "astId": 11770,
            "contract": "contracts/NFTMarketplaceUpgradeable.sol:NFTMarketplaceUpgradeable",
            "label": "is1155",
            "offset": 0,
            "slot": "2",
            "type": "t_bool"
          },
          {
            "astId": 11772,
            "contract": "contracts/NFTMarketplaceUpgradeable.sol:NFTMarketplaceUpgradeable",
            "label": "owner",
            "offset": 1,
            "slot": "2",
            "type": "t_address"
          },
          {
            "astId": 11774,
            "contract": "contracts/NFTMarketplaceUpgradeable.sol:NFTMarketplaceUpgradeable",
            "label": "root",
            "offset": 0,
            "slot": "3",
            "type": "t_bytes32"
          },
          {
            "astId": 11776,
            "contract": "contracts/NFTMarketplaceUpgradeable.sol:NFTMarketplaceUpgradeable",
            "label": "canceled",
            "offset": 0,
            "slot": "4",
            "type": "t_bool"
          },
          {
            "astId": 11778,
            "contract": "contracts/NFTMarketplaceUpgradeable.sol:NFTMarketplaceUpgradeable",
            "label": "ended",
            "offset": 1,
            "slot": "4",
            "type": "t_bool"
          },
          {
            "astId": 11780,
            "contract": "contracts/NFTMarketplaceUpgradeable.sol:NFTMarketplaceUpgradeable",
            "label": "active",
            "offset": 2,
            "slot": "4",
            "type": "t_bool"
          }
        ],
        "numberOfBytes": "160"
      },
      "t_uint256": {
        "encoding": "inplace",
        "label": "uint256",
        "numberOfBytes": "32"
      }
    }
  }
}